0219722897932062010010100004+35233-120633FM-15+0065KSBP V0203201N005112200019N0160931N1+01401+00701102611ADDGF100991999999999999999999KA1999M+01831KA2999N+01221MA1102611999999MD1510031+9999REMMET091METAR KSBP 312356Z 32010KT 10SM CLR 14/07 A3030 RMK AO2 SLP261 T01440072 10183 20122 55003;EQDQ01    993SCCGA1Q02    099SCCGD1
0189722897932062010010100567+35237-120640FM-15+0063KSBP V0203205N003652200059N0160935N5+01225+00725102645ADDAA101000095GF100991999999999999999999MA1102615101845REMMET09012/31/09 16:56:01 METAR KSBP 010056Z 32007KT 10SM CLR 12/07 A3030 RMK AO2 SLP264 T01220072EQDQ01    099SCCGD1P01    003SCCGA1
0188722897932062010010101567+35237-120640FM-15+0063KSBP V0203105N00265060965MN0160935N5+01065+00725102645ADDAA101000095GA1075+060965999GD13991+0609659GF107991999999999999999999MA1102645101885REMMET09312/31/09 17:56:01 METAR KSBP 010156Z 31005KT 10SM BKN200 11/07 A3031 RMK AO2 SLP264 T01060072
0209722897932062010010102567+35237-120640FM-15+0063KSBP V0209999C000052200059N0160935N5+01115+00725102655ADDAA101000095GF100991999999999999999999MA1102645101885MD1190039+9999REMMET09612/31/09 18:56:01 METAR KSBP 010256Z 00000KT 10SM CLR 11/07 A3031 RMK AO2 SLP265 T01110072 51003EQDQ01    099SCCGD1P01    003SCCGA1
0189722897932062010010103567+35237-120640FM-15+0063KSBP V0209999C000052200059N0160935N5+00945+00675102755ADDAA101000095GF100991999999999999999999MA1102745101985REMMET09012/31/09 19:56:02 METAR KSBP 010356Z 00000KT 10SM CLR 09/07 A3034 RMK AO2 SLP275 T00940067EQDQ01    099SCCGD1P01    003SCCGA1
0189722897932062010010104567+35237-120640FM-15+0063KSBP V0209999C000052200059N0160935N5+00835+00615102785ADDAA101000095GF100991999999999999999999MA1102785102015REMMET09012/31/09 20:56:01 METAR KSBP 010456Z 00000KT 10SM CLR 08/06 A3035 RMK AO2 SLP278 T00830061EQDQ01    099SCCGD1P01    003SCCGA1
0247722897932062010010105567+35237-120640FM-15+0063KSBP V0201105N001552200059N0160935N5+00785+00615102775ADDAA101000095GF100991999999999999999999KA1999M+01441KA2999N+00721MA1102785102015MD1190149+9999REMMET10812/31/09 21:56:02 METAR KSBP 010556Z 11003KT 10SM CLR 08/06 A3035 RMK AO2 SLP277 T00780061 10144 20072 51014EQDQ01    099SCCGD1P01    003SCCGA1
0189722897932062010010106567+35237-120640FM-15+0063KSBP V0209999C000052200059N0160935N5+00675+00565102805ADDAA101000095GF100991999999999999999999MA1102815102055REMMET09012/31/09 22:56:02 METAR KSBP 010656Z 00000KT 10SM CLR 07/06 A3036 RMK AO2 SLP280 T00670056EQDQ01    099SCCGD1P01    003SCCGA1
0199722897932062010010107567+35237-120640FM-15+0063KSBP V0209999C000052200059N0160935N5+00615+00505102805ADDAA101000095GF100991999999999999999999MA1102815102055REMMET10012/31/09 23:56:02 METAR KSBP 010756Z 00000KT 10SM CLR 06/05 A3036 RMK AO2 SLP280 T00610050 401830039EQDQ01    099SCCGD1P01    003SCCGA1
0902722897932062010010107596+35237-120640SOD  +0063KSBP V020999999999999999999999999999+99999+99999999999ADDAA124000396KA1240M+01835KA2240N+00395MG1101934102574OE11240067131015465OE22240058131016075OE33240011299999995REMSOD73024 HR PRECIPITATION (IN):0.01  24 HR MAX TEMP (F):65 24 HR MAX TEMP TIME (LST):1319 24 HR MIN TEMP (F):39 24 HR MIN TEMP TIME (LST):0723 AVERAGE STATION PRESSURE:30.100 MINIMUM SEA LEVEL PRESSURE:30.29 TIME OF OCCURRENCE:1413 PEAK WIND SPEED (MPH):15  PEAK WIND DIR (DEG):310 PEAK WIND TIME (LST):1546  FASTEST 2MIN SPEED (MPH):13 FASTEST 2MIN DIR (DEG):310 FASTEST 2MIN TIME (LST):1607 AVERAGE WIND SPEED (MPH):2.5  24 HR AVG TEMP (F):52 HEATING DEGREE DAYS:13  COOLING DEGREE DAYS:0   LATEST DAY MAX TEMP (0700-1900 LST):65  LATEST NIGHT MIN TEMP(1900-0800 LST):39 HOURLY INCREMENTAL PRECIPITATION VALUES (IN):.00 0.00 0.00 0.01 0.00 0.00 0.00 0.00 0.00 0.00 0.00 0.00 0.00 0.00 0.00 0.00 0.00 0.00 0.00 0.00 0.00 0.00 0.00 0.00EQDR01  0.017AAP092R02     N7GJS072R03     N7GKS075
1258722897932062010010107596+35237-120640SOM  +0063KSBP V020999999999999999999999999999+99999+99999999999ADDAB10120196AD10050891213999999996AE1135065045025AH1005003891213485AH2010006991213525AH3015009791213575AH4020012291213585AH5030015291214065AH6045016891214165AI1060018391214165AI2080018591214165AI3100019391214165AI4120021191215365AI5150023691215445AI6180024491216195KB1744N+04785KB2744M+16445KB3744A+10615KC1N9-00160899995KC2M9+02331999995KD1744H04245KD2744C00005KE1005005055005MH1101024101794MK1102813123595100200713315REMSOM794PCP MTOT:4.73 PCP GT 24HRS:2.00 DATE(S):12-13 DAYS W/PCP >=.01:13 DAYS W/PCP >=.10:6  DAYS W/ PCP >=.50:4 DAYS W/PCP >=1.00:2 MSDP AMTS W/DATE-TIME TAGS:MIN:5 0.15  12/1348 MIN:10 0.27  12/1352 MIN:15 0.38  12/1357 MIN:20 0.48  12/1358 MIN:30 0.60  12/1406 MIN:45 0.66  12/1416 MIN:60 0.72  12/1416 MIN:80 0.73  12/1416 MIN:100 0.76  12/1416 MIN:120 0.83  12/1536 MIN:150 0.93  12/1544 MIN:180 0.96  12/1619 AVG DLY MIN:40.6  AVG DLY MAX:61.6  AVG MLY TMP:51.1  MIN TMP:29 DATE(S):08 MAX TMP:74  DATE(S):19 DAYS MAX <=32:0 DAYS MAX >=90:0  DAYS MIN <=32:5  DAYS MIN  <=0:0  AVG STP:29.830 LWST SLP:29.59 DATE/TIME:071331 HGST SLP:30.36 DATE/TIME:312359 HDD MTH TOT:424 DEP NORM:-2553 SEASON(JUL 1-JUN 30):752 DEP NORM:+22896 CDD MTH TOT:0 DEP NORM:-2553 SEASON(JAN 1-DEC 31):674 DEP NORM:-20574EQDR01  4.737ABP070R02  2.007ADP081
0209722897932062010010108567+35237-120640FM-15+0063KSBP V0209999C000052200059N0160935N5+00615+00445102755ADDAA101000095GF100991999999999999999999MA1102745101985MD1890029+9999REMMET09601/01/10 00:56:02 METAR KSBP 010856Z 00000KT 10SM CLR 06/04 A3034 RMK AO2 SLP275 T00610044 58002EQDQ01    099SCCGD1P01    003SCCGA1
0189722897932062010010109567+35237-120640FM-15+0063KSBP V0209999C000052200059N0160935N5+00565+00395102655ADDAA101000095GF100991999999999999999999MA1102645101885REMMET09001/01/10 01:56:02 METAR KSBP 010956Z 00000KT 10SM CLR 06/04 A3031 RMK AO2 SLP265 T00560039EQDQ01    099SCCGD1P01    003SCCGA1
0189722897932062010010110567+35237-120640FM-15+0063KSBP V0201305N002152200059N0160935N5+00445+00395102625ADDAA101000095GF100991999999999999999999MA1102615101845REMMET09001/01/10 02:56:02 METAR KSBP 011056Z 13004KT 10SM CLR 04/04 A3030 RMK AO2 SLP262 T00440039EQDQ01    099SCCGD1P01    003SCCGA1
0247722897932062010010111567+35237-120640FM-15+0063KSBP V0201205N001552200059N0160935N5+00565+00445102515ADDAA101000095GF100991999999999999999999KA1999M+00781KA2999N+00441MA1102515101745MD1890249+9999REMMET10801/01/10 03:56:02 METAR KSBP 011156Z 12003KT 10SM CLR 06/04 A3027 RMK AO2 SLP251 T00560044 10078 20044 58024EQDQ01    099SCCGD1P01    003SCCGA1
0189722897932062010010112567+35237-120640FM-15+0063KSBP V0209999C000052200059N0160935N5+00615+00505102475ADDAA101000095GF100991999999999999999999MA1102475101715REMMET09001/01/10 04:56:02 METAR KSBP 011256Z 00000KT 10SM CLR 06/05 A3026 RMK AO2 SLP247 T00610050EQDQ01    099SCCGD1P01    003SCCGA1
0193722897932062010010113567+35237-120640FM-15+0063KSBP V0209999C000052200059N0160935N5+00565+00445102505ADDAA101000095GA1045+060965999GD12991+0609659GF104991999999999999999999MA1102515101745REMMET09801/01/10 05:56:02 METAR KSBP 011356Z 00000KT 10SM SCT200 06/04 A3027 RMK AO2 SLP250 T00560044 (LN)
0213722897932062010010114567+35237-120640FM-15+0063KSBP V0209999C00005045725MN0160935N5+00505+00395102555ADDAA101000095GA1075+045725999GD13991+0457259GF107991999999999999999999MA1102545101785MD1390039+9999REMMET10401/01/10 06:56:02 METAR KSBP 011456Z 00000KT 10SM BKN150 05/04 A3028 RMK AO2 SLP255 T00500039 53003 (LN)
0193722897932062010010115567+35237-120640FM-15+0063KSBP V0209999C00005045725MN0160935N5+00615+00505102585ADDAA101000095GA1085+045725999GD14991+0457259GF108991999999999999999999MA1102575101815REMMET09801/01/10 07:56:02 METAR KSBP 011556Z 00000KT 10SM OVC150 06/05 A3029 RMK AO2 SLP258 T00610050 (LN)
0193722897932062010010116567+35237-120640FM-15+0063KSBP V0209999C00005045725MN0160935N5+00895+00725102645ADDAA101000095GA1085+045725999GD14991+0457259GF108991999999999999999999MA1102645101885REMMET09801/01/10 08:56:02 METAR KSBP 011656Z 00000KT 10SM OVC150 09/07 A3031 RMK AO2 SLP264 T00890072 (LN)
0252722897932062010010117567+35237-120640FM-15+0063KSBP V0209999C000052200059N0160935N5+01115+00725102655ADDAA101000095GF100991999999999999999999KA1999M+01111KA2999N+00441MA1102645101885MD1190119+9999REMMET11301/01/10 09:56:02 METAR KSBP 011756Z 00000KT 10SM CLR 11/07 A3031 RMK AO2 SLP265 T01110072 10111 20044 51011 (LN)EQDQ01    099SCCGD1P01    003SCCGA1
0194722897932062010010118567+35237-120640FM-15+0063KSBP V0209999C000052200059N0160935N5+01225+00725102615ADDAA101000095GF100991999999999999999999MA1102615101845REMMET09501/01/10 10:56:02 METAR KSBP 011856Z 00000KT 10SM CLR 12/07 A3030 RMK AO2 SLP261 T01220072 (WO)EQDQ01    099SCCGD1P01    003SCCGA1
0194722897932062010010119567+35237-120640FM-15+0063KSBP V0203105N003152200059N0160935N5+01565+00835102515ADDAA101000095GF100991999999999999999999MA1102515101745REMMET09501/01/10 11:56:02 METAR KSBP 011956Z 31006KT 10SM CLR 16/08 A3027 RMK AO2 SLP251 T01560083 (WO)EQDQ01    099SCCGD1P01    003SCCGA1
0213722897932062010010120567+35237-120640FM-15+0063KSBP V0203305N00265045725MN0160935N5+01615+00615102405ADDAA101000095GA1085+045725999GD14991+0457259GF108991999999999999999999MA1102405101645MD1890259+9999REMMET10401/01/10 12:56:02 METAR KSBP 012056Z 33005KT 10SM OVC150 16/06 A3024 RMK AO2 SLP240 T01610061 58025 (WO)
0194722897932062010010121567+35237-120640FM-15+0063KSBP V0203005N001552200059N0160935N5+01725+00505102305ADDAA101000095GF100991999999999999999999MA1102305101545REMMET09501/01/10 13:56:02 METAR KSBP 012156Z 30003KT 10SM CLR 17/05 A3021 RMK AO2 SLP230 T01720050 (LN)EQDQ01    099SCCGD1P01    003SCCGA1
0194722897932062010010122567+35237-120640FM-15+0063KSBP V0203205N006752200059N0160935N5+01505+00945102345ADDAA101000095GF100991999999999999999999MA1102345101585REMMET09501/01/10 14:56:02 METAR KSBP 012256Z 32013KT 10SM CLR 15/09 A3022 RMK AO2 SLP234 T01500094 (LN)EQDQ01    099SCCGD1P01    003SCCGA1
0252722897932062010010123567+35237-120640FM-15+0063KSBP V0203005N004652200059N0160935N5+01565+00785102275ADDAA101000095GF100991999999999999999999KA1999M+01781KA2999N+01111MA1102275101515MD1690139+9999REMMET11301/01/10 15:56:02 METAR KSBP 012356Z 30009KT 10SM CLR 16/08 A3020 RMK AO2 SLP227 T01560078 10178 20111 56013 (LN)EQDQ01    099SCCGD1P01    003SCCGA1
0187722897932062010010200567+35237-120640FM-15+0063KSBP V0209999V002152200059N0144845N5+01505+00675102225ADDAA101000095GA1045+051825999GD12991+0518259GF104991999999999999999999MA1102205101445REMMET09201/01/10 16:56:02 METAR KSBP 020056Z VRB04KT 9SM SCT170 15/07 A3018 RMK AO2 SLP222 T01500067
0188722897932062010010201567+35237-120640FM-15+0063KSBP V0203005N002152200059N0160935N5+01335+00785102235ADDAA101000095GA1045+054865999GD12991+0548659GF104991999999999999999999MA1102245101475REMMET09301/01/10 17:56:02 METAR KSBP 020156Z 30004KT 10SM SCT180 13/08 A3019 RMK AO2 SLP223 T01330078
0209722897932062010010202567+35237-120640FM-15+0063KSBP V0202605N003652200059N0160935N5+01335+00505102245ADDAA101000095GF100991999999999999999999MA1102245101475MD1590029+9999REMMET09601/01/10 18:56:02 METAR KSBP 020256Z 26007KT 10SM CLR 13/05 A3019 RMK AO2 SLP224 T01330050 55002EQDQ01    099SCCGD1P01    003SCCGA1
0189722897932062010010203567+35237-120640FM-15+0063KSBP V0203305N007252200059N0160935N5+01505+00115102285ADDAA101000095GF100991999999999999999999MA1102275101515REMMET09001/01/10 19:56:01 METAR KSBP 020356Z 33014KT 10SM CLR 15/01 A3020 RMK AO2 SLP228 T01500011EQDQ01    099SCCGD1P01    003SCCGA1
0200722897932062010010204567+35237-120640FM-15+0063KSBP V0203105N004652200059N0160935N5+01445+00225102345ADDAA101000095GF100991999999999999999999MA1102345101585OC100725REMMET09301/01/10 20:56:01 METAR KSBP 020456Z 31009G14KT 10SM CLR 14/02 A3022 RMK AO2 SLP234 T01440022EQDQ01    099SCCGD1P01    003SCCGA1
0247722897932062010010205567+35237-120640FM-15+0063KSBP V0209999C000052200059N0160935N5+01505+00225102355ADDAA101000095GF100991999999999999999999KA1999M+01561KA2999N+01221MA1102375101615MD1190129+9999REMMET10801/01/10 21:56:02 METAR KSBP 020556Z 00000KT 10SM CLR 15/02 A3023 RMK AO2 SLP235 T01500022 10156 20122 51012EQDQ01    099SCCGD1P01    003SCCGA1
0189722897932062010010206567+35237-120640FM-15+0063KSBP V0203105N004152200059N0160935N5+01225+00565102375ADDAA101000095GF100991999999999999999999MA1102375101615REMMET09001/01/10 22:56:02 METAR KSBP 020656Z 31008KT 10SM CLR 12/06 A3023 RMK AO2 SLP237 T01220056EQDQ01    099SCCGD1P01    003SCCGA1
0199722897932062010010207567+35237-120640FM-15+0063KSBP V0203405N004652200059N0160935N5+01395+00505102365ADDAA101000095GF100991999999999999999999MA1102375101615REMMET10001/01/10 23:56:02 METAR KSBP 020756Z 34009KT 10SM CLR 14/05 A3023 RMK AO2 SLP236 T01390050 401780044EQDQ01    099SCCGD1P01    003SCCGA1
0886722897932062010010207596+35237-120640SOD  +0063KSBP V020999999999999999999999999999+99999+99999999999ADDAA124000095KA1240M+01785KA2240N+00445MG1101664102204OE11240098333020095OE22240076032020045OE33240021099999995REMSOD73024 HR PRECIPITATION (IN):0.00  24 HR MAX TEMP (F):64 24 HR MAX TEMP TIME (LST):1406 24 HR MIN TEMP (F):40 24 HR MIN TEMP TIME (LST):0615 AVERAGE STATION PRESSURE:30.020 MINIMUM SEA LEVEL PRESSURE:30.18 TIME OF OCCURRENCE:1833 PEAK WIND SPEED (MPH):22  PEAK WIND DIR (DEG):330 PEAK WIND TIME (LST):2009  FASTEST 2MIN SPEED (MPH):17 FASTEST 2MIN DIR (DEG):320 FASTEST 2MIN TIME (LST):2004 AVERAGE WIND SPEED (MPH):4.7  24 HR AVG TEMP (F):52 HEATING DEGREE DAYS:13  COOLING DEGREE DAYS:0   LATEST DAY MAX TEMP (0700-1900 LST):64  LATEST NIGHT MIN TEMP(1900-0800 LST):40 HOURLY INCREMENTAL PRECIPITATION VALUES (IN):.00 0.00 0.00 0.00 0.00 0.00 0.00 0.00 0.00 0.00 0.00 0.00 0.00 0.00 0.00 0.00 0.00 0.00 0.00 0.00 0.00 0.00 0.00 0.00EQDR01     N7GJS072R02     N7GKS075
0209722897932062010010208567+35237-120640FM-15+0063KSBP V0203405N006752200059N0160935N5+01395+00175102315ADDAA101000095GF100991999999999999999999MA1102345101585MD1890049+9999REMMET09601/02/10 00:56:02 METAR KSBP 020856Z 34013KT 10SM CLR 14/02 A3022 RMK AO2 SLP231 T01390017 58004EQDQ01    099SCCGD1P01    003SCCGA1
0189722897932062010010209567+35237-120640FM-15+0063KSBP V0209999V001552200059N0160935N5+01395+00175102245ADDAA101000095GF100991999999999999999999MA1102275101515REMMET09001/02/10 01:56:02 METAR KSBP 020956Z VRB03KT 10SM CLR 14/02 A3020 RMK AO2 SLP224 T01390017EQDQ01    099SCCGD1P01    003SCCGA1
0189722897932062010010210567+35237-120640FM-15+0063KSBP V0201805N003652200059N0160935N5+01335+00285102105ADDAA101000095GF100991999999999999999999MA1102105101345REMMET09001/02/10 02:56:02 METAR KSBP 021056Z 18007KT 10SM CLR 13/03 A3015 RMK AO2 SLP210 T01330028EQDQ01    099SCCGD1P01    003SCCGA1
0247722897932062010010211567+35237-120640FM-15+0063KSBP V0202305N003152200059N0160935N5+01565+00395102055ADDAA101000095GF100991999999999999999999KA1999M+01611KA2999N+01061MA1102075101315MD1690259+9999REMMET10801/02/10 03:56:02 METAR KSBP 021156Z 23006KT 10SM CLR 16/04 A3014 RMK AO2 SLP205 T01560039 10161 20106 56025EQDQ01    099SCCGD1P01    003SCCGA1
0189722897932062010010212567+35237-120640FM-15+0063KSBP V0202305N003652200059N0160935N5+01445+00395102075ADDAA101000095GF100991999999999999999999MA1102075101315REMMET09001/02/10 04:56:02 METAR KSBP 021256Z 23007KT 10SM CLR 14/04 A3014 RMK AO2 SLP207 T01440039EQDQ01    099SCCGD1P01    003SCCGA1
0193722897932062010010213567+35237-120640FM-15+0063KSBP V0202105N00365060965MN0160935N5+01445+00445102065ADDAA101000095GA1075+060965999GD13991+0609659GF107991999999999999999999MA1102075101315REMMET09801/02/10 05:56:02 METAR KSBP 021356Z 21007KT 10SM BKN200 14/04 A3014 RMK AO2 SLP206 T01440044 (LN)
0214722897932062010010214567+35237-120640FM-15+0063KSBP V0202805N003152200059N0160935N5+01285+00445102115ADDAA101000095GF100991999999999999999999MA1102135101375MD1390059+9999REMMET10101/02/10 06:56:02 METAR KSBP 021456Z 28006KT 10SM CLR 13/04 A3016 RMK AO2 SLP211 T01280044 53005 (LN)EQDQ01    099SCCGD1P01    003SCCGA1
0194722897932062010010215567+35237-120640FM-15+0063KSBP V0203305N004152200059N0160935N5+01285+00395102175ADDAA101000095GF100991999999999999999999MA1102175101415REMMET09501/02/10 07:56:02 METAR KSBP 021556Z 33008KT 10SM CLR 13/04 A3017 RMK AO2 SLP217 T01280039 (LN)EQDQ01    099SCCGD1P01    003SCCGA1
0194722897932062010010216567+35237-120640FM-15+0063KSBP V0209999C000052200059N0160935N5+01615+00565102215ADDAA101000095GF100991999999999999999999MA1102245101475REMMET09501/02/10 08:56:02 METAR KSBP 021656Z 00000KT 10SM CLR 16/06 A3019 RMK AO2 SLP221 T01610056 (LN)EQDQ01    099SCCGD1P01    003SCCGA1
0251722897932062010010217567+35237-120640FM-15+0063KSBP V0203405N006252200059N0160935N5+01675+00565102255ADDAA101000095GA1045+060965999GD12991+0609659GF104991999999999999999999KA1999M+01721KA2999N+01221MA1102275101515MD1190159+9999REMMET11601/02/10 09:56:02 METAR KSBP 021756Z 34012KT 10SM SCT200 17/06 A3020 RMK AO2 SLP225 T01670056 10172 20122 51015 (LN)
0204722897932062010010218567+35237-120640FM-15+0063KSBP V0203205N00365060965MN0160935N5+01835+00675102185ADDAA101000095GA1075+060965999GD13991+0609659GF107991999999999999999999MA1102205101445OC100825REMMET10101/02/10 10:56:02 METAR KSBP 021856Z 32007G16KT 10SM BKN200 18/07 A3018 RMK AO2 SLP218 T01830067 (LN)
0194722897932062010010219567+35237-120640FM-15+0063KSBP V0203405N004652200059N0160935N5+01945+00725102115ADDAA101000095GF100991999999999999999999MA1102135101375REMMET09501/02/10 11:56:02 METAR KSBP 021956Z 34009KT 10SM CLR 19/07 A3016 RMK AO2 SLP211 T01940072 (LN)EQDQ01    099SCCGD1P01    003SCCGA1
0225722897932062010010220567+35237-120640FM-15+0063KSBP V0203205N005752200059N0160935N5+02005+00895102015ADDAA101000095GF100991999999999999999999MA1102035101275MD1890239+9999OC100725REMMET10401/02/10 12:56:02 METAR KSBP 022056Z 32011G14KT 10SM CLR 20/09 A3013 RMK AO2 SLP201 T02000089 58023 (LN)EQDQ01    099SCCGD1P01    003SCCGA1
0205722897932062010010221567+35237-120640FM-15+0063KSBP V0200405N004652200059N0160935N5+02065+00565101955ADDAA101000095GF100991999999999999999999MA1101965101215OC100985REMMET09801/02/10 13:56:02 METAR KSBP 022156Z 04009G19KT 10SM CLR 21/06 A3011 RMK AO2 SLP195 T02060056 (LN)EQDQ01    099SCCGD1P01    003SCCGA1
0188722897932062010010222567+35237-120640FM-15+0063KSBP V0209999C000052200059N0160935N5+02115+00395101885ADDAA101000095GA1045+060965999GD12991+0609659GF104991999999999999999999MA1101905101145REMMET09301/02/10 14:56:02 METAR KSBP 022256Z 00000KT 10SM SCT200 21/04 A3009 RMK AO2 SLP188 T02110039
0262722897932062010010223567+35237-120640FM-15+0063KSBP V0202705N004652200059N0160935N5+02005+00445101865ADDAA101000095GA1045+060965999GD12991+0609659GF104991999999999999999999KA1999M+02171KA2999N+01671MA1101905101145MD1690159+9999OC100825REMMET11901/02/10 15:56:02 METAR KSBP 022356Z 27009G16KT 10SM SCT200 20/04 A3009 RMK AO2 SLP186 T02000044 10217 20167 56015 (DK)
0188722897932062010010300567+35237-120640FM-15+0063KSBP V0200805N003152200059N0160935N5+01725+00505101915ADDAA101000095GA1045+060965999GD12991+0609659GF104991999999999999999999MA1101935101175REMMET09301/02/10 16:56:01 METAR KSBP 030056Z 08006KT 10SM SCT200 17/05 A3010 RMK AO2 SLP191 T01720050
0189722897932062010010301567+35237-120640FM-15+0063KSBP V0209999V002152200059N0160935N5+01785+00285101935ADDAA101000095GF100991999999999999999999MA1101935101175REMMET09001/02/10 17:56:02 METAR KSBP 030156Z VRB04KT 10SM CLR 18/03 A3010 RMK AO2 SLP193 T01780028EQDQ01    099SCCGD1P01    003SCCGA1
0209722897932062010010302567+35237-120640FM-15+0063KSBP V0209999V002652200059N0160935N5+01395+00395101935ADDAA101000095GF100991999999999999999999MA1101935101175MD1090059+9999REMMET09601/02/10 18:56:01 METAR KSBP 030256Z VRB05KT 10SM CLR 14/04 A3010 RMK AO2 SLP193 T01390039 50005EQDQ01    099SCCGD1P01    003SCCGA1
0189722897932062010010303567+35237-120640FM-15+0063KSBP V0202405N002152200059N0160935N5+01225+00335101935ADDAA101000095GF100991999999999999999999MA1101935101175REMMET09001/02/10 19:56:02 METAR KSBP 030356Z 24004KT 10SM CLR 12/03 A3010 RMK AO2 SLP193 T01220033EQDQ01    099SCCGD1P01    003SCCGA1
0189722897932062010010304567+35237-120640FM-15+0063KSBP V0209999C000052200059N0160935N5+01065+00395101985ADDAA101000095GF100991999999999999999999MA1102005101245REMMET09001/02/10 20:56:02 METAR KSBP 030456Z 00000KT 10SM CLR 11/04 A3012 RMK AO2 SLP198 T01060039EQDQ01    099SCCGD1P01    003SCCGA1
0247722897932062010010305567+35237-120640FM-15+0063KSBP V0209999C000052200059N0160935N5+01005+00505102015ADDAA101000095GF100991999999999999999999KA1999M+02001KA2999N+00941MA1102035101275MD1390089+9999REMMET10801/02/10 21:56:01 METAR KSBP 030556Z 00000KT 10SM CLR 10/05 A3013 RMK AO2 SLP201 T01000050 10200 20094 53008EQDQ01    099SCCGD1P01    003SCCGA1
0189722897932062010010306567+35237-120640FM-15+0063KSBP V0209999C000052200059N0160935N5+00895+00505101995ADDAA101000095GF100991999999999999999999MA1102005101245REMMET09001/02/10 22:56:02 METAR KSBP 030656Z 00000KT 10SM CLR 09/05 A3012 RMK AO2 SLP199 T00890050EQDQ01    099SCCGD1P01    003SCCGA1
0199722897932062010010307567+35237-120640FM-15+0063KSBP V0201005N003152200059N0160935N5+00835+00445101935ADDAA101000095GF100991999999999999999999MA1101935101175REMMET10001/02/10 23:56:01 METAR KSBP 030756Z 10006KT 10SM CLR 08/04 A3010 RMK AO2 SLP193 T00830044 402170078EQDQ01    099SCCGD1P01    003SCCGA1
0886722897932062010010307596+35237-120640SOD  +0063KSBP V020999999999999999999999999999+99999+99999999999ADDAA124000095KA1240M+02175KA2240N+00725MG1101294101834OE11240102834009105OE22240080533010325OE33240030099999995REMSOD73024 HR PRECIPITATION (IN):0.00  24 HR MAX TEMP (F):71 24 HR MAX TEMP TIME (LST):1455 24 HR MIN TEMP (F):45 24 HR MIN TEMP TIME (LST):2359 AVERAGE STATION PRESSURE:29.910 MINIMUM SEA LEVEL PRESSURE:30.07 TIME OF OCCURRENCE:1550 PEAK WIND SPEED (MPH):23  PEAK WIND DIR (DEG):340 PEAK WIND TIME (LST):0910  FASTEST 2MIN SPEED (MPH):18 FASTEST 2MIN DIR (DEG):330 FASTEST 2MIN TIME (LST):1032 AVERAGE WIND SPEED (MPH):6.7  24 HR AVG TEMP (F):58 HEATING DEGREE DAYS:7   COOLING DEGREE DAYS:0   LATEST DAY MAX TEMP (0700-1900 LST):71  LATEST NIGHT MIN TEMP(1900-0800 LST):51 HOURLY INCREMENTAL PRECIPITATION VALUES (IN):.00 0.00 0.00 0.00 0.00 0.00 0.00 0.00 0.00 0.00 0.00 0.00 0.00 0.00 0.00 0.00 0.00 0.00 0.00 0.00 0.00 0.00 0.00 0.00EQDR01     N7GJS072R02     N7GKS075
0209722897932062010010308567+35237-120640FM-15+0063KSBP V0201305N001552200059N0160935N5+00615+00335101875ADDAA101000095GF100991999999999999999999MA1101865101105MD1890159+9999REMMET09601/03/10 00:56:02 METAR KSBP 030856Z 13003KT 10SM CLR 06/03 A3008 RMK AO2 SLP187 T00610033 58015EQDQ01    099SCCGD1P01    003SCCGA1
0189722897932062010010309567+35237-120640FM-15+0063KSBP V0209999V001552200059N0160935N5+00675+00335101855ADDAA101000095GF100991999999999999999999MA1101865101105REMMET09001/03/10 01:56:02 METAR KSBP 030956Z VRB03KT 10SM CLR 07/03 A3008 RMK AO2 SLP185 T00670033EQDQ01    099SCCGD1P01    003SCCGA1
0189722897932062010010310567+35237-120640FM-15+0063KSBP V0201205N002152200059N0160935N5+00505+00285101845ADDAA101000095GF100991999999999999999999MA1101865101105REMMET09001/03/10 02:56:02 METAR KSBP 031056Z 12004KT 10SM CLR 05/03 A3008 RMK AO2 SLP184 T00500028EQDQ01    099SCCGD1P01    003SCCGA1
0247722897932062010010311567+35237-120640FM-15+0063KSBP V0201205N002152200059N0160935N5+00505+00225101835ADDAA101000095GF100991999999999999999999KA1999M+01061KA2999N+00391MA1101835101075MD1690039+9999REMMET10801/03/10 03:56:02 METAR KSBP 031156Z 12004KT 10SM CLR 05/02 A3007 RMK AO2 SLP183 T00500022 10106 20039 56003EQDQ01    099SCCGD1P01    003SCCGA1
0189722897932062010010312567+35237-120640FM-15+0063KSBP V0201005N002152200059N0160935N5+00445+00225101835ADDAA101000095GF100991999999999999999999MA1101835101075REMMET09001/03/10 04:56:02 METAR KSBP 031256Z 10004KT 10SM CLR 04/02 A3007 RMK AO2 SLP183 T00440022EQDQ01    099SCCGD1P01    003SCCGA1
0194722897932062010010313567+35237-120640FM-15+0063KSBP V0201205N001552200059N0160935N5+00395+00175101865ADDAA101000095GF100991999999999999999999MA1101865101105REMMET09501/03/10 05:56:02 METAR KSBP 031356Z 12003KT 10SM CLR 04/02 A3008 RMK AO2 SLP186 T00390017 (DK)EQDQ01    099SCCGD1P01    003SCCGA1
0213722897932062010010314567+35237-120640FM-15+0063KSBP V0201205N00215060965MN0160935N5+00395+00175101845ADDAA101000095GA1075+060965999GD13991+0609659GF107991999999999999999999MA1101835101075MD1590009+9999REMMET10401/03/10 06:56:02 METAR KSBP 031456Z 12004KT 10SM BKN200 04/02 A3007 RMK AO2 SLP184 T00390017 55000 (DK)
0193722897932062010010315567+35237-120640FM-15+0063KSBP V0200905N001552200059N0160935N5+00445+00225101895ADDAA101000095GA1045+060965999GD12991+0609659GF104991999999999999999999MA1101865101105REMMET09801/03/10 07:56:02 METAR KSBP 031556Z 09003KT 10SM SCT200 04/02 A3008 RMK AO2 SLP189 T00440022 (DK)
0231722897932062010010316567+35237-120640FM-15+0063KSBP V0201105N001552200059N0160935N5+00945+00505101935ADDAA101000095GA1025+024385999GA2045+060965999GD11991+0243859GD22991+0609659GF104991999999999999999999MA1101935101175REMMET10501/03/10 08:56:02 METAR KSBP 031656Z 11003KT 10SM FEW080 SCT200 09/05 A3010 RMK AO2 SLP193 T00940050 (DK)
0252722897932062010010317567+35237-120640FM-15+0063KSBP V0209999C000052200059N0160935N5+01285+00565101965ADDAA101000095GF100991999999999999999999KA1999M+01281KA2999N+00391MA1101965101215MD1290129+9999REMMET11301/03/10 09:56:02 METAR KSBP 031756Z 00000KT 10SM CLR 13/06 A3011 RMK AO2 SLP196 T01280056 10128 20039 52012 (DK)EQDQ01    099SCCGD1P01    003SCCGA1
0194722897932062010010318567+35237-120640FM-15+0063KSBP V0209999C000052200059N0160935N5+01615+00615101925ADDAA101000095GF100991999999999999999999MA1101935101175REMMET09501/03/10 10:56:02 METAR KSBP 031856Z 00000KT 10SM CLR 16/06 A3010 RMK AO2 SLP192 T01610061 (DK)EQDQ01    099SCCGD1P01    003SCCGA1
0194722897932062010010319567+35237-120640FM-15+0063KSBP V0209999C000052200059N0160935N5+01945+00675101855ADDAA101000095GF100991999999999999999999MA1101865101105REMMET09501/03/10 11:56:02 METAR KSBP 031956Z 00000KT 10SM CLR 19/07 A3008 RMK AO2 SLP185 T01940067 (DK)EQDQ01    099SCCGD1P01    003SCCGA1
0214722897932062010010320567+35237-120640FM-15+0063KSBP V0209999C000052200059N0160935N5+02225+00505101745ADDAA101000095GF100991999999999999999999MA1101765101005MD1890229+9999REMMET10101/03/10 12:56:02 METAR KSBP 032056Z 00000KT 10SM CLR 22/05 A3005 RMK AO2 SLP174 T02220050 58022 (DK)EQDQ01    099SCCGD1P01    003SCCGA1
0194722897932062010010321567+35237-120640FM-15+0063KSBP V0203105N002152200059N0160935N5+02286+00565101705ADDAA101000095GF100991999999999999999999MA1101735100975REMMET09501/03/10 13:56:02 METAR KSBP 032156Z 31004KT 10SM CLR 23/06 A3004 RMK AO2 SLP170 T02280056 (MY)EQDQ01    099SCCGD1P01    003SCCGA1
0194722897932062010010322567+35237-120640FM-15+0063KSBP V0203005N003152200059N0160935N5+02175+00835101705ADDAA101000095GF100991999999999999999999MA1101735100975REMMET09501/03/10 14:56:02 METAR KSBP 032256Z 30006KT 10SM CLR 22/08 A3004 RMK AO2 SLP170 T02170083 (MY)EQDQ01    099SCCGD1P01    003SCCGA1
0252722897932062010010323567+35237-120640FM-15+0063KSBP V0203205N004152200059N0160935N5+02065+00675101735ADDAA101000095GF100991999999999999999999KA1999M+02331KA2999N+01331MA1101735100975MD1590019+9999REMMET11301/03/10 15:56:02 METAR KSBP 032356Z 32008KT 10SM CLR 21/07 A3004 RMK AO2 SLP173 T02060067 10233 20133 55001 (MY)EQDQ01    099SCCGD1P01    003SCCGA1
0189722897932062010010400567+35237-120640FM-15+0063KSBP V0203105N003652200059N0160935N5+01675+00615101765ADDAA101000095GF100991999999999999999999MA1101765101005REMMET09001/03/10 16:56:02 METAR KSBP 040056Z 31007KT 10SM CLR 17/06 A3005 RMK AO2 SLP176 T01670061EQDQ01    099SCCGD1P01    003SCCGA1
0189722897932062010010401567+35237-120640FM-15+0063KSBP V0202805N002152200059N0160935N5+01505+00615101825ADDAA101000095GF100991999999999999999999MA1101835101075REMMET09001/03/10 17:56:02 METAR KSBP 040156Z 28004KT 10SM CLR 15/06 A3007 RMK AO2 SLP182 T01500061EQDQ01    099SCCGD1P01    003SCCGA1
0211722897932062010010402567+35237-120640FM-15+0063KSBP V0200805N001552200059N0160935N5+01175+00675101865ADDAA101000095GF100991999999999999999999MA1101865101105MD1390119+9999REMMET09801/03/10 18:56:02 METAR KSBP 040256Z 08003KT 10SM CLR 12/07 A3008 RMK AO2 SLP186 T01170067 53011 $EQDQ01    099SCCGD1P01    003SCCGA1
0191722897932062010010403567+35237-120640FM-15+0063KSBP V0209999C000052200059N0160935N5+00945+00565101895ADDAA101000095GF100991999999999999999999MA1101865101105REMMET09201/03/10 19:56:01 METAR KSBP 040356Z 00000KT 10SM CLR 09/06 A3008 RMK AO2 SLP189 T00940056 $EQDQ01    099SCCGD1P01    003SCCGA1
0191722897932062010010404567+35237-120640FM-15+0063KSBP V0209999C000052200059N0160935N5+00945+00505101905ADDAA101000095GF100991999999999999999999MA1101905101145REMMET09201/03/10 20:56:02 METAR KSBP 040456Z 00000KT 10SM CLR 09/05 A3009 RMK AO2 SLP190 T00940050 $EQDQ01    099SCCGD1P01    003SCCGA1
0249722897932062010010405567+35237-120640FM-15+0063KSBP V0209999C000052200059N0160935N5+00835+00445101905ADDAA101000095GF100991999999999999999999KA1999M+02061KA2999N+00831MA1101905101145MD1190059+9999REMMET11001/03/10 21:56:02 METAR KSBP 040556Z 00000KT 10SM CLR 08/04 A3009 RMK AO2 SLP190 T00830044 10206 20083 51005 $EQDQ01    099SCCGD1P01    003SCCGA1
0191722897932062010010406567+35237-120640FM-15+0063KSBP V0209999C000052200059N0160935N5+00835+00445101885ADDAA101000095GF100991999999999999999999MA1101905101145REMMET09201/03/10 22:56:02 METAR KSBP 040656Z 00000KT 10SM CLR 08/04 A3009 RMK AO2 SLP188 T00830044 $EQDQ01    099SCCGD1P01    003SCCGA1
0201722897932062010010407567+35237-120640FM-15+0063KSBP V0209999C000052200059N0160935N5+00835+00445101875ADDAA101000095GF100991999999999999999999MA1101865101105REMMET10201/03/10 23:56:02 METAR KSBP 040756Z 00000KT 10SM CLR 08/04 A3008 RMK AO2 SLP187 T00830044 402330039 $EQDQ01    099SCCGD1P01    003SCCGA1
0886722897932062010010407596+35237-120640SOD  +0063KSBP V020999999999999999999999999999+99999+99999999999ADDAA124000095KA1240M+02335KA2240N+00395MG1101084101694OE11240093901016525OE22240053631017265OE33240013499999995REMSOD73024 HR PRECIPITATION (IN):0.00  24 HR MAX TEMP (F):74 24 HR MAX TEMP TIME (LST):1354 24 HR MIN TEMP (F):39 24 HR MIN TEMP TIME (LST):0745 AVERAGE STATION PRESSURE:29.850 MINIMUM SEA LEVEL PRESSURE:30.03 TIME OF OCCURRENCE:1505 PEAK WIND SPEED (MPH):21  PEAK WIND DIR (DEG):10  PEAK WIND TIME (LST):1652  FASTEST 2MIN SPEED (MPH):12 FASTEST 2MIN DIR (DEG):310 FASTEST 2MIN TIME (LST):1726 AVERAGE WIND SPEED (MPH):3.0  24 HR AVG TEMP (F):57 HEATING DEGREE DAYS:8   COOLING DEGREE DAYS:0   LATEST DAY MAX TEMP (0700-1900 LST):74  LATEST NIGHT MIN TEMP(1900-0800 LST):39 HOURLY INCREMENTAL PRECIPITATION VALUES (IN):.00 0.00 0.00 0.00 0.00 0.00 0.00 0.00 0.00 0.00 0.00 0.00 0.00 0.00 0.00 0.00 0.00 0.00 0.00 0.00 0.00 0.00 0.00 0.00EQDR01     N7GJS072R02     N7GKS075
0211722897932062010010408567+35237-120640FM-15+0063KSBP V0209999C000052200059N0160935N5+00725+00445101845ADDAA101000095GF100991999999999999999999MA1101865101105MD1890059+9999REMMET09801/04/10 00:56:02 METAR KSBP 040856Z 00000KT 10SM CLR 07/04 A3008 RMK AO2 SLP184 T00720044 58005 $EQDQ01    099SCCGD1P01    003SCCGA1
0198722897932062010010409567+35237-120640FM-15+0063KSBP V0203305N002652200059N0160935N5+00675+00505101925ADDAA101000095GF100991999999999999999999MA1101935101175REMMET09901/04/10 01:56:02 METAR KSBP 040956Z 33005KT 10SM CLR 07/05 A3010 RMK AO2 PRESRR SLP192 T00670050 $EQDQ01    099SCCGD1P01    003SCCGA1
0191722897932062010010410567+35237-120640FM-15+0063KSBP V0201405N002152200059N0160935N5+00725+00505101895ADDAA101000095GF100991999999999999999999MA1101905101145REMMET09201/04/10 02:56:02 METAR KSBP 041056Z 14004KT 10SM CLR 07/05 A3009 RMK AO2 SLP189 T00720050 $EQDQ01    099SCCGD1P01    003SCCGA1
0249722897932062010010411567+35237-120640FM-15+0063KSBP V0201305N002152200059N0160935N5+00785+00505101855ADDAA101000095GF100991999999999999999999KA1999M+00891KA2999N+00611MA1101865101105MD1090019+9999REMMET11001/04/10 03:56:02 METAR KSBP 041156Z 13004KT 10SM CLR 08/05 A3008 RMK AO2 SLP185 T00780050 10089 20061 50001 $EQDQ01    099SCCGD1P01    003SCCGA1
0191722897932062010010412567+35237-120640FM-15+0063KSBP V0209999C000052200059N0160935N5+00835+00505101885ADDAA101000095GF100991999999999999999999MA1101905101145REMMET09201/04/10 04:56:02 METAR KSBP 041256Z 00000KT 10SM CLR 08/05 A3009 RMK AO2 SLP188 T00830050 $EQDQ01    099SCCGD1P01    003SCCGA1
0218722897932062010010413187+35237-120640FM-16+0063KSBP V0202405V009852200059N0160935N5+00805+00505999999ADDAU100000215AW1185GF100991999999999999999999MA1101905101145MW1181OC102785REMMET09901/04/10 05:18:02 SPECI KSBP 041318Z 24019G54KT 10SM SQ CLR 08/05 A3009 RMK AO2 PK WND 21054/1317 $EQDQ01    099SCCGD1P01    003SCCGA1
0191722897932062010010413567+35237-120640FM-15+0063KSBP V02099999999992200059N0160935N5+00675+00445101875ADDAA101000095GF100991999999999999999999MA1101865101105REMMET09201/04/10 05:56:02 METAR KSBP 041356Z      KT 10SM CLR 07/04 A3008 RMK AO2 SLP187 T00670044 $EQDQ01    099SCCGD1P01    003SCCGA1
0216722897932062010010414567+35237-120640FM-15+0063KSBP V0200805N002152200059N0160935N5+00615+00445101905ADDAA101000095GF100991999999999999999999MA1101905101145MD1190049+9999REMMET10301/04/10 06:56:02 METAR KSBP 041456Z 08004KT 10SM CLR 06/04 A3009 RMK AO2 SLP190 T00610044 51004 $ (JJ)EQDQ01    099SCCGD1P01    003SCCGA1
0196722897932062010010415567+35237-120640FM-15+0063KSBP V0201405N002152200059N0160935N5+00725+00395101945ADDAA101000095GF100991999999999999999999MA1101935101175REMMET09701/04/10 07:56:02 METAR KSBP 041556Z 14004KT 10SM CLR 07/04 A3010 RMK AO2 SLP194 T00720039 $ (JJ)EQDQ01    099SCCGD1P01    003SCCGA1
0194722897932062010010416567+35237-120640FM-15+0063KSBP V0209999C000052200059N0160935N5+00945+00505101975ADDAA101000095GF100991999999999999999999MA1101965101215REMMET09501/04/10 08:56:02 METAR KSBP 041656Z 00000KT 10SM CLR 09/05 A3011 RMK AO2 SLP197 T00940050 (JJ)EQDQ01    099SCCGD1P01    003SCCGA1
0252722897932062010010417567+35237-120640FM-15+0063KSBP V0209999C000052200059N0160935N5+01445+00565102025ADDAA101000095GF100991999999999999999999KA1999M+01441KA2999N+00611MA1102035101275MD1390139+9999REMMET11301/04/10 09:56:02 METAR KSBP 041756Z 00000KT 10SM CLR 14/06 A3013 RMK AO2 SLP202 T01440056 10144 20061 53013 (JJ)EQDQ01    099SCCGD1P01    003SCCGA1
0194722897932062010010418567+35237-120640FM-15+0063KSBP V0209999C000052200059N0160935N5+01675+00675101995ADDAA101000095GF100991999999999999999999MA1102005101245REMMET09501/04/10 10:56:02 METAR KSBP 041856Z 00000KT 10SM CLR 17/07 A3012 RMK AO2 SLP199 T01670067 (JJ)EQDQ01    099SCCGD1P01    003SCCGA1
0194722897932062010010419567+35237-120640FM-15+0063KSBP V0209999C000052200059N0160935N5+02005+00505101925ADDAA101000095GF100991999999999999999999MA1101935101175REMMET09501/04/10 11:56:02 METAR KSBP 041956Z 00000KT 10SM CLR 20/05 A3010 RMK AO2 SLP192 T02000050 (JJ)EQDQ01    099SCCGD1P01    003SCCGA1
0214722897932062010010420567+35237-120640FM-15+0063KSBP V0203105N004652200059N0160935N5+02005+00835101845ADDAA101000095GF100991999999999999999999MA1101865101105MD1890189+9999REMMET10101/04/10 12:56:02 METAR KSBP 042056Z 31009KT 10SM CLR 20/08 A3008 RMK AO2 SLP184 T02000083 58018 (JJ)EQDQ01    099SCCGD1P01    003SCCGA1
0194722897932062010010421567+35237-120640FM-15+0063KSBP V0203105N006252200059N0160935N5+01895+00895101795ADDAA101000095GF100991999999999999999999MA1101795101045REMMET09501/04/10 13:56:02 METAR KSBP 042156Z 31012KT 10SM CLR 19/09 A3006 RMK AO2 SLP179 T01890089 (JJ)EQDQ01    099SCCGD1P01    003SCCGA1
0194722897932062010010422567+35237-120640FM-15+0063KSBP V0203105N004152200059N0160935N5+01785+00895101795ADDAA101000095GF100991999999999999999999MA1101795101045REMMET09501/04/10 14:56:02 METAR KSBP 042256Z 31008KT 10SM CLR 18/09 A3006 RMK AO2 SLP179 T01780089 (JJ)EQDQ01    099SCCGD1P01    003SCCGA1
0252722897932062010010423567+35237-120640FM-15+0063KSBP V0203205N007252200059N0160935N5+01565+00835101835ADDAA101000095GF100991999999999999999999KA1999M+02171KA2999N+01441MA1101835101075MD1590019+9999REMMET11301/04/10 15:56:02 METAR KSBP 042356Z 32014KT 10SM CLR 16/08 A3007 RMK AO2 SLP183 T01560083 10217 20144 55001 TSNOEQDQ01    099SCCGD1P01    003SCCGA1
0189722897932062010010500567+35237-120640FM-15+0063KSBP V0203205N004152200059N0160935N5+01395+00675101835ADDAA101000095GF100991999999999999999999MA1101835101075REMMET09001/04/10 16:56:02 METAR KSBP 050056Z 32008KT 10SM CLR 14/07 A3007 RMK AO2 SLP183 T01390067EQDQ01    099SCCGD1P01    003SCCGA1
0189722897932062010010501567+35237-120640FM-15+0063KSBP V0203305N002652200059N0160935N5+01285+00725101855ADDAA101000095GF100991999999999999999999MA1101865101105REMMET09001/04/10 17:56:02 METAR KSBP 050156Z 33005KT 10SM CLR 13/07 A3008 RMK AO2 SLP185 T01280072EQDQ01    099SCCGD1P01    003SCCGA1
0209722897932062010010502567+35237-120640FM-15+0063KSBP V0201805N001552200059N0160935N5+01115+00615101845ADDAA101000095GF100991999999999999999999MA1101835101075MD1290019+9999REMMET09601/04/10 18:56:01 METAR KSBP 050256Z 18003KT 10SM CLR 11/06 A3007 RMK AO2 SLP184 T01110061 52001EQDQ01    099SCCGD1P01    003SCCGA1
0189722897932062010010503567+35237-120640FM-15+0063KSBP V0209999C000052200059N0160935N5+00945+00615101895ADDAA101000095GF100991999999999999999999MA1101905101145REMMET09001/04/10 19:56:01 METAR KSBP 050356Z 00000KT 10SM CLR 09/06 A3009 RMK AO2 SLP189 T00940061EQDQ01    099SCCGD1P01    003SCCGA1
0189722897932062010010504567+35237-120640FM-15+0063KSBP V0201205N001552200059N0160935N5+00835+00615101925ADDAA101000095GF100991999999999999999999MA1101935101175REMMET09001/04/10 20:56:01 METAR KSBP 050456Z 12003KT 10SM CLR 08/06 A3010 RMK AO2 SLP192 T00830061EQDQ01    099SCCGD1P01    003SCCGA1
0247722897932062010010505567+35237-120640FM-15+0063KSBP V0200605N002152200059N0160935N5+00675+00505101945ADDAA101000095GF100991999999999999999999KA1999M+01561KA2999N+00671MA1101935101175MD1190109+9999REMMET10801/04/10 21:56:02 METAR KSBP 050556Z 06004KT 10SM CLR 07/05 A3010 RMK AO2 SLP194 T00670050 10156 20067 51010EQDQ01    099SCCGD1P01    003SCCGA1
0189722897932062010010506567+35237-120640FM-15+0063KSBP V0209999C000052200059N0160935N5+00615+00445101925ADDAA101000095GF100991999999999999999999MA1101935101175REMMET09001/04/10 22:56:02 METAR KSBP 050656Z 00000KT 10SM CLR 06/04 A3010 RMK AO2 SLP192 T00610044EQDQ01    099SCCGD1P01    003SCCGA1
0199722897932062010010507567+35237-120640FM-15+0063KSBP V0209999C000052200059N0160935N5+00505+00335101965ADDAA101000095GF100991999999999999999999MA1101965101215REMMET10001/04/10 23:56:02 METAR KSBP 050756Z 00000KT 10SM CLR 05/03 A3011 RMK AO2 SLP196 T00500033 402170050EQDQ01    099SCCGD1P01    003SCCGA1
0886722897932062010010507596+35237-120640SOD  +0063KSBP V020999999999999999999999999999+99999+99999999999ADDAA124000095KA1240M+02175KA2240N+00505MG1101134101764OE11240277221005225OE22240169923005175OE33240019799999995REMSOD73024 HR PRECIPITATION (IN):0.00  24 HR MAX TEMP (F):71 24 HR MAX TEMP TIME (LST):1239 24 HR MIN TEMP (F):41 24 HR MIN TEMP TIME (LST):2358 AVERAGE STATION PRESSURE:29.865 MINIMUM SEA LEVEL PRESSURE:30.05 TIME OF OCCURRENCE:1341 PEAK WIND SPEED (MPH):62  PEAK WIND DIR (DEG):210 PEAK WIND TIME (LST):0522  FASTEST 2MIN SPEED (MPH):38 FASTEST 2MIN DIR (DEG):230 FASTEST 2MIN TIME (LST):0517 AVERAGE WIND SPEED (MPH):4.4  24 HR AVG TEMP (F):56 HEATING DEGREE DAYS:9   COOLING DEGREE DAYS:0   LATEST DAY MAX TEMP (0700-1900 LST):71  LATEST NIGHT MIN TEMP(1900-0800 LST):43 HOURLY INCREMENTAL PRECIPITATION VALUES (IN):.00 0.00 0.00 0.00 0.00 0.00 0.00 0.00 0.00 0.00 0.00 0.00 0.00 0.00 0.00 0.00 0.00 0.00 0.00 0.00 0.00 0.00 0.00 0.00EQDR01     N7GJS072R02     N7GKS075
0209722897932062010010508567+35237-120640FM-15+0063KSBP V0209999C000052200059N0160935N5+00505+00335101915ADDAA101000095GF100991999999999999999999MA1101935101175MD1890029+9999REMMET09601/05/10 00:56:02 METAR KSBP 050856Z 00000KT 10SM CLR 05/03 A3010 RMK AO2 SLP191 T00500033 58002EQDQ01    099SCCGD1P01    003SCCGA1
0189722897932062010010509567+35237-120640FM-15+0063KSBP V0209999C000052200059N0160935N5+00445+00285101955ADDAA101000095GF100991999999999999999999MA1101965101215REMMET09001/05/10 01:56:02 METAR KSBP 050956Z 00000KT 10SM CLR 04/03 A3011 RMK AO2 SLP195 T00440028EQDQ01    099SCCGD1P01    003SCCGA1
0189722897932062010010510567+35237-120640FM-15+0063KSBP V0209999C000052200059N0160935N5+00445+00285101935ADDAA101000095GF100991999999999999999999MA1101935101175REMMET09001/05/10 02:56:02 METAR KSBP 051056Z 00000KT 10SM CLR 04/03 A3010 RMK AO2 SLP193 T00440028EQDQ01    099SCCGD1P01    003SCCGA1
0247722897932062010010511567+35237-120640FM-15+0063KSBP V0209999C000052200059N0160935N5+00335+00225101905ADDAA101000095GF100991999999999999999999KA1999M+00721KA2999N+00331MA1101905101145MD1890029+9999REMMET10801/05/10 03:56:02 METAR KSBP 051156Z 00000KT 10SM CLR 03/02 A3009 RMK AO2 SLP190 T00330022 10072 20033 58002EQDQ01    099SCCGD1P01    003SCCGA1
0189722897932062010010512567+35237-120640FM-15+0063KSBP V0209999C000052200059N0160935N5+00335+00175101925ADDAA101000095GF100991999999999999999999MA1101935101175REMMET09001/05/10 04:56:02 METAR KSBP 051256Z 00000KT 10SM CLR 03/02 A3010 RMK AO2 SLP192 T00330017EQDQ01    099SCCGD1P01    003SCCGA1
0189722897932062010010513567+35237-120640FM-15+0063KSBP V0209999C000052200059N0160935N5+00335+00175101925ADDAA101000095GF100991999999999999999999MA1101905101145REMMET09001/05/10 05:56:02 METAR KSBP 051356Z 00000KT 10SM CLR 03/02 A3009 RMK AO2 SLP192 T00330017EQDQ01    099SCCGD1P01    003SCCGA1
0216722897932062010010514567+35237-120640FM-15+0063KSBP V0209999C000052200059N0160935N5+00285+00115101965ADDAA101000095GF100991999999999999999999MA1101965101215MD1390069+9999REMMET10301/05/10 06:56:02 METAR KSBP 051456Z 00000KT 10SM CLR 03/01 A3011 RMK AO2 SLP196 T00280011 53006 $ (JJ)EQDQ01    099SCCGD1P01    003SCCGA1
0196722897932062010010515567+35237-120640FM-15+0063KSBP V0209999C000052200059N0160935N5+00285+00115102065ADDAA101000095GF100991999999999999999999MA1102075101315REMMET09701/05/10 07:56:02 METAR KSBP 051556Z 00000KT 10SM CLR 03/01 A3014 RMK AO2 SLP206 T00280011 $ (JJ)EQDQ01    099SCCGD1P01    003SCCGA1
0196722897932062010010516567+35237-120640FM-15+0063KSBP V0209999C000052200059N0160935N5+00785+00445102065ADDAA101000095GF100991999999999999999999MA1102035101275REMMET09701/05/10 08:56:02 METAR KSBP 051656Z 00000KT 10SM CLR 08/04 A3013 RMK AO2 SLP206 T00780044 $ (JJ)EQDQ01    099SCCGD1P01    003SCCGA1
0254722897932062010010517567+35237-120640FM-15+0063KSBP V0209999C000052200059N0160935N5+01225+00445102055ADDAA101000095GF100991999999999999999999KA1999M+01221KA2999N+00171MA1102075101315MD1190109+9999REMMET11501/05/10 09:56:02 METAR KSBP 051756Z 00000KT 10SM CLR 12/04 A3014 RMK AO2 SLP205 T01220044 10122 20017 51010 $ (JJ)EQDQ01    099SCCGD1P01    003SCCGA1
0196722897932062010010518567+35237-120640FM-15+0063KSBP V0209999C000052200059N0160935N5+01725+00445102005ADDAA101000095GF100991999999999999999999MA1102005101245REMMET09701/05/10 10:56:02 METAR KSBP 051856Z 00000KT 10SM CLR 17/04 A3012 RMK AO2 SLP200 T01720044 $ (JJ)EQDQ01    099SCCGD1P01    003SCCGA1
0196722897932062010010519567+35237-120640FM-15+0063KSBP V0203105N004152200059N0160935N5+01785+00725101925ADDAA101000095GF100991999999999999999999MA1101935101175REMMET09701/05/10 11:56:02 METAR KSBP 051956Z 31008KT 10SM CLR 18/07 A3010 RMK AO2 SLP192 T01780072 $ (JJ)EQDQ01    099SCCGD1P01    003SCCGA1
0216722897932062010010520567+35237-120640FM-15+0063KSBP V0203005N003652200059N0160935N5+02175+00395101805ADDAA101000095GF100991999999999999999999MA1101795101045MD1890249+9999REMMET10301/05/10 12:56:02 METAR KSBP 052056Z 30007KT 10SM CLR 22/04 A3006 RMK AO2 SLP180 T02170039 58024 $ (JJ)EQDQ01    099SCCGD1P01    003SCCGA1
0197722897932062010010521567+35237-120640FM-15+0063KSBP V0202305N002152200059N0160935N5+02286-00065101735ADDAA101000095GF100991999999999999999999MA1101735100975REMMET09801/05/10 13:56:02 METAR KSBP 052156Z 23004KT 10SM CLR 23/M01 A3004 RMK AO2 SLP173 T02281006 $ (JJ)EQDQ01    099SCCGD1P01    003SCCGA1
0196722897932062010010522567+35237-120640FM-15+0063KSBP V0202605N002152200059N0160935N5+02225+00115101705ADDAA101000095GF100991999999999999999999MA1101735100975REMMET09701/05/10 14:56:02 METAR KSBP 052256Z 26004KT 10SM CLR 22/01 A3004 RMK AO2 SLP170 T02220011 $ (JJ)EQDQ01    099SCCGD1P01    003SCCGA1
0254722897932062010010523567+35237-120640FM-15+0063KSBP V0203205N006752200059N0160935N5+01895+00445101715ADDAA101000095GF100991999999999999999999KA1999M+02281KA2999N+01221MA1101695100945MD1690109+9999REMMET11501/05/10 15:56:02 METAR KSBP 052356Z 32013KT 10SM CLR 19/04 A3003 RMK AO2 SLP171 T01890044 10228 20122 56010 TSNO $EQDQ01    099SCCGD1P01    003SCCGA1
0191722897932062010010600567+35237-120640FM-15+0063KSBP V0203205N003652200059N0160935N5+01565+00445101735ADDAA101000095GF100991999999999999999999MA1101735100975REMMET09201/05/10 16:56:02 METAR KSBP 060056Z 32007KT 10SM CLR 16/04 A3004 RMK AO2 SLP173 T01560044 $EQDQ01    099SCCGD1P01    003SCCGA1
0191722897932062010010601567+35237-120640FM-15+0063KSBP V02099999999992200059N0160935N5+01505+00565101775ADDAA101000095GF100991999999999999999999MA1101765101005REMMET09201/05/10 17:56:02 METAR KSBP 060156Z      KT 10SM CLR 15/06 A3005 RMK AO2 SLP177 T01500056 $EQDQ01    099SCCGD1P01    003SCCGA1
0229722897932062010010602567+35237-120640FM-15+0063KSBP V0209999C000052200059N0160935N5+01615+00395101815ADDAA101000095GF100991999999999999999999MA1101835101075MD1390119+9999REMMET11601/05/10 18:56:02 METAR KSBP 060256Z 00000KT 10SM CLR 16/04 A3007 RMK AO2 PK WND 33033/0218 SLP181 T01610039 53011 $EQDQ01    099SCCGD1P01    003SCCGA1
0191722897932062010010603567+35237-120640FM-15+0063KSBP V0203405N003152200059N0160935N5+01335+00835101895ADDAA101000095GF100991999999999999999999MA1101905101145REMMET09201/05/10 19:56:01 METAR KSBP 060356Z 34006KT 10SM CLR 13/08 A3009 RMK AO2 SLP189 T01330083 $EQDQ01    099SCCGD1P01    003SCCGA1
0191722897932062010010604567+35237-120640FM-15+0063KSBP V0200905N002652200059N0160935N5+01225+00675101905ADDAA101000095GF100991999999999999999999MA1101905101145REMMET09201/05/10 20:56:01 METAR KSBP 060456Z 09005KT 10SM CLR 12/07 A3009 RMK AO2 SLP190 T01220067 $EQDQ01    099SCCGD1P01    003SCCGA1
0249722897932062010010605567+35237-120640FM-15+0063KSBP V0201305N002152200059N0160935N5+01065+00615101905ADDAA101000095GF100991999999999999999999KA1999M+01891KA2999N+01001MA1101905101145MD1190089+9999REMMET11001/05/10 21:56:02 METAR KSBP 060556Z 13004KT 10SM CLR 11/06 A3009 RMK AO2 SLP190 T01060061 10189 20100 51008 $EQDQ01    099SCCGD1P01    003SCCGA1
0191722897932062010010606567+35237-120640FM-15+0063KSBP V0201505N001552200059N0160935N5+01115+00505101865ADDAA101000095GF100991999999999999999999MA1101865101105REMMET09201/05/10 22:56:02 METAR KSBP 060656Z 15003KT 10SM CLR 11/05 A3008 RMK AO2 SLP186 T01110050 $EQDQ01    099SCCGD1P01    003SCCGA1
0201722897932062010010607567+35237-120640FM-15+0063KSBP V0209999C000052200059N0160935N5+01065+00335101845ADDAA101000095GF100991999999999999999999MA1101835101075REMMET10201/05/10 23:56:02 METAR KSBP 060756Z 00000KT 10SM CLR 11/03 A3007 RMK AO2 SLP184 T01060033 402280017 $EQDQ01    099SCCGD1P01    003SCCGA1
0902722897932062010010607596+35237-120640SOD  +0063KSBP V020999999999999999999999999999+99999+99999999999ADDAA124000095KA1240M+02285KA2240N+00175MG1101124101694OE11240169933018186OE22240067131019325OE33240013999999995REMSOD73024 HR PRECIPITATION (IN):0.00  24 HR MAX TEMP (F):73 24 HR MAX TEMP TIME (LST):1507 24 HR MIN TEMP (F):35 24 HR MIN TEMP TIME (LST):0744 AVERAGE STATION PRESSURE:29.860 MINIMUM SEA LEVEL PRESSURE:30.03 TIME OF OCCURRENCE:1612 PEAK WIND SPEED (MPH):38  PEAK WIND DIR (DEG):330 PEAK WIND TIME (LST):1818  FASTEST 2MIN SPEED (MPH):15 FASTEST 2MIN DIR (DEG):310 FASTEST 2MIN TIME (LST):1932 AVERAGE WIND SPEED (MPH):3.1  24 HR AVG TEMP (F):54 HEATING DEGREE DAYS:11  COOLING DEGREE DAYS:0   LATEST DAY MAX TEMP (0700-1900 LST):73  LATEST NIGHT MIN TEMP(1900-0800 LST):35 HOURLY INCREMENTAL PRECIPITATION VALUES (IN):.00 0.00 0.00 0.00 0.00 0.00 0.00 0.00 0.00 0.00 0.00 0.00 0.00 0.00 0.00 0.00 0.00 0.00 0.00 0.00 0.00 0.00 0.00 0.00EQDR01     N7GJS072R02     N7GKS075R03    387OES063
0211722897932062010010608567+35237-120640FM-15+0063KSBP V0209999C000052200059N0160935N5+01115+00175101845ADDAA101000095GF100991999999999999999999MA1101865101105MD1590049+9999REMMET09801/06/10 00:56:02 METAR KSBP 060856Z 00000KT 10SM CLR 11/02 A3008 RMK AO2 SLP184 T01110017 55004 $EQDQ01    099SCCGD1P01    003SCCGA1
0191722897932062010010609567+35237-120640FM-15+0063KSBP V0201105N001552200059N0160935N5+00945+00115101845ADDAA101000095GF100991999999999999999999MA1101865101105REMMET09201/06/10 01:56:02 METAR KSBP 060956Z 11003KT 10SM CLR 09/01 A3008 RMK AO2 SLP184 T00940011 $EQDQ01    099SCCGD1P01    003SCCGA1
0191722897932062010010610567+35237-120640FM-15+0063KSBP V0209999C000052200059N0160935N5+00895+00115101865ADDAA101000095GF100991999999999999999999MA1101865101105REMMET09201/06/10 02:56:02 METAR KSBP 061056Z 00000KT 10SM CLR 09/01 A3008 RMK AO2 SLP186 T00890011 $EQDQ01    099SCCGD1P01    003SCCGA1
0249722897932062010010611567+35237-120640FM-15+0063KSBP V0209999C000052200059N0160935N5+00835+00065101825ADDAA101000095GF100991999999999999999999KA1999M+01221KA2999N+00781MA1101835101075MD1890039+9999REMMET11001/06/10 03:56:02 METAR KSBP 061156Z 00000KT 10SM CLR 08/01 A3007 RMK AO2 SLP182 T00830006 10122 20078 58003 $EQDQ01    099SCCGD1P01    003SCCGA1
0191722897932062010010612567+35237-120640FM-15+0063KSBP V0200905N002652200059N0160935N5+00785+00005101785ADDAA101000095GF100991999999999999999999MA1101795101045REMMET09201/06/10 04:56:02 METAR KSBP 061256Z 09005KT 10SM CLR 08/00 A3006 RMK AO2 SLP178 T00780000 $EQDQ01    099SCCGD1P01    003SCCGA1
0196722897932062010010613567+35237-120640FM-15+0063KSBP V0201205N003152200059N0160935N5+00725+00005101805ADDAA101000095GF100991999999999999999999MA1101795101045REMMET09701/06/10 05:56:02 METAR KSBP 061356Z 12006KT 10SM CLR 07/00 A3006 RMK AO2 SLP180 T00720000 $ (WO)EQDQ01    099SCCGD1P01    003SCCGA1
0215722897932062010010614567+35237-120640FM-15+0063KSBP V0201305N001552200059N0160935N5+00785-00065101865ADDAA101000095GF100991999999999999999999MA1101865101105MD1390049+9999REMMET10201/06/10 06:56:02 METAR KSBP 061456Z 13003KT 10SM CLR 08/M01 A3008 RMK AO2 SLP186 T00781006 53004 (WO)EQDQ01    099SCCGD1P01    003SCCGA1
0194722897932062010010615567+35237-120640FM-15+0063KSBP V0201305N001552200059N0160935N5+00895+00005101905ADDAA101000095GF100991999999999999999999MA1101905101145REMMET09501/06/10 07:56:02 METAR KSBP 061556Z 13003KT 10SM CLR 09/00 A3009 RMK AO2 SLP190 T00890000 (WO)EQDQ01    099SCCGD1P01    003SCCGA1
0194722897932062010010616567+35237-120640FM-15+0063KSBP V0209999V001552200059N0160935N5+01335+00225101915ADDAA101000095GF100991999999999999999999MA1101935101175REMMET09501/06/10 08:56:02 METAR KSBP 061656Z VRB03KT 10SM CLR 13/02 A3010 RMK AO2 SLP191 T01330022 (MY)EQDQ01    099SCCGD1P01    003SCCGA1
0252722897932062010010617567+35237-120640FM-15+0063KSBP V0209999C000052200059N0160935N5+01785+00065101935ADDAA101000095GF100991999999999999999999KA1999M+01781KA2999N+00671MA1101935101175MD1190069+9999REMMET11301/06/10 09:56:02 METAR KSBP 061756Z 00000KT 10SM CLR 18/01 A3010 RMK AO2 SLP193 T01780006 10178 20067 51006 (MY)EQDQ01    099SCCGD1P01    003SCCGA1
0194722897932062010010618567+35237-120640FM-15+0063KSBP V0209999C000052200059N0160935N5+02115+00565101875ADDAA101000095GF100991999999999999999999MA1101905101145REMMET09501/06/10 10:56:02 METAR KSBP 061856Z 00000KT 10SM CLR 21/06 A3009 RMK AO2 SLP187 T02110056 (MY)EQDQ01    099SCCGD1P01    003SCCGA1
0194722897932062010010619567+35237-120640FM-15+0063KSBP V0209999C000052200059N0160935N5+02225+00115101775ADDAA101000095GF100991999999999999999999MA1101795101045REMMET09501/06/10 11:56:02 METAR KSBP 061956Z 00000KT 10SM CLR 22/01 A3006 RMK AO2 SLP177 T02220011 (MY)EQDQ01    099SCCGD1P01    003SCCGA1
0214722897932062010010620567+35237-120640FM-15+0063KSBP V0203505N003152200059N0160935N5+02285+00335101645ADDAA101000095GF100991999999999999999999MA1101665100905MD1890279+9999REMMET10101/06/10 12:56:02 METAR KSBP 062056Z 35006KT 10SM CLR 23/03 A3002 RMK AO2 SLP164 T02280033 58027 (MY)EQDQ01    099SCCGD1P01    003SCCGA1
0194722897932062010010621567+35237-120640FM-15+0063KSBP V0203505N003652200059N0160935N5+02285+00285101595ADDAA101000095GF100991999999999999999999MA1101635100875REMMET09501/06/10 13:56:02 METAR KSBP 062156Z 35007KT 10SM CLR 23/03 A3001 RMK AO2 SLP159 T02280028 (MY)EQDQ01    099SCCGD1P01    003SCCGA1
0194722897932062010010622567+35237-120640FM-15+0063KSBP V0203205N006252200059N0160935N5+02225+00445101585ADDAA101000095GF100991999999999999999999MA1101595100845REMMET09501/06/10 14:56:02 METAR KSBP 062256Z 32012KT 10SM CLR 22/04 A3000 RMK AO2 SLP158 T02220044 (LN)EQDQ01    099SCCGD1P01    003SCCGA1
0251722897932062010010623567+35237-120640FM-15+0063KSBP V0203305N005752200059N0160935N5+02175+00285101585ADDAA101000095GA1045+060965999GD12991+0609659GF104991999999999999999999KA1999M+02331KA2999N+01781MA1101595100845MD1690079+9999REMMET11601/06/10 15:56:02 METAR KSBP 062356Z 33011KT 10SM SCT200 22/03 A3000 RMK AO2 SLP158 T02170028 10233 20178 56007 (LN)
0189722897932062010010700567+35237-120640FM-15+0063KSBP V0203205N004152200059N0160935N5+01785+00565101595ADDAA101000095GF100991999999999999999999MA1101595100845REMMET09001/06/10 16:56:02 METAR KSBP 070056Z 32008KT 10SM CLR 18/06 A3000 RMK AO2 SLP159 T01780056EQDQ01    099SCCGD1P01    003SCCGA1
0189722897932062010010701567+35237-120640FM-15+0063KSBP V0203105N004152200059N0160935N5+01725+00335101615ADDAA101000095GF100991999999999999999999MA1101635100875REMMET09001/06/10 17:56:02 METAR KSBP 070156Z 31008KT 10SM CLR 17/03 A3001 RMK AO2 SLP161 T01720033EQDQ01    099SCCGD1P01    003SCCGA1
0209722897932062010010702567+35237-120640FM-15+0063KSBP V0209999C000052200059N0160935N5+01725+00395101685ADDAA101000095GF100991999999999999999999MA1101695100945MD1390099+9999REMMET09601/06/10 18:56:02 METAR KSBP 070256Z 00000KT 10SM CLR 17/04 A3003 RMK AO2 SLP168 T01720039 53009EQDQ01    099SCCGD1P01    003SCCGA1
0189722897932062010010703567+35237-120640FM-15+0063KSBP V0203105N003152200059N0160935N5+01335+00615101705ADDAA101000095GF100991999999999999999999MA1101695100945REMMET09001/06/10 19:56:01 METAR KSBP 070356Z 31006KT 10SM CLR 13/06 A3003 RMK AO2 SLP170 T01330061EQDQ01    099SCCGD1P01    003SCCGA1
0189722897932062010010704567+35237-120640FM-15+0063KSBP V0209999C000052200059N0160935N5+01175+00725101715ADDAA101000095GF100991999999999999999999MA1101735100975REMMET09001/06/10 20:56:02 METAR KSBP 070456Z 00000KT 10SM CLR 12/07 A3004 RMK AO2 SLP171 T01170072EQDQ01    099SCCGD1P01    003SCCGA1
0247722897932062010010705567+35237-120640FM-15+0063KSBP V0203405N004652200059N0160935N5+01225+00615101765ADDAA101000095GF100991999999999999999999KA1999M+02171KA2999N+01061MA1101765101005MD1390089+9999REMMET10801/06/10 21:56:02 METAR KSBP 070556Z 34009KT 10SM CLR 12/06 A3005 RMK AO2 SLP176 T01220061 10217 20106 53008EQDQ01    099SCCGD1P01    003SCCGA1
0189722897932062010010706567+35237-120640FM-15+0063KSBP V0201205N002652200059N0160935N5+00945+00565101735ADDAA101000095GF100991999999999999999999MA1101765101005REMMET09001/06/10 22:56:01 METAR KSBP 070656Z 12005KT 10SM CLR 09/06 A3005 RMK AO2 SLP173 T00940056EQDQ01    099SCCGD1P01    003SCCGA1
0199722897932062010010707567+35237-120640FM-15+0063KSBP V0201205N002152200059N0160935N5+00835+00565101675ADDAA101000095GF100991999999999999999999MA1101695100945REMMET10001/06/10 23:56:02 METAR KSBP 070756Z 12004KT 10SM CLR 08/06 A3003 RMK AO2 SLP167 T00830056 402330067EQDQ01    099SCCGD1P01    003SCCGA1
0886722897932062010010707596+35237-120640SOD  +0063KSBP V020999999999999999999999999999+99999+99999999999ADDAA124000095KA1240M+02335KA2240N+00675MG1101004101564OE11240098314006325OE22240076034015165OE33240021099999995REMSOD73024 HR PRECIPITATION (IN):0.00  24 HR MAX TEMP (F):74 24 HR MAX TEMP TIME (LST):1430 24 HR MIN TEMP (F):44 24 HR MIN TEMP TIME (LST):0731 AVERAGE STATION PRESSURE:29.825 MINIMUM SEA LEVEL PRESSURE:29.99 TIME OF OCCURRENCE:1531 PEAK WIND SPEED (MPH):22  PEAK WIND DIR (DEG):140 PEAK WIND TIME (LST):0632  FASTEST 2MIN SPEED (MPH):17 FASTEST 2MIN DIR (DEG):340 FASTEST 2MIN TIME (LST):1516 AVERAGE WIND SPEED (MPH):4.7  24 HR AVG TEMP (F):59 HEATING DEGREE DAYS:6   COOLING DEGREE DAYS:0   LATEST DAY MAX TEMP (0700-1900 LST):74  LATEST NIGHT MIN TEMP(1900-0800 LST):44 HOURLY INCREMENTAL PRECIPITATION VALUES (IN):.00 0.00 0.00 0.00 0.00 0.00 0.00 0.00 0.00 0.00 0.00 0.00 0.00 0.00 0.00 0.00 0.00 0.00 0.00 0.00 0.00 0.00 0.00 0.00EQDR01     N7GJS072R02     N7GKS075
0209722897932062010010708567+35237-120640FM-15+0063KSBP V0201305N002152200059N0160935N5+00835+00565101655ADDAA101000095GF100991999999999999999999MA1101665100905MD1890099+9999REMMET09601/07/10 00:56:02 METAR KSBP 070856Z 13004KT 10SM CLR 08/06 A3002 RMK AO2 SLP165 T00830056 58009EQDQ01    099SCCGD1P01    003SCCGA1
0189722897932062010010709567+35237-120640FM-15+0063KSBP V0209999V001552200059N0160935N5+00725+00505101655ADDAA101000095GF100991999999999999999999MA1101665100905REMMET09001/07/10 01:56:02 METAR KSBP 070956Z VRB03KT 10SM CLR 07/05 A3002 RMK AO2 SLP165 T00720050EQDQ01    099SCCGD1P01    003SCCGA1
0189722897932062010010710567+35237-120640FM-15+0063KSBP V0209999C000052200059N0160935N5+00835+00445101635ADDAA101000095GF100991999999999999999999MA1101665100905REMMET09001/07/10 02:56:02 METAR KSBP 071056Z 00000KT 10SM CLR 08/04 A3002 RMK AO2 SLP163 T00830044EQDQ01    099SCCGD1P01    003SCCGA1
0247722897932062010010711567+35237-120640FM-15+0063KSBP V0201205N003152200059N0160935N5+00835+00445101645ADDAA101000095GF100991999999999999999999KA1999M+01281KA2999N+00721MA1101665100905MD1690029+9999REMMET10801/07/10 03:56:02 METAR KSBP 071156Z 12006KT 10SM CLR 08/04 A3002 RMK AO2 SLP164 T00830044 10128 20072 56002EQDQ01    099SCCGD1P01    003SCCGA1
0189722897932062010010712567+35237-120640FM-15+0063KSBP V0209999C000052200059N0160935N5+00945+00335101625ADDAA101000095GF100991999999999999999999MA1101635100875REMMET09001/07/10 04:56:02 METAR KSBP 071256Z 00000KT 10SM CLR 09/03 A3001 RMK AO2 SLP162 T00940033EQDQ01    099SCCGD1P01    003SCCGA1
0194722897932062010010713567+35237-120640FM-15+0063KSBP V0209999C000052200059N0160935N5+01065+00175101615ADDAA101000095GF100991999999999999999999MA1101635100875REMMET09501/07/10 05:56:02 METAR KSBP 071356Z 00000KT 10SM CLR 11/02 A3001 RMK AO2 SLP161 T01060017 (LN)EQDQ01    099SCCGD1P01    003SCCGA1
0214722897932062010010714567+35237-120640FM-15+0063KSBP V0201105N001552200059N0160935N5+00895+00175101645ADDAA101000095GF100991999999999999999999MA1101665100905MD1590009+9999REMMET10101/07/10 06:56:02 METAR KSBP 071456Z 11003KT 10SM CLR 09/02 A3002 RMK AO2 SLP164 T00890017 55000 (LN)EQDQ01    099SCCGD1P01    003SCCGA1
0194722897932062010010715567+35237-120640FM-15+0063KSBP V0209999C000052200059N0160935N5+01225+00115101705ADDAA101000095GF100991999999999999999999MA1101735100975REMMET09501/07/10 07:56:02 METAR KSBP 071556Z 00000KT 10SM CLR 12/01 A3004 RMK AO2 SLP170 T01220011 (LN)EQDQ01    099SCCGD1P01    003SCCGA1
0194722897932062010010716567+35237-120640FM-15+0063KSBP V0200105N001552200059N0160935N5+01565+00285101775ADDAA101000095GF100991999999999999999999MA1101765101005REMMET09501/07/10 08:56:02 METAR KSBP 071656Z 01003KT 10SM CLR 16/03 A3005 RMK AO2 SLP177 T01560028 (LN)EQDQ01    099SCCGD1P01    003SCCGA1
0252722897932062010010717567+35237-120640FM-15+0063KSBP V0203205N005752200059N0160935N5+01785+00285101785ADDAA101000095GF100991999999999999999999KA1999M+01831KA2999N+00781MA1101795101045MD1190149+9999REMMET11301/07/10 09:56:02 METAR KSBP 071756Z 32011KT 10SM CLR 18/03 A3006 RMK AO2 SLP178 T01780028 10183 20078 51014 (WO)EQDQ01    099SCCGD1P01    003SCCGA1
0194722897932062010010718567+35237-120640FM-15+0063KSBP V0203305N003652200059N0160935N5+02065+00395101745ADDAA101000095GF100991999999999999999999MA1101765101005REMMET09501/07/10 10:56:02 METAR KSBP 071856Z 33007KT 10SM CLR 21/04 A3005 RMK AO2 SLP174 T02060039 (WO)EQDQ01    099SCCGD1P01    003SCCGA1
0193722897932062010010719567+35237-120640FM-15+0063KSBP V0203405N005752200059N0160935N5+02115+00395101675ADDAA101000095GA1045+060965999GD12991+0609659GF104991999999999999999999MA1101695100945REMMET09801/07/10 11:56:02 METAR KSBP 071956Z 34011KT 10SM SCT200 21/04 A3003 RMK AO2 SLP167 T02110039 (WO)
0224722897932062010010720567+35237-120640FM-15+0063KSBP V0203305N005752200059N0160935N5+02175+00615101555ADDAA101000095GA1045+060965999GD12991+0609659GF104991999999999999999999MA1101565100805MD1890229+9999OC100935REMMET10701/07/10 12:56:02 METAR KSBP 072056Z 33011G18KT 10SM SCT200 22/06 A2999 RMK AO2 SLP155 T02170061 58022 (WO)
0194722897932062010010721567+35237-120640FM-15+0063KSBP V0202905N004652200059N0160935N5+02225+00675101525ADDAA101000095GF100991999999999999999999MA1101525100775REMMET09501/07/10 13:56:02 METAR KSBP 072156Z 29009KT 10SM CLR 22/07 A2998 RMK AO2 SLP152 T02220067 (WO)EQDQ01    099SCCGD1P01    003SCCGA1
0194722897932062010010722567+35237-120640FM-15+0063KSBP V0201105N002652200059N0160935N5+02335+00675101485ADDAA101000095GF100991999999999999999999MA1101495100735REMMET09501/07/10 14:56:02 METAR KSBP 072256Z 11005KT 10SM CLR 23/07 A2997 RMK AO2 SLP148 T02330067 (WO)EQDQ01    099SCCGD1P01    003SCCGA1
0252722897932062010010723567+35237-120640FM-15+0063KSBP V0203005N003152200059N0160935N5+02225+00725101465ADDAA101000095GF100991999999999999999999KA1999M+02391KA2999N+01781MA1101495100735MD1690099+9999REMMET11301/07/10 15:56:02 METAR KSBP 072356Z 30006KT 10SM CLR 22/07 A2997 RMK AO2 SLP146 T02220072 10239 20178 56009 (WO)EQDQ01    099SCCGD1P01    003SCCGA1
0188722897932062010010800567+35237-120640FM-15+0063KSBP V0203305N005752200059N0160935N5+02005+00725101575ADDAA101000095GA1045+060965999GD12991+0609659GF104991999999999999999999MA1101595100845REMMET09301/07/10 16:56:02 METAR KSBP 080056Z 33011KT 10SM SCT200 20/07 A3000 RMK AO2 SLP157 T02000072
0189722897932062010010801567+35237-120640FM-15+0063KSBP V0203105N004152200059N0160935N5+01445+00945101645ADDAA101000095GF100991999999999999999999MA1101665100905REMMET09001/07/10 17:56:02 METAR KSBP 080156Z 31008KT 10SM CLR 14/09 A3002 RMK AO2 SLP164 T01440094EQDQ01    099SCCGD1P01    003SCCGA1
0209722897932062010010802567+35237-120640FM-15+0063KSBP V0209999V002152200059N0160935N5+01445+00785101715ADDAA101000095GF100991999999999999999999MA1101735100975MD1190239+9999REMMET09601/07/10 18:56:01 METAR KSBP 080256Z VRB04KT 10SM CLR 14/08 A3004 RMK AO2 SLP171 T01440078 51023EQDQ01    099SCCGD1P01    003SCCGA1
0189722897932062010010803567+35237-120640FM-15+0063KSBP V0209999C000052200059N0160935N5+01395+00725101715ADDAA101000095GF100991999999999999999999MA1101735100975REMMET09001/07/10 19:56:01 METAR KSBP 080356Z 00000KT 10SM CLR 14/07 A3004 RMK AO2 SLP171 T01390072EQDQ01    099SCCGD1P01    003SCCGA1
0189722897932062010010804567+35237-120640FM-15+0063KSBP V0209999C000052200059N0160935N5+01395+00785101745ADDAA101000095GF100991999999999999999999MA1101765101005REMMET09001/07/10 20:56:02 METAR KSBP 080456Z 00000KT 10SM CLR 14/08 A3005 RMK AO2 SLP174 T01390078EQDQ01    099SCCGD1P01    003SCCGA1
0247722897932062010010805567+35237-120640FM-15+0063KSBP V0209999C000052200059N0160935N5+01335+00835101745ADDAA101000095GF100991999999999999999999KA1999M+02221KA2999N+01281MA1101765101005MD1290049+9999REMMET10801/07/10 21:56:02 METAR KSBP 080556Z 00000KT 10SM CLR 13/08 A3005 RMK AO2 SLP174 T01330083 10222 20128 52004EQDQ01    099SCCGD1P01    003SCCGA1
0189722897932062010010806567+35237-120640FM-15+0063KSBP V0201505N002652200059N0160935N5+01115+00785101735ADDAA101000095GF100991999999999999999999MA1101765101005REMMET09001/07/10 22:56:02 METAR KSBP 080656Z 15005KT 10SM CLR 11/08 A3005 RMK AO2 SLP173 T01110078EQDQ01    099SCCGD1P01    003SCCGA1
0199722897932062010010807567+35237-120640FM-15+0063KSBP V0209999C000052200059N0160935N5+01175+00785101705ADDAA101000095GF100991999999999999999999MA1101735100975REMMET10001/07/10 23:56:02 METAR KSBP 080756Z 00000KT 10SM CLR 12/08 A3004 RMK AO2 SLP170 T01170078 402390072EQDQ01    099SCCGD1P01    003SCCGA1
0886722897932062010010807596+35237-120640SOD  +0063KSBP V020999999999999999999999999999+99999+99999999999ADDAA124000095KA1240M+02395KA2240N+00725MG1100904101464OE11240098334016475OE22240071534016475OE33240022899999995REMSOD73024 HR PRECIPITATION (IN):0.00  24 HR MAX TEMP (F):75 24 HR MAX TEMP TIME (LST):1514 24 HR MIN TEMP (F):45 24 HR MIN TEMP TIME (LST):0157 AVERAGE STATION PRESSURE:29.795 MINIMUM SEA LEVEL PRESSURE:29.96 TIME OF OCCURRENCE:1604 PEAK WIND SPEED (MPH):22  PEAK WIND DIR (DEG):340 PEAK WIND TIME (LST):1647  FASTEST 2MIN SPEED (MPH):16 FASTEST 2MIN DIR (DEG):340 FASTEST 2MIN TIME (LST):1647 AVERAGE WIND SPEED (MPH):5.1  24 HR AVG TEMP (F):60 HEATING DEGREE DAYS:5   COOLING DEGREE DAYS:0   LATEST DAY MAX TEMP (0700-1900 LST):75  LATEST NIGHT MIN TEMP(1900-0800 LST):45 HOURLY INCREMENTAL PRECIPITATION VALUES (IN):.00 0.00 0.00 0.00 0.00 0.00 0.00 0.00 0.00 0.00 0.00 0.00 0.00 0.00 0.00 0.00 0.00 0.00 0.00 0.00 0.00 0.00 0.00 0.00EQDR01     N7GJS072R02     N7GKS075
0209722897932062010010808567+35237-120640FM-15+0063KSBP V0201305N002652200059N0160935N5+01115+00785101685ADDAA101000095GF100991999999999999999999MA1101695100945MD1890069+9999REMMET09601/08/10 00:56:02 METAR KSBP 080856Z 13005KT 10SM CLR 11/08 A3003 RMK AO2 SLP168 T01110078 58006EQDQ01    099SCCGD1P01    003SCCGA1
0191722897932062010010809567+35237-120640FM-15+0063KSBP V02099999999992200059N0160935N5+01175+00785101675ADDAA101000095GF100991999999999999999999MA1101695100945REMMET09201/08/10 01:56:02 METAR KSBP 080956Z      KT 10SM CLR 12/08 A3003 RMK AO2 SLP167 T01170078 $EQDQ01    099SCCGD1P01    003SCCGA1
0191722897932062010010810567+35237-120640FM-15+0063KSBP V0209999V001552200059N0160935N5+01005+00725101655ADDAA101000095GF100991999999999999999999MA1101665100905REMMET09201/08/10 02:56:02 METAR KSBP 081056Z VRB03KT 10SM CLR 10/07 A3002 RMK AO2 SLP165 T01000072 $EQDQ01    099SCCGD1P01    003SCCGA1
0249722897932062010010811567+35237-120640FM-15+0063KSBP V0201105N001552200059N0160935N5+01005+00675101675ADDAA101000095GF100991999999999999999999KA1999M+01391KA2999N+00891MA1101695100945MD1590019+9999REMMET11001/08/10 03:56:02 METAR KSBP 081156Z 11003KT 10SM CLR 10/07 A3003 RMK AO2 SLP167 T01000067 10139 20089 55001 $EQDQ01    099SCCGD1P01    003SCCGA1
0191722897932062010010812567+35237-120640FM-15+0063KSBP V0209999C000052200059N0160935N5+00945+00615101725ADDAA101000095GF100991999999999999999999MA1101735100975REMMET09201/08/10 04:56:02 METAR KSBP 081256Z 00000KT 10SM CLR 09/06 A3004 RMK AO2 SLP172 T00940061 $EQDQ01    099SCCGD1P01    003SCCGA1
0191722897932062010010813567+35237-120640FM-15+0063KSBP V0209999C000052200059N0160935N5+00895+00565101755ADDAA101000095GF100991999999999999999999MA1101765101005REMMET09201/08/10 05:56:02 METAR KSBP 081356Z 00000KT 10SM CLR 09/06 A3005 RMK AO2 SLP175 T00890056 $EQDQ01    099SCCGD1P01    003SCCGA1
0215722897932062010010814567+35237-120640FM-15+0063KSBP V0209999C000052200059N0160935N5+00895+00565101805ADDAA101000095GA1045+060965999GD12991+0609659GF104991999999999999999999MA1101795101045MD1390119+9999REMMET10601/08/10 06:56:02 METAR KSBP 081456Z 00000KT 10SM SCT200 09/06 A3006 RMK AO2 SLP180 T00890056 53011 $ (LN)
0194722897932062010010815567+35237-120640FM-15+0063KSBP V0209999C000052200059N0160935N5+00895+00565101885ADDAA101000095GF100991999999999999999999MA1101865101105REMMET09501/08/10 07:56:02 METAR KSBP 081556Z 00000KT 10SM CLR 09/06 A3008 RMK AO2 SLP188 T00890056 (LN)EQDQ01    099SCCGD1P01    003SCCGA1
0194722897932062010010816567+35237-120640FM-15+0063KSBP V0209999C000052200059N0160935N5+01225+00725101965ADDAA101000095GF100991999999999999999999MA1101965101215REMMET09501/08/10 08:56:02 METAR KSBP 081656Z 00000KT 10SM CLR 12/07 A3011 RMK AO2 SLP196 T01220072 (LN)EQDQ01    099SCCGD1P01    003SCCGA1
0251722897932062010010817567+35237-120640FM-15+0063KSBP V0201705N001552200059N0160935N5+01615+00835101985ADDAA101000095GA1045+060965999GD12991+0609659GF104991999999999999999999KA1999M+01611KA2999N+00781MA1102005101245MD1190199+9999REMMET11601/08/10 09:56:02 METAR KSBP 081756Z 17003KT 10SM SCT200 16/08 A3012 RMK AO2 SLP198 T01610083 10161 20078 51019 (LN)
0193722897932062010010818567+35237-120640FM-15+0063KSBP V0209999C000052200059N0160935N5+01945+00725101965ADDAA101000095GA1045+060965999GD12991+0609659GF104991999999999999999999MA1101965101215REMMET09801/08/10 10:56:02 METAR KSBP 081856Z 00000KT 10SM SCT200 19/07 A3011 RMK AO2 SLP196 T01940072 (LN)
0194722897932062010010819567+35237-120640FM-15+0063KSBP V0203205N001552200059N0160935N5+02065+00835101915ADDAA101000095GF100991999999999999999999MA1101935101175REMMET09501/08/10 11:56:02 METAR KSBP 081956Z 32003KT 10SM CLR 21/08 A3010 RMK AO2 SLP191 T02060083 (LN)EQDQ01    099SCCGD1P01    003SCCGA1
0213722897932062010010820567+35237-120640FM-15+0063KSBP V0203205N006252200059N0160935N5+01945+00895101865ADDAA101000095GA1045+060965999GD12991+0609659GF104991999999999999999999MA1101905101145MD1890109+9999REMMET10401/08/10 12:56:02 METAR KSBP 082056Z 32012KT 10SM SCT200 19/09 A3009 RMK AO2 SLP186 T01940089 58010 (LN)
0193722897932062010010821567+35237-120640FM-15+0063KSBP V0203205N006752200059N0160935N5+01835+01115101885ADDAA101000095GA1045+060965999GD12991+0609659GF104991999999999999999999MA1101905101145REMMET09801/08/10 13:56:02 METAR KSBP 082156Z 32013KT 10SM SCT200 18/11 A3009 RMK AO2 SLP188 T01830111 (LN)
0212722897932062010010822567+35237-120640FM-15+0063KSBP V0202905N002152200059N0080475N5+02005+01065101825ADDAA101000095AU100007015GA1045+060965999GD12991+0609659GF104991999999999999999999MA1101835101075MW1055REMMET10001/08/10 14:56:02 METAR KSBP 082256Z 29004KT 5SM HZ SCT200 20/11 A3007 RMK AO2 SLP182 T02000106 (LN)
0288722897932062010010823567+35237-120640FM-15+0063KSBP V0209999C000052200059N0144845N5+02115+00785101805ADDAA101000095GA1025+036585999GA2045+060965999GD11991+0365859GD22991+0609659GF104991999999999999999999KA1999M+02221KA2999N+01611MA1101835101075MD1890069+9999REMMET12201/08/10 15:56:02 METAR KSBP 082356Z 00000KT 9SM FEW120 SCT200 21/08 A3007 RMK AO2 SLP180 T02110078 10222 20161 58006 (LN)
0189722897932062010010900567+35237-120640FM-15+0063KSBP V0209999C000052200059N0160935N5+01835+00835101855ADDAA101000095GF100991999999999999999999MA1101865101105REMMET09001/08/10 16:56:01 METAR KSBP 090056Z 00000KT 10SM CLR 18/08 A3008 RMK AO2 SLP185 T01830083EQDQ01    099SCCGD1P01    003SCCGA1
0189722897932062010010901567+35237-120640FM-15+0063KSBP V0209999C000052200059N0160935N5+01615+01065101905ADDAA101000095GF100991999999999999999999MA1101905101145REMMET09001/08/10 17:56:01 METAR KSBP 090156Z 00000KT 10SM CLR 16/11 A3009 RMK AO2 SLP190 T01610106EQDQ01    099SCCGD1P01    003SCCGA1
0151722897932062010010902546+35237-120640FM-16+0063KSBP V0203305N008852200059N0112655N5+01405+01205999999ADDGA1005+999999999GD10991+9999999MA1102075101315REMMET09301/08/10 18:54:03 SPECI KSBP 090254Z 33017KT 7SM CLR 14/12 A3014 RMK AO2 WSHFT 0236 FIBI (LN)
0230722897932062010010902567+35237-120640FM-15+0063KSBP V0203305N007752200059N0112655N5+01395+01225102095ADDAA101000095GF100991999999999999999999MA1102105101345MD1390279+9999OC101135REMMET10901/08/10 18:56:01 METAR KSBP 090256Z 33015G22KT 7SM CLR 14/12 A3015 RMK AO2 WSHFT 0236 SLP209 T01390122 53027EQDQ01    099SCCGD1P01    003SCCGA1
0189722897932062010010903567+35237-120640FM-15+0063KSBP V0203005N002152200059N0160935N5+01335+01115102125ADDAA101000095GF100991999999999999999999MA1102135101375REMMET09001/08/10 19:56:01 METAR KSBP 090356Z 30004KT 10SM CLR 13/11 A3016 RMK AO2 SLP212 T01330111EQDQ01    099SCCGD1P01    003SCCGA1
0188722897932062010010904567+35237-120640FM-15+0063KSBP V0209999C000052200059N0144845N5+01225+01065102125ADDAA101000095GF100991999999999999999999MA1102135101375REMMET08901/08/10 20:56:02 METAR KSBP 090456Z 00000KT 9SM CLR 12/11 A3016 RMK AO2 SLP212 T01220106EQDQ01    099SCCGD1P01    003SCCGA1
0247722897932062010010905567+35237-120640FM-15+0063KSBP V0200905N001552200059N0160935N5+01065+00945102135ADDAA101000095GF100991999999999999999999KA1999M+02111KA2999N+01061MA1102135101375MD1190059+9999REMMET10801/08/10 21:56:02 METAR KSBP 090556Z 09003KT 10SM CLR 11/09 A3016 RMK AO2 SLP213 T01060094 10211 20106 51005EQDQ01    099SCCGD1P01    003SCCGA1
0189722897932062010010906567+35237-120640FM-15+0063KSBP V0209999C000052200059N0160935N5+01005+00835102145ADDAA101000095GF100991999999999999999999MA1102135101375REMMET09001/08/10 22:56:02 METAR KSBP 090656Z 00000KT 10SM CLR 10/08 A3016 RMK AO2 SLP214 T01000083EQDQ01    099SCCGD1P01    003SCCGA1
0199722897932062010010907567+35237-120640FM-15+0063KSBP V0209999C000052200059N0160935N5+00895+00785102125ADDAA101000095GF100991999999999999999999MA1102135101375REMMET10001/08/10 23:56:02 METAR KSBP 090756Z 00000KT 10SM CLR 09/08 A3016 RMK AO2 SLP212 T00890078 402220078EQDQ01    099SCCGD1P01    003SCCGA1
0912722897932062010010907596+35237-120640SOD  +0063KSBP V020999999999999999999999999999+99999+99999999999ADDAA124000095AX1085245KA1240M+02225KA2240N+00785MG1101134101634OE11240111833018525OE22240093933018535OE33240015299999995REMSOD74724 HR PRECIPITATION (IN):0.00  WEATHER(CODE):8  24 HR MAX TEMP (F):72 24 HR MAX TEMP TIME (LST):1230 24 HR MIN TEMP (F):46 24 HR MIN TEMP TIME (LST):0744 AVERAGE STATION PRESSURE:29.865 MINIMUM SEA LEVEL PRESSURE:30.01 TIME OF OCCURRENCE:0345 PEAK WIND SPEED (MPH):25  PEAK WIND DIR (DEG):330 PEAK WIND TIME (LST):1852  FASTEST 2MIN SPEED (MPH):21 FASTEST 2MIN DIR (DEG):330 FASTEST 2MIN TIME (LST):1853 AVERAGE WIND SPEED (MPH):3.4  24 HR AVG TEMP (F):59 HEATING DEGREE DAYS:6   COOLING DEGREE DAYS:0   LATEST DAY MAX TEMP (0700-1900 LST):72  LATEST NIGHT MIN TEMP(1900-0800 LST):46 HOURLY INCREMENTAL PRECIPITATION VALUES (IN):.00 0.00 0.00 0.00 0.00 0.00 0.00 0.00 0.00 0.00 0.00 0.00 0.00 0.00 0.00 0.00 0.00 0.00 0.00 0.00 0.00 0.00 0.00 0.00EQDR01     N7GJS072R02     N7GKS075
0209722897932062010010908567+35237-120640FM-15+0063KSBP V0201005N001552200059N0160935N5+00895+00725102045ADDAA101000095GF100991999999999999999999MA1102075101315MD1890089+9999REMMET09601/09/10 00:56:02 METAR KSBP 090856Z 10003KT 10SM CLR 09/07 A3014 RMK AO2 SLP204 T00890072 58008EQDQ01    099SCCGD1P01    003SCCGA1
0189722897932062010010909567+35237-120640FM-15+0063KSBP V0209999C000052200059N0160935N5+00835+00675102065ADDAA101000095GF100991999999999999999999MA1102075101315REMMET09001/09/10 01:56:02 METAR KSBP 090956Z 00000KT 10SM CLR 08/07 A3014 RMK AO2 SLP206 T00830067EQDQ01    099SCCGD1P01    003SCCGA1
0189722897932062010010910567+35237-120640FM-15+0063KSBP V0201305N001552200059N0160935N5+00725+00615102045ADDAA101000095GF100991999999999999999999MA1102035101275REMMET09001/09/10 02:56:02 METAR KSBP 091056Z 13003KT 10SM CLR 07/06 A3013 RMK AO2 SLP204 T00720061EQDQ01    099SCCGD1P01    003SCCGA1
0247722897932062010010911567+35237-120640FM-15+0063KSBP V0209999C000052200059N0160935N5+00785+00675101985ADDAA101000095GF100991999999999999999999KA1999M+01111KA2999N+00721MA1102005101245MD1890079+9999REMMET10801/09/10 03:56:02 METAR KSBP 091156Z 00000KT 10SM CLR 08/07 A3012 RMK AO2 SLP198 T00780067 10111 20072 58007EQDQ01    099SCCGD1P01    003SCCGA1
0189722897932062010010912567+35237-120640FM-15+0063KSBP V0209999C000052200059N0160935N5+00725+00615101965ADDAA101000095GF100991999999999999999999MA1101965101215REMMET09001/09/10 04:56:02 METAR KSBP 091256Z 00000KT 10SM CLR 07/06 A3011 RMK AO2 SLP196 T00720061EQDQ01    099SCCGD1P01    003SCCGA1
0189722897932062010010913567+35237-120640FM-15+0063KSBP V0209999C000052200059N0160935N5+00725+00565102035ADDAA101000095GF100991999999999999999999MA1102035101275REMMET09001/09/10 05:56:02 METAR KSBP 091356Z 00000KT 10SM CLR 07/06 A3013 RMK AO2 SLP203 T00720056EQDQ01    099SCCGD1P01    003SCCGA1
0214722897932062010010914567+35237-120640FM-15+0063KSBP V0209999C000052200059N0160935N5+00725+00565102135ADDAA101000095GF100991999999999999999999MA1102135101375MD1390149+9999REMMET10101/09/10 06:56:02 METAR KSBP 091456Z 00000KT 10SM CLR 07/06 A3016 RMK AO2 SLP213 T00720056 53014 (JJ)EQDQ01    099SCCGD1P01    003SCCGA1
0194722897932062010010915567+35237-120640FM-15+0063KSBP V0201405N001552200059N0160935N5+00725+00615102195ADDAA101000095GF100991999999999999999999MA1102205101445REMMET09501/09/10 07:56:02 METAR KSBP 091556Z 14003KT 10SM CLR 07/06 A3018 RMK AO2 SLP219 T00720061 (JJ)EQDQ01    099SCCGD1P01    003SCCGA1
0194722897932062010010916567+35237-120640FM-15+0063KSBP V0209999C000052200059N0160935N5+01065+00835102265ADDAA101000095GF100991999999999999999999MA1102275101515REMMET09501/09/10 08:56:02 METAR KSBP 091656Z 00000KT 10SM CLR 11/08 A3020 RMK AO2 SLP226 T01060083 (JJ)EQDQ01    099SCCGD1P01    003SCCGA1
0251722897932062010010917567+35237-120640FM-15+0063KSBP V0209999C00005060965MN0160935N5+01285+01005102305ADDAA101000095GA1085+060965999GD14991+0609659GF108991999999999999999999KA1999M+01281KA2999N+00671MA1102305101545MD1190179+9999REMMET11601/09/10 09:56:02 METAR KSBP 091756Z 00000KT 10SM OVC200 13/10 A3021 RMK AO2 SLP230 T01280100 10128 20067 51017 (JJ)
0194722897932062010010918567+35237-120640FM-15+0063KSBP V0209999C000052200059N0160935N5+01565+01005102245ADDAA101000095GF100991999999999999999999MA1102245101475REMMET09501/09/10 10:56:02 METAR KSBP 091856Z 00000KT 10SM CLR 16/10 A3019 RMK AO2 SLP224 T01560100 (JJ)EQDQ01    099SCCGD1P01    003SCCGA1
0194722897932062010010919567+35237-120640FM-15+0063KSBP V0209999C000052200059N0160935N5+01785+00945102175ADDAA101000095GF100991999999999999999999MA1102175101415REMMET09501/09/10 11:56:02 METAR KSBP 091956Z 00000KT 10SM CLR 18/09 A3017 RMK AO2 SLP217 T01780094 (JJ)EQDQ01    099SCCGD1P01    003SCCGA1
0214722897932062010010920567+35237-120640FM-15+0063KSBP V0209999C000052200059N0160935N5+01945+00725102075ADDAA101000095GF100991999999999999999999MA1102075101315MD1890229+9999REMMET10101/09/10 12:56:02 METAR KSBP 092056Z 00000KT 10SM CLR 19/07 A3014 RMK AO2 SLP207 T01940072 58022 (JJ)EQDQ01    099SCCGD1P01    003SCCGA1
0194722897932062010010921567+35237-120640FM-15+0063KSBP V0209999C000052200059N0160935N5+01835+01065102025ADDAA101000095GF100991999999999999999999MA1102035101275REMMET09501/09/10 13:56:02 METAR KSBP 092156Z 00000KT 10SM CLR 18/11 A3013 RMK AO2 SLP202 T01830106 (JJ)EQDQ01    099SCCGD1P01    003SCCGA1
0189722897932062010010922567+35237-120640FM-15+0063KSBP V0203205N001552200059N0160935N5+01785+01175102035ADDAA101000095GF100991999999999999999999MA1102035101275REMMET09001/09/10 14:56:02 METAR KSBP 092256Z 32003KT 10SM CLR 18/12 A3013 RMK AO2 SLP203 T01780117EQDQ01    099SCCGD1P01    003SCCGA1
0252722897932062010010923567+35237-120640FM-15+0063KSBP V0209999C000052200059N0160935N5+01785+01115101905ADDAA101000095GF100991999999999999999999KA1999M+01941KA2999N+01281MA1101905101145MD1890179+9999REMMET11301/09/10 15:56:02 METAR KSBP 092356Z 00000KT 10SM CLR 18/11 A3009 RMK AO2 SLP190 T01780111 10194 20128 58017 TSNOEQDQ01    099SCCGD1P01    003SCCGA1
0189722897932062010011000567+35237-120640FM-15+0063KSBP V0202605N002152200059N0160935N5+01725+01065101745ADDAA101000095GF100991999999999999999999MA1101765101005REMMET09001/09/10 16:56:01 METAR KSBP 100056Z 26004KT 10SM CLR 17/11 A3005 RMK AO2 SLP174 T01720106EQDQ01    099SCCGD1P01    003SCCGA1
0172722897932062010011001347+35237-120640FM-16+0063KSBP V0203405N006752200059N0160935N5+01505+01105999999ADDGF100991999999999999999999MA1101965101215OC100935REMMET07601/09/10 17:34:02 SPECI KSBP 100134Z 34013G18KT 10SM CLR 15/11 A3011 RMK AO2EQDQ01    099SCCGD1P01    003SCCGA1
0200722897932062010011001567+35237-120640FM-15+0063KSBP V0203305N006752200059N0160935N5+01285+01115102035ADDAA101000095GF100991999999999999999999MA1102035101275OC101035REMMET09301/09/10 17:56:01 METAR KSBP 100156Z 33013G20KT 10SM CLR 13/11 A3013 RMK AO2 SLP203 T01280111EQDQ01    099SCCGD1P01    003SCCGA1
0171722897932062010011002047+35237-120640FM-16+0063KSBP V0203405N007752200059N0160935N5+01205+01105999999ADDGA1045+002135999GD12991+0021359GF104991999999999999999999MA1102035101275OC101035REMMET07901/09/10 18:04:02 SPECI KSBP 100204Z 34015G20KT 10SM SCT007 12/11 A3013 RMK AO2
0160722897932062010011002167+35237-120640FM-16+0063KSBP V0203105N00625002135MN0160935N5+01205+01105999999ADDGA1075+002135999GD13991+0021359GF107991999999999999999999MA1102075101315REMMET07601/09/10 18:16:02 SPECI KSBP 100216Z 31012KT 10SM BKN007 12/11 A3014 RMK AO2
0171722897932062010011002297+35237-120640FM-16+0063KSBP V0203105N005752200059N0160935N5+01205+01105999999ADDGA1045+002135999GD12991+0021359GF104991999999999999999999MA1102105101345OC100985REMMET07901/09/10 18:29:02 SPECI KSBP 100229Z 31011G19KT 10SM SCT007 12/11 A3015 RMK AO2
0208722897932062010011002567+35237-120640FM-15+0063KSBP V0203205N005152200059N0144845N5+01175+01065102125ADDAA101000095GF100991999999999999999999MA1102135101375MD1390219+9999REMMET09501/09/10 18:56:02 METAR KSBP 100256Z 32010KT 9SM CLR 12/11 A3016 RMK AO2 SLP212 T01170106 53021EQDQ01    099SCCGD1P01    003SCCGA1
0191722897932062010011003567+35237-120640FM-15+0063KSBP V02099999999992200059N0160935N5+01225+01065102115ADDAA101000095GF100991999999999999999999MA1102105101345REMMET09201/09/10 19:56:02 METAR KSBP 100356Z      KT 10SM CLR 12/11 A3015 RMK AO2 SLP211 T01220106 $EQDQ01    099SCCGD1P01    003SCCGA1
0190722897932062010011004567+35237-120640FM-15+0063KSBP V0209999C000052200059N0144845N5+01065+00895102105ADDAA101000095GF100991999999999999999999MA1102105101345REMMET09101/09/10 20:56:02 METAR KSBP 100456Z 00000KT 9SM CLR 11/09 A3015 RMK AO2 SLP210 T01060089 $EQDQ01    099SCCGD1P01    003SCCGA1
0248722897932062010011005567+35237-120640FM-15+0063KSBP V0209999C000052200059N0144845N5+00945+00785102145ADDAA101000095GF100991999999999999999999KA1999M+01891KA2999N+00941MA1102135101375MD1390029+9999REMMET10901/09/10 21:56:02 METAR KSBP 100556Z 00000KT 9SM CLR 09/08 A3016 RMK AO2 SLP214 T00940078 10189 20094 53002 $EQDQ01    099SCCGD1P01    003SCCGA1
0190722897932062010011006567+35237-120640FM-15+0063KSBP V0209999C000052200059N0128755N5+00835+00725102125ADDAA101000095GF100991999999999999999999MA1102135101375REMMET09101/09/10 22:56:02 METAR KSBP 100656Z 00000KT 8SM CLR 08/07 A3016 RMK AO2 SLP212 T00830072 $EQDQ01    099SCCGD1P01    003SCCGA1
0201722897932062010011007567+35237-120640FM-15+0063KSBP V0201405N002152200059N0160935N5+00725+00615102115ADDAA101000095GF100991999999999999999999MA1102135101375REMMET10201/09/10 23:56:01 METAR KSBP 100756Z 14004KT 10SM CLR 07/06 A3016 RMK AO2 SLP211 T00720061 401940067 $EQDQ01    099SCCGD1P01    003SCCGA1
0886722897932062010011007596+35237-120640SOD  +0063KSBP V020999999999999999999999999999+99999+99999999999ADDAA124000095KA1240M+01945KA2240N+00675MG1101304101734OE11240107322019545OE22240089434017505OE33240009899999995REMSOD73024 HR PRECIPITATION (IN):0.00  24 HR MAX TEMP (F):67 24 HR MAX TEMP TIME (LST):1339 24 HR MIN TEMP (F):44 24 HR MIN TEMP TIME (LST):0717 AVERAGE STATION PRESSURE:29.915 MINIMUM SEA LEVEL PRESSURE:30.04 TIME OF OCCURRENCE:1656 PEAK WIND SPEED (MPH):24  PEAK WIND DIR (DEG):220 PEAK WIND TIME (LST):1954  FASTEST 2MIN SPEED (MPH):20 FASTEST 2MIN DIR (DEG):340 FASTEST 2MIN TIME (LST):1750 AVERAGE WIND SPEED (MPH):2.2  24 HR AVG TEMP (F):56 HEATING DEGREE DAYS:9   COOLING DEGREE DAYS:0   LATEST DAY MAX TEMP (0700-1900 LST):67  LATEST NIGHT MIN TEMP(1900-0800 LST):44 HOURLY INCREMENTAL PRECIPITATION VALUES (IN):.00 0.00 0.00 0.00 0.00 0.00 0.00 0.00 0.00 0.00 0.00 0.00 0.00 0.00 0.00 0.00 0.00 0.00 0.00 0.00 0.00 0.00 0.00 0.00EQDR01     N7GJS072R02     N7GKS075
0210722897932062010011008567+35237-120640FM-15+0063KSBP V0209999C000052200059N0144845N5+00725+00615102085ADDAA101000095GF100991999999999999999999MA1102105101345MD1890049+9999REMMET09701/10/10 00:56:02 METAR KSBP 100856Z 00000KT 9SM CLR 07/06 A3015 RMK AO2 SLP208 T00720061 58004 $EQDQ01    099SCCGD1P01    003SCCGA1
0191722897932062010011009567+35237-120640FM-15+0063KSBP V0209999C000052200059N0160935N5+00675+00505102115ADDAA101000095GF100991999999999999999999MA1102135101375REMMET09201/10/10 01:56:02 METAR KSBP 100956Z 00000KT 10SM CLR 07/05 A3016 RMK AO2 SLP211 T00670050 $EQDQ01    099SCCGD1P01    003SCCGA1
0190722897932062010011010567+35237-120640FM-15+0063KSBP V0201205N001552200059N0128755N5+00615+00505102105ADDAA101000095GF100991999999999999999999MA1102105101345REMMET09101/10/10 02:56:02 METAR KSBP 101056Z 12003KT 8SM CLR 06/05 A3015 RMK AO2 SLP210 T00610050 $EQDQ01    099SCCGD1P01    003SCCGA1
0161722897932062010011011227+35237-120640FM-16+0063KSBP V0209999C000052200059N0144845N5+00605+00505999999ADDGA1025+000305999GD11991+0003059GF102991999999999999999999MA1102075101315REMMET07701/10/10 03:22:02 SPECI KSBP 101122Z 00000KT 9SM FEW001 06/05 A3014 RMK AO2 $
0187722897932062010011011447+35237-120640FM-16+0063KSBP V0201605N00155000305MN0096565N5+00605+00505999999ADDAU100001015AW1105GA1075+000305999GD13991+0003059GF107991999999999999999999MA1102035101275MW1101REMMET08001/10/10 03:44:02 SPECI KSBP 101144Z 16003KT 6SM BR BKN001 06/05 A3013 RMK AO2 $
0247722897932062010011011567+35237-120640FM-15+0063KSBP V0209999C00005000305MN0144845N5+00565+00505102055ADDAA101000095GA1085+000305999GD14991+0003059GF108991999999999999999999KA1999M+00941KA2999N+00561MA1102035101275MD1890049+9999REMMET11201/10/10 03:56:02 METAR KSBP 101156Z 00000KT 9SM OVC001 06/05 A3013 RMK AO2 SLP205 T00560050 10094 20056 58004 $
0162722897932062010011012287+35237-120640FM-16+0063KSBP V0209999C000052200059N0160935N5+00605+00505999999ADDGA1045+000305999GD12991+0003059GF104991999999999999999999MA1102035101275REMMET07801/10/10 04:28:02 SPECI KSBP 101228Z 00000KT 10SM SCT001 06/05 A3013 RMK AO2 $
0191722897932062010011012567+35237-120640FM-15+0063KSBP V0209999C000052200059N0160935N5+00565+00445101995ADDAA101000095GF100991999999999999999999MA1102005101245REMMET09201/10/10 04:56:02 METAR KSBP 101256Z 00000KT 10SM CLR 06/04 A3012 RMK AO2 SLP199 T00560044 $EQDQ01    099SCCGD1P01    003SCCGA1
0145722897932062010011013546+35237-120640FM-16+0063KSBP V0200905N002652200059N0112655N5+00605+00405999999ADDGA1045+000305999GD12991+0003059MA1102005101245REMMET08701/10/10 05:54:02 SPECI KSBP 101354Z 09005KT 7SM SCT001 06/04 A3012 RMK AO2 $ FIBI (LN)
0194722897932062010011013567+35237-120640FM-15+0063KSBP V0209999C000052200059N0112655N5+00565+00445101985ADDAA101000095GA1045+000305999GD12991+0003059GF104991999999999999999999MA1101965101215REMMET09901/10/10 05:56:02 METAR KSBP 101356Z 00000KT 7SM SCT001 06/04 A3011 RMK AO2 SLP198 T00560044 $ (LN)
0215722897932062010011014567+35237-120640FM-15+0063KSBP V0209999C000052200059N0160935N5+00445+00335102035ADDAA101000095GA1025+030485999GD11991+0304859GF102991999999999999999999MA1102035101275MD1590039+9999REMMET10601/10/10 06:56:02 METAR KSBP 101456Z 00000KT 10SM FEW100 04/03 A3013 RMK AO2 SLP203 T00440033 55003 $ (LN)
0196722897932062010011015567+35237-120640FM-15+0063KSBP V0209999C000052200059N0160935N5+00615+00565102005ADDAA101000095GF100991999999999999999999MA1102005101245REMMET09701/10/10 07:56:02 METAR KSBP 101556Z 00000KT 10SM CLR 06/06 A3012 RMK AO2 SLP200 T00610056 $ (LN)EQDQ01    099SCCGD1P01    003SCCGA1
0195722897932062010011016567+35237-120640FM-15+0063KSBP V0209999C000052200059N0160935N5+00945+00725102045ADDAA101000095GA1045+060965999GD12991+0609659GF104991999999999999999999MA1102035101275REMMET10001/10/10 08:56:02 METAR KSBP 101656Z 00000KT 10SM SCT200 09/07 A3013 RMK AO2 SLP204 T00940072 $ (LN)
0254722897932062010011017567+35237-120640FM-15+0063KSBP V0200705N002152200059N0160935N5+01395+00945102045ADDAA101000095GF100991999999999999999999KA1999M+01391KA2999N+00391MA1102035101275MD1390029+9999REMMET11501/10/10 09:56:02 METAR KSBP 101756Z 07004KT 10SM CLR 14/09 A3013 RMK AO2 SLP204 T01390094 10139 20039 53002 $ (LN)EQDQ01    099SCCGD1P01    003SCCGA1
0196722897932062010011018567+35237-120640FM-15+0063KSBP V0209999C000052200059N0160935N5+01835+01005102035ADDAA101000095GF100991999999999999999999MA1102035101275REMMET09701/10/10 10:56:02 METAR KSBP 101856Z 00000KT 10SM CLR 18/10 A3013 RMK AO2 SLP203 T01830100 $ (LN)EQDQ01    099SCCGD1P01    003SCCGA1
0196722897932062010011019567+35237-120640FM-15+0063KSBP V0203005N002652200059N0160935N5+02065+01175101915ADDAA101000095GF100991999999999999999999MA1101935101175REMMET09701/10/10 11:56:02 METAR KSBP 101956Z 30005KT 10SM CLR 21/12 A3010 RMK AO2 SLP191 T02060117 $ (LN)EQDQ01    099SCCGD1P01    003SCCGA1
0226722897932062010011020567+35237-120640FM-15+0063KSBP V0203205N008852200059N0160935N5+01835+01065101865ADDAA101000095GA1045+060965999GD12991+0609659GF104991999999999999999999MA1101865101105MD1890179+9999OC101245REMMET10901/10/10 12:56:02 METAR KSBP 102056Z 32017G24KT 10SM SCT200 18/11 A3008 RMK AO2 SLP186 T01830106 58017 $ (LN)
0196722897932062010011021567+35237-120640FM-15+0063KSBP V0203105N004152200059N0160935N5+01725+01115101865ADDAA101000095GF100991999999999999999999MA1101865101105REMMET09701/10/10 13:56:02 METAR KSBP 102156Z 31008KT 10SM CLR 17/11 A3008 RMK AO2 SLP186 T01720111 $ (LN)EQDQ01    099SCCGD1P01    003SCCGA1
0195722897932062010011022567+35237-120640FM-15+0063KSBP V0203305N00515060965MN0160935N5+01895+01005101885ADDAA101000095GA1075+060965999GD13991+0609659GF107991999999999999999999MA1101905101145REMMET10001/10/10 14:56:02 METAR KSBP 102256Z 33010KT 10SM BKN200 19/10 A3009 RMK AO2 SLP188 T01890100 $ (LN)
0253722897932062010011023567+35237-120640FM-15+0063KSBP V0203105N00365060965MN0160935N5+01785+00895101905ADDAA101000095GA1075+060965999GD13991+0609659GF107991999999999999999999KA1999M+02111KA2999N+01331MA1101905101145MD1390039+9999REMMET11801/10/10 15:56:02 METAR KSBP 102356Z 31007KT 10SM BKN200 18/09 A3009 RMK AO2 SLP190 T01780089 10211 20133 53003 $ (LN)
0191722897932062010011100567+35237-120640FM-15+0063KSBP V0203105N003652200059N0160935N5+01565+00895101925ADDAA101000095GF100991999999999999999999MA1101935101175REMMET09201/10/10 16:56:01 METAR KSBP 110056Z 31007KT 10SM CLR 16/09 A3010 RMK AO2 SLP192 T01560089 $EQDQ01    099SCCGD1P01    003SCCGA1
0190722897932062010011101567+35237-120640FM-15+0063KSBP V0203005N00215060965MN0160935N5+01395+01005101975ADDAA101000095GA1075+060965999GD13991+0609659GF107991999999999999999999MA1101965101215REMMET09501/10/10 17:56:02 METAR KSBP 110156Z 30004KT 10SM BKN200 14/10 A3011 RMK AO2 SLP197 T01390100 $
0209722897932062010011102567+35237-120640FM-15+0063KSBP V0209999C00005060965MN0144845N5+01225+00895102005ADDAA101000095GA1075+060965999GD13991+0609659GF107991999999999999999999MA1102005101245MD1390099+9999REMMET10001/10/10 18:56:01 METAR KSBP 110256Z 00000KT 9SM BKN200 12/09 A3012 RMK AO2 SLP200 T01220089 53009 $
0190722897932062010011103567+35237-120640FM-15+0063KSBP V0209999C000052200059N0144845N5+01065+00835102085ADDAA101000095GF100991999999999999999999MA1102075101315REMMET09101/10/10 19:56:01 METAR KSBP 110356Z 00000KT 9SM CLR 11/08 A3014 RMK AO2 SLP208 T01060083 $EQDQ01    099SCCGD1P01    003SCCGA1
0190722897932062010011104567+35237-120640FM-15+0063KSBP V0201205N001552200059N0144845N5+01065+00835102095ADDAA101000095GF100991999999999999999999MA1102105101345REMMET09101/10/10 20:56:02 METAR KSBP 110456Z 12003KT 9SM CLR 11/08 A3015 RMK AO2 SLP209 T01060083 $EQDQ01    099SCCGD1P01    003SCCGA1
0249722897932062010011105567+35237-120640FM-15+0063KSBP V0201205N002652200059N0160935N5+01005+00835102095ADDAA101000095GF100991999999999999999999KA1999M+01721KA2999N+01001MA1102105101345MD1190109+9999REMMET11001/10/10 21:56:02 METAR KSBP 110556Z 12005KT 10SM CLR 10/08 A3015 RMK AO2 SLP209 T01000083 10172 20100 51010 $EQDQ01    099SCCGD1P01    003SCCGA1
0191722897932062010011106567+35237-120640FM-15+0063KSBP V0201305N001552200059N0160935N5+00945+00785102095ADDAA101000095GF100991999999999999999999MA1102105101345REMMET09201/10/10 22:56:02 METAR KSBP 110656Z 13003KT 10SM CLR 09/08 A3015 RMK AO2 SLP209 T00940078 $EQDQ01    099SCCGD1P01    003SCCGA1
0201722897932062010011107567+35237-120640FM-15+0063KSBP V0201705N001552200059N0160935N5+00895+00785102095ADDAA101000095GF100991999999999999999999MA1102105101345REMMET10201/10/10 23:56:02 METAR KSBP 110756Z 17003KT 10SM CLR 09/08 A3015 RMK AO2 SLP209 T00890078 402110039 $EQDQ01    099SCCGD1P01    003SCCGA1
0912722897932062010011107596+35237-120640SOD  +0063KSBP V020999999999999999999999999999+99999+99999999999ADDAA124000095AX1015245KA1240M+02115KA2240N+00395MG1101244101864OE11240129632013125OE22240107332013135OE33240017099999995REMSOD74724 HR PRECIPITATION (IN):0.00  WEATHER(CODE):1  24 HR MAX TEMP (F):70 24 HR MAX TEMP TIME (LST):1238 24 HR MIN TEMP (F):39 24 HR MIN TEMP TIME (LST):0636 AVERAGE STATION PRESSURE:29.895 MINIMUM SEA LEVEL PRESSURE:30.08 TIME OF OCCURRENCE:1549 PEAK WIND SPEED (MPH):29  PEAK WIND DIR (DEG):320 PEAK WIND TIME (LST):1312  FASTEST 2MIN SPEED (MPH):24 FASTEST 2MIN DIR (DEG):320 FASTEST 2MIN TIME (LST):1313 AVERAGE WIND SPEED (MPH):3.8  24 HR AVG TEMP (F):55 HEATING DEGREE DAYS:10  COOLING DEGREE DAYS:0   LATEST DAY MAX TEMP (0700-1900 LST):70  LATEST NIGHT MIN TEMP(1900-0800 LST):39 HOURLY INCREMENTAL PRECIPITATION VALUES (IN):.00 0.00 0.00 0.00 0.00 0.00 0.00 0.00 0.00 0.00 0.00 0.00 0.00 0.00 0.00 0.00 0.00 0.00 0.00 0.00 0.00 0.00 0.00 0.00EQDR01     N7GJS072R02     N7GKS075
0211722897932062010011108567+35237-120640FM-15+0063KSBP V0200705N002652200059N0160935N5+00945+00835102065ADDAA101000095GF100991999999999999999999MA1102075101315MD1890029+9999REMMET09801/11/10 00:56:02 METAR KSBP 110856Z 07005KT 10SM CLR 09/08 A3014 RMK AO2 SLP206 T00940083 58002 $EQDQ01    099SCCGD1P01    003SCCGA1
0191722897932062010011109567+35237-120640FM-15+0063KSBP V02099999999992200059N0160935N5+00895+00725102065ADDAA101000095GF100991999999999999999999MA1102075101315REMMET09201/11/10 01:56:02 METAR KSBP 110956Z      KT 10SM CLR 09/07 A3014 RMK AO2 SLP206 T00890072 $EQDQ01    099SCCGD1P01    003SCCGA1
0191722897932062010011110567+35237-120640FM-15+0063KSBP V0209999C000052200059N0160935N5+00785+00615102025ADDAA101000095GF100991999999999999999999MA1102035101275REMMET09201/11/10 02:56:02 METAR KSBP 111056Z 00000KT 10SM CLR 08/06 A3013 RMK AO2 SLP202 T00780061 $EQDQ01    099SCCGD1P01    003SCCGA1
0249722897932062010011111567+35237-120640FM-15+0063KSBP V0209999C000052200059N0160935N5+00725+00615102005ADDAA101000095GF100991999999999999999999KA1999M+01061KA2999N+00721MA1102005101245MD1890079+9999REMMET11001/11/10 03:56:02 METAR KSBP 111156Z 00000KT 10SM CLR 07/06 A3012 RMK AO2 SLP200 T00720061 10106 20072 58007 $EQDQ01    099SCCGD1P01    003SCCGA1
0191722897932062010011112567+35237-120640FM-15+0063KSBP V02099999999992200059N0160935N5+00725+00615102005ADDAA101000095GF100991999999999999999999MA1102005101245REMMET09201/11/10 04:56:02 METAR KSBP 111256Z      KT 10SM CLR 07/06 A3012 RMK AO2 SLP200 T00720061 $EQDQ01    099SCCGD1P01    003SCCGA1
0196722897932062010011113567+35237-120640FM-15+0063KSBP V0209999V001552200059N0160935N5+00675+00565102015ADDAA101000095GF100991999999999999999999MA1102005101245REMMET09701/11/10 05:56:02 METAR KSBP 111356Z VRB03KT 10SM CLR 07/06 A3012 RMK AO2 SLP201 T00670056 $ (MY)EQDQ01    099SCCGD1P01    003SCCGA1
0216722897932062010011114567+35237-120640FM-15+0063KSBP V0209999C000052200059N0160935N5+00675+00505102025ADDAA101000095GF100991999999999999999999MA1102035101275MD1390019+9999REMMET10301/11/10 06:56:02 METAR KSBP 111456Z 00000KT 10SM CLR 07/05 A3013 RMK AO2 SLP202 T00670050 53001 $ (MY)EQDQ01    099SCCGD1P01    003SCCGA1
0194722897932062010011115567+35237-120640FM-15+0063KSBP V0209999C000052200059N0160935N5+00835+00675102055ADDAA101000095GF100991999999999999999999MA1102035101275REMMET09501/11/10 07:56:02 METAR KSBP 111556Z 00000KT 10SM CLR 08/07 A3013 RMK AO2 SLP205 T00830067 (MY)EQDQ01    099SCCGD1P01    003SCCGA1
0194722897932062010011116567+35237-120640FM-15+0063KSBP V0209999C000052200059N0160935N5+01005+00785102085ADDAA101000095GF100991999999999999999999MA1102075101315REMMET09501/11/10 08:56:02 METAR KSBP 111656Z 00000KT 10SM CLR 10/08 A3014 RMK AO2 SLP208 T01000078 (MY)EQDQ01    099SCCGD1P01    003SCCGA1
0252722897932062010011117567+35237-120640FM-15+0063KSBP V0209999C000052200059N0160935N5+01505+00895102075ADDAA101000095GF100991999999999999999999KA1999M+01501KA2999N+00611MA1102075101315MD1190069+9999REMMET11301/11/10 09:56:02 METAR KSBP 111756Z 00000KT 10SM CLR 15/09 A3014 RMK AO2 SLP207 T01500089 10150 20061 51006 (MY)EQDQ01    099SCCGD1P01    003SCCGA1
0194722897932062010011118567+35237-120640FM-15+0063KSBP V0209999C000052200059N0160935N5+01895+00785102055ADDAA101000095GF100991999999999999999999MA1102075101315REMMET09501/11/10 10:56:02 METAR KSBP 111856Z 00000KT 10SM CLR 19/08 A3014 RMK AO2 SLP205 T01890078 (WO)EQDQ01    099SCCGD1P01    003SCCGA1
0194722897932062010011119567+35237-120640FM-15+0063KSBP V0202705N001552200059N0160935N5+02176+00835101945ADDAA101000095GF100991999999999999999999MA1101965101215REMMET09501/11/10 11:56:02 METAR KSBP 111956Z 27003KT 10SM CLR 22/08 A3011 RMK AO2 SLP194 T02170083 (WO)EQDQ01    099SCCGD1P01    003SCCGA1
0214722897932062010011120567+35237-120640FM-15+0063KSBP V0203205N003652200059N0160935N5+01945+01065101855ADDAA101000095GF100991999999999999999999MA1101865101105MD1890229+9999REMMET10101/11/10 12:56:02 METAR KSBP 112056Z 32007KT 10SM CLR 19/11 A3008 RMK AO2 SLP185 T01940106 58022 (WO)EQDQ01    099SCCGD1P01    003SCCGA1
0194722897932062010011121567+35237-120640FM-15+0063KSBP V0203005N002652200059N0160935N5+02005+01005101815ADDAA101000095GF100991999999999999999999MA1101835101075REMMET09501/11/10 13:56:02 METAR KSBP 112156Z 30005KT 10SM CLR 20/10 A3007 RMK AO2 SLP181 T02000100 (WO)EQDQ01    099SCCGD1P01    003SCCGA1
0194722897932062010011122567+35237-120640FM-15+0063KSBP V0202405N001552200059N0160935N5+02005+00835101815ADDAA101000095GF100991999999999999999999MA1101835101075REMMET09501/11/10 14:56:02 METAR KSBP 112256Z 24003KT 10SM CLR 20/08 A3007 RMK AO2 SLP181 T02000083 (WO)EQDQ01    099SCCGD1P01    003SCCGA1
0251722897932062010011123567+35237-120640FM-15+0063KSBP V0202605N00265060965MN0160935N5+01835+00725101825ADDAA101000095GA1075+060965999GD13991+0609659GF107991999999999999999999KA1999M+02221KA2999N+01501MA1101835101075MD1590039+9999REMMET11601/11/10 15:56:02 METAR KSBP 112356Z 26005KT 10SM BKN200 18/07 A3007 RMK AO2 SLP182 T01830072 10222 20150 55003 (WO)
0188722897932062010011200567+35237-120640FM-15+0063KSBP V0200705N00155060965MN0160935N5+01725+00725101845ADDAA101000095GA1075+060965999GD13991+0609659GF107991999999999999999999MA1101865101105REMMET09301/11/10 16:56:02 METAR KSBP 120056Z 07003KT 10SM BKN200 17/07 A3008 RMK AO2 SLP184 T01720072
0188722897932062010011201567+35237-120640FM-15+0063KSBP V0209999C00005060965MN0160935N5+01445+00725101875ADDAA101000095GA1075+060965999GD13991+0609659GF107991999999999999999999MA1101865101105REMMET09301/11/10 17:56:01 METAR KSBP 120156Z 00000KT 10SM BKN200 14/07 A3008 RMK AO2 SLP187 T01440072
0207722897932062010011202567+35237-120640FM-15+0063KSBP V0209999C00005060965MN0144845N5+01335+00785101935ADDAA101000095GA1075+060965999GD13991+0609659GF107991999999999999999999MA1101935101175MD1390099+9999REMMET09801/11/10 18:56:02 METAR KSBP 120256Z 00000KT 9SM BKN200 13/08 A3010 RMK AO2 SLP193 T01330078 53009
0188722897932062010011203567+35237-120640FM-15+0063KSBP V0209999C00005060965MN0160935N5+01115+00785101955ADDAA101000095GA1075+060965999GD13991+0609659GF107991999999999999999999MA1101935101175REMMET09301/11/10 19:56:02 METAR KSBP 120356Z 00000KT 10SM BKN200 11/08 A3010 RMK AO2 SLP195 T01110078
0189722897932062010011204567+35237-120640FM-15+0063KSBP V0200905N002152200059N0160935N5+01005+00895101955ADDAA101000095GF100991999999999999999999MA1101935101175REMMET09001/11/10 20:56:02 METAR KSBP 120456Z 09004KT 10SM CLR 10/09 A3010 RMK AO2 SLP195 T01000089EQDQ01    099SCCGD1P01    003SCCGA1
0247722897932062010011205567+35237-120640FM-15+0063KSBP V0209999C000052200059N0160935N5+00895+00785101965ADDAA101000095GF100991999999999999999999KA1999M+01831KA2999N+00891MA1101965101215MD1390049+9999REMMET10801/11/10 21:56:02 METAR KSBP 120556Z 00000KT 10SM CLR 09/08 A3011 RMK AO2 SLP196 T00890078 10183 20089 53004EQDQ01    099SCCGD1P01    003SCCGA1
0194722897932062010011206517+35237-120640FM-16+0063KSBP V0209999C000052200059N0024145V5+00805+00705999999ADDAU100001015AW1105GF100991999999999999999999MA1102005101245REMMET08901/11/10 22:51:02 SPECI KSBP 120651Z 00000KT 1 1/2SM BR CLR 08/07 A3012 RMK AO2 VIS 1/2V5EQDQ01    099SCCGD1P01    003SCCGA1
