0192722868931382010010100537+33828-116500FM-15+0137KPSP V0209999C000052200059N0160935N5+01785-00285102675ADDAA101000095GF100991999999999999999999MA1102685101025REMMET09312/31/09 16:53:01 METAR KPSP 010053Z 00000KT 10SM CLR 18/M03 A3032 RMK AO2 SLP267 T01781028 $EQDQ01    099SCCGD1P01    003SCCGA1
0192722868931382010010101537+33828-116500FM-15+0137KPSP V0209999C000052200059N0160935N5+01565-00115102715ADDAA101000095GF100991999999999999999999MA1102715101055REMMET09312/31/09 17:53:01 METAR KPSP 010153Z 00000KT 10SM CLR 16/M01 A3033 RMK AO2 SLP271 T01561011 $EQDQ01    099SCCGD1P01    003SCCGA1
0212722868931382010010102537+33828-116500FM-15+0137KPSP V0203105N001552200059N0160935N5+01445-00115102765ADDAA101000095GF100991999999999999999999MA1102785101125MD1190159+9999REMMET09912/31/09 18:53:01 METAR KPSP 010253Z 31003KT 10SM CLR 14/M01 A3035 RMK AO2 SLP276 T01441011 51015 $EQDQ01    099SCCGD1P01    003SCCGA1
0191722868931382010010103537+33828-116500FM-15+0137KPSP V0209999C00005060965MN0160935N5+01445-00175102795ADDAA101000095GA1075+060965999GD13991+0609659GF107991999999999999999999MA1102785101125REMMET09612/31/09 19:53:02 METAR KPSP 010353Z 00000KT 10SM BKN200 14/M02 A3035 RMK AO2 SLP279 T01441017 $
0191722868931382010010104537+33828-116500FM-15+0137KPSP V0209999C00005060965MN0160935N5+01225-00065102815ADDAA101000095GA1075+060965999GD13991+0609659GF107991999999999999999999MA1102815101165REMMET09612/31/09 20:53:01 METAR KPSP 010453Z 00000KT 10SM BKN200 12/M01 A3036 RMK AO2 SLP281 T01221006 $
0249722868931382010010105537+33828-116500FM-15+0137KPSP V0203105N00315060965MN0160935N5+01225-00225102845ADDAA101000095GA1075+060965999GD13991+0609659GF107991999999999999999999KA1999M+01941KA2999N+01111MA1102845101195MD1390089+9999REMMET11412/31/09 21:53:02 METAR KPSP 010553Z 31006KT 10SM BKN200 12/M02 A3037 RMK AO2 SLP284 T01221022 10194 20111 53008 $
0197722868931382010010106537+33828-116500FM-15+0137KPSP V0203105N002152200059N0160935N5+01175-00225102825ADDAA101000095GF100991999999999999999999MA1102815101165REMMET09812/31/09 22:53:02 METAR KPSP 010653Z 31004KT 10SM CLR 12/M02 A3036 RMK AO2 SLP282 T01171022 TSNO $EQDQ01    099SCCGD1P01    003SCCGA1
0206722868931382010010107537+33828-116500FM-15+0137KPSP V0202805N001552200059N0160935N5+01115-00115102775ADDAA101000095GA1025+027435999GD11991+0274359GF102991999999999999999999MA1102785101125REMMET11112/31/09 23:53:02 METAR KPSP 010753Z 28003KT 10SM FEW090 11/M01 A3035 RMK AO2 SLP277 T01111011 402000089 TSNO $
0910722868931382010010107596+33828-116500SOD  +0137KPSP V020999999999999999999999999999+99999+99999999999ADDAA124000095KA1240M+02005KA2240N+00895MG1101054102374OE11240089436023585OE22240062636023595OE33240018399999995REMSOD75424 HR PRECIPITATION (IN):0.00  24 HR MAX TEMP (F):68 24 HR MAX TEMP TIME (LST):1323 24 HR MIN TEMP (F):48 24 HR MIN TEMP TIME (LST):2313 AVERAGE STATION PRESSURE:29.840 MINIMUM SEA LEVEL PRESSURE:30.23 TIME OF OCCURRENCE:0101 PEAK WIND SPEED (MPH):20  PEAK WIND DIR (DEG):360 PEAK WIND TIME (LST):2358  FASTEST 2MIN SPEED (MPH):14 FASTEST 2MIN DIR (DEG):360 FASTEST 2MIN TIME (LST):2359 AVERAGE WIND SPEED (MPH):4.1  24 HR AVG TEMP (F):58 DEPART FROM NORMAL: +2  HEATING DEGREE DAYS:7   COOLING DEGREE DAYS:0   LATEST DAY MAX TEMP (0700-1900 LST):68  LATEST NIGHT MIN TEMP(1900-0800 LST):49 HOURLY INCREMENTAL PRECIPITATION VALUES (IN):.00 0.00 0.00 0.00 0.00 0.00 0.00 0.00 0.00 0.00 0.00 0.00 0.00 0.00 0.00 0.00 0.00 0.00 0.00 0.00 0.00 0.00 0.00 0.00EQDR01     N7GJS072R02     N7GKS075
1279722868931382010010107596+33828-116500SOM  +0137KPSP V020999999999999999999999999999+99999+99999999999ADDAB10032396AD10028490707999999995AE1045025015015AH1005000890716245AH2010001590716245AH3015002090716275AH4020002590716275AH5030003890715055AH6045005690715145AI1060007190715175AI2080008990715415AI3100010790715455AI4120012490716275AI5150015290716275AI6180017590716315KB1744N+06835KB2744M+19445KB3744A+13175KC1N9+00382726085KC2M9+02771899995KD1744H02835KD2744C00025KE1006005005005MH1100024101664MK1102953110235099630717175REMSOM815PCP MTOT:1.27 DEPNRM:+1.0 PCP GT 24HRS:1.12 DATE(S):7 DAYS W/PCP >=.01:4  DAYS W/PCP >=.10:2  DAYS W/ PCP >=.50:1 DAYS W/PCP >=1.00:1 MSDP AMTS W/DATE-TIME TAGS:MIN:5 0.03  07/1624 MIN:10 0.06  07/1624 MIN:15 0.08  07/1627 MIN:20 0.10  07/1627 MIN:30 0.15  07/1505 MIN:45 0.22  07/1514 MIN:60 0.28  07/1517 MIN:80 0.35  07/1541 MIN:100 0.42  07/1545 MIN:120 0.49  07/1627 MIN:150 0.60  07/1627 MIN:180 0.69  07/1631 AVG DLY MIN:44.3  AVG DLY MAX:67.0  AVG MLY TMP:55.7  DEP NORM:-1.0  MIN TMP:39 DATE(S):27 26 08 MAX TMP:82  DATE(S):18 DAYS MAX <=32:0 DAYS MAX >=90:0  DAYS MIN <=32:0  DAYS MIN  <=0:0  AVG STP:29.535 LWST SLP:29.42 DATE/TIME:071717 HGST SLP:30.40 DATE/TIME:311023 HDD MTH TOT:283 DEP NORM:+10 SEASON(JUL 1-JUN 30):334 DEP NORM:-59 CDD MTH TOT:2 DEP NORM:-14 SEASON(JAN 1-DEC 31):4397 DEP NORM:+173EQDR01  1.277ABP070R02     07KE1032
0216722868931382010010108537+33828-116500FM-15+0137KPSP V0203305N001552200059N0160935N5+01005-00175102735ADDAA101000095GA1025+027435999GD11991+0274359GF102991999999999999999999MA1102745101095MD1890109+9999REMMET10701/01/10 00:53:02 METAR KPSP 010853Z 33003KT 10SM FEW090 10/M02 A3034 RMK AO2 SLP273 T01001017 58010 TSNO $
0196722868931382010010109537+33828-116500FM-15+0137KPSP V0203205N002152200059N0160935N5+00835+00005102705ADDAA101000095GF100991999999999999999999MA1102715101055REMMET09701/01/10 01:53:02 METAR KPSP 010953Z 32004KT 10SM CLR 08/00 A3033 RMK AO2 SLP270 T00830000 TSNO $EQDQ01    099SCCGD1P01    003SCCGA1
0196722868931382010010110537+33828-116500FM-15+0137KPSP V0203305N002652200059N0160935N5+00895-00175102675ADDAA101000095GA1025+027435999GD11991+0274359GF102991999999999999999999MA1102685101025REMMET10101/01/10 02:53:02 METAR KPSP 011053Z 33005KT 10SM FEW090 09/M02 A3032 RMK AO2 SLP267 T00891017 TSNO $
0254722868931382010010111537+33828-116500FM-15+0137KPSP V0203305N002652200059N0160935N5+00835-00175102615ADDAA101000095GA1025+027435999GD11991+0274359GF102991999999999999999999KA1999M+01221KA2999N+00831MA1102615100955MD1890129+9999REMMET11901/01/10 03:53:02 METAR KPSP 011153Z 33005KT 10SM FEW090 08/M02 A3030 RMK AO2 SLP261 T00831017 10122 20083 58012 TSNO $
0196722868931382010010112537+33828-116500FM-15+0137KPSP V0203205N002652200059N0160935N5+00895-00445102585ADDAA101000095GA1025+028965999GD11991+0289659GF102991999999999999999999MA1102575100925REMMET10101/01/10 04:53:02 METAR KPSP 011253Z 32005KT 10SM FEW095 09/M04 A3029 RMK AO2 SLP258 T00891044 TSNO $
0196722868931382010010113537+33828-116500FM-15+0137KPSP V0209999C000052200059N0160935N5+00675-00175102625ADDAA101000095GA1025+027435999GD11991+0274359GF102991999999999999999999MA1102615100955REMMET10101/01/10 05:53:02 METAR KPSP 011353Z 00000KT 10SM FEW090 07/M02 A3030 RMK AO2 SLP262 T00671017 TSNO $
0217722868931382010010114537+33828-116500FM-15+0137KPSP V0209999C000052200059N0160935N5+00725-00175102645ADDAA101000095GF100991999999999999999999MA1102615100955MD1390019+9999REMMET10401/01/10 06:53:02 METAR KPSP 011453Z 00000KT 10SM CLR 07/M02 A3030 RMK AO2 SLP264 T00721017 53001 $ (CO)EQDQ01    099SCCGD1P01    003SCCGA1
0197722868931382010010115537+33828-116500FM-15+0137KPSP V0203405N002152200059N0160935N5+00895-00175102635ADDAA101000095GF100991999999999999999999MA1102615100955REMMET09801/01/10 07:53:02 METAR KPSP 011553Z 34004KT 10SM CLR 09/M02 A3030 RMK AO2 SLP263 T00891017 $ (CO)EQDQ01    099SCCGD1P01    003SCCGA1
0197722868931382010010116537+33828-116500FM-15+0137KPSP V0209999C000052200059N0160935N5+01335-00445102665ADDAA101000095GF100991999999999999999999MA1102645100995REMMET09801/01/10 08:53:02 METAR KPSP 011653Z 00000KT 10SM CLR 13/M04 A3031 RMK AO2 SLP266 T01331044 $ (CO)EQDQ01    099SCCGD1P01    003SCCGA1
0254722868931382010010117537+33828-116500FM-15+0137KPSP V0209999C000052200059N0160935N5+01615-00335102655ADDAA101000095GA1045+076205999GD12991+0762059GF104991999999999999999999KA1999M+01611KA2999N+00611MA1102645100995MD1390029+9999REMMET11901/01/10 09:53:02 METAR KPSP 011753Z 00000KT 10SM SCT250 16/M03 A3031 RMK AO2 SLP265 T01611033 10161 20061 53002 $ (JB)
0196722868931382010010118537+33828-116500FM-15+0137KPSP V0209999C000052200059N0160935N5+01785-00615102545ADDAA101000095GA1045+076205999GD12991+0762059GF104991999999999999999999MA1102545100895REMMET10101/01/10 10:53:02 METAR KPSP 011853Z 00000KT 10SM SCT250 18/M06 A3028 RMK AO2 SLP254 T01781061 $ (JB)
0197722868931382010010119537+33828-116500FM-15+0137KPSP V0209999C000052200059N0160935N5+01895-00675102405ADDAA101000095GF100991999999999999999999MA1102405100755REMMET09801/01/10 11:53:02 METAR KPSP 011953Z 00000KT 10SM CLR 19/M07 A3024 RMK AO2 SLP240 T01891067 $ (MD)EQDQ01    099SCCGD1P01    003SCCGA1
0216722868931382010010120537+33828-116500FM-15+0137KPSP V0209999C00005060965MN0160935N5+02005-00615102235ADDAA101000095GA1075+060965999GD13991+0609659GF107991999999999999999999MA1102245100595MD1890419+9999REMMET10701/01/10 12:53:02 METAR KPSP 012053Z 00000KT 10SM BKN200 20/M06 A3019 RMK AO2 SLP223 T02001061 58041 $ (JB)
0196722868931382010010121537+33828-116500FM-15+0137KPSP V0200905N00155060965MN0160935N5+02005-00565102155ADDAA101000095GA1075+060965999GD13991+0609659GF107991999999999999999999MA1102135100495REMMET10101/01/10 13:53:02 METAR KPSP 012153Z 09003KT 10SM BKN200 20/M06 A3016 RMK AO2 SLP215 T02001056 $ (JB)
0196722868931382010010122537+33828-116500FM-15+0137KPSP V0209999C00005060965MN0160935N5+01945-00565102115ADDAA101000095GA1075+060965999GD13991+0609659GF107991999999999999999999MA1102105100455REMMET10101/01/10 14:53:02 METAR KPSP 012253Z 00000KT 10SM BKN200 19/M06 A3015 RMK AO2 SLP211 T01941056 $ (JB)
0254722868931382010010123537+33828-116500FM-15+0137KPSP V0209999C00005054865MN0160935N5+01945-00565102115ADDAA101000095GA1075+054865999GD13991+0548659GF107991999999999999999999KA1999M+02061KA2999N+01611MA1102105100455MD1690129+9999REMMET11901/01/10 15:53:02 METAR KPSP 012353Z 00000KT 10SM BKN180 19/M06 A3015 RMK AO2 SLP211 T01941056 10206 20161 56012 $ (JB)
0192722868931382010010200537+33828-116500FM-15+0137KPSP V0209999C000052200059N0160935N5+01725-00175102085ADDAA101000095GF100991999999999999999999MA1102075100425REMMET09301/01/10 16:53:02 METAR KPSP 020053Z 00000KT 10SM CLR 17/M02 A3014 RMK AO2 SLP208 T01721017 $EQDQ01    099SCCGD1P01    003SCCGA1
0192722868931382010010201537+33828-116500FM-15+0137KPSP V0209999C000052200059N0160935N5+01615-00115102075ADDAA101000095GF100991999999999999999999MA1102075100425REMMET09301/01/10 17:53:02 METAR KPSP 020153Z 00000KT 10SM CLR 16/M01 A3014 RMK AO2 SLP207 T01611011 $EQDQ01    099SCCGD1P01    003SCCGA1
0212722868931382010010202537+33828-116500FM-15+0137KPSP V0203205N002152200059N0160935N5+01505-00225102065ADDAA101000095GF100991999999999999999999MA1102035100395MD1690069+9999REMMET09901/01/10 18:53:02 METAR KPSP 020253Z 32004KT 10SM CLR 15/M02 A3013 RMK AO2 SLP206 T01501022 56006 $EQDQ01    099SCCGD1P01    003SCCGA1
0192722868931382010010203537+33828-116500FM-15+0137KPSP V0203205N002652200059N0160935N5+01395-00225102065ADDAA101000095GF100991999999999999999999MA1102035100395REMMET09301/01/10 19:53:01 METAR KPSP 020353Z 32005KT 10SM CLR 14/M02 A3013 RMK AO2 SLP206 T01391022 $EQDQ01    099SCCGD1P01    003SCCGA1
0191722868931382010010204537+33828-116500FM-15+0137KPSP V0203105N001552200059N0160935N5+01335-00175102035ADDAA101000095GA1025+027435999GD11991+0274359GF102991999999999999999999MA1102035100395REMMET09601/01/10 20:53:01 METAR KPSP 020453Z 31003KT 10SM FEW090 13/M02 A3013 RMK AO2 SLP203 T01331017 $
0254722868931382010010205537+33828-116500FM-15+0137KPSP V0203205N00265054865MN0160935N5+01225-00175102025ADDAA101000095GA1075+054865999GD13991+0548659GF107991999999999999999999KA1999M+01941KA2999N+01171MA1102035100395MD1890039+9999REMMET11901/01/10 21:53:02 METAR KPSP 020553Z 32005KT 10SM BKN180 12/M02 A3013 RMK AO2 SLP202 T01221017 10194 20117 58003 TSNO $
0191722868931382010010206537+33828-116500FM-15+0137KPSP V0209999C000052200059N0160935N5+00945+00115102075ADDAA101000095GF100991999999999999999999MA1102075100425REMMET09201/01/10 22:53:02 METAR KPSP 020653Z 00000KT 10SM CLR 09/01 A3014 RMK AO2 SLP207 T00940011 $EQDQ01    099SCCGD1P01    003SCCGA1
0201722868931382010010207537+33828-116500FM-15+0137KPSP V0203205N002152200059N0160935N5+01115-00175102075ADDAA101000095GA1025+027435999GD11991+0274359GF102991999999999999999999MA1102075100425REMMET10601/01/10 23:53:02 METAR KPSP 020753Z 32004KT 10SM FEW090 11/M02 A3014 RMK AO2 SLP207 T01111017 402060061 $
0910722868931382010010207596+33828-116500SOD  +0137KPSP V020999999999999999999999999999+99999+99999999999ADDAA124000095KA1240M+02065KA2240N+00615MG1100684102004OE11240044732018425OE22240040232018435OE33240010799999995REMSOD75424 HR PRECIPITATION (IN):0.00  24 HR MAX TEMP (F):69 24 HR MAX TEMP TIME (LST):1320 24 HR MIN TEMP (F):43 24 HR MIN TEMP TIME (LST):0604 AVERAGE STATION PRESSURE:29.730 MINIMUM SEA LEVEL PRESSURE:30.12 TIME OF OCCURRENCE:2127 PEAK WIND SPEED (MPH):10  PEAK WIND DIR (DEG):320 PEAK WIND TIME (LST):1842  FASTEST 2MIN SPEED (MPH):9  FASTEST 2MIN DIR (DEG):320 FASTEST 2MIN TIME (LST):1843 AVERAGE WIND SPEED (MPH):2.4  24 HR AVG TEMP (F):56 DEPART FROM NORMAL: 0   HEATING DEGREE DAYS:9   COOLING DEGREE DAYS:0   LATEST DAY MAX TEMP (0700-1900 LST):69  LATEST NIGHT MIN TEMP(1900-0800 LST):43 HOURLY INCREMENTAL PRECIPITATION VALUES (IN):.00 0.00 0.00 0.00 0.00 0.00 0.00 0.00 0.00 0.00 0.00 0.00 0.00 0.00 0.00 0.00 0.00 0.00 0.00 0.00 0.00 0.00 0.00 0.00EQDR01     N7GJS072R02     N7GKS075
0211722868931382010010208537+33828-116500FM-15+0137KPSP V0203505N002152200059N0160935N5+00945-00115102005ADDAA101000095GA1025+028965999GD11991+0289659GF102991999999999999999999MA1102005100355MD1890029+9999REMMET10201/02/10 00:53:02 METAR KPSP 020853Z 35004KT 10SM FEW095 09/M01 A3012 RMK AO2 SLP200 T00941011 58002 $
0191722868931382010010209537+33828-116500FM-15+0137KPSP V0203205N003652200059N0160935N5+01005-00285101975ADDAA101000095GA1025+028965999GD11991+0289659GF102991999999999999999999MA1101965100325REMMET09601/02/10 01:53:02 METAR KPSP 020953Z 32007KT 10SM FEW095 10/M03 A3011 RMK AO2 SLP197 T01001028 $
0191722868931382010010210537+33828-116500FM-15+0137KPSP V0203105N002652200059N0160935N5+00945-00225101965ADDAA101000095GA1025+027435999GD11991+0274359GF102991999999999999999999MA1101965100325REMMET09601/02/10 02:53:02 METAR KPSP 021053Z 31005KT 10SM FEW090 09/M02 A3011 RMK AO2 SLP196 T00941022 $
0249722868931382010010211537+33828-116500FM-15+0137KPSP V0203305N002652200059N0160935N5+00835-00175101935ADDAA101000095GA1025+028965999GD11991+0289659GF102991999999999999999999KA1999M+01221KA2999N+00721MA1101935100295MD1890069+9999REMMET11401/02/10 03:53:02 METAR KPSP 021153Z 33005KT 10SM FEW095 08/M02 A3010 RMK AO2 SLP193 T00831017 10122 20072 58006 $
0191722868931382010010212537+33828-116500FM-15+0137KPSP V0209999V001552200059N0160935N5+00895-00285101945ADDAA101000095GA1025+028965999GD11991+0289659GF102991999999999999999999MA1101935100295REMMET09601/02/10 04:53:02 METAR KPSP 021253Z VRB03KT 10SM FEW095 09/M03 A3010 RMK AO2 SLP194 T00891028 $
0196722868931382010010213537+33828-116500FM-15+0137KPSP V0203305N003652200059N0160935N5+00785-00175102015ADDAA101000095GA1025+027435999GD11991+0274359GF102991999999999999999999MA1102005100355REMMET10101/02/10 05:53:02 METAR KPSP 021353Z 33007KT 10SM FEW090 08/M02 A3012 RMK AO2 SLP201 T00781017 $ (LB)
0217722868931382010010214537+33828-116500FM-15+0137KPSP V0203205N001552200059N0160935N5+00785-00175102045ADDAA101000095GF100991999999999999999999MA1102035100395MD1390109+9999REMMET10401/02/10 06:53:02 METAR KPSP 021453Z 32003KT 10SM CLR 08/M02 A3013 RMK AO2 SLP204 T00781017 53010 $ (LB)EQDQ01    099SCCGD1P01    003SCCGA1
0197722868931382010010215537+33828-116500FM-15+0137KPSP V0209999C000052200059N0160935N5+01005-00115102055ADDAA101000095GF100991999999999999999999MA1102035100395REMMET09801/02/10 07:53:02 METAR KPSP 021553Z 00000KT 10SM CLR 10/M01 A3013 RMK AO2 SLP205 T01001011 $ (LB)EQDQ01    099SCCGD1P01    003SCCGA1
0196722868931382010010216537+33828-116500FM-15+0137KPSP V0202505N001552200059N0160935N5+01285+00065102065ADDAA101000095GF100991999999999999999999MA1102075100425REMMET09701/02/10 08:53:02 METAR KPSP 021653Z 25003KT 10SM CLR 13/01 A3014 RMK AO2 SLP206 T01280006 $ (LB)EQDQ01    099SCCGD1P01    003SCCGA1
0254722868931382010010217537+33828-116500FM-15+0137KPSP V0202005N001552200059N0160935N5+01725+00005102075ADDAA101000095GF100991999999999999999999KA1999M+01721KA2999N+00561MA1102075100425MD1190039+9999REMMET11501/02/10 09:53:02 METAR KPSP 021753Z 20003KT 10SM CLR 17/00 A3014 RMK AO2 SLP207 T01720000 10172 20056 51003 $ (LB)EQDQ01    099SCCGD1P01    003SCCGA1
0197722868931382010010218537+33828-116500FM-15+0137KPSP V0201105N002152200059N0160935N5+02005-00395102025ADDAA101000095GF100991999999999999999999MA1102035100395REMMET09801/02/10 10:53:02 METAR KPSP 021853Z 11004KT 10SM CLR 20/M04 A3013 RMK AO2 SLP202 T02001039 $ (LB)EQDQ01    099SCCGD1P01    003SCCGA1
0197722868931382010010219537+33828-116500FM-15+0137KPSP V0200905N002152200059N0160935N5+02175-00225101885ADDAA101000095GF100991999999999999999999MA1101905100255REMMET09801/02/10 11:53:02 METAR KPSP 021953Z 09004KT 10SM CLR 22/M02 A3009 RMK AO2 SLP188 T02171022 $ (LB)EQDQ01    099SCCGD1P01    003SCCGA1
0217722868931382010010220537+33828-116500FM-15+0137KPSP V0201105N002652200059N0160935N5+02285-00175101785ADDAA101000095GF100991999999999999999999MA1101795100155MD1890289+9999REMMET10401/02/10 12:53:02 METAR KPSP 022053Z 11005KT 10SM CLR 23/M02 A3006 RMK AO2 SLP178 T02281017 58028 $ (LB)EQDQ01    099SCCGD1P01    003SCCGA1
0196722868931382010010221537+33828-116500FM-15+0137KPSP V0201105N003152200059N0160935N5+02285+00005101725ADDAA101000095GF100991999999999999999999MA1101735100095REMMET09701/02/10 13:53:02 METAR KPSP 022153Z 11006KT 10SM CLR 23/00 A3004 RMK AO2 SLP172 T02280000 $ (LB)EQDQ01    099SCCGD1P01    003SCCGA1
0197722868931382010010222537+33828-116500FM-15+0137KPSP V0201005N003652200059N0160935N5+02285-00065101715ADDAA101000095GF100991999999999999999999MA1101735100095REMMET09801/02/10 14:53:02 METAR KPSP 022253Z 10007KT 10SM CLR 23/M01 A3004 RMK AO2 SLP171 T02281006 $ (CZ)EQDQ01    099SCCGD1P01    003SCCGA1
0255722868931382010010223537+33828-116500FM-15+0137KPSP V0201305N002652200059N0160935N5+02175-00225101745ADDAA101000095GF100991999999999999999999KA1999M+02331KA2999N+01721MA1101735100095MD1590049+9999REMMET11601/02/10 15:53:02 METAR KPSP 022353Z 13005KT 10SM CLR 22/M02 A3004 RMK AO2 SLP174 T02171022 10233 20172 55004 $ (CZ)EQDQ01    099SCCGD1P01    003SCCGA1
0191722868931382010010300537+33828-116500FM-15+0137KPSP V0209999C000052200059N0160935N5+02005+00005101775ADDAA101000095GF100991999999999999999999MA1101765100125REMMET09201/02/10 16:53:01 METAR KPSP 030053Z 00000KT 10SM CLR 20/00 A3005 RMK AO2 SLP177 T02000000 $EQDQ01    099SCCGD1P01    003SCCGA1
0191722868931382010010301537+33828-116500FM-15+0137KPSP V0203305N003652200059N0160935N5+01615+00285101855ADDAA101000095GF100991999999999999999999MA1101835100195REMMET09201/02/10 17:53:02 METAR KPSP 030153Z 33007KT 10SM CLR 16/03 A3007 RMK AO2 SLP185 T01610028 $EQDQ01    099SCCGD1P01    003SCCGA1
0211722868931382010010302537+33828-116500FM-15+0137KPSP V0203005N002152200059N0160935N5+01505+00065101875ADDAA101000095GF100991999999999999999999MA1101865100225MD1190129+9999REMMET09801/02/10 18:53:02 METAR KPSP 030253Z 30004KT 10SM CLR 15/01 A3008 RMK AO2 SLP187 T01500006 51012 $EQDQ01    099SCCGD1P01    003SCCGA1
0191722868931382010010303537+33828-116500FM-15+0137KPSP V0203205N003152200059N0160935N5+01445+00005101915ADDAA101000095GF100991999999999999999999MA1101905100255REMMET09201/02/10 19:53:02 METAR KPSP 030353Z 32006KT 10SM CLR 14/00 A3009 RMK AO2 SLP191 T01440000 $EQDQ01    099SCCGD1P01    003SCCGA1
0192722868931382010010304537+33828-116500FM-15+0137KPSP V0203105N003152200059N0160935N5+01445-00285101935ADDAA101000095GF100991999999999999999999MA1101935100295REMMET09301/02/10 20:53:02 METAR KPSP 030453Z 31006KT 10SM CLR 14/M03 A3010 RMK AO2 SLP193 T01441028 $EQDQ01    099SCCGD1P01    003SCCGA1
0250722868931382010010305537+33828-116500FM-15+0137KPSP V0203305N002652200059N0160935N5+01115-00115101965ADDAA101000095GF100991999999999999999999KA1999M+02171KA2999N+01001MA1101965100325MD1190109+9999REMMET11101/02/10 21:53:01 METAR KPSP 030553Z 33005KT 10SM CLR 11/M01 A3011 RMK AO2 SLP196 T01111011 10217 20100 51010 $EQDQ01    099SCCGD1P01    003SCCGA1
0192722868931382010010306537+33828-116500FM-15+0137KPSP V0202905N002652200059N0160935N5+01285-00395101935ADDAA101000095GF100991999999999999999999MA1101935100295REMMET09301/02/10 22:53:02 METAR KPSP 030653Z 29005KT 10SM CLR 13/M04 A3010 RMK AO2 SLP193 T01281039 $EQDQ01    099SCCGD1P01    003SCCGA1
0201722868931382010010307537+33828-116500FM-15+0137KPSP V0203205N003652200059N0160935N5+01175-00565101905ADDAA101000095GA1025+028965999GD11991+0289659GF102991999999999999999999MA1101905100255REMMET10601/02/10 23:53:01 METAR KPSP 030753Z 32007KT 10SM FEW095 12/M06 A3009 RMK AO2 SLP190 T01171056 402330056 $
0910722868931382010010307596+33828-116500SOD  +0137KPSP V020999999999999999999999999999+99999+99999999999ADDAA124000095KA1240M+02335KA2240N+00565MG1100274101694OE11240058133023295OE22240053633023305OE33240023799999995REMSOD75424 HR PRECIPITATION (IN):0.00  24 HR MAX TEMP (F):74 24 HR MAX TEMP TIME (LST):1449 24 HR MIN TEMP (F):42 24 HR MIN TEMP TIME (LST):0506 AVERAGE STATION PRESSURE:29.610 MINIMUM SEA LEVEL PRESSURE:30.03 TIME OF OCCURRENCE:1458 PEAK WIND SPEED (MPH):13  PEAK WIND DIR (DEG):330 PEAK WIND TIME (LST):2329  FASTEST 2MIN SPEED (MPH):12 FASTEST 2MIN DIR (DEG):330 FASTEST 2MIN TIME (LST):2330 AVERAGE WIND SPEED (MPH):5.3  24 HR AVG TEMP (F):58 DEPART FROM NORMAL: +2  HEATING DEGREE DAYS:7   COOLING DEGREE DAYS:0   LATEST DAY MAX TEMP (0700-1900 LST):74  LATEST NIGHT MIN TEMP(1900-0800 LST):42 HOURLY INCREMENTAL PRECIPITATION VALUES (IN):.00 0.00 0.00 0.00 0.00 0.00 0.00 0.00 0.00 0.00 0.00 0.00 0.00 0.00 0.00 0.00 0.00 0.00 0.00 0.00 0.00 0.00 0.00 0.00EQDR01     N7GJS072R02     N7GKS075
0211722868931382010010308537+33828-116500FM-15+0137KPSP V0209999C000052200059N0160935N5+01115-00785101885ADDAA101000095GA1025+027435999GD11991+0274359GF102991999999999999999999MA1101905100255MD1790079+9999REMMET10201/03/10 00:53:02 METAR KPSP 030853Z 00000KT 10SM FEW090 11/M08 A3009 RMK AO2 SLP188 T01111078 57007 $
0192722868931382010010309537+33828-116500FM-15+0137KPSP V0203205N003152200059N0160935N5+01065-00725101875ADDAA101000095GF100991999999999999999999MA1101905100255REMMET09301/03/10 01:53:02 METAR KPSP 030953Z 32006KT 10SM CLR 11/M07 A3009 RMK AO2 SLP187 T01061072 $EQDQ01    099SCCGD1P01    003SCCGA1
0191722868931382010010310537+33828-116500FM-15+0137KPSP V0209999C000052200059N0160935N5+00785-00505101915ADDAA101000095GA1025+028965999GD11991+0289659GF102991999999999999999999MA1101905100255REMMET09601/03/10 02:53:02 METAR KPSP 031053Z 00000KT 10SM FEW095 08/M05 A3009 RMK AO2 SLP191 T00781050 $
0250722868931382010010311537+33828-116500FM-15+0137KPSP V0203305N003652200059N0160935N5+01005-00835101915ADDAA101000095GF100991999999999999999999KA1999M+01441KA2999N+00781MA1101905100255MD1390029+9999REMMET11101/03/10 03:53:02 METAR KPSP 031153Z 33007KT 10SM CLR 10/M08 A3009 RMK AO2 SLP191 T01001083 10144 20078 53002 $EQDQ01    099SCCGD1P01    003SCCGA1
0191722868931382010010312537+33828-116500FM-15+0137KPSP V0203305N002652200059N0160935N5+00945-00675101955ADDAA101000095GA1025+028965999GD11991+0289659GF102991999999999999999999MA1101935100295REMMET09601/03/10 04:53:02 METAR KPSP 031253Z 33005KT 10SM FEW095 09/M07 A3010 RMK AO2 SLP195 T00941067 $
0196722868931382010010313537+33828-116500FM-15+0137KPSP V0203305N002652200059N0160935N5+00895-00725102035ADDAA101000095GA1025+027435999GD11991+0274359GF102991999999999999999999MA1102035100395REMMET10101/03/10 05:53:02 METAR KPSP 031353Z 33005KT 10SM FEW090 09/M07 A3013 RMK AO2 SLP203 T00891072 $ (CZ)
0216722868931382010010314537+33828-116500FM-15+0137KPSP V0203105N003152200059N0160935N5+01005-00835102055ADDAA101000095GA1025+028965999GD11991+0289659GF102991999999999999999999MA1102035100395MD1190139+9999REMMET10701/03/10 06:53:02 METAR KPSP 031453Z 31006KT 10SM FEW095 10/M08 A3013 RMK AO2 SLP205 T01001083 51013 $ (CZ)
0197722868931382010010315537+33828-116500FM-15+0137KPSP V0203105N002652200059N0160935N5+01175-00725102085ADDAA101000095GF100991999999999999999999MA1102075100425REMMET09801/03/10 07:53:02 METAR KPSP 031553Z 31005KT 10SM CLR 12/M07 A3014 RMK AO2 SLP208 T01171072 $ (CZ)EQDQ01    099SCCGD1P01    003SCCGA1
0197722868931382010010316537+33828-116500FM-15+0137KPSP V0203205N002152200059N0160935N5+01505-00505102115ADDAA101000095GF100991999999999999999999MA1102105100455REMMET09801/03/10 08:53:02 METAR KPSP 031653Z 32004KT 10SM CLR 15/M05 A3015 RMK AO2 SLP211 T01501050 $ (CZ)EQDQ01    099SCCGD1P01    003SCCGA1
0292722868931382010010317537+33828-116500FM-15+0137KPSP V0202205N001552200059N0160935N5+02005-00445102115ADDAA101000095GA1025+036585999GA2045+067065999GD11991+0365859GD22991+0670659GF104991999999999999999999KA1999M+02001KA2999N+00721MA1102105100455MD1190079+9999REMMET12601/03/10 09:53:02 METAR KPSP 031753Z 22003KT 10SM FEW120 SCT220 20/M04 A3015 RMK AO2 SLP211 T02001044 10200 20072 51007 $ (CZ)
0197722868931382010010318537+33828-116500FM-15+0137KPSP V0209999V001552200059N0160935N5+02336-00895102015ADDAA101000095GF100991999999999999999999MA1102035100395REMMET09801/03/10 10:53:02 METAR KPSP 031853Z VRB03KT 10SM CLR 23/M09 A3013 RMK AO2 SLP201 T02331089 $ (CZ)EQDQ01    099SCCGD1P01    003SCCGA1
0197722868931382010010319537+33828-116500FM-15+0137KPSP V0201405N003152200059N0160935N5+02335-00285101935ADDAA101000095GF100991999999999999999999MA1101935100295REMMET09801/03/10 11:53:02 METAR KPSP 031953Z 14006KT 10SM CLR 23/M03 A3010 RMK AO2 SLP193 T02331028 $ (CZ)EQDQ01    099SCCGD1P01    003SCCGA1
0216722868931382010010320537+33828-116500FM-15+0137KPSP V0201205N00265076205MN0160935N5+02335-00505101855ADDAA101000095GA1075+076205999GD13991+0762059GF107991999999999999999999MA1101865100225MD1690249+9999REMMET10701/03/10 12:53:02 METAR KPSP 032053Z 12005KT 10SM BKN250 23/M05 A3008 RMK AO2 SLP185 T02331050 56024 $ (RW)
0197722868931382010010321537+33828-116500FM-15+0137KPSP V0201005N003652200059N0160935N5+02335-00675101835ADDAA101000095GF100991999999999999999999MA1101835100195REMMET09801/03/10 13:53:02 METAR KPSP 032153Z 10007KT 10SM CLR 23/M07 A3007 RMK AO2 SLP183 T02331067 $ (RW)EQDQ01    099SCCGD1P01    003SCCGA1
0196722868931382010010322537+33828-116500FM-15+0137KPSP V0201205N00265076205MN0160935N5+02225-00505101855ADDAA101000095GA1075+076205999GD13991+0762059GF107991999999999999999999MA1101865100225REMMET10101/03/10 14:53:02 METAR KPSP 032253Z 12005KT 10SM BKN250 22/M05 A3008 RMK AO2 SLP185 T02221050 $ (RW)
0254722868931382010010323537+33828-116500FM-15+0137KPSP V0201905N00155076205MN0160935N5+02005-00285101855ADDAA101000095GA1075+076205999GD13991+0762059GF107991999999999999999999KA1999M+02391KA2999N+02001MA1101865100225MD1690019+9999REMMET11901/03/10 15:53:02 METAR KPSP 032353Z 19003KT 10SM BKN250 20/M03 A3008 RMK AO2 SLP185 T02001028 10239 20200 56001 $ (RW)
0191722868931382010010400537+33828-116500FM-15+0137KPSP V0209999C000052200059N0160935N5+01835+00065101875ADDAA101000095GF100991999999999999999999MA1101865100225REMMET09201/03/10 16:53:02 METAR KPSP 040053Z 00000KT 10SM CLR 18/01 A3008 RMK AO2 SLP187 T01830006 $EQDQ01    099SCCGD1P01    003SCCGA1
0192722868931382010010401537+33828-116500FM-15+0137KPSP V0202705N001552200059N0160935N5+01725-00065101955ADDAA101000095GF100991999999999999999999MA1101935100295REMMET09301/03/10 17:53:02 METAR KPSP 040153Z 27003KT 10SM CLR 17/M01 A3010 RMK AO2 SLP195 T01721006 $EQDQ01    099SCCGD1P01    003SCCGA1
0211722868931382010010402537+33828-116500FM-15+0137KPSP V0203105N002152200059N0160935N5+01505-00285102005ADDAA101000095GA1025+027435999GD11991+0274359GF102991999999999999999999MA1102005100355MD1390139+9999REMMET10201/03/10 18:53:02 METAR KPSP 040253Z 31004KT 10SM FEW090 15/M03 A3012 RMK AO2 SLP200 T01501028 53013 $
0192722868931382010010403537+33828-116500FM-15+0137KPSP V0203105N001552200059N0160935N5+01395-00395102005ADDAA101000095GF100991999999999999999999MA1102005100355REMMET09301/03/10 19:53:01 METAR KPSP 040353Z 31003KT 10SM CLR 14/M04 A3012 RMK AO2 SLP200 T01391039 $EQDQ01    099SCCGD1P01    003SCCGA1
0192722868931382010010404537+33828-116500FM-15+0137KPSP V0203305N003152200059N0160935N5+01335-00505102015ADDAA101000095GF100991999999999999999999MA1102005100355REMMET09301/03/10 20:53:02 METAR KPSP 040453Z 33006KT 10SM CLR 13/M05 A3012 RMK AO2 SLP201 T01331050 $EQDQ01    099SCCGD1P01    003SCCGA1
0250722868931382010010405537+33828-116500FM-15+0137KPSP V0203205N002152200059N0160935N5+01285-00615102035ADDAA101000095GF100991999999999999999999KA1999M+02001KA2999N+01221MA1102035100395MD1390059+9999REMMET11101/03/10 21:53:02 METAR KPSP 040553Z 32004KT 10SM CLR 13/M06 A3013 RMK AO2 SLP203 T01281061 10200 20122 53005 $EQDQ01    099SCCGD1P01    003SCCGA1
0192722868931382010010406537+33828-116500FM-15+0137KPSP V0203205N002652200059N0160935N5+01115-00505102035ADDAA101000095GF100991999999999999999999MA1102035100395REMMET09301/03/10 22:53:02 METAR KPSP 040653Z 32005KT 10SM CLR 11/M05 A3013 RMK AO2 SLP203 T01111050 $EQDQ01    099SCCGD1P01    003SCCGA1
0201722868931382010010407537+33828-116500FM-15+0137KPSP V0209999C000052200059N0160935N5+01175-00675102015ADDAA101000095GA1025+028965999GD11991+0289659GF102991999999999999999999MA1102035100395REMMET10601/03/10 23:53:02 METAR KPSP 040753Z 00000KT 10SM FEW095 12/M07 A3013 RMK AO2 SLP201 T01171067 402390072 $
0910722868931382010010407596+33828-116500SOD  +0137KPSP V020999999999999999999999999999+99999+99999999999ADDAA124000095KA1240M+02395KA2240N+00725MG1100324101834OE11240053611013455OE22240044732000135OE33240020699999995REMSOD75424 HR PRECIPITATION (IN):0.00  24 HR MAX TEMP (F):75 24 HR MAX TEMP TIME (LST):1125 24 HR MIN TEMP (F):45 24 HR MIN TEMP TIME (LST):0635 AVERAGE STATION PRESSURE:29.625 MINIMUM SEA LEVEL PRESSURE:30.07 TIME OF OCCURRENCE:1527 PEAK WIND SPEED (MPH):12  PEAK WIND DIR (DEG):110 PEAK WIND TIME (LST):1345  FASTEST 2MIN SPEED (MPH):10 FASTEST 2MIN DIR (DEG):320 FASTEST 2MIN TIME (LST):0013 AVERAGE WIND SPEED (MPH):4.6  24 HR AVG TEMP (F):60 DEPART FROM NORMAL: +4  HEATING DEGREE DAYS:5   COOLING DEGREE DAYS:0   LATEST DAY MAX TEMP (0700-1900 LST):75  LATEST NIGHT MIN TEMP(1900-0800 LST):45 HOURLY INCREMENTAL PRECIPITATION VALUES (IN):.00 0.00 0.00 0.00 0.00 0.00 0.00 0.00 0.00 0.00 0.00 0.00 0.00 0.00 0.00 0.00 0.00 0.00 0.00 0.00 0.00 0.00 0.00 0.00EQDR01     N7GJS072R02     N7GKS075
0211722868931382010010408537+33828-116500FM-15+0137KPSP V0203305N003152200059N0160935N5+00945-00505102005ADDAA101000095GA1025+028965999GD11991+0289659GF102991999999999999999999MA1102005100355MD1890029+9999REMMET10201/04/10 00:53:02 METAR KPSP 040853Z 33006KT 10SM FEW095 09/M05 A3012 RMK AO2 SLP200 T00941050 58002 $
0191722868931382010010409537+33828-116500FM-15+0137KPSP V0203205N003652200059N0160935N5+00945-00565102015ADDAA101000095GA1025+027435999GD11991+0274359GF102991999999999999999999MA1102035100395REMMET09601/04/10 01:53:02 METAR KPSP 040953Z 32007KT 10SM FEW090 09/M06 A3013 RMK AO2 SLP201 T00941056 $
0191722868931382010010410537+33828-116500FM-15+0137KPSP V0203305N003652200059N0160935N5+01005-00725102025ADDAA101000095GA1025+028965999GD11991+0289659GF102991999999999999999999MA1102005100355REMMET09601/04/10 02:53:02 METAR KPSP 041053Z 33007KT 10SM FEW095 10/M07 A3012 RMK AO2 SLP202 T01001072 $
0249722868931382010010411537+33828-116500FM-15+0137KPSP V0203205N002652200059N0160935N5+01065-00725102005ADDAA101000095GA1025+027435999GD11991+0274359GF102991999999999999999999KA1999M+01281KA2999N+00831MA1102005100355MD1890019+9999REMMET11401/04/10 03:53:02 METAR KPSP 041153Z 32005KT 10SM FEW090 11/M07 A3012 RMK AO2 SLP200 T01061072 10128 20083 58001 $
0191722868931382010010412537+33828-116500FM-15+0137KPSP V0203205N002652200059N0160935N5+01065-00615101995ADDAA101000095GA1025+028965999GD11991+0289659GF102991999999999999999999MA1102005100355REMMET09601/04/10 04:53:02 METAR KPSP 041253Z 32005KT 10SM FEW095 11/M06 A3012 RMK AO2 SLP199 T01061061 $
0197722868931382010010413537+33828-116500FM-15+0137KPSP V0203205N003152200059N0160935N5+00895-00505102025ADDAA101000095GF100991999999999999999999MA1102035100395REMMET09801/04/10 05:53:02 METAR KPSP 041353Z 32006KT 10SM CLR 09/M05 A3013 RMK AO2 SLP202 T00891050 $ (MX)EQDQ01    099SCCGD1P01    003SCCGA1
0216722868931382010010414537+33828-116500FM-15+0137KPSP V0203205N004152200059N0160935N5+00945-00505102055ADDAA101000095GA1045+060965999GD12991+0609659GF104991999999999999999999MA1102035100395MD1390049+9999REMMET10701/04/10 06:53:02 METAR KPSP 041453Z 32008KT 10SM SCT200 09/M05 A3013 RMK AO2 SLP205 T00941050 53004 $ (MX)
0194722868931382010010415537+33828-116500FM-15+0137KPSP V0203305N00365060965MN0160935N5+01115-00505102095ADDAA101000095GA1075+060965999GD13991+0609659GF107991999999999999999999MA1102075100425REMMET09901/04/10 07:53:02 METAR KPSP 041553Z 33007KT 10SM BKN200 11/M05 A3014 RMK AO2 SLP209 T01111050 (LU)
0195722868931382010010416537+33828-116500FM-15+0137KPSP V0203405N002152200059N0160935N5+01565-00335102115ADDAA101000095GF100991999999999999999999MA1102105100455REMMET09601/04/10 08:53:02 METAR KPSP 041653Z 34004KT 10SM CLR 16/M03 A3015 RMK AO2 SLP211 T01561033 (LU)EQDQ01    099SCCGD1P01    003SCCGA1
0252722868931382010010417537+33828-116500FM-15+0137KPSP V0209999C00005045725MN0160935N5+01895-00785102135ADDAA101000095GA1075+045725999GD13991+0457259GF107991999999999999999999KA1999M+01941KA2999N+00831MA1102135100495MD1190089+9999REMMET11701/04/10 09:53:02 METAR KPSP 041753Z 00000KT 10SM BKN150 19/M08 A3016 RMK AO2 SLP213 T01891078 10194 20083 51008 (MX)
0232722868931382010010418537+33828-116500FM-15+0137KPSP V0209999C00005045725MN0160935N5+02005-00615102065ADDAA101000095GA1025+030485999GA2075+045725999GD11991+0304859GD23991+0457259GF107991999999999999999999MA1102075100425REMMET10601/04/10 10:53:02 METAR KPSP 041853Z 00000KT 10SM FEW100 BKN150 20/M06 A3014 RMK AO2 SLP206 T02001061 (RW)
0195722868931382010010419537+33828-116500FM-15+0137KPSP V0201005N001552200059N0160935N5+02065-00615101975ADDAA101000095GF100991999999999999999999MA1101965100325REMMET09601/04/10 11:53:02 METAR KPSP 041953Z 10003KT 10SM CLR 21/M06 A3011 RMK AO2 SLP197 T02061061 (RW)EQDQ01    099SCCGD1P01    003SCCGA1
0252722868931382010010420537+33828-116500FM-15+0137KPSP V0209999C00005076205MN0160935N5+02225-00675101905ADDAA101000095GA1045+036585999GA2075+076205999GD12991+0365859GD23991+0762059GF107991999999999999999999MA1101905100255MD1690229+9999REMMET11201/04/10 12:53:02 METAR KPSP 042053Z 00000KT 10SM SCT120 BKN250 22/M07 A3009 RMK AO2 SLP190 T02221067 56022 (RW)
0232722868931382010010421537+33828-116500FM-15+0137KPSP V0201605N00155076205MN0160935N5+02225-00505101875ADDAA101000095GA1045+036585999GA2075+076205999GD12991+0365859GD23991+0762059GF107991999999999999999999MA1101865100225REMMET10601/04/10 13:53:02 METAR KPSP 042153Z 16003KT 10SM SCT120 BKN250 22/M05 A3008 RMK AO2 SLP187 T02221050 (RW)
0195722868931382010010422537+33828-116500FM-15+0137KPSP V0201505N002152200059N0160935N5+02175-00615101845ADDAA101000095GF100991999999999999999999MA1101835100195REMMET09601/04/10 14:53:02 METAR KPSP 042253Z 15004KT 10SM CLR 22/M06 A3007 RMK AO2 SLP184 T02171061 (RW)EQDQ01    099SCCGD1P01    003SCCGA1
0290722868931382010010423537+33828-116500FM-15+0137KPSP V0209999C00005076205MN0160935N5+02115-00445101845ADDAA101000095GA1045+036585999GA2075+076205999GD12991+0365859GD23991+0762059GF107991999999999999999999KA1999M+02281KA2999N+01891MA1101835100195MD1590069+9999REMMET12401/04/10 15:53:02 METAR KPSP 042353Z 00000KT 10SM SCT120 BKN250 21/M04 A3007 RMK AO2 SLP184 T02111044 10228 20189 55006 (RW)
0189722868931382010010500537+33828-116500FM-15+0137KPSP V0209999C00005039625MN0160935N5+01895-00065101845ADDAA101000095GA1075+039625999GD13991+0396259GF107991999999999999999999MA1101835100195REMMET09401/04/10 16:53:02 METAR KPSP 050053Z 00000KT 10SM BKN130 19/M01 A3007 RMK AO2 SLP184 T01891006
0189722868931382010010501537+33828-116500FM-15+0137KPSP V0203405N001552200059N0160935N5+01615+00065101905ADDAA101000095GF100991999999999999999999MA1101905100255REMMET09001/04/10 17:53:02 METAR KPSP 050153Z 34003KT 10SM CLR 16/01 A3009 RMK AO2 SLP190 T01610006EQDQ01    099SCCGD1P01    003SCCGA1
0209722868931382010010502537+33828-116500FM-15+0137KPSP V0203205N00265039625MN0160935N5+01565-00335101915ADDAA101000095GA1075+039625999GD13991+0396259GF107991999999999999999999MA1101905100255MD1390069+9999REMMET10001/04/10 18:53:01 METAR KPSP 050253Z 32005KT 10SM BKN130 16/M03 A3009 RMK AO2 SLP191 T01561033 53006
0189722868931382010010503537+33828-116500FM-15+0137KPSP V0203305N001552200059N0160935N5+01395-00225101915ADDAA101000095GA1025+027435999GD11991+0274359GF102991999999999999999999MA1101905100255REMMET09401/04/10 19:53:01 METAR KPSP 050353Z 33003KT 10SM FEW090 14/M02 A3009 RMK AO2 SLP191 T01391022
0190722868931382010010504537+33828-116500FM-15+0137KPSP V0203205N003152200059N0160935N5+01175-00285101935ADDAA101000095GF100991999999999999999999MA1101935100295REMMET09101/04/10 20:53:01 METAR KPSP 050453Z 32006KT 10SM CLR 12/M03 A3010 RMK AO2 SLP193 T01171028EQDQ01    099SCCGD1P01    003SCCGA1
0247722868931382010010505537+33828-116500FM-15+0137KPSP V0203305N002652200059N0160935N5+01175-00395101945ADDAA101000095GA1025+028965999GD11991+0289659GF102991999999999999999999KA1999M+02111KA2999N+01171MA1101935100295MD1290039+9999REMMET11201/04/10 21:53:02 METAR KPSP 050553Z 33005KT 10SM FEW095 12/M04 A3010 RMK AO2 SLP194 T01171039 10211 20117 52003
0194722868931382010010506537+33828-116500FM-15+0137KPSP V0203205N002152200059N0160935N5+01225-00445101955ADDAA101000095GA1025+027435999GD11991+0274359GF102991999999999999999999MA1101935100295REMMET09901/04/10 22:53:02 METAR KPSP 050653Z 32004KT 10SM FEW090 12/M04 A3010 RMK AO2 SLP195 T01221044 TSNO
0205722868931382010010507537+33828-116500FM-15+0137KPSP V0203305N003152200059N0160935N5+00945-00285101945ADDAA101000095GF100991999999999999999999MA1101935100295REMMET10601/04/10 23:53:02 METAR KPSP 050753Z 33006KT 10SM CLR 09/M03 A3010 RMK AO2 SLP194 T00941028 402280083 TSNOEQDQ01    099SCCGD1P01    003SCCGA1
0910722868931382010010507596+33828-116500SOD  +0137KPSP V020999999999999999999999999999+99999+99999999999ADDAA124000095KA1240M+02285KA2240N+00835MG1100304101834OE11240071520012215OE22240044732007295OE33240020699999995REMSOD75424 HR PRECIPITATION (IN):0.00  24 HR MAX TEMP (F):73 24 HR MAX TEMP TIME (LST):1309 24 HR MIN TEMP (F):47 24 HR MIN TEMP TIME (LST):0617 AVERAGE STATION PRESSURE:29.620 MINIMUM SEA LEVEL PRESSURE:30.07 TIME OF OCCURRENCE:1702 PEAK WIND SPEED (MPH):16  PEAK WIND DIR (DEG):200 PEAK WIND TIME (LST):1221  FASTEST 2MIN SPEED (MPH):10 FASTEST 2MIN DIR (DEG):320 FASTEST 2MIN TIME (LST):0729 AVERAGE WIND SPEED (MPH):4.6  24 HR AVG TEMP (F):60 DEPART FROM NORMAL: +4  HEATING DEGREE DAYS:5   COOLING DEGREE DAYS:0   LATEST DAY MAX TEMP (0700-1900 LST):73  LATEST NIGHT MIN TEMP(1900-0800 LST):47 HOURLY INCREMENTAL PRECIPITATION VALUES (IN):.00 0.00 0.00 0.00 0.00 0.00 0.00 0.00 0.00 0.00 0.00 0.00 0.00 0.00 0.00 0.00 0.00 0.00 0.00 0.00 0.00 0.00 0.00 0.00EQDR01     N7GJS072R02     N7GKS075
0215722868931382010010508537+33828-116500FM-15+0137KPSP V0203205N003152200059N0160935N5+01005-00335101915ADDAA101000095GF100991999999999999999999MA1101905100255MD1890029+9999REMMET10201/05/10 00:53:02 METAR KPSP 050853Z 32006KT 10SM CLR 10/M03 A3009 RMK AO2 SLP191 T01001033 58002 TSNOEQDQ01    099SCCGD1P01    003SCCGA1
0194722868931382010010509537+33828-116500FM-15+0137KPSP V0203405N003152200059N0160935N5+00895-00395101925ADDAA101000095GA1025+027435999GD11991+0274359GF102991999999999999999999MA1101935100295REMMET09901/05/10 01:53:02 METAR KPSP 050953Z 34006KT 10SM FEW090 09/M04 A3010 RMK AO2 SLP192 T00891039 TSNO
0194722868931382010010510537+33828-116500FM-15+0137KPSP V0203205N004652200059N0160935N5+00895-00445101875ADDAA101000095GA1025+027435999GD11991+0274359GF102991999999999999999999MA1101865100225REMMET09901/05/10 02:53:02 METAR KPSP 051053Z 32009KT 10SM FEW090 09/M04 A3008 RMK AO2 SLP187 T00891044 TSNO
0252722868931382010010511537+33828-116500FM-15+0137KPSP V0203205N003152200059N0160935N5+01065-00615101845ADDAA101000095GA1025+028965999GD11991+0289659GF102991999999999999999999KA1999M+01391KA2999N+00831MA1101835100195MD1890079+9999REMMET11701/05/10 03:53:02 METAR KPSP 051153Z 32006KT 10SM FEW095 11/M06 A3007 RMK AO2 SLP184 T01061061 10139 20083 58007 TSNO
0195722868931382010010512537+33828-116500FM-15+0137KPSP V0203405N003152200059N0160935N5+00835-00395101875ADDAA101000095GF100991999999999999999999MA1101865100225REMMET09601/05/10 04:53:02 METAR KPSP 051253Z 34006KT 10SM CLR 08/M04 A3008 RMK AO2 SLP187 T00831039 TSNOEQDQ01    099SCCGD1P01    003SCCGA1
0194722868931382010010513537+33828-116500FM-15+0137KPSP V0202705N001552200059N0160935N5+00945-00445101895ADDAA101000095GA1025+027435999GD11991+0274359GF102991999999999999999999MA1101865100225REMMET09901/05/10 05:53:02 METAR KPSP 051353Z 27003KT 10SM FEW090 09/M04 A3008 RMK AO2 SLP189 T00941044 (RW)
0214722868931382010010514537+33828-116500FM-15+0137KPSP V0203405N003152200059N0160935N5+00725-00445101935ADDAA101000095GA1025+060965999GD11991+0609659GF102991999999999999999999MA1101935100295MD1390079+9999REMMET10501/05/10 06:53:02 METAR KPSP 051453Z 34006KT 10SM FEW200 07/M04 A3010 RMK AO2 SLP193 T00721044 53007 (LU)
0195722868931382010010515537+33828-116500FM-15+0137KPSP V0203205N002652200059N0160935N5+01285-00505101975ADDAA101000095GF100991999999999999999999MA1101965100325REMMET09601/05/10 07:53:02 METAR KPSP 051553Z 32005KT 10SM CLR 13/M05 A3011 RMK AO2 SLP197 T01281050 (LU)EQDQ01    099SCCGD1P01    003SCCGA1
0195722868931382010010516537+33828-116500FM-15+0137KPSP V0209999C000052200059N0160935N5+01565-00285102045ADDAA101000095GF100991999999999999999999MA1102035100395REMMET09601/05/10 08:53:02 METAR KPSP 051653Z 00000KT 10SM CLR 16/M03 A3013 RMK AO2 SLP204 T01561028 (LU)EQDQ01    099SCCGD1P01    003SCCGA1
0252722868931382010010517537+33828-116500FM-15+0137KPSP V0209999C000052200059N0160935N5+01835-00505102045ADDAA101000095GA1045+076205999GD12991+0762059GF104991999999999999999999KA1999M+01831KA2999N+00721MA1102035100395MD1190139+9999REMMET11701/05/10 09:53:02 METAR KPSP 051753Z 00000KT 10SM SCT250 18/M05 A3013 RMK AO2 SLP204 T01831050 10183 20072 51013 (LU)
0195722868931382010010518537+33828-116500FM-15+0137KPSP V0201105N002152200059N0160935N5+02005-00565101985ADDAA101000095GF100991999999999999999999MA1101965100325REMMET09601/05/10 10:53:02 METAR KPSP 051853Z 11004KT 10SM CLR 20/M06 A3011 RMK AO2 SLP198 T02001056 (LU)EQDQ01    099SCCGD1P01    003SCCGA1
0195722868931382010010519537+33828-116500FM-15+0137KPSP V0209999C000052200059N0160935N5+02115-00565101905ADDAA101000095GF100991999999999999999999MA1101905100255REMMET09601/05/10 11:53:02 METAR KPSP 051953Z 00000KT 10SM CLR 21/M06 A3009 RMK AO2 SLP190 T02111056 (LU)EQDQ01    099SCCGD1P01    003SCCGA1
0215722868931382010010520537+33828-116500FM-15+0137KPSP V0209999C000052200059N0160935N5+02225-00565101785ADDAA101000095GF100991999999999999999999MA1101765100125MD1890269+9999REMMET10201/05/10 12:53:02 METAR KPSP 052053Z 00000KT 10SM CLR 22/M06 A3005 RMK AO2 SLP178 T02221056 58026 (LU)EQDQ01    099SCCGD1P01    003SCCGA1
0195722868931382010010521537+33828-116500FM-15+0137KPSP V0201005N002152200059N0160935N5+02285-00565101705ADDAA101000095GF100991999999999999999999MA1101695100055REMMET09601/05/10 13:53:02 METAR KPSP 052153Z 10004KT 10SM CLR 23/M06 A3003 RMK AO2 SLP170 T02281056 (LU)EQDQ01    099SCCGD1P01    003SCCGA1
0195722868931382010010522537+33828-116500FM-15+0137KPSP V0209999C000052200059N0160935N5+02285-00615101655ADDAA101000095GF100991999999999999999999MA1101665100025REMMET09601/05/10 14:53:02 METAR KPSP 052253Z 00000KT 10SM CLR 23/M06 A3002 RMK AO2 SLP165 T02281061 (LU)EQDQ01    099SCCGD1P01    003SCCGA1
0253722868931382010010523537+33828-116500FM-15+0137KPSP V0209999C000052200059N0160935N5+02335-00675101655ADDAA101000095GF100991999999999999999999KA1999M+02331KA2999N+01831MA1101665100025MD1690129+9999REMMET11401/05/10 15:53:02 METAR KPSP 052353Z 00000KT 10SM CLR 23/M07 A3002 RMK AO2 SLP165 T02331067 10233 20183 56012 TSNOEQDQ01    099SCCGD1P01    003SCCGA1
0189722868931382010010600537+33828-116500FM-15+0137KPSP V0209999C000052200059N0160935N5+02005-00225101675ADDAA101000095GA1045+060965999GD12991+0609659GF104991999999999999999999MA1101665100025REMMET09401/05/10 16:53:02 METAR KPSP 060053Z 00000KT 10SM SCT200 20/M02 A3002 RMK AO2 SLP167 T02001022
0189722868931382010010601537+33828-116500FM-15+0137KPSP V0209999C000052200059N0160935N5+01675+00005101735ADDAA101000095GF100991999999999999999999MA1101735100095REMMET09001/05/10 17:53:02 METAR KPSP 060153Z 00000KT 10SM CLR 17/00 A3004 RMK AO2 SLP173 T01670000EQDQ01    099SCCGD1P01    003SCCGA1
0210722868931382010010602537+33828-116500FM-15+0137KPSP V0203205N002652200059N0160935N5+01445-00175101815ADDAA101000095GF100991999999999999999999MA1101795100155MD1390149+9999REMMET09701/05/10 18:53:02 METAR KPSP 060253Z 32005KT 10SM CLR 14/M02 A3006 RMK AO2 SLP181 T01441017 53014EQDQ01    099SCCGD1P01    003SCCGA1
0190722868931382010010603537+33828-116500FM-15+0137KPSP V0203205N002652200059N0160935N5+01445-00395101835ADDAA101000095GF100991999999999999999999MA1101835100195REMMET09101/05/10 19:53:01 METAR KPSP 060353Z 32005KT 10SM CLR 14/M04 A3007 RMK AO2 SLP183 T01441039EQDQ01    099SCCGD1P01    003SCCGA1
0190722868931382010010604537+33828-116500FM-15+0137KPSP V0203305N003152200059N0160935N5+01285-00335101865ADDAA101000095GF100991999999999999999999MA1101865100225REMMET09101/05/10 20:53:02 METAR KPSP 060453Z 33006KT 10SM CLR 13/M03 A3008 RMK AO2 SLP186 T01281033EQDQ01    099SCCGD1P01    003SCCGA1
0248722868931382010010605537+33828-116500FM-15+0137KPSP V0203305N003652200059N0160935N5+01115-00225101875ADDAA101000095GF100991999999999999999999KA1999M+02331KA2999N+01111MA1101865100225MD1190079+9999REMMET10901/05/10 21:53:02 METAR KPSP 060553Z 33007KT 10SM CLR 11/M02 A3008 RMK AO2 SLP187 T01111022 10233 20111 51007EQDQ01    099SCCGD1P01    003SCCGA1
0195722868931382010010606537+33828-116500FM-15+0137KPSP V0203205N003152200059N0160935N5+01175-00335101875ADDAA101000095GF100991999999999999999999MA1101865100225REMMET09601/05/10 22:53:02 METAR KPSP 060653Z 32006KT 10SM CLR 12/M03 A3008 RMK AO2 SLP187 T01171033 TSNOEQDQ01    099SCCGD1P01    003SCCGA1
0205722868931382010010607537+33828-116500FM-15+0137KPSP V0203305N003652200059N0160935N5+01005-00285101845ADDAA101000095GF100991999999999999999999MA1101835100195REMMET10601/05/10 23:53:02 METAR KPSP 060753Z 33007KT 10SM CLR 10/M03 A3007 RMK AO2 SLP184 T01001028 402330072 TSNOEQDQ01    099SCCGD1P01    003SCCGA1
0910722868931382010010607596+33828-116500SOD  +0137KPSP V020999999999999999999999999999+99999+99999999999ADDAA124000095KA1240M+02335KA2240N+00725MG1100194101634OE11240058133003115OE22240053634019325OE33240019799999995REMSOD75424 HR PRECIPITATION (IN):0.00  24 HR MAX TEMP (F):74 24 HR MAX TEMP TIME (LST):1555 24 HR MIN TEMP (F):45 24 HR MIN TEMP TIME (LST):0657 AVERAGE STATION PRESSURE:29.585 MINIMUM SEA LEVEL PRESSURE:30.01 TIME OF OCCURRENCE:1639 PEAK WIND SPEED (MPH):13  PEAK WIND DIR (DEG):330 PEAK WIND TIME (LST):0311  FASTEST 2MIN SPEED (MPH):12 FASTEST 2MIN DIR (DEG):340 FASTEST 2MIN TIME (LST):1932 AVERAGE WIND SPEED (MPH):4.4  24 HR AVG TEMP (F):60 DEPART FROM NORMAL: +4  HEATING DEGREE DAYS:5   COOLING DEGREE DAYS:0   LATEST DAY MAX TEMP (0700-1900 LST):74  LATEST NIGHT MIN TEMP(1900-0800 LST):45 HOURLY INCREMENTAL PRECIPITATION VALUES (IN):.00 0.00 0.00 0.00 0.00 0.00 0.00 0.00 0.00 0.00 0.00 0.00 0.00 0.00 0.00 0.00 0.00 0.00 0.00 0.00 0.00 0.00 0.00 0.00EQDR01     N7GJS072R02     N7GKS075
0214722868931382010010608537+33828-116500FM-15+0137KPSP V0203305N003152200059N0160935N5+01005-00285101795ADDAA101000095GA1025+027435999GD11991+0274359GF102991999999999999999999MA1101795100155MD1890079+9999REMMET10501/06/10 00:53:02 METAR KPSP 060853Z 33006KT 10SM FEW090 10/M03 A3006 RMK AO2 SLP179 T01001028 58007 TSNO
0194722868931382010010609537+33828-116500FM-15+0137KPSP V0203205N002652200059N0160935N5+01115-00395101795ADDAA101000095GA1025+027435999GD11991+0274359GF102991999999999999999999MA1101795100155REMMET09901/06/10 01:53:02 METAR KPSP 060953Z 32005KT 10SM FEW090 11/M04 A3006 RMK AO2 SLP179 T01111039 TSNO
0194722868931382010010610537+33828-116500FM-15+0137KPSP V0203405N003152200059N0160935N5+01005-00335101795ADDAA101000095GA1025+027435999GD11991+0274359GF102991999999999999999999MA1101795100155REMMET09901/06/10 02:53:02 METAR KPSP 061053Z 34006KT 10SM FEW090 10/M03 A3006 RMK AO2 SLP179 T01001033 TSNO
0253722868931382010010611537+33828-116500FM-15+0137KPSP V0203105N003152200059N0160935N5+01005-00395101785ADDAA101000095GF100991999999999999999999KA1999M+01171KA2999N+00721MA1101795100155MD1890019+9999REMMET11401/06/10 03:53:02 METAR KPSP 061153Z 31006KT 10SM CLR 10/M04 A3006 RMK AO2 SLP178 T01001039 10117 20072 58001 TSNOEQDQ01    099SCCGD1P01    003SCCGA1
0194722868931382010010612537+33828-116500FM-15+0137KPSP V0203305N004152200059N0160935N5+01065-00445101775ADDAA101000095GA1025+027435999GD11991+0274359GF102991999999999999999999MA1101765100125REMMET09901/06/10 04:53:02 METAR KPSP 061253Z 33008KT 10SM FEW090 11/M04 A3005 RMK AO2 SLP177 T01061044 TSNO
0194722868931382010010613537+33828-116500FM-15+0137KPSP V0203205N004152200059N0160935N5+00945-00395101805ADDAA101000095GA1025+027435999GD11991+0274359GF102991999999999999999999MA1101795100155REMMET09901/06/10 05:53:02 METAR KPSP 061353Z 32008KT 10SM FEW090 09/M04 A3006 RMK AO2 SLP180 T00941039 (CC)
0214722868931382010010614537+33828-116500FM-15+0137KPSP V0203105N002152200059N0160935N5+01005-00395101855ADDAA101000095GA1025+076205999GD11991+0762059GF102991999999999999999999MA1101835100195MD1390059+9999REMMET10501/06/10 06:53:02 METAR KPSP 061453Z 31004KT 10SM FEW250 10/M04 A3007 RMK AO2 SLP185 T01001039 53005 (CC)
0195722868931382010010615537+33828-116500FM-15+0137KPSP V0203205N003152200059N0160935N5+01225-00505101855ADDAA101000095GF100991999999999999999999MA1101865100225REMMET09601/06/10 07:53:02 METAR KPSP 061553Z 32006KT 10SM CLR 12/M05 A3008 RMK AO2 SLP185 T01221050 (CC)EQDQ01    099SCCGD1P01    003SCCGA1
0196722868931382010010616537+33828-116500FM-15+0137KPSP V0209999C00005060965MN0160935N5+01335-00115101905ADDAA101000095GA1075+060965999GD13991+0609659GF107991999999999999999999MA1101905100255REMMET10101/06/10 08:53:02 METAR KPSP 061653Z 00000KT 10SM BKN200 13/M01 A3009 RMK AO2 SLP190 T01331011 $ (JB)
0252722868931382010010617537+33828-116500FM-15+0137KPSP V0209999C000052200059N0160935N5+01835+00005101915ADDAA101000095GF100991999999999999999999KA1999M+01831KA2999N+00781MA1101905100255MD1190079+9999REMMET11301/06/10 09:53:02 METAR KPSP 061753Z 00000KT 10SM CLR 18/00 A3009 RMK AO2 SLP191 T01830000 10183 20078 51007 (JB)EQDQ01    099SCCGD1P01    003SCCGA1
0195722868931382010010618537+33828-116500FM-15+0137KPSP V0201105N002652200059N0160935N5+02065-00565101845ADDAA101000095GF100991999999999999999999MA1101835100195REMMET09601/06/10 10:53:02 METAR KPSP 061853Z 11005KT 10SM CLR 21/M06 A3007 RMK AO2 SLP184 T02061056 (JB)EQDQ01    099SCCGD1P01    003SCCGA1
0195722868931382010010619537+33828-116500FM-15+0137KPSP V0200905N003152200059N0160935N5+02115-00505101735ADDAA101000095GF100991999999999999999999MA1101735100095REMMET09601/06/10 11:53:02 METAR KPSP 061953Z 09006KT 10SM CLR 21/M05 A3004 RMK AO2 SLP173 T02111050 (JB)EQDQ01    099SCCGD1P01    003SCCGA1
0214722868931382010010620537+33828-116500FM-15+0137KPSP V0201205N002652200059N0160935N5+02065-00565101625ADDAA101000095GA1025+028965999GD11991+0289659GF102991999999999999999999MA1101635099995MD1890289+9999REMMET10501/06/10 12:53:02 METAR KPSP 062053Z 12005KT 10SM FEW095 21/M06 A3001 RMK AO2 SLP162 T02061056 58028 (JB)
0195722868931382010010621537+33828-116500FM-15+0137KPSP V0201005N002652200059N0160935N5+02225-00565101545ADDAA101000095GF100991999999999999999999MA1101565099925REMMET09601/06/10 13:53:02 METAR KPSP 062153Z 10005KT 10SM CLR 22/M06 A2999 RMK AO2 SLP154 T02221056 (JB)EQDQ01    099SCCGD1P01    003SCCGA1
0194722868931382010010622537+33828-116500FM-15+0137KPSP V0209999V001552200059N0160935N5+02225-00395101535ADDAA101000095GA1045+076205999GD12991+0762059GF104991999999999999999999MA1101525099895REMMET09901/06/10 14:53:02 METAR KPSP 062253Z VRB03KT 10SM SCT250 22/M04 A2998 RMK AO2 SLP153 T02221039 (JB)
0255722868931382010010623537+33828-116500FM-15+0137KPSP V0200805N001552200059N0160935N5+02225-00335101545ADDAA101000095GF100991999999999999999999KA1999M+02221KA2999N+01831MA1101525099895MD1590089+9999REMMET11601/06/10 15:53:02 METAR KPSP 062353Z 08003KT 10SM CLR 22/M03 A2998 RMK AO2 SLP154 T02221033 10222 20183 55008 $ (AF)EQDQ01    099SCCGD1P01    003SCCGA1
0192722868931382010010700537+33828-116500FM-15+0137KPSP V0201105N002152200059N0160935N5+02005-00225101535ADDAA101000095GF100991999999999999999999MA1101525099895REMMET09301/06/10 16:53:02 METAR KPSP 070053Z 11004KT 10SM CLR 20/M02 A2998 RMK AO2 SLP153 T02001022 $EQDQ01    099SCCGD1P01    003SCCGA1
0191722868931382010010701537+33828-116500FM-15+0137KPSP V0203405N001552200059N0160935N5+01725+00005101605ADDAA101000095GF100991999999999999999999MA1101595099955REMMET09201/06/10 17:53:02 METAR KPSP 070153Z 34003KT 10SM CLR 17/00 A3000 RMK AO2 SLP160 T01720000 $EQDQ01    099SCCGD1P01    003SCCGA1
0212722868931382010010702537+33828-116500FM-15+0137KPSP V0203405N001552200059N0160935N5+01505-00065101665ADDAA101000095GF100991999999999999999999MA1101665100025MD1390119+9999REMMET09901/06/10 18:53:02 METAR KPSP 070253Z 34003KT 10SM CLR 15/M01 A3002 RMK AO2 SLP166 T01501006 53011 $EQDQ01    099SCCGD1P01    003SCCGA1
0191722868931382010010703537+33828-116500FM-15+0137KPSP V0203405N003152200059N0160935N5+01285+00005101675ADDAA101000095GF100991999999999999999999MA1101665100025REMMET09201/06/10 19:53:02 METAR KPSP 070353Z 34006KT 10SM CLR 13/00 A3002 RMK AO2 SLP167 T01280000 $EQDQ01    099SCCGD1P01    003SCCGA1
0192722868931382010010704537+33828-116500FM-15+0137KPSP V0203305N003652200059N0160935N5+01175-00065101685ADDAA101000095GF100991999999999999999999MA1101665100025REMMET09301/06/10 20:53:01 METAR KPSP 070453Z 33007KT 10SM CLR 12/M01 A3002 RMK AO2 SLP168 T01171006 $EQDQ01    099SCCGD1P01    003SCCGA1
0250722868931382010010705537+33828-116500FM-15+0137KPSP V0203305N002652200059N0160935N5+01115-00115101645ADDAA101000095GF100991999999999999999999KA1999M+02171KA2999N+01111MA1101665100025MD1890019+9999REMMET11101/06/10 21:53:02 METAR KPSP 070553Z 33005KT 10SM CLR 11/M01 A3002 RMK AO2 SLP164 T01111011 10217 20111 58001 $EQDQ01    099SCCGD1P01    003SCCGA1
0191722868931382010010706537+33828-116500FM-15+0137KPSP V0203305N003652200059N0160935N5+01115-00175101615ADDAA101000095GA1025+027435999GD11991+0274359GF102991999999999999999999MA1101635099995REMMET09601/06/10 22:53:01 METAR KPSP 070653Z 33007KT 10SM FEW090 11/M02 A3001 RMK AO2 SLP161 T01111017 $
0201722868931382010010707537+33828-116500FM-15+0137KPSP V0203405N003152200059N0160935N5+01115-00175101575ADDAA101000095GA1025+027435999GD11991+0274359GF102991999999999999999999MA1101565099925REMMET10601/06/10 23:53:01 METAR KPSP 070753Z 34006KT 10SM FEW090 11/M02 A2999 RMK AO2 SLP157 T01111017 402220072 $
0910722868931382010010707596+33828-116500SOD  +0137KPSP V020999999999999999999999999999+99999+99999999999ADDAA124000095KA1240M+02225KA2240N+00725MG1100074101524OE11240125224008055OE22240044732006015OE33240025099999995REMSOD75424 HR PRECIPITATION (IN):0.00  24 HR MAX TEMP (F):72 24 HR MAX TEMP TIME (LST):1553 24 HR MIN TEMP (F):45 24 HR MIN TEMP TIME (LST):0228 AVERAGE STATION PRESSURE:29.550 MINIMUM SEA LEVEL PRESSURE:29.98 TIME OF OCCURRENCE:1657 PEAK WIND SPEED (MPH):28  PEAK WIND DIR (DEG):240 PEAK WIND TIME (LST):0805  FASTEST 2MIN SPEED (MPH):10 FASTEST 2MIN DIR (DEG):320 FASTEST 2MIN TIME (LST):0601 AVERAGE WIND SPEED (MPH):5.6  24 HR AVG TEMP (F):59 DEPART FROM NORMAL: +3  HEATING DEGREE DAYS:6   COOLING DEGREE DAYS:0   LATEST DAY MAX TEMP (0700-1900 LST):72  LATEST NIGHT MIN TEMP(1900-0800 LST):45 HOURLY INCREMENTAL PRECIPITATION VALUES (IN):.00 0.00 0.00 0.00 0.00 0.00 0.00 0.00 0.00 0.00 0.00 0.00 0.00 0.00 0.00 0.00 0.00 0.00 0.00 0.00 0.00 0.00 0.00 0.00EQDR01     N7GJS072R02     N7GKS075
0211722868931382010010708537+33828-116500FM-15+0137KPSP V0203305N003152200059N0160935N5+01175-00285101525ADDAA101000095GA1025+027435999GD11991+0274359GF102991999999999999999999MA1101525099895MD1890129+9999REMMET10201/07/10 00:53:02 METAR KPSP 070853Z 33006KT 10SM FEW090 12/M03 A2998 RMK AO2 SLP152 T01171028 58012 $
0191722868931382010010709537+33828-116500FM-15+0137KPSP V0203305N003152200059N0160935N5+01005-00225101555ADDAA101000095GA1025+027435999GD11991+0274359GF102991999999999999999999MA1101565099925REMMET09601/07/10 01:53:02 METAR KPSP 070953Z 33006KT 10SM FEW090 10/M02 A2999 RMK AO2 SLP155 T01001022 $
0192722868931382010010710537+33828-116500FM-15+0137KPSP V0203305N002152200059N0160935N5+00945-00065101565ADDAA101000095GF100991999999999999999999MA1101565099925REMMET09301/07/10 02:53:02 METAR KPSP 071053Z 33004KT 10SM CLR 09/M01 A2999 RMK AO2 SLP156 T00941006 $EQDQ01    099SCCGD1P01    003SCCGA1
0249722868931382010010711537+33828-116500FM-15+0137KPSP V0203405N003152200059N0160935N5+00945-00225101535ADDAA101000095GA1025+028965999GD11991+0289659GF102991999999999999999999KA1999M+01171KA2999N+00891MA1101525099895MD1090019+9999REMMET11401/07/10 03:53:02 METAR KPSP 071153Z 34006KT 10SM FEW095 09/M02 A2998 RMK AO2 SLP153 T00941022 10117 20089 50001 $
0191722868931382010010712537+33828-116500FM-15+0137KPSP V0203205N003652200059N0160935N5+01065-00285101505ADDAA101000095GA1025+027435999GD11991+0274359GF102991999999999999999999MA1101495099855REMMET09601/07/10 04:53:02 METAR KPSP 071253Z 32007KT 10SM FEW090 11/M03 A2997 RMK AO2 SLP150 T01061028 $
0196722868931382010010713537+33828-116500FM-15+0137KPSP V0203405N001552200059N0160935N5+01005-00285101535ADDAA101000095GA1025+028965999GD11991+0289659GF102991999999999999999999MA1101525099895REMMET10101/07/10 05:53:02 METAR KPSP 071353Z 34003KT 10SM FEW095 10/M03 A2998 RMK AO2 SLP153 T01001028 $ (MD)
0215722868931382010010714537+33828-116500FM-15+0137KPSP V0202605N001552200059N0160935N5+00835+00065101605ADDAA101000095GA1045+045725999GD12991+0457259GF104991999999999999999999MA1101595099955MD1390079+9999REMMET10601/07/10 06:53:02 METAR KPSP 071453Z 26003KT 10SM SCT150 08/01 A3000 RMK AO2 SLP160 T00830006 53007 $ (MD)
0193722868931382010010715537+33828-116500FM-15+0137KPSP V0200505N001552200059N0160935N5+01005+00065101655ADDAA101000095GA1025+028965999GD11991+0289659GF102991999999999999999999MA1101635099995REMMET09801/07/10 07:53:02 METAR KPSP 071553Z 05003KT 10SM FEW095 10/01 A3001 RMK AO2 SLP165 T01000006 (MD)
0195722868931382010010716537+33828-116500FM-15+0137KPSP V0209999C000052200059N0160935N5+01615-00285101685ADDAA101000095GF100991999999999999999999MA1101695100055REMMET09601/07/10 08:53:02 METAR KPSP 071653Z 00000KT 10SM CLR 16/M03 A3003 RMK AO2 SLP168 T01611028 (MD)EQDQ01    099SCCGD1P01    003SCCGA1
0253722868931382010010717537+33828-116500FM-15+0137KPSP V0209999C000052200059N0160935N5+01675-00225101745ADDAA101000095GF100991999999999999999999KA1999M+01671KA2999N+00781MA1101735100095MD1390149+9999REMMET11401/07/10 09:53:02 METAR KPSP 071753Z 00000KT 10SM CLR 17/M02 A3004 RMK AO2 SLP174 T01671022 10167 20078 53014 (MD)EQDQ01    099SCCGD1P01    003SCCGA1
0194722868931382010010718537+33828-116500FM-15+0137KPSP V0209999C000052200059N0160935N5+01835-00175101705ADDAA101000095GA1025+076205999GD11991+0762059GF102991999999999999999999MA1101695100055REMMET09901/07/10 10:53:02 METAR KPSP 071853Z 00000KT 10SM FEW250 18/M02 A3003 RMK AO2 SLP170 T01831017 (MD)
0195722868931382010010719537+33828-116500FM-15+0137KPSP V0201005N002652200059N0160935N5+02115-00395101585ADDAA101000095GF100991999999999999999999MA1101595099955REMMET09601/07/10 11:53:02 METAR KPSP 071953Z 10005KT 10SM CLR 21/M04 A3000 RMK AO2 SLP158 T02111039 (MD)EQDQ01    099SCCGD1P01    003SCCGA1
0215722868931382010010720537+33828-116500FM-15+0137KPSP V0201705N001552200059N0160935N5+02175-00285101485ADDAA101000095GF100991999999999999999999MA1101495099855MD1890249+9999REMMET10201/07/10 12:53:02 METAR KPSP 072053Z 17003KT 10SM CLR 22/M03 A2997 RMK AO2 SLP148 T02171028 58024 (MD)EQDQ01    099SCCGD1P01    003SCCGA1
0195722868931382010010721537+33828-116500FM-15+0137KPSP V0209999C000052200059N0160935N5+02285-00335101445ADDAA101000095GF100991999999999999999999MA1101465099825REMMET09601/07/10 13:53:02 METAR KPSP 072153Z 00000KT 10SM CLR 23/M03 A2996 RMK AO2 SLP144 T02281033 (MD)EQDQ01    099SCCGD1P01    003SCCGA1
0195722868931382010010722537+33828-116500FM-15+0137KPSP V0201005N002152200059N0160935N5+02335-00225101455ADDAA101000095GF100991999999999999999999MA1101465099825REMMET09601/07/10 14:53:02 METAR KPSP 072253Z 10004KT 10SM CLR 23/M02 A2996 RMK AO2 SLP145 T02331022 (LB)EQDQ01    099SCCGD1P01    003SCCGA1
0253722868931382010010723537+33828-116500FM-15+0137KPSP V0201205N002152200059N0160935N5+02225-00115101475ADDAA101000095GF100991999999999999999999KA1999M+02331KA2999N+01671MA1101465099825MD1590039+9999REMMET11401/07/10 15:53:02 METAR KPSP 072353Z 12004KT 10SM CLR 22/M01 A2996 RMK AO2 SLP147 T02221011 10233 20167 55003 (MX)EQDQ01    099SCCGD1P01    003SCCGA1
0190722868931382010010800537+33828-116500FM-15+0137KPSP V0209999C000052200059N0160935N5+01945-00065101505ADDAA101000095GF100991999999999999999999MA1101495099855REMMET09101/07/10 16:53:02 METAR KPSP 080053Z 00000KT 10SM CLR 19/M01 A2997 RMK AO2 SLP150 T01941006EQDQ01    099SCCGD1P01    003SCCGA1
0189722868931382010010801537+33828-116500FM-15+0137KPSP V0202405N001552200059N0160935N5+01725+00225101565ADDAA101000095GF100991999999999999999999MA1101565099925REMMET09001/07/10 17:53:02 METAR KPSP 080153Z 24003KT 10SM CLR 17/02 A2999 RMK AO2 SLP156 T01720022EQDQ01    099SCCGD1P01    003SCCGA1
0209722868931382010010802537+33828-116500FM-15+0137KPSP V0203305N002152200059N0160935N5+01565+00065101635ADDAA101000095GF100991999999999999999999MA1101635099995MD1390159+9999REMMET09601/07/10 18:53:01 METAR KPSP 080253Z 33004KT 10SM CLR 16/01 A3001 RMK AO2 SLP163 T01560006 53015EQDQ01    099SCCGD1P01    003SCCGA1
0192722868931382010010803537+33828-116500FM-15+0137KPSP V0203305N002652200059N0160935N5+01505-00065101685ADDAA101000095GF100991999999999999999999MA1101665100025REMMET09301/07/10 19:53:01 METAR KPSP 080353Z 33005KT 10SM CLR 15/M01 A3002 RMK AO2 SLP168 T01501006 $EQDQ01    099SCCGD1P01    003SCCGA1
0191722868931382010010804537+33828-116500FM-15+0137KPSP V0203205N001552200059N0160935N5+01335+00065101725ADDAA101000095GF100991999999999999999999MA1101735100095REMMET09201/07/10 20:53:02 METAR KPSP 080453Z 32003KT 10SM CLR 13/01 A3004 RMK AO2 SLP172 T01330006 $EQDQ01    099SCCGD1P01    003SCCGA1
0248722868931382010010805537+33828-116500FM-15+0137KPSP V0209999V002152200059N0160935N5+01225+00115101745ADDAA101000095GA1025+028965999GD11991+0289659GF102991999999999999999999KA1999M+02221KA2999N+01221MA1101735100095MD1190129+9999REMMET11301/07/10 21:53:02 METAR KPSP 080553Z VRB04KT 10SM FEW095 12/01 A3004 RMK AO2 SLP174 T01220011 10222 20122 51012 $
0190722868931382010010806537+33828-116500FM-15+0137KPSP V0203305N002652200059N0160935N5+01225+00065101755ADDAA101000095GA1025+028965999GD11991+0289659GF102991999999999999999999MA1101765100125REMMET09501/07/10 22:53:02 METAR KPSP 080653Z 33005KT 10SM FEW095 12/01 A3005 RMK AO2 SLP175 T01220006 $
0200722868931382010010807537+33828-116500FM-15+0137KPSP V0203205N001552200059N0160935N5+01225+00065101745ADDAA101000095GA1025+027435999GD11991+0274359GF102991999999999999999999MA1101765100125REMMET10501/07/10 23:53:02 METAR KPSP 080753Z 32003KT 10SM FEW090 12/01 A3005 RMK AO2 SLP174 T01220006 402330078 $
0910722868931382010010807596+33828-116500SOD  +0137KPSP V020999999999999999999999999999+99999+99999999999ADDAA124000095KA1240M+02335KA2240N+00785MG1099974101464OE11240062633004225OE22240053633004235OE33240017499999995REMSOD75424 HR PRECIPITATION (IN):0.00  24 HR MAX TEMP (F):74 24 HR MAX TEMP TIME (LST):1507 24 HR MIN TEMP (F):46 24 HR MIN TEMP TIME (LST):0715 AVERAGE STATION PRESSURE:29.520 MINIMUM SEA LEVEL PRESSURE:29.96 TIME OF OCCURRENCE:1602 PEAK WIND SPEED (MPH):14  PEAK WIND DIR (DEG):330 PEAK WIND TIME (LST):0422  FASTEST 2MIN SPEED (MPH):12 FASTEST 2MIN DIR (DEG):330 FASTEST 2MIN TIME (LST):0423 AVERAGE WIND SPEED (MPH):3.9  24 HR AVG TEMP (F):60 DEPART FROM NORMAL: +4  HEATING DEGREE DAYS:5   COOLING DEGREE DAYS:0   LATEST DAY MAX TEMP (0700-1900 LST):74  LATEST NIGHT MIN TEMP(1900-0800 LST):46 HOURLY INCREMENTAL PRECIPITATION VALUES (IN):.00 0.00 0.00 0.00 0.00 0.00 0.00 0.00 0.00 0.00 0.00 0.00 0.00 0.00 0.00 0.00 0.00 0.00 0.00 0.00 0.00 0.00 0.00 0.00EQDR01     N7GJS072R02     N7GKS075
0211722868931382010010808537+33828-116500FM-15+0137KPSP V0209999C000052200059N0160935N5+01005+00225101725ADDAA101000095GF100991999999999999999999MA1101735100095MD1890029+9999REMMET09801/08/10 00:53:02 METAR KPSP 080853Z 00000KT 10SM CLR 10/02 A3004 RMK AO2 SLP172 T01000022 58002 $EQDQ01    099SCCGD1P01    003SCCGA1
0190722868931382010010809537+33828-116500FM-15+0137KPSP V0203005N002652200059N0160935N5+01335+00065101765ADDAA101000095GA1025+028965999GD11991+0289659GF102991999999999999999999MA1101765100125REMMET09501/08/10 01:53:02 METAR KPSP 080953Z 30005KT 10SM FEW095 13/01 A3005 RMK AO2 SLP176 T01330006 $
0191722868931382010010810537+33828-116500FM-15+0137KPSP V0202805N001552200059N0160935N5+01225+00065101755ADDAA101000095GF100991999999999999999999MA1101765100125REMMET09201/08/10 02:53:02 METAR KPSP 081053Z 28003KT 10SM CLR 12/01 A3005 RMK AO2 SLP175 T01220006 $EQDQ01    099SCCGD1P01    003SCCGA1
0249722868931382010010811537+33828-116500FM-15+0137KPSP V0203305N002152200059N0160935N5+01225+00115101795ADDAA101000095GF100991999999999999999999KA1999M+01391KA2999N+00941MA1101795100155MD1190079+9999REMMET11001/08/10 03:53:02 METAR KPSP 081153Z 33004KT 10SM CLR 12/01 A3006 RMK AO2 SLP179 T01220011 10139 20094 51007 $EQDQ01    099SCCGD1P01    003SCCGA1
0191722868931382010010812537+33828-116500FM-15+0137KPSP V0209999C000052200059N0160935N5+01225+00115101815ADDAA101000095GF100991999999999999999999MA1101835100195REMMET09201/08/10 04:53:02 METAR KPSP 081253Z 00000KT 10SM CLR 12/01 A3007 RMK AO2 SLP181 T01220011 $EQDQ01    099SCCGD1P01    003SCCGA1
0195722868931382010010813537+33828-116500FM-15+0137KPSP V0203305N002652200059N0160935N5+01115+00175101885ADDAA101000095GA1045+060965999GD12991+0609659GF104991999999999999999999MA1101905100255REMMET10001/08/10 05:53:02 METAR KPSP 081353Z 33005KT 10SM SCT200 11/02 A3009 RMK AO2 SLP188 T01110017 $ (JB)
0215722868931382010010814537+33828-116500FM-15+0137KPSP V0209999C00005060965MN0160935N5+01285+00175101995ADDAA101000095GA1075+060965999GD13991+0609659GF107991999999999999999999MA1102005100355MD1390199+9999REMMET10601/08/10 06:53:02 METAR KPSP 081453Z 00000KT 10SM BKN200 13/02 A3012 RMK AO2 SLP199 T01280017 53019 $ (JB)
0233722868931382010010815537+33828-116500FM-15+0137KPSP V0203205N00155076205MN0160935N5+01445+00175102045ADDAA101000095GA1045+030485999GA2075+076205999GD12991+0304859GD23991+0762059GF107991999999999999999999MA1102035100395REMMET10701/08/10 07:53:02 METAR KPSP 081553Z 32003KT 10SM SCT100 BKN250 14/02 A3013 RMK AO2 SLP204 T01440017 $ (JB)
0195722868931382010010816537+33828-116500FM-15+0137KPSP V0200405N001552200059N0160935N5+01565+00335102135ADDAA101000095GA1045+076205999GD12991+0762059GF104991999999999999999999MA1102135100495REMMET10001/08/10 08:53:02 METAR KPSP 081653Z 04003KT 10SM SCT250 16/03 A3016 RMK AO2 SLP213 T01560033 $ (JB)
0291722868931382010010817537+33828-116500FM-15+0137KPSP V0209999C00005076205MN0160935N5+02005+00225102175ADDAA101000095GA1025+030485999GA2075+076205999GD11991+0304859GD23991+0762059GF107991999999999999999999KA1999M+02001KA2999N+01111MA1102175100525MD1190189+9999REMMET12501/08/10 09:53:02 METAR KPSP 081753Z 00000KT 10SM FEW100 BKN250 20/02 A3017 RMK AO2 SLP217 T02000022 10200 20111 51018 $ (JB)
0231722868931382010010818537+33828-116500FM-15+0137KPSP V0209999C00005076205MN0160935N5+02175+00115102125ADDAA101000095GA1025+030485999GA2075+076205999GD11991+0304859GD23991+0762059GF107991999999999999999999MA1102135100495REMMET10501/08/10 10:53:02 METAR KPSP 081853Z 00000KT 10SM FEW100 BKN250 22/01 A3016 RMK AO2 SLP212 T02170011 (JB)
0193722868931382010010819537+33828-116500FM-15+0137KPSP V0201305N00215054865MN0160935N5+02225+00115102045ADDAA101000095GA1075+054865999GD13991+0548659GF107991999999999999999999MA1102075100425REMMET09801/08/10 11:53:02 METAR KPSP 081953Z 13004KT 10SM BKN180 22/01 A3014 RMK AO2 SLP204 T02220011 (JB)
0251722868931382010010820537+33828-116500FM-15+0137KPSP V0201105N00215054865MN0160935N5+02225+00065102005ADDAA101000095GA1075+054865999GA2075+076205999GD13991+0548659GD23991+0762059GF107991999999999999999999MA1102005100355MD1890179+9999REMMET11101/08/10 12:53:02 METAR KPSP 082053Z 11004KT 10SM BKN180 BKN250 22/01 A3012 RMK AO2 SLP200 T02220006 58017 (CZ)
0231722868931382010010821537+33828-116500FM-15+0137KPSP V0201205N00215048775MN0160935N5+02225+00115101955ADDAA101000095GA1075+048775999GA2085+067065999GD13991+0487759GD24991+0670659GF108991999999999999999999MA1101965100325REMMET10501/08/10 13:53:02 METAR KPSP 082153Z 12004KT 10SM BKN160 OVC220 22/01 A3011 RMK AO2 SLP195 T02220011 (CZ)
0193722868931382010010822537+33828-116500FM-15+0137KPSP V0201105N00365048775MN0160935N5+02225+00175101975ADDAA101000095GA1085+048775999GD14991+0487759GF108991999999999999999999MA1102005100355REMMET09801/08/10 14:53:02 METAR KPSP 082253Z 11007KT 10SM OVC160 22/02 A3012 RMK AO2 SLP197 T02220017 (CZ)
0251722868931382010010823537+33828-116500FM-15+0137KPSP V0201205N00315048775MN0160935N5+02115+00065102025ADDAA101000095GA1085+048775999GD14991+0487759GF108991999999999999999999KA1999M+02281KA2999N+01941MA1102035100395MD1390039+9999REMMET11601/08/10 15:53:02 METAR KPSP 082353Z 12006KT 10SM OVC160 21/01 A3013 RMK AO2 SLP202 T02110006 10228 20194 53003 (CZ)
0226722868931382010010900537+33828-116500FM-15+0137KPSP V0200905N00155060965MN0160935N5+01945+00225102065ADDAA101000095GA1045+048775999GA2075+060965999GD12991+0487759GD23991+0609659GF107991999999999999999999MA1102075100425REMMET10001/08/10 16:53:01 METAR KPSP 090053Z 09003KT 10SM SCT160 BKN200 19/02 A3014 RMK AO2 SLP206 T01940022
0189722868931382010010901537+33828-116500FM-15+0137KPSP V0209999C000052200059N0160935N5+01835+00225102105ADDAA101000095GF100991999999999999999999MA1102105100455REMMET09001/08/10 17:53:01 METAR KPSP 090153Z 00000KT 10SM CLR 18/02 A3015 RMK AO2 SLP210 T01830022EQDQ01    099SCCGD1P01    003SCCGA1
0209722868931382010010902537+33828-116500FM-15+0137KPSP V0203505N001552200059N0160935N5+01615+00285102165ADDAA101000095GF100991999999999999999999MA1102175100525MD1390139+9999REMMET09601/08/10 18:53:01 METAR KPSP 090253Z 35003KT 10SM CLR 16/03 A3017 RMK AO2 SLP216 T01610028 53013EQDQ01    099SCCGD1P01    003SCCGA1
0189722868931382010010903537+33828-116500FM-15+0137KPSP V0203405N002152200059N0160935N5+01505+00225102195ADDAA101000095GF100991999999999999999999MA1102205100555REMMET09001/08/10 19:53:01 METAR KPSP 090353Z 34004KT 10SM CLR 15/02 A3018 RMK AO2 SLP219 T01500022EQDQ01    099SCCGD1P01    003SCCGA1
0189722868931382010010904537+33828-116500FM-15+0137KPSP V0203305N001552200059N0160935N5+01395+00285102245ADDAA101000095GF100991999999999999999999MA1102245100595REMMET09001/08/10 20:53:02 METAR KPSP 090453Z 33003KT 10SM CLR 14/03 A3019 RMK AO2 SLP224 T01390028EQDQ01    099SCCGD1P01    003SCCGA1
0247722868931382010010905537+33828-116500FM-15+0137KPSP V0203305N003152200059N0160935N5+01335+00005102285ADDAA101000095GF100991999999999999999999KA1999M+02111KA2999N+01331MA1102305100655MD1390139+9999REMMET10801/08/10 21:53:02 METAR KPSP 090553Z 33006KT 10SM CLR 13/00 A3021 RMK AO2 SLP228 T01330000 10211 20133 53013EQDQ01    099SCCGD1P01    003SCCGA1
0189722868931382010010906537+33828-116500FM-15+0137KPSP V0203005N001552200059N0160935N5+01335+00175102295ADDAA101000095GF100991999999999999999999MA1102305100655REMMET09001/08/10 22:53:02 METAR KPSP 090653Z 30003KT 10SM CLR 13/02 A3021 RMK AO2 SLP229 T01330017EQDQ01    099SCCGD1P01    003SCCGA1
0198722868931382010010907537+33828-116500FM-15+0137KPSP V0203005N002152200059N0160935N5+01285+00225102265ADDAA101000095GA1025+027435999GD11991+0274359GF102991999999999999999999MA1102275100625REMMET10301/08/10 23:53:01 METAR KPSP 090753Z 30004KT 10SM FEW090 13/02 A3020 RMK AO2 SLP226 T01280022 402280094
0910722868931382010010907596+33828-116500SOD  +0137KPSP V020999999999999999999999999999+99999+99999999999ADDAA124000095KA1240M+02285KA2240N+00945MG1100414101694OE11240058110015385OE22240044712015335OE33240015699999995REMSOD75424 HR PRECIPITATION (IN):0.00  24 HR MAX TEMP (F):73 24 HR MAX TEMP TIME (LST):1446 24 HR MIN TEMP (F):49 24 HR MIN TEMP TIME (LST):0113 AVERAGE STATION PRESSURE:29.650 MINIMUM SEA LEVEL PRESSURE:30.03 TIME OF OCCURRENCE:0033 PEAK WIND SPEED (MPH):13  PEAK WIND DIR (DEG):100 PEAK WIND TIME (LST):1538  FASTEST 2MIN SPEED (MPH):10 FASTEST 2MIN DIR (DEG):120 FASTEST 2MIN TIME (LST):1533 AVERAGE WIND SPEED (MPH):3.5  24 HR AVG TEMP (F):61 DEPART FROM NORMAL: +5  HEATING DEGREE DAYS:4   COOLING DEGREE DAYS:0   LATEST DAY MAX TEMP (0700-1900 LST):73  LATEST NIGHT MIN TEMP(1900-0800 LST):49 HOURLY INCREMENTAL PRECIPITATION VALUES (IN):.00 0.00 0.00 0.00 0.00 0.00 0.00 0.00 0.00 0.00 0.00 0.00 0.00 0.00 0.00 0.00 0.00 0.00 0.00 0.00 0.00 0.00 0.00 0.00EQDR01     N7GJS072R02     N7GKS075
0208722868931382010010908537+33828-116500FM-15+0137KPSP V0203205N002652200059N0160935N5+01175+00115102265ADDAA101000095GA1025+027435999GD11991+0274359GF102991999999999999999999MA1102275100625MD1890029+9999REMMET09901/09/10 00:53:02 METAR KPSP 090853Z 32005KT 10SM FEW090 12/01 A3020 RMK AO2 SLP226 T01170011 58002
0189722868931382010010909537+33828-116500FM-15+0137KPSP V0209999C000052200059N0160935N5+01065+00115102245ADDAA101000095GF100991999999999999999999MA1102245100595REMMET09001/09/10 01:53:02 METAR KPSP 090953Z 00000KT 10SM CLR 11/01 A3019 RMK AO2 SLP224 T01060011EQDQ01    099SCCGD1P01    003SCCGA1
0188722868931382010010910537+33828-116500FM-15+0137KPSP V0209999C000052200059N0160935N5+01115+00115102265ADDAA101000095GA1025+027435999GD11991+0274359GF102991999999999999999999MA1102275100625REMMET09301/09/10 02:53:02 METAR KPSP 091053Z 00000KT 10SM FEW090 11/01 A3020 RMK AO2 SLP226 T01110011
0246722868931382010010911537+33828-116500FM-15+0137KPSP V0203305N003152200059N0160935N5+01005+00065102235ADDAA101000095GA1025+028965999GD11991+0289659GF102991999999999999999999KA1999M+01441KA2999N+00941MA1102245100595MD1890039+9999REMMET11101/09/10 03:53:02 METAR KPSP 091153Z 33006KT 10SM FEW095 10/01 A3019 RMK AO2 SLP223 T01000006 10144 20094 58003
0190722868931382010010912537+33828-116500FM-15+0137KPSP V0203305N002652200059N0160935N5+01005-00065102245ADDAA101000095GF100991999999999999999999MA1102245100595REMMET09101/09/10 04:53:02 METAR KPSP 091253Z 33005KT 10SM CLR 10/M01 A3019 RMK AO2 SLP224 T01001006EQDQ01    099SCCGD1P01    003SCCGA1
0194722868931382010010913537+33828-116500FM-15+0137KPSP V0203205N002652200059N0160935N5+00945+00065102275ADDAA101000095GF100991999999999999999999MA1102275100625REMMET09501/09/10 05:53:02 METAR KPSP 091353Z 32005KT 10SM CLR 09/01 A3020 RMK AO2 SLP227 T00940006 (AF)EQDQ01    099SCCGD1P01    003SCCGA1
0214722868931382010010914537+33828-116500FM-15+0137KPSP V0203405N002652200059N0160935N5+00895+00005102325ADDAA101000095GF100991999999999999999999MA1102305100655MD1390089+9999REMMET10101/09/10 06:53:02 METAR KPSP 091453Z 34005KT 10SM CLR 09/00 A3021 RMK AO2 SLP232 T00890000 53008 (AF)EQDQ01    099SCCGD1P01    003SCCGA1
0194722868931382010010915537+33828-116500FM-15+0137KPSP V0203205N001552200059N0160935N5+01175+00065102355ADDAA101000095GF100991999999999999999999MA1102345100695REMMET09501/09/10 07:53:02 METAR KPSP 091553Z 32003KT 10SM CLR 12/01 A3022 RMK AO2 SLP235 T01170006 (AF)EQDQ01    099SCCGD1P01    003SCCGA1
0194722868931382010010916537+33828-116500FM-15+0137KPSP V0209999C000052200059N0160935N5+01505+00115102385ADDAA101000095GF100991999999999999999999MA1102375100725REMMET09501/09/10 08:53:02 METAR KPSP 091653Z 00000KT 10SM CLR 15/01 A3023 RMK AO2 SLP238 T01500011 (AF)EQDQ01    099SCCGD1P01    003SCCGA1
0252722868931382010010917537+33828-116500FM-15+0137KPSP V0209999C000052200059N0160935N5+01835+00115102405ADDAA101000095GF100991999999999999999999KA1999M+01831KA2999N+00891MA1102405100755MD1190099+9999REMMET11301/09/10 09:53:02 METAR KPSP 091753Z 00000KT 10SM CLR 18/01 A3024 RMK AO2 SLP240 T01830011 10183 20089 51009 (AF)EQDQ01    099SCCGD1P01    003SCCGA1
0195722868931382010010918537+33828-116500FM-15+0137KPSP V0209999C000052200059N0160935N5+02005-00225102335ADDAA101000095GF100991999999999999999999MA1102345100695REMMET09601/09/10 10:53:02 METAR KPSP 091853Z 00000KT 10SM CLR 20/M02 A3022 RMK AO2 SLP233 T02001022 (AF)EQDQ01    099SCCGD1P01    003SCCGA1
0195722868931382010010919537+33828-116500FM-15+0137KPSP V0209999C000052200059N0160935N5+02065-00115102245ADDAA101000095GF100991999999999999999999MA1102245100595REMMET09601/09/10 11:53:02 METAR KPSP 091953Z 00000KT 10SM CLR 21/M01 A3019 RMK AO2 SLP224 T02061011 (AF)EQDQ01    099SCCGD1P01    003SCCGA1
0215722868931382010010920537+33828-116500FM-15+0137KPSP V0209999C000052200059N0160935N5+02175-00065102135ADDAA101000095GF100991999999999999999999MA1102135100495MD1890269+9999REMMET10201/09/10 12:53:02 METAR KPSP 092053Z 00000KT 10SM CLR 22/M01 A3016 RMK AO2 SLP213 T02171006 58026 (AF)EQDQ01    099SCCGD1P01    003SCCGA1
0194722868931382010010921537+33828-116500FM-15+0137KPSP V0201305N00315060965MN0160935N5+02175-00175102075ADDAA101000095GA1075+060965999GD13991+0609659GF107991999999999999999999MA1102075100425REMMET09901/09/10 13:53:02 METAR KPSP 092153Z 13006KT 10SM BKN200 22/M02 A3014 RMK AO2 SLP207 T02171017 (MX)
0196722868931382010010922537+33828-116500FM-15+0137KPSP V0201005N00265060965MN0160935N5+02175-00115102035ADDAA101000095GA1075+060965999GD13991+0609659GF107991999999999999999999MA1102035100395REMMET10101/09/10 14:53:02 METAR KPSP 092253Z 10005KT 10SM BKN200 22/M01 A3013 RMK AO2 SLP203 T02171011 $ (MX)
0255722868931382010010923537+33828-116500FM-15+0137KPSP V0201205N002652200059N0160935N5+02115-00225102025ADDAA101000095GF100991999999999999999999KA1999M+02221KA2999N+01831MA1102035100395MD1690119+9999REMMET11601/09/10 15:53:02 METAR KPSP 092353Z 12005KT 10SM CLR 21/M02 A3013 RMK AO2 SLP202 T02111022 10222 20183 56011 $ (MX)EQDQ01    099SCCGD1P01    003SCCGA1
0229722868931382010011000537+33828-116500FM-15+0137KPSP V0209999C00005060965MN0160935N5+01945-00065102035ADDAA101000095GA1025+045725999GA2075+060965999GD11991+0457259GD23991+0609659GF107991999999999999999999MA1102035100395REMMET10301/09/10 16:53:01 METAR KPSP 100053Z 00000KT 10SM FEW150 BKN200 19/M01 A3013 RMK AO2 SLP203 T01941006 $
0191722868931382010011001537+33828-116500FM-15+0137KPSP V0209999C000052200059N0160935N5+01725+00285102055ADDAA101000095GF100991999999999999999999MA1102075100425REMMET09201/09/10 17:53:01 METAR KPSP 100153Z 00000KT 10SM CLR 17/03 A3014 RMK AO2 SLP205 T01720028 $EQDQ01    099SCCGD1P01    003SCCGA1
0211722868931382010011002537+33828-116500FM-15+0137KPSP V0203305N003652200059N0160935N5+01565+00115102105ADDAA101000095GF100991999999999999999999MA1102105100455MD1390079+9999REMMET09801/09/10 18:53:01 METAR KPSP 100253Z 33007KT 10SM CLR 16/01 A3015 RMK AO2 SLP210 T01560011 53007 $EQDQ01    099SCCGD1P01    003SCCGA1
0192722868931382010011003537+33828-116500FM-15+0137KPSP V0203105N002152200059N0160935N5+01565-00065102105ADDAA101000095GF100991999999999999999999MA1102105100455REMMET09301/09/10 19:53:02 METAR KPSP 100353Z 31004KT 10SM CLR 16/M01 A3015 RMK AO2 SLP210 T01561006 $EQDQ01    099SCCGD1P01    003SCCGA1
0191722868931382010011004537+33828-116500FM-15+0137KPSP V0203205N001552200059N0160935N5+01445+00005102115ADDAA101000095GF100991999999999999999999MA1102105100455REMMET09201/09/10 20:53:02 METAR KPSP 100453Z 32003KT 10SM CLR 14/00 A3015 RMK AO2 SLP211 T01440000 $EQDQ01    099SCCGD1P01    003SCCGA1
0249722868931382010011005537+33828-116500FM-15+0137KPSP V0203105N001552200059N0160935N5+01395+00115102135ADDAA101000095GF100991999999999999999999KA1999M+02111KA2999N+01331MA1102135100495MD1390049+9999REMMET11001/09/10 21:53:02 METAR KPSP 100553Z 31003KT 10SM CLR 14/01 A3016 RMK AO2 SLP213 T01390011 10211 20133 53004 $EQDQ01    099SCCGD1P01    003SCCGA1
0196722868931382010011006537+33828-116500FM-15+0137KPSP V0203305N002152200059N0160935N5+01335+00225102105ADDAA101000095GF100991999999999999999999MA1102105100455REMMET09701/09/10 22:53:02 METAR KPSP 100653Z 33004KT 10SM CLR 13/02 A3015 RMK AO2 SLP210 T01330022 TSNO $EQDQ01    099SCCGD1P01    003SCCGA1
0206722868931382010011007537+33828-116500FM-15+0137KPSP V0209999C000052200059N0160935N5+01395+00115102085ADDAA101000095GF100991999999999999999999MA1102105100455REMMET10701/09/10 23:53:01 METAR KPSP 100753Z 00000KT 10SM CLR 14/01 A3015 RMK AO2 SLP208 T01390011 402220089 TSNO $EQDQ01    099SCCGD1P01    003SCCGA1
0910722868931382010011007596+33828-116500SOD  +0137KPSP V020999999999999999999999999999+99999+99999999999ADDAA124000095KA1240M+02225KA2240N+00895MG1100524102004OE11240053615014185OE22240040233018585OE33240014399999995REMSOD75424 HR PRECIPITATION (IN):0.00  24 HR MAX TEMP (F):72 24 HR MAX TEMP TIME (LST):1434 24 HR MIN TEMP (F):48 24 HR MIN TEMP TIME (LST):0722 AVERAGE STATION PRESSURE:29.685 MINIMUM SEA LEVEL PRESSURE:30.12 TIME OF OCCURRENCE:1542 PEAK WIND SPEED (MPH):12  PEAK WIND DIR (DEG):150 PEAK WIND TIME (LST):1418  FASTEST 2MIN SPEED (MPH):9  FASTEST 2MIN DIR (DEG):330 FASTEST 2MIN TIME (LST):1858 AVERAGE WIND SPEED (MPH):3.2  24 HR AVG TEMP (F):60 DEPART FROM NORMAL: +3  HEATING DEGREE DAYS:5   COOLING DEGREE DAYS:0   LATEST DAY MAX TEMP (0700-1900 LST):72  LATEST NIGHT MIN TEMP(1900-0800 LST):48 HOURLY INCREMENTAL PRECIPITATION VALUES (IN):.00 0.00 0.00 0.00 0.00 0.00 0.00 0.00 0.00 0.00 0.00 0.00 0.00 0.00 0.00 0.00 0.00 0.00 0.00 0.00 0.00 0.00 0.00 0.00EQDR01     N7GJS072R02     N7GKS075
0216722868931382010011008537+33828-116500FM-15+0137KPSP V0203305N002652200059N0160935N5+01285+00005102025ADDAA101000095GF100991999999999999999999MA1102035100395MD1890109+9999REMMET10301/10/10 00:53:02 METAR KPSP 100853Z 33005KT 10SM CLR 13/00 A3013 RMK AO2 SLP202 T01280000 58010 TSNO $EQDQ01    099SCCGD1P01    003SCCGA1
0196722868931382010011009537+33828-116500FM-15+0137KPSP V0209999C000052200059N0160935N5+01225+00285101995ADDAA101000095GF100991999999999999999999MA1102005100355REMMET09701/10/10 01:53:02 METAR KPSP 100953Z 00000KT 10SM CLR 12/03 A3012 RMK AO2 SLP199 T01220028 TSNO $EQDQ01    099SCCGD1P01    003SCCGA1
0197722868931382010011010537+33828-116500FM-15+0137KPSP V0203205N002652200059N0160935N5+01285-00175102025ADDAA101000095GF100991999999999999999999MA1102035100395REMMET09801/10/10 02:53:02 METAR KPSP 101053Z 32005KT 10SM CLR 13/M02 A3013 RMK AO2 SLP202 T01281017 TSNO $EQDQ01    099SCCGD1P01    003SCCGA1
0254722868931382010011011537+33828-116500FM-15+0137KPSP V0202505N002652200059N0160935N5+01175+00115101995ADDAA101000095GF100991999999999999999999KA1999M+01391KA2999N+01111MA1102005100355MD1690039+9999REMMET11501/10/10 03:53:02 METAR KPSP 101153Z 25005KT 10SM CLR 12/01 A3012 RMK AO2 SLP199 T01170011 10139 20111 56003 TSNO $EQDQ01    099SCCGD1P01    003SCCGA1
0197722868931382010011012537+33828-116500FM-15+0137KPSP V0203205N003152200059N0160935N5+01005-00065102025ADDAA101000095GF100991999999999999999999MA1102035100395REMMET09801/10/10 04:53:02 METAR KPSP 101253Z 32006KT 10SM CLR 10/M01 A3013 RMK AO2 SLP202 T01001006 TSNO $EQDQ01    099SCCGD1P01    003SCCGA1
0197722868931382010011013537+33828-116500FM-15+0137KPSP V0203305N001552200059N0160935N5+01005-00065102055ADDAA101000095GF100991999999999999999999MA1102035100395REMMET09801/10/10 05:53:02 METAR KPSP 101353Z 33003KT 10SM CLR 10/M01 A3013 RMK AO2 SLP205 T01001006 TSNO $EQDQ01    099SCCGD1P01    003SCCGA1
0217722868931382010011014537+33828-116500FM-15+0137KPSP V0203105N002652200059N0160935N5+01005-00175102105ADDAA101000095GF100991999999999999999999MA1102105100455MD1390099+9999REMMET10401/10/10 06:53:02 METAR KPSP 101453Z 31005KT 10SM CLR 10/M02 A3015 RMK AO2 SLP210 T01001017 53009 $ (CZ)EQDQ01    099SCCGD1P01    003SCCGA1
0197722868931382010011015537+33828-116500FM-15+0137KPSP V0203305N003652200059N0160935N5+01115-00175102135ADDAA101000095GF100991999999999999999999MA1102135100495REMMET09801/10/10 07:53:02 METAR KPSP 101553Z 33007KT 10SM CLR 11/M02 A3016 RMK AO2 SLP213 T01111017 $ (CZ)EQDQ01    099SCCGD1P01    003SCCGA1
0197722868931382010011016537+33828-116500FM-15+0137KPSP V0209999C000052200059N0160935N5+01565-00065102155ADDAA101000095GF100991999999999999999999MA1102135100495REMMET09801/10/10 08:53:02 METAR KPSP 101653Z 00000KT 10SM CLR 16/M01 A3016 RMK AO2 SLP215 T01561006 $ (CZ)EQDQ01    099SCCGD1P01    003SCCGA1
0255722868931382010011017537+33828-116500FM-15+0137KPSP V0209999C000052200059N0160935N5+01835-00115102185ADDAA101000095GF100991999999999999999999KA1999M+01831KA2999N+00831MA1102175100525MD1190099+9999REMMET11601/10/10 09:53:02 METAR KPSP 101753Z 00000KT 10SM CLR 18/M01 A3017 RMK AO2 SLP218 T01831011 10183 20083 51009 $ (CZ)EQDQ01    099SCCGD1P01    003SCCGA1
0197722868931382010011018537+33828-116500FM-15+0137KPSP V0209999C000052200059N0160935N5+02065-00285102105ADDAA101000095GF100991999999999999999999MA1102105100455REMMET09801/10/10 10:53:02 METAR KPSP 101853Z 00000KT 10SM CLR 21/M03 A3015 RMK AO2 SLP210 T02061028 $ (CZ)EQDQ01    099SCCGD1P01    003SCCGA1
0197722868931382010011019537+33828-116500FM-15+0137KPSP V0209999C000052200059N0160935N5+02175-00285101995ADDAA101000095GF100991999999999999999999MA1102005100355REMMET09801/10/10 11:53:02 METAR KPSP 101953Z 00000KT 10SM CLR 22/M03 A3012 RMK AO2 SLP199 T02171028 $ (CZ)EQDQ01    099SCCGD1P01    003SCCGA1
0217722868931382010011020537+33828-116500FM-15+0137KPSP V0201105N002152200059N0160935N5+02285-00285101885ADDAA101000095GF100991999999999999999999MA1101905100255MD1890289+9999REMMET10401/10/10 12:53:02 METAR KPSP 102053Z 11004KT 10SM CLR 23/M03 A3009 RMK AO2 SLP188 T02281028 58028 $ (CZ)EQDQ01    099SCCGD1P01    003SCCGA1
0197722868931382010011021537+33828-116500FM-15+0137KPSP V0201205N002652200059N0160935N5+02335-00175101845ADDAA101000095GF100991999999999999999999MA1101865100225REMMET09801/10/10 13:53:02 METAR KPSP 102153Z 12005KT 10SM CLR 23/M02 A3008 RMK AO2 SLP184 T02331017 $ (CZ)EQDQ01    099SCCGD1P01    003SCCGA1
0197722868931382010011022537+33828-116500FM-15+0137KPSP V0209999C000052200059N0160935N5+02335-00115101845ADDAA101000095GF100991999999999999999999MA1101865100225REMMET09801/10/10 14:53:02 METAR KPSP 102253Z 00000KT 10SM CLR 23/M01 A3008 RMK AO2 SLP184 T02331011 $ (CZ)EQDQ01    099SCCGD1P01    003SCCGA1
0255722868931382010011023537+33828-116500FM-15+0137KPSP V0201205N002152200059N0160935N5+02285-00445101855ADDAA101000095GF100991999999999999999999KA1999M+02391KA2999N+01831MA1101865100225MD1590039+9999REMMET11601/10/10 15:53:02 METAR KPSP 102353Z 12004KT 10SM CLR 23/M04 A3008 RMK AO2 SLP185 T02281044 10239 20183 55003 TSNO $EQDQ01    099SCCGD1P01    003SCCGA1
0197722868931382010011100537+33828-116500FM-15+0137KPSP V0209999C000052200059N0160935N5+02115-00445101905ADDAA101000095GF100991999999999999999999MA1101905100255REMMET09801/10/10 16:53:01 METAR KPSP 110053Z 00000KT 10SM CLR 21/M04 A3009 RMK AO2 SLP190 T02111044 TSNO $EQDQ01    099SCCGD1P01    003SCCGA1
0190722868931382010011101537+33828-116500FM-15+0137KPSP V0209999C000052200059N0160935N5+01725+00175101965ADDAA101000095GA1025+027435999GD11991+0274359GF102991999999999999999999MA1101965100325REMMET09501/10/10 17:53:01 METAR KPSP 110153Z 00000KT 10SM FEW090 17/02 A3011 RMK AO2 SLP196 T01720017 $
0211722868931382010011102537+33828-116500FM-15+0137KPSP V0203105N002152200059N0160935N5+01565+00005102035ADDAA101000095GF100991999999999999999999MA1102035100395MD1390169+9999REMMET09801/10/10 18:53:01 METAR KPSP 110253Z 31004KT 10SM CLR 16/00 A3013 RMK AO2 SLP203 T01560000 53016 $EQDQ01    099SCCGD1P01    003SCCGA1
0192722868931382010011103537+33828-116500FM-15+0137KPSP V0203105N003152200059N0160935N5+01505-00225102085ADDAA101000095GF100991999999999999999999MA1102075100425REMMET09301/10/10 19:53:02 METAR KPSP 110353Z 31006KT 10SM CLR 15/M02 A3014 RMK AO2 SLP208 T01501022 $EQDQ01    099SCCGD1P01    003SCCGA1
0192722868931382010011104537+33828-116500FM-15+0137KPSP V0203205N002652200059N0160935N5+01395-00175102125ADDAA101000095GF100991999999999999999999MA1102105100455REMMET09301/10/10 20:53:02 METAR KPSP 110453Z 32005KT 10SM CLR 14/M02 A3015 RMK AO2 SLP212 T01391017 $EQDQ01    099SCCGD1P01    003SCCGA1
0250722868931382010011105537+33828-116500FM-15+0137KPSP V0203105N002152200059N0160935N5+01285-00225102145ADDAA101000095GF100991999999999999999999KA1999M+02281KA2999N+01221MA1102135100495MD1190129+9999REMMET11101/10/10 21:53:02 METAR KPSP 110553Z 31004KT 10SM CLR 13/M02 A3016 RMK AO2 SLP214 T01281022 10228 20122 51012 $EQDQ01    099SCCGD1P01    003SCCGA1
0191722868931382010011106537+33828-116500FM-15+0137KPSP V0203205N002652200059N0160935N5+01225-00225102105ADDAA101000095GA1025+027435999GD11991+0274359GF102991999999999999999999MA1102105100455REMMET09601/10/10 22:53:02 METAR KPSP 110653Z 32005KT 10SM FEW090 12/M02 A3015 RMK AO2 SLP210 T01221022 $
0202722868931382010011107537+33828-116500FM-15+0137KPSP V0203405N003652200059N0160935N5+01115-00225102065ADDAA101000095GF100991999999999999999999MA1102075100425REMMET10301/10/10 23:53:01 METAR KPSP 110753Z 34007KT 10SM CLR 11/M02 A3014 RMK AO2 SLP206 T01111022 402390083 $EQDQ01    099SCCGD1P01    003SCCGA1
0910722868931382010011107596+33828-116500SOD  +0137KPSP V020999999999999999999999999999+99999+99999999999ADDAA124000095KA1240M+02395KA2240N+00835MG1100374101834OE11240044734023505OE22240040233023445OE33240017099999995REMSOD75424 HR PRECIPITATION (IN):0.00  24 HR MAX TEMP (F):75 24 HR MAX TEMP TIME (LST):1526 24 HR MIN TEMP (F):47 24 HR MIN TEMP TIME (LST):0720 AVERAGE STATION PRESSURE:29.640 MINIMUM SEA LEVEL PRESSURE:30.07 TIME OF OCCURRENCE:1513 PEAK WIND SPEED (MPH):10  PEAK WIND DIR (DEG):340 PEAK WIND TIME (LST):2350  FASTEST 2MIN SPEED (MPH):9  FASTEST 2MIN DIR (DEG):330 FASTEST 2MIN TIME (LST):2344 AVERAGE WIND SPEED (MPH):3.8  24 HR AVG TEMP (F):61 DEPART FROM NORMAL: +4  HEATING DEGREE DAYS:4   COOLING DEGREE DAYS:0   LATEST DAY MAX TEMP (0700-1900 LST):75  LATEST NIGHT MIN TEMP(1900-0800 LST):47 HOURLY INCREMENTAL PRECIPITATION VALUES (IN):.00 0.00 0.00 0.00 0.00 0.00 0.00 0.00 0.00 0.00 0.00 0.00 0.00 0.00 0.00 0.00 0.00 0.00 0.00 0.00 0.00 0.00 0.00 0.00EQDR01     N7GJS072R02     N7GKS075
0212722868931382010011108537+33828-116500FM-15+0137KPSP V0209999C000052200059N0160935N5+01175-00285102085ADDAA101000095GF100991999999999999999999MA1102105100455MD1590059+9999REMMET09901/11/10 00:53:02 METAR KPSP 110853Z 00000KT 10SM CLR 12/M03 A3015 RMK AO2 SLP208 T01171028 55005 $EQDQ01    099SCCGD1P01    003SCCGA1
0192722868931382010011109537+33828-116500FM-15+0137KPSP V0202905N002652200059N0160935N5+01225-00335102105ADDAA101000095GF100991999999999999999999MA1102105100455REMMET09301/11/10 01:53:02 METAR KPSP 110953Z 29005KT 10SM CLR 12/M03 A3015 RMK AO2 SLP210 T01221033 $EQDQ01    099SCCGD1P01    003SCCGA1
0191722868931382010011110537+33828-116500FM-15+0137KPSP V0209999C000052200059N0160935N5+01175-00335102105ADDAA101000095GA1025+027435999GD11991+0274359GF102991999999999999999999MA1102105100455REMMET09601/11/10 02:53:02 METAR KPSP 111053Z 00000KT 10SM FEW090 12/M03 A3015 RMK AO2 SLP210 T01171033 $
0266722868931382010011111537+33828-116500FM-15+0137KPSP V0203205N002652200059N0160935N5+01285-00395102085ADDAA101000095GF100991999999999999999999KA1999M+01331KA2999N+00941MA1102105100455MD1890009+9999REMMET11101/11/10 03:53:02 METAR KPSP 111153Z 32005KT 10SM CLR 13/M04 A3015 RMK AO2 SLP208 T01281039 10133 20094 58000 $EQDQ01+000082APCTENQ02    099SCCGD1P01    003SCCGA1
0192722868931382010011112537+33828-116500FM-15+0137KPSP V0203105N002652200059N0160935N5+01225-00285102095ADDAA101000095GF100991999999999999999999MA1102105100455REMMET09301/11/10 04:53:02 METAR KPSP 111253Z 31005KT 10SM CLR 12/M03 A3015 RMK AO2 SLP209 T01221028 $EQDQ01    099SCCGD1P01    003SCCGA1
0197722868931382010011113537+33828-116500FM-15+0137KPSP V0209999C000052200059N0160935N5+00945-00115102145ADDAA101000095GF100991999999999999999999MA1102135100495REMMET09801/11/10 05:53:02 METAR KPSP 111353Z 00000KT 10SM CLR 09/M01 A3016 RMK AO2 SLP214 T00941011 $ (MX)EQDQ01    099SCCGD1P01    003SCCGA1
0216722868931382010011114537+33828-116500FM-15+0137KPSP V0203305N002152200059N0160935N5+01065-00175102185ADDAA101000095GA1025+076205999GD11991+0762059GF102991999999999999999999MA1102175100525MD1390089+9999REMMET10701/11/10 06:53:02 METAR KPSP 111453Z 33004KT 10SM FEW250 11/M02 A3017 RMK AO2 SLP218 T01061017 53008 $ (RW)
0194722868931382010011115537+33828-116500FM-15+0137KPSP V0203105N002652200059N0160935N5+01445-00335102225ADDAA101000095GA1025+076205999GD11991+0762059GF102991999999999999999999MA1102205100555REMMET09901/11/10 07:53:02 METAR KPSP 111553Z 31005KT 10SM FEW250 14/M03 A3018 RMK AO2 SLP222 T01441033 (RW)
0194722868931382010011116537+33828-116500FM-15+0137KPSP V0209999C000052200059N0160935N5+01785-00285102255ADDAA101000095GA1045+076205999GD12991+0762059GF104991999999999999999999MA1102245100595REMMET09901/11/10 08:53:02 METAR KPSP 111653Z 00000KT 10SM SCT250 18/M03 A3019 RMK AO2 SLP225 T01781028 (MX)
0252722868931382010011117537+33828-116500FM-15+0137KPSP V0209999C000052200059N0160935N5+02065-00335102255ADDAA101000095GA1045+076205999GD12991+0762059GF104991999999999999999999KA1999M+02061KA2999N+00781MA1102275100625MD1190089+9999REMMET11701/11/10 09:53:02 METAR KPSP 111753Z 00000KT 10SM SCT250 21/M03 A3020 RMK AO2 SLP225 T02061033 10206 20078 51008 (RW)
0194722868931382010011118537+33828-116500FM-15+0137KPSP V0201205N002152200059N0160935N5+02175-00065102215ADDAA101000095GA1045+076205999GD12991+0762059GF104991999999999999999999MA1102245100595REMMET09901/11/10 10:53:02 METAR KPSP 111853Z 12004KT 10SM SCT250 22/M01 A3019 RMK AO2 SLP221 T02171006 (RW)
0195722868931382010011119537+33828-116500FM-15+0137KPSP V0201105N002652200059N0160935N5+02335-00225102075ADDAA101000095GF100991999999999999999999MA1102075100425REMMET09601/11/10 11:53:02 METAR KPSP 111953Z 11005KT 10SM CLR 23/M02 A3014 RMK AO2 SLP207 T02331022 (RW)EQDQ01    099SCCGD1P01    003SCCGA1
0215722868931382010011120537+33828-116500FM-15+0137KPSP V0201105N003652200059N0160935N5+02395-00225101985ADDAA101000095GF100991999999999999999999MA1102005100355MD1890279+9999REMMET10201/11/10 12:53:02 METAR KPSP 112053Z 11007KT 10SM CLR 24/M02 A3012 RMK AO2 SLP198 T02391022 58027 (RW)EQDQ01    099SCCGD1P01    003SCCGA1
0195722868931382010011121537+33828-116500FM-15+0137KPSP V0200805N003652200059N0160935N5+02395-00285101945ADDAA101000095GF100991999999999999999999MA1101935100295REMMET09601/11/10 13:53:02 METAR KPSP 112153Z 08007KT 10SM CLR 24/M03 A3010 RMK AO2 SLP194 T02391028 (RW)EQDQ01    099SCCGD1P01    003SCCGA1
0195722868931382010011122537+33828-116500FM-15+0137KPSP V0201205N003152200059N0160935N5+02395-00225101935ADDAA101000095GF100991999999999999999999MA1101935100295REMMET09601/11/10 14:53:02 METAR KPSP 112253Z 12006KT 10SM CLR 24/M02 A3010 RMK AO2 SLP193 T02391022 (RW)EQDQ01    099SCCGD1P01    003SCCGA1
0253722868931382010011123537+33828-116500FM-15+0137KPSP V0201105N003152200059N0160935N5+02285-00225101955ADDAA101000095GF100991999999999999999999KA1999M+02441KA2999N+02061MA1101965100325MD1590029+9999REMMET11401/11/10 15:53:02 METAR KPSP 112353Z 11006KT 10SM CLR 23/M02 A3011 RMK AO2 SLP195 T02281022 10244 20206 55002 (RW)EQDQ01    099SCCGD1P01    003SCCGA1
0189722868931382010011200537+33828-116500FM-15+0137KPSP V0201205N002152200059N0160935N5+02065-00225101985ADDAA101000095GA1045+060965999GD12991+0609659GF104991999999999999999999MA1102005100355REMMET09401/11/10 16:53:02 METAR KPSP 120053Z 12004KT 10SM SCT200 21/M02 A3012 RMK AO2 SLP198 T02061022
0192722868931382010011201537+33828-116500FM-15+0137KPSP V0209999C000052200059N0160935N5+01945-00225102055ADDAA101000095GF100991999999999999999999MA1102035100395REMMET09301/11/10 17:53:01 METAR KPSP 120153Z 00000KT 10SM CLR 19/M02 A3013 RMK AO2 SLP205 T01941022 $EQDQ01    099SCCGD1P01    003SCCGA1
0211722868931382010011202537+33828-116500FM-15+0137KPSP V0203005N001552200059N0160935N5+01565+00065102125ADDAA101000095GF100991999999999999999999MA1102135100495MD1390159+9999REMMET09801/11/10 18:53:02 METAR KPSP 120253Z 30003KT 10SM CLR 16/01 A3016 RMK AO2 SLP212 T01560006 53015 $EQDQ01    099SCCGD1P01    003SCCGA1
0192722868931382010011203537+33828-116500FM-15+0137KPSP V0203205N003152200059N0160935N5+01505-00115102155ADDAA101000095GF100991999999999999999999MA1102175100525REMMET09301/11/10 19:53:02 METAR KPSP 120353Z 32006KT 10SM CLR 15/M01 A3017 RMK AO2 SLP215 T01501011 $EQDQ01    099SCCGD1P01    003SCCGA1
0192722868931382010011204537+33828-116500FM-15+0137KPSP V0203305N002652200059N0160935N5+01395-00115102185ADDAA101000095GF100991999999999999999999MA1102175100525REMMET09301/11/10 20:53:02 METAR KPSP 120453Z 33005KT 10SM CLR 14/M01 A3017 RMK AO2 SLP218 T01391011 $EQDQ01    099SCCGD1P01    003SCCGA1
0250722868931382010011205537+33828-116500FM-15+0137KPSP V0209999C000052200059N0160935N5+01335-00115102205ADDAA101000095GF100991999999999999999999KA1999M+02281KA2999N+01331MA1102205100555MD1190099+9999REMMET11101/11/10 21:53:01 METAR KPSP 120553Z 00000KT 10SM CLR 13/M01 A3018 RMK AO2 SLP220 T01331011 10228 20133 51009 $EQDQ01    099SCCGD1P01    003SCCGA1
0196722868931382010011206537+33828-116500FM-15+0137KPSP V0209999C000052200059N0160935N5+01175+00175102215ADDAA101000095GF100991999999999999999999MA1102245100595REMMET09701/11/10 22:53:02 METAR KPSP 120653Z 00000KT 10SM CLR 12/02 A3019 RMK AO2 SLP221 T01170017 TSNO $EQDQ01    099SCCGD1P01    003SCCGA1
0206722868931382010011207537+33828-116500FM-15+0137KPSP V0209999C000052200059N0160935N5+01115+00115102185ADDAA101000095GF100991999999999999999999MA1102205100555REMMET10701/11/10 23:53:01 METAR KPSP 120753Z 00000KT 10SM CLR 11/01 A3018 RMK AO2 SLP218 T01110011 402440078 TSNO $EQDQ01    099SCCGD1P01    003SCCGA1
0910722868931382010011207596+33828-116500SOD  +0137KPSP V020999999999999999999999999999+99999+99999999999ADDAA124000095KA1240M+02445KA2240N+00785MG1100474101934OE11240071532007425OE22240044712013125OE33240016599999995REMSOD75424 HR PRECIPITATION (IN):0.00  24 HR MAX TEMP (F):76 24 HR MAX TEMP TIME (LST):1410 24 HR MIN TEMP (F):46 24 HR MIN TEMP TIME (LST):0606 AVERAGE STATION PRESSURE:29.670 MINIMUM SEA LEVEL PRESSURE:30.10 TIME OF OCCURRENCE:1549 PEAK WIND SPEED (MPH):16  PEAK WIND DIR (DEG):320 PEAK WIND TIME (LST):0742  FASTEST 2MIN SPEED (MPH):10 FASTEST 2MIN DIR (DEG):120 FASTEST 2MIN TIME (LST):1312 AVERAGE WIND SPEED (MPH):3.7  24 HR AVG TEMP (F):61 DEPART FROM NORMAL: +4  HEATING DEGREE DAYS:4   COOLING DEGREE DAYS:0   LATEST DAY MAX TEMP (0700-1900 LST):76  LATEST NIGHT MIN TEMP(1900-0800 LST):46 HOURLY INCREMENTAL PRECIPITATION VALUES (IN):.00 0.00 0.00 0.00 0.00 0.00 0.00 0.00 0.00 0.00 0.00 0.00 0.00 0.00 0.00 0.00 0.00 0.00 0.00 0.00 0.00 0.00 0.00 0.00EQDR01     N7GJS072R02     N7GKS075
0205722868931382010011208537+33828-116500FM-15+0137KPSP V0203505N002652200059N0160935N5+01065+00005102185ADDGF100991999999999999999999MA1102175100525MD1890029+9999REMMET10301/12/10 00:53:02 METAR KPSP 120853Z 35005KT 10SM CLR 11/00 A3017 RMK AO2 SLP218 T01060000 58002 TSNO $EQDQ01    099SCCGD1P01    003SCCGA1
0186722868931382010011209537+33828-116500FM-15+0137KPSP V0203205N003152200059N0160935N5+01225-00115102195ADDGF100991999999999999999999MA1102205100555REMMET09801/12/10 01:53:02 METAR KPSP 120953Z 32006KT 10SM CLR 12/M01 A3018 RMK AO2 SLP219 T01221011 TSNO $EQDQ01    099SCCGD1P01    003SCCGA1
