0226722977931842010010100537+33680-117860FM-15+0017KSNA V0202405N00215070105MN0160935N5+01675+00725102405ADDAA101000095GA1045+060965999GA2075+070105999GD12991+0609659GD23991+0701059GF107991999999999999999999MA1102405102205REMMET10012/31/09 16:53:01 METAR KSNA 010053Z 24004KT 10SM SCT200 BKN230 17/07 A3024 RMK AO2 SLP240 T01670072
0188722977931842010010101537+33680-117860FM-15+0017KSNA V0209999C00005070105MN0160935N5+01565+00725102485ADDAA101000095GA1075+070105999GD13991+0701059GF107991999999999999999999MA1102475102275REMMET09312/31/09 17:53:01 METAR KSNA 010153Z 00000KT 10SM BKN230 16/07 A3026 RMK AO2 SLP248 T01560072
0208722977931842010010102537+33680-117860FM-15+0017KSNA V0209999C00005076205MN0160935N5+01505+00615102525ADDAA101000095GA1075+076205999GD13991+0762059GF107991999999999999999999MA1102545102335MD1390129+9999REMMET09912/31/09 18:53:01 METAR KSNA 010253Z 00000KT 10SM BKN250 15/06 A3028 RMK AO2 SLP252 T01500061 53012
0188722977931842010010103537+33680-117860FM-15+0017KSNA V0209999C00005067065MN0160935N5+01335+00565102525ADDAA101000095GA1075+067065999GD13991+0670659GF107991999999999999999999MA1102545102335REMMET09312/31/09 19:53:02 METAR KSNA 010353Z 00000KT 10SM BKN220 13/06 A3028 RMK AO2 SLP252 T01330056
0188722977931842010010104537+33680-117860FM-15+0017KSNA V0209999C00005067065MN0160935N5+01175+00615102555ADDAA101000095GA1075+067065999GD13991+0670659GF107991999999999999999999MA1102545102335REMMET09312/31/09 20:53:01 METAR KSNA 010453Z 00000KT 10SM BKN220 12/06 A3028 RMK AO2 SLP255 T01170061
0246722977931842010010105537+33680-117860FM-15+0017KSNA V0209999C00005060965MN0160935N5+01115+00675102575ADDAA101000095GA1075+060965999GD13991+0609659GF107991999999999999999999KA1999M+01781KA2999N+01111MA1102575102375MD1390059+9999REMMET11112/31/09 21:53:02 METAR KSNA 010553Z 00000KT 10SM BKN200 11/07 A3029 RMK AO2 SLP257 T01110067 10178 20111 53005
0188722977931842010010106537+33680-117860FM-15+0017KSNA V0209999C00005060965MN0160935N5+01065+00675102575ADDAA101000095GA1075+060965999GD13991+0609659GF107991999999999999999999MA1102575102375REMMET09312/31/09 22:53:02 METAR KSNA 010653Z 00000KT 10SM BKN200 11/07 A3029 RMK AO2 SLP257 T01060067
0199722977931842010010107537+33680-117860FM-15+0017KSNA V0209999C000052200059N0160935N5+01005+00675102565ADDAA101000095GF100991999999999999999999MA1102575102375REMMET10012/31/09 23:53:02 METAR KSNA 010753Z 00000KT 10SM CLR 10/07 A3029 RMK AO2 SLP256 T01000067 402060078EQDQ01    099SCCGD1P01    003SCCGA1
0955722977931842010010107596+33680-117860SOD  +0017KSNA V020999999999999999999999999999+99999+99999999999ADDAA124000095AX1016246AX2026246KA1240M+02065KA2240N+00785MG1102344102374OE11240058121015025OE22240053620014455OE33240008999999995REMSOD74924 HR PRECIPITATION (IN):0.00  WEATHER(CODE):1,2  24 HR MAX TEMP (F):69 24 HR MAX TEMP TIME (LST):1348 24 HR MIN TEMP (F):46 24 HR MIN TEMP TIME (LST):0554 AVERAGE STATION PRESSURE:30.220 MINIMUM SEA LEVEL PRESSURE:30.23 TIME OF OCCURRENCE:1529 PEAK WIND SPEED (MPH):13  PEAK WIND DIR (DEG):210 PEAK WIND TIME (LST):1502  FASTEST 2MIN SPEED (MPH):12 FASTEST 2MIN DIR (DEG):200 FASTEST 2MIN TIME (LST):1445 AVERAGE WIND SPEED (MPH):2.0  24 HR AVG TEMP (F):58 HEATING DEGREE DAYS:7   COOLING DEGREE DAYS:0   LATEST DAY MAX TEMP (0700-1900 LST):69  LATEST NIGHT MIN TEMP(1900-0800 LST):46 HOURLY INCREMENTAL PRECIPITATION VALUES (IN):.00 0.00 0.00 0.00 0.00 0.00 0.00 0.00 0.00 0.00 0.00 0.00 0.00 0.00 0.00 0.00 0.00 0.00 0.00 0.00 0.00 0.00 0.00 0.00EQDR01   1,27AXW090R02   1,27AXW090R03     N7GJS072R04     N7GKS075
1239722977931842010010107596+33680-117860SOM  +0017KSNA V020999999999999999999999999999+99999+99999999999ADDAB10059996AD10032090707999999995AE1085045025015AH1005001891219525AH2010003090712355AH3015004390712355AH4020005390712355AH5030007190712355AH6045009790712575AI1060011790713045AI2080013590713225AI3100015290713295AI4120016590713415AI5150018090713415AI6180019690713415KB1744N+07945KB2744M+17675KB3744A+12835KC1N9+00270899995KC2M9+02661999995KD1744H03005KD2744C00005KE1005005005005MH1101514101734MK1102713110245099800715075REMSOM791PCP MTOT:2.36 PCP GT 24HRS:1.26 DATE(S):7 DAYS W/PCP >=.01:8  DAYS W/PCP >=.10:4  DAYS W/ PCP >=.50:2 DAYS W/PCP >=1.00:1 MSDP AMTS W/DATE-TIME TAGS:MIN:5 0.07  12/1952 MIN:10 0.12  07/1235 MIN:15 0.17  07/1235 MIN:20 0.21  07/1235 MIN:30 0.28  07/1235 MIN:45 0.38  07/1257 MIN:60 0.46  07/1304 MIN:80 0.53  07/1322 MIN:100 0.60  07/1329 MIN:120 0.65  07/1341 MIN:150 0.71  07/1341 MIN:180 0.77  07/1341 AVG DLY MIN:46.3  AVG DLY MAX:63.8  AVG MLY TMP:55.1  MIN TMP:37 DATE(S):08 MAX TMP:80  DATE(S):19 DAYS MAX <=32:0 DAYS MAX >=90:0  DAYS MIN <=32:0  DAYS MIN  <=0:0  AVG STP:29.975 LWST SLP:29.47 DATE/TIME:071507 HGST SLP:30.33 DATE/TIME:311024 HDD MTH TOT:300 DEP NORM:-2553 SEASON(JUL 1-JUN 30):425 DEP NORM:+22569 CDD MTH TOT:0 DEP NORM:-2553 SEASON(JAN 1-DEC 31):1084 DEP NORM:-20164EQDR01  2.367ABP070
0209722977931842010010108537+33680-117860FM-15+0017KSNA V0209999C000052200059N0160935N5+01005+00615102495ADDAA101000095GF100991999999999999999999MA1102515102305MD1890089+9999REMMET09601/01/10 00:53:02 METAR KSNA 010853Z 00000KT 10SM CLR 10/06 A3027 RMK AO2 SLP249 T01000061 58008EQDQ01    099SCCGD1P01    003SCCGA1
0189722977931842010010109537+33680-117860FM-15+0017KSNA V0209999C000052200059N0160935N5+00895+00565102485ADDAA101000095GF100991999999999999999999MA1102515102305REMMET09001/01/10 01:53:02 METAR KSNA 010953Z 00000KT 10SM CLR 09/06 A3027 RMK AO2 SLP248 T00890056EQDQ01    099SCCGD1P01    003SCCGA1
0189722977931842010010110537+33680-117860FM-15+0017KSNA V0209999C000052200059N0160935N5+00835+00565102425ADDAA101000095GF100991999999999999999999MA1102445102235REMMET09001/01/10 02:53:02 METAR KSNA 011053Z 00000KT 10SM CLR 08/06 A3025 RMK AO2 SLP242 T00830056EQDQ01    099SCCGD1P01    003SCCGA1
0247722977931842010010111537+33680-117860FM-15+0017KSNA V0209999C000052200059N0160935N5+00835+00505102385ADDAA101000095GF100991999999999999999999KA1999M+01221KA2999N+00781MA1102405102205MD1890119+9999REMMET10801/01/10 03:53:02 METAR KSNA 011153Z 00000KT 10SM CLR 08/05 A3024 RMK AO2 SLP238 T00830050 10122 20078 58011EQDQ01    099SCCGD1P01    003SCCGA1
0189722977931842010010112537+33680-117860FM-15+0017KSNA V0209999C000052200059N0160935N5+00785+00445102325ADDAA101000095GF100991999999999999999999MA1102345102135REMMET09001/01/10 04:53:02 METAR KSNA 011253Z 00000KT 10SM CLR 08/04 A3022 RMK AO2 SLP232 T00780044EQDQ01    099SCCGD1P01    003SCCGA1
0193722977931842010010113537+33680-117860FM-15+0017KSNA V0209999C00005060965MN0160935N5+00785+00445102335ADDAA101000095GA1085+060965999GD14991+0609659GF108991999999999999999999MA1102345102135REMMET09801/01/10 05:53:02 METAR KSNA 011353Z 00000KT 10SM OVC200 08/04 A3022 RMK AO2 SLP233 T00780044 (SM)
0213722977931842010010114537+33680-117860FM-15+0017KSNA V0209999V00155060965MN0160935N5+00725+00395102315ADDAA101000095GA1075+060965999GD13991+0609659GF107991999999999999999999MA1102345102135MD1690079+9999REMMET10401/01/10 06:53:02 METAR KSNA 011453Z VRB03KT 10SM BKN200 07/04 A3022 RMK AO2 SLP231 T00720039 56007 (SM)
0231722977931842010010115537+33680-117860FM-15+0017KSNA V0209999C00005060965MN0160935N5+00895+00445102335ADDAA101000095GA1025+048775999GA2075+060965999GD11991+0487759GD23991+0609659GF107991999999999999999999MA1102345102135REMMET10501/01/10 07:53:02 METAR KSNA 011553Z 00000KT 10SM FEW160 BKN200 09/04 A3022 RMK AO2 SLP233 T00890044 (SM)
0269722977931842010010116537+33680-117860FM-15+0017KSNA V0209999C00005076205MN0160935N5+01115+00445102405ADDAA101000095GA1025+054865999GA2045+060965999GA3075+076205999GD11991+0548659GD22991+0609659GD33991+0762059GF107991999999999999999999MA1102405102205REMMET11201/01/10 08:53:02 METAR KSNA 011653Z 00000KT 10SM FEW180 SCT200 BKN250 11/04 A3024 RMK AO2 SLP240 T01110044 (SM)
0289722977931842010010117537+33680-117860FM-15+0017KSNA V0209999C000052200059N0160935N5+01505+00445102375ADDAA101000095GA1025+054865999GA2045+076205999GD11991+0548659GD22991+0762059GF104991999999999999999999KA1999M+01501KA2999N+00671MA1102375102165MD1090059+9999REMMET12301/01/10 09:53:02 METAR KSNA 011753Z 00000KT 10SM FEW180 SCT250 15/04 A3023 RMK AO2 SLP237 T01500044 10150 20067 50005 (SM)
0231722977931842010010118537+33680-117860FM-15+0017KSNA V0209999C000052200059N0160935N5+01675+00285102335ADDAA101000095GA1025+054865999GA2045+076205999GD11991+0548659GD22991+0762059GF104991999999999999999999MA1102345102135REMMET10501/01/10 10:53:02 METAR KSNA 011853Z 00000KT 10SM FEW180 SCT250 17/03 A3022 RMK AO2 SLP233 T01670028 (SM)
0230722977931842010010119537+33680-117860FM-15+0017KSNA V0209999C000052200059N0128755N5+01725+00335102195ADDAA101000095GA1025+054865999GA2045+076205999GD11991+0548659GD22991+0762059GF104991999999999999999999MA1102205102005REMMET10401/01/10 11:53:02 METAR KSNA 011953Z 00000KT 8SM FEW180 SCT250 17/03 A3018 RMK AO2 SLP219 T01720033 (SM)
0250722977931842010010120537+33680-117860FM-15+0017KSNA V0209999V00215076205MN0144845N5+01895+00225102105ADDAA101000095GA1045+048775999GA2075+076205999GD12991+0487759GD23991+0762059GF107991999999999999999999MA1102105101895MD1890279+9999REMMET11001/01/10 12:53:02 METAR KSNA 012053Z VRB04KT 9SM SCT160 BKN250 19/02 A3015 RMK AO2 SLP210 T01890022 58027 (SM)
0230722977931842010010121537+33680-117860FM-15+0017KSNA V0202205N00155076205MN0128755N5+01895+00445101985ADDAA101000095GA1045+004885999GA2075+076205999GD12991+0048859GD23991+0762059GF107991999999999999999999MA1102005101795REMMET10401/01/10 13:53:02 METAR KSNA 012153Z 22003KT 8SM SCT016 BKN250 19/04 A3012 RMK AO2 SLP198 T01890044 (SM)
0232722977931842010010122537+33680-117860FM-15+0017KSNA V0209999C00005076205MN0160935N5+01945+00505101945ADDAA101000095GA1045+054865999GA2075+076205999GD12991+0548659GD23991+0762059GF107991999999999999999999MA1101965101765REMMET10601/01/10 14:53:02 METAR KSNA 012253Z 00000KT 10SM SCT180 BKN250 19/05 A3011 RMK AO2 SLP194 T01940050 (JDT)
0290722977931842010010123537+33680-117860FM-15+0017KSNA V0202305N00215076205MN0160935N5+01835+00675101925ADDAA101000095GA1025+048775999GA2075+076205999GD11991+0487759GD23991+0762059GF107991999999999999999999KA1999M+01941KA2999N+01501MA1101935101735MD1690189+9999REMMET12401/01/10 15:53:02 METAR KSNA 012353Z 23004KT 10SM FEW160 BKN250 18/07 A3010 RMK AO2 SLP192 T01830067 10194 20150 56018 (JDT)
0226722977931842010010200537+33680-117860FM-15+0017KSNA V0209999C00005076205MN0160935N5+01615+00675101945ADDAA101000095GA1025+048775999GA2075+076205999GD11991+0487759GD23991+0762059GF107991999999999999999999MA1101965101765REMMET10001/01/10 16:53:02 METAR KSNA 020053Z 00000KT 10SM FEW160 BKN250 16/07 A3011 RMK AO2 SLP194 T01610067
0226722977931842010010201537+33680-117860FM-15+0017KSNA V0201205N00155076205MN0160935N5+01565+00725101925ADDAA101000095GA1025+048775999GA2075+076205999GD11991+0487759GD23991+0762059GF107991999999999999999999MA1101935101735REMMET10001/01/10 17:53:02 METAR KSNA 020153Z 12003KT 10SM FEW160 BKN250 16/07 A3010 RMK AO2 SLP192 T01560072
0246722977931842010010202537+33680-117860FM-15+0017KSNA V0209999C00005076205MN0160935N5+01615+00785101915ADDAA101000095GA1025+054865999GA2085+076205999GD11991+0548659GD24991+0762059GF108991999999999999999999MA1101935101735MD1890019+9999REMMET10601/01/10 18:53:02 METAR KSNA 020253Z 00000KT 10SM FEW180 OVC250 16/08 A3010 RMK AO2 SLP191 T01610078 58001
0188722977931842010010203537+33680-117860FM-15+0017KSNA V0202105N00155076205MN0160935N5+01335+00785101905ADDAA101000095GA1075+076205999GD13991+0762059GF107991999999999999999999MA1101905101695REMMET09301/01/10 19:53:01 METAR KSNA 020353Z 21003KT 10SM BKN250 13/08 A3009 RMK AO2 SLP190 T01330078
0188722977931842010010204537+33680-117860FM-15+0017KSNA V0201205N00155076205MN0160935N5+01285+00725101885ADDAA101000095GA1075+076205999GD13991+0762059GF107991999999999999999999MA1101905101695REMMET09301/01/10 20:53:01 METAR KSNA 020453Z 12003KT 10SM BKN250 13/07 A3009 RMK AO2 SLP188 T01280072
0246722977931842010010205537+33680-117860FM-15+0017KSNA V0209999C00005076205MN0160935N5+01115+00725101885ADDAA101000095GA1075+076205999GD13991+0762059GF107991999999999999999999KA1999M+01831KA2999N+01111MA1101905101695MD1590029+9999REMMET11101/01/10 21:53:02 METAR KSNA 020553Z 00000KT 10SM BKN250 11/07 A3009 RMK AO2 SLP188 T01110072 10183 20111 55002
0188722977931842010010206537+33680-117860FM-15+0017KSNA V0209999C000052200059N0160935N5+01005+00725101915ADDAA101000095GA1025+076205999GD11991+0762059GF102991999999999999999999MA1101935101735REMMET09301/01/10 22:53:02 METAR KSNA 020653Z 00000KT 10SM FEW250 10/07 A3010 RMK AO2 SLP191 T01000072
0199722977931842010010207537+33680-117860FM-15+0017KSNA V0200205N001552200059N0160935N5+01005+00615101835ADDAA101000095GF100991999999999999999999MA1101835101625REMMET10001/01/10 23:53:02 METAR KSNA 020753Z 02003KT 10SM CLR 10/06 A3007 RMK AO2 SLP183 T01000061 401940067EQDQ01    099SCCGD1P01    003SCCGA1
0886722977931842010010207596+33680-117860SOD  +0017KSNA V020999999999999999999999999999+99999+99999999999ADDAA124000095KA1240M+01945KA2240N+00675MG1101934101794OE11240040217014105OE22240031318014065OE33240005499999995REMSOD73024 HR PRECIPITATION (IN):0.00  24 HR MAX TEMP (F):67 24 HR MAX TEMP TIME (LST):1520 24 HR MIN TEMP (F):44 24 HR MIN TEMP TIME (LST):0639 AVERAGE STATION PRESSURE:30.100 MINIMUM SEA LEVEL PRESSURE:30.06 TIME OF OCCURRENCE:2343 PEAK WIND SPEED (MPH):9   PEAK WIND DIR (DEG):170 PEAK WIND TIME (LST):1410  FASTEST 2MIN SPEED (MPH):7  FASTEST 2MIN DIR (DEG):180 FASTEST 2MIN TIME (LST):1406 AVERAGE WIND SPEED (MPH):1.2  24 HR AVG TEMP (F):56 HEATING DEGREE DAYS:9   COOLING DEGREE DAYS:0   LATEST DAY MAX TEMP (0700-1900 LST):67  LATEST NIGHT MIN TEMP(1900-0800 LST):44 HOURLY INCREMENTAL PRECIPITATION VALUES (IN):.00 0.00 0.00 0.00 0.00 0.00 0.00 0.00 0.00 0.00 0.00 0.00 0.00 0.00 0.00 0.00 0.00 0.00 0.00 0.00 0.00 0.00 0.00 0.00EQDR01     N7GJS072R02     N7GKS075
0209722977931842010010208537+33680-117860FM-15+0017KSNA V0209999C000052200059N0160935N5+00945+00565101735ADDAA101000095GF100991999999999999999999MA1101735101525MD1890169+9999REMMET09601/02/10 00:53:02 METAR KSNA 020853Z 00000KT 10SM CLR 09/06 A3004 RMK AO2 SLP173 T00940056 58016EQDQ01    099SCCGD1P01    003SCCGA1
0188722977931842010010209537+33680-117860FM-15+0017KSNA V0209999C000052200059N0144845N5+00895+00565101815ADDAA101000095GF100991999999999999999999MA1101835101625REMMET08901/02/10 01:53:02 METAR KSNA 020953Z 00000KT 9SM CLR 09/06 A3007 RMK AO2 SLP181 T00890056EQDQ01    099SCCGD1P01    003SCCGA1
0189722977931842010010210537+33680-117860FM-15+0017KSNA V0209999C000052200059N0160935N5+00895+00445101765ADDAA101000095GF100991999999999999999999MA1101765101565REMMET09001/02/10 02:53:02 METAR KSNA 021053Z 00000KT 10SM CLR 09/04 A3005 RMK AO2 SLP176 T00890044EQDQ01    099SCCGD1P01    003SCCGA1
0247722977931842010010211537+33680-117860FM-15+0017KSNA V0209999C000052200059N0160935N5+00725+00445101775ADDAA101000095GF100991999999999999999999KA1999M+01171KA2999N+00721MA1101795101595MD1190059+9999REMMET10801/02/10 03:53:02 METAR KSNA 021153Z 00000KT 10SM CLR 07/04 A3006 RMK AO2 SLP177 T00720044 10117 20072 51005EQDQ01    099SCCGD1P01    003SCCGA1
0189722977931842010010212537+33680-117860FM-15+0017KSNA V0209999C000052200059N0160935N5+00785+00445101795ADDAA101000095GF100991999999999999999999MA1101795101595REMMET09001/02/10 04:53:02 METAR KSNA 021253Z 00000KT 10SM CLR 08/04 A3006 RMK AO2 SLP179 T00780044EQDQ01    099SCCGD1P01    003SCCGA1
0194722977931842010010213537+33680-117860FM-15+0017KSNA V0200705N001552200059N0160935N5+00675+00395101785ADDAA101000095GF100991999999999999999999MA1101795101595REMMET09501/02/10 05:53:02 METAR KSNA 021353Z 07003KT 10SM CLR 07/04 A3006 RMK AO2 SLP178 T00670039 (SM)EQDQ01    099SCCGD1P01    003SCCGA1
0214722977931842010010214537+33680-117860FM-15+0017KSNA V0200205N001552200059N0160935N5+00725+00335101745ADDAA101000095GF100991999999999999999999MA1101765101565MD1890039+9999REMMET10101/02/10 06:53:02 METAR KSNA 021453Z 02003KT 10SM CLR 07/03 A3005 RMK AO2 SLP174 T00720033 58003 (SM)EQDQ01    099SCCGD1P01    003SCCGA1
0193722977931842010010215537+33680-117860FM-15+0017KSNA V0209999C000052200059N0160935N5+00895+00395101765ADDAA101000095GA1025+076205999GD11991+0762059GF102991999999999999999999MA1101765101565REMMET09801/02/10 07:53:02 METAR KSNA 021553Z 00000KT 10SM FEW250 09/04 A3005 RMK AO2 SLP176 T00890039 (SM)
0193722977931842010010216537+33680-117860FM-15+0017KSNA V0202305N001552200059N0160935N5+01285+00615101805ADDAA101000095GA1025+076205999GD11991+0762059GF102991999999999999999999MA1101835101625REMMET09801/02/10 08:53:02 METAR KSNA 021653Z 23003KT 10SM FEW250 13/06 A3007 RMK AO2 SLP180 T01280061 (SM)
0251722977931842010010217537+33680-117860FM-15+0017KSNA V0202205N002652200059N0160935N5+01725+00945101835ADDAA101000095GA1025+076205999GD11991+0762059GF102991999999999999999999KA1999M+01721KA2999N+00671MA1101835101625MD1390089+9999REMMET11601/02/10 09:53:02 METAR KSNA 021753Z 22005KT 10SM FEW250 17/09 A3007 RMK AO2 SLP183 T01720094 10172 20067 53008 (SM)
0193722977931842010010218537+33680-117860FM-15+0017KSNA V0202105N002152200059N0160935N5+01895+00785101785ADDAA101000095GA1025+076205999GD11991+0762059GF102991999999999999999999MA1101795101595REMMET09801/02/10 10:53:02 METAR KSNA 021853Z 21004KT 10SM FEW250 19/08 A3006 RMK AO2 SLP178 T01890078 (SM)
0193722977931842010010219537+33680-117860FM-15+0017KSNA V0202205N003652200059N0160935N5+02065+00675101695ADDAA101000095GA1025+076205999GD11991+0762059GF102991999999999999999999MA1101695101495REMMET09801/02/10 11:53:02 METAR KSNA 021953Z 22007KT 10SM FEW250 21/07 A3003 RMK AO2 SLP169 T02060067 (SM)
0213722977931842010010220537+33680-117860FM-15+0017KSNA V0202205N003652200059N0160935N5+02065+00785101615ADDAA101000095GA1045+076205999GD12991+0762059GF104991999999999999999999MA1101635101425MD1890219+9999REMMET10401/02/10 12:53:02 METAR KSNA 022053Z 22007KT 10SM SCT250 21/08 A3001 RMK AO2 SLP161 T02060078 58021 (SM)
0193722977931842010010221537+33680-117860FM-15+0017KSNA V0202305N00265076205MN0160935N5+02065+00565101575ADDAA101000095GA1075+076205999GD13991+0762059GF107991999999999999999999MA1101595101395REMMET09801/02/10 13:53:02 METAR KSNA 022153Z 23005KT 10SM BKN250 21/06 A3000 RMK AO2 SLP157 T02060056 (SM)
0194722977931842010010222537+33680-117860FM-15+0017KSNA V0202405N00155076205MN0160935N5+02175+00725101575ADDAA101000095GA1075+076205999GD13991+0762059GF107991999999999999999999MA1101565101355REMMET09901/02/10 14:53:02 METAR KSNA 022253Z 24003KT 10SM BKN250 22/07 A2999 RMK AO2 SLP157 T02170072 (CMS)
0252722977931842010010223537+33680-117860FM-15+0017KSNA V0201905N001552200059N0160935N5+02065+01005101575ADDAA101000095GA1045+076205999GD12991+0762059GF104991999999999999999999KA1999M+02171KA2999N+01721MA1101595101395MD1590049+9999REMMET11701/02/10 15:53:02 METAR KSNA 022353Z 19003KT 10SM SCT250 21/10 A3000 RMK AO2 SLP157 T02060100 10217 20172 55004 (CMS)
0188722977931842010010300537+33680-117860FM-15+0017KSNA V0209999C000052200059N0160935N5+01945+00835101595ADDAA101000095GA1045+076205999GD12991+0762059GF104991999999999999999999MA1101595101395REMMET09301/02/10 16:53:01 METAR KSNA 030053Z 00000KT 10SM SCT250 19/08 A3000 RMK AO2 SLP159 T01940083
0188722977931842010010301537+33680-117860FM-15+0017KSNA V0209999C000052200059N0160935N5+01675+00835101625ADDAA101000095GA1045+076205999GD12991+0762059GF104991999999999999999999MA1101635101425REMMET09301/02/10 17:53:02 METAR KSNA 030153Z 00000KT 10SM SCT250 17/08 A3001 RMK AO2 SLP162 T01670083
0209722977931842010010302537+33680-117860FM-15+0017KSNA V0209999C000052200059N0160935N5+01505+00835101655ADDAA101000095GF100991999999999999999999MA1101665101455MD1390079+9999REMMET09601/02/10 18:53:02 METAR KSNA 030253Z 00000KT 10SM CLR 15/08 A3002 RMK AO2 SLP165 T01500083 53007EQDQ01    099SCCGD1P01    003SCCGA1
0189722977931842010010303537+33680-117860FM-15+0017KSNA V0209999C000052200059N0160935N5+01445+00835101685ADDAA101000095GF100991999999999999999999MA1101695101495REMMET09001/02/10 19:53:02 METAR KSNA 030353Z 00000KT 10SM CLR 14/08 A3003 RMK AO2 SLP168 T01440083EQDQ01    099SCCGD1P01    003SCCGA1
0188722977931842010010304537+33680-117860FM-15+0017KSNA V0209999C000052200059N0160935N5+01505+00725101725ADDAA101000095GA1025+076205999GD11991+0762059GF102991999999999999999999MA1101735101525REMMET09301/02/10 20:53:02 METAR KSNA 030453Z 00000KT 10SM FEW250 15/07 A3004 RMK AO2 SLP172 T01500072
0246722977931842010010305537+33680-117860FM-15+0017KSNA V0202205N002652200059N0160935N5+01225+00725101765ADDAA101000095GA1025+076205999GD11991+0762059GF102991999999999999999999KA1999M+02061KA2999N+01221MA1101765101565MD1390119+9999REMMET11101/02/10 21:53:01 METAR KSNA 030553Z 22005KT 10SM FEW250 12/07 A3005 RMK AO2 SLP176 T01220072 10206 20122 53011
0189722977931842010010306537+33680-117860FM-15+0017KSNA V0209999C000052200059N0160935N5+01175+00725101755ADDAA101000095GF100991999999999999999999MA1101765101565REMMET09001/02/10 22:53:02 METAR KSNA 030653Z 00000KT 10SM CLR 12/07 A3005 RMK AO2 SLP175 T01170072EQDQ01    099SCCGD1P01    003SCCGA1
0199722977931842010010307537+33680-117860FM-15+0017KSNA V0209999C000052200059N0160935N5+01065+00675101705ADDAA101000095GF100991999999999999999999MA1101695101495REMMET10001/02/10 23:53:01 METAR KSNA 030753Z 00000KT 10SM CLR 11/07 A3003 RMK AO2 SLP170 T01060067 402170067EQDQ01    099SCCGD1P01    003SCCGA1
0886722977931842010010307596+33680-117860SOD  +0017KSNA V020999999999999999999999999999+99999+99999999999ADDAA124000095KA1240M+02175KA2240N+00675MG1101524101564OE11240076021011475OE22240062621011485OE33240010399999995REMSOD73024 HR PRECIPITATION (IN):0.00  24 HR MAX TEMP (F):71 24 HR MAX TEMP TIME (LST):1532 24 HR MIN TEMP (F):44 24 HR MIN TEMP TIME (LST):0556 AVERAGE STATION PRESSURE:29.980 MINIMUM SEA LEVEL PRESSURE:29.99 TIME OF OCCURRENCE:1556 PEAK WIND SPEED (MPH):17  PEAK WIND DIR (DEG):210 PEAK WIND TIME (LST):1147  FASTEST 2MIN SPEED (MPH):14 FASTEST 2MIN DIR (DEG):210 FASTEST 2MIN TIME (LST):1148 AVERAGE WIND SPEED (MPH):2.3  24 HR AVG TEMP (F):58 HEATING DEGREE DAYS:7   COOLING DEGREE DAYS:0   LATEST DAY MAX TEMP (0700-1900 LST):71  LATEST NIGHT MIN TEMP(1900-0800 LST):44 HOURLY INCREMENTAL PRECIPITATION VALUES (IN):.00 0.00 0.00 0.00 0.00 0.00 0.00 0.00 0.00 0.00 0.00 0.00 0.00 0.00 0.00 0.00 0.00 0.00 0.00 0.00 0.00 0.00 0.00 0.00EQDR01     N7GJS072R02     N7GKS075
0209722977931842010010308537+33680-117860FM-15+0017KSNA V0209999C000052200059N0160935N5+01005+00615101685ADDAA101000095GF100991999999999999999999MA1101695101495MD1890089+9999REMMET09601/03/10 00:53:02 METAR KSNA 030853Z 00000KT 10SM CLR 10/06 A3003 RMK AO2 SLP168 T01000061 58008EQDQ01    099SCCGD1P01    003SCCGA1
0189722977931842010010309537+33680-117860FM-15+0017KSNA V0209999C000052200059N0160935N5+00945+00615101705ADDAA101000095GF100991999999999999999999MA1101695101495REMMET09001/03/10 01:53:02 METAR KSNA 030953Z 00000KT 10SM CLR 09/06 A3003 RMK AO2 SLP170 T00940061EQDQ01    099SCCGD1P01    003SCCGA1
0189722977931842010010310537+33680-117860FM-15+0017KSNA V0209999C000052200059N0160935N5+00945+00565101715ADDAA101000095GF100991999999999999999999MA1101735101525REMMET09001/03/10 02:53:02 METAR KSNA 031053Z 00000KT 10SM CLR 09/06 A3004 RMK AO2 SLP171 T00940056EQDQ01    099SCCGD1P01    003SCCGA1
0247722977931842010010311537+33680-117860FM-15+0017KSNA V0209999C000052200059N0160935N5+00785+00445101685ADDAA101000095GF100991999999999999999999KA1999M+01221KA2999N+00781MA1101695101495MD1090009+9999REMMET10801/03/10 03:53:02 METAR KSNA 031153Z 00000KT 10SM CLR 08/04 A3003 RMK AO2 SLP168 T00780044 10122 20078 50000EQDQ01    099SCCGD1P01    003SCCGA1
0189722977931842010010312537+33680-117860FM-15+0017KSNA V0209999C000052200059N0160935N5+00785+00395101685ADDAA101000095GF100991999999999999999999MA1101695101495REMMET09001/03/10 04:53:02 METAR KSNA 031253Z 00000KT 10SM CLR 08/04 A3003 RMK AO2 SLP168 T00780039EQDQ01    099SCCGD1P01    003SCCGA1
0194722977931842010010313537+33680-117860FM-15+0017KSNA V0209999C000052200059N0160935N5+00725+00285101745ADDAA101000095GF100991999999999999999999MA1101765101565REMMET09501/03/10 05:53:02 METAR KSNA 031353Z 00000KT 10SM CLR 07/03 A3005 RMK AO2 SLP174 T00720028 (KN)EQDQ01    099SCCGD1P01    003SCCGA1
0213722977931842010010314537+33680-117860FM-15+0017KSNA V0209999C000052200059N0160935N5+00675+00225101775ADDAA101000095GA1025+060965999GD11991+0609659GF102991999999999999999999MA1101765101565MD1390099+9999REMMET10401/03/10 06:53:02 METAR KSNA 031453Z 00000KT 10SM FEW200 07/02 A3005 RMK AO2 SLP177 T00670022 53009 (KN)
0193722977931842010010315537+33680-117860FM-15+0017KSNA V0209999C000052200059N0160935N5+00835+00335101835ADDAA101000095GA1025+060965999GD11991+0609659GF102991999999999999999999MA1101835101625REMMET09801/03/10 07:53:02 METAR KSNA 031553Z 00000KT 10SM FEW200 08/03 A3007 RMK AO2 SLP183 T00830033 (KN)
0193722977931842010010316537+33680-117860FM-15+0017KSNA V0209999C000052200059N0160935N5+01175+00335101845ADDAA101000095GA1025+060965999GD11991+0609659GF102991999999999999999999MA1101865101665REMMET09801/03/10 08:53:02 METAR KSNA 031653Z 00000KT 10SM FEW200 12/03 A3008 RMK AO2 SLP184 T01170033 (KN)
0251722977931842010010317537+33680-117860FM-15+0017KSNA V0209999C000052200059N0160935N5+01565+00615101865ADDAA101000095GA1045+060965999GD12991+0609659GF104991999999999999999999KA1999M+01561KA2999N+00561MA1101865101665MD1190089+9999REMMET11601/03/10 09:53:02 METAR KSNA 031753Z 00000KT 10SM SCT200 16/06 A3008 RMK AO2 SLP186 T01560061 10156 20056 51008 (KN)
0193722977931842010010318537+33680-117860FM-15+0017KSNA V0209999C00005060965MN0160935N5+01785+00565101815ADDAA101000095GA1075+060965999GD13991+0609659GF107991999999999999999999MA1101835101625REMMET09801/03/10 10:53:02 METAR KSNA 031853Z 00000KT 10SM BKN200 18/06 A3007 RMK AO2 SLP181 T01780056 (KN)
0231722977931842010010319537+33680-117860FM-15+0017KSNA V0202405N00155076205MN0160935N5+02175+00395101735ADDAA101000095GA1045+060965999GA2075+076205999GD12991+0609659GD23991+0762059GF107991999999999999999999MA1101735101525REMMET10501/03/10 11:53:02 METAR KSNA 031953Z 24003KT 10SM SCT200 BKN250 22/04 A3004 RMK AO2 SLP173 T02170039 (KN)
0251722977931842010010320537+33680-117860FM-15+0017KSNA V0202505N00265076205MN0160935N5+02285+00115101685ADDAA101000095GA1045+060965999GA2075+076205999GD12991+0609659GD23991+0762059GF107991999999999999999999MA1101695101495MD1890189+9999REMMET11101/03/10 12:53:02 METAR KSNA 032053Z 25005KT 10SM SCT200 BKN250 23/01 A3003 RMK AO2 SLP168 T02280011 58018 (KN)
0232722977931842010010321537+33680-117860FM-15+0017KSNA V0209999C00005076205MN0160935N5+02335-00175101645ADDAA101000095GA1045+060965999GA2075+076205999GD12991+0609659GD23991+0762059GF107991999999999999999999MA1101665101455REMMET10601/03/10 13:53:02 METAR KSNA 032153Z 00000KT 10SM SCT200 BKN250 23/M02 A3002 RMK AO2 SLP164 T02331017 (KN)
0195722977931842010010322537+33680-117860FM-15+0017KSNA V0202405N00155076205MN0160935N5+02395-00175101625ADDAA101000095GA1075+076205999GD13991+0762059GF107991999999999999999999MA1101635101425REMMET10001/03/10 14:53:02 METAR KSNA 032253Z 24003KT 10SM BKN250 24/M02 A3001 RMK AO2 SLP162 T02391017 (CMS)
0252722977931842010010323537+33680-117860FM-15+0017KSNA V0209999C000052200059N0160935N5+02065+00285101635ADDAA101000095GA1045+076205999GD12991+0762059GF104991999999999999999999KA1999M+02441KA2999N+01561MA1101635101425MD1590059+9999REMMET11701/03/10 15:53:02 METAR KSNA 032353Z 00000KT 10SM SCT250 21/03 A3001 RMK AO2 SLP163 T02060028 10244 20156 55005 (CMS)
0188722977931842010010400537+33680-117860FM-15+0017KSNA V0209999C000052200059N0160935N5+01945+00285101645ADDAA101000095GA1045+076205999GD12991+0762059GF104991999999999999999999MA1101665101455REMMET09301/03/10 16:53:02 METAR KSNA 040053Z 00000KT 10SM SCT250 19/03 A3002 RMK AO2 SLP164 T01940028
0188722977931842010010401537+33680-117860FM-15+0017KSNA V0209999C000052200059N0160935N5+01675+00395101695ADDAA101000095GA1025+076205999GD11991+0762059GF102991999999999999999999MA1101695101495REMMET09301/03/10 17:53:02 METAR KSNA 040153Z 00000KT 10SM FEW250 17/04 A3003 RMK AO2 SLP169 T01670039
0209722977931842010010402537+33680-117860FM-15+0017KSNA V0209999C000052200059N0160935N5+01445+00395101685ADDAA101000095GF100991999999999999999999MA1101695101495MD1090059+9999REMMET09601/03/10 18:53:02 METAR KSNA 040253Z 00000KT 10SM CLR 14/04 A3003 RMK AO2 SLP168 T01440039 50005EQDQ01    099SCCGD1P01    003SCCGA1
0189722977931842010010403537+33680-117860FM-15+0017KSNA V0209999C000052200059N0160935N5+01285+00445101735ADDAA101000095GF100991999999999999999999MA1101735101525REMMET09001/03/10 19:53:01 METAR KSNA 040353Z 00000KT 10SM CLR 13/04 A3004 RMK AO2 SLP173 T01280044EQDQ01    099SCCGD1P01    003SCCGA1
0189722977931842010010404537+33680-117860FM-15+0017KSNA V0209999C000052200059N0160935N5+01225+00395101745ADDAA101000095GF100991999999999999999999MA1101765101565REMMET09001/03/10 20:53:02 METAR KSNA 040453Z 00000KT 10SM CLR 12/04 A3005 RMK AO2 SLP174 T01220039EQDQ01    099SCCGD1P01    003SCCGA1
0247722977931842010010405537+33680-117860FM-15+0017KSNA V0209999C000052200059N0160935N5+01065+00335101775ADDAA101000095GF100991999999999999999999KA1999M+02061KA2999N+01061MA1101765101565MD1190099+9999REMMET10801/03/10 21:53:02 METAR KSNA 040553Z 00000KT 10SM CLR 11/03 A3005 RMK AO2 SLP177 T01060033 10206 20106 51009EQDQ01    099SCCGD1P01    003SCCGA1
0189722977931842010010406537+33680-117860FM-15+0017KSNA V0209999C000052200059N0160935N5+01065+00285101815ADDAA101000095GF100991999999999999999999MA1101835101625REMMET09001/03/10 22:53:02 METAR KSNA 040653Z 00000KT 10SM CLR 11/03 A3007 RMK AO2 SLP181 T01060028EQDQ01    099SCCGD1P01    003SCCGA1
0199722977931842010010407537+33680-117860FM-15+0017KSNA V0209999C000052200059N0160935N5+00945+00285101785ADDAA101000095GF100991999999999999999999MA1101795101595REMMET10001/03/10 23:53:02 METAR KSNA 040753Z 00000KT 10SM CLR 09/03 A3006 RMK AO2 SLP178 T00940028 402440056EQDQ01    099SCCGD1P01    003SCCGA1
0886722977931842010010407596+33680-117860SOD  +0017KSNA V020999999999999999999999999999+99999+99999999999ADDAA124000095KA1240M+02445KA2240N+00565MG1101524101594OE11240035825012525OE22240031322012155OE33240002299999995REMSOD73024 HR PRECIPITATION (IN):0.00  24 HR MAX TEMP (F):76 24 HR MAX TEMP TIME (LST):1446 24 HR MIN TEMP (F):42 24 HR MIN TEMP TIME (LST):0726 AVERAGE STATION PRESSURE:29.980 MINIMUM SEA LEVEL PRESSURE:30.00 TIME OF OCCURRENCE:1440 PEAK WIND SPEED (MPH):8   PEAK WIND DIR (DEG):250 PEAK WIND TIME (LST):1252  FASTEST 2MIN SPEED (MPH):7  FASTEST 2MIN DIR (DEG):220 FASTEST 2MIN TIME (LST):1215 AVERAGE WIND SPEED (MPH):0.5  24 HR AVG TEMP (F):59 HEATING DEGREE DAYS:6   COOLING DEGREE DAYS:0   LATEST DAY MAX TEMP (0700-1900 LST):76  LATEST NIGHT MIN TEMP(1900-0800 LST):42 HOURLY INCREMENTAL PRECIPITATION VALUES (IN):.00 0.00 0.00 0.00 0.00 0.00 0.00 0.00 0.00 0.00 0.00 0.00 0.00 0.00 0.00 0.00 0.00 0.00 0.00 0.00 0.00 0.00 0.00 0.00EQDR01     N7GJS072R02     N7GKS075
0209722977931842010010408537+33680-117860FM-15+0017KSNA V0209999C000052200059N0160935N5+00835+00285101775ADDAA101000095GF100991999999999999999999MA1101765101565MD1090009+9999REMMET09601/04/10 00:53:02 METAR KSNA 040853Z 00000KT 10SM CLR 08/03 A3005 RMK AO2 SLP177 T00830028 50000EQDQ01    099SCCGD1P01    003SCCGA1
0189722977931842010010409537+33680-117860FM-15+0017KSNA V0209999C000052200059N0160935N5+00895+00115101805ADDAA101000095GF100991999999999999999999MA1101795101595REMMET09001/04/10 01:53:02 METAR KSNA 040953Z 00000KT 10SM CLR 09/01 A3006 RMK AO2 SLP180 T00890011EQDQ01    099SCCGD1P01    003SCCGA1
0189722977931842010010410537+33680-117860FM-15+0017KSNA V0209999C000052200059N0160935N5+00835+00115101805ADDAA101000095GF100991999999999999999999MA1101795101595REMMET09001/04/10 02:53:02 METAR KSNA 041053Z 00000KT 10SM CLR 08/01 A3006 RMK AO2 SLP180 T00830011EQDQ01    099SCCGD1P01    003SCCGA1
0247722977931842010010411537+33680-117860FM-15+0017KSNA V0209999C000052200059N0160935N5+00785+00065101795ADDAA101000095GF100991999999999999999999KA1999M+01111KA2999N+00721MA1101795101595MD1090029+9999REMMET10801/04/10 03:53:02 METAR KSNA 041153Z 00000KT 10SM CLR 08/01 A3006 RMK AO2 SLP179 T00780006 10111 20072 50002EQDQ01    099SCCGD1P01    003SCCGA1
0189722977931842010010412537+33680-117860FM-15+0017KSNA V0209999C000052200059N0160935N5+00785+00065101765ADDAA101000095GF100991999999999999999999MA1101765101565REMMET09001/04/10 04:53:02 METAR KSNA 041253Z 00000KT 10SM CLR 08/01 A3005 RMK AO2 SLP176 T00780006EQDQ01    099SCCGD1P01    003SCCGA1
0194722977931842010010413537+33680-117860FM-15+0017KSNA V0209999C00005076205MN0160935N5+00785+00065101755ADDAA101000095GA1075+076205999GD13991+0762059GF107991999999999999999999MA1101765101565REMMET09901/04/10 05:53:02 METAR KSNA 041353Z 00000KT 10SM BKN250 08/01 A3005 RMK AO2 SLP175 T00780006 (JDT)
0214722977931842010010414537+33680-117860FM-15+0017KSNA V0209999C00005054865MN0160935N5+00785+00005101765ADDAA101000095GA1075+054865999GD13991+0548659GF107991999999999999999999MA1101765101565MD1590029+9999REMMET10501/04/10 06:53:02 METAR KSNA 041453Z 00000KT 10SM BKN180 08/00 A3005 RMK AO2 SLP176 T00780000 55002 (JDT)
0232722977931842010010415537+33680-117860FM-15+0017KSNA V0200705N00265036585MN0160935N5+01065+00065101775ADDAA101000095GA1075+036585999GA2075+054865999GD13991+0365859GD23991+0548659GF107991999999999999999999MA1101795101595REMMET10601/04/10 07:53:02 METAR KSNA 041553Z 07005KT 10SM BKN120 BKN180 11/01 A3006 RMK AO2 SLP177 T01060006 (JDT)
0232722977931842010010416537+33680-117860FM-15+0017KSNA V0202605N00265036585MN0160935N5+01175+00065101845ADDAA101000095GA1075+036585999GA2075+054865999GD13991+0365859GD23991+0548659GF107991999999999999999999MA1101835101625REMMET10601/04/10 08:53:02 METAR KSNA 041653Z 26005KT 10SM BKN120 BKN180 12/01 A3007 RMK AO2 SLP184 T01170006 (JDT)
0290722977931842010010417537+33680-117860FM-15+0017KSNA V0209999C00005054865MN0160935N5+01565+00175101865ADDAA101000095GA1045+036585999GA2075+054865999GD12991+0365859GD23991+0548659GF107991999999999999999999KA1999M+01561KA2999N+00721MA1101865101665MD1390099+9999REMMET12401/04/10 09:53:02 METAR KSNA 041753Z 00000KT 10SM SCT120 BKN180 16/02 A3008 RMK AO2 SLP186 T01560017 10156 20072 53009 (JDT)
0233722977931842010010418537+33680-117860FM-15+0017KSNA V0201605N00155060965MN0160935N5+02005-00175101835ADDAA101000095GA1025+036585999GA2075+060965999GD11991+0365859GD23991+0609659GF107991999999999999999999MA1101835101625REMMET10701/04/10 10:53:02 METAR KSNA 041853Z 16003KT 10SM FEW120 BKN200 20/M02 A3007 RMK AO2 SLP183 T02001017 (JDT)
0233722977931842010010419537+33680-117860FM-15+0017KSNA V0209999C00005067065MN0160935N5+02115-00335101775ADDAA101000095GA1025+054865999GA2075+067065999GD11991+0548659GD23991+0670659GF107991999999999999999999MA1101795101595REMMET10701/04/10 11:53:02 METAR KSNA 041953Z 00000KT 10SM FEW180 BKN220 21/M03 A3006 RMK AO2 SLP177 T02111033 (JDT)
0253722977931842010010420537+33680-117860FM-15+0017KSNA V0209999C00005076205MN0160935N5+02225-00395101725ADDAA101000095GA1025+054865999GA2075+076205999GD11991+0548659GD23991+0762059GF107991999999999999999999MA1101735101525MD1890149+9999REMMET11301/04/10 12:53:02 METAR KSNA 042053Z 00000KT 10SM FEW180 BKN250 22/M04 A3004 RMK AO2 SLP172 T02221039 58014 (JDT)
0233722977931842010010421537+33680-117860FM-15+0017KSNA V0203005N00155060965MN0160935N5+02285-00335101675ADDAA101000095GA1045+045725999GA2075+060965999GD12991+0457259GD23991+0609659GF107991999999999999999999MA1101665101455REMMET10701/04/10 13:53:02 METAR KSNA 042153Z 30003KT 10SM SCT150 BKN200 23/M03 A3002 RMK AO2 SLP167 T02281033 (CMS)
0244722977931842010010422537+33680-117860FM-15+0017KSNA V0209999C00005076205MN0160935N5+02285-00565101645ADDAA101000095GA1045+045725999GA2075+076205999GD12991+0457259GD23991+0762059GF107991999999999999999999MA1101665101455REMMET11801/04/10 14:53:02 METAR KSNA 042253Z 00000KT 10SM SCT150 BKN250 23/M06 A3002 RMK AO2 SLP164 VIRGA NE-E T02281056 (CMS)
0309722977931842010010423537+33680-117860FM-15+0017KSNA V0202105N00315076205MN0160935N5+01945+00675101655ADDAA101000095GA1045+045725999GA2075+076205999GD12991+0457259GD23991+0762059GF107991999999999999999999KA1999M+02331KA2999N+01611MA1101665101455MD1590079+9999REMMET12401/04/10 15:53:02 METAR KSNA 042353Z 21006KT 10SM SCT150 BKN250 19/07 A3002 RMK AO2 SLP165 T01940067 10233 20161 55007 (CMS)EQDQ01+000703ATOD  
0226722977931842010010500537+33680-117860FM-15+0017KSNA V0202105N00215045725MN0160935N5+01725+00726101655ADDAA101000095GA1075+045725999GA2075+076205999GD13991+0457259GD23991+0762059GF107991999999999999999999MA1101665101455REMMET10001/04/10 16:53:02 METAR KSNA 050053Z 21004KT 10SM BKN150 BKN250 17/07 A3002 RMK AO2 SLP165 T01720072
0226722977931842010010501537+33680-117860FM-15+0017KSNA V0209999C00005076205MN0160935N5+01615+00726101675ADDAA101000095GA1045+045725999GA2075+076205999GD12991+0457259GD23991+0762059GF107991999999999999999999MA1101665101455REMMET10001/04/10 17:53:02 METAR KSNA 050153Z 00000KT 10SM SCT150 BKN250 16/07 A3002 RMK AO2 SLP167 T01610072
0208722977931842010010502537+33680-117860FM-15+0017KSNA V0209999C000052200059N0160935N5+01445+00675101685ADDAA101000095GA1045+076205999GD12991+0762059GF104991999999999999999999MA1101695101495MD1390039+9999REMMET09901/04/10 18:53:01 METAR KSNA 050253Z 00000KT 10SM SCT250 14/07 A3003 RMK AO2 SLP168 T01440067 53003
0188722977931842010010503537+33680-117860FM-15+0017KSNA V0209999C000052200059N0160935N5+01335+00675101715ADDAA101000095GA1025+076205999GD11991+0762059GF102991999999999999999999MA1101735101525REMMET09301/04/10 19:53:01 METAR KSNA 050353Z 00000KT 10SM FEW250 13/07 A3004 RMK AO2 SLP171 T01330067
0189722977931842010010504537+33680-117860FM-15+0017KSNA V0209999C000052200059N0160935N5+01225+00505101745ADDAA101000095GF100991999999999999999999MA1101735101525REMMET09001/04/10 20:53:01 METAR KSNA 050453Z 00000KT 10SM CLR 12/05 A3004 RMK AO2 SLP174 T01220050EQDQ01    099SCCGD1P01    003SCCGA1
0247722977931842010010505537+33680-117860FM-15+0017KSNA V0209999C000052200059N0160935N5+01175+00225101785ADDAA101000095GF100991999999999999999999KA1999M+01941KA2999N+01111MA1101795101595MD1390109+9999REMMET10801/04/10 21:53:02 METAR KSNA 050553Z 00000KT 10SM CLR 12/02 A3006 RMK AO2 SLP178 T01170022 10194 20111 53010EQDQ01    099SCCGD1P01    003SCCGA1
0189722977931842010010506537+33680-117860FM-15+0017KSNA V0209999C000052200059N0160935N5+01065+00225101795ADDAA101000095GF100991999999999999999999MA1101795101595REMMET09001/04/10 22:53:02 METAR KSNA 050653Z 00000KT 10SM CLR 11/02 A3006 RMK AO2 SLP179 T01060022EQDQ01    099SCCGD1P01    003SCCGA1
0199722977931842010010507537+33680-117860FM-15+0017KSNA V0209999C000052200059N0160935N5+01005+00175101775ADDAA101000095GF100991999999999999999999MA1101795101595REMMET10001/04/10 23:53:02 METAR KSNA 050753Z 00000KT 10SM CLR 10/02 A3006 RMK AO2 SLP177 T01000017 402330072EQDQ01    099SCCGD1P01    003SCCGA1
0886722977931842010010507596+33680-117860SOD  +0017KSNA V020999999999999999999999999999+99999+99999999999ADDAA124000095KA1240M+02335KA2240N+00725MG1101564101634OE11240040221015555OE22240040207008205OE33240005499999995REMSOD73024 HR PRECIPITATION (IN):0.00  24 HR MAX TEMP (F):74 24 HR MAX TEMP TIME (LST):1511 24 HR MIN TEMP (F):45 24 HR MIN TEMP TIME (LST):0621 AVERAGE STATION PRESSURE:29.990 MINIMUM SEA LEVEL PRESSURE:30.01 TIME OF OCCURRENCE:1451 PEAK WIND SPEED (MPH):9   PEAK WIND DIR (DEG):210 PEAK WIND TIME (LST):1555  FASTEST 2MIN SPEED (MPH):9  FASTEST 2MIN DIR (DEG):70  FASTEST 2MIN TIME (LST):0820 AVERAGE WIND SPEED (MPH):1.2  24 HR AVG TEMP (F):60 HEATING DEGREE DAYS:5   COOLING DEGREE DAYS:0   LATEST DAY MAX TEMP (0700-1900 LST):74  LATEST NIGHT MIN TEMP(1900-0800 LST):45 HOURLY INCREMENTAL PRECIPITATION VALUES (IN):.00 0.00 0.00 0.00 0.00 0.00 0.00 0.00 0.00 0.00 0.00 0.00 0.00 0.00 0.00 0.00 0.00 0.00 0.00 0.00 0.00 0.00 0.00 0.00EQDR01     N7GJS072R02     N7GKS075
0209722977931842010010508537+33680-117860FM-15+0017KSNA V0209999C000052200059N0160935N5+00895+00335101745ADDAA101000095GF100991999999999999999999MA1101735101525MD1890049+9999REMMET09601/05/10 00:53:02 METAR KSNA 050853Z 00000KT 10SM CLR 09/03 A3004 RMK AO2 SLP174 T00890033 58004EQDQ01    099SCCGD1P01    003SCCGA1
0189722977931842010010509537+33680-117860FM-15+0017KSNA V0209999C000052200059N0160935N5+00835+00175101755ADDAA101000095GF100991999999999999999999MA1101765101565REMMET09001/05/10 01:53:02 METAR KSNA 050953Z 00000KT 10SM CLR 08/02 A3005 RMK AO2 SLP175 T00830017EQDQ01    099SCCGD1P01    003SCCGA1
0189722977931842010010510537+33680-117860FM-15+0017KSNA V0209999C000052200059N0160935N5+00785+00175101775ADDAA101000095GF100991999999999999999999MA1101795101595REMMET09001/05/10 02:53:02 METAR KSNA 051053Z 00000KT 10SM CLR 08/02 A3006 RMK AO2 SLP177 T00780017EQDQ01    099SCCGD1P01    003SCCGA1
0247722977931842010010511537+33680-117860FM-15+0017KSNA V0209999C000052200059N0160935N5+00725+00225101745ADDAA101000095GF100991999999999999999999KA1999M+01221KA2999N+00721MA1101765101565MD1090019+9999REMMET10801/05/10 03:53:02 METAR KSNA 051153Z 00000KT 10SM CLR 07/02 A3005 RMK AO2 SLP174 T00720022 10122 20072 50001EQDQ01    099SCCGD1P01    003SCCGA1
0189722977931842010010512537+33680-117860FM-15+0017KSNA V0209999C000052200059N0160935N5+00725+00115101695ADDAA101000095GF100991999999999999999999MA1101695101495REMMET09001/05/10 04:53:02 METAR KSNA 051253Z 00000KT 10SM CLR 07/01 A3003 RMK AO2 SLP169 T00720011EQDQ01    099SCCGD1P01    003SCCGA1
0195722977931842010010513537+33680-117860FM-15+0017KSNA V0202105N002152200059N0160935N5+00615+00175101755ADDAA101000095GF100991999999999999999999MA1101765101565REMMET09601/05/10 05:53:02 METAR KSNA 051353Z 21004KT 10SM CLR 06/02 A3005 RMK AO2 SLP175 T00610017 (JDT)EQDQ01    099SCCGD1P01    003SCCGA1
0214722977931842010010514537+33680-117860FM-15+0017KSNA V0209999C000052200059N0160935N5+00725+00065101805ADDAA101000095GA1025+076205999GD11991+0762059GF102991999999999999999999MA1101795101595MD1390069+9999REMMET10501/05/10 06:53:02 METAR KSNA 051453Z 00000KT 10SM FEW250 07/01 A3006 RMK AO2 SLP180 T00720006 53006 (JDT)
0194722977931842010010515537+33680-117860FM-15+0017KSNA V0209999C000052200059N0160935N5+00895+00115101875ADDAA101000095GA1025+076205999GD11991+0762059GF102991999999999999999999MA1101865101665REMMET09901/05/10 07:53:02 METAR KSNA 051553Z 00000KT 10SM FEW250 09/01 A3008 RMK AO2 SLP187 T00890011 (JDT)
0194722977931842010010516537+33680-117860FM-15+0017KSNA V0209999C000052200059N0160935N5+01395+00175101875ADDAA101000095GA1045+076205999GD12991+0762059GF104991999999999999999999MA1101905101695REMMET09901/05/10 08:53:02 METAR KSNA 051653Z 00000KT 10SM SCT250 14/02 A3009 RMK AO2 SLP187 T01390017 (JDT)
0252722977931842010010517537+33680-117860FM-15+0017KSNA V0209999C000052200059N0160935N5+01785+00115101865ADDAA101000095GA1045+076205999GD12991+0762059GF104991999999999999999999KA1999M+01781KA2999N+00611MA1101865101665MD1090069+9999REMMET11701/05/10 09:53:02 METAR KSNA 051753Z 00000KT 10SM SCT250 18/01 A3008 RMK AO2 SLP186 T01780011 10178 20061 50006 (JDT)
0194722977931842010010518537+33680-117860FM-15+0017KSNA V0209999V001552200059N0160935N5+01945+00285101865ADDAA101000095GA1025+076205999GD11991+0762059GF102991999999999999999999MA1101865101665REMMET09901/05/10 10:53:02 METAR KSNA 051853Z VRB03KT 10SM FEW250 19/03 A3008 RMK AO2 SLP186 T01940028 (JDT)
0194722977931842010010519537+33680-117860FM-15+0017KSNA V0202705N001552200059N0160935N5+02065+00445101785ADDAA101000095GA1025+076205999GD11991+0762059GF102991999999999999999999MA1101795101595REMMET09901/05/10 11:53:02 METAR KSNA 051953Z 27003KT 10SM FEW250 21/04 A3006 RMK AO2 SLP178 T02060044 (JDT)
0214722977931842010010520537+33680-117860FM-15+0017KSNA V0209999C000052200059N0160935N5+02065+00445101685ADDAA101000095GA1025+076205999GD11991+0762059GF102991999999999999999999MA1101695101495MD1890189+9999REMMET10501/05/10 12:53:02 METAR KSNA 052053Z 00000KT 10SM FEW250 21/04 A3003 RMK AO2 SLP168 T02060044 58018 (JDT)
0195722977931842010010521537+33680-117860FM-15+0017KSNA V0202205N001552200059N0160935N5+02175+00335101555ADDAA101000095GF100991999999999999999999MA1101565101355REMMET09601/05/10 13:53:02 METAR KSNA 052153Z 22003KT 10SM CLR 22/03 A2999 RMK AO2 SLP155 T02170033 (CMS)EQDQ01    099SCCGD1P01    003SCCGA1
0195722977931842010010522537+33680-117860FM-15+0017KSNA V0202105N003652200059N0160935N5+02115-00115101565ADDAA101000095GA1025+076205999GD11991+0762059GF102991999999999999999999MA1101565101355REMMET10001/05/10 14:53:02 METAR KSNA 052253Z 21007KT 10SM FEW250 21/M01 A2999 RMK AO2 SLP156 T02111011 (CMS)
0253722977931842010010523537+33680-117860FM-15+0017KSNA V0202505N002652200059N0160935N5+01835+00285101615ADDAA101000095GF100991999999999999999999KA1999M+02221KA2999N+01781MA1101635101425MD1590079+9999REMMET11401/05/10 15:53:02 METAR KSNA 052353Z 25005KT 10SM CLR 18/03 A3001 RMK AO2 SLP161 T01830028 10222 20178 55007 (CMS)EQDQ01    099SCCGD1P01    003SCCGA1
0188722977931842010010600537+33680-117860FM-15+0017KSNA V0202105N001552200059N0160935N5+01725+00505101625ADDAA101000095GA1045+076205999GD12991+0762059GF104991999999999999999999MA1101635101425REMMET09301/05/10 16:53:02 METAR KSNA 060053Z 21003KT 10SM SCT250 17/05 A3001 RMK AO2 SLP162 T01720050
0188722977931842010010601537+33680-117860FM-15+0017KSNA V0209999C000052200059N0160935N5+01615+00675101655ADDAA101000095GA1045+076205999GD12991+0762059GF104991999999999999999999MA1101665101455REMMET09301/05/10 17:53:02 METAR KSNA 060153Z 00000KT 10SM SCT250 16/07 A3002 RMK AO2 SLP165 T01610067
0208722977931842010010602537+33680-117860FM-15+0017KSNA V0209999C000052200059N0160935N5+01395+00615101695ADDAA101000095GA1025+076205999GD11991+0762059GF102991999999999999999999MA1101695101495MD1390089+9999REMMET09901/05/10 18:53:02 METAR KSNA 060253Z 00000KT 10SM FEW250 14/06 A3003 RMK AO2 SLP169 T01390061 53008
0188722977931842010010603537+33680-117860FM-15+0017KSNA V0201005N001552200059N0160935N5+01395+00505101705ADDAA101000095GA1045+076205999GD12991+0762059GF104991999999999999999999MA1101735101525REMMET09301/05/10 19:53:01 METAR KSNA 060353Z 10003KT 10SM SCT250 14/05 A3004 RMK AO2 SLP170 T01390050
0188722977931842010010604537+33680-117860FM-15+0017KSNA V0209999C000052200059N0160935N5+01445+00285101705ADDAA101000095GA1025+076205999GD11991+0762059GF102991999999999999999999MA1101735101525REMMET09301/05/10 20:53:02 METAR KSNA 060453Z 00000KT 10SM FEW250 14/03 A3004 RMK AO2 SLP170 T01440028
0247722977931842010010605537+33680-117860FM-15+0017KSNA V0209999C000052200059N0160935N5+01225+00335101705ADDAA101000095GF100991999999999999999999KA1999M+01831KA2999N+01171MA1101735101525MD1190019+9999REMMET10801/05/10 21:53:02 METAR KSNA 060553Z 00000KT 10SM CLR 12/03 A3004 RMK AO2 SLP170 T01220033 10183 20117 51001EQDQ01    099SCCGD1P01    003SCCGA1
0188722977931842010010606537+33680-117860FM-15+0017KSNA V0203105N001552200059N0160935N5+01115+00505101765ADDAA101000095GA1025+076205999GD11991+0762059GF102991999999999999999999MA1101765101565REMMET09301/05/10 22:53:02 METAR KSNA 060653Z 31003KT 10SM FEW250 11/05 A3005 RMK AO2 SLP176 T01110050
0199722977931842010010607537+33680-117860FM-15+0017KSNA V0200605N001552200059N0160935N5+01005+00615101745ADDAA101000095GF100991999999999999999999MA1101735101525REMMET10001/05/10 23:53:02 METAR KSNA 060753Z 06003KT 10SM CLR 10/06 A3004 RMK AO2 SLP174 T01000061 402220061EQDQ01    099SCCGD1P01    003SCCGA1
0886722977931842010010607596+33680-117860SOD  +0017KSNA V020999999999999999999999999999+99999+99999999999ADDAA124000095KA1240M+02225KA2240N+00615MG1101524101564OE11240058128012075OE22240040224015325OE33240008099999995REMSOD73024 HR PRECIPITATION (IN):0.00  24 HR MAX TEMP (F):72 24 HR MAX TEMP TIME (LST):1428 24 HR MIN TEMP (F):43 24 HR MIN TEMP TIME (LST):0642 AVERAGE STATION PRESSURE:29.980 MINIMUM SEA LEVEL PRESSURE:29.99 TIME OF OCCURRENCE:1517 PEAK WIND SPEED (MPH):13  PEAK WIND DIR (DEG):280 PEAK WIND TIME (LST):1207  FASTEST 2MIN SPEED (MPH):9  FASTEST 2MIN DIR (DEG):240 FASTEST 2MIN TIME (LST):1532 AVERAGE WIND SPEED (MPH):1.8  24 HR AVG TEMP (F):58 HEATING DEGREE DAYS:7   COOLING DEGREE DAYS:0   LATEST DAY MAX TEMP (0700-1900 LST):72  LATEST NIGHT MIN TEMP(1900-0800 LST):43 HOURLY INCREMENTAL PRECIPITATION VALUES (IN):.00 0.00 0.00 0.00 0.00 0.00 0.00 0.00 0.00 0.00 0.00 0.00 0.00 0.00 0.00 0.00 0.00 0.00 0.00 0.00 0.00 0.00 0.00 0.00EQDR01     N7GJS072R02     N7GKS075
0215722977931842010010608537+33680-117860FM-15+0017KSNA V0209999C000052200059N0160935N5+01005+00445101725ADDAA101000095GF100991999999999999999999MA1101735101525MD1090019+9999REMMET10201/06/10 00:53:02 METAR KSNA 060853Z 00000KT 10SM CLR 10/04 A3004 RMK AO2 SLP172 T01000044 50001 (CMS)EQDQ01    099SCCGD1P01    003SCCGA1
0195722977931842010010609537+33680-117860FM-15+0017KSNA V0209999C000052200059N0160935N5+00945+00395101735ADDAA101000095GF100991999999999999999999MA1101735101525REMMET09601/06/10 01:53:02 METAR KSNA 060953Z 00000KT 10SM CLR 09/04 A3004 RMK AO2 SLP173 T00940039 (CMS)EQDQ01    099SCCGD1P01    003SCCGA1
0195722977931842010010610537+33680-117860FM-15+0017KSNA V0209999C000052200059N0160935N5+01005+00285101735ADDAA101000095GF100991999999999999999999MA1101735101525REMMET09601/06/10 02:53:02 METAR KSNA 061053Z 00000KT 10SM CLR 10/03 A3004 RMK AO2 SLP173 T01000028 (CMS)EQDQ01    099SCCGD1P01    003SCCGA1
0253722977931842010010611537+33680-117860FM-15+0017KSNA V0209999C000052200059N0160935N5+00945+00335101715ADDAA101000095GF100991999999999999999999KA1999M+01221KA2999N+00891MA1101735101525MD1890019+9999REMMET11401/06/10 03:53:02 METAR KSNA 061153Z 00000KT 10SM CLR 09/03 A3004 RMK AO2 SLP171 T00940033 10122 20089 58001 (CMS)EQDQ01    099SCCGD1P01    003SCCGA1
0195722977931842010010612537+33680-117860FM-15+0017KSNA V0209999C000052200059N0160935N5+00835+00335101705ADDAA101000095GF100991999999999999999999MA1101695101495REMMET09601/06/10 04:53:02 METAR KSNA 061253Z 00000KT 10SM CLR 08/03 A3003 RMK AO2 SLP170 T00830033 (CMS)EQDQ01    099SCCGD1P01    003SCCGA1
0193722977931842010010613537+33680-117860FM-15+0017KSNA V0209999C00005060965MN0160935N5+00895+00395101725ADDAA101000095GA1075+060965999GD13991+0609659GF107991999999999999999999MA1101735101525REMMET09801/06/10 05:53:02 METAR KSNA 061353Z 00000KT 10SM BKN200 09/04 A3004 RMK AO2 SLP172 T00890039 (SM)
0251722977931842010010614537+33680-117860FM-15+0017KSNA V0209999C00005067065MN0160935N5+00945+00335101755ADDAA101000095GA1025+054865999GA2075+067065999GD11991+0548659GD23991+0670659GF107991999999999999999999MA1101765101565MD1390059+9999REMMET11101/06/10 06:53:02 METAR KSNA 061453Z 00000KT 10SM FEW180 BKN220 09/03 A3005 RMK AO2 SLP175 T00940033 53005 (SM)
0193722977931842010010615537+33680-117860FM-15+0017KSNA V0200305N00155067065MN0160935N5+01005+00335101795ADDAA101000095GA1075+067065999GD13991+0670659GF107991999999999999999999MA1101795101595REMMET09801/06/10 07:53:02 METAR KSNA 061553Z 03003KT 10SM BKN220 10/03 A3006 RMK AO2 SLP179 T01000033 (SM)
0193722977931842010010616537+33680-117860FM-15+0017KSNA V0209999C000052200059N0160935N5+01335+00395101825ADDAA101000095GA1045+067065999GD12991+0670659GF104991999999999999999999MA1101835101625REMMET09801/06/10 08:53:02 METAR KSNA 061653Z 00000KT 10SM SCT220 13/04 A3007 RMK AO2 SLP182 T01330039 (SM)
0289722977931842010010617537+33680-117860FM-15+0017KSNA V0209999C000052200059N0160935N5+01675+00225101865ADDAA101000095GA1025+054865999GA2045+067065999GD11991+0548659GD22991+0670659GF104991999999999999999999KA1999M+01721KA2999N+00831MA1101865101665MD1390119+9999REMMET12301/06/10 09:53:02 METAR KSNA 061753Z 00000KT 10SM FEW180 SCT220 17/02 A3008 RMK AO2 SLP186 T01670022 10172 20083 53011 (SM)
0231722977931842010010618537+33680-117860FM-15+0017KSNA V0209999C000052200059N0160935N5+01895+00285101815ADDAA101000095GA1025+054865999GA2045+067065999GD11991+0548659GD22991+0670659GF104991999999999999999999MA1101835101625REMMET10501/06/10 10:53:02 METAR KSNA 061853Z 00000KT 10SM FEW180 SCT220 19/03 A3007 RMK AO2 SLP181 T01890028 (SM)
0193722977931842010010619537+33680-117860FM-15+0017KSNA V0202005N002152200059N0160935N5+02065+00445101695ADDAA101000095GA1025+067065999GD11991+0670659GF102991999999999999999999MA1101695101495REMMET09801/06/10 11:53:02 METAR KSNA 061953Z 20004KT 10SM FEW220 21/04 A3003 RMK AO2 SLP169 T02060044 (SM)
0251722977931842010010620537+33680-117860FM-15+0017KSNA V0202005N001552200059N0160935N5+02115+00175101585ADDAA101000095GA1025+060965999GA2045+076205999GD11991+0609659GD22991+0762059GF104991999999999999999999MA1101595101395MD1890289+9999REMMET11101/06/10 12:53:02 METAR KSNA 062053Z 20003KT 10SM FEW200 SCT250 21/02 A3000 RMK AO2 SLP158 T02110017 58028 (SM)
0232722977931842010010621537+33680-117860FM-15+0017KSNA V0202605N001552200059N0160935N5+02115-00115101545ADDAA101000095GA1025+054865999GA2045+076205999GD11991+0548659GD22991+0762059GF104991999999999999999999MA1101565101355REMMET10601/06/10 13:53:02 METAR KSNA 062153Z 26003KT 10SM FEW180 SCT250 21/M01 A2999 RMK AO2 SLP154 T02111011 (SM)
0231722977931842010010622537+33680-117860FM-15+0017KSNA V0202005N00365076205MN0160935N5+01945+00615101545ADDAA101000095GA1025+060965999GA2075+076205999GD11991+0609659GD23991+0762059GF107991999999999999999999MA1101565101355REMMET10501/06/10 14:53:02 METAR KSNA 062253Z 20007KT 10SM FEW200 BKN250 19/06 A2999 RMK AO2 SLP154 T01940061 (SM)
0290722977931842010010623537+33680-117860FM-15+0017KSNA V0202105N00315076205MN0160935N5+01785+01006101545ADDAA101000095GA1025+060965999GA2075+076205999GD11991+0609659GD23991+0762059GF107991999999999999999999KA1999M+02171KA2999N+01671MA1101565101355MD1590049+9999REMMET12401/06/10 15:53:02 METAR KSNA 062353Z 21006KT 10SM FEW200 BKN250 18/10 A2999 RMK AO2 SLP154 T01780100 10217 20167 55004 (JDT)
0226722977931842010010700537+33680-117860FM-15+0017KSNA V0202205N00155076205MN0160935N5+01675+00945101525ADDAA101000095GA1025+060965999GA2075+076205999GD11991+0609659GD23991+0762059GF107991999999999999999999MA1101525101325REMMET10001/06/10 16:53:02 METAR KSNA 070053Z 22003KT 10SM FEW200 BKN250 17/09 A2998 RMK AO2 SLP152 T01670094
0188722977931842010010701537+33680-117860FM-15+0017KSNA V0209999C00005076205MN0160935N5+01505+00565101545ADDAA101000095GA1075+076205999GD13991+0762059GF107991999999999999999999MA1101565101355REMMET09301/06/10 17:53:02 METAR KSNA 070153Z 00000KT 10SM BKN250 15/06 A2999 RMK AO2 SLP154 T01500056
0208722977931842010010702537+33680-117860FM-15+0017KSNA V0209999C000052200059N0160935N5+01445+00395101605ADDAA101000095GA1025+076205999GD11991+0762059GF102991999999999999999999MA1101595101395MD1390069+9999REMMET09901/06/10 18:53:02 METAR KSNA 070253Z 00000KT 10SM FEW250 14/04 A3000 RMK AO2 SLP160 T01440039 53006
0188722977931842010010703537+33680-117860FM-15+0017KSNA V0209999C000052200059N0160935N5+01335+00785101625ADDAA101000095GA1045+076205999GD12991+0762059GF104991999999999999999999MA1101635101425REMMET09301/06/10 19:53:02 METAR KSNA 070353Z 00000KT 10SM SCT250 13/08 A3001 RMK AO2 SLP162 T01330078
0188722977931842010010704537+33680-117860FM-15+0017KSNA V0209999C000052200059N0160935N5+01285+00725101635ADDAA101000095GA1045+076205999GD12991+0762059GF104991999999999999999999MA1101635101425REMMET09301/06/10 20:53:01 METAR KSNA 070453Z 00000KT 10SM SCT250 13/07 A3001 RMK AO2 SLP163 T01280072
0246722977931842010010705537+33680-117860FM-15+0017KSNA V0209999C000052200059N0160935N5+01225+00675101645ADDAA101000095GA1045+076205999GD12991+0762059GF104991999999999999999999KA1999M+01781KA2999N+01171MA1101665101455MD1190049+9999REMMET11101/06/10 21:53:02 METAR KSNA 070553Z 00000KT 10SM SCT250 12/07 A3002 RMK AO2 SLP164 T01220067 10178 20117 51004
0188722977931842010010706537+33680-117860FM-15+0017KSNA V0209999C00005076205MN0160935N5+01115+00565101625ADDAA101000095GA1075+076205999GD13991+0762059GF107991999999999999999999MA1101635101425REMMET09301/06/10 22:53:01 METAR KSNA 070653Z 00000KT 10SM BKN250 11/06 A3001 RMK AO2 SLP162 T01110056
0199722977931842010010707537+33680-117860FM-15+0017KSNA V0209999C000052200059N0160935N5+01005+00505101585ADDAA101000095GF100991999999999999999999MA1101595101395REMMET10001/06/10 23:53:01 METAR KSNA 070753Z 00000KT 10SM CLR 10/05 A3000 RMK AO2 SLP158 T01000050 402170083EQDQ01    099SCCGD1P01    003SCCGA1
0886722977931842010010707596+33680-117860SOD  +0017KSNA V020999999999999999999999999999+99999+99999999999ADDAA124000095KA1240M+02175KA2240N+00835MG1101474101524OE11240058120014355OE22240040221014415OE33240006399999995REMSOD73024 HR PRECIPITATION (IN):0.00  24 HR MAX TEMP (F):71 24 HR MAX TEMP TIME (LST):1405 24 HR MIN TEMP (F):47 24 HR MIN TEMP TIME (LST):0621 AVERAGE STATION PRESSURE:29.965 MINIMUM SEA LEVEL PRESSURE:29.98 TIME OF OCCURRENCE:1805 PEAK WIND SPEED (MPH):13  PEAK WIND DIR (DEG):200 PEAK WIND TIME (LST):1435  FASTEST 2MIN SPEED (MPH):9  FASTEST 2MIN DIR (DEG):210 FASTEST 2MIN TIME (LST):1441 AVERAGE WIND SPEED (MPH):1.4  24 HR AVG TEMP (F):59 HEATING DEGREE DAYS:6   COOLING DEGREE DAYS:0   LATEST DAY MAX TEMP (0700-1900 LST):71  LATEST NIGHT MIN TEMP(1900-0800 LST):47 HOURLY INCREMENTAL PRECIPITATION VALUES (IN):.00 0.00 0.00 0.00 0.00 0.00 0.00 0.00 0.00 0.00 0.00 0.00 0.00 0.00 0.00 0.00 0.00 0.00 0.00 0.00 0.00 0.00 0.00 0.00EQDR01     N7GJS072R02     N7GKS075
0209722977931842010010708537+33680-117860FM-15+0017KSNA V0209999C000052200059N0160935N5+00945+00565101555ADDAA101000095GF100991999999999999999999MA1101565101355MD1890099+9999REMMET09601/07/10 00:53:02 METAR KSNA 070853Z 00000KT 10SM CLR 09/06 A2999 RMK AO2 SLP155 T00940056 58009EQDQ01    099SCCGD1P01    003SCCGA1
0189722977931842010010709537+33680-117860FM-15+0017KSNA V0209999C000052200059N0160935N5+00945+00505101595ADDAA101000095GF100991999999999999999999MA1101595101395REMMET09001/07/10 01:53:02 METAR KSNA 070953Z 00000KT 10SM CLR 09/05 A3000 RMK AO2 SLP159 T00940050EQDQ01    099SCCGD1P01    003SCCGA1
0189722977931842010010710537+33680-117860FM-15+0017KSNA V0209999C000052200059N0160935N5+00835+00445101585ADDAA101000095GF100991999999999999999999MA1101595101395REMMET09001/07/10 02:53:02 METAR KSNA 071053Z 00000KT 10SM CLR 08/04 A3000 RMK AO2 SLP158 T00830044EQDQ01    099SCCGD1P01    003SCCGA1
0263722977931842010010711537+33680-117860FM-15+0017KSNA V0209999C000052200059N0160935N5+00835+00335101555ADDAA101000095GF100991999999999999999999KA1999M+01221KA2999N+00781MA1101565101355MD1890009+9999REMMET10801/07/10 03:53:02 METAR KSNA 071153Z 00000KT 10SM CLR 08/03 A2999 RMK AO2 SLP155 T00830033 10122 20078 58000EQDQ01+000082APCTENQ02    099SCCGD1P01    003SCCGA1
0189722977931842010010712537+33680-117860FM-15+0017KSNA V0209999C000052200059N0160935N5+00785+00335101555ADDAA101000095GF100991999999999999999999MA1101565101355REMMET09001/07/10 04:53:02 METAR KSNA 071253Z 00000KT 10SM CLR 08/03 A2999 RMK AO2 SLP155 T00780033EQDQ01    099SCCGD1P01    003SCCGA1
0194722977931842010010713537+33680-117860FM-15+0017KSNA V0200205N001552200059N0160935N5+00785+00285101575ADDAA101000095GA1045+076205999GD12991+0762059GF104991999999999999999999MA1101565101355REMMET09901/07/10 05:53:02 METAR KSNA 071353Z 02003KT 10SM SCT250 08/03 A2999 RMK AO2 SLP157 T00780028 (JDT)
0214722977931842010010714537+33680-117860FM-15+0017KSNA V0209999C000052200059N0160935N5+00785+00335101575ADDAA101000095GA1045+067065999GD12991+0670659GF104991999999999999999999MA1101595101395MD1390039+9999REMMET10501/07/10 06:53:02 METAR KSNA 071453Z 00000KT 10SM SCT220 08/03 A3000 RMK AO2 SLP157 T00780033 53003 (JDT)
0194722977931842010010715537+33680-117860FM-15+0017KSNA V0209999C000052200059N0160935N5+00895+00395101605ADDAA101000095GA1045+067065999GD12991+0670659GF104991999999999999999999MA1101635101425REMMET09901/07/10 07:53:02 METAR KSNA 071553Z 00000KT 10SM SCT220 09/04 A3001 RMK AO2 SLP160 T00890039 (JDT)
0194722977931842010010716537+33680-117860FM-15+0017KSNA V0209999C000052200059N0160935N5+01285+00445101665ADDAA101000095GA1025+070105999GD11991+0701059GF102991999999999999999999MA1101665101455REMMET09901/07/10 08:53:02 METAR KSNA 071653Z 00000KT 10SM FEW230 13/04 A3002 RMK AO2 SLP166 T01280044 (JDT)
0252722977931842010010717537+33680-117860FM-15+0017KSNA V0209999C000052200059N0144845N5+01565+00725101685ADDAA101000095GF100991999999999999999999KA1999M+01561KA2999N+00721MA1101695101495MD1190119+9999REMMET11301/07/10 09:53:02 METAR KSNA 071753Z 00000KT 9SM CLR 16/07 A3003 RMK AO2 SLP168 T01560072 10156 20072 51011 (JDT)EQDQ01    099SCCGD1P01    003SCCGA1
0194722977931842010010718537+33680-117860FM-15+0017KSNA V0209999C000052200059N0128755N5+01725+00785101685ADDAA101000095GF100991999999999999999999MA1101695101495REMMET09501/07/10 10:53:02 METAR KSNA 071853Z 00000KT 8SM CLR 17/08 A3003 RMK AO2 SLP168 T01720078 (JDT)EQDQ01    099SCCGD1P01    003SCCGA1
0194722977931842010010719537+33680-117860FM-15+0017KSNA V0209999C000052200059N0128755N5+01895+00675101565ADDAA101000095GF100991999999999999999999MA1101565101355REMMET09501/07/10 11:53:02 METAR KSNA 071953Z 00000KT 8SM CLR 19/07 A2999 RMK AO2 SLP156 T01890067 (JDT)EQDQ01    099SCCGD1P01    003SCCGA1
0214722977931842010010720537+33680-117860FM-15+0017KSNA V0201905N001552200059N0144845N5+02005+00445101475ADDAA101000095GF100991999999999999999999MA1101465101255MD1890229+9999REMMET10101/07/10 12:53:02 METAR KSNA 072053Z 19003KT 9SM CLR 20/04 A2996 RMK AO2 SLP147 T02000044 58022 (JDT)EQDQ01    099SCCGD1P01    003SCCGA1
0194722977931842010010721537+33680-117860FM-15+0017KSNA V0202405N001552200059N0160935N5+02115+00445101415ADDAA101000095GF100991999999999999999999MA1101425101225REMMET09501/07/10 13:53:02 METAR KSNA 072153Z 24003KT 10SM CLR 21/04 A2995 RMK AO2 SLP141 T02110044 (SM)EQDQ01    099SCCGD1P01    003SCCGA1
0194722977931842010010722537+33680-117860FM-15+0017KSNA V0202105N003652200059N0160935N5+02065+00675101375ADDAA101000095GF100991999999999999999999MA1101395101185REMMET09501/07/10 14:53:02 METAR KSNA 072253Z 21007KT 10SM CLR 21/07 A2994 RMK AO2 SLP137 T02060067 (SM)EQDQ01    099SCCGD1P01    003SCCGA1
0251722977931842010010723537+33680-117860FM-15+0017KSNA V0202605N003152200059N0144845N5+01895+00835101435ADDAA101000095GF100991999999999999999999KA1999M+02111KA2999N+01561MA1101425101225MD1590049+9999REMMET11201/07/10 15:53:02 METAR KSNA 072353Z 26006KT 9SM CLR 19/08 A2995 RMK AO2 SLP143 T01890083 10211 20156 55004 (SM)EQDQ01    099SCCGD1P01    003SCCGA1
0207722977931842010010800537+33680-117860FM-15+0017KSNA V0201905N002652200059N0096565N5+01445+01115101505ADDAA101000095AU100007015GA1045+076205999GD12991+0762059GF104991999999999999999999MA1101525101325MW1055REMMET09501/07/10 16:53:02 METAR KSNA 080053Z 19005KT 6SM HZ SCT250 14/11 A2998 RMK AO2 SLP150 T01440111
0207722977931842010010801537+33680-117860FM-15+0017KSNA V0202105N002152200059N0064375N5+01285+01115101545ADDAA101000095AU100007015GA1025+076205999GD11991+0762059GF102991999999999999999999MA1101565101355MW1055REMMET09501/07/10 17:53:02 METAR KSNA 080153Z 21004KT 4SM HZ FEW250 13/11 A2999 RMK AO2 SLP154 T01280111
0227722977931842010010802537+33680-117860FM-15+0017KSNA V0209999C000052200059N0080475N5+01285+01115101595ADDAA101000095AU100007015GA1025+076205999GD11991+0762059GF102991999999999999999999MA1101595101395MD1190169+9999MW1055REMMET10101/07/10 18:53:01 METAR KSNA 080253Z 00000KT 5SM HZ FEW250 13/11 A3000 RMK AO2 SLP159 T01280111 51016
0207722977931842010010803537+33680-117860FM-15+0017KSNA V0209999C000052200059N0096565N5+01285+01005101575ADDAA101000095AU100007015GA1025+076205999GD11991+0762059GF102991999999999999999999MA1101595101395MW1055REMMET09501/07/10 19:53:01 METAR KSNA 080353Z 00000KT 6SM HZ FEW250 13/10 A3000 RMK AO2 SLP157 T01280100
0214722977931842010010804537+33680-117860FM-15+0017KSNA V0209999C000052200059N0080475N5+01175+01005101635ADDAA101000095AU100001015AW1105GF100991999999999999999999MA1101635101425MW1101REMMET09201/07/10 20:53:02 METAR KSNA 080453Z 00000KT 5SM BR CLR 12/10 A3001 RMK AO2 SLP163 T01170100EQDQ01    099SCCGD1P01    003SCCGA1
0246722977931842010010805537+33680-117860FM-15+0017KSNA V0209999C000052200059N0112655N5+01225+00895101685ADDAA101000095GF100991999999999999999999KA1999M+01891KA2999N+01171MA1101695101495MD1390099+9999REMMET10701/07/10 21:53:02 METAR KSNA 080553Z 00000KT 7SM CLR 12/09 A3003 RMK AO2 SLP168 T01220089 10189 20117 53009EQDQ01    099SCCGD1P01    003SCCGA1
0208722977931842010010806537+33680-117860FM-15+0017KSNA V0209999C000052200059N0096565N5+01065+00785101725ADDAA101000095AU100007015GF100991999999999999999999MA1101735101525MW1055REMMET09201/07/10 22:53:02 METAR KSNA 080653Z 00000KT 6SM HZ CLR 11/08 A3004 RMK AO2 SLP172 T01060078EQDQ01    099SCCGD1P01    003SCCGA1
0198722977931842010010807537+33680-117860FM-15+0017KSNA V0209999C000052200059N0112655N5+01065+00725101695ADDAA101000095GF100991999999999999999999MA1101695101495REMMET09901/07/10 23:53:02 METAR KSNA 080753Z 00000KT 7SM CLR 11/07 A3003 RMK AO2 SLP169 T01060072 402110072EQDQ01    099SCCGD1P01    003SCCGA1
0923722977931842010010807596+33680-117860SOD  +0017KSNA V020999999999999999999999999999+99999+99999999999ADDAA124000095AX1085245AX2015245KA1240M+02115KA2240N+00725MG1101374101354OE11240053626023205OE22240040221015085OE33240006799999995REMSOD74924 HR PRECIPITATION (IN):0.00  WEATHER(CODE):8,1  24 HR MAX TEMP (F):70 24 HR MAX TEMP TIME (LST):1438 24 HR MIN TEMP (F):45 24 HR MIN TEMP TIME (LST):0715 AVERAGE STATION PRESSURE:29.935 MINIMUM SEA LEVEL PRESSURE:29.93 TIME OF OCCURRENCE:1507 PEAK WIND SPEED (MPH):12  PEAK WIND DIR (DEG):260 PEAK WIND TIME (LST):2320  FASTEST 2MIN SPEED (MPH):9  FASTEST 2MIN DIR (DEG):210 FASTEST 2MIN TIME (LST):1508 AVERAGE WIND SPEED (MPH):1.5  24 HR AVG TEMP (F):58 HEATING DEGREE DAYS:7   COOLING DEGREE DAYS:0   LATEST DAY MAX TEMP (0700-1900 LST):70  LATEST NIGHT MIN TEMP(1900-0800 LST):45 HOURLY INCREMENTAL PRECIPITATION VALUES (IN):.00 0.00 0.00 0.00 0.00 0.00 0.00 0.00 0.00 0.00 0.00 0.00 0.00 0.00 0.00 0.00 0.00 0.00 0.00 0.00 0.00 0.00 0.00 0.00EQDR01     N7GJS072R02     N7GKS075
0233722977931842010010808537+33680-117860FM-15+0017KSNA V0209999C000052200059N0096565N5+01065+00785101655ADDAA101000095AU100007015GF100991999999999999999999MA1101665101455MD1890029+9999MW1055REMMET10301/08/10 00:53:02 METAR KSNA 080853Z 00000KT 6SM HZ CLR 11/08 A3002 RMK AO2 SLP165 T01060078 58002 (SM)EQDQ01    099SCCGD1P01    003SCCGA1
0193722977931842010010809537+33680-117860FM-15+0017KSNA V0209999C000052200059N0128755N5+01005+00565101705ADDAA101000095GF100991999999999999999999MA1101695101495REMMET09401/08/10 01:53:02 METAR KSNA 080953Z 00000KT 8SM CLR 10/06 A3003 RMK AO2 SLP170 T01000056 (SM)EQDQ01    099SCCGD1P01    003SCCGA1
0193722977931842010010810537+33680-117860FM-15+0017KSNA V0200405N001552200059N0128755N5+00945+00565101655ADDAA101000095GF100991999999999999999999MA1101665101455REMMET09401/08/10 02:53:02 METAR KSNA 081053Z 04003KT 8SM CLR 09/06 A3002 RMK AO2 SLP165 T00940056 (SM)EQDQ01    099SCCGD1P01    003SCCGA1
0251722977931842010010811537+33680-117860FM-15+0017KSNA V0209999C000052200059N0128755N5+00945+00615101675ADDAA101000095GF100991999999999999999999KA1999M+01221KA2999N+00941MA1101695101495MD1190029+9999REMMET11201/08/10 03:53:02 METAR KSNA 081153Z 00000KT 8SM CLR 09/06 A3003 RMK AO2 SLP167 T00940061 10122 20094 51002 (SM)EQDQ01    099SCCGD1P01    003SCCGA1
0188722977931842010010812537+33680-117860FM-15+0017KSNA V0202805N001552200059N0128755N5+00945+00565101715ADDAA101000095GF100991999999999999999999MA1101735101525REMMET08901/08/10 04:53:02 METAR KSNA 081253Z 28003KT 8SM CLR 09/06 A3004 RMK AO2 SLP171 T00940056EQDQ01    099SCCGD1P01    003SCCGA1
0257722977931842010010813537+33680-117860FM-15+0017KSNA V0209999C00005076205MN0064375N5+00895+00675101755ADDAA101000095AU100001015AW1105GA1045+003055999GA2075+076205999GD12991+0030559GD23991+0762059GF107991999999999999999999MA1101765101565MW1101REMMET10801/08/10 05:53:02 METAR KSNA 081353Z 00000KT 4SM BR SCT010 BKN250 09/07 A3005 RMK AO2 SLP175 T00890067 (JDT)
0269722977931842010010814107+33680-117860FM-16+0017KSNA V0209999C00005003055WN0008056N5+00905+00705999999ADDAU100001016AW1106GA1095+003055999GD15991+0030559GF109991999999000251999999MA1101765101565MW1101REMMET09501/08/10 06:10:02 SPECI KSNA 081410Z 00000KT 1/2SM BR VV010 09/07 A3005 RMK AO2 SFC VIS 1 (JDT)EQDR01 1/2SM7VIS018R02    BR7AWW018R03SEERMK7MVW018R04    BR7MWW018
0243722977931842010010814157+33680-117860FM-16+0017KSNA V0209999C00005076205MN0004025N5+00905+00805999999ADDAU100002015AW1305GA1045+003055999GA2075+076205999GD12991+0030559GD23991+0762059GF107991999999999999999999MA1101765101565MW1441REMMET10501/08/10 06:15:02 SPECI KSNA 081415Z 00000KT 1/4SM FG SCT010 BKN250 09/08 A3005 RMK AO2 TWR VIS 1/2 (JDT)
0310722977931842010010814367+33680-117860FM-16+0017KSNA V0209999C00005003055MN0008056N5+00905+00805999999ADDAU100001016AW1106GA1075+003055999GA2075+076205999GD13991+0030559GD23991+0762059GF107991999999999999999999MA1101795101595MW1101REMMET10501/08/10 06:36:02 SPECI KSNA 081436Z 00000KT 1/2SM BR BKN010 BKN250 09/08 A3006 RMK AO2 SFC VIS 3/4 (JDT)EQDR01 1/2SM7VIS018R02    BR7AWW018R03SEERMK7MVW018R04    BR7MWW018
0240722977931842010010814427+33680-117860FM-16+0017KSNA V0209999C00005076205MN0016095N5+00805+00805999999ADDAU100001015AW1105GA1045+003055999GA2075+076205999GD12991+0030559GD23991+0762059GF107991999999999999999999MA1101795101595MW1101REMMET10201/08/10 06:42:02 SPECI KSNA 081442Z 00000KT 1SM BR SCT010 BKN250 08/08 A3006 RMK AO2 TWR VIS 10 (JDT)
0182722977931842010010814516+33680-117860FM-16+0017KSNA V0209999C000052200059N0128755N5+00805+00805999999ADDGA1045+003055999GA2045+076205999GD12991+0030559GD22991+0762059MA1101795101595REMMET09301/08/10 06:51:02 SPECI KSNA 081451Z 00000KT 8SM SCT010 SCT250 08/08 A3006 RMK AO2 FIBI (JDT)
0251722977931842010010814537+33680-117860FM-15+0017KSNA V0209999C000052200059N0128755N5+00835+00785101795ADDAA101000095GA1045+003055999GA2045+076205999GD12991+0030559GD22991+0762059GF104991999999999999999999MA1101795101595MD1290129+9999REMMET11101/08/10 06:53:02 METAR KSNA 081453Z 00000KT 8SM SCT010 SCT250 08/08 A3006 RMK AO2 SLP179 T00830078 52012 (JDT)
0193722977931842010010815537+33680-117860FM-15+0017KSNA V0209999C00005076205MN0128755N5+01005+00615101835ADDAA101000095GA1075+076205999GD13991+0762059GF107991999999999999999999MA1101835101625REMMET09801/08/10 07:53:02 METAR KSNA 081553Z 00000KT 8SM BKN250 10/06 A3007 RMK AO2 SLP183 T01000061 (JDT)
0193722977931842010010816537+33680-117860FM-15+0017KSNA V0209999C00005076205MN0128755N5+01335+00675101885ADDAA101000095GA1075+076205999GD13991+0762059GF107991999999999999999999MA1101905101695REMMET09801/08/10 08:53:02 METAR KSNA 081653Z 00000KT 8SM BKN250 13/07 A3009 RMK AO2 SLP188 T01330067 (JDT)
0271722977931842010010817537+33680-117860FM-15+0017KSNA V0209999C00005076205MN0080475N5+01565+00675101955ADDAA101000095AU100007015GA1075+076205999GD13991+0762059GF107991999999999999999999KA1999M+01561KA2999N+00781MA1101965101765MD1390179+9999MW1055REMMET11901/08/10 09:53:02 METAR KSNA 081753Z 00000KT 5SM HZ BKN250 16/07 A3011 RMK AO2 SLP195 T01560067 10156 20078 53017 (JDT)
0193722977931842010010818537+33680-117860FM-15+0017KSNA V0209999C00005076205MN0112655N5+01835+00725101935ADDAA101000095GA1075+076205999GD13991+0762059GF107991999999999999999999MA1101935101735REMMET09801/08/10 10:53:02 METAR KSNA 081853Z 00000KT 7SM BKN250 18/07 A3010 RMK AO2 SLP193 T01830072 (JDT)
0213722977931842010010819537+33680-117860FM-15+0017KSNA V0209999C00005076205MN0080475N5+02065+00565101855ADDAA101000095AU100007015GA1075+076205999GD13991+0762059GF107991999999999999999999MA1101865101665MW1055REMMET10101/08/10 11:53:02 METAR KSNA 081953Z 00000KT 5SM HZ BKN250 21/06 A3008 RMK AO2 SLP185 T02060056 (JDT)
0213722977931842010010820537+33680-117860FM-15+0017KSNA V0202205N00265076205MN0128755N5+02285+00445101775ADDAA101000095GA1075+076205999GD13991+0762059GF107991999999999999999999MA1101765101565MD1890199+9999REMMET10401/08/10 12:53:02 METAR KSNA 082053Z 22005KT 8SM BKN250 23/04 A3005 RMK AO2 SLP177 T02280044 58019 (JDT)
0193722977931842010010821537+33680-117860FM-15+0017KSNA V0202205N00265076205MN0160935N5+02285+00175101745ADDAA101000095GA1075+076205999GD13991+0762059GF107991999999999999999999MA1101765101565REMMET09801/08/10 13:53:02 METAR KSNA 082153Z 22005KT 10SM BKN250 23/02 A3005 RMK AO2 SLP174 T02280017 (SM)
0231722977931842010010822537+33680-117860FM-15+0017KSNA V0202205N00265076205MN0160935N5+02335+00225101745ADDAA101000095GA1045+036585999GA2075+076205999GD12991+0365859GD23991+0762059GF107991999999999999999999MA1101765101565REMMET10501/08/10 14:53:02 METAR KSNA 082253Z 22005KT 10SM SCT120 BKN250 23/02 A3005 RMK AO2 SLP174 T02330022 (SM)
0289722977931842010010823537+33680-117860FM-15+0017KSNA V0202805N00155076205MN0160935N5+02285+00175101765ADDAA101000095GA1025+036585999GA2075+076205999GD11991+0365859GD23991+0762059GF107991999999999999999999KA1999M+02331KA2999N+01561MA1101765101565MD1590009+9999REMMET12301/08/10 15:53:02 METAR KSNA 082353Z 28003KT 10SM FEW120 BKN250 23/02 A3005 RMK AO2 SLP176 T02280017 10233 20156 55000 (SM)
0226722977931842010010900537+33680-117860FM-15+0017KSNA V0209999C00005076205MN0160935N5+02065+00445101815ADDAA101000095GA1025+036585999GA2075+076205999GD11991+0365859GD23991+0762059GF107991999999999999999999MA1101835101625REMMET10001/08/10 16:53:01 METAR KSNA 090053Z 00000KT 10SM FEW120 BKN250 21/04 A3007 RMK AO2 SLP181 T02060044
0187722977931842010010901537+33680-117860FM-15+0017KSNA V0209999C00005076205MN0112655N5+01785+00895101835ADDAA101000095GA1075+076205999GD13991+0762059GF107991999999999999999999MA1101835101625REMMET09201/08/10 17:53:01 METAR KSNA 090153Z 00000KT 7SM BKN250 18/09 A3007 RMK AO2 SLP183 T01780089
0207722977931842010010902537+33680-117860FM-15+0017KSNA V0209999C000052200059N0112655N5+01615+00785101855ADDAA101000095GA1045+076205999GD12991+0762059GF104991999999999999999999MA1101865101665MD1190099+9999REMMET09801/08/10 18:53:01 METAR KSNA 090253Z 00000KT 7SM SCT250 16/08 A3008 RMK AO2 SLP185 T01610078 51009
0187722977931842010010903537+33680-117860FM-15+0017KSNA V0209999C000052200059N0112655N5+01615+00785101935ADDAA101000095GA1045+076205999GD12991+0762059GF104991999999999999999999MA1101935101735REMMET09201/08/10 19:53:01 METAR KSNA 090353Z 00000KT 7SM SCT250 16/08 A3010 RMK AO2 SLP193 T01610078
0188722977931842010010904537+33680-117860FM-15+0017KSNA V0209999C000052200059N0112655N5+01565+00725101985ADDAA101000095GF100991999999999999999999MA1102005101795REMMET08901/08/10 20:53:02 METAR KSNA 090453Z 00000KT 7SM CLR 16/07 A3012 RMK AO2 SLP198 T01560072EQDQ01    099SCCGD1P01    003SCCGA1
0246722977931842010010905537+33680-117860FM-15+0017KSNA V0209999C000052200059N0128755N5+01505+00615101985ADDAA101000095GF100991999999999999999999KA1999M+02281KA2999N+01331MA1102005101795MD1090139+9999REMMET10701/08/10 21:53:02 METAR KSNA 090553Z 00000KT 8SM CLR 15/06 A3012 RMK AO2 SLP198 T01500061 10228 20133 50013EQDQ01    099SCCGD1P01    003SCCGA1
0188722977931842010010906537+33680-117860FM-15+0017KSNA V0209999C000052200059N0160935N5+01285+00505102005ADDAA101000095GA1025+076205999GD11991+0762059GF102991999999999999999999MA1102005101795REMMET09301/08/10 22:53:02 METAR KSNA 090653Z 00000KT 10SM FEW250 13/05 A3012 RMK AO2 SLP200 T01280050
0199722977931842010010907537+33680-117860FM-15+0017KSNA V0209999C000052200059N0160935N5+01285+00505101965ADDAA101000095GF100991999999999999999999MA1101965101765REMMET10001/08/10 23:53:01 METAR KSNA 090753Z 00000KT 10SM CLR 13/05 A3011 RMK AO2 SLP196 T01280050 402330078EQDQ01    099SCCGD1P01    003SCCGA1
0982722977931842010010907596+33680-117860SOD  +0017KSNA V020999999999999999999999999999+99999+99999999999ADDAA124000095AX1086246AX2016246AX3026246KA1240M+02335KA2240N+00785MG1101634101634OE11240040220013135OE22240031322014545OE33240005499999995REMSOD75124 HR PRECIPITATION (IN):0.00  WEATHER(CODE):8,1,2  24 HR MAX TEMP (F):74 24 HR MAX TEMP TIME (LST):1533 24 HR MIN TEMP (F):46 24 HR MIN TEMP TIME (LST):0620 AVERAGE STATION PRESSURE:30.010 MINIMUM SEA LEVEL PRESSURE:30.01 TIME OF OCCURRENCE:0313 PEAK WIND SPEED (MPH):9   PEAK WIND DIR (DEG):200 PEAK WIND TIME (LST):1313  FASTEST 2MIN SPEED (MPH):7  FASTEST 2MIN DIR (DEG):220 FASTEST 2MIN TIME (LST):1454 AVERAGE WIND SPEED (MPH):1.2  24 HR AVG TEMP (F):60 HEATING DEGREE DAYS:5   COOLING DEGREE DAYS:0   LATEST DAY MAX TEMP (0700-1900 LST):74  LATEST NIGHT MIN TEMP(1900-0800 LST):46 HOURLY INCREMENTAL PRECIPITATION VALUES (IN):.00 0.00 0.00 0.00 0.00 0.00 0.00 0.00 0.00 0.00 0.00 0.00 0.00 0.00 0.00 0.00 0.00 0.00 0.00 0.00 0.00 0.00 0.00 0.00EQDR01 8,1,27AXW090R02 8,1,27AXW090R03 8,1,27AXW090R04     N7GJS072R05     N7GKS075
0209722977931842010010908537+33680-117860FM-15+0017KSNA V0209999C000052200059N0160935N5+01115+00565101975ADDAA101000095GF100991999999999999999999MA1101965101765MD1890019+9999REMMET09601/09/10 00:53:02 METAR KSNA 090853Z 00000KT 10SM CLR 11/06 A3011 RMK AO2 SLP197 T01110056 58001EQDQ01    099SCCGD1P01    003SCCGA1
0189722977931842010010909537+33680-117860FM-15+0017KSNA V0209999C000052200059N0160935N5+01115+00565101985ADDAA101000095GF100991999999999999999999MA1102005101795REMMET09001/09/10 01:53:02 METAR KSNA 090953Z 00000KT 10SM CLR 11/06 A3012 RMK AO2 SLP198 T01110056EQDQ01    099SCCGD1P01    003SCCGA1
0189722977931842010010910537+33680-117860FM-15+0017KSNA V0209999C000052200059N0160935N5+01065+00565101985ADDAA101000095GF100991999999999999999999MA1102005101795REMMET09001/09/10 02:53:02 METAR KSNA 091053Z 00000KT 10SM CLR 11/06 A3012 RMK AO2 SLP198 T01060056EQDQ01    099SCCGD1P01    003SCCGA1
0247722977931842010010911537+33680-117860FM-15+0017KSNA V0209999C000052200059N0160935N5+01005+00505101945ADDAA101000095GF100991999999999999999999KA1999M+01501KA2999N+01001MA1101935101735MD1890039+9999REMMET10801/09/10 03:53:02 METAR KSNA 091153Z 00000KT 10SM CLR 10/05 A3010 RMK AO2 SLP194 T01000050 10150 20100 58003EQDQ01    099SCCGD1P01    003SCCGA1
0189722977931842010010912537+33680-117860FM-15+0017KSNA V0209999C000052200059N0160935N5+00945+00565101955ADDAA101000095GF100991999999999999999999MA1101965101765REMMET09001/09/10 04:53:02 METAR KSNA 091253Z 00000KT 10SM CLR 09/06 A3011 RMK AO2 SLP195 T00940056EQDQ01    099SCCGD1P01    003SCCGA1
0194722977931842010010913537+33680-117860FM-15+0017KSNA V0209999C000052200059N0160935N5+00945+00505101975ADDAA101000095GF100991999999999999999999MA1101965101765REMMET09501/09/10 05:53:02 METAR KSNA 091353Z 00000KT 10SM CLR 09/05 A3011 RMK AO2 SLP197 T00940050 (SM)EQDQ01    099SCCGD1P01    003SCCGA1
0213722977931842010010914537+33680-117860FM-15+0017KSNA V0209999C000052200059N0160935N5+00945+00505102015ADDAA101000095GA1045+076205999GD12991+0762059GF104991999999999999999999MA1102035101835MD1390089+9999REMMET10401/09/10 06:53:02 METAR KSNA 091453Z 00000KT 10SM SCT250 09/05 A3013 RMK AO2 SLP201 T00940050 53008 (SM)
0193722977931842010010915537+33680-117860FM-15+0017KSNA V0209999C000052200059N0160935N5+01065+00505102045ADDAA101000095GA1045+076205999GD12991+0762059GF104991999999999999999999MA1102035101835REMMET09801/09/10 07:53:02 METAR KSNA 091553Z 00000KT 10SM SCT250 11/05 A3013 RMK AO2 SLP204 T01060050 (SM)
0193722977931842010010916537+33680-117860FM-15+0017KSNA V0209999C000052200059N0160935N5+01505+00505102095ADDAA101000095GA1045+076205999GD12991+0762059GF104991999999999999999999MA1102105101895REMMET09801/09/10 08:53:02 METAR KSNA 091653Z 00000KT 10SM SCT250 15/05 A3015 RMK AO2 SLP209 T01500050 (SM)
0251722977931842010010917537+33680-117860FM-15+0017KSNA V0209999C00005076205MN0160935N5+01835+00445102145ADDAA101000095GA1075+076205999GD13991+0762059GF107991999999999999999999KA1999M+01831KA2999N+00891MA1102175101965MD1390139+9999REMMET11601/09/10 09:53:02 METAR KSNA 091753Z 00000KT 10SM BKN250 18/04 A3017 RMK AO2 SLP214 T01830044 10183 20089 53013 (SM)
0192722977931842010010918537+33680-117860FM-15+0017KSNA V0202105N00155076205MN0144845N5+02065+00675102115ADDAA101000095GA1075+076205999GD13991+0762059GF107991999999999999999999MA1102135101935REMMET09701/09/10 10:53:02 METAR KSNA 091853Z 21003KT 9SM BKN250 21/07 A3016 RMK AO2 SLP211 T02060067 (SM)
0193722977931842010010919537+33680-117860FM-15+0017KSNA V0202305N00315076205MN0160935N5+02175+00285102025ADDAA101000095GA1075+076205999GD13991+0762059GF107991999999999999999999MA1102035101835REMMET09801/09/10 11:53:02 METAR KSNA 091953Z 23006KT 10SM BKN250 22/03 A3013 RMK AO2 SLP202 T02170028 (SM)
0213722977931842010010920537+33680-117860FM-15+0017KSNA V0202605N00265076205MN0160935N5+02225+00335101915ADDAA101000095GA1075+076205999GD13991+0762059GF107991999999999999999999MA1101935101735MD1890239+9999REMMET10401/09/10 12:53:02 METAR KSNA 092053Z 26005KT 10SM BKN250 22/03 A3010 RMK AO2 SLP191 T02220033 58023 (SM)
0193722977931842010010921537+33680-117860FM-15+0017KSNA V0202305N00215076205MN0160935N5+02225+00225101855ADDAA101000095GA1075+076205999GD13991+0762059GF107991999999999999999999MA1101865101665REMMET09801/09/10 13:53:02 METAR KSNA 092153Z 23004KT 10SM BKN250 22/02 A3008 RMK AO2 SLP185 T02220022 (SM)
0194722977931842010010922537+33680-117860FM-15+0017KSNA V0202205N00365076205MN0160935N5+02225+00225101855ADDAA101000095GA1075+076205999GD13991+0762059GF107991999999999999999999MA1101865101665REMMET09901/09/10 14:53:02 METAR KSNA 092253Z 22007KT 10SM BKN250 22/02 A3008 RMK AO2 SLP185 T02220022 (CMS)
0252722977931842010010923537+33680-117860FM-15+0017KSNA V0202205N00265076205MN0160935N5+02115+00225101855ADDAA101000095GA1075+076205999GD13991+0762059GF107991999999999999999999KA1999M+02281KA2999N+01831MA1101865101665MD1590069+9999REMMET11701/09/10 15:53:02 METAR KSNA 092353Z 22005KT 10SM BKN250 21/02 A3008 RMK AO2 SLP185 T02110022 10228 20183 55006 (CMS)
0188722977931842010011000537+33680-117860FM-15+0017KSNA V0209999C00005060965MN0160935N5+01835+00565101885ADDAA101000095GA1075+060965999GD13991+0609659GF107991999999999999999999MA1101905101695REMMET09301/09/10 16:53:01 METAR KSNA 100053Z 00000KT 10SM BKN200 18/06 A3009 RMK AO2 SLP188 T01830056
0188722977931842010011001537+33680-117860FM-15+0017KSNA V0209999C00005060965MN0160935N5+01725+00565101905ADDAA101000095GA1075+060965999GD13991+0609659GF107991999999999999999999MA1101905101695REMMET09301/09/10 17:53:02 METAR KSNA 100153Z 00000KT 10SM BKN200 17/06 A3009 RMK AO2 SLP190 T01720056
0208722977931842010011002537+33680-117860FM-15+0017KSNA V0209999C00005060965MN0160935N5+01615+00615101905ADDAA101000095GA1075+060965999GD13991+0609659GF107991999999999999999999MA1101905101695MD1090059+9999REMMET09901/09/10 18:53:01 METAR KSNA 100253Z 00000KT 10SM BKN200 16/06 A3009 RMK AO2 SLP190 T01610061 50005
0188722977931842010011003537+33680-117860FM-15+0017KSNA V0209999C00005060965MN0160935N5+01615+00675101925ADDAA101000095GA1075+060965999GD13991+0609659GF107991999999999999999999MA1101935101735REMMET09301/09/10 19:53:02 METAR KSNA 100353Z 00000KT 10SM BKN200 16/07 A3010 RMK AO2 SLP192 T01610067
0188722977931842010011004537+33680-117860FM-15+0017KSNA V0201005N00155060965MN0160935N5+01615+00615101915ADDAA101000095GA1075+060965999GD13991+0609659GF107991999999999999999999MA1101905101695REMMET09301/09/10 20:53:02 METAR KSNA 100453Z 10003KT 10SM BKN200 16/06 A3009 RMK AO2 SLP191 T01610061
0246722977931842010011005537+33680-117860FM-15+0017KSNA V0209999C00005060965MN0160935N5+01505+00615101885ADDAA101000095GA1075+060965999GD13991+0609659GF107991999999999999999999KA1999M+02111KA2999N+01501MA1101905101695MD1890029+9999REMMET11101/09/10 21:53:02 METAR KSNA 100553Z 00000KT 10SM BKN200 15/06 A3009 RMK AO2 SLP188 T01500061 10211 20150 58002
0188722977931842010011006537+33680-117860FM-15+0017KSNA V0209999C00005060965MN0160935N5+01505+00505101835ADDAA101000095GA1075+060965999GD13991+0609659GF107991999999999999999999MA1101835101625REMMET09301/09/10 22:53:02 METAR KSNA 100653Z 00000KT 10SM BKN200 15/05 A3007 RMK AO2 SLP183 T01500050
0199722977931842010011007537+33680-117860FM-15+0017KSNA V0201905N002652200059N0160935N5+01445+00725101795ADDAA101000095GF100991999999999999999999MA1101795101595REMMET10001/09/10 23:53:01 METAR KSNA 100753Z 19005KT 10SM CLR 14/07 A3006 RMK AO2 SLP179 T01440072 402280089EQDQ01    099SCCGD1P01    003SCCGA1
0886722977931842010011007596+33680-117860SOD  +0017KSNA V020999999999999999999999999999+99999+99999999999ADDAA124000095KA1240M+02285KA2240N+00895MG1101744101794OE11240058128023595OE22240040227023595OE33240008099999995REMSOD73024 HR PRECIPITATION (IN):0.00  24 HR MAX TEMP (F):73 24 HR MAX TEMP TIME (LST):1459 24 HR MIN TEMP (F):48 24 HR MIN TEMP TIME (LST):0645 AVERAGE STATION PRESSURE:30.045 MINIMUM SEA LEVEL PRESSURE:30.06 TIME OF OCCURRENCE:2355 PEAK WIND SPEED (MPH):13  PEAK WIND DIR (DEG):280 PEAK WIND TIME (LST):2359  FASTEST 2MIN SPEED (MPH):9  FASTEST 2MIN DIR (DEG):270 FASTEST 2MIN TIME (LST):2359 AVERAGE WIND SPEED (MPH):1.8  24 HR AVG TEMP (F):61 HEATING DEGREE DAYS:4   COOLING DEGREE DAYS:0   LATEST DAY MAX TEMP (0700-1900 LST):73  LATEST NIGHT MIN TEMP(1900-0800 LST):48 HOURLY INCREMENTAL PRECIPITATION VALUES (IN):.00 0.00 0.00 0.00 0.00 0.00 0.00 0.00 0.00 0.00 0.00 0.00 0.00 0.00 0.00 0.00 0.00 0.00 0.00 0.00 0.00 0.00 0.00 0.00EQDR01     N7GJS072R02     N7GKS075
0208722977931842010011008537+33680-117860FM-15+0017KSNA V0209999C000052200059N0144845N5+01445+00895101905ADDAA101000095GF100991999999999999999999MA1101905101695MD1390019+9999REMMET09501/10/10 00:53:02 METAR KSNA 100853Z 00000KT 9SM CLR 14/09 A3009 RMK AO2 SLP190 T01440089 53001EQDQ01    099SCCGD1P01    003SCCGA1
0189722977931842010011009537+33680-117860FM-15+0017KSNA V0209999C000052200059N0160935N5+01395+00895101955ADDAA101000095GF100991999999999999999999MA1101965101765REMMET09001/10/10 01:53:02 METAR KSNA 100953Z 00000KT 10SM CLR 14/09 A3011 RMK AO2 SLP195 T01390089EQDQ01    099SCCGD1P01    003SCCGA1
0189722977931842010011010537+33680-117860FM-15+0017KSNA V0209999C000052200059N0160935N5+01395+00785101935ADDAA101000095GF100991999999999999999999MA1101935101735REMMET09001/10/10 02:53:02 METAR KSNA 101053Z 00000KT 10SM CLR 14/08 A3010 RMK AO2 SLP193 T01390078EQDQ01    099SCCGD1P01    003SCCGA1
0247722977931842010011011537+33680-117860FM-15+0017KSNA V0209999C000052200059N0160935N5+01175+00785101885ADDAA101000095GF100991999999999999999999KA1999M+01611KA2999N+01171MA1101905101695MD1890029+9999REMMET10801/10/10 03:53:02 METAR KSNA 101153Z 00000KT 10SM CLR 12/08 A3009 RMK AO2 SLP188 T01170078 10161 20117 58002EQDQ01    099SCCGD1P01    003SCCGA1
0189722977931842010011012537+33680-117860FM-15+0017KSNA V0209999C000052200059N0160935N5+01115+00725101875ADDAA101000095GF100991999999999999999999MA1101865101665REMMET09001/10/10 04:53:02 METAR KSNA 101253Z 00000KT 10SM CLR 11/07 A3008 RMK AO2 SLP187 T01110072EQDQ01    099SCCGD1P01    003SCCGA1
0194722977931842010011013537+33680-117860FM-15+0017KSNA V0209999C000052200059N0160935N5+01065+00675101895ADDAA101000095GF100991999999999999999999MA1101905101695REMMET09501/10/10 05:53:02 METAR KSNA 101353Z 00000KT 10SM CLR 11/07 A3009 RMK AO2 SLP189 T01060067 (KN)EQDQ01    099SCCGD1P01    003SCCGA1
0213722977931842010011014537+33680-117860FM-15+0017KSNA V0209999C000052200059N0160935N5+01065+00725101925ADDAA101000095GA1025+045725999GD11991+0457259GF102991999999999999999999MA1101935101735MD1390049+9999REMMET10401/10/10 06:53:02 METAR KSNA 101453Z 00000KT 10SM FEW150 11/07 A3010 RMK AO2 SLP192 T01060072 53004 (KN)
0193722977931842010011015537+33680-117860FM-15+0017KSNA V0209999C000052200059N0160935N5+01175+00725101925ADDAA101000095GA1025+045725999GD11991+0457259GF102991999999999999999999MA1101935101735REMMET09801/10/10 07:53:02 METAR KSNA 101553Z 00000KT 10SM FEW150 12/07 A3010 RMK AO2 SLP192 T01170072 (KN)
0193722977931842010011016537+33680-117860FM-15+0017KSNA V0209999C000052200059N0160935N5+01565+00785101975ADDAA101000095GA1025+045725999GD11991+0457259GF102991999999999999999999MA1101965101765REMMET09801/10/10 08:53:02 METAR KSNA 101653Z 00000KT 10SM FEW150 16/08 A3011 RMK AO2 SLP197 T01560078 (KN)
0251722977931842010011017537+33680-117860FM-15+0017KSNA V0202305N001552200059N0160935N5+01835+00895101985ADDAA101000095GA1025+045725999GD11991+0457259GF102991999999999999999999KA1999M+01831KA2999N+01001MA1102005101795MD1390069+9999REMMET11601/10/10 09:53:02 METAR KSNA 101753Z 23003KT 10SM FEW150 18/09 A3012 RMK AO2 SLP198 T01830089 10183 20100 53006 (KN)
0193722977931842010011018537+33680-117860FM-15+0017KSNA V0209999V001552200059N0160935N5+02065+00785101935ADDAA101000095GA1025+060965999GD11991+0609659GF102991999999999999999999MA1101935101735REMMET09801/10/10 10:53:02 METAR KSNA 101853Z VRB03KT 10SM FEW200 21/08 A3010 RMK AO2 SLP193 T02060078 (KN)
0193722977931842010011019537+33680-117860FM-15+0017KSNA V0202205N003152200059N0160935N5+02115+00565101855ADDAA101000095GA1045+060965999GD12991+0609659GF104991999999999999999999MA1101865101665REMMET09801/10/10 11:53:02 METAR KSNA 101953Z 22006KT 10SM SCT200 21/06 A3008 RMK AO2 SLP185 T02110056 (KN)
0213722977931842010011020537+33680-117860FM-15+0017KSNA V0202205N00155060965MN0160935N5+02115+00445101755ADDAA101000095GA1075+060965999GD13991+0609659GF107991999999999999999999MA1101765101565MD1890239+9999REMMET10401/10/10 12:53:02 METAR KSNA 102053Z 22003KT 10SM BKN200 21/04 A3005 RMK AO2 SLP175 T02110044 58023 (KN)
0193722977931842010011021537+33680-117860FM-15+0017KSNA V0202405N00215045725MN0160935N5+02065+00395101755ADDAA101000095GA1075+045725999GD13991+0457259GF107991999999999999999999MA1101765101565REMMET09801/10/10 13:53:02 METAR KSNA 102153Z 24004KT 10SM BKN150 21/04 A3005 RMK AO2 SLP175 T02060039 (KN)
0232722977931842010011022537+33680-117860FM-15+0017KSNA V0202805N00265045725MN0160935N5+01945+00565101765ADDAA101000095GA1075+045725999GA2075+060965999GD13991+0457259GD23991+0609659GF107991999999999999999999MA1101765101565REMMET10601/10/10 14:53:02 METAR KSNA 102253Z 28005KT 10SM BKN150 BKN200 19/06 A3005 RMK AO2 SLP176 T01940056 (CMS)
0290722977931842010011023537+33680-117860FM-15+0017KSNA V0202405N00265045725MN0160935N5+01945+00675101795ADDAA101000095GA1075+045725999GA2075+060965999GD13991+0457259GD23991+0609659GF107991999999999999999999KA1999M+02111KA2999N+01831MA1101795101595MD1390049+9999REMMET12401/10/10 15:53:02 METAR KSNA 102353Z 24005KT 10SM BKN150 BKN200 19/07 A3006 RMK AO2 SLP179 T01940067 10211 20183 53004 (CMS)
0188722977931842010011100537+33680-117860FM-15+0017KSNA V0209999C00005060965MN0160935N5+01895+00675101815ADDAA101000095GA1075+060965999GD13991+0609659GF107991999999999999999999MA1101835101625REMMET09301/10/10 16:53:01 METAR KSNA 110053Z 00000KT 10SM BKN200 19/07 A3007 RMK AO2 SLP181 T01890067
0189722977931842010011101537+33680-117860FM-15+0017KSNA V0209999C000052200059N0160935N5+01725+00675101855ADDAA101000095GF100991999999999999999999MA1101865101665REMMET09001/10/10 17:53:01 METAR KSNA 110153Z 00000KT 10SM CLR 17/07 A3008 RMK AO2 SLP185 T01720067EQDQ01    099SCCGD1P01    003SCCGA1
0209722977931842010011102537+33680-117860FM-15+0017KSNA V0209999C000052200059N0160935N5+01565+00725101925ADDAA101000095GF100991999999999999999999MA1101935101735MD1390139+9999REMMET09601/10/10 18:53:01 METAR KSNA 110253Z 00000KT 10SM CLR 16/07 A3010 RMK AO2 SLP192 T01560072 53013EQDQ01    099SCCGD1P01    003SCCGA1
0189722977931842010011103537+33680-117860FM-15+0017KSNA V0209999C000052200059N0160935N5+01505+00725101955ADDAA101000095GF100991999999999999999999MA1101965101765REMMET09001/10/10 19:53:02 METAR KSNA 110353Z 00000KT 10SM CLR 15/07 A3011 RMK AO2 SLP195 T01500072EQDQ01    099SCCGD1P01    003SCCGA1
0189722977931842010011104537+33680-117860FM-15+0017KSNA V0209999C000052200059N0160935N5+01335+00725101985ADDAA101000095GF100991999999999999999999MA1102005101795REMMET09001/10/10 20:53:02 METAR KSNA 110453Z 00000KT 10SM CLR 13/07 A3012 RMK AO2 SLP198 T01330072EQDQ01    099SCCGD1P01    003SCCGA1
0247722977931842010011105537+33680-117860FM-15+0017KSNA V0209999C000052200059N0160935N5+01285+00725102015ADDAA101000095GF100991999999999999999999KA1999M+01941KA2999N+01281MA1102005101795MD1190099+9999REMMET10801/10/10 21:53:02 METAR KSNA 110553Z 00000KT 10SM CLR 13/07 A3012 RMK AO2 SLP201 T01280072 10194 20128 51009EQDQ01    099SCCGD1P01    003SCCGA1
0189722977931842010011106537+33680-117860FM-15+0017KSNA V0209999C000052200059N0160935N5+01285+00725102035ADDAA101000095GF100991999999999999999999MA1102035101835REMMET09001/10/10 22:53:02 METAR KSNA 110653Z 00000KT 10SM CLR 13/07 A3013 RMK AO2 SLP203 T01280072EQDQ01    099SCCGD1P01    003SCCGA1
0199722977931842010011107537+33680-117860FM-15+0017KSNA V0209999C000052200059N0160935N5+01115+00675101995ADDAA101000095GF100991999999999999999999MA1102005101795REMMET10001/10/10 23:53:01 METAR KSNA 110753Z 00000KT 10SM CLR 11/07 A3012 RMK AO2 SLP199 T01110067 402110100EQDQ01    099SCCGD1P01    003SCCGA1
0886722977931842010011107596+33680-117860SOD  +0017KSNA V020999999999999999999999999999+99999+99999999999ADDAA124000095KA1240M+02115KA2240N+01005MG1101714101734OE11240080527000015OE22240053627000015OE33240006399999995REMSOD73024 HR PRECIPITATION (IN):0.00  24 HR MAX TEMP (F):70 24 HR MAX TEMP TIME (LST):1326 24 HR MIN TEMP (F):50 24 HR MIN TEMP TIME (LST):0728 AVERAGE STATION PRESSURE:30.035 MINIMUM SEA LEVEL PRESSURE:30.04 TIME OF OCCURRENCE:1437 PEAK WIND SPEED (MPH):18  PEAK WIND DIR (DEG):270 PEAK WIND TIME (LST):0001  FASTEST 2MIN SPEED (MPH):12 FASTEST 2MIN DIR (DEG):270 FASTEST 2MIN TIME (LST):0001 AVERAGE WIND SPEED (MPH):1.4  24 HR AVG TEMP (F):60 HEATING DEGREE DAYS:5   COOLING DEGREE DAYS:0   LATEST DAY MAX TEMP (0700-1900 LST):70  LATEST NIGHT MIN TEMP(1900-0800 LST):50 HOURLY INCREMENTAL PRECIPITATION VALUES (IN):.00 0.00 0.00 0.00 0.00 0.00 0.00 0.00 0.00 0.00 0.00 0.00 0.00 0.00 0.00 0.00 0.00 0.00 0.00 0.00 0.00 0.00 0.00 0.00EQDR01     N7GJS072R02     N7GKS075
0209722977931842010011108537+33680-117860FM-15+0017KSNA V0209999C000052200059N0160935N5+01115+00675101985ADDAA101000095GF100991999999999999999999MA1102005101795MD1890029+9999REMMET09601/11/10 00:53:02 METAR KSNA 110853Z 00000KT 10SM CLR 11/07 A3012 RMK AO2 SLP198 T01110067 58002EQDQ01    099SCCGD1P01    003SCCGA1
0189722977931842010011109537+33680-117860FM-15+0017KSNA V0209999C000052200059N0160935N5+01005+00565101985ADDAA101000095GF100991999999999999999999MA1102005101795REMMET09001/11/10 01:53:02 METAR KSNA 110953Z 00000KT 10SM CLR 10/06 A3012 RMK AO2 SLP198 T01000056EQDQ01    099SCCGD1P01    003SCCGA1
0189722977931842010011110537+33680-117860FM-15+0017KSNA V0209999C000052200059N0160935N5+01065+00615101965ADDAA101000095GF100991999999999999999999MA1101965101765REMMET09001/11/10 02:53:02 METAR KSNA 111053Z 00000KT 10SM CLR 11/06 A3011 RMK AO2 SLP196 T01060061EQDQ01    099SCCGD1P01    003SCCGA1
0247722977931842010011111537+33680-117860FM-15+0017KSNA V0209999C000052200059N0160935N5+00945+00565101945ADDAA101000095GF100991999999999999999999KA1999M+01391KA2999N+00891MA1101965101765MD1890049+9999REMMET10801/11/10 03:53:02 METAR KSNA 111153Z 00000KT 10SM CLR 09/06 A3011 RMK AO2 SLP194 T00940056 10139 20089 58004EQDQ01    099SCCGD1P01    003SCCGA1
0189722977931842010011112537+33680-117860FM-15+0017KSNA V0209999C000052200059N0160935N5+00945+00565101925ADDAA101000095GF100991999999999999999999MA1101935101735REMMET09001/11/10 04:53:02 METAR KSNA 111253Z 00000KT 10SM CLR 09/06 A3010 RMK AO2 SLP192 T00940056EQDQ01    099SCCGD1P01    003SCCGA1
0194722977931842010011113537+33680-117860FM-15+0017KSNA V0209999C000052200059N0144845N5+00895+00565101955ADDAA101000095GF100991999999999999999999MA1101965101765REMMET09501/11/10 05:53:02 METAR KSNA 111353Z 00000KT 9SM CLR 09/06 A3011 RMK AO2 SLP195 T00890056 (JDT)EQDQ01    099SCCGD1P01    003SCCGA1
0252722977931842010011114537+33680-117860FM-15+0017KSNA V0209999C000052200059N0160935N5+00945+00505102005ADDAA101000095GA1025+054865999GA2045+076205999GD11991+0548659GD22991+0762059GF104991999999999999999999MA1102005101795MD1390069+9999REMMET11201/11/10 06:53:02 METAR KSNA 111453Z 00000KT 10SM FEW180 SCT250 09/05 A3012 RMK AO2 SLP200 T00940050 53006 (JDT)
0193722977931842010011115537+33680-117860FM-15+0017KSNA V0209999C000052200059N0112655N5+01115+00615102045ADDAA101000095GA1045+076205999GD12991+0762059GF104991999999999999999999MA1102075101865REMMET09801/11/10 07:53:02 METAR KSNA 111553Z 00000KT 7SM SCT250 11/06 A3014 RMK AO2 SLP204 T01110061 (JDT)
0213722977931842010011116537+33680-117860FM-15+0017KSNA V0209999C000052200059N0096565N5+01505+00675102065ADDAA101000095AU100007015GA1045+076205999GD12991+0762059GF104991999999999999999999MA1102075101865MW1055REMMET10101/11/10 08:53:02 METAR KSNA 111653Z 00000KT 6SM HZ SCT250 15/07 A3014 RMK AO2 SLP206 T01500067 (JDT)
0251722977931842010011117537+33680-117860FM-15+0017KSNA V0209999C000052200059N0112655N5+01835+00725102105ADDAA101000095GA1025+076205999GD11991+0762059GF102991999999999999999999KA1999M+01831KA2999N+00831MA1102105101895MD1390109+9999REMMET11601/11/10 09:53:02 METAR KSNA 111753Z 00000KT 7SM FEW250 18/07 A3015 RMK AO2 SLP210 T01830072 10183 20083 53010 (JDT)
0193722977931842010011118537+33680-117860FM-15+0017KSNA V0202605N001552200059N0128755N5+02065+00895102055ADDAA101000095GA1025+076205999GD11991+0762059GF102991999999999999999999MA1102075101865REMMET09801/11/10 10:53:02 METAR KSNA 111853Z 26003KT 8SM FEW250 21/09 A3014 RMK AO2 SLP205 T02060089 (JDT)
0193722977931842010011119537+33680-117860FM-15+0017KSNA V0202305N003152200059N0128755N5+02175+00725101955ADDAA101000095GA1045+076205999GD12991+0762059GF104991999999999999999999MA1101965101765REMMET09801/11/10 11:53:02 METAR KSNA 111953Z 23006KT 8SM SCT250 22/07 A3011 RMK AO2 SLP195 T02170072 (JDT)
0213722977931842010011120537+33680-117860FM-15+0017KSNA V0202205N00265076205MN0144845N5+02175+00615101865ADDAA101000095GA1075+076205999GD13991+0762059GF107991999999999999999999MA1101865101665MD1890259+9999REMMET10401/11/10 12:53:02 METAR KSNA 112053Z 22005KT 9SM BKN250 22/06 A3008 RMK AO2 SLP186 T02170061 58025 (JDT)
0194722977931842010011121537+33680-117860FM-15+0017KSNA V0202205N00215076205MN0160935N5+02115+00445101805ADDAA101000095GA1075+076205999GD13991+0762059GF107991999999999999999999MA1101795101595REMMET09901/11/10 13:53:02 METAR KSNA 112153Z 22004KT 10SM BKN250 21/04 A3006 RMK AO2 SLP180 T02110044 (CMS)
0194722977931842010011122537+33680-117860FM-15+0017KSNA V0202105N00155076205MN0160935N5+02285+00445101785ADDAA101000095GA1075+076205999GD13991+0762059GF107991999999999999999999MA1101795101595REMMET09901/11/10 14:53:02 METAR KSNA 112253Z 21003KT 10SM BKN250 23/04 A3006 RMK AO2 SLP178 T02280044 (CMS)
0252722977931842010011123537+33680-117860FM-15+0017KSNA V0202405N00215076205MN0160935N5+02225+00335101785ADDAA101000095GA1075+076205999GD13991+0762059GF107991999999999999999999KA1999M+02331KA2999N+01831MA1101795101595MD1590089+9999REMMET11701/11/10 15:53:02 METAR KSNA 112353Z 24004KT 10SM BKN250 22/03 A3006 RMK AO2 SLP178 T02220033 10233 20183 55008 (CMS)
0188722977931842010011200537+33680-117860FM-15+0017KSNA V0209999C00005076205MN0160935N5+02005+00565101825ADDAA101000095GA1075+076205999GD13991+0762059GF107991999999999999999999MA1101835101625REMMET09301/11/10 16:53:02 METAR KSNA 120053Z 00000KT 10SM BKN250 20/06 A3007 RMK AO2 SLP182 T02000056
0188722977931842010011201537+33680-117860FM-15+0017KSNA V0209999C000052200059N0160935N5+01835+00615101895ADDAA101000095GA1025+076205999GD11991+0762059GF102991999999999999999999MA1101905101695REMMET09301/11/10 17:53:01 METAR KSNA 120153Z 00000KT 10SM FEW250 18/06 A3009 RMK AO2 SLP189 T01830061
0208722977931842010011202537+33680-117860FM-15+0017KSNA V0209999C000052200059N0160935N5+01615+00785101925ADDAA101000095GA1025+076205999GD11991+0762059GF102991999999999999999999MA1101935101735MD1190159+9999REMMET09901/11/10 18:53:02 METAR KSNA 120253Z 00000KT 10SM FEW250 16/08 A3010 RMK AO2 SLP192 T01610078 51015
0188722977931842010011203537+33680-117860FM-15+0017KSNA V0209999C000052200059N0160935N5+01565+00725101965ADDAA101000095GA1025+076205999GD11991+0762059GF102991999999999999999999MA1101965101765REMMET09301/11/10 19:53:02 METAR KSNA 120353Z 00000KT 10SM FEW250 16/07 A3011 RMK AO2 SLP196 T01560072
0188722977931842010011204537+33680-117860FM-15+0017KSNA V0209999C000052200059N0160935N5+01615+00565101975ADDAA101000095GA1025+076205999GD11991+0762059GF102991999999999999999999MA1102005101795REMMET09301/11/10 20:53:02 METAR KSNA 120453Z 00000KT 10SM FEW250 16/06 A3012 RMK AO2 SLP197 T01610056
0246722977931842010011205537+33680-117860FM-15+0017KSNA V0209999C00005060965MN0160935N5+01445+00395102005ADDAA101000095GA1075+060965999GD13991+0609659GF107991999999999999999999KA1999M+02221KA2999N+01441MA1102005101795MD1190089+9999REMMET11101/11/10 21:53:01 METAR KSNA 120553Z 00000KT 10SM BKN200 14/04 A3012 RMK AO2 SLP200 T01440039 10222 20144 51008
