0191722907531432010010101477+32826-116970FM-15+0118KSEE V0209999C000052200059N0241405N5+01407+00707999999ADDGA1025+045725999GD11991+0457259GF102991999999999999999999MA1102475101055REMMET07212/31/09 17:47:01 METAR KSEE 010147Z 00000KT 15SM FEW150 14/07 A3026 RMKEQDR01    147TMP046R02    077DPT046
0236722907531432010010104477+32826-116970FM-15+0118KSEE V0209999C000052200079N0144845N5+00907+00607999999ADDGF100991999999999999999999MA1102615101185REMMET08412/31/09 20:47:01 METAR KSEE 010447Z 00000KT 9SM SKC 09/06 A3030 RMK LAST WX OF 2009EQDQ01    099SCCGD1P01    003SCCGA1R01   SKC7SKY009R02    097TMP046R03    067DPT046R04   SKC7GAS009
0191722907531432010010117477+32826-116970FM-15+0118KSEE V0209999C00005076205MN0402345N5+01307+00307999999ADDGA1075+076205999GD13991+0762059GF107991999999999999999999MA1102405100985REMMET07201/01/10 09:47:02 METAR KSEE 011747Z 00000KT 25SM BKN250 13/03 A3024 RMKEQDR01    137TMP046R02    037DPT046
0191722907531432010010119477+32826-116970FM-15+0118KSEE V0209999C000052200059N0402345N5+02107+00007999999ADDGA1045+076205999GD12991+0762059GF104991999999999999999999MA1102245100815REMMET07201/01/10 11:47:02 METAR KSEE 011947Z 00000KT 25SM SCT250 21/00 A3019 RMKEQDR01    217TMP046R02    007DPT046
0191722907531432010010120477+32826-116970FM-15+0118KSEE V0209999C000052200059N0402345N5+02307+00107999999ADDGA1045+076205999GD12991+0762059GF104991999999999999999999MA1102105100685REMMET07201/01/10 12:47:01 METAR KSEE 012047Z 00000KT 25SM SCT250 23/01 A3015 RMKEQDR01    237TMP046R02    017DPT046
0190722907531432010010202477+32826-116970FM-15+0118KSEE V0209999C00005030485MN0144845N5+01407+00607999999ADDGA1075+030485999GD13991+0304859GF107991999999999999999999MA1101935100515REMMET07101/01/10 18:47:02 METAR KSEE 020247Z 00000KT 9SM BKN100 14/06 A3010 RMKEQDR01    147TMP046R02    067DPT046
0191722907531432010010203477+32826-116970FM-15+0118KSEE V0209999C00005030485MN0193125N5+01407+00607999999ADDGA1075+030485999GD13991+0304859GF107991999999999999999999MA1101965100555REMMET07201/01/10 19:47:01 METAR KSEE 020347Z 00000KT 12SM BKN100 14/06 A3011 RMKEQDR01    147TMP046R02    067DPT046
0196722907531432010010204477+32826-116970FM-15+0118KSEE V0209999C000052200059N0193125N5+01307+00607999999ADDGA1045+030485999GD12991+0304859GF104991999999999999999999MA1101935100515REMMET07701/01/10 20:47:01 METAR KSEE 020447Z 00000KT 12SM SCT100 13/06 A3010 RMK LASTEQDR01    137TMP046R02    067DPT046
0221722907531432010010214477+32826-116970FM-15+0118KSEE V0209999C000052200079N0402345N5+00507+00407999999ADDGF100991999999999999999999MA1101935100515REMMET06901/02/10 06:47:02 METAR KSEE 021447Z 00000KT 25SM SKC 05/04 A3010 RMKEQDQ01    099SCCGD1P01    003SCCGA1R01   SKC7SKY009R02    057TMP046R03    047DPT046R04   SKC7GAS009
0191722907531432010010220477+32826-116970FM-15+0118KSEE V0202805N003652200059N0402345N5+02407+00207999999ADDGA1025+060965999GD11991+0609659GF102991999999999999999999MA1101665100255REMMET07201/02/10 12:47:02 METAR KSEE 022047Z 28007KT 25SM FEW200 24/02 A3002 RMKEQDR01    247TMP046R02    027DPT046
0191722907531432010010223477+32826-116970FM-15+0118KSEE V0202905N003652200059N0402345N5+02307+00207999999ADDGA1045+060965999GD12991+0609659GF104991999999999999999999MA1101635100215REMMET07201/02/10 15:47:02 METAR KSEE 022347Z 29007KT 25SM SCT200 23/02 A3001 RMKEQDR01    237TMP046R02    027DPT046
0191722907531432010010300477+32826-116970FM-15+0118KSEE V0209999V003152200059N0402345N5+01807+00207999999ADDGA1045+060965999GD12991+0609659GF104991999999999999999999MA1101665100255REMMET07201/02/10 16:47:01 METAR KSEE 030047Z VRB06KT 25SM SCT200 18/02 A3002 RMKEQDR01    187TMP046R02    027DPT046
0222722907531432010010302477+32826-116970FM-15+0118KSEE V0209999C000052200079N9999999N5+01307+00307999999ADDGF100991999999999999999999MA1101765100355REMMET07001/02/10 18:47:02 METAR KSEE 030247Z 00000KT 122SM SKC 13/03 A3005 RMKEQDQ01    099SCCGD1P01    003SCCGA1R01   SKC7SKY009R02    137TMP046R03    037DPT046R04   SKC7GAS009
0221722907531432010010303477+32826-116970FM-15+0118KSEE V0209999C000052200079N0193125N5+01107+00407999999ADDGF100991999999999999999999MA1101795100385REMMET06901/02/10 19:47:02 METAR KSEE 030347Z 00000KT 12SM SKC 11/04 A3006 RMKEQDQ01    099SCCGD1P01    003SCCGA1R01   SKC7SKY009R02    117TMP046R03    047DPT046R04   SKC7GAS009
0226722907531432010010304477+32826-116970FM-15+0118KSEE V0209999C000052200079N0193125N5+01007+00307999999ADDGF100991999999999999999999MA1101835100415REMMET07401/02/10 20:47:02 METAR KSEE 030447Z 00000KT 12SM SKC 10/03 A3007 RMK LASTEQDQ01    099SCCGD1P01    003SCCGA1R01   SKC7SKY009R02    107TMP046R03    037DPT046R04   SKC7GAS009
0191722907531432010010317477+32826-116970FM-15+0118KSEE V0209999C000052200059N0402345N5+01307+00107999999ADDGA1025+060965999GD11991+0609659GF102991999999999999999999MA1101935100515REMMET07201/03/10 09:47:02 METAR KSEE 031747Z 00000KT 25SM FEW200 13/01 A3010 RMKEQDR01    137TMP046R02    017DPT046
0207722907531432010010318477+32826-116970FM-15+0118KSEE V0209999C000052200059N0402345N5+01807+99999999999ADDGA1045+060965999GD12991+0609659GF104991999999999999999999MA1101865100455REMMET07201/03/10 10:47:02 METAR KSEE 031847Z 00000KT 25SM SCT200 18/10 A3008 RMKEQDP01 +01003ATOD  R01    187TMP046R02    107DPT046
0191722907531432010010319477+32826-116970FM-15+0118KSEE V0209999C000052200059N0402345N5+02307+00107999999ADDGA1045+060965999GD12991+0609659GF104991999999999999999999MA1101735100315REMMET07201/03/10 11:47:02 METAR KSEE 031947Z 00000KT 25SM SCT200 23/01 A3004 RMKEQDR01    237TMP046R02    017DPT046
0192722907531432010010320477+32826-116970FM-15+0118KSEE V0209999C000052200059N0402345N5+02707-01007999999ADDGA1045+060965999GD12991+0609659GF104991999999999999999999MA1101635100215REMMET07301/03/10 12:47:02 METAR KSEE 032047Z 00000KT 25SM SCT200 27/M10 A3001 RMKEQDR01    277TMP046R02   M107DPT046
0192722907531432010010322477+32826-116970FM-15+0118KSEE V0209999C00005060965MN0402345N5+02307-00207999999ADDGA1075+060965999GD13991+0609659GF107991999999999999999999MA1101665100255REMMET07301/03/10 14:47:01 METAR KSEE 032247Z 00000KT 25SM BKN200 23/M02 A3002 RMKEQDR01    237TMP046R02   M027DPT046
0225722907531432010010404477+32826-116970FM-15+0118KSEE V0209999C000052200079N0112655N5+00907+00107999999ADDGF100991999999999999999999MA1101865100455REMMET07301/03/10 20:47:02 METAR KSEE 040447Z 00000KT 7SM SKC 09/01 A3008 RMK LASTEQDQ01    099SCCGD1P01    003SCCGA1R01   SKC7SKY009R02    097TMP046R03    017DPT046R04   SKC7GAS009
0249722907531432010010415477+32826-116970FM-15+0118KSEE V0209999C000050300019N0321877N5+00607+00107999999ADDAU100000017GD13991+0300019GF107991999999999999999999MA1101905100485REMMET07101/04/10 07:47:02 METAR KSEE 041547Z 00000KT 20SM BK100 06/01 A3009 RMKEQDR01      7SKY009R02  20SM7VIS011R03    067TMP046R04    017DPT046R05 BK1007AWW013R06      7GAS009
0188722907531432010010418477+32826-116970FM-15+0118KSEE V0209999C00005030486MN0402345N5+99999+99999999999ADDGA1076+030486999GD13991+0304869GF107991999999999999999999MA1101905100485REMMET06901/04/10 10:47:02 METAR KSEE 041847Z 00000KT 25SM BKN100 14 A3009 RMKEQDR01BKN1007SKY010R02BKN1007GAS010
0191722907531432010010419477+32826-116970FM-15+0118KSEE V0209999C00005030485MN0402345N5+02107+00107999999ADDGA1075+030485999GD13991+0304859GF107991999999999999999999MA1101795100385REMMET07201/04/10 11:47:02 METAR KSEE 041947Z 00000KT 25SM BKN100 21/01 A3006 RMKEQDR01    217TMP046R02    017DPT046
0229722907531432010010420477+32826-116970FM-15+0118KSEE V0209999C00005033535MN0402345N5+02207+00007999999ADDGA1025+024385999GA2075+033535999GD11991+0243859GD23991+0335359GF107991999999999999999999MA1101695100285REMMET07901/04/10 12:47:02 METAR KSEE 042047Z 00000KT 25SM FEW080 BKN110 22/00 A3003 RMKEQDR01    227TMP046R02    007DPT046
0192722907531432010010500477+32826-116970FM-15+0118KSEE V0209999C00005045725MN0402345N5+01807-00107999999ADDGA1075+045725999GD13991+0457259GF107991999999999999999999MA1101765100355REMMET07301/04/10 16:47:02 METAR KSEE 050047Z 00000KT 25SM BKN150 18/M01 A3005 RMKEQDR01    187TMP046R02   M017DPT046
0191722907531432010010501477+32826-116970FM-15+0118KSEE V0209999C00005045725MN0193125N5+01407+00007999999ADDGA1075+045725999GD13991+0457259GF107991999999999999999999MA1101765100355REMMET07201/04/10 17:47:02 METAR KSEE 050147Z 00000KT 12SM BKN150 14/00 A3005 RMKEQDR01    147TMP046R02    007DPT046
0221722907531432010010514477+32826-116970FM-15+0118KSEE V0209999C000052200079N0402345N5+00207+00007999999ADDGF100991999999999999999999MA1101865100455REMMET06901/05/10 06:47:02 METAR KSEE 051447Z 00000KT 25SM SKC 02/00 A3008 RMKEQDQ01    099SCCGD1P01    003SCCGA1R01   SKC7SKY009R02    027TMP046R03    007DPT046R04   SKC7GAS009
0221722907531432010010515477+32826-116970FM-15+0118KSEE V0209999C000052200079N0402345N5+00407+00007999999ADDGF100991999999999999999999MA1101935100515REMMET06901/05/10 07:47:02 METAR KSEE 051547Z 00000KT 25SM SKC 04/00 A3010 RMKEQDQ01    099SCCGD1P01    003SCCGA1R01   SKC7SKY009R02    047TMP046R03    007DPT046R04   SKC7GAS009
0221722907531432010010516477+32826-116970FM-15+0118KSEE V0209999C000052200079N0402345N5+00907+00007999999ADDGF100991999999999999999999MA1101965100555REMMET06901/05/10 08:47:02 METAR KSEE 051647Z 00000KT 25SM SKC 09/00 A3011 RMKEQDQ01    099SCCGD1P01    003SCCGA1R01   SKC7SKY009R02    097TMP046R03    007DPT046R04   SKC7GAS009
0191722907531432010010517477+32826-116970FM-15+0118KSEE V0209999C000052200059N0402345N5+01307+00007999999ADDGA1025+060965999GD11991+0609659GF102991999999999999999999MA1101965100555REMMET07201/05/10 09:47:02 METAR KSEE 051747Z 00000KT 25SM FEW200 13/00 A3011 RMKEQDR01    137TMP046R02    007DPT046
0191722907531432010010518477+32826-116970FM-15+0118KSEE V0209999C000052200059N0402345N5+01807+00007999999ADDGA1025+060965999GD11991+0609659GF102991999999999999999999MA1101935100515REMMET07201/05/10 10:47:02 METAR KSEE 051847Z 00000KT 25SM FEW200 18/00 A3010 RMKEQDR01    187TMP046R02    007DPT046
0191722907531432010010614477+32826-116970FM-15+0118KSEE V0209999C000052200059N0402345N5+00407+00107999999ADDGA1045+060965999GD12991+0609659GF104991999999999999999999MA1101835100415REMMET07201/06/10 06:47:02 METAR KSEE 061447Z 00000KT 25SM SCT200 04/01 A3007 RMKEQDR01    047TMP046R02    017DPT046
0191722907531432010010615477+32826-116970FM-15+0118KSEE V0209999C000052200059N0402345N5+00507+00207999999ADDGA1045+060965999GD12991+0609659GF104991999999999999999999MA1101865100455REMMET07201/06/10 07:47:02 METAR KSEE 061547Z 00000KT 25SM SCT200 05/02 A3008 RMKEQDR01    057TMP046R02    027DPT046
0191722907531432010010618477+32826-116970FM-15+0118KSEE V0209999C000052200059N0402345N5+01807+00207999999ADDGA1045+060965999GD12991+0609659GF104991999999999999999999MA1101865100455REMMET07201/06/10 10:47:02 METAR KSEE 061847Z 00000KT 25SM SCT200 18/02 A3008 RMKEQDR01    187TMP046R02    027DPT046
0191722907531432010010620477+32826-116970FM-15+0118KSEE V0209999C000052200059N0402345N5+02507+00007999999ADDGA1025+060965999GD11991+0609659GF102991999999999999999999MA1101595100185REMMET07201/06/10 12:47:02 METAR KSEE 062047Z 00000KT 25SM FEW200 25/00 A3000 RMKEQDR01    257TMP046R02    007DPT046
0191722907531432010010622477+32826-116970FM-15+0118KSEE V0202705N004152200059N0402345N5+02407+00107999999ADDGA1025+045725999GD11991+0457259GF102991999999999999999999MA1101595100185REMMET07201/06/10 14:47:02 METAR KSEE 062247Z 27008KT 25SM FEW150 24/01 A3000 RMKEQDR01    247TMP046R02    017DPT046
0191722907531432010010623477+32826-116970FM-15+0118KSEE V0202705N004152200059N0402345N5+02207+00107999999ADDGA1045+045725999GD12991+0457259GF104991999999999999999999MA1101595100185REMMET07201/06/10 15:47:02 METAR KSEE 062347Z 27008KT 25SM SCT150 22/01 A3000 RMKEQDR01    227TMP046R02    017DPT046
0221722907531432010010723477+32826-116970FM-15+0118KSEE V0202605N003152200079N0321875N5+02307+00307999999ADDGF100991999999999999999999MA1101465100045REMMET06901/07/10 15:47:02 METAR KSEE 072347Z 26006KT 20SM SKC 23/03 A2996 RMKEQDQ01    099SCCGD1P01    003SCCGA1R01   SKC7SKY009R02    237TMP046R03    037DPT046R04   SKC7GAS009
0221722907531432010010800477+32826-116970FM-15+0118KSEE V0209999C000052200079N0241405N5+01907+00307999999ADDGF100991999999999999999999MA1101465100045REMMET06901/07/10 16:47:02 METAR KSEE 080047Z 00000KT 15SM SKC 19/03 A2996 RMKEQDQ01    099SCCGD1P01    003SCCGA1R01   SKC7SKY009R02    197TMP046R03    037DPT046R04   SKC7GAS009
0220722907531432010010803477+32826-116970FM-15+0118KSEE V0209999C000052200079N0112655N5+01307+00607999999ADDGF100991999999999999999999MA1101695100285REMMET06801/07/10 19:47:02 METAR KSEE 080347Z 00000KT 7SM SKC 13/06 A3003 RMKEQDQ01    099SCCGD1P01    003SCCGA1R01   SKC7SKY009R02    137TMP046R03    067DPT046R04   SKC7GAS009
0191722907531432010010814477+32826-116970FM-15+0118KSEE V0209999C00005030485MN0402345N5+00707+00407999999ADDGA1075+030485999GD13991+0304859GF107991999999999999999999MA1101865100455REMMET07201/08/10 06:47:02 METAR KSEE 081447Z 00000KT 25SM BKN100 07/04 A3008 RMKEQDR01    077TMP046R02    047DPT046
0191722907531432010010821477+32826-116970FM-15+0118KSEE V0209999C000052200059N0402345N5+02807+00207999999ADDGA1045+045725999GD12991+0457259GF104991999999999999999999MA1101735100315REMMET07201/08/10 13:47:02 METAR KSEE 082147Z 00000KT 25SM SCT150 28/02 A3004 RMKEQDR01    287TMP046R02    027DPT046
0191722907531432010010823477+32826-116970FM-15+0118KSEE V0202705N004152200059N0402345N5+02507+00207999999ADDGA1045+045725999GD12991+0457259GF104991999999999999999999MA1101765100355REMMET07201/08/10 15:47:02 METAR KSEE 082347Z 27008KT 25SM SCT150 25/02 A3005 RMKEQDR01    257TMP046R02    027DPT046
0191722907531432010010900477+32826-116970FM-15+0118KSEE V0202805N003152200059N0241405N5+02207+00107999999ADDGA1045+045725999GD12991+0457259GF104991999999999999999999MA1101795100385REMMET07201/08/10 16:47:01 METAR KSEE 090047Z 28006KT 15SM SCT150 22/01 A3006 RMKEQDR01    227TMP046R02    017DPT046
0190722907531432010010901477+32826-116970FM-15+0118KSEE V0209999C000052200059N0144845N5+01907+00107999999ADDGA1025+045725999GD11991+0457259GF102991999999999999999999MA1101865100455REMMET07101/08/10 17:47:01 METAR KSEE 090147Z 00000KT 9SM FEW150 19/01 A3008 RMKEQDR01    197TMP046R02    017DPT046
0226722907531432010010904477+32826-116970FM-15+0118KSEE V0209999C000052200079N0193125N5+01307+00207999999ADDGF100991999999999999999999MA1102035100615REMMET07401/08/10 20:47:02 METAR KSEE 090447Z 00000KT 12SM SKC 13/02 A3013 RMK LASTEQDQ01    099SCCGD1P01    003SCCGA1R01   SKC7SKY009R02    137TMP046R03    027DPT046R04   SKC7GAS009
0191722907531432010010914477+32826-116970FM-15+0118KSEE V0209999C000052200059N0402345N5+00607+00307999999ADDGA1045+076205999GD12991+0762059GF104991999999999999999999MA1102105100685REMMET07201/09/10 06:47:01 METAR KSEE 091447Z 00000KT 25SM SCT250 06/03 A3015 RMKEQDR01    067TMP046R02    037DPT046
0191722907531432010010916477+32826-116970FM-15+0118KSEE V0209999C000052200059N0402345N5+01207+00407999999ADDGA1045+060965999GD12991+0609659GF104991999999999999999999MA1102205100785REMMET07201/09/10 08:47:02 METAR KSEE 091647Z 00000KT 25SM SCT200 12/04 A3018 RMKEQDR01    127TMP046R02    047DPT046
0191722907531432010010918477+32826-116970FM-15+0118KSEE V0209999C000052200059N0402345N5+02207+00407999999ADDGA1045+076205999GD12991+0762059GF104991999999999999999999MA1102175100755REMMET07201/09/10 10:47:01 METAR KSEE 091847Z 00000KT 25SM SCT250 22/04 A3017 RMKEQDR01    227TMP046R02    047DPT046
0191722907531432010010921477+32826-116970FM-15+0118KSEE V0209999C000052200059N0402345N5+02607+00307999999ADDGA1045+076205999GD12991+0762059GF104991999999999999999999MA1101905100485REMMET07201/09/10 13:47:02 METAR KSEE 092147Z 00000KT 25SM SCT250 26/03 A3009 RMKEQDR01    267TMP046R02    037DPT046
0191722907531432010010922477+32826-116970FM-15+0118KSEE V0202705N00315060965MN0402345N5+02407+00307999999ADDGA1075+060965999GD13991+0609659GF107991999999999999999999MA1101905100485REMMET07201/09/10 14:47:02 METAR KSEE 092247Z 27006KT 25SM BKN200 24/03 A3009 RMKEQDR01    247TMP046R02    037DPT046
0191722907531432010011000477+32826-116970FM-15+0118KSEE V0209999V00315060965MN0402345N5+02007+00407999999ADDGA1075+060965999GD13991+0609659GF107991999999999999999999MA1101905100485REMMET07201/09/10 16:47:01 METAR KSEE 100047Z VRB06KT 25SM BKN200 20/04 A3009 RMKEQDR01    207TMP046R02    047DPT046
0191722907531432010011002477+32826-116970FM-15+0118KSEE V0209999C00005060965MN0193125N5+01607+00507999999ADDGA1075+060965999GD13991+0609659GF107991999999999999999999MA1102075100655REMMET07201/09/10 18:47:01 METAR KSEE 100247Z 00000KT 12SM BKN200 16/05 A3014 RMKEQDR01    167TMP046R02    057DPT046
0191722907531432010011003477+32826-116970FM-15+0118KSEE V0209999C00005060965MN0193125N5+01607+00407999999ADDGA1075+060965999GD13991+0609659GF107991999999999999999999MA1102005100585REMMET07201/09/10 19:47:02 METAR KSEE 100347Z 00000KT 12SM BKN200 16/04 A3012 RMKEQDR01    167TMP046R02    047DPT046
0191722907531432010011004477+32826-116970FM-15+0118KSEE V0209999C00005060965MN0193125N5+01507+00407999999ADDGA1075+060965999GD13991+0609659GF107991999999999999999999MA1102005100585REMMET07201/09/10 20:47:02 METAR KSEE 100447Z 00000KT 12SM BKN200 15/04 A3012 RMKEQDR01    157TMP046R02    047DPT046
0191722907531432010011015477+32826-116970FM-15+0118KSEE V0209999C000052200059N0402345N5+00907+00507999999ADDGA1025+045725999GD11991+0457259GF102991999999999999999999MA1102075100655REMMET07201/10/10 07:47:01 METAR KSEE 101547Z 00000KT 25SM FEW150 09/05 A3014 RMKEQDR01    097TMP046R02    057DPT046
0191722907531432010011016477+32826-116970FM-15+0118KSEE V0209999C000052200059N0402345N5+01307+00607999999ADDGA1025+060965999GD11991+0609659GF102991999999999999999999MA1102105100685REMMET07201/10/10 08:47:02 METAR KSEE 101647Z 00000KT 25SM FEW200 13/06 A3015 RMKEQDR01    137TMP046R02    067DPT046
0191722907531432010011017477+32826-116970FM-15+0118KSEE V0209999C000052200059N0402345N5+01707+00507999999ADDGA1025+076205999GD11991+0762059GF102991999999999999999999MA1102075100655REMMET07201/10/10 09:47:01 METAR KSEE 101747Z 00000KT 25SM FEW250 17/05 A3014 RMKEQDR01    177TMP046R02    057DPT046
0191722907531432010011019477+32826-116970FM-15+0118KSEE V0209999C000052200059N0402345N5+02607+00107999999ADDGA1025+076205999GD11991+0762059GF102991999999999999999999MA1101905100485REMMET07201/10/10 11:47:02 METAR KSEE 101947Z 00000KT 25SM FEW250 26/01 A3009 RMKEQDR01    267TMP046R02    017DPT046
0191722907531432010011022477+32826-116970FM-15+0118KSEE V0209999C000052200059N0402345N5+02607+00507999999ADDGA1045+076205999GD12991+0762059GF104991999999999999999999MA1101695100285REMMET07201/10/10 14:47:02 METAR KSEE 102247Z 00000KT 25SM SCT250 26/05 A3003 RMKEQDR01    267TMP046R02    057DPT046
0172722907531432010011023477+32826-116970FM-15+0118KSEE V0202705N005152200059N0402345N5+02507+99999999999ADDGA1045+076205999GD12991+0762059GF104991999999999999999999MA1101795100385REMMET06901/10/10 15:47:02 METAR KSEE 102347Z 27010KT 25SM SCT250 25/A3006 RMKEQDR01    257TMP046
0191722907531432010011101477+32826-116970FM-15+0118KSEE V0209999C000052200059N0193125N5+01607+00407999999ADDGA1045+076205999GD12991+0762059GF104991999999999999999999MA1101935100515REMMET07201/10/10 17:47:02 METAR KSEE 110147Z 00000KT 12SM SCT250 16/04 A3010 RMKEQDR01    167TMP046R02    047DPT046
0191722907531432010011114477+32826-116970FM-15+0118KSEE V0209999C000052200059N0321875N5+00507+00307999999ADDGA1025+036585999GD11991+0365859GF102991999999999999999999MA1102075100655REMMET07201/11/10 06:47:02 METAR KSEE 111447Z 00000KT 20SM FEW120 05/03 A3014 RMKEQDR01    057TMP046R02    037DPT046
0191722907531432010011115477+32826-116970FM-15+0118KSEE V0209999C000052200059N0402345N5+00707+00307999999ADDGA1025+045725999GD11991+0457259GF102991999999999999999999MA1102135100715REMMET07201/11/10 07:47:02 METAR KSEE 111547Z 00000KT 25SM FEW150 07/03 A3016 RMKEQDR01    077TMP046R02    037DPT046
0191722907531432010011116477+32826-116970FM-15+0118KSEE V0209999C000052200059N0402345N5+01207+00307999999ADDGA1045+060965999GD12991+0609659GF104991999999999999999999MA1102135100715REMMET07201/11/10 08:47:02 METAR KSEE 111647Z 00000KT 25SM SCT200 12/03 A3016 RMKEQDR01    127TMP046R02    037DPT046
0191722907531432010011119477+32826-116970FM-15+0118KSEE V0209999C000052200059N0402345N5+02607+00107999999ADDGA1045+060965999GD12991+0609659GF104991999999999999999999MA1101965100555REMMET07201/11/10 11:47:02 METAR KSEE 111947Z 00000KT 25SM SCT200 26/01 A3011 RMKEQDR01    267TMP046R02    017DPT046
0191722907531432010011121477+32826-116970FM-15+0118KSEE V0202705N00515060965MN0402345N5+02707+00207999999ADDGA1075+060965999GD13991+0609659GF107991999999999999999999MA1101835100415REMMET07201/11/10 13:47:01 METAR KSEE 112147Z 27010KT 25SM BKN200 27/02 A3007 RMKEQDR01    277TMP046R02    027DPT046
0191722907531432010011123477+32826-116970FM-15+0118KSEE V0202805N00365060965MN0402345N5+02407+00107999999ADDGA1075+060965999GD13991+0609659GF107991999999999999999999MA1101835100415REMMET07201/11/10 15:47:02 METAR KSEE 112347Z 28007KT 25SM BKN200 24/01 A3007 RMKEQDR01    247TMP046R02    017DPT046
0191722907531432010011202477+32826-116970FM-15+0118KSEE V0209999C000052200059N0193125N5+01607+00307999999ADDGA1025+060965999GD11991+0609659GF102991999999999999999999MA1102005100585REMMET07201/11/10 18:47:02 METAR KSEE 120247Z 00000KT 12SM FEW200 16/03 A3012 RMKEQDR01    167TMP046R02    037DPT046
0190722907531432010011203477+32826-116970FM-15+0118KSEE V0209999C000052200059N0112655N5+01307+00307999999ADDGA1045+060965999GD12991+0609659GF104991999999999999999999MA1102075100655REMMET07101/11/10 19:47:02 METAR KSEE 120347Z 00000KT 7SM SCT200 13/03 A3014 RMKEQDR01    137TMP046R02    037DPT046
0191722907531432010011214477+32826-116970FM-15+0118KSEE V0209999C000052200059N0402345N5+00607+00207999999ADDGA1045+060965999GD12991+0609659GF104991999999999999999999MA1102175100755REMMET07201/12/10 06:47:02 METAR KSEE 121447Z 00000KT 25SM SCT200 06/02 A3017 RMKEQDR01    067TMP046R02    027DPT046
0229722907531432010011215477+32826-116970FM-15+0118KSEE V0209999C00005060965MN0402345N5+00807+00207999999ADDGA1045+045725999GA2075+060965999GD12991+0457259GD23991+0609659GF107991999999999999999999MA1102245100815REMMET07901/12/10 07:47:02 METAR KSEE 121547Z 00000KT 25SM SCT150 BKN200 08/02 A3019 RMKEQDR01    087TMP046R02    027DPT046
0229722907531432010011216477+32826-116970FM-15+0118KSEE V0209999C00005060965MN0402345N5+01207+00307999999ADDGA1045+045725999GA2075+060965999GD12991+0457259GD23991+0609659GF107991999999999999999999MA1102275100855REMMET07901/12/10 08:47:02 METAR KSEE 121647Z 00000KT 25SM SCT150 BKN200 12/03 A3020 RMKEQDR01    127TMP046R02    037DPT046
0229722907531432010011217477+32826-116970FM-15+0118KSEE V0209999C00005060965MN0402345N5+01407+00307999999ADDGA1045+045725999GA2075+060965999GD12991+0457259GD23991+0609659GF107991999999999999999999MA1102275100855REMMET07901/12/10 09:47:02 METAR KSEE 121747Z 00000KT 25SM SCT150 BKN200 14/03 A3020 RMKEQDR01    147TMP046R02    037DPT046
0191722907531432010011222477+32826-116970FM-15+0118KSEE V0209999V003152200059N0402345N5+02407+00407999999ADDGA1045+060965999GD12991+0609659GF104991999999999999999999MA1101935100515REMMET07201/12/10 14:47:02 METAR KSEE 122247Z VRB06KT 25SM SCT200 24/04 A3010 RMKEQDR01    247TMP046R02    047DPT046
0191722907531432010011223477+32826-116970FM-15+0118KSEE V0209999V003152200059N0402345N5+02307+00607999999ADDGA1025+060965999GD11991+0609659GF102991999999999999999999MA1101965100555REMMET07201/12/10 15:47:02 METAR KSEE 122347Z VRB06KT 25SM FEW200 23/06 A3011 RMKEQDR01    237TMP046R02    067DPT046
0237722907531432010011314477+32826-116970FM-15+0118KSEE V0209999C00005006105MN0112655N5+01107+00707999999ADDGA1075+006105999GA2085+010675999GD13991+0061059GD24991+0106759GF108991999999999999999999MA1102175100755REMMET08701/13/10 06:47:01 METAR KSEE 131447Z 00000KT 7SM BKN020 OVC035 11/07 A3017 RMK HZ ALQDSEQDR01    117TMP046R02    077DPT046
0210722907531432010011315477+32826-116970FM-15+0118KSEE V0209999C00005007015MN0080475N5+01207+00907999999ADDAU100007015GA1085+007015999GD14991+0070159GF108991999999999999999999MA1102205100785MW1055REMMET07401/13/10 07:47:01 METAR KSEE 131547Z 00000KT 5SM HZ OVC023 12/09 A3018 RMKEQDR01    127TMP046R02    097DPT046
0210722907531432010011316477+32826-116970FM-15+0118KSEE V0209999C00005005795MN0048285N5+01307+01007999999ADDAU100007015GA1085+005795999GD14991+0057959GF108991999999999999999999MA1102275100855MW1055REMMET07401/13/10 08:47:02 METAR KSEE 131647Z 00000KT 3SM HZ OVC019 13/10 A3020 RMKEQDR01    137TMP046R02    107DPT046
0248722907531432010011320477+32826-116970FM-15+0118KSEE V0209999V00315006715MN0064375N5+01707+01207999999ADDAU100007015GA1025+004275999GA2085+006715999GD11991+0042759GD24991+0067159GF108991999999999999999999MA1102035100615MW1055REMMET08101/13/10 12:47:01 METAR KSEE 132047Z VRB06KT 4SM HZ FEW014 OVC022 17/12 A3013 RMKEQDR01    177TMP046R02    127DPT046
0228722907531432010011321477+32826-116970FM-15+0118KSEE V0202405N00415007625MN0128755N5+01707+01207999999ADDGA1045+004885999GA2075+007625999GD12991+0048859GD23991+0076259GF107991999999999999999999MA1101935100515REMMET07801/13/10 13:47:02 METAR KSEE 132147Z 24008KT 8SM SCT016 BKN025 17/12 A3010 RMKEQDR01    177TMP046R02    127DPT046
0191722907531432010011322477+32826-116970FM-15+0118KSEE V0202505N00315009755MN0193125N5+01707+01007999999ADDGA1075+009755999GD13991+0097559GF107991999999999999999999MA1101935100515REMMET07201/13/10 14:47:02 METAR KSEE 132247Z 25006KT 12SM BKN032 17/10 A3010 RMKEQDR01    177TMP046R02    107DPT046
0190722907531432010011403477+32826-116970FM-15+0118KSEE V0202805N004152200059N0112655N5+01207+01007999999ADDGA1025+009145999GD11991+0091459GF102991999999999999999999MA1102135100715REMMET07101/13/10 19:47:02 METAR KSEE 140347Z 28008KT 7SM FEW030 12/10 A3016 RMKEQDR01    127TMP046R02    107DPT046
0195722907531432010011404477+32826-116970FM-15+0118KSEE V0202705N003152200059N0112655N5+01107+00907999999ADDGA1025+009145999GD11991+0091459GF102991999999999999999999MA1102175100755REMMET07601/13/10 20:47:02 METAR KSEE 140447Z 27006KT 7SM FEW030 11/09 A3017 RMK LASTEQDR01    117TMP046R02    097DPT046
0220722907531432010011503477+32826-116970FM-15+0118KSEE V0202705N004152200079N0112655N5+01207+00507999999ADDGF100991999999999999999999MA1102075100655REMMET06801/14/10 19:47:02 METAR KSEE 150347Z 27008KT 7SM SKC 12/05 A3014 RMKEQDQ01    099SCCGD1P01    003SCCGA1R01   SKC7SKY009R02    127TMP046R03    057DPT046R04   SKC7GAS009
0225722907531432010011504477+32826-116970FM-15+0118KSEE V0209999C000052200079N0112655N5+01107+00507999999ADDGF100991999999999999999999MA1102175100755REMMET07301/14/10 20:47:01 METAR KSEE 150447Z 00000KT 7SM SKC 11/05 A3017 RMK LASTEQDQ01    099SCCGD1P01    003SCCGA1R01   SKC7SKY009R02    117TMP046R03    057DPT046R04   SKC7GAS009
0191722907531432010011519477+32826-116970FM-15+0118KSEE V0209999C00005036585MN0321875N5+01807+00107999999ADDGA1075+036585999GD13991+0365859GF107991999999999999999999MA1102105100685REMMET07201/15/10 11:47:02 METAR KSEE 151947Z 00000KT 20SM BKN120 18/01 A3015 RMKEQDR01    187TMP046R02    017DPT046
0221722907531432010011603477+32826-116970FM-15+0118KSEE V0209999C000052200079N0160935N5+01207+00407999999ADDGF100991999999999999999999MA1101865100455REMMET06901/15/10 19:47:02 METAR KSEE 160347Z 00000KT 10SM SKC 12/04 A3008 RMKEQDQ01    099SCCGD1P01    003SCCGA1R01   SKC7SKY009R02    127TMP046R03    047DPT046R04   SKC7GAS009
0226722907531432010011604477+32826-116970FM-15+0118KSEE V0209999C000052200079N0160935N5+01107+00407999999ADDGF100991999999999999999999MA1101905100485REMMET07401/15/10 20:47:01 METAR KSEE 160447Z 00000KT 10SM SKC 11/04 A3009 RMK LASTEQDQ01    099SCCGD1P01    003SCCGA1R01   SKC7SKY009R02    117TMP046R03    047DPT046R04   SKC7GAS009
0191722907531432010011621477+32826-116970FM-15+0118KSEE V0209999V00315060965MN0402345N5+02007+00007999999ADDGA1075+060965999GD13991+0609659GF107991999999999999999999MA1101565100145REMMET07201/16/10 13:47:01 METAR KSEE 162147Z VRB06KT 25SM BKN200 20/00 A2999 RMKEQDR01    207TMP046R02    007DPT046
0191722907531432010011622477+32826-116970FM-15+0118KSEE V0209999V00315060965MN0402345N5+01907+00007999999ADDGA1075+060965999GD13991+0609659GF107991999999999999999999MA1101525100115REMMET07201/16/10 14:47:02 METAR KSEE 162247Z VRB06KT 25SM BKN200 19/00 A2998 RMKEQDR01    197TMP046R02    007DPT046
0191722907531432010011623477+32826-116970FM-15+0118KSEE V0201705N00315060965MN0402345N5+01807+00407999999ADDGA1075+060965999GD13991+0609659GF107991999999999999999999MA1101525100115REMMET07201/16/10 15:47:02 METAR KSEE 162347Z 17006KT 25SM BKN200 18/04 A2998 RMKEQDR01    187TMP046R02    047DPT046
0229722907531432010011700477+32826-116970FM-15+0118KSEE V0209999V00315060965MN0402345N5+01607+00407999999ADDGA1025+030485999GA2075+060965999GD11991+0304859GD23991+0609659GF107991999999999999999999MA1101595100185REMMET07901/16/10 16:47:02 METAR KSEE 170047Z VRB06KT 25SM FEW100 BKN200 16/04 A3000 RMKEQDR01    167TMP046R02    047DPT046
0229722907531432010011721477+32826-116970FM-15+0118KSEE V0202705N00515060965MN0321875N5+01707+00907999999ADDGA1025+024385999GA2075+060965999GD11991+0243859GD23991+0609659GF107991999999999999999999MA1101495100085REMMET07901/17/10 13:47:01 METAR KSEE 172147Z 27010KT 20SM FEW080 BKN200 17/09 A2997 RMKEQDR01    177TMP046R02    097DPT046
0229722907531432010011723477+32826-116970FM-15+0118KSEE V0202805N00315030485MN0321875N5+01507+00907999999ADDGA1045+015245999GA2075+030485999GD12991+0152459GD23991+0304859GF107991999999999999999999MA1101495100085REMMET07901/17/10 15:47:02 METAR KSEE 172347Z 28006KT 20SM SCT050 BKN100 15/09 A2997 RMKEQDR01    157TMP046R02    097DPT046
0228722907531432010011800507+32826-116970FM-15+0118KSEE V0209999C00005036585MN0112655N5+01407+00907999999ADDGA1045+033535999GA2075+036585999GD12991+0335359GD23991+0365859GF107991999999999999999999MA1101465100045REMMET07801/17/10 16:50:02 METAR KSEE 180050Z 00000KT 7SM SCT110 BKN120 14/09 A2996 RMKEQDR01    147TMP046R02    097DPT046
0229722907531432010011801477+32826-116970FM-15+0118KSEE V0209999C00005036585MN0193125N5+01407+01007999999ADDGA1025+030485999GA2075+036585999GD11991+0304859GD23991+0365859GF107991999999999999999999MA1101395099985REMMET07901/17/10 17:47:02 METAR KSEE 180147Z 00000KT 12SM FEW100 BKN120 14/10 A2994 RMKEQDR01    147TMP046R02    107DPT046
0191722907531432010011819557+32826-116970FM-15+0118KSEE V0201605N00515009755MN0321875N5+01707+01007999999ADDGA1075+009755999GD13991+0097559GF107991999999999999999999MA1101195099785REMMET07201/18/10 11:55:01 METAR KSEE 181955Z 16010KT 20SM BKN032 17/10 A2988 RMKEQDR01    177TMP046R02    107DPT046
0228722907531432010011900477+32826-116970FM-15+0118KSEE V0202705N00825000915MN0016095N5+01207+01107999999ADDAU130020015AW1635GA1085+000915999GD14991+0009159GF108991999999999999999999MA1101025099615MW1651OC101295REMMET07801/18/10 16:47:02 METAR KSEE 190047Z 27016G25KT 1SM +RA OVC003 12/11 A2983 RMKEQDR01    127TMP046R02    117DPT046
0357722907531432010011901477+32826-116970FM-15+0118KSEE V0209999V00315003965MN0080475N5+01107+01107999999ADDAU100000017AW1617GA1025+001225999GA2075+003965999GA3085+004575999GD11991+0012259GD23991+0039659GD34991+0045759GF108991999999999999999999MA1101055099645MW1631REMMET08901/18/10 17:47:02 METAR KSEE 190147Z VRB06KT 5SM RA- FEW004 BKN013 OVC015 11/11 A2984 RMKEQDR01    117TMP046R02    117DPT046R03   RA-7AWW013R04   RA-7AWW013R05SEERMK7MVW013R06   RA-7MWW013
0154722907531432010011914577+32826-116970FM-15+0118KSEE V0209999C000052200019N9999999N5+00507+00507999999ADDMA1101025099615REMMET06001/19/10 06:57:02 METAR KSEE 191457Z 00000KT 05/05 A2983 RMKEQDR01      7SKY009R02    057TMP046R03    057DPT046R04      7GAS009
0229722907531432010011916477+32826-116970FM-15+0118KSEE V0209999C00005009755MN0321875N5+00707+00707999999ADDGA1045+007625999GA2085+009755999GD12991+0076259GD24991+0097559GF108991999999999999999999MA1101055099645REMMET07901/19/10 08:47:02 METAR KSEE 191647Z 00000KT 20SM SCT025 OVC032 07/07 A2984 RMKEQDR01    077TMP046R02    077DPT046
0229722907531432010011917477+32826-116970FM-15+0118KSEE V0209999C00005009755MN0321875N5+00907+00907999999ADDGA1075+009755999GA2085+013725999GD13991+0097559GD24991+0137259GF108991999999999999999999MA1101055099645REMMET07901/19/10 09:47:02 METAR KSEE 191747Z 00000KT 20SM BKN032 OVC045 09/09 A2984 RMKEQDR01    097TMP046R02    097DPT046
0254722907531432010011920507+32826-116970FM-15+0118KSEE V0201505N00515006105MN0112655N5+01307+01207999999ADDAU120020015AW1625GA1075+006105999GA2085+010675999GD13991+0061059GD24991+0106759GF108991999999999999999999MA1100375098975MW1631REMMET08101/19/10 12:50:02 METAR KSEE 192050Z 15010KT 7SM RA BKN020 OVC035 13/12 A2964 RMKEQDR01    137TMP046R02    127DPT046
0219722907531432010011921287+32826-116970FM-15+0118KSEE V0201505N00575005185MN0032195N5+01305+01205999999ADDAU120020015AW1625GA1075+005185999GA2085+009145999GD13991+0051859GD24991+0091459GF108991999999999999999999MA1100175098775MW1631REMMET08101/19/10 13:28:02 METAR KSEE 192128Z 15011KT 2SM RA BKN017 OVC030 13/12 A2958 RMK
0304722907531432010011922507+32826-116970FM-15+0118KSEE V0202405N00775005495MN0112655N5+01407+01407999999ADDAU110020015AW1615GA1045+000615999GA2075+005495999GA3085+012505999GD12991+0006159GD23991+0054959GD34991+0125059GF108991999999999999999999MA1100305098915MW1611OC101035REMMET09201/19/10 14:50:02 METAR KSEE 192250Z 24015G20KT 7SM -RA SCT002 BKN018 OVC041 14/14 A2962 RMKEQDR01    147TMP046R02    147DPT046
0202722907531432010011923477+32826-116970FM-15+0118KSEE V0202605N00515008235MN0160935N5+01407+01007999999ADDGA1075+008235999GD13991+0082359GF107991999999999999999999MA1100445099045OC100775REMMET07501/19/10 15:47:02 METAR KSEE 192347Z 26010G15KT 10SM BKN027 14/10 A2966 RMKEQDR01    147TMP046R02    107DPT046
0191722907531432010012004477+32826-116970FM-15+0118KSEE V0209999V00315009145MN0160935N5+01107+00907999999ADDGA1075+009145999GD13991+0091459GF107991999999999999999999MA1100785099375REMMET07201/19/10 20:47:02 METAR KSEE 200447Z VRB06KT 10SM BKN030 11/09 A2976 RMKEQDR01    117TMP046R02    097DPT046
0229722907531432010012014477+32826-116970FM-15+0118KSEE V0209999V00315013725MN0160935N5+00807+00607999999ADDGA1025+010365999GA2075+013725999GD11991+0103659GD23991+0137259GF107991999999999999999999MA1101495100085REMMET07901/20/10 06:47:02 METAR KSEE 201447Z VRB06KT 10SM FEW034 BKN045 08/06 A2997 RMKEQDR01    087TMP046R02    067DPT046
0191722907531432010012015477+32826-116970FM-15+0118KSEE V0209999V003152200059N0241405N5+00907+00707999999ADDGA1045+010365999GD12991+0103659GF104991999999999999999999MA1100785099375REMMET07201/20/10 07:47:02 METAR KSEE 201547Z VRB06KT 15SM SCT034 09/07 A2976 RMKEQDR01    097TMP046R02    077DPT046
0191722907531432010012016477+32826-116970FM-15+0118KSEE V0209999V00315013115MN0241405N5+01207+00807999999ADDGA1075+013115999GD13991+0131159GF107991999999999999999999MA1100755099345REMMET07201/20/10 08:47:02 METAR KSEE 201647Z VRB06KT 15SM BKN043 12/08 A2975 RMKEQDR01    127TMP046R02    087DPT046
0202722907531432010012017477+32826-116970FM-15+0118KSEE V0201305N005152200059N0241405N5+01407+00707999999ADDGA1045+016765999GD12991+0167659GF104991999999999999999999MA1100855099445OC100775REMMET07501/20/10 09:47:02 METAR KSEE 201747Z 13010G15KT 15SM SCT055 14/07 A2978 RMKEQDR01    147TMP046R02    077DPT046
0229722907531432010012019477+32826-116970FM-15+0118KSEE V0201505N00515014335MN0321875N5+01607+00507999999ADDGA1045+011895999GA2075+014335999GD12991+0118959GD23991+0143359GF107991999999999999999999MA1100715099315REMMET07901/20/10 11:47:02 METAR KSEE 201947Z 15010KT 20SM SCT039 BKN047 16/05 A2974 RMKEQDR01    167TMP046R02    057DPT046
0265722907531432010012100477+32826-116970FM-15+0118KSEE V0201205N00775009145MN0128755N5+01207+00807999999ADDAU120020015AW1625GA1025+006405999GA2085+009145999GD11991+0064059GD24991+0091459GF108991999999999999999999MA1100005098605MW1631OC101035REMMET08401/20/10 16:47:01 METAR KSEE 210047Z 12015G20KT 8SM RA FEW021 OVC030 12/08 A2953 RMKEQDR01    127TMP046R02    087DPT046
0228722907531432010012102477+32826-116970FM-15+0118KSEE V0202705N00515006105MN0032195N5+01207+01107999999ADDAU130020015AW1635GA1085+006105999GD14991+0061059GF108991999999999999999999MA1100205098815MW1651OC100935REMMET07801/20/10 18:47:02 METAR KSEE 210247Z 27010G18KT 2SM +RA OVC020 12/11 A2959 RMKEQDR01    127TMP046R02    117DPT046
0216722907531432010012103477+32826-116970FM-15+0118KSEE V0203205N00315009145MN0048285N5+01207+01207999999ADDAU120020015AW1625GA1085+009145999GD14991+0091459GF108991999999999999999999MA1100105098715MW1631REMMET07401/20/10 19:47:02 METAR KSEE 210347Z 32006KT 3SM RA OVC030 12/12 A2956 RMKEQDR01    127TMP046R02    127DPT046
0201722907531432010012201477+32826-116970FM-15+0118KSEE V0202205N00515009145MN0112655N5+01307+00807999999ADDGA1085+009145999GD14991+0091459GF108991999999999999999999MA1099325097935OC100725REMMET07401/21/10 17:47:02 METAR KSEE 220147Z 22010G14KT 7SM OVC030 13/08 A2933 RMKEQDR01    137TMP046R02    087DPT046
0254722907531432010012214477+32826-116970FM-15+0118KSEE V0209999C00005010365MN0096565N5+00907+00607999999ADDAU120010015AW1525GA1025+006405999GA2075+010365999GD11991+0064059GD23991+0103659GF107991999999999999999999MA1099975098575MW1531REMMET08101/22/10 06:47:02 METAR KSEE 221447Z 00000KT 6SM DZ FEW021 BKN034 09/06 A2952 RMKEQDR01    097TMP046R02    067DPT046
0266722907531432010012216477+32826-116970FM-15+0118KSEE V0209999V00315015245MN0144845N5+00907+00807999999ADDGA1025+001835999GA2045+010975999GA3085+015245999GD11991+0018359GD22991+0109759GD34991+0152459GF108991999999999999999999MA1100175098775REMMET08501/22/10 08:47:02 METAR KSEE 221647Z VRB06KT 9SM FEW006 SCT036 OVC050 09/08 A2958 RMKEQDR01    097TMP046R02    087DPT046
0246722907531432010012221477+32826-116970FM-15+0118KSEE V0201805N00515016765MN0193125N5+01007+00407999999ADDGA1025+001525999GA2075+016765999GD11991+0015259GD23991+0167659GF107991999999999999999999MA1100205098815OC101035REMMET08801/22/10 13:47:02 METAR KSEE 222147Z 18010G20KT 12SM FEW005 BKN055 10/04 A2959 RMK RAB42EQDR01    107TMP046R02    047DPT046
0229722907531432010012301477+32826-116970FM-15+0118KSEE V0202505N00415018295MN0193125N5+01107+00507999999ADDGA1025+012195999GA2075+018295999GD11991+0121959GD23991+0182959GF107991999999999999999999MA1100445099045REMMET07901/22/10 17:47:01 METAR KSEE 230147Z 25008KT 12SM FEW040 BKN060 11/05 A2966 RMKEQDR01    117TMP046R02    057DPT046
0255722907531432010012303477+32826-116970FM-15+0118KSEE V0209999V00315013725MN0080475N5+00707+00407999999ADDAU110020015AW1615GA1025+010065999GA2075+013725999GD11991+0100659GD23991+0137259GF107991999999999999999999MA1100585099175MW1611REMMET08201/22/10 19:47:02 METAR KSEE 230347Z VRB06KT 5SM -RA FEW033 BKN045 07/04 A2970 RMKEQDR01    077TMP046R02    047DPT046
0277722907531432010012304477+32826-116970FM-15+0118KSEE V0209999C00005021345MN0193127N5+00707+00507999999ADDAU110020015AW1615GA1025+012195999GA2075+021345999GD11991+0121959GD23991+0213459GF107991999999999999999999MA1100645099245MW1611REMMET08801/22/10 20:47:02 METAR KSEE 230447Z 00000KT 12SM -RA FEW040 BKN070 07/05 A2972 RMK LASTEQDR01  12SM7VIS011R02    077TMP046R03    057DPT046
0228722907531432010012314477+32826-116970FM-15+0118KSEE V0209999C000052200059N0080475N5+00307+00307999999ADDGA1025+001225999GA2045+012195999GD11991+0012259GD22991+0121959GF104991999999999999999999MA1101525100115REMMET07801/23/10 06:47:02 METAR KSEE 231447Z 00000KT 5SM FEW004 SCT040 03/03 A2998 RMKEQDR01    037TMP046R02    037DPT046
0229722907531432010012317477+32826-116970FM-15+0118KSEE V0209999C000052200059N0402345N5+01107+00707999999ADDGA1045+012195999GA2045+021345999GD12991+0121959GD22991+0213459GF104991999999999999999999MA1101795100385REMMET07901/23/10 09:47:02 METAR KSEE 231747Z 00000KT 25SM SCT040 SCT070 11/07 A3006 RMKEQDR01    117TMP046R02    077DPT046
0191722907531432010012322477+32826-116970FM-15+0118KSEE V0202505N005152200059N0402345N5+01507+00407999999ADDGA1045+015245999GD12991+0152459GF104991999999999999999999MA1101735100315REMMET07201/23/10 14:47:02 METAR KSEE 232247Z 25010KT 25SM SCT050 15/04 A3004 RMKEQDR01    157TMP046R02    047DPT046
0191722907531432010012400477+32826-116970FM-15+0118KSEE V0202705N003652200059N0241405N5+01207+00407999999ADDGA1045+012195999GD12991+0121959GF104991999999999999999999MA1101865100455REMMET07201/23/10 16:47:02 METAR KSEE 240047Z 27007KT 15SM SCT040 12/04 A3008 RMKEQDR01    127TMP046R02    047DPT046
0191722907531432010012421477+32826-116970FM-15+0118KSEE V0209999V003152200059N0402345N5+01807+00307999999ADDGA1025+076205999GD11991+0762059GF102991999999999999999999MA1102005100585REMMET07201/24/10 13:47:01 METAR KSEE 242147Z VRB06KT 25SM FEW250 18/03 A3012 RMKEQDR01    187TMP046R02    037DPT046
0191722907531432010012422477+32826-116970FM-15+0118KSEE V0202605N004152200059N0402345N5+01807+00307999999ADDGA1025+076205999GD11991+0762059GF102991999999999999999999MA1102005100585REMMET07201/24/10 14:47:02 METAR KSEE 242247Z 26008KT 25SM FEW250 18/03 A3012 RMKEQDR01    187TMP046R02    037DPT046
0221722907531432010012502477+32826-116970FM-15+0118KSEE V0209999C000052200079N0193125N5+01007+00707999999ADDGF100991999999999999999999MA1102105100685REMMET06901/24/10 18:47:02 METAR KSEE 250247Z 00000KT 12SM SKC 10/07 A3015 RMKEQDQ01    099SCCGD1P01    003SCCGA1R01   SKC7SKY009R02    107TMP046R03    077DPT046R04   SKC7GAS009
0221722907531432010012503477+32826-116970FM-15+0118KSEE V0209999C000052200079N0193125N5+01007+00707999999ADDGF100991999999999999999999MA1102075100655REMMET06901/24/10 19:47:02 METAR KSEE 250347Z 00000KT 12SM SKC 10/07 A3014 RMKEQDQ01    099SCCGD1P01    003SCCGA1R01   SKC7SKY009R02    107TMP046R03    077DPT046R04   SKC7GAS009
0191722907531432010012514477+32826-116970FM-15+0118KSEE V0209999C000052200059N0402345N5+00307+00307999999ADDGA1045+045725999GD12991+0457259GF104991999999999999999999MA1101935100515REMMET07201/25/10 06:47:02 METAR KSEE 251447Z 00000KT 25SM SCT150 03/03 A3010 RMKEQDR01    037TMP046R02    037DPT046
0191722907531432010012520477+32826-116970FM-15+0118KSEE V0209999C000052200059N0402345N5+01907+00207999999ADDGA1025+045725999GD11991+0457259GF102991999999999999999999MA1101635100215REMMET07201/25/10 12:47:02 METAR KSEE 252047Z 00000KT 25SM FEW150 19/02 A3001 RMKEQDR01    197TMP046R02    027DPT046
0233722907531432010012614477+32826-116970FM-15+0118KSEE V0209999C000052200059N0402347N5+00507+00507999999ADDAU100001015AW1105GA1025+054865999GD11991+0548659GF102991999999999999999999MA1101495100085MW1101REMMET07501/26/10 06:47:02 METAR KSEE 261447Z 00000KT 25SM BR FEW180 05/05 A2997 RMKEQDR01  25SM7VIS011R02    057TMP046R03    057DPT046
0238722907531432010012615477+32826-116970FM-15+0118KSEE V0209999C000052200059N0402345N5+00707+00707999999ADDGA1025+030485999GA2045+054865999GD11991+0304859GD22991+0548659GF104991999999999999999999MA1101465100045REMMET08801/26/10 07:47:01 METAR KSEE 261547Z 00000KT 25SM FEW100 SCT180 07/07 A2996 RMK HZ ALQDSEQDR01    077TMP046R02    077DPT046
0191722907531432010012616477+32826-116970FM-15+0118KSEE V0209999C00005054865MN0402345N5+00907+00707999999ADDGA1075+054865999GD13991+0548659GF107991999999999999999999MA1101465100045REMMET07201/26/10 08:47:02 METAR KSEE 261647Z 00000KT 25SM BKN180 09/07 A2996 RMKEQDR01    097TMP046R02    077DPT046
0191722907531432010012617477+32826-116970FM-15+0118KSEE V0209999C00005054865MN0402345N5+01207+00707999999ADDGA1075+054865999GD13991+0548659GF107991999999999999999999MA1101495100085REMMET07201/26/10 09:47:02 METAR KSEE 261747Z 00000KT 25SM BKN180 12/07 A2997 RMKEQDR01    127TMP046R02    077DPT046
0191722907531432010012618477+32826-116970FM-15+0118KSEE V0209999C00005054865MN0402345N5+01607+00707999999ADDGA1075+054865999GD13991+0548659GF107991999999999999999999MA1101495100085REMMET07201/26/10 10:47:02 METAR KSEE 261847Z 00000KT 25SM BKN180 16/07 A2997 RMKEQDR01    167TMP046R02    077DPT046
0228722907531432010012621477+32826-116970FM-15+0118KSEE V0209999V00315030485MN0112655N5+01407+00907999999ADDGA1045+007925999GA2085+030485999GD12991+0079259GD24991+0304859GF108991999999999999999999MA1101355099945REMMET07801/26/10 13:47:01 METAR KSEE 262147Z VRB06KT 7SM SCT026 OVC100 14/09 A2993 RMKEQDR01    147TMP046R02    097DPT046
0255722907531432010012702477+32826-116970FM-15+0118KSEE V0209999C00005022865MN0096565N5+01207+01007999999ADDAU110020015AW1615GA1045+013725999GA2075+022865999GD12991+0137259GD23991+0228659GF107991999999999999999999MA1101195099785MW1611REMMET08201/26/10 18:47:02 METAR KSEE 270247Z 00000KT 6SM -RA SCT045 BKN075 12/10 A2988 RMKEQDR01    127TMP046R02    107DPT046
0195722907531432010012704477+32826-116970FM-15+0118KSEE V0209999C00005025915MN0112655N5+01307+00907999999ADDGA1085+025915999GD14991+0259159GF108991999999999999999999MA1101255099845REMMET07601/26/10 20:47:02 METAR KSEE 270447Z 00000KT 7SM OVC085 13/09 A2990 RMK LASTEQDR01    137TMP046R02    097DPT046
0191722907531432010012716477+32826-116970FM-15+0118KSEE V0209999C000052200059N0241405N5+01107+00807999999ADDGA1045+021345999GD12991+0213459GF104991999999999999999999MA1101355099945REMMET07201/27/10 08:47:02 METAR KSEE 271647Z 00000KT 15SM SCT070 11/08 A2993 RMKEQDR01    117TMP046R02    087DPT046
0220722907531432010012902507+32826-116970FM-15+0118KSEE V0209999C000052200079N0144845N5+01207+00907999999ADDGF100991999999999999999999MA1101735100315REMMET06801/28/10 18:50:02 METAR KSEE 290250Z 00000KT 9SM SKC 12/09 A3004 RMKEQDQ01    099SCCGD1P01    003SCCGA1R01   SKC7SKY009R02    127TMP046R03    097DPT046R04   SKC7GAS009
0226722907531432010012904477+32826-116970FM-15+0118KSEE V0209999C000052200079N0160935N5+01107+00907999999ADDGF100991999999999999999999MA1101835100415REMMET07401/28/10 20:47:02 METAR KSEE 290447Z 00000KT 10SM SKC 11/09 A3007 RMK LASTEQDQ01    099SCCGD1P01    003SCCGA1R01   SKC7SKY009R02    117TMP046R03    097DPT046R04   SKC7GAS009
0191722907531432010012914477+32826-116970FM-15+0118KSEE V0209999C000052200059N0241405N5+00607+00607999999ADDGA1045+060965999GD12991+0609659GF104991999999999999999999MA1101765100355REMMET07201/29/10 06:47:02 METAR KSEE 291447Z 00000KT 15SM SCT200 06/06 A3005 RMKEQDR01    067TMP046R02    067DPT046
0191722907531432010012915477+32826-116970FM-15+0118KSEE V0209999C000052200059N0321875N5+00607+00607999999ADDGA1045+060965999GD12991+0609659GF104991999999999999999999MA1101865100455REMMET07201/29/10 07:47:01 METAR KSEE 291547Z 00000KT 20SM SCT200 06/06 A3008 RMKEQDR01    067TMP046R02    067DPT046
0224722907531432010012916477+32826-116970FM-15+0118KSEE V0209999C00005060967MN0402345N5+00907+00707999999ADDGA1077+060967999GD13991+0609679GF107991999999999999999999MA1101865100455REMMET07301/29/10 08:47:01 METAR KSEE 291647Z 00000KT 25SM BKN2000 09/07 A3008 RMKEQDR01BKN2007SKY009R02    097TMP046R03    077DPT046R04BKN2007GAS009
0191722907531432010012917477+32826-116970FM-15+0118KSEE V0209999C00005060965MN0402345N5+01307+00707999999ADDGA1075+060965999GD13991+0609659GF107991999999999999999999MA1101905100485REMMET07201/29/10 09:47:01 METAR KSEE 291747Z 00000KT 25SM BKN200 13/07 A3009 RMKEQDR01    137TMP046R02    077DPT046
0156722907531432010012920057+32826-116970FM-15+0118KSEE V0209999C00005060965MN0402345N5+01905+00405999999ADDGA1075+060965999GD13991+0609659GF107991999999999999999999MA1101735100315REMMET07201/29/10 12:05:02 METAR KSEE 292005Z 00000KT 25SM BKN200 19/04 A3004 RMK
0191722907531432010012920477+32826-116970FM-15+0118KSEE V0209999C00005060965MN0402345N5+01907+00507999999ADDGA1075+060965999GD13991+0609659GF107991999999999999999999MA1101665100255REMMET07201/29/10 12:47:01 METAR KSEE 292047Z 00000KT 25SM BKN200 19/05 A3002 RMKEQDR01    197TMP046R02    057DPT046
0191722907531432010012921477+32826-116970FM-15+0118KSEE V0202405N00415060965MN0402345N5+01907+00607999999ADDGA1075+060965999GD13991+0609659GF107991999999999999999999MA1101635100215REMMET07201/29/10 13:47:02 METAR KSEE 292147Z 24008KT 25SM BKN200 19/06 A3001 RMKEQDR01    197TMP046R02    067DPT046
0229722907531432010013000477+32826-116970FM-15+0118KSEE V0202505N00415030485MN0321875N5+01607+01107999999ADDGA1075+030485999GA2075+060965999GD13991+0304859GD23991+0609659GF107991999999999999999999MA1101695100285REMMET07901/29/10 16:47:02 METAR KSEE 300047Z 25008KT 20SM BKN100 BKN200 16/11 A3003 RMKEQDR01    167TMP046R02    117DPT046
0141722907531432010013023474+32833-116967FM-15+0117KSEE V0202701N005110750019N0402331N1+01601+00901999999ADDGD11991+0180019GD23991+0750019GF107991999999999999999999MA1101391999999REMMET058METAR KSEE 302347Z 27010KT 25SM FEW060 BKN250 16/09 A2994;
0190722907531432010013114477+32826-116970FM-15+0118KSEE V0209999C000052200059N0144845N5+00807+00707999999ADDGA1045+003055999GD12991+0030559GF104991999999999999999999MA1101495100085REMMET07101/31/10 06:47:01 METAR KSEE 311447Z 00000KT 9SM SCT010 08/07 A2997 RMKEQDR01    087TMP046R02    077DPT046
0238722907531432010013117477+32826-116970FM-15+0118KSEE V0209999C000052200059N0241405N5+01707+00707999999ADDGA1025+003055999GA2045+060965999GD11991+0030559GD22991+0609659GF104991999999999999999999MA1101525100115REMMET08801/31/10 09:47:02 METAR KSEE 311747Z 00000KT 15SM FEW010 SCT200 17/07 A2998 RMK HZ ALQDSEQDR01    177TMP046R02    077DPT046
0238722907531432010013118477+32826-116970FM-15+0118KSEE V0209999C000052200059N0241405N5+01507+00807999999ADDGA1025+004575999GA2045+060965999GD11991+0045759GD22991+0609659GF104991999999999999999999MA1101525100115REMMET08801/31/10 10:47:02 METAR KSEE 311847Z 00000KT 15SM FEW015 SCT200 15/08 A2998 RMK HZ ALQDSEQDR01    157TMP046R02    087DPT046
0238722907531432010013119477+32826-116970FM-15+0118KSEE V0202805N003152200059N0241405N5+01707+00807999999ADDGA1025+006105999GA2045+060965999GD11991+0061059GD22991+0609659GF104991999999999999999999MA1101465100045REMMET08801/31/10 11:47:02 METAR KSEE 311947Z 28006KT 15SM FEW020 SCT200 17/08 A2996 RMK HZ ALQDSEQDR01    177TMP046R02    087DPT046
0200722907531432010013122477+32826-116970FM-15+0118KSEE V0202805N004152200059N0241405N5+01707+00907999999ADDGA1045+060965999GD12991+0609659GF104991999999999999999999MA1101295099885REMMET08101/31/10 14:47:01 METAR KSEE 312247Z 28008KT 15SM SCT200 17/09 A2991 RMK HZ ALQDSEQDR01    177TMP046R02    097DPT046
0216722907531432010020114507+32826-116970FM-15+0118KSEE V0209999C00005036585MN0080475N5+00807+00807999999ADDAU100001015AW1105GA1075+036585999GD13991+0365859GF107991999999999999999999MA1101495100085MW1101REMMET07402/01/10 06:50:02 METAR KSEE 011450Z 00000KT 5SM BR BKN120 08/08 A2997 RMKEQDR01    087TMP046R02    087DPT046
0216722907531432010020115477+32826-116970FM-15+0118KSEE V0209999C00005045725MN0080475N5+00807+00807999999ADDAU100001015AW1105GA1075+045725999GD13991+0457259GF107991999999999999999999MA1101525100115MW1101REMMET07402/01/10 07:47:02 METAR KSEE 011547Z 00000KT 5SM BR BKN150 08/08 A2998 RMKEQDR01    087TMP046R02    087DPT046
0216722907531432010020116477+32826-116970FM-15+0118KSEE V0209999C00005045725MN0080475N5+01007+00907999999ADDAU100001015AW1105GA1075+045725999GD13991+0457259GF107991999999999999999999MA1101565100145MW1101REMMET07402/01/10 08:47:02 METAR KSEE 011647Z 00000KT 5SM BR BKN150 10/09 A2999 RMKEQDR01    107TMP046R02    097DPT046
0237722907531432010020117477+32826-116970FM-15+0118KSEE V0209999C00005045725MN0112655N5+01307+00807999999ADDGA1025+003055999GA2075+045725999GD11991+0030559GD23991+0457259GF107991999999999999999999MA1101565100145REMMET08702/01/10 09:47:02 METAR KSEE 011747Z 00000KT 7SM FEW010 BKN150 13/08 A2999 RMK HZ ALQDSEQDR01    137TMP046R02    087DPT046
0200722907531432010020119477+32826-116970FM-15+0118KSEE V0209999C00005060965MN0160935N5+01607+00907999999ADDGA1075+060965999GD13991+0609659GF107991999999999999999999MA1101425100015REMMET08102/01/10 11:47:01 METAR KSEE 011947Z 00000KT 10SM BKN200 16/09 A2995 RMK HZ ALQDSEQDR01    167TMP046R02    097DPT046
0200722907531432010020120477+32826-116970FM-15+0118KSEE V0209999C00005060965MN0160935N5+01807+00807999999ADDGA1075+060965999GD13991+0609659GF107991999999999999999999MA1101325099915REMMET08102/01/10 12:47:01 METAR KSEE 012047Z 00000KT 10SM BKN200 18/08 A2992 RMK HZ ALQDSEQDR01    187TMP046R02    087DPT046
0200722907531432010020122477+32826-116970FM-15+0118KSEE V0209999C00005060965MN0241405N5+01907+00807999999ADDGA1075+060965999GD13991+0609659GF107991999999999999999999MA1101155099745REMMET08102/01/10 14:47:02 METAR KSEE 012247Z 00000KT 15SM BKN200 19/08 A2987 RMK HZ ALQDSEQDR01    197TMP046R02    087DPT046
0200722907531432010020201477+32826-116970FM-15+0118KSEE V0209999C00005060965MN0193125N5+01407+01107999999ADDGA1075+060965999GD13991+0609659GF107991999999999999999999MA1101255099845REMMET08102/01/10 17:47:02 METAR KSEE 020147Z 00000KT 12SM BKN200 14/11 A2990 RMK HZ ALQDSEQDR01    147TMP046R02    117DPT046
0221722907531432010020204477+32826-116970FM-15+0118KSEE V0209999C00005060965MN0080475N5+01207+01107999999ADDAU100001015AW1105GA1075+060965999GD13991+0609659GF107991999999999999999999MA1101325099915MW1101REMMET07902/01/10 20:47:01 METAR KSEE 020447Z 00000KT 5SM BR BKN200 12/11 A2992 RMK LASTEQDR01    127TMP046R02    117DPT046
0292722907531432010020214477+32826-116970FM-15+0118KSEE V0209999C00005060965MN0048285N5+00807+00707999999ADDAU100001015AW1105GA1025+002745999GA2025+006105999GA3075+060965999GD11991+0027459GD21991+0061059GD33991+0609659GF107991999999999999999999MA1101125099715MW1101REMMET08802/02/10 06:47:02 METAR KSEE 021447Z 00000KT 3SM BR FEW009 FEW020 BKN200 08/07 A2986 RMKEQDR01    087TMP046R02    077DPT046
0200722907531432010020218477+32826-116970FM-15+0118KSEE V0209999C00005060965MN0241405N5+01807+00807999999ADDGA1075+060965999GD13991+0609659GF107991999999999999999999MA1101085099685REMMET08102/02/10 10:47:01 METAR KSEE 021847Z 00000KT 15SM BKN200 18/08 A2985 RMK HZ ALQDSEQDR01    187TMP046R02    087DPT046
0200722907531432010020219477+32826-116970FM-15+0118KSEE V0209999V00315060965MN0241405N5+01807+00707999999ADDGA1075+060965999GD13991+0609659GF107991999999999999999999MA1100985099585REMMET08102/02/10 11:47:02 METAR KSEE 021947Z VRB06KT 15SM BKN200 18/07 A2982 RMK HZ ALQDSEQDR01    187TMP046R02    077DPT046
0238722907531432010020220477+32826-116970FM-15+0118KSEE V0209999V00315060965MN0241405N5+01807+00807999999ADDGA1045+021345999GA2075+060965999GD12991+0213459GD23991+0609659GF107991999999999999999999MA1100955099545REMMET08802/02/10 12:47:02 METAR KSEE 022047Z VRB06KT 15SM SCT070 BKN200 18/08 A2981 RMK HZ ALQDSEQDR01    187TMP046R02    087DPT046
0150722907531432010020221474+32833-116967FM-15+0117KSEE V0209999V003110600019N0241401N1+01901+00801999999ADDGD12991+0210019GD23991+0600019GF107991999999999999999999MA1100881999999REMMET067METAR KSEE 022147Z VRB06KT 15SM SCT070 BKN200 19/08 A2979 HZ ALQDS;
0238722907531432010020221557+32826-116970FM-15+0118KSEE V0209999V00315060965MN0241405N5+01907+00807999999ADDGA1045+021345999GA2075+060965999GD12991+0213459GD23991+0609659GF107991999999999999999999MA1100885099485REMMET08802/02/10 13:55:02 METAR KSEE 022155Z VRB06KT 15SM SCT070 BKN200 19/08 A2979 RMK HZ ALQDSEQDR01    197TMP046R02    087DPT046
0238722907531432010020222477+32826-116970FM-15+0118KSEE V0209999V00315060965MN0241405N5+01907+00807999999ADDGA1045+021345999GA2075+060965999GD12991+0213459GD23991+0609659GF107991999999999999999999MA1100755099345REMMET08802/02/10 14:47:02 METAR KSEE 022247Z VRB06KT 15SM SCT070 BKN200 19/08 A2975 RMK HZ ALQDSEQDR01    197TMP046R02    087DPT046
0238722907531432010020223477+32826-116970FM-15+0118KSEE V0209999V00265060965MN0241405N5+01707+01007999999ADDGA1045+024385999GA2075+060965999GD12991+0243859GD23991+0609659GF107991999999999999999999MA1100855099445REMMET08802/02/10 15:47:02 METAR KSEE 022347Z VRB05KT 15SM SCT080 BKN200 17/10 A2978 RMK HZ ALQDSEQDR01    177TMP046R02    107DPT046
0216722907531432010020315477+32826-116970FM-15+0118KSEE V0209999C00005004885MN0032195N5+01107+01007999999ADDAU100001015AW1105GA1085+004885999GD14991+0048859GF108991999999999999999999MA1100885099485MW1101REMMET07402/03/10 07:47:02 METAR KSEE 031547Z 00000KT 2SM BR OVC016 11/10 A2979 RMKEQDR01    117TMP046R02    107DPT046
0216722907531432010020317477+32826-116970FM-15+0118KSEE V0209999C00005005495MN0064375N5+01307+00807999999ADDAU100001015AW1105GA1085+005495999GD14991+0054959GF108991999999999999999999MA1100985099585MW1101REMMET07402/03/10 09:47:02 METAR KSEE 031747Z 00000KT 4SM BR OVC018 13/08 A2982 RMKEQDR01    137TMP046R02    087DPT046
0190722907531432010020403477+32826-116970FM-15+0118KSEE V0209999C00005005185MN0112655N5+01307+01007999999ADDGA1075+005185999GD13991+0051859GF107991999999999999999999MA1101195099785REMMET07102/03/10 19:47:02 METAR KSEE 040347Z 00000KT 7SM BKN017 13/10 A2988 RMKEQDR01    137TMP046R02    107DPT046
0229722907531432010020421477+32826-116970FM-15+0118KSEE V0202405N00365036585MN0321875N5+01907+00907999999ADDGA1045+012195999GA2075+036585999GD12991+0121959GD23991+0365859GF107991999999999999999999MA1101395099985REMMET07902/04/10 13:47:02 METAR KSEE 042147Z 24007KT 20SM SCT040 BKN120 19/09 A2994 RMKEQDR01    197TMP046R02    097DPT046
0267722907531432010020423477+32826-116970FM-15+0118KSEE V0202505N00315045725MN0241405N5+01607+00907999999ADDGA1025+006405999GA2045+015245999GA3075+045725999GD11991+0064059GD22991+0152459GD33991+0457259GF107991999999999999999999MA1101465100045REMMET08602/04/10 15:47:02 METAR KSEE 042347Z 25006KT 15SM FEW021 SCT050 BKN150 16/09 A2996 RMKEQDR01    167TMP046R02    097DPT046
0228722907531432010020501477+32826-116970FM-15+0118KSEE V0202705N00265008535MN0112655N5+01407+00907999999ADDGA1045+006105999GA2075+008535999GD12991+0061059GD23991+0085359GF107991999999999999999999MA1101595100185REMMET07802/04/10 17:47:02 METAR KSEE 050147Z 27005KT 7SM SCT020 BKN028 14/09 A3000 RMKEQDR01    147TMP046R02    097DPT046
0228722907531432010020502477+32826-116970FM-15+0118KSEE V0209999C00005010065MN0144845N5+01307+00907999999ADDGA1045+007015999GA2075+010065999GD12991+0070159GD23991+0100659GF107991999999999999999999MA1101635100215REMMET07802/04/10 18:47:02 METAR KSEE 050247Z 00000KT 9SM SCT023 BKN033 13/09 A3001 RMKEQDR01    137TMP046R02    097DPT046
0229722907531432010020514477+32826-116970FM-15+0118KSEE V0209999C00005014025MN0160935N5+01107+01007999999ADDGA1045+007325999GA2075+014025999GD12991+0073259GD23991+0140259GF107991999999999999999999MA1101865100455REMMET07902/05/10 06:47:02 METAR KSEE 051447Z 00000KT 10SM SCT024 BKN046 11/10 A3008 RMKEQDR01    117TMP046R02    107DPT046
0229722907531432010020522477+32826-116970FM-15+0118KSEE V0202405N00465012195MN0321875N5+01607+00907999999ADDGA1075+012195999GA2085+015245999GD13991+0121959GD24991+0152459GF108991999999999999999999MA1101735100315REMMET07902/05/10 14:47:01 METAR KSEE 052247Z 24009KT 20SM BKN040 OVC050 16/09 A3004 RMKEQDR01    167TMP046R02    097DPT046
0191722907531432010020600477+32826-116970FM-15+0118KSEE V0202105N00415012195MN0241405N5+01407+00807999999ADDGA1085+012195999GD14991+0121959GF108991999999999999999999MA1101765100355REMMET07202/05/10 16:47:02 METAR KSEE 060047Z 21008KT 15SM OVC040 14/08 A3005 RMKEQDR01    147TMP046R02    087DPT046
0259722907531432010020604477+32826-116970FM-15+0118KSEE V0209999C00005010675MN0080475N5+01207+01107999999ADDAU100001015AW1105GA1025+006715999GA2085+010675999GD11991+0067159GD24991+0106759GF108991999999999999999999MA1101795100385MW1101REMMET08602/05/10 20:47:02 METAR KSEE 060447Z 00000KT 5SM BR FEW022 OVC035 12/11 A3006 RMK LASTEQDR01    127TMP046R02    117DPT046
0190722907531432010020614477+32826-116970FM-15+0118KSEE V0209999C00005007625MN0112655N5+01307+01207999999ADDGA1085+007625999GD14991+0076259GF108991999999999999999999MA1101565100145REMMET07102/06/10 06:47:02 METAR KSEE 061447Z 00000KT 7SM OVC025 13/12 A2999 RMKEQDR01    137TMP046R02    127DPT046
0339722907531432010020619477+32826-116970FM-15+0118KSEE V0201705N00515004275MN0000007N5+01307+01307999999ADDAU110020015AU200001015AW1105AW2615GA1025+002745999GA2075+004275999GA3085+005495999GD11991+0027459GD23991+0042759GD34991+0054959GF108991999999999999999999MA1101465100045MW1101MW2611REMMET09602/06/10 11:47:02 METAR KSEE 061947Z 17010KT 2 1/4SM -RA BR FEW009 BKN014 OVC018 13/13 A2996 RMKEQDR012 1/4S7VIS011R02    137TMP046R03    137DPT046
0265722907531432010020620477+32826-116970FM-15+0118KSEE V0201705N00515007325MN0048285N5+01307+01307999999ADDAU100001015AW1105GA1045+003665999GA2085+007325999GD12991+0036659GD24991+0073259GF108991999999999999999999MA1101395099985MW1101OC100775REMMET08402/06/10 12:47:02 METAR KSEE 062047Z 17010G15KT 3SM BR SCT012 OVC024 13/13 A2994 RMKEQDR01    137TMP046R02    137DPT046
0303722907531432010020621477+32826-116970FM-15+0118KSEE V0202005N00515008845MN0096565N5+01607+01307999999ADDAU100001015AW1105GA1045+004575999GA2075+008845999GA3085+033535999GD12991+0045759GD23991+0088459GD34991+0335359GF108991999999999999999999MA1101355099945MW1101OC100775REMMET09102/06/10 13:47:02 METAR KSEE 062147Z 20010G15KT 6SM BR SCT015 BKN029 OVC110 16/13 A2993 RMKEQDR01    167TMP046R02    137DPT046
0228722907531432010020622477+32826-116970FM-15+0118KSEE V0202105N00515005495MN0144845N5+01507+01307999999ADDGA1075+005495999GA2085+015245999GD13991+0054959GD24991+0152459GF108991999999999999999999MA1101355099945REMMET07802/06/10 14:47:02 METAR KSEE 062247Z 21010KT 9SM BKN018 OVC050 15/13 A2993 RMKEQDR01    157TMP046R02    137DPT046
0254722907531432010020623477+32826-116970FM-15+0118KSEE V0202005N00415004885MN0112655N5+01407+01107999999ADDAU100001015AW1105GA1075+004885999GA2075+012195999GD13991+0048859GD23991+0121959GF107991999999999999999999MA1101325099915MW1101REMMET08102/06/10 15:47:02 METAR KSEE 062347Z 20008KT 7SM BR BKN016 BKN040 14/11 A2992 RMKEQDR01    147TMP046R02    117DPT046
0292722907531432010020701507+32826-116970FM-15+0118KSEE V0202305N00265004885MN0080475N5+01307+01207999999ADDAU100001015AW1105GA1075+004885999GA2075+007015999GA3085+018295999GD13991+0048859GD23991+0070159GD34991+0182959GF108991999999999999999999MA1101325099915MW1101REMMET08802/06/10 17:50:02 METAR KSEE 070150Z 23005KT 5SM BR BKN016 BKN023 OVC060 13/12 A2992 RMKEQDR01    137TMP046R02    127DPT046
0255722907531432010020702477+32826-116970FM-15+0118KSEE V0209999V00315005495MN0064375N5+01207+01107999999ADDAU110020015AW1615GA1045+000915999GA2085+005495999GD12991+0009159GD24991+0054959GF108991999999999999999999MA1101355099945MW1611REMMET08202/06/10 18:47:01 METAR KSEE 070247Z VRB06KT 4SM -RA SCT003 OVC018 12/11 A2993 RMKEQDR01    127TMP046R02    117DPT046
0255722907531432010020703477+32826-116970FM-15+0118KSEE V0202905N00415010975MN0064375N5+01307+01107999999ADDAU110020015AW1615GA1045+004575999GA2085+010975999GD12991+0045759GD24991+0109759GF108991999999999999999999MA1101425100015MW1611REMMET08202/06/10 19:47:02 METAR KSEE 070347Z 29008KT 4SM -RA SCT015 OVC036 13/11 A2995 RMKEQDR01    137TMP046R02    117DPT046
0191722907531432010020718477+32826-116970FM-15+0118KSEE V0202505N00515010675MN0241405N5+01407+00607999999ADDGA1075+010675999GD13991+0106759GF107991999999999999999999MA1101525100115REMMET07202/07/10 10:47:01 METAR KSEE 071847Z 25010KT 15SM BKN035 14/06 A2998 RMKEQDR01    147TMP046R02    067DPT046
0191722907531432010020720477+32826-116970FM-15+0118KSEE V0202605N00515010675MN0321875N5+01707+00607999999ADDGA1075+010675999GD13991+0106759GF107991999999999999999999MA1101355099945REMMET07202/07/10 12:47:02 METAR KSEE 072047Z 26010KT 20SM BKN035 17/06 A2993 RMKEQDR01    177TMP046R02    067DPT046
0229722907531432010020721477+32826-116970FM-15+0118KSEE V0202405N00515015245MN0321875N5+01507+00607999999ADDGA1025+011285999GA2075+015245999GD11991+0112859GD23991+0152459GF107991999999999999999999MA1101295099885REMMET07902/07/10 13:47:02 METAR KSEE 072147Z 24010KT 20SM FEW037 BKN050 15/06 A2991 RMKEQDR01    157TMP046R02    067DPT046
0191722907531432010020722477+32826-116970FM-15+0118KSEE V0202805N00515015245MN0321875N5+01407+00607999999ADDGA1075+015245999GD13991+0152459GF107991999999999999999999MA1101255099845REMMET07202/07/10 14:47:02 METAR KSEE 072247Z 28010KT 20SM BKN050 14/06 A2990 RMKEQDR01    147TMP046R02    067DPT046
0191722907531432010020723477+32826-116970FM-15+0118KSEE V0202405N00415015245MN0321875N5+01307+00607999999ADDGA1075+015245999GD13991+0152459GF107991999999999999999999MA1101325099915REMMET07202/07/10 15:47:02 METAR KSEE 072347Z 24008KT 20SM BKN050 13/06 A2992 RMKEQDR01    137TMP046R02    067DPT046
0229722907531432010020801477+32826-116970FM-15+0118KSEE V0209999V00315011895MN0321875N5+01207+00507999999ADDGA1045+010065999GA2075+011895999GD12991+0100659GD23991+0118959GF107991999999999999999999MA1101355099945REMMET07902/07/10 17:47:01 METAR KSEE 080147Z VRB06KT 20SM SCT033 BKN039 12/05 A2993 RMKEQDR01    127TMP046R02    057DPT046
0191722907531432010020815477+32826-116970FM-15+0118KSEE V02099999999992200059N0402345N5+00507+00507999999ADDGA1025+010675999GD11991+0106759GF102991999999999999999999MA1101665100255REMMET07202/08/10 07:47:02 METAR KSEE 081547Z      KT 25SM FEW035 05/05 A3002 RMKEQDR01    057TMP046R02    057DPT046
0191722907531432010020817477+32826-116970FM-15+0118KSEE V0209999C000052200059N0402345N5+01307+00607999999ADDGA1025+009145999GD11991+0091459GF102991999999999999999999MA1101665100255REMMET07202/08/10 09:47:02 METAR KSEE 081747Z 00000KT 25SM FEW030 13/06 A3002 RMKEQDR01    137TMP046R02    067DPT046
0191722907531432010020818477+32826-116970FM-15+0118KSEE V0209999C000052200059N0402345N5+01607+00607999999ADDGA1045+012195999GD12991+0121959GF104991999999999999999999MA1101635100215REMMET07202/08/10 10:47:02 METAR KSEE 081847Z 00000KT 25SM SCT040 16/06 A3001 RMKEQDR01    167TMP046R02    067DPT046
0191722907531432010020819477+32826-116970FM-15+0118KSEE V0209999C00005012195MN0402345N5+01407+00607999999ADDGA1075+012195999GD13991+0121959GF107991999999999999999999MA1101465100045REMMET07202/08/10 11:47:02 METAR KSEE 081947Z 00000KT 25SM BKN040 14/06 A2996 RMKEQDR01    147TMP046R02    067DPT046
0229722907531432010020900477+32826-116970FM-15+0118KSEE V0202605N004152200059N0402345N5+01507+00707999999ADDGA1025+015245999GA2045+030485999GD11991+0152459GD22991+0304859GF104991999999999999999999MA1101395099985REMMET07902/08/10 16:47:02 METAR KSEE 090047Z 26008KT 25SM FEW050 SCT100 15/07 A2994 RMKEQDR01    157TMP046R02    077DPT046
0191722907531432010020914477+32826-116970FM-15+0118KSEE V0202705N00265021345MN0402345N5+00907+00807999999ADDGA1075+021345999GD13991+0213459GF107991999999999999999999MA1101665100255REMMET07202/09/10 06:47:02 METAR KSEE 091447Z 27005KT 25SM BKN070 09/08 A3002 RMKEQDR01    097TMP046R02    087DPT046
0191722907531432010020916477+32826-116970FM-15+0118KSEE V0209999C00005021345MN0402345N5+01207+00807999999ADDGA1075+021345999GD13991+0213459GF107991999999999999999999MA1101665100255REMMET07202/09/10 08:47:01 METAR KSEE 091647Z 00000KT 25SM BKN070 12/08 A3002 RMKEQDR01    127TMP046R02    087DPT046
0229722907531432010020917477+32826-116970FM-15+0118KSEE V0209999C00005022865MN0402345N5+01307+00707999999ADDGA1025+009145999GA2075+022865999GD11991+0091459GD23991+0228659GF107991999999999999999999MA1101665100255REMMET07902/09/10 09:47:02 METAR KSEE 091747Z 00000KT 25SM FEW030 BKN075 13/07 A3002 RMKEQDR01    137TMP046R02    077DPT046
0278722907531432010020921477+32826-116970FM-15+0118KSEE V0202105N00415015245MN0160935N5+01507+00607999999ADDGA1025+010975999GA2045+014025999GA3085+015245999GD11991+0109759GD22991+0140259GD34991+0152459GF108991999999999999999999MA1101325099915OC100725REMMET08902/09/10 13:47:01 METAR KSEE 092147Z 21008G14KT 10SM FEW036 SCT046 OVC050 15/06 A2992 RMKEQDR01    157TMP046R02    067DPT046
0267722907531432010020922477+32826-116970FM-15+0118KSEE V0201805N00415018295MN0160935N5+01407+00707999999ADDGA1025+009145999GA2045+016765999GA3085+018295999GD11991+0091459GD22991+0167659GD34991+0182959GF108991999999999999999999MA1101325099915REMMET08602/09/10 14:47:02 METAR KSEE 092247Z 18008KT 10SM FEW030 SCT055 OVC060 14/07 A2992 RMKEQDR01    147TMP046R02    077DPT046
0267722907531432010020923477+32826-116970FM-15+0118KSEE V0202305N00315010975MN0160935N5+01307+00707999999ADDGA1045+009145999GA2075+010975999GA3085+013725999GD12991+0091459GD23991+0109759GD34991+0137259GF108991999999999999999999MA1101295099885REMMET08602/09/10 15:47:02 METAR KSEE 092347Z 23006KT 10SM SCT030 BKN036 OVC045 13/07 A2991 RMKEQDR01    137TMP046R02    077DPT046
0217722907531432010021014477+32826-116970FM-15+0118KSEE V0209999C00005000305WN0002015N5+00507+00507999999ADDAU100002015AW1305GA1095+000305999GD15991+0003059GF109991999999000251999999MA1101495100085MW1451REMMET07502/10/10 06:47:02 METAR KSEE 101447Z 00000KT 1/8SM FG VV001 05/05 A2997 RMKEQDR01    057TMP046R02    057DPT046
0216722907531432010021015477+32826-116970FM-15+0118KSEE V0209999C00005008535MN0048285N5+00507+00507999999ADDAU100001015AW1105GA1075+008535999GD13991+0085359GF107991999999999999999999MA1101525100115MW1101REMMET07402/10/10 07:47:02 METAR KSEE 101547Z 00000KT 3SM BR BKN028 05/05 A2998 RMKEQDR01    057TMP046R02    057DPT046
0216722907531432010021016477+32826-116970FM-15+0118KSEE V0209999C00005027435MN0112655N5+00707+00707999999ADDAU100001015AW1105GA1075+027435999GD13991+0274359GF107991999999999999999999MA1101635100215MW1101REMMET07402/10/10 08:47:02 METAR KSEE 101647Z 00000KT 7SM BR BKN090 07/07 A3001 RMKEQDR01    077TMP046R02    077DPT046
0191722907531432010021017477+32826-116970FM-15+0118KSEE V0209999C00005027435MN0241405N5+01007+00707999999ADDGA1075+027435999GD13991+0274359GF107991999999999999999999MA1101695100285REMMET07202/10/10 09:47:01 METAR KSEE 101747Z 00000KT 15SM BKN090 10/07 A3003 RMKEQDR01    107TMP046R02    077DPT046
0229722907531432010021018477+32826-116970FM-15+0118KSEE V0209999C00005010065MN0321875N5+01207+00607999999ADDGA1045+007925999GA2075+010065999GD12991+0079259GD23991+0100659GF107991999999999999999999MA1101765100355REMMET07902/10/10 10:47:02 METAR KSEE 101847Z 00000KT 20SM SCT026 BKN033 12/06 A3005 RMKEQDR01    127TMP046R02    067DPT046
0191722907531432010021021477+32826-116970FM-15+0118KSEE V0209999V00315013725MN0402345N5+01507+00407999999ADDGA1075+013725999GD13991+0137259GF107991999999999999999999MA1101595100185REMMET07202/10/10 13:47:01 METAR KSEE 102147Z VRB06KT 25SM BKN045 15/04 A3000 RMKEQDR01    157TMP046R02    047DPT046
0191722907531432010021022557+32826-116970FM-15+0118KSEE V0209999V003152200059N0402345N5+01507+00407999999ADDGA1045+013725999GD12991+0137259GF104991999999999999999999MA1101635100215REMMET07202/10/10 14:55:02 METAR KSEE 102255Z VRB06KT 25SM SCT045 15/04 A3001 RMKEQDR01    157TMP046R02    047DPT046
0191722907531432010021023557+32826-116970FM-15+0118KSEE V0202605N003152200059N0402345N5+01607+00507999999ADDGA1025+013725999GD11991+0137259GF102991999999999999999999MA1101665100255REMMET07202/10/10 15:55:02 METAR KSEE 102355Z 26006KT 25SM FEW045 16/05 A3002 RMKEQDR01    167TMP046R02    057DPT046
0191722907531432010021114507+32826-116970FM-15+0118KSEE V0209999C000052200059N0402345N5+00307+00307999999ADDGA1025+060965999GD11991+0609659GF102991999999999999999999MA1102205100785REMMET07202/11/10 06:50:02 METAR KSEE 111450Z 00000KT 25SM FEW200 03/03 A3018 RMKEQDR01    037TMP046R02    037DPT046
0191722907531432010021120477+32826-116970FM-15+0118KSEE V0202405N003152200059N0402345N5+01707+00707999999ADDGA1045+030485999GD12991+0304859GF104991999999999999999999MA1102135100715REMMET07202/11/10 12:47:02 METAR KSEE 112047Z 24006KT 25SM SCT100 17/07 A3016 RMKEQDR01    177TMP046R02    077DPT046
0229722907531432010021122477+32826-116970FM-15+0118KSEE V0202205N003152200059N0321875N5+01807+00807999999ADDGA1045+024385999GA2045+060965999GD12991+0243859GD22991+0609659GF104991999999999999999999MA1102075100655REMMET07902/11/10 14:47:01 METAR KSEE 112247Z 22006KT 20SM SCT080 SCT200 18/08 A3014 RMKEQDR01    187TMP046R02    087DPT046
0229722907531432010021200477+32826-116970FM-15+0118KSEE V0202205N00315045725MN0241405N5+01407+00807999999ADDGA1025+021345999GA2075+045725999GD11991+0213459GD23991+0457259GF107991999999999999999999MA1102075100655REMMET07902/11/10 16:47:02 METAR KSEE 120047Z 22006KT 15SM FEW070 BKN150 14/08 A3014 RMKEQDR01    147TMP046R02    087DPT046
0218722907531432010021314477+32826-116970FM-15+0118KSEE V0209999C00005000305WN0000005N5+00607+00607999999ADDAU100002015AW1305GA1095+000305999GD15991+0003059GF109991999999000251999999MA1101865100455MW1451REMMET07602/13/10 06:47:02 METAR KSEE 131447Z 00000KT M1/4SM FG VV001 06/06 A3008 RMKEQDR01    067TMP046R02    067DPT046
0311722907531432010021316477+32826-116970FM-15+0118KSEE V0209999C000052200079N0096565N5+00807+00807999999ADDAU100000017AW1107GF100991999999999999999999MA1101905100485MW1101REMMET07202/13/10 08:47:02 METAR KSEE 131647Z 00000KT 6SM BRR SKC 08/08 A3009 RMKEQDQ01    099SCCGD1P01    003SCCGA1R01   SKC7SKY009R02    087TMP046R03    087DPT046R04   BRR7AWW013R05   BRR7AWW013R06   SKC7GAS009R07SEERMK7MVW013R08   BRR7MWW013
0221722907531432010021400557+32826-116970FM-15+0118KSEE V0202805N004152200079N0402345N5+01907+00707999999ADDGF100991999999999999999999MA1101565100145REMMET06902/13/10 16:55:01 METAR KSEE 140055Z 28008KT 25SM SKC 19/07 A2999 RMKEQDQ01    099SCCGD1P01    003SCCGA1R01   SKC7SKY009R02    197TMP046R03    077DPT046R04   SKC7GAS009
0221722907531432010021402477+32826-116970FM-15+0118KSEE V0209999C000052200079N0193125N5+01407+00807999999ADDGF100991999999999999999999MA1101695100285REMMET06902/13/10 18:47:01 METAR KSEE 140247Z 00000KT 12SM SKC 14/08 A3003 RMKEQDQ01    099SCCGD1P01    003SCCGA1R01   SKC7SKY009R02    147TMP046R03    087DPT046R04   SKC7GAS009
0221722907531432010021403477+32826-116970FM-15+0118KSEE V0209999C000052200079N0193125N5+01307+00807999999ADDGF100991999999999999999999MA1101735100315REMMET06902/13/10 19:47:02 METAR KSEE 140347Z 00000KT 12SM SKC 13/08 A3004 RMKEQDQ01    099SCCGD1P01    003SCCGA1R01   SKC7SKY009R02    137TMP046R03    087DPT046R04   SKC7GAS009
0226722907531432010021404457+32826-116970FM-15+0118KSEE V0209999C000052200079N0193125N5+01207+00807999999ADDGF100991999999999999999999MA1101735100315REMMET07402/13/10 20:45:02 METAR KSEE 140445Z 00000KT 12SM SKC 12/08 A3004 RMK LASTEQDQ01    099SCCGD1P01    003SCCGA1R01   SKC7SKY009R02    127TMP046R03    087DPT046R04   SKC7GAS009
0221722907531432010021417477+32826-116970FM-15+0118KSEE V0209999C000052200079N0402345N5+01707+00707999999ADDGF100991999999999999999999MA1101795100385REMMET06902/14/10 09:47:02 METAR KSEE 141747Z 00000KT 25SM SKC 17/07 A3006 RMKEQDQ01    099SCCGD1P01    003SCCGA1R01   SKC7SKY009R02    177TMP046R03    077DPT046R04   SKC7GAS009
0191722907531432010021418477+32826-116970FM-15+0118KSEE V0209999C000052200059N0402345N5+02107+00707999999ADDGA1025+076205999GD11991+0762059GF102991999999999999999999MA1101765100355REMMET07202/14/10 10:47:02 METAR KSEE 141847Z 00000KT 25SM FEW250 21/07 A3005 RMKEQDR01    217TMP046R02    077DPT046
0191722907531432010021419477+32826-116970FM-15+0118KSEE V0209999C000052200059N0402345N5+02607+00407999999ADDGA1025+076205999GD11991+0762059GF102991999999999999999999MA1101695100285REMMET07202/14/10 11:47:02 METAR KSEE 141947Z 00000KT 25SM FEW250 26/04 A3003 RMKEQDR01    267TMP046R02    047DPT046
0191722907531432010021421477+32826-116970FM-15+0118KSEE V0209999C000052200059N0402345N5+02907+00307999999ADDGA1025+076205999GD11991+0762059GF102991999999999999999999MA1101495100085REMMET07202/14/10 13:47:02 METAR KSEE 142147Z 00000KT 25SM FEW250 29/03 A2997 RMKEQDR01    297TMP046R02    037DPT046
0221722907531432010021422477+32826-116970FM-15+0118KSEE V0202905N005152200079N0402345N5+02707+00407999999ADDGF100991999999999999999999MA1101465100045REMMET06902/14/10 14:47:01 METAR KSEE 142247Z 29010KT 25SM SKC 27/04 A2996 RMKEQDQ01    099SCCGD1P01    003SCCGA1R01   SKC7SKY009R02    277TMP046R03    047DPT046R04   SKC7GAS009
0221722907531432010021423477+32826-116970FM-15+0118KSEE V0202905N005152200079N0402345N5+02407+00707999999ADDGF100991999999999999999999MA1101495100085REMMET06902/14/10 15:47:02 METAR KSEE 142347Z 29010KT 25SM SKC 24/07 A2997 RMKEQDQ01    099SCCGD1P01    003SCCGA1R01   SKC7SKY009R02    247TMP046R03    077DPT046R04   SKC7GAS009
0221722907531432010021501477+32826-116970FM-15+0118KSEE V0202705N004152200079N0402345N5+01907+00407999999ADDGF100991999999999999999999MA1101565100145REMMET06902/14/10 17:47:02 METAR KSEE 150147Z 27008KT 25SM SKC 19/04 A2999 RMKEQDQ01    099SCCGD1P01    003SCCGA1R01   SKC7SKY009R02    197TMP046R03    047DPT046R04   SKC7GAS009
0191722907531432010021514477+32826-116970FM-15+0118KSEE V0209999C000052200059N0402345N5+00607+00407999999ADDGA1025+076205999GD11991+0762059GF102991999999999999999999MA1101635100215REMMET07202/15/10 06:47:01 METAR KSEE 151447Z 00000KT 25SM FEW250 06/04 A3001 RMKEQDR01    067TMP046R02    047DPT046
0191722907531432010021515477+32826-116970FM-15+0118KSEE V0209999C000052200059N0402345N5+00807+00407999999ADDGA1025+076205999GD11991+0762059GF102991999999999999999999MA1101665100255REMMET07202/15/10 07:47:02 METAR KSEE 151547Z 00000KT 25SM FEW250 08/04 A3002 RMKEQDR01    087TMP046R02    047DPT046
0172722907531432010021516557+32826-116970FM-15+0118KSEE V0209999C000052200059N0402345N5+01307+99999999999ADDGA1025+076205999GD11991+0762059GF102991999999999999999999MA1101665100255REMMET06902/15/10 08:55:02 METAR KSEE 151655Z 00000KT 25SM FEW250 13/A3002 RMKEQDR01    137TMP046
0221722907531432010021517477+32826-116970FM-15+0118KSEE V0209999C000052200079N0321875N5+01707+00507999999ADDGF100991999999999999999999MA1101665100255REMMET06902/15/10 09:47:02 METAR KSEE 151747Z 00000KT 20SM SKC 17/05 A3002 RMKEQDQ01    099SCCGD1P01    003SCCGA1R01   SKC7SKY009R02    177TMP046R03    057DPT046R04   SKC7GAS009
0221722907531432010021519477+32826-116970FM-15+0118KSEE V0209999C000052200079N0321875N5+02607+00007999999ADDGF100991999999999999999999MA1101525100115REMMET06902/15/10 11:47:02 METAR KSEE 151947Z 00000KT 20SM SKC 26/00 A2998 RMKEQDQ01    099SCCGD1P01    003SCCGA1R01   SKC7SKY009R02    267TMP046R03    007DPT046R04   SKC7GAS009
0221722907531432010021521477+32826-116970FM-15+0118KSEE V0209999V003152200079N0402345N5+02807+00107999999ADDGF100991999999999999999999MA1101355099945REMMET06902/15/10 13:47:01 METAR KSEE 152147Z VRB06KT 25SM SKC 28/01 A2993 RMKEQDQ01    099SCCGD1P01    003SCCGA1R01   SKC7SKY009R02    287TMP046R03    017DPT046R04   SKC7GAS009
0221722907531432010021523477+32826-116970FM-15+0118KSEE V0202805N005152200079N0402345N5+02507+00207999999ADDGF100991999999999999999999MA1101295099885REMMET06902/15/10 15:47:02 METAR KSEE 152347Z 28010KT 25SM SKC 25/02 A2991 RMKEQDQ01    099SCCGD1P01    003SCCGA1R01   SKC7SKY009R02    257TMP046R03    027DPT046R04   SKC7GAS009
0221722907531432010021600477+32826-116970FM-15+0118KSEE V0202905N004152200079N0402345N5+02307+00207999999ADDGF100991999999999999999999MA1101325099915REMMET06902/15/10 16:47:02 METAR KSEE 160047Z 29008KT 25SM SKC 23/02 A2992 RMKEQDQ01    099SCCGD1P01    003SCCGA1R01   SKC7SKY009R02    237TMP046R03    027DPT046R04   SKC7GAS009
0226722907531432010021604477+32826-116970FM-15+0118KSEE V0209999C000052200079N0112655N5+01307+00607999999ADDGF100991999999999999999999MA1101495100085REMMET07402/15/10 20:47:02 METAR KSEE 160447Z 00000KT 7SM SKC 13/06 A2997 RMK  LASTEQDQ01    099SCCGD1P01    003SCCGA1R01   SKC7SKY009R02    137TMP046R03    067DPT046R04   SKC7GAS009
0221722907531432010021614477+32826-116970FM-15+0118KSEE V0209999C000052200079N0402345N5+00607+00407999999ADDGF100991999999999999999999MA1101635100215REMMET06902/16/10 06:47:02 METAR KSEE 161447Z 00000KT 25SM SKC 06/04 A3001 RMKEQDQ01    099SCCGD1P01    003SCCGA1R01   SKC7SKY009R02    067TMP046R03    047DPT046R04   SKC7GAS009
0221722907531432010021615477+32826-116970FM-15+0118KSEE V0209999C000052200079N0402345N5+00807+00507999999ADDGF100991999999999999999999MA1101665100255REMMET06902/16/10 07:47:02 METAR KSEE 161547Z 00000KT 25SM SKC 08/05 A3002 RMKEQDQ01    099SCCGD1P01    003SCCGA1R01   SKC7SKY009R02    087TMP046R03    057DPT046R04   SKC7GAS009
0136722907531432010021616474+32833-116967FM-15+0117KSEE V0209999C000012200019N0402331N1+01301+00601999999ADDGF100991999999999999999999MA1101661999999REMMET048METAR KSEE 161647Z 00000KT 25SM SKC 13/06 A3002;EQDQ01    993SCCGA1Q02    099SCCGD1
0221722907531432010021618477+32826-116970FM-15+0118KSEE V0209999C000052200079N0402345N5+02307+00507999999ADDGF100991999999999999999999MA1101595100185REMMET06902/16/10 10:47:02 METAR KSEE 161847Z 00000KT 25SM SKC 23/05 A3000 RMKEQDQ01    099SCCGD1P01    003SCCGA1R01   SKC7SKY009R02    237TMP046R03    057DPT046R04   SKC7GAS009
0221722907531432010021619557+32826-116970FM-15+0118KSEE V0209999C000052200079N0402345N5+02707+00207999999ADDGF100991999999999999999999MA1101495100085REMMET06902/16/10 11:55:02 METAR KSEE 161955Z 00000KT 25SM SKC 27/02 A2997 RMKEQDQ01    099SCCGD1P01    003SCCGA1R01   SKC7SKY009R02    277TMP046R03    027DPT046R04   SKC7GAS009
0221722907531432010021622477+32826-116970FM-15+0118KSEE V0209999C000052200079N0402345N5+02707+00207999999ADDGF100991999999999999999999MA1101325099915REMMET06902/16/10 14:47:02 METAR KSEE 162247Z 00000KT 25SM SKC 27/02 A2992 RMKEQDQ01    099SCCGD1P01    003SCCGA1R01   SKC7SKY009R02    277TMP046R03    027DPT046R04   SKC7GAS009
0191722907531432010021623477+32826-116970FM-15+0118KSEE V0202705N004152200059N0402345N5+02607+00207999999ADDGA1025+060965999GD11991+0609659GF102991999999999999999999MA1101325099915REMMET07202/16/10 15:47:02 METAR KSEE 162347Z 27008KT 25SM FEW200 26/02 A2992 RMKEQDR01    267TMP046R02    027DPT046
0163722907531432010021701477+32826-116970FM-15+0118KSEE V0209999C000052200059N9999999N5+02007+00407999999ADDGA1025+060965999GD11991+0609659MA1101395099985REMMET07002/16/10 17:47:02 METAR KSEE 170147Z 00000KT 10 FEW200 20/04 A2994 RMKEQDR01    207TMP046R02    047DPT046
0191722907531432010021714477+32826-116970FM-15+0118KSEE V0209999C000052200059N0402345N5+00707+00507999999ADDGA1025+076205999GD11991+0762059GF102991999999999999999999MA1101635100215REMMET07202/17/10 06:47:02 METAR KSEE 171447Z 00000KT 25SM FEW250 07/05 A3001 RMKEQDR01    077TMP046R02    057DPT046
0191722907531432010021715477+32826-116970FM-15+0118KSEE V0209999C000052200059N0402345N5+00907+00607999999ADDGA1025+076205999GD11991+0762059GF102991999999999999999999MA1101635100215REMMET07202/17/10 07:47:02 METAR KSEE 171547Z 00000KT 25SM FEW250 09/06 A3001 RMKEQDR01    097TMP046R02    067DPT046
0221722907531432010021719477+32826-116970FM-15+0118KSEE V0209999C000052200079N0402345N5+02507+00307999999ADDGF100991999999999999999999MA1101425100015REMMET06902/17/10 11:47:01 METAR KSEE 171947Z 00000KT 25SM SKC 25/03 A2995 RMKEQDQ01    099SCCGD1P01    003SCCGA1R01   SKC7SKY009R02    257TMP046R03    037DPT046R04   SKC7GAS009
0221722907531432010021817477+32826-116970FM-15+0118KSEE V0209999C000052200079N0402345N5+01607+00607999999ADDGF100991999999999999999999MA1101465100045REMMET06902/18/10 09:47:01 METAR KSEE 181747Z 00000KT 25SM SKC 16/06 A2996 RMKEQDQ01    099SCCGD1P01    003SCCGA1R01   SKC7SKY009R02    167TMP046R03    067DPT046R04   SKC7GAS009
0191722907531432010021820477+32826-116970FM-15+0118KSEE V0209999V003152200059N0402345N5+02307+00607999999ADDGA1025+060965999GD11991+0609659GF102991999999999999999999MA1101325099915REMMET07202/18/10 12:47:02 METAR KSEE 182047Z VRB06KT 25SM FEW200 23/06 A2992 RMKEQDR01    237TMP046R02    067DPT046
0229722907531432010022000507+32826-116970FM-15+0118KSEE V0202305N00515013725MN0402345N5+01407+00807999999ADDGA1045+007625999GA2075+013725999GD12991+0076259GD23991+0137259GF107991999999999999999999MA1101255099845REMMET07902/19/10 16:50:02 METAR KSEE 200050Z 23010KT 25SM SCT025 BKN045 14/08 A2990 RMKEQDR01    147TMP046R02    087DPT046
0267722907531432010022001477+32826-116970FM-15+0118KSEE V0202305N00365015245MN0241405N5+01307+00807999999ADDGA1025+007625999GA2045+012195999GA3085+015245999GD11991+0076259GD22991+0121959GD34991+0152459GF108991999999999999999999MA1101325099915REMMET08602/19/10 17:47:01 METAR KSEE 200147Z 23007KT 15SM FEW025 SCT040 OVC050 13/08 A2992 RMKEQDR01    137TMP046R02    087DPT046
0266722907531432010022019477+32826-116970FM-15+0118KSEE V0202205N00515010675MN0144845N5+01607+01107999999ADDGA1045+006105999GA2045+008845999GA3075+010675999GD12991+0061059GD22991+0088459GD33991+0106759GF107991999999999999999999MA1101255099845REMMET08502/20/10 11:47:01 METAR KSEE 201947Z 22010KT 9SM SCT020 SCT029 BKN035 16/11 A2990 RMKEQDR01    167TMP046R02    117DPT046
0191722907531432010022023477+32826-116970FM-15+0118KSEE V0202705N00515013725MN0321875N5+01607+00807999999ADDGA1075+013725999GD13991+0137259GF107991999999999999999999MA1101255099845REMMET07202/20/10 15:47:02 METAR KSEE 202347Z 27010KT 20SM BKN045 16/08 A2990 RMKEQDR01    167TMP046R02    087DPT046
0190722907531432010022102477+32826-116970FM-15+0118KSEE V0209999C00005012195MN0144845N5+01207+00907999999ADDGA1075+012195999GD13991+0121959GF107991999999999999999999MA1101425100015REMMET07102/20/10 18:47:02 METAR KSEE 210247Z 00000KT 9SM BKN040 12/09 A2995 RMKEQDR01    127TMP046R02    097DPT046
0228722907531432010022103487+32826-116970FM-15+0118KSEE V0209999C00005013115MN0112655N5+01207+00907999999ADDGA1045+009755999GA2075+013115999GD12991+0097559GD23991+0131159GF107991999999999999999999MA1101495100085REMMET07802/20/10 19:48:01 METAR KSEE 210348Z 00000KT 7SM SCT032 BKN043 12/09 A2997 RMKEQDR01    127TMP046R02    097DPT046
0229722907531432010022117477+32826-116970FM-15+0118KSEE V0202605N00515007625MN0160935N5+01407+00907999999ADDGA1045+006405999GA2075+007625999GD12991+0064059GD23991+0076259GF107991999999999999999999MA1101795100385REMMET07902/21/10 09:47:02 METAR KSEE 211747Z 26010KT 10SM SCT021 BKN025 14/09 A3006 RMKEQDR01    147TMP046R02    097DPT046
0229722907531432010022120477+32826-116970FM-15+0118KSEE V0202605N00575012195MN0193125N5+01607+00907999999ADDGA1045+008535999GA2075+012195999GD12991+0085359GD23991+0121959GF107991999999999999999999MA1101735100315REMMET07902/21/10 12:47:01 METAR KSEE 212047Z 26011KT 12SM SCT028 BKN040 16/09 A3004 RMKEQDR01    167TMP046R02    097DPT046
0267722907531432010022122477+32826-116970FM-15+0118KSEE V0202505N00365009145MN0241405N5+01407+01107999999ADDGA1025+002445999GA2075+009145999GA3085+018295999GD11991+0024459GD23991+0091459GD34991+0182959GF108991999999999999999999MA1101735100315REMMET08602/21/10 14:47:02 METAR KSEE 212247Z 25007KT 15SM FEW008 BKN030 OVC060 14/11 A3004 RMKEQDR01    147TMP046R02    117DPT046
0267722907531432010022123477+32826-116970FM-15+0118KSEE V0202505N00515012195MN0193125N5+01507+00907999999ADDGA1025+003055999GA2075+012195999GA3075+018295999GD11991+0030559GD23991+0121959GD33991+0182959GF107991999999999999999999MA1101735100315REMMET08602/21/10 15:47:02 METAR KSEE 212347Z 25010KT 12SM FEW010 BKN040 BKN060 15/09 A3004 RMKEQDR01    157TMP046R02    097DPT046
0267722907531432010022201477+32826-116970FM-15+0118KSEE V0202605N00515008535MN0160935N5+01307+00907999999ADDGA1025+007015999GA2075+008535999GA3075+012805999GD11991+0070159GD23991+0085359GD33991+0128059GF107991999999999999999999MA1101735100315REMMET08602/21/10 17:47:02 METAR KSEE 220147Z 26010KT 10SM FEW023 BKN028 BKN042 13/09 A3004 RMKEQDR01    137TMP046R02    097DPT046
0190722907531432010022202477+32826-116970FM-15+0118KSEE V0209999C00005030485MN0112655N5+01307+00907999999ADDGA1085+030485999GD14991+0304859GF108991999999999999999999MA1101735100315REMMET07102/21/10 18:47:02 METAR KSEE 220247Z 00000KT 7SM OVC100 13/09 A3004 RMKEQDR01    137TMP046R02    097DPT046
0266722907531432010022214477+32826-116970FM-15+0118KSEE V0202505N00365012805MN0112655N5+01107+00807999999ADDGA1025+006105999GA2045+008235999GA3085+012805999GD11991+0061059GD22991+0082359GD34991+0128059GF108991999999999999999999MA1101735100315REMMET08502/22/10 06:47:02 METAR KSEE 221447Z 25007KT 7SM FEW020 SCT027 OVC042 11/08 A3004 RMKEQDR01    117TMP046R02    087DPT046
0278722907531432010022216477+32826-116970FM-15+0118KSEE V0202905N00515009455MN0160935N5+01307+00807999999ADDGA1045+007325999GA2075+009455999GA3085+015245999GD12991+0073259GD23991+0094559GD34991+0152459GF108991999999999999999999MA1101835100415OC100725REMMET08902/22/10 08:47:02 METAR KSEE 221647Z 29010G14KT 10SM SCT024 BKN031 OVC050 13/08 A3007 RMKEQDR01    137TMP046R02    087DPT046
0278722907531432010022217477+32826-116970FM-15+0118KSEE V0202905N00515015245MN0193125N5+01407+00807999999ADDGA1025+007015999GA2045+011585999GA3085+015245999GD11991+0070159GD22991+0115859GD34991+0152459GF108991999999999999999999MA1101865100455OC100725REMMET08902/22/10 09:47:02 METAR KSEE 221747Z 29010G14KT 12SM FEW023 SCT038 OVC050 14/08 A3008 RMKEQDR01    147TMP046R02    087DPT046
0243722907531432010022218477+32826-116970FM-15+0118KSEE V0202705N00625024385MN0193125N5+01507+00807999999ADDGA1045+018295999GA2085+024385999GD12991+0182959GD24991+0243859GF108991999999999999999999MA1101865100455REMMET09302/22/10 10:47:02 METAR KSEE 221847Z 27012KT 12SM SCT060 OVC080 15/08 A3008 RMK RAB1755BR1810EQDR01    157TMP046R02    087DPT046
0232722907531432010022219557+32826-116970FM-15+0118KSEE V0202905N00515009455MN0193125N5+01605+00805999999ADDGA1025+007925999GA2075+009455999GA3075+011895999GD11991+0079259GD23991+0094559GD33991+0118959GF107991999999999999999999MA1101795100385REMMET08602/22/10 11:55:02 METAR KSEE 221955Z 29010KT 12SM FEW026 BKN031 BKN039 16/08 A3006 RMK
0238722907531432010022220477+32826-116970FM-15+0118KSEE V0202805N00465012505MN0193125N5+01507+00907999999ADDGA1045+009145999GA2075+012505999GD12991+0091459GD23991+0125059GF107991999999999999999999MA1101765100355REMMET08802/22/10 12:47:01 METAR KSEE 222047Z 28009KT 12SM SCT030 BKN041 15/09 A3005 RMK RAB10E19EQDR01    157TMP046R02    097DPT046
0229722907531432010022222477+32826-116970FM-15+0118KSEE V0202905N00415015245MN0241405N5+01707+00707999999ADDGA1025+010065999GA2075+015245999GD11991+0100659GD23991+0152459GF107991999999999999999999MA1101665100255REMMET07902/22/10 14:47:02 METAR KSEE 222247Z 29008KT 15SM FEW033 BKN050 17/07 A3002 RMKEQDR01    177TMP046R02    077DPT046
0191722907531432010022301477+32826-116970FM-15+0118KSEE V0209999V003152200059N0193125N5+01307+00807999999ADDGA1025+009145999GD11991+0091459GF102991999999999999999999MA1101795100385REMMET07202/22/10 17:47:01 METAR KSEE 230147Z VRB06KT 12SM FEW030 13/08 A3006 RMKEQDR01    137TMP046R02    087DPT046
0221722907531432010022314477+32826-116970FM-15+0118KSEE V0202705N002652200079N0402345N5+00207+00007999999ADDGF100991999999999999999999MA1102345100915REMMET06902/23/10 06:47:02 METAR KSEE 231447Z 27005KT 25SM SKC 02/00 A3022 RMKEQDQ01    099SCCGD1P01    003SCCGA1R01   SKC7SKY009R02    027TMP046R03    007DPT046R04   SKC7GAS009
0191722907531432010022315477+32826-116970FM-15+0118KSEE V0209999C000052200059N0402345N5+00407+00107999999ADDGA1025+060965999GD11991+0609659GF102991999999999999999999MA1102405100985REMMET07202/23/10 07:47:02 METAR KSEE 231547Z 00000KT 25SM FEW200 04/01 A3024 RMKEQDR01    047TMP046R02    017DPT046
0191722907531432010022316517+32826-116970FM-15+0118KSEE V0209999C000052200059N0402345N5+00907+00007999999ADDGA1025+060965999GD11991+0609659GF102991999999999999999999MA1102375100955REMMET07202/23/10 08:51:02 METAR KSEE 231651Z 00000KT 25SM FEW200 09/00 A3023 RMKEQDR01    097TMP046R02    007DPT046
0192722907531432010022317477+32826-116970FM-15+0118KSEE V0209999C000052200059N0402345N5+01307-00207999999ADDGA1045+076205999GD12991+0762059GF104991999999999999999999MA1102445101025REMMET07302/23/10 09:47:02 METAR KSEE 231747Z 00000KT 25SM SCT250 13/M02 A3025 RMKEQDR01    137TMP046R02   M027DPT046
0192722907531432010022322477+32826-116970FM-15+0118KSEE V0202705N00515076205MN0402345N5+01807-00107999999ADDGA1075+076205999GD13991+0762059GF107991999999999999999999MA1102245100815REMMET07302/23/10 14:47:01 METAR KSEE 232247Z 27010KT 25SM BKN250 18/M01 A3019 RMKEQDR01    187TMP046R02   M017DPT046
0191722907531432010022323477+32826-116970FM-15+0118KSEE V0202705N00515076205MN0402345N5+01707+00007999999ADDGA1075+076205999GD13991+0762059GF107991999999999999999999MA1102245100815REMMET07202/23/10 15:47:02 METAR KSEE 232347Z 27010KT 25SM BKN250 17/00 A3019 RMKEQDR01    177TMP046R02    007DPT046
0190722907531432010022401477+32826-116970FM-15+0118KSEE V0203005N00315060965MN0112655N5+01407+00107999999ADDGA1075+060965999GD13991+0609659GF107991999999999999999999MA1102375100955REMMET07102/23/10 17:47:02 METAR KSEE 240147Z 30006KT 7SM BKN200 14/01 A3023 RMKEQDR01    147TMP046R02    017DPT046
0191722907531432010022414477+32826-116970FM-15+0118KSEE V0209999C000052200059N0321875N5+00307+00207999999ADDGA1045+060965999GD12991+0609659GF104991999999999999999999MA1102345100915REMMET07202/24/10 06:47:02 METAR KSEE 241447Z 00000KT 20SM SCT200 03/02 A3022 RMKEQDR01    037TMP046R02    027DPT046
0191722907531432010022415477+32826-116970FM-15+0118KSEE V0209999C000052200059N0321875N5+00607+00307999999ADDGA1045+060965999GD12991+0609659GF104991999999999999999999MA1102405100985REMMET07202/24/10 07:47:02 METAR KSEE 241547Z 00000KT 20SM SCT200 06/03 A3024 RMKEQDR01    067TMP046R02    037DPT046
0191722907531432010022416557+32826-116970FM-15+0118KSEE V0203005N002652200059N0402345N5+01107+00307999999ADDGA1045+060965999GD12991+0609659GF104991999999999999999999MA1102445101025REMMET07202/24/10 08:55:02 METAR KSEE 241655Z 30005KT 25SM SCT200 11/03 A3025 RMKEQDR01    117TMP046R02    037DPT046
0191722907531432010022417507+32826-116970FM-15+0118KSEE V0209999C000052200059N0402345N5+01507+00207999999ADDGA1025+060965999GD11991+0609659GF102991999999999999999999MA1102375100955REMMET07202/24/10 09:50:02 METAR KSEE 241750Z 00000KT 25SM FEW200 15/02 A3023 RMKEQDR01    157TMP046R02    027DPT046
0191722907531432010022418477+32826-116970FM-15+0118KSEE V0202805N003152200059N0402345N5+01807+00107999999ADDGA1025+060965999GD11991+0609659GF102991999999999999999999MA1102375100955REMMET07202/24/10 10:47:02 METAR KSEE 241847Z 28006KT 25SM FEW200 18/01 A3023 RMKEQDR01    187TMP046R02    017DPT046
0191722907531432010022420477+32826-116970FM-15+0118KSEE V0209999V003152200059N0402345N5+02007+00107999999ADDGA1025+060965999GD11991+0609659GF102991999999999999999999MA1102135100715REMMET07202/24/10 12:47:02 METAR KSEE 242047Z VRB06KT 25SM FEW200 20/01 A3016 RMKEQDR01    207TMP046R02    017DPT046
0191722907531432010022515507+32826-116970FM-15+0118KSEE V0209999C000052200059N0160935N5+01207+01207999999ADDGA1025+003055999GD11991+0030559GF102991999999999999999999MA1102135100715REMMET07202/25/10 07:50:02 METAR KSEE 251550Z 00000KT 10SM FEW010 12/12 A3016 RMKEQDR01    127TMP046R02    127DPT046
0193722907531432010022516107+32826-116970FM-15+0118KSEE V0209999C00005007625MN0112655N5+01205+01205999999ADDGA1045+002445999GA2075+007625999GD12991+0024459GD23991+0076259GF107991999999999999999999MA1102135100715REMMET07802/25/10 08:10:02 METAR KSEE 251610Z 00000KT 7SM SCT008 BKN025 12/12 A3016 RMK
0194722907531432010022516307+32826-116970FM-15+0118KSEE V0209999C000052200059N0160935N5+01405+01205999999ADDGA1025+002445999GA2045+007625999GD11991+0024459GD22991+0076259GF104991999999999999999999MA1102135100715REMMET07902/25/10 08:30:02 METAR KSEE 251630Z 00000KT 10SM FEW008 SCT025 14/12 A3016 RMK
0229722907531432010022516507+32826-116970FM-15+0118KSEE V0209999C000052200059N0160935N5+01407+01207999999ADDGA1025+002445999GA2045+007625999GD11991+0024459GD22991+0076259GF104991999999999999999999MA1102105100685REMMET07902/25/10 08:50:02 METAR KSEE 251650Z 00000KT 10SM FEW008 SCT025 14/12 A3015 RMKEQDR01    147TMP046R02    127DPT046
0220722907531432010022602507+32826-116970FM-15+0118KSEE V0209999C000052200079N0144845N5+01307+01107999999ADDGF100991999999999999999999MA1101965100555REMMET06802/25/10 18:50:02 METAR KSEE 260250Z 00000KT 9SM SKC 13/11 A3011 RMKEQDQ01    099SCCGD1P01    003SCCGA1R01   SKC7SKY009R02    137TMP046R03    117DPT046R04   SKC7GAS009
0191722907531432010022618477+32826-116970FM-15+0118KSEE V0209999C00005045725MN0321875N5+02407+00307999999ADDGA1075+045725999GD13991+0457259GF107991999999999999999999MA1101935100515REMMET07202/26/10 10:47:02 METAR KSEE 261847Z 00000KT 20SM BKN150 24/03 A3010 RMKEQDR01    247TMP046R02    037DPT046
0191722907531432010022619477+32826-116970FM-15+0118KSEE V0209999V00265045725MN0321875N5+02407+00207999999ADDGA1075+045725999GD13991+0457259GF107991999999999999999999MA1101865100455REMMET07202/26/10 11:47:02 METAR KSEE 261947Z VRB05KT 20SM BKN150 24/02 A3008 RMKEQDR01    247TMP046R02    027DPT046
0191722907531432010022623477+32826-116970FM-15+0118KSEE V0209999V00315045725MN0402345N5+01907+00907999999ADDGA1085+045725999GD14991+0457259GF108991999999999999999999MA1101795100385REMMET07202/26/10 15:47:02 METAR KSEE 262347Z VRB06KT 25SM OVC150 19/09 A3006 RMKEQDR01    197TMP046R02    097DPT046
0259722907531432010022704477+32826-116970FM-15+0118KSEE V0209999C00005045725MN0048285N5+01407+01207999999ADDAU100001015AW1105GA1025+001525999GA2085+045725999GD11991+0015259GD24991+0457259GF108991999999999999999999MA1101565100145MW1101REMMET08602/26/10 20:47:02 METAR KSEE 270447Z 00000KT 3SM BR FEW005 OVC150 14/12 A2999 RMK LASTEQDR01    147TMP046R02    127DPT046
0266722907531432010022714477+32826-116970FM-15+0118KSEE V0209999C00005018295MN0144845N5+01307+01007999999ADDGA1045+006105999GA2075+018295999GA3085+025915999GD12991+0061059GD23991+0182959GD34991+0259159GF108991999999999999999999MA1101085099685REMMET08502/27/10 06:47:01 METAR KSEE 271447Z 00000KT 9SM SCT020 BKN060 OVC085 13/10 A2985 RMKEQDR01    137TMP046R02    107DPT046
0304722907531432010022715477+32826-116970FM-15+0118KSEE V0201105N00625007625MN0064375N5+01207+01107999999ADDAU110020015AW1615GA1045+000615999GA2075+007625999GA3085+010675999GD12991+0006159GD23991+0076259GD34991+0106759GF108991999999999999999999MA1100985099585MW1611OC101035REMMET09202/27/10 07:47:02 METAR KSEE 271547Z 11012G20KT 4SM -RA SCT002 BKN025 OVC035 12/11 A2982 RMKEQDR01    127TMP046R02    117DPT046
0258722907531432010022718567+32826-116970FM-15+0118KSEE V0201905N00315002445MN0024145N5+01207+01207999999ADDAU120020015AW1625GA1075+002445999GA2085+003965999GD13991+0024459GD24991+0039659GF108991999999999999999999MA1100985099585MW1631REMMET08502/27/10 10:56:02 METAR KSEE 271856Z 19006KT 1 1/2SM RA BKN008 OVC013 12/12 A2982 RMKEQDR01    127TMP046R02    127DPT046
0319722907531432010022800477+32826-116970FM-15+0118KSEE V0209999V00315010975MN0080475N5+01207+00907999999ADDAU110020015AU200001015AW1105AW2615GA1025+004575999GA2075+010975999GA3085+014635999GD11991+0045759GD23991+0109759GD34991+0146359GF108991999999999999999999MA1100615099215MW1101MW2611REMMET09202/27/10 16:47:02 METAR KSEE 280047Z VRB06KT 5SM -RA BR FEW015 BKN036 OVC048 12/09 A2971 RMKEQDR01    127TMP046R02    097DPT046
0259722907531432010022802477+32826-116970FM-15+0118KSEE V0209999V00315004275MN0080475N5+00907+00907999999ADDAU110020015AU200001015AW1105AW2615GA1085+004275999GD14991+0042759GF108991999999999999999999MA1100685099275MW1101MW2611REMMET09402/27/10 18:47:01 METAR KSEE 280247Z VRB06KT 5SM -RA BR OVC014 09/09 A2973 RMK OCNL LTGIC NE-EEQDR01    097TMP046R02    097DPT046
0281722907531432010022803477+32826-116970FM-15+0118KSEE V0209999V00315004885MN0080475N5+00907+00907999999ADDAU110020015AU200001015AW1105AW2615GA1075+004885999GA2085+006715999GD13991+0048859GD24991+0067159GF108991999999999999999999MA1100755099345MW1101MW2611REMMET08502/27/10 19:47:02 METAR KSEE 280347Z VRB06KT 5SM -RA BR BKN016 OVC022 09/09 A2975 RMKEQDR01    097TMP046R02    097DPT046
0281722907531432010022804477+32826-116970FM-15+0118KSEE V0209999V00315005495MN0080475N5+01007+00907999999ADDAU110020015AU200001015AW1105AW2615GA1075+005495999GA2085+007325999GD13991+0054959GD24991+0073259GF108991999999999999999999MA1100755099345MW1101MW2611REMMET08502/27/10 20:47:02 METAR KSEE 280447Z VRB06KT 5SM -RA BR BKN018 OVC024 10/09 A2975 RMKEQDR01    107TMP046R02    097DPT046
0191722907531432010022819477+32826-116970FM-15+0118KSEE V0209999C00005010065MN0321875N5+01107+00707999999ADDGA1075+010065999GD13991+0100659GF107991999999999999999999MA1101465100045REMMET07202/28/10 11:47:02 METAR KSEE 281947Z 00000KT 20SM BKN033 11/07 A2996 RMKEQDR01    117TMP046R02    077DPT046
0229722907531432010022823477+32826-116970FM-15+0118KSEE V0202705N00415012195MN0402345N5+01707+00907999999ADDGA1075+012195999GA2075+076205999GD13991+0121959GD23991+0762059GF107991999999999999999999MA1101465100045REMMET07902/28/10 15:47:01 METAR KSEE 282347Z 27008KT 25SM BKN040 BKN250 17/09 A2996 RMKEQDR01    177TMP046R02    097DPT046
0229722907531432010030102477+32826-116970FM-15+0118KSEE V0209999V00315076205MN0193125N5+01307+00707999999ADDGA1025+014635999GA2075+076205999GD11991+0146359GD23991+0762059GF107991999999999999999999MA1101695100285REMMET07902/28/10 18:47:02 METAR KSEE 010247Z VRB06KT 12SM FEW048 BKN250 13/07 A3003 RMKEQDR01    137TMP046R02    077DPT046
