0230723805231792010010100004+34767-114617FM-15+0302KEED V0200501N005112200019N0160931N1+01401-00701102731ADDGF100991999999999999999999KA1999M+01561KA2999N+01111MA1102811999999MD1610011+9999REMMET102METAR KEED 312356Z AUTO 05010KT 10SM CLR 14/M07 A3036 RMK AO2 SLP273 T01441067 10156 20111 56001 TSNO;EQDQ01    993SCCGA1Q02    099SCCGD1
0195723805231792010010100567+34766-114620FM-15+0279KEED V0303605N004152200059N0160935N5+01285-00785102755ADDAA101000095GF100991999999999999999999MA1102845099505REMMET09612/31/09 16:56:01 METAR KEED 010056Z 36008KT 10SM CLR 13/M08 A3037 RMK AO2 SLP275 T01281078 TSNOEQDQ01    099SCCGD1P01    003SCCGA1
0195723805231792010010101567+34766-114620FM-15+0279KEED V0303205N002652200059N0160935N5+01115-00565102835ADDAA101000095GF100991999999999999999999MA1102885099535REMMET09612/31/09 17:56:01 METAR KEED 010156Z 32005KT 10SM CLR 11/M06 A3038 RMK AO2 SLP283 T01111056 TSNOEQDQ01    099SCCGD1P01    003SCCGA1
0215723805231792010010102567+34766-114620FM-15+0279KEED V0303405N004652200059N0160935N5+01115-00565102855ADDAA101000095GF100991999999999999999999MA1102915099565MD1390099+9999REMMET10212/31/09 18:56:02 METAR KEED 010256Z 34009KT 10SM CLR 11/M06 A3039 RMK AO2 SLP285 T01111056 53009 TSNOEQDQ01    099SCCGD1P01    003SCCGA1
0195723805231792010010103567+34766-114620FM-15+0279KEED V0303505N004152200059N0160935N5+01065-00565102855ADDAA101000095GF100991999999999999999999MA1102915099565REMMET09612/31/09 19:56:02 METAR KEED 010356Z 35008KT 10SM CLR 11/M06 A3039 RMK AO2 SLP285 T01061056 TSNOEQDQ01    099SCCGD1P01    003SCCGA1
0195723805231792010010104567+34766-114620FM-15+0279KEED V0303405N004152200059N0160935N5+01005-00565102875ADDAA101000095GF100991999999999999999999MA1102955099595REMMET09612/31/09 20:56:02 METAR KEED 010456Z 34008KT 10SM CLR 10/M06 A3040 RMK AO2 SLP287 T01001056 TSNOEQDQ01    099SCCGD1P01    003SCCGA1
0253723805231792010010105567+34766-114620FM-15+0279KEED V0303305N003152200059N0160935N5+00945-00565102845ADDAA101000095GF100991999999999999999999KA1999M+01441KA2999N+00891MA1102915099565MD1090029+9999REMMET11412/31/09 21:56:02 METAR KEED 010556Z 33006KT 10SM CLR 09/M06 A3039 RMK AO2 SLP284 T00941056 10144 20089 50002 TSNOEQDQ01    099SCCGD1P01    003SCCGA1
0195723805231792010010106567+34766-114620FM-15+0279KEED V0303505N002152200059N0160935N5+00945-00615102845ADDAA101000095GF100991999999999999999999MA1102955099595REMMET09612/31/09 22:56:02 METAR KEED 010656Z 35004KT 10SM CLR 09/M06 A3040 RMK AO2 SLP284 T00941061 TSNOEQDQ01    099SCCGD1P01    003SCCGA1
0205723805231792010010107567+34766-114620FM-15+0279KEED V0303505N003152200059N0160935N5+00895-00615102855ADDAA101000095GF100991999999999999999999MA1102955099595REMMET10612/31/09 23:56:02 METAR KEED 010756Z 35006KT 10SM CLR 09/M06 A3040 RMK AO2 SLP285 T00891061 401560056 TSNOEQDQ01    099SCCGD1P01    003SCCGA1
0989723805231792010010107596+34766-114620SOD  +0279KEED V030999999999999999999999999999+99999+99999999999ADDAA124000095KA1240M+01565KA2240N+00565KG1024W+0044D4KG2024D-0039D4MF1099534102784MG1099514102374OE11240107302010075OE22240093901009585OE33240043499999995RH1024X060D4RH2024N021D4RH3024M037D4REMSOD75424 HR PRECIPITATION (IN):0.00  24 HR MAX TEMP (F):60 24 HR MAX TEMP TIME (LST):1528 24 HR MIN TEMP (F):42 24 HR MIN TEMP TIME (LST):0701 AVERAGE STATION PRESSURE:29.385 MINIMUM SEA LEVEL PRESSURE:30.23 TIME OF OCCURRENCE:0015 PEAK WIND SPEED (MPH):24  PEAK WIND DIR (DEG):20  PEAK WIND TIME (LST):1007  FASTEST 2MIN SPEED (MPH):21 FASTEST 2MIN DIR (DEG):10  FASTEST 2MIN TIME (LST):0958 AVERAGE WIND SPEED (MPH):9.7  24 HR AVG TEMP (F):51 DEPART FROM NORMAL: -2  HEATING DEGREE DAYS:14  COOLING DEGREE DAYS:0   LATEST DAY MAX TEMP (0700-1900 LST):60  LATEST NIGHT MIN TEMP(1900-0800 LST):42 HOURLY INCREMENTAL PRECIPITATION VALUES (IN):.00 0.00 0.00 0.00 0.00 0.00 0.00 0.00 0.00 0.00 0.00 0.00 0.00 0.00 0.00 0.00 0.00 0.00 0.00 0.00 0.00 0.00 0.00 0.00EQDR01     N7GJS072R02     N7GKS075
1257723805231792010010107596+34766-114620SOM  +0279KEED V030999999999999999999999999999+99999+99999999999ADDAB1001939AAD10017890707999999995AE1025015015005AH1005001890720065AH2010002390720095AH3015002390720095AH4020002890718375AH5030004190718395AH6045005390718435AI1060006190718585AI2080006390719095AI3100007490719335AI4120008990720075AI5150010290720095AI6180010990720095KB1744N+0528UKB2744M+15785KB3744A+10565KC1N9+00050605995KC2M9+02161899995KD1744H04265KD2744C00005KE1005005005005MH109844U10169UMK110298310956U09925072056UREMSOM809PCP MTOT:0.76 DEPNRM:+0.4 PCP GT 24HRS:0.70 DATE(S):7 DAYS W/PCP >=.01:2  DAYS W/PCP >=.10:1  DAYS W/ PCP >=.50:1 DAYS W/PCP >=1.00:0 MSDP AMTS W/DATE-TIME TAGS:MIN:5 0.07  07/2006 MIN:10 0.09  07/2009 MIN:15 0.09  07/2009 MIN:20 0.11  07/1837 MIN:30 0.16  07/1839 MIN:45 0.21  07/1843 MIN:60 0.24  07/1858 MIN:80 0.25  07/1909 MIN:100 0.29  07/1933 MIN:120 0.35  07/2007 MIN:150 0.40  07/2009 MIN:180 0.43  07/2009 AVG DLY MIN:41.6  AVG DLY MAX:60.4  AVG MLY TMP:51.0  DEP NORM:-3.0  MIN TMP:33 DATE(S):06 05 MAX TMP:71  DATE(S):18 DAYS MAX <=32:0 DAYS MAX >=90:0  DAYS MIN <=32:0  DAYS MIN  <=0:0  AVG STP:29.075 LWST SLP:29.29 DATE/TIME:072035 HGST SLP:30.42 DATE/TIME:310952 HDD MTH TOT:426 DEP NORM:+81 SEASON(JUL 1-JUN 30):426 DEP NORM:-79 CDD MTH TOT:0 DEP NORM:-5 SEASON(JAN 1-DEC 31):0 DEP NORM:-4545EQDR01  0.767ABP070
0247723805231792010010108567+34766-114620FM-15+0279KEED V0303205N002652200059N0160935N5+00785-00565102835ADDAA101000095GF100991999999999999999999MA1102915099565MD1890009+9999REMMET10201/01/10 00:56:02 METAR KEED 010856Z 32005KT 10SM CLR 08/M06 A3039 RMK AO2 SLP283 T00781056 58000 TSNOEQDQ01+000082APCTENQ02+000002APC3  Q03    099SCCGD1P01    003SCCGA1
0195723805231792010010109567+34766-114620FM-15+0279KEED V0303205N003652200059N0160935N5+00835-00615102805ADDAA101000095GF100991999999999999999999MA1102915099565REMMET09601/01/10 01:56:02 METAR KEED 010956Z 32007KT 10SM CLR 08/M06 A3039 RMK AO2 SLP280 T00831061 TSNOEQDQ01    099SCCGD1P01    003SCCGA1
0195723805231792010010110567+34766-114620FM-15+0279KEED V0302805N003152200059N0160935N5+00725-00615102775ADDAA101000095GF100991999999999999999999MA1102845099505REMMET09601/01/10 02:56:02 METAR KEED 011056Z 28006KT 10SM CLR 07/M06 A3037 RMK AO2 SLP277 T00721061 TSNOEQDQ01    099SCCGD1P01    003SCCGA1
0253723805231792010010111567+34766-114620FM-15+0279KEED V0303205N003152200059N0160935N5+00785-00615102745ADDAA101000095GF100991999999999999999999KA1999M+01001KA2999N+00561MA1102815099465MD1890099+9999REMMET11401/01/10 03:56:02 METAR KEED 011156Z 32006KT 10SM CLR 08/M06 A3036 RMK AO2 SLP274 T00781061 10100 20056 58009 TSNOEQDQ01    099SCCGD1P01    003SCCGA1
0195723805231792010010112567+34766-114620FM-15+0279KEED V0303005N002152200059N0160935N5+00615-00565102755ADDAA101000095GF100991999999999999999999MA1102815099465REMMET09601/01/10 04:56:02 METAR KEED 011256Z 30004KT 10SM CLR 06/M06 A3036 RMK AO2 SLP275 T00611056 TSNOEQDQ01    099SCCGD1P01    003SCCGA1
0195723805231792010010113567+34766-114620FM-15+0279KEED V0303405N001552200059N0160935N5+00725-00565102715ADDAA101000095GF100991999999999999999999MA1102785099435REMMET09601/01/10 05:56:02 METAR KEED 011356Z 34003KT 10SM CLR 07/M06 A3035 RMK AO2 SLP271 T00721056 TSNOEQDQ01    099SCCGD1P01    003SCCGA1
0215723805231792010010114567+34766-114620FM-15+0279KEED V0303405N003652200059N0160935N5+00675-00565102735ADDAA101000095GF100991999999999999999999MA1102785099435MD1590049+9999REMMET10201/01/10 06:56:02 METAR KEED 011456Z 34007KT 10SM CLR 07/M06 A3035 RMK AO2 SLP273 T00671056 55004 TSNOEQDQ01    099SCCGD1P01    003SCCGA1
0195723805231792010010115567+34766-114620FM-15+0279KEED V0309999C000052200059N0160935N5+00835-00505102745ADDAA101000095GF100991999999999999999999MA1102815099465REMMET09601/01/10 07:56:02 METAR KEED 011556Z 00000KT 10SM CLR 08/M05 A3036 RMK AO2 SLP274 T00831050 TSNOEQDQ01    099SCCGD1P01    003SCCGA1
0195723805231792010010116567+34766-114620FM-15+0279KEED V0300205N005752200059N0160935N5+01005-00505102725ADDAA101000095GF100991999999999999999999MA1102785099435REMMET09601/01/10 08:56:02 METAR KEED 011656Z 02011KT 10SM CLR 10/M05 A3035 RMK AO2 SLP272 T01001050 TSNOEQDQ01    099SCCGD1P01    003SCCGA1
0285723805231792010010117567+34766-114620FM-15+0279KEED V0300105N004652200059N0160935N5+01115-00505102705ADDAA101000095GF100991999999999999999999KA1999M+01111KA2999N+00501MA1102785099435MD1890009+9999REMMET11401/01/10 09:56:02 METAR KEED 011756Z 01009KT 10SM CLR 11/M05 A3035 RMK AO2 SLP270 T01111050 10111 20050 58000 TSNOEQDQ01+000082APCTENQ02+000002APC3  Q03    099SCCGD1P01    003SCCGA1
0195723805231792010010118567+34766-114620FM-15+0279KEED V0303605N003152200059N0160935N5+01225-00565102605ADDAA101000095GF100991999999999999999999MA1102685099335REMMET09601/01/10 10:56:02 METAR KEED 011856Z 36006KT 10SM CLR 12/M06 A3032 RMK AO2 SLP260 T01221056 TSNOEQDQ01    099SCCGD1P01    003SCCGA1
0195723805231792010010119567+34766-114620FM-15+0279KEED V0300205N003652200059N0160935N5+01445-00565102445ADDAA101000095GF100991999999999999999999MA1102545099205REMMET09601/01/10 11:56:02 METAR KEED 011956Z 02007KT 10SM CLR 14/M06 A3028 RMK AO2 SLP244 T01441056 TSNOEQDQ01    099SCCGD1P01    003SCCGA1
0215723805231792010010120567+34766-114620FM-15+0279KEED V0300405N004652200059N0160935N5+01565-00675102305ADDAA101000095GF100991999999999999999999MA1102405099075MD1890389+9999REMMET10201/01/10 12:56:02 METAR KEED 012056Z 04009KT 10SM CLR 16/M07 A3024 RMK AO2 SLP230 T01561067 58038 TSNOEQDQ01    099SCCGD1P01    003SCCGA1
0195723805231792010010121567+34766-114620FM-15+0279KEED V0300205N005752200059N0160935N5+01615-00785102195ADDAA101000095GF100991999999999999999999MA1102305098975REMMET09601/01/10 13:56:02 METAR KEED 012156Z 02011KT 10SM CLR 16/M08 A3021 RMK AO2 SLP219 T01611078 TSNOEQDQ01    099SCCGD1P01    003SCCGA1
0195723805231792010010122567+34766-114620FM-15+0279KEED V0300205N007252200059N0160935N5+01675-00835102135ADDAA101000095GF100991999999999999999999MA1102245098905REMMET09601/01/10 14:56:02 METAR KEED 012256Z 02014KT 10SM CLR 17/M08 A3019 RMK AO2 SLP213 T01671083 TSNOEQDQ01    099SCCGD1P01    003SCCGA1
0253723805231792010010123567+34766-114620FM-15+0279KEED V0303605N005152200059N0160935N5+01615-00835102095ADDAA101000095GF100991999999999999999999KA1999M+01671KA2999N+01111MA1102205098875MD1690199+9999REMMET11401/01/10 15:56:02 METAR KEED 012356Z 36010KT 10SM CLR 16/M08 A3018 RMK AO2 SLP209 T01611083 10167 20111 56019 TSNOEQDQ01    099SCCGD1P01    003SCCGA1
0195723805231792010010200567+34766-114620FM-15+0279KEED V0303605N005152200059N0160935N5+01445-00945102135ADDAA101000095GF100991999999999999999999MA1102205098875REMMET09601/01/10 16:56:02 METAR KEED 020056Z 36010KT 10SM CLR 14/M09 A3018 RMK AO2 SLP213 T01441094 TSNOEQDQ01    099SCCGD1P01    003SCCGA1
0195723805231792010010201567+34766-114620FM-15+0279KEED V0300105N005752200059N0160935N5+01335-00835102175ADDAA101000095GF100991999999999999999999MA1102275098935REMMET09601/01/10 17:56:02 METAR KEED 020156Z 01011KT 10SM CLR 13/M08 A3020 RMK AO2 SLP217 T01331083 TSNOEQDQ01    099SCCGD1P01    003SCCGA1
0215723805231792010010202567+34766-114620FM-15+0279KEED V0303505N004652200059N0160935N5+01285-00725102215ADDAA101000095GF100991999999999999999999MA1102305098975MD1390089+9999REMMET10201/01/10 18:56:02 METAR KEED 020256Z 35009KT 10SM CLR 13/M07 A3021 RMK AO2 SLP221 T01281072 53008 TSNOEQDQ01    099SCCGD1P01    003SCCGA1
0195723805231792010010203567+34766-114620FM-15+0279KEED V0303505N004152200059N0160935N5+01285-00725102175ADDAA101000095GF100991999999999999999999MA1102275098935REMMET09601/01/10 19:56:01 METAR KEED 020356Z 35008KT 10SM CLR 13/M07 A3020 RMK AO2 SLP217 T01281072 TSNOEQDQ01    099SCCGD1P01    003SCCGA1
0195723805231792010010204567+34766-114620FM-15+0279KEED V0303505N004652200059N0160935N5+01225-00785102185ADDAA101000095GF100991999999999999999999MA1102275098935REMMET09601/01/10 20:56:01 METAR KEED 020456Z 35009KT 10SM CLR 12/M08 A3020 RMK AO2 SLP218 T01221078 TSNOEQDQ01    099SCCGD1P01    003SCCGA1
0253723805231792010010205567+34766-114620FM-15+0279KEED V0303405N003152200059N0160935N5+01175-00725102115ADDAA101000095GF100991999999999999999999KA1999M+01611KA2999N+01111MA1102205098875MD1890089+9999REMMET11401/01/10 21:56:02 METAR KEED 020556Z 34006KT 10SM CLR 12/M07 A3018 RMK AO2 SLP211 T01171072 10161 20111 58008 TSNOEQDQ01    099SCCGD1P01    003SCCGA1
0195723805231792010010206567+34766-114620FM-15+0279KEED V0303005N002152200059N0160935N5+01115-00725102075ADDAA101000095GF100991999999999999999999MA1102175098845REMMET09601/01/10 22:56:02 METAR KEED 020656Z 30004KT 10SM CLR 11/M07 A3017 RMK AO2 SLP207 T01111072 TSNOEQDQ01    099SCCGD1P01    003SCCGA1
0205723805231792010010207567+34766-114620FM-15+0279KEED V0302705N002152200059N0160935N5+01005-00675102065ADDAA101000095GF100991999999999999999999MA1102175098845REMMET10601/01/10 23:56:02 METAR KEED 020756Z 27004KT 10SM CLR 10/M07 A3017 RMK AO2 SLP206 T01001067 401670050 TSNOEQDQ01    099SCCGD1P01    003SCCGA1
0989723805231792010010207596+34766-114620SOD  +0279KEED V030999999999999999999999999999+99999+99999999999ADDAA124000095KA1240M+01675KA2240N+00505KG1024W+0044D4KG2024D-0067D4MF1099154102444MG1099154102034OE11240102836009085OE22240076002014555OE33240037699999995RH1024X043D4RH2024N017D4RH3024M029D4REMSOD75424 HR PRECIPITATION (IN):0.00  24 HR MAX TEMP (F):62 24 HR MAX TEMP TIME (LST):1506 24 HR MIN TEMP (F):41 24 HR MIN TEMP TIME (LST):0610 AVERAGE STATION PRESSURE:29.280 MINIMUM SEA LEVEL PRESSURE:30.13 TIME OF OCCURRENCE:2339 PEAK WIND SPEED (MPH):23  PEAK WIND DIR (DEG):360 PEAK WIND TIME (LST):0908  FASTEST 2MIN SPEED (MPH):17 FASTEST 2MIN DIR (DEG):20  FASTEST 2MIN TIME (LST):1455 AVERAGE WIND SPEED (MPH):8.4  24 HR AVG TEMP (F):52 DEPART FROM NORMAL: -1  HEATING DEGREE DAYS:13  COOLING DEGREE DAYS:0   LATEST DAY MAX TEMP (0700-1900 LST):62  LATEST NIGHT MIN TEMP(1900-0800 LST):41 HOURLY INCREMENTAL PRECIPITATION VALUES (IN):.00 0.00 0.00 0.00 0.00 0.00 0.00 0.00 0.00 0.00 0.00 0.00 0.00 0.00 0.00 0.00 0.00 0.00 0.00 0.00 0.00 0.00 0.00 0.00EQDR01     N7GJS072R02     N7GKS075
0215723805231792010010208567+34766-114620FM-15+0279KEED V0309999V001552200059N0160935N5+00835-00725102035ADDAA101000095GF100991999999999999999999MA1102135098805MD1690069+9999REMMET10201/02/10 00:56:02 METAR KEED 020856Z VRB03KT 10SM CLR 08/M07 A3016 RMK AO2 SLP203 T00831072 56006 TSNOEQDQ01    099SCCGD1P01    003SCCGA1
0195723805231792010010209567+34766-114620FM-15+0279KEED V0302605N002652200059N0160935N5+00725-00725101995ADDAA101000095GF100991999999999999999999MA1102105098775REMMET09601/02/10 01:56:02 METAR KEED 020956Z 26005KT 10SM CLR 07/M07 A3015 RMK AO2 SLP199 T00721072 TSNOEQDQ01    099SCCGD1P01    003SCCGA1
0195723805231792010010210567+34766-114620FM-15+0279KEED V0302405N004652200059N0160935N5+00675-00725101975ADDAA101000095GF100991999999999999999999MA1102075098745REMMET09601/02/10 02:56:02 METAR KEED 021056Z 24009KT 10SM CLR 07/M07 A3014 RMK AO2 SLP197 T00671072 TSNOEQDQ01    099SCCGD1P01    003SCCGA1
0253723805231792010010211567+34766-114620FM-15+0279KEED V0309999V001552200059N0160935N5+00785-00785101985ADDAA101000095GF100991999999999999999999KA1999M+01171KA2999N+00611MA1102105098775MD1590049+9999REMMET11401/02/10 03:56:02 METAR KEED 021156Z VRB03KT 10SM CLR 08/M08 A3015 RMK AO2 SLP198 T00781078 10117 20061 55004 TSNOEQDQ01    099SCCGD1P01    003SCCGA1
0195723805231792010010212567+34766-114620FM-15+0279KEED V0303105N001552200059N0160935N5+00785-00725102075ADDAA101000095GF100991999999999999999999MA1102175098845REMMET09601/02/10 04:56:02 METAR KEED 021256Z 31003KT 10SM CLR 08/M07 A3017 RMK AO2 SLP207 T00781072 TSNOEQDQ01    099SCCGD1P01    003SCCGA1
0195723805231792010010213567+34766-114620FM-15+0279KEED V0309999C000052200059N0160935N5+00615-00785102085ADDAA101000095GF100991999999999999999999MA1102175098845REMMET09601/02/10 05:56:02 METAR KEED 021356Z 00000KT 10SM CLR 06/M08 A3017 RMK AO2 SLP208 T00611078 TSNOEQDQ01    099SCCGD1P01    003SCCGA1
0215723805231792010010214567+34766-114620FM-15+0279KEED V0302605N001552200059N0160935N5+00675-00725102155ADDAA101000095GF100991999999999999999999MA1102245098905MD1290139+9999REMMET10201/02/10 06:56:02 METAR KEED 021456Z 26003KT 10SM CLR 07/M07 A3019 RMK AO2 SLP215 T00671072 52013 TSNOEQDQ01    099SCCGD1P01    003SCCGA1
0195723805231792010010215567+34766-114620FM-15+0279KEED V0303605N002152200059N0160935N5+01005-00725102205ADDAA101000095GF100991999999999999999999MA1102305098975REMMET09601/02/10 07:56:02 METAR KEED 021556Z 36004KT 10SM CLR 10/M07 A3021 RMK AO2 SLP220 T01001072 TSNOEQDQ01    099SCCGD1P01    003SCCGA1
0195723805231792010010216567+34766-114620FM-15+0279KEED V0303305N001552200059N0160935N5+01115-00725102195ADDAA101000095GF100991999999999999999999MA1102305098975REMMET09601/02/10 08:56:02 METAR KEED 021656Z 33003KT 10SM CLR 11/M07 A3021 RMK AO2 SLP219 T01111072 TSNOEQDQ01    099SCCGD1P01    003SCCGA1
0253723805231792010010217567+34766-114620FM-15+0279KEED V0309999C000052200059N0160935N5+01285-00675102185ADDAA101000095GF100991999999999999999999KA1999M+01281KA2999N+00501MA1102305098975MD1090069+9999REMMET11401/02/10 09:56:02 METAR KEED 021756Z 00000KT 10SM CLR 13/M07 A3021 RMK AO2 SLP218 T01281067 10128 20050 50006 TSNOEQDQ01    099SCCGD1P01    003SCCGA1
0195723805231792010010218567+34766-114620FM-15+0279KEED V0303205N002152200059N0160935N5+01445-00675102105ADDAA101000095GF100991999999999999999999MA1102205098875REMMET09601/02/10 10:56:02 METAR KEED 021856Z 32004KT 10SM CLR 14/M07 A3018 RMK AO2 SLP210 T01441067 TSNOEQDQ01    099SCCGD1P01    003SCCGA1
0195723805231792010010219567+34766-114620FM-15+0279KEED V0300305N003152200059N0160935N5+01675-00675101945ADDAA101000095GF100991999999999999999999MA1102075098745REMMET09601/02/10 11:56:02 METAR KEED 021956Z 03006KT 10SM CLR 17/M07 A3014 RMK AO2 SLP194 T01671067 TSNOEQDQ01    099SCCGD1P01    003SCCGA1
0215723805231792010010220567+34766-114620FM-15+0279KEED V0300205N004152200059N0160935N5+01835-00675101825ADDAA101000095GF100991999999999999999999MA1101965098645MD1890339+9999REMMET10201/02/10 12:56:02 METAR KEED 022056Z 02008KT 10SM CLR 18/M07 A3011 RMK AO2 SLP182 T01831067 58033 TSNOEQDQ01    099SCCGD1P01    003SCCGA1
0195723805231792010010221567+34766-114620FM-15+0279KEED V0300105N005752200059N0160935N5+01895-00675101775ADDAA101000095GF100991999999999999999999MA1101905098575REMMET09601/02/10 13:56:02 METAR KEED 022156Z 01011KT 10SM CLR 19/M07 A3009 RMK AO2 SLP177 T01891067 TSNOEQDQ01    099SCCGD1P01    003SCCGA1
0195723805231792010010222567+34766-114620FM-15+0279KEED V0303505N005752200059N0160935N5+01895-00615101795ADDAA101000095GF100991999999999999999999MA1101905098575REMMET09601/02/10 14:56:02 METAR KEED 022256Z 35011KT 10SM CLR 19/M06 A3009 RMK AO2 SLP179 T01891061 TSNOEQDQ01    099SCCGD1P01    003SCCGA1
0253723805231792010010223567+34766-114620FM-15+0279KEED V0300105N004652200059N0160935N5+01835-00615101805ADDAA101000095GF100991999999999999999999KA1999M+01941KA2999N+01331MA1101935098615MD1590039+9999REMMET11401/02/10 15:56:02 METAR KEED 022356Z 01009KT 10SM CLR 18/M06 A3010 RMK AO2 SLP180 T01831061 10194 20133 55003 TSNOEQDQ01    099SCCGD1P01    003SCCGA1
0195723805231792010010300567+34766-114620FM-15+0279KEED V0303305N003152200059N0160935N5+01565-00565101825ADDAA101000095GF100991999999999999999999MA1101935098615REMMET09601/02/10 16:56:01 METAR KEED 030056Z 33006KT 10SM CLR 16/M06 A3010 RMK AO2 SLP182 T01561056 TSNOEQDQ01    099SCCGD1P01    003SCCGA1
0195723805231792010010301567+34766-114620FM-15+0279KEED V0300205N001552200059N0160935N5+01445-00565101895ADDAA101000095GF100991999999999999999999MA1102005098675REMMET09601/02/10 17:56:02 METAR KEED 030156Z 02003KT 10SM CLR 14/M06 A3012 RMK AO2 SLP189 T01441056 TSNOEQDQ01    099SCCGD1P01    003SCCGA1
0215723805231792010010302567+34766-114620FM-15+0279KEED V0303405N002152200059N0160935N5+01395-00565101905ADDAA101000095GF100991999999999999999999MA1102005098675MD1390079+9999REMMET10201/02/10 18:56:02 METAR KEED 030256Z 34004KT 10SM CLR 14/M06 A3012 RMK AO2 SLP190 T01391056 53007 TSNOEQDQ01    099SCCGD1P01    003SCCGA1
0195723805231792010010303567+34766-114620FM-15+0279KEED V0302905N002152200059N0160935N5+01115-00565101945ADDAA101000095GF100991999999999999999999MA1102035098705REMMET09601/02/10 19:56:02 METAR KEED 030356Z 29004KT 10SM CLR 11/M06 A3013 RMK AO2 SLP194 T01111056 TSNOEQDQ01    099SCCGD1P01    003SCCGA1
0195723805231792010010304567+34766-114620FM-15+0279KEED V0303005N002652200059N0160935N5+01115-00565101975ADDAA101000095GF100991999999999999999999MA1102075098745REMMET09601/02/10 20:56:02 METAR KEED 030456Z 30005KT 10SM CLR 11/M06 A3014 RMK AO2 SLP197 T01111056 TSNOEQDQ01    099SCCGD1P01    003SCCGA1
0253723805231792010010305567+34766-114620FM-15+0279KEED V0302505N003652200059N0160935N5+00785-00565102005ADDAA101000095GF100991999999999999999999KA1999M+01831KA2999N+00781MA1102105098775MD1190099+9999REMMET11401/02/10 21:56:01 METAR KEED 030556Z 25007KT 10SM CLR 08/M06 A3015 RMK AO2 SLP200 T00781056 10183 20078 51009 TSNOEQDQ01    099SCCGD1P01    003SCCGA1
0195723805231792010010306567+34766-114620FM-15+0279KEED V0302605N002152200059N0160935N5+00835-00565101975ADDAA101000095GF100991999999999999999999MA1102075098745REMMET09601/02/10 22:56:02 METAR KEED 030656Z 26004KT 10SM CLR 08/M06 A3014 RMK AO2 SLP197 T00831056 TSNOEQDQ01    099SCCGD1P01    003SCCGA1
0205723805231792010010307567+34766-114620FM-15+0279KEED V0302505N002652200059N0160935N5+00895-00565101955ADDAA101000095GF100991999999999999999999MA1102075098745REMMET10601/02/10 23:56:01 METAR KEED 030756Z 25005KT 10SM CLR 09/M06 A3014 RMK AO2 SLP195 T00891056 401940050 TSNOEQDQ01    099SCCGD1P01    003SCCGA1
0989723805231792010010307596+34766-114620SOD  +0279KEED V030999999999999999999999999999+99999+99999999999ADDAA124000095KA1240M+01945KA2240N+00505KG1024W+0044D4KG2024D-0067D4MF1098754101964MG1098764101734OE11240080535015245OE22240067135015225OE33240025999999995RH1024X038D4RH2024N017D4RH3024M028D4REMSOD75424 HR PRECIPITATION (IN):0.00  24 HR MAX TEMP (F):67 24 HR MAX TEMP TIME (LST):1502 24 HR MIN TEMP (F):41 24 HR MIN TEMP TIME (LST):0620 AVERAGE STATION PRESSURE:29.165 MINIMUM SEA LEVEL PRESSURE:30.04 TIME OF OCCURRENCE:1430 PEAK WIND SPEED (MPH):18  PEAK WIND DIR (DEG):350 PEAK WIND TIME (LST):1524  FASTEST 2MIN SPEED (MPH):15 FASTEST 2MIN DIR (DEG):350 FASTEST 2MIN TIME (LST):1522 AVERAGE WIND SPEED (MPH):5.8  24 HR AVG TEMP (F):54 DEPART FROM NORMAL: +1  HEATING DEGREE DAYS:11  COOLING DEGREE DAYS:0   LATEST DAY MAX TEMP (0700-1900 LST):67  LATEST NIGHT MIN TEMP(1900-0800 LST):41 HOURLY INCREMENTAL PRECIPITATION VALUES (IN):.00 0.00 0.00 0.00 0.00 0.00 0.00 0.00 0.00 0.00 0.00 0.00 0.00 0.00 0.00 0.00 0.00 0.00 0.00 0.00 0.00 0.00 0.00 0.00EQDR01     N7GJS072R02     N7GKS075
0247723805231792010010308567+34766-114620FM-15+0279KEED V0302705N003152200059N0160935N5+00835-00565101975ADDAA101000095GF100991999999999999999999MA1102105098775MD1390009+9999REMMET10201/03/10 00:56:02 METAR KEED 030856Z 27006KT 10SM CLR 08/M06 A3015 RMK AO2 SLP197 T00831056 53000 TSNOEQDQ01+000032APCTENQ02+000002APC3  Q03    099SCCGD1P01    003SCCGA1
0195723805231792010010309567+34766-114620FM-15+0279KEED V0302705N001552200059N0160935N5+00675-00565102005ADDAA101000095GF100991999999999999999999MA1102105098775REMMET09601/03/10 01:56:02 METAR KEED 030956Z 27003KT 10SM CLR 07/M06 A3015 RMK AO2 SLP200 T00671056 TSNOEQDQ01    099SCCGD1P01    003SCCGA1
0195723805231792010010310567+34766-114620FM-15+0279KEED V0302605N002652200059N0160935N5+00615-00505101995ADDAA101000095GF100991999999999999999999MA1102105098775REMMET09601/03/10 02:56:02 METAR KEED 031056Z 26005KT 10SM CLR 06/M05 A3015 RMK AO2 SLP199 T00611050 TSNOEQDQ01    099SCCGD1P01    003SCCGA1
0253723805231792010010311567+34766-114620FM-15+0279KEED V0302905N002652200059N0160935N5+00725-00445101995ADDAA101000095GF100991999999999999999999KA1999M+00941KA2999N+00611MA1102105098775MD1190019+9999REMMET11401/03/10 03:56:02 METAR KEED 031156Z 29005KT 10SM CLR 07/M04 A3015 RMK AO2 SLP199 T00721044 10094 20061 51001 TSNOEQDQ01    099SCCGD1P01    003SCCGA1
0195723805231792010010312567+34766-114620FM-15+0279KEED V0302505N002152200059N0160935N5+00615-00445102055ADDAA101000095GF100991999999999999999999MA1102135098805REMMET09601/03/10 04:56:02 METAR KEED 031256Z 25004KT 10SM CLR 06/M04 A3016 RMK AO2 SLP205 T00611044 TSNOEQDQ01    099SCCGD1P01    003SCCGA1
0195723805231792010010313567+34766-114620FM-15+0279KEED V0302705N003152200059N0160935N5+00675-00395102105ADDAA101000095GF100991999999999999999999MA1102205098875REMMET09601/03/10 05:56:02 METAR KEED 031356Z 27006KT 10SM CLR 07/M04 A3018 RMK AO2 SLP210 T00671039 TSNOEQDQ01    099SCCGD1P01    003SCCGA1
0215723805231792010010314567+34766-114620FM-15+0279KEED V0309999V002652200059N0160935N5+00725-00395102145ADDAA101000095GF100991999999999999999999MA1102245098905MD1190129+9999REMMET10201/03/10 06:56:02 METAR KEED 031456Z VRB05KT 10SM CLR 07/M04 A3019 RMK AO2 SLP214 T00721039 51012 TSNOEQDQ01    099SCCGD1P01    003SCCGA1
0195723805231792010010315567+34766-114620FM-15+0279KEED V0303505N003652200059N0160935N5+01115-00395102185ADDAA101000095GF100991999999999999999999MA1102275098935REMMET09601/03/10 07:56:02 METAR KEED 031556Z 35007KT 10SM CLR 11/M04 A3020 RMK AO2 SLP218 T01111039 TSNOEQDQ01    099SCCGD1P01    003SCCGA1
0195723805231792010010316567+34766-114620FM-15+0279KEED V0303605N007752200059N0160935N5+01335-00445102205ADDAA101000095GF100991999999999999999999MA1102305098975REMMET09601/03/10 08:56:02 METAR KEED 031656Z 36015KT 10SM CLR 13/M04 A3021 RMK AO2 SLP220 T01331044 TSNOEQDQ01    099SCCGD1P01    003SCCGA1
0264723805231792010010317567+34766-114620FM-15+0279KEED V0303605N007752200059N0160935N5+01505-00445102235ADDAA101000095GF100991999999999999999999KA1999M+01501KA2999N+00561MA1102345099005MD1190109+9999OC101035REMMET11701/03/10 09:56:02 METAR KEED 031756Z 36015G20KT 10SM CLR 15/M04 A3022 RMK AO2 SLP223 T01501044 10150 20056 51010 TSNOEQDQ01    099SCCGD1P01    003SCCGA1
0206723805231792010010318567+34766-114620FM-15+0279KEED V0300105N009852200059N0160935N5+01725-00445102135ADDAA101000095GF100991999999999999999999MA1102245098905OC101245REMMET09901/03/10 10:56:02 METAR KEED 031856Z 01019G24KT 10SM CLR 17/M04 A3019 RMK AO2 SLP213 T01721044 TSNOEQDQ01    099SCCGD1P01    003SCCGA1
0224723805231792010010319567+34766-114620FM-15+0279KEED V0300305N008252200059N0160935N5+01835-00445102015ADDAA101000095GF100991999999999999999999MA1102135098805OC101135REMMET11701/03/10 11:56:02 METAR KEED 031956Z 03016G22KT 10SM CLR 18/M04 A3016 RMK AO2 PK WND 02027/1938 SLP201 T01831044 TSNOEQDQ01    099SCCGD1P01    003SCCGA1
0244723805231792010010320567+34766-114620FM-15+0279KEED V0300305N010352200059N0160935N5+01895-00565101925ADDAA101000095GF100991999999999999999999MA1102075098745MD1890279+9999OC101445REMMET12301/03/10 12:56:02 METAR KEED 032056Z 03020G28KT 10SM CLR 19/M06 A3014 RMK AO2 PK WND 03028/2051 SLP192 T01891056 58027 TSNOEQDQ01    099SCCGD1P01    003SCCGA1
0195723805231792010010321567+34766-114620FM-15+0279KEED V0300205N007752200059N0160935N5+01945-00615101905ADDAA101000095GF100991999999999999999999MA1102035098705REMMET09601/03/10 13:56:02 METAR KEED 032156Z 02015KT 10SM CLR 19/M06 A3013 RMK AO2 SLP190 T01941061 TSNOEQDQ01    099SCCGD1P01    003SCCGA1
0195723805231792010010322567+34766-114620FM-15+0279KEED V0300205N006752200059N0160935N5+01895-00615101935ADDAA101000095GF100991999999999999999999MA1102075098745REMMET09601/03/10 14:56:02 METAR KEED 032256Z 02013KT 10SM CLR 19/M06 A3014 RMK AO2 SLP193 T01891061 TSNOEQDQ01    099SCCGD1P01    003SCCGA1
0253723805231792010010323567+34766-114620FM-15+0279KEED V0300205N006752200059N0160935N5+01835-00615101915ADDAA101000095GF100991999999999999999999KA1999M+01941KA2999N+01501MA1102035098705MD1690029+9999REMMET11401/03/10 15:56:02 METAR KEED 032356Z 02013KT 10SM CLR 18/M06 A3013 RMK AO2 SLP191 T01831061 10194 20150 56002 TSNOEQDQ01    099SCCGD1P01    003SCCGA1
0195723805231792010010400567+34766-114620FM-15+0279KEED V0303405N005152200059N0160935N5+01675-00565101945ADDAA101000095GF100991999999999999999999MA1102035098705REMMET09601/03/10 16:56:02 METAR KEED 040056Z 34010KT 10SM CLR 17/M06 A3013 RMK AO2 SLP194 T01671056 TSNOEQDQ01    099SCCGD1P01    003SCCGA1
0195723805231792010010401567+34766-114620FM-15+0279KEED V0303505N004652200059N0160935N5+01565-00505101995ADDAA101000095GF100991999999999999999999MA1102105098775REMMET09601/03/10 17:56:02 METAR KEED 040156Z 35009KT 10SM CLR 16/M05 A3015 RMK AO2 SLP199 T01561050 TSNOEQDQ01    099SCCGD1P01    003SCCGA1
0215723805231792010010402567+34766-114620FM-15+0279KEED V0303505N005752200059N0160935N5+01505-00505102045ADDAA101000095GF100991999999999999999999MA1102135098805MD1390109+9999REMMET10201/03/10 18:56:02 METAR KEED 040256Z 35011KT 10SM CLR 15/M05 A3016 RMK AO2 SLP204 T01501050 53010 TSNOEQDQ01    099SCCGD1P01    003SCCGA1
0195723805231792010010403567+34766-114620FM-15+0279KEED V0303405N004652200059N0160935N5+01445-00565102055ADDAA101000095GF100991999999999999999999MA1102175098845REMMET09601/03/10 19:56:01 METAR KEED 040356Z 34009KT 10SM CLR 14/M06 A3017 RMK AO2 SLP205 T01441056 TSNOEQDQ01    099SCCGD1P01    003SCCGA1
0195723805231792010010404567+34766-114620FM-15+0279KEED V0303505N004652200059N0160935N5+01445-00615102035ADDAA101000095GF100991999999999999999999MA1102175098845REMMET09601/03/10 20:56:02 METAR KEED 040456Z 35009KT 10SM CLR 14/M06 A3017 RMK AO2 SLP203 T01441061 TSNOEQDQ01    099SCCGD1P01    003SCCGA1
0253723805231792010010405567+34766-114620FM-15+0279KEED V0303505N004652200059N0160935N5+01395-00615102055ADDAA101000095GF100991999999999999999999KA1999M+01831KA2999N+01391MA1102175098845MD1290049+9999REMMET11401/03/10 21:56:02 METAR KEED 040556Z 35009KT 10SM CLR 14/M06 A3017 RMK AO2 SLP205 T01391061 10183 20139 52004 TSNOEQDQ01    099SCCGD1P01    003SCCGA1
0195723805231792010010406567+34766-114620FM-15+0279KEED V0303505N004152200059N0160935N5+01395-00615102045ADDAA101000095GF100991999999999999999999MA1102205098875REMMET09601/03/10 22:56:02 METAR KEED 040656Z 35008KT 10SM CLR 14/M06 A3018 RMK AO2 SLP204 T01391061 TSNOEQDQ01    099SCCGD1P01    003SCCGA1
0205723805231792010010407567+34766-114620FM-15+0279KEED V0303505N004152200059N0160935N5+01335-00675102055ADDAA101000095GF100991999999999999999999MA1102205098875REMMET10601/03/10 23:56:02 METAR KEED 040756Z 35008KT 10SM CLR 13/M07 A3018 RMK AO2 SLP205 T01331067 401940056 TSNOEQDQ01    099SCCGD1P01    003SCCGA1
0989723805231792010010407596+34766-114620SOD  +0279KEED V030999999999999999999999999999+99999+99999999999ADDAA124000095KA1240M+01945KA2240N+00565KG1024W+0056D4KG2024D-0050D4MF1098814102034MG1098814101904OE11240143103012515OE22240111802012415OE33240051499999995RH1024X047D4RH2024N017D4RH3024M029D4REMSOD75424 HR PRECIPITATION (IN):0.00  24 HR MAX TEMP (F):67 24 HR MAX TEMP TIME (LST):1421 24 HR MIN TEMP (F):42 24 HR MIN TEMP TIME (LST):0647 AVERAGE STATION PRESSURE:29.180 MINIMUM SEA LEVEL PRESSURE:30.09 TIME OF OCCURRENCE:1626 PEAK WIND SPEED (MPH):32  PEAK WIND DIR (DEG):30  PEAK WIND TIME (LST):1251  FASTEST 2MIN SPEED (MPH):25 FASTEST 2MIN DIR (DEG):20  FASTEST 2MIN TIME (LST):1241 AVERAGE WIND SPEED (MPH):11.5 24 HR AVG TEMP (F):55 DEPART FROM NORMAL: +2  HEATING DEGREE DAYS:10  COOLING DEGREE DAYS:0   LATEST DAY MAX TEMP (0700-1900 LST):67  LATEST NIGHT MIN TEMP(1900-0800 LST):42 HOURLY INCREMENTAL PRECIPITATION VALUES (IN):.00 0.00 0.00 0.00 0.00 0.00 0.00 0.00 0.00 0.00 0.00 0.00 0.00 0.00 0.00 0.00 0.00 0.00 0.00 0.00 0.00 0.00 0.00 0.00EQDR01     N7GJS072R02     N7GKS075
0215723805231792010010408567+34766-114620FM-15+0279KEED V0302905N001552200059N0160935N5+01225-00565102075ADDAA101000095GF100991999999999999999999MA1102205098875MD1390049+9999REMMET10201/04/10 00:56:02 METAR KEED 040856Z 29003KT 10SM CLR 12/M06 A3018 RMK AO2 SLP207 T01221056 53004 TSNOEQDQ01    099SCCGD1P01    003SCCGA1
0195723805231792010010409567+34766-114620FM-15+0279KEED V0303605N002152200059N0160935N5+01225-00505102055ADDAA101000095GF100991999999999999999999MA1102205098875REMMET09601/04/10 01:56:02 METAR KEED 040956Z 36004KT 10SM CLR 12/M05 A3018 RMK AO2 SLP205 T01221050 TSNOEQDQ01    099SCCGD1P01    003SCCGA1
0195723805231792010010410567+34766-114620FM-15+0279KEED V0302605N003152200059N0160935N5+00785-00565102075ADDAA101000095GF100991999999999999999999MA1102205098875REMMET09601/04/10 02:56:02 METAR KEED 041056Z 26006KT 10SM CLR 08/M06 A3018 RMK AO2 SLP207 T00781056 TSNOEQDQ01    099SCCGD1P01    003SCCGA1
0253723805231792010010411567+34766-114620FM-15+0279KEED V0303105N003652200059N0160935N5+00895-00565102045ADDAA101000095GF100991999999999999999999KA1999M+01391KA2999N+00721MA1102175098845MD1790049+9999REMMET11401/04/10 03:56:02 METAR KEED 041156Z 31007KT 10SM CLR 09/M06 A3017 RMK AO2 SLP204 T00891056 10139 20072 57004 TSNOEQDQ01    099SCCGD1P01    003SCCGA1
0195723805231792010010412567+34766-114620FM-15+0279KEED V0303005N002652200059N0160935N5+00945-00505102065ADDAA101000095GF100991999999999999999999MA1102175098845REMMET09601/04/10 04:56:02 METAR KEED 041256Z 30005KT 10SM CLR 09/M05 A3017 RMK AO2 SLP206 T00941050 TSNOEQDQ01    099SCCGD1P01    003SCCGA1
0195723805231792010010413567+34766-114620FM-15+0279KEED V0302905N001552200059N0160935N5+00725-00505102135ADDAA101000095GF100991999999999999999999MA1102245098905REMMET09601/04/10 05:56:02 METAR KEED 041356Z 29003KT 10SM CLR 07/M05 A3019 RMK AO2 SLP213 T00721050 TSNOEQDQ01    099SCCGD1P01    003SCCGA1
0215723805231792010010414567+34766-114620FM-15+0279KEED V0302805N002152200059N0160935N5+00675-00505102165ADDAA101000095GF100991999999999999999999MA1102245098905MD1390079+9999REMMET10201/04/10 06:56:02 METAR KEED 041456Z 28004KT 10SM CLR 07/M05 A3019 RMK AO2 SLP216 T00671050 53007 TSNOEQDQ01    099SCCGD1P01    003SCCGA1
0195723805231792010010415567+34766-114620FM-15+0279KEED V0302805N002652200059N0160935N5+01005-00445102185ADDAA101000095GF100991999999999999999999MA1102305098975REMMET09601/04/10 07:56:02 METAR KEED 041556Z 28005KT 10SM CLR 10/M04 A3021 RMK AO2 SLP218 T01001044 TSNOEQDQ01    099SCCGD1P01    003SCCGA1
0195723805231792010010416567+34766-114620FM-15+0279KEED V0303605N004652200059N0160935N5+01285-00505102225ADDAA101000095GF100991999999999999999999MA1102345099005REMMET09601/04/10 08:56:02 METAR KEED 041656Z 36009KT 10SM CLR 13/M05 A3022 RMK AO2 SLP222 T01281050 TSNOEQDQ01    099SCCGD1P01    003SCCGA1
0253723805231792010010417567+34766-114620FM-15+0279KEED V0303505N003652200059N0160935N5+01395-00505102255ADDAA101000095GF100991999999999999999999KA1999M+01441KA2999N+00671MA1102375099035MD1190139+9999REMMET11401/04/10 09:56:02 METAR KEED 041756Z 35007KT 10SM CLR 14/M05 A3023 RMK AO2 SLP225 T01391050 10144 20067 51013 TSNOEQDQ01    099SCCGD1P01    003SCCGA1
0195723805231792010010418567+34766-114620FM-15+0279KEED V0303605N004652200059N0160935N5+01615-00505102165ADDAA101000095GF100991999999999999999999MA1102305098975REMMET09601/04/10 10:56:02 METAR KEED 041856Z 36009KT 10SM CLR 16/M05 A3021 RMK AO2 SLP216 T01611050 TSNOEQDQ01    099SCCGD1P01    003SCCGA1
0195723805231792010010419567+34766-114620FM-15+0279KEED V0300105N005152200059N0160935N5+01785-00565102035ADDAA101000095GF100991999999999999999999MA1102205098875REMMET09601/04/10 11:56:02 METAR KEED 041956Z 01010KT 10SM CLR 18/M06 A3018 RMK AO2 SLP203 T01781056 TSNOEQDQ01    099SCCGD1P01    003SCCGA1
0215723805231792010010420567+34766-114620FM-15+0279KEED V0300305N005752200059N0160935N5+01895-00615101935ADDAA101000095GF100991999999999999999999MA1102105098775MD1890309+9999REMMET10201/04/10 12:56:02 METAR KEED 042056Z 03011KT 10SM CLR 19/M06 A3015 RMK AO2 SLP193 T01891061 58030 TSNOEQDQ01    099SCCGD1P01    003SCCGA1
0195723805231792010010421567+34766-114620FM-15+0279KEED V0300305N004652200059N0160935N5+01835-00675101895ADDAA101000095GF100991999999999999999999MA1102035098705REMMET09601/04/10 13:56:02 METAR KEED 042156Z 03009KT 10SM CLR 18/M07 A3013 RMK AO2 SLP189 T01831067 TSNOEQDQ01    099SCCGD1P01    003SCCGA1
0195723805231792010010422567+34766-114620FM-15+0279KEED V0300205N005152200059N0160935N5+01785-00675101915ADDAA101000095GF100991999999999999999999MA1102035098705REMMET09601/04/10 14:56:02 METAR KEED 042256Z 02010KT 10SM CLR 18/M07 A3013 RMK AO2 SLP191 T01781067 TSNOEQDQ01    099SCCGD1P01    003SCCGA1
0253723805231792010010423567+34766-114620FM-15+0279KEED V0300105N004652200059N0160935N5+01725-00675101905ADDAA101000095GF100991999999999999999999KA1999M+01891KA2999N+01391MA1102035098705MD1590059+9999REMMET11401/04/10 15:56:02 METAR KEED 042356Z 01009KT 10SM CLR 17/M07 A3013 RMK AO2 SLP190 T01721067 10189 20139 55005 TSNOEQDQ01    099SCCGD1P01    003SCCGA1
0195723805231792010010500567+34766-114620FM-15+0279KEED V0303305N002652200059N0160935N5+01505-00615101915ADDAA101000095GF100991999999999999999999MA1102035098705REMMET09601/04/10 16:56:02 METAR KEED 050056Z 33005KT 10SM CLR 15/M06 A3013 RMK AO2 SLP191 T01501061 TSNOEQDQ01    099SCCGD1P01    003SCCGA1
0195723805231792010010501567+34766-114620FM-15+0279KEED V0303305N004152200059N0160935N5+01445-00615101955ADDAA101000095GF100991999999999999999999MA1102035098705REMMET09601/04/10 17:56:02 METAR KEED 050156Z 33008KT 10SM CLR 14/M06 A3013 RMK AO2 SLP195 T01441061 TSNOEQDQ01    099SCCGD1P01    003SCCGA1
0247723805231792010010502567+34766-114620FM-15+0279KEED V0303305N003152200059N0160935N5+01335-00565101945ADDAA101000095GF100991999999999999999999MA1102035098705MD1890009+9999REMMET10201/04/10 18:56:01 METAR KEED 050256Z 33006KT 10SM CLR 13/M06 A3013 RMK AO2 SLP194 T01331056 58000 TSNOEQDQ01+000082APCTENQ02+000002APC3  Q03    099SCCGD1P01    003SCCGA1
0195723805231792010010503567+34766-114620FM-15+0279KEED V0302605N002152200059N0160935N5+01065-00565101925ADDAA101000095GF100991999999999999999999MA1102005098675REMMET09601/04/10 19:56:01 METAR KEED 050356Z 26004KT 10SM CLR 11/M06 A3012 RMK AO2 SLP192 T01061056 TSNOEQDQ01    099SCCGD1P01    003SCCGA1
0195723805231792010010504567+34766-114620FM-15+0279KEED V0302805N004152200059N0160935N5+01115-00565101915ADDAA101000095GF100991999999999999999999MA1102035098705REMMET09601/04/10 20:56:02 METAR KEED 050456Z 28008KT 10SM CLR 11/M06 A3013 RMK AO2 SLP191 T01111056 TSNOEQDQ01    099SCCGD1P01    003SCCGA1
0253723805231792010010505567+34766-114620FM-15+0279KEED V0302905N002652200059N0160935N5+00945-00615101965ADDAA101000095GF100991999999999999999999KA1999M+01721KA2999N+00941MA1102075098745MD1390049+9999REMMET11401/04/10 21:56:02 METAR KEED 050556Z 29005KT 10SM CLR 09/M06 A3014 RMK AO2 SLP196 T00941061 10172 20094 53004 TSNOEQDQ01    099SCCGD1P01    003SCCGA1
0195723805231792010010506567+34766-114620FM-15+0279KEED V0303005N003652200059N0160935N5+00945-00615101975ADDAA101000095GF100991999999999999999999MA1102075098745REMMET09601/04/10 22:56:02 METAR KEED 050656Z 30007KT 10SM CLR 09/M06 A3014 RMK AO2 SLP197 T00941061 TSNOEQDQ01    099SCCGD1P01    003SCCGA1
0205723805231792010010507567+34766-114620FM-15+0279KEED V0302805N003152200059N0160935N5+00785-00615101975ADDAA101000095GF100991999999999999999999MA1102075098745REMMET10601/04/10 23:56:02 METAR KEED 050756Z 28006KT 10SM CLR 08/M06 A3014 RMK AO2 SLP197 T00781061 401890067 TSNOEQDQ01    099SCCGD1P01    003SCCGA1
0989723805231792010010507596+34766-114620SOD  +0279KEED V030999999999999999999999999999+99999+99999999999ADDAA124000095KA1240M+01895KA2240N+00675KG1024W+0050D4KG2024D-0056D4MF1098814102034MG1098814101904OE11240089402012085OE22240071502012095OE33240034499999995RH1024X043D4RH2024N018D4RH3024M029D4REMSOD75424 HR PRECIPITATION (IN):0.00  24 HR MAX TEMP (F):66 24 HR MAX TEMP TIME (LST):1324 24 HR MIN TEMP (F):44 24 HR MIN TEMP TIME (LST):0707 AVERAGE STATION PRESSURE:29.180 MINIMUM SEA LEVEL PRESSURE:30.09 TIME OF OCCURRENCE:2109 PEAK WIND SPEED (MPH):20  PEAK WIND DIR (DEG):20  PEAK WIND TIME (LST):1208  FASTEST 2MIN SPEED (MPH):16 FASTEST 2MIN DIR (DEG):20  FASTEST 2MIN TIME (LST):1209 AVERAGE WIND SPEED (MPH):7.7  24 HR AVG TEMP (F):55 DEPART FROM NORMAL: +2  HEATING DEGREE DAYS:10  COOLING DEGREE DAYS:0   LATEST DAY MAX TEMP (0700-1900 LST):66  LATEST NIGHT MIN TEMP(1900-0800 LST):44 HOURLY INCREMENTAL PRECIPITATION VALUES (IN):.00 0.00 0.00 0.00 0.00 0.00 0.00 0.00 0.00 0.00 0.00 0.00 0.00 0.00 0.00 0.00 0.00 0.00 0.00 0.00 0.00 0.00 0.00 0.00EQDR01     N7GJS072R02     N7GKS075
0215723805231792010010508567+34766-114620FM-15+0279KEED V0303005N002652200059N0160935N5+00895-00675101995ADDAA101000095GF100991999999999999999999MA1102105098775MD1390059+9999REMMET10201/05/10 00:56:02 METAR KEED 050856Z 30005KT 10SM CLR 09/M07 A3015 RMK AO2 SLP199 T00891067 53005 TSNOEQDQ01    099SCCGD1P01    003SCCGA1
0195723805231792010010509567+34766-114620FM-15+0279KEED V0302605N002152200059N0160935N5+00785-00615101965ADDAA101000095GF100991999999999999999999MA1102075098745REMMET09601/05/10 01:56:02 METAR KEED 050956Z 26004KT 10SM CLR 08/M06 A3014 RMK AO2 SLP196 T00781061 TSNOEQDQ01    099SCCGD1P01    003SCCGA1
0195723805231792010010510567+34766-114620FM-15+0279KEED V0309999C000052200059N0160935N5+00615-00565101975ADDAA101000095GF100991999999999999999999MA1102075098745REMMET09601/05/10 02:56:02 METAR KEED 051056Z 00000KT 10SM CLR 06/M06 A3014 RMK AO2 SLP197 T00611056 TSNOEQDQ01    099SCCGD1P01    003SCCGA1
0253723805231792010010511567+34766-114620FM-15+0279KEED V0302405N002152200059N0160935N5+00565-00565101935ADDAA101000095GF100991999999999999999999KA1999M+01171KA2999N+00501MA1102035098705MD1890089+9999REMMET11401/05/10 03:56:02 METAR KEED 051156Z 24004KT 10SM CLR 06/M06 A3013 RMK AO2 SLP193 T00561056 10117 20050 58008 TSNOEQDQ01    099SCCGD1P01    003SCCGA1
0195723805231792010010512567+34766-114620FM-15+0279KEED V0303005N001552200059N0160935N5+00615-00565101965ADDAA101000095GF100991999999999999999999MA1102035098705REMMET09601/05/10 04:56:02 METAR KEED 051256Z 30003KT 10SM CLR 06/M06 A3013 RMK AO2 SLP196 T00611056 TSNOEQDQ01    099SCCGD1P01    003SCCGA1
0195723805231792010010513567+34766-114620FM-15+0279KEED V0303305N001552200059N0160935N5+00615-00565101995ADDAA101000095GF100991999999999999999999MA1102075098745REMMET09601/05/10 05:56:02 METAR KEED 051356Z 33003KT 10SM CLR 06/M06 A3014 RMK AO2 SLP199 T00611056 TSNOEQDQ01    099SCCGD1P01    003SCCGA1
0215723805231792010010514567+34766-114620FM-15+0279KEED V0302905N004152200059N0160935N5+00615-00565101985ADDAA101000095GF100991999999999999999999MA1102075098745MD1090039+9999REMMET10201/05/10 06:56:02 METAR KEED 051456Z 29008KT 10SM CLR 06/M06 A3014 RMK AO2 SLP198 T00611056 50003 TSNOEQDQ01    099SCCGD1P01    003SCCGA1
0195723805231792010010515567+34766-114620FM-15+0279KEED V0303305N002152200059N0160935N5+01005-00505102045ADDAA101000095GF100991999999999999999999MA1102135098805REMMET09601/05/10 07:56:02 METAR KEED 051556Z 33004KT 10SM CLR 10/M05 A3016 RMK AO2 SLP204 T01001050 TSNOEQDQ01    099SCCGD1P01    003SCCGA1
0195723805231792010010516567+34766-114620FM-15+0279KEED V0303605N005152200059N0160935N5+01225-00505102125ADDAA101000095GF100991999999999999999999MA1102205098875REMMET09601/05/10 08:56:02 METAR KEED 051656Z 36010KT 10SM CLR 12/M05 A3018 RMK AO2 SLP212 T01221050 TSNOEQDQ01    099SCCGD1P01    003SCCGA1
0253723805231792010010517567+34766-114620FM-15+0279KEED V0300205N005752200059N0160935N5+01395-00445102135ADDAA101000095GF100991999999999999999999KA1999M+01391KA2999N+00561MA1102245098905MD1190169+9999REMMET11401/05/10 09:56:02 METAR KEED 051756Z 02011KT 10SM CLR 14/M04 A3019 RMK AO2 SLP213 T01391044 10139 20056 51016 TSNOEQDQ01    099SCCGD1P01    003SCCGA1
0195723805231792010010518567+34766-114620FM-15+0279KEED V0303605N002652200059N0160935N5+01565-00505102075ADDAA101000095GF100991999999999999999999MA1102175098845REMMET09601/05/10 10:56:02 METAR KEED 051856Z 36005KT 10SM CLR 16/M05 A3017 RMK AO2 SLP207 T01561050 TSNOEQDQ01    099SCCGD1P01    003SCCGA1
0195723805231792010010519567+34766-114620FM-15+0279KEED V0309999V002152200059N0160935N5+01725-00565101945ADDAA101000095GF100991999999999999999999MA1102075098745REMMET09601/05/10 11:56:02 METAR KEED 051956Z VRB04KT 10SM CLR 17/M06 A3014 RMK AO2 SLP194 T01721056 TSNOEQDQ01    099SCCGD1P01    003SCCGA1
0215723805231792010010520567+34766-114620FM-15+0279KEED V0300105N003152200059N0160935N5+01835-00565101825ADDAA101000095GF100991999999999999999999MA1101965098645MD1890279+9999REMMET10201/05/10 12:56:02 METAR KEED 052056Z 01006KT 10SM CLR 18/M06 A3011 RMK AO2 SLP182 T01831056 58027 TSNOEQDQ01    099SCCGD1P01    003SCCGA1
0195723805231792010010521567+34766-114620FM-15+0279KEED V0300205N002652200059N0160935N5+01895-00615101775ADDAA101000095GF100991999999999999999999MA1101905098575REMMET09601/05/10 13:56:02 METAR KEED 052156Z 02005KT 10SM CLR 19/M06 A3009 RMK AO2 SLP177 T01891061 TSNOEQDQ01    099SCCGD1P01    003SCCGA1
0195723805231792010010522567+34766-114620FM-15+0279KEED V0300105N003652200059N0160935N5+01945-00615101725ADDAA101000095GF100991999999999999999999MA1101835098515REMMET09601/05/10 14:56:02 METAR KEED 052256Z 01007KT 10SM CLR 19/M06 A3007 RMK AO2 SLP172 T01941061 TSNOEQDQ01    099SCCGD1P01    003SCCGA1
0253723805231792010010523567+34766-114620FM-15+0279KEED V0303505N002152200059N0160935N5+01895-00615101665ADDAA101000095GF100991999999999999999999KA1999M+01941KA2999N+01391MA1101795098475MD1690179+9999REMMET11401/05/10 15:56:02 METAR KEED 052356Z 35004KT 10SM CLR 19/M06 A3006 RMK AO2 SLP166 T01891061 10194 20139 56017 TSNOEQDQ01    099SCCGD1P01    003SCCGA1
0195723805231792010010600567+34766-114620FM-15+0279KEED V0303405N002152200059N0160935N5+01615-00615101715ADDAA101000095GF100991999999999999999999MA1101795098475REMMET09601/05/10 16:56:02 METAR KEED 060056Z 34004KT 10SM CLR 16/M06 A3006 RMK AO2 SLP171 T01611061 TSNOEQDQ01    099SCCGD1P01    003SCCGA1
0195723805231792010010601567+34766-114620FM-15+0279KEED V0302905N002652200059N0160935N5+01445-00615101755ADDAA101000095GF100991999999999999999999MA1101835098515REMMET09601/05/10 17:56:02 METAR KEED 060156Z 29005KT 10SM CLR 14/M06 A3007 RMK AO2 SLP175 T01441061 TSNOEQDQ01    099SCCGD1P01    003SCCGA1
0215723805231792010010602567+34766-114620FM-15+0279KEED V0303305N003152200059N0160935N5+01335-00615101785ADDAA101000095GF100991999999999999999999MA1101865098545MD1290089+9999REMMET10201/05/10 18:56:02 METAR KEED 060256Z 33006KT 10SM CLR 13/M06 A3008 RMK AO2 SLP178 T01331061 52008 TSNOEQDQ01    099SCCGD1P01    003SCCGA1
0195723805231792010010603567+34766-114620FM-15+0279KEED V0302605N004152200059N0160935N5+01115-00565101805ADDAA101000095GF100991999999999999999999MA1101905098575REMMET09601/05/10 19:56:01 METAR KEED 060356Z 26008KT 10SM CLR 11/M06 A3009 RMK AO2 SLP180 T01111056 TSNOEQDQ01    099SCCGD1P01    003SCCGA1
0195723805231792010010604567+34766-114620FM-15+0279KEED V0303305N002652200059N0160935N5+01225-00565101815ADDAA101000095GF100991999999999999999999MA1101935098615REMMET09601/05/10 20:56:01 METAR KEED 060456Z 33005KT 10SM CLR 12/M06 A3010 RMK AO2 SLP181 T01221056 TSNOEQDQ01    099SCCGD1P01    003SCCGA1
0253723805231792010010605567+34766-114620FM-15+0279KEED V0303205N002652200059N0160935N5+01175-00615101825ADDAA101000095GF100991999999999999999999KA1999M+01891KA2999N+01061MA1101935098615MD1190079+9999REMMET11401/05/10 21:56:02 METAR KEED 060556Z 32005KT 10SM CLR 12/M06 A3010 RMK AO2 SLP182 T01171061 10189 20106 51007 TSNOEQDQ01    099SCCGD1P01    003SCCGA1
0195723805231792010010606567+34766-114620FM-15+0279KEED V0302905N003152200059N0160935N5+01005-00565101815ADDAA101000095GF100991999999999999999999MA1101935098615REMMET09601/05/10 22:56:02 METAR KEED 060656Z 29006KT 10SM CLR 10/M06 A3010 RMK AO2 SLP181 T01001056 TSNOEQDQ01    099SCCGD1P01    003SCCGA1
0205723805231792010010607567+34766-114620FM-15+0279KEED V0309999C000052200059N0160935N5+00785-00565101805ADDAA101000095GF100991999999999999999999MA1101905098575REMMET10601/05/10 23:56:02 METAR KEED 060756Z 00000KT 10SM CLR 08/M06 A3009 RMK AO2 SLP180 T00781056 401940050 TSNOEQDQ01    099SCCGD1P01    003SCCGA1
0989723805231792010010607596+34766-114620SOD  +0279KEED V030999999999999999999999999999+99999+99999999999ADDAA124000095KA1240M+01945KA2240N+00505KG1024W+0050D4KG2024D-0056D4MF1098654101904MG1098664101664OE11240076002009325OE22240062602009555OE33240025999999995RH1024X045D4RH2024N017D4RH3024M030D4REMSOD75424 HR PRECIPITATION (IN):0.00  24 HR MAX TEMP (F):67 24 HR MAX TEMP TIME (LST):1545 24 HR MIN TEMP (F):41 24 HR MIN TEMP TIME (LST):0308 AVERAGE STATION PRESSURE:29.135 MINIMUM SEA LEVEL PRESSURE:30.02 TIME OF OCCURRENCE:1647 PEAK WIND SPEED (MPH):17  PEAK WIND DIR (DEG):20  PEAK WIND TIME (LST):0932  FASTEST 2MIN SPEED (MPH):14 FASTEST 2MIN DIR (DEG):20  FASTEST 2MIN TIME (LST):0955 AVERAGE WIND SPEED (MPH):5.8  24 HR AVG TEMP (F):54 DEPART FROM NORMAL: +1  HEATING DEGREE DAYS:11  COOLING DEGREE DAYS:0   LATEST DAY MAX TEMP (0700-1900 LST):67  LATEST NIGHT MIN TEMP(1900-0800 LST):41 HOURLY INCREMENTAL PRECIPITATION VALUES (IN):.00 0.00 0.00 0.00 0.00 0.00 0.00 0.00 0.00 0.00 0.00 0.00 0.00 0.00 0.00 0.00 0.00 0.00 0.00 0.00 0.00 0.00 0.00 0.00EQDR01     N7GJS072R02     N7GKS075
0215723805231792010010608567+34766-114620FM-15+0279KEED V0302905N001552200059N0160935N5+00785-00565101805ADDAA101000095GF100991999999999999999999MA1101935098615MD1590029+9999REMMET10201/06/10 00:56:02 METAR KEED 060856Z 29003KT 10SM CLR 08/M06 A3010 RMK AO2 SLP180 T00781056 55002 TSNOEQDQ01    099SCCGD1P01    003SCCGA1
0195723805231792010010609567+34766-114620FM-15+0279KEED V0302805N001552200059N0160935N5+00675-00565101795ADDAA101000095GF100991999999999999999999MA1101905098575REMMET09601/06/10 01:56:02 METAR KEED 060956Z 28003KT 10SM CLR 07/M06 A3009 RMK AO2 SLP179 T00671056 TSNOEQDQ01    099SCCGD1P01    003SCCGA1
0195723805231792010010610567+34766-114620FM-15+0279KEED V0303005N002152200059N0160935N5+00675-00565101815ADDAA101000095GF100991999999999999999999MA1101935098615REMMET09601/06/10 02:56:02 METAR KEED 061056Z 30004KT 10SM CLR 07/M06 A3010 RMK AO2 SLP181 T00671056 TSNOEQDQ01    099SCCGD1P01    003SCCGA1
0269723805231792010010611567+34766-114620FM-15+0279KEED V0302605N001552200059N0160935N5+00615-00565101805ADDAA101000095GF100991999999999999999999KA1999M+01171KA2999N+00611MA1101905098575MD1790009+9999REMMET11401/06/10 03:56:02 METAR KEED 061156Z 26003KT 10SM CLR 06/M06 A3009 RMK AO2 SLP180 T00611056 10117 20061 57000 TSNOEQDQ01+000072APCTENQ02    099SCCGD1P01    003SCCGA1
0197723805231792010010612567+34766-114620FM-15+0279KEED V0302505N003152200059N0160935N5+00675-00565101815ADDAA101000095GF100991999999999999999999MA1101905098575REMMET09801/06/10 04:56:02 METAR KEED 061256Z 25006KT 10SM CLR 07/M06 A3009 RMK AO2 SLP181 T00671056 TSNO $EQDQ01    099SCCGD1P01    003SCCGA1
0195723805231792010010613567+34766-114620FM-15+0279KEED V0302605N002152200059N0160935N5+00615-00565101875ADDAA101000095GF100991999999999999999999MA1101965098645REMMET09601/06/10 05:56:02 METAR KEED 061356Z 26004KT 10SM CLR 06/M06 A3011 RMK AO2 SLP187 T00611056 TSNOEQDQ01    099SCCGD1P01    003SCCGA1
0215723805231792010010614567+34766-114620FM-15+0279KEED V0302405N003152200059N0160935N5+00615-00505101915ADDAA101000095GF100991999999999999999999MA1102005098675MD1390089+9999REMMET10201/06/10 06:56:02 METAR KEED 061456Z 24006KT 10SM CLR 06/M05 A3012 RMK AO2 SLP191 T00611050 53008 TSNOEQDQ01    099SCCGD1P01    003SCCGA1
0195723805231792010010615567+34766-114620FM-15+0279KEED V0302705N002652200059N0160935N5+00895-00505101945ADDAA101000095GF100991999999999999999999MA1102035098705REMMET09601/06/10 07:56:02 METAR KEED 061556Z 27005KT 10SM CLR 09/M05 A3013 RMK AO2 SLP194 T00891050 TSNOEQDQ01    099SCCGD1P01    003SCCGA1
0195723805231792010010616567+34766-114620FM-15+0279KEED V0309999C000052200059N0160935N5+01335-00505101935ADDAA101000095GF100991999999999999999999MA1102035098705REMMET09601/06/10 08:56:02 METAR KEED 061656Z 00000KT 10SM CLR 13/M05 A3013 RMK AO2 SLP193 T01331050 TSNOEQDQ01    099SCCGD1P01    003SCCGA1
0253723805231792010010617567+34766-114620FM-15+0279KEED V0303605N002152200059N0160935N5+01445-00505101945ADDAA101000095GF100991999999999999999999KA1999M+01441KA2999N+00611MA1102075098745MD1190069+9999REMMET11401/06/10 09:56:02 METAR KEED 061756Z 36004KT 10SM CLR 14/M05 A3014 RMK AO2 SLP194 T01441050 10144 20061 51006 TSNOEQDQ01    099SCCGD1P01    003SCCGA1
0195723805231792010010618567+34766-114620FM-15+0279KEED V0300105N003152200059N0160935N5+01505-00505101895ADDAA101000095GF100991999999999999999999MA1102005098675REMMET09601/06/10 10:56:02 METAR KEED 061856Z 01006KT 10SM CLR 15/M05 A3012 RMK AO2 SLP189 T01501050 TSNOEQDQ01    099SCCGD1P01    003SCCGA1
0195723805231792010010619567+34766-114620FM-15+0279KEED V0300405N003152200059N0160935N5+01675-00445101765ADDAA101000095GF100991999999999999999999MA1101865098545REMMET09601/06/10 11:56:02 METAR KEED 061956Z 04006KT 10SM CLR 17/M04 A3008 RMK AO2 SLP176 T01671044 TSNOEQDQ01    099SCCGD1P01    003SCCGA1
0215723805231792010010620567+34766-114620FM-15+0279KEED V0309999V001552200059N0160935N5+01785-00505101645ADDAA101000095GF100991999999999999999999MA1101765098445MD1890309+9999REMMET10201/06/10 12:56:02 METAR KEED 062056Z VRB03KT 10SM CLR 18/M05 A3005 RMK AO2 SLP164 T01781050 58030 TSNOEQDQ01    099SCCGD1P01    003SCCGA1
0195723805231792010010621567+34766-114620FM-15+0279KEED V0303305N002652200059N0160935N5+02005-00505101555ADDAA101000095GF100991999999999999999999MA1101665098345REMMET09601/06/10 13:56:02 METAR KEED 062156Z 33005KT 10SM CLR 20/M05 A3002 RMK AO2 SLP155 T02001050 TSNOEQDQ01    099SCCGD1P01    003SCCGA1
0195723805231792010010622567+34766-114620FM-15+0279KEED V0303605N004152200059N0160935N5+02065-00565101505ADDAA101000095GF100991999999999999999999MA1101635098315REMMET09601/06/10 14:56:02 METAR KEED 062256Z 36008KT 10SM CLR 21/M06 A3001 RMK AO2 SLP150 T02061056 TSNOEQDQ01    099SCCGD1P01    003SCCGA1
0253723805231792010010623567+34766-114620FM-15+0279KEED V0300105N004152200059N0160935N5+02005-00565101505ADDAA101000095GF100991999999999999999999KA1999M+02061KA2999N+01441MA1101635098315MD1690139+9999REMMET11401/06/10 15:56:02 METAR KEED 062356Z 01008KT 10SM CLR 20/M06 A3001 RMK AO2 SLP150 T02001056 10206 20144 56013 TSNOEQDQ01    099SCCGD1P01    003SCCGA1
0195723805231792010010700567+34766-114620FM-15+0279KEED V0303205N002652200059N0160935N5+01835-00505101495ADDAA101000095GF100991999999999999999999MA1101595098285REMMET09601/06/10 16:56:02 METAR KEED 070056Z 32005KT 10SM CLR 18/M05 A3000 RMK AO2 SLP149 T01831050 TSNOEQDQ01    099SCCGD1P01    003SCCGA1
0195723805231792010010701567+34766-114620FM-15+0279KEED V0302805N003152200059N0160935N5+01565-00445101525ADDAA101000095GF100991999999999999999999MA1101635098315REMMET09601/06/10 17:56:02 METAR KEED 070156Z 28006KT 10SM CLR 16/M04 A3001 RMK AO2 SLP152 T01561044 TSNOEQDQ01    099SCCGD1P01    003SCCGA1
0215723805231792010010702567+34766-114620FM-15+0279KEED V0302705N003652200059N0160935N5+01395-00445101575ADDAA101000095GF100991999999999999999999MA1101665098345MD1390039+9999REMMET10201/06/10 18:56:02 METAR KEED 070256Z 27007KT 10SM CLR 14/M04 A3002 RMK AO2 SLP157 T01391044 53003 TSNOEQDQ01    099SCCGD1P01    003SCCGA1
0195723805231792010010703567+34766-114620FM-15+0279KEED V0302705N002652200059N0160935N5+01225-00395101555ADDAA101000095GF100991999999999999999999MA1101665098345REMMET09601/06/10 19:56:01 METAR KEED 070356Z 27005KT 10SM CLR 12/M04 A3002 RMK AO2 SLP155 T01221039 TSNOEQDQ01    099SCCGD1P01    003SCCGA1
0195723805231792010010704567+34766-114620FM-15+0279KEED V0309999C000052200059N0160935N5+01115-00395101585ADDAA101000095GF100991999999999999999999MA1101695098375REMMET09601/06/10 20:56:01 METAR KEED 070456Z 00000KT 10SM CLR 11/M04 A3003 RMK AO2 SLP158 T01111039 TSNOEQDQ01    099SCCGD1P01    003SCCGA1
0253723805231792010010705567+34766-114620FM-15+0279KEED V0302205N001552200059N0160935N5+01005-00395101605ADDAA101000095GF100991999999999999999999KA1999M+02061KA2999N+01001MA1101735098415MD1390069+9999REMMET11401/06/10 21:56:02 METAR KEED 070556Z 22003KT 10SM CLR 10/M04 A3004 RMK AO2 SLP160 T01001039 10206 20100 53006 TSNOEQDQ01    099SCCGD1P01    003SCCGA1
0195723805231792010010706567+34766-114620FM-15+0279KEED V0309999C000052200059N0160935N5+00945-00395101575ADDAA101000095GF100991999999999999999999MA1101695098375REMMET09601/06/10 22:56:01 METAR KEED 070656Z 00000KT 10SM CLR 09/M04 A3003 RMK AO2 SLP157 T00941039 TSNOEQDQ01    099SCCGD1P01    003SCCGA1
0205723805231792010010707567+34766-114620FM-15+0279KEED V0309999C000052200059N0160935N5+00835-00335101525ADDAA101000095GF100991999999999999999999MA1101635098315REMMET10601/06/10 23:56:02 METAR KEED 070756Z 00000KT 10SM CLR 08/M03 A3001 RMK AO2 SLP152 T00831033 402060061 TSNOEQDQ01    099SCCGD1P01    003SCCGA1
0989723805231792010010707596+34766-114620SOD  +0279KEED V030999999999999999999999999999+99999+99999999999ADDAA124000095KA1240M+02065KA2240N+00615KG1024W+0050D4KG2024D-0050D4MF1098484101694MG1098494101494OE11240071536015515OE22240058101015525OE33240021599999995RH1024X045D4RH2024N017D4RH3024M032D4REMSOD75424 HR PRECIPITATION (IN):0.00  24 HR MAX TEMP (F):69 24 HR MAX TEMP TIME (LST):1600 24 HR MIN TEMP (F):43 24 HR MIN TEMP TIME (LST):0702 AVERAGE STATION PRESSURE:29.085 MINIMUM SEA LEVEL PRESSURE:29.97 TIME OF OCCURRENCE:1737 PEAK WIND SPEED (MPH):16  PEAK WIND DIR (DEG):360 PEAK WIND TIME (LST):1551  FASTEST 2MIN SPEED (MPH):13 FASTEST 2MIN DIR (DEG):10  FASTEST 2MIN TIME (LST):1552 AVERAGE WIND SPEED (MPH):4.8  24 HR AVG TEMP (F):56 DEPART FROM NORMAL: +3  HEATING DEGREE DAYS:9   COOLING DEGREE DAYS:0   LATEST DAY MAX TEMP (0700-1900 LST):69  LATEST NIGHT MIN TEMP(1900-0800 LST):43 HOURLY INCREMENTAL PRECIPITATION VALUES (IN):.00 0.00 0.00 0.00 0.00 0.00 0.00 0.00 0.00 0.00 0.00 0.00 0.00 0.00 0.00 0.00 0.00 0.00 0.00 0.00 0.00 0.00 0.00 0.00EQDR01     N7GJS072R02     N7GKS075
0215723805231792010010708567+34766-114620FM-15+0279KEED V0309999C000052200059N0160935N5+00835-00335101525ADDAA101000095GF100991999999999999999999MA1101635098315MD1590079+9999REMMET10201/07/10 00:56:02 METAR KEED 070856Z 00000KT 10SM CLR 08/M03 A3001 RMK AO2 SLP152 T00831033 55007 TSNOEQDQ01    099SCCGD1P01    003SCCGA1
0195723805231792010010709567+34766-114620FM-15+0279KEED V0302605N002652200059N0160935N5+00785-00335101535ADDAA101000095GF100991999999999999999999MA1101665098345REMMET09601/07/10 01:56:02 METAR KEED 070956Z 26005KT 10SM CLR 08/M03 A3002 RMK AO2 SLP153 T00781033 TSNOEQDQ01    099SCCGD1P01    003SCCGA1
0195723805231792010010710567+34766-114620FM-15+0279KEED V0302605N002652200059N0160935N5+00785-00335101545ADDAA101000095GF100991999999999999999999MA1101665098345REMMET09601/07/10 02:56:02 METAR KEED 071056Z 26005KT 10SM CLR 08/M03 A3002 RMK AO2 SLP154 T00781033 TSNOEQDQ01    099SCCGD1P01    003SCCGA1
0253723805231792010010711567+34766-114620FM-15+0279KEED V0302305N001552200059N0160935N5+00725-00335101545ADDAA101000095GF100991999999999999999999KA1999M+01001KA2999N+00721MA1101665098345MD1190039+9999REMMET11401/07/10 03:56:02 METAR KEED 071156Z 23003KT 10SM CLR 07/M03 A3002 RMK AO2 SLP154 T00721033 10100 20072 51003 TSNOEQDQ01    099SCCGD1P01    003SCCGA1
0195723805231792010010712567+34766-114620FM-15+0279KEED V0302405N002652200059N0160935N5+00785-00335101565ADDAA101000095GF100991999999999999999999MA1101665098345REMMET09601/07/10 04:56:02 METAR KEED 071256Z 24005KT 10SM CLR 08/M03 A3002 RMK AO2 SLP156 T00781033 TSNOEQDQ01    099SCCGD1P01    003SCCGA1
0195723805231792010010713567+34766-114620FM-15+0279KEED V0302605N001552200059N0160935N5+00835-00335101605ADDAA101000095GF100991999999999999999999MA1101735098415REMMET09601/07/10 05:56:02 METAR KEED 071356Z 26003KT 10SM CLR 08/M03 A3004 RMK AO2 SLP160 T00831033 TSNOEQDQ01    099SCCGD1P01    003SCCGA1
0215723805231792010010714567+34766-114620FM-15+0279KEED V0302705N002152200059N0160935N5+00895-00285101645ADDAA101000095GF100991999999999999999999MA1101735098415MD1390069+9999REMMET10201/07/10 06:56:02 METAR KEED 071456Z 27004KT 10SM CLR 09/M03 A3004 RMK AO2 SLP164 T00891028 53006 TSNOEQDQ01    099SCCGD1P01    003SCCGA1
0195723805231792010010715567+34766-114620FM-15+0279KEED V0302505N002152200059N0160935N5+01115-00285101695ADDAA101000095GF100991999999999999999999MA1101795098475REMMET09601/07/10 07:56:02 METAR KEED 071556Z 25004KT 10SM CLR 11/M03 A3006 RMK AO2 SLP169 T01111028 TSNOEQDQ01    099SCCGD1P01    003SCCGA1
0195723805231792010010716567+34766-114620FM-15+0279KEED V0303005N002152200059N0160935N5+01445-00285101725ADDAA101000095GF100991999999999999999999MA1101835098515REMMET09601/07/10 08:56:02 METAR KEED 071656Z 30004KT 10SM CLR 14/M03 A3007 RMK AO2 SLP172 T01441028 TSNOEQDQ01    099SCCGD1P01    003SCCGA1
0253723805231792010010717567+34766-114620FM-15+0279KEED V0303605N003652200059N0160935N5+01615-00285101715ADDAA101000095GF100991999999999999999999KA1999M+01671KA2999N+00721MA1101835098515MD1190099+9999REMMET11401/07/10 09:56:02 METAR KEED 071756Z 36007KT 10SM CLR 16/M03 A3007 RMK AO2 SLP171 T01611028 10167 20072 51009 TSNOEQDQ01    099SCCGD1P01    003SCCGA1
0206723805231792010010718567+34766-114620FM-15+0279KEED V0300205N004652200059N0160935N5+01725-00175101665ADDAA101000095GF100991999999999999999999MA1101795098475OC100725REMMET09901/07/10 10:56:02 METAR KEED 071856Z 02009G14KT 10SM CLR 17/M02 A3006 RMK AO2 SLP166 T01721017 TSNOEQDQ01    099SCCGD1P01    003SCCGA1
0205723805231792010010719567+34766-114620FM-15+0279KEED V0300205N006252200059N0160935N5+02005+00005101525ADDAA101000095GF100991999999999999999999MA1101665098345OC100885REMMET09801/07/10 11:56:02 METAR KEED 071956Z 02012G17KT 10SM CLR 20/00 A3002 RMK AO2 SLP152 T02000000 TSNOEQDQ01    099SCCGD1P01    003SCCGA1
0225723805231792010010720567+34766-114620FM-15+0279KEED V0300205N009352200059N0160935N5+02115+00005101435ADDAA101000095GF100991999999999999999999MA1101595098285MD1890269+9999OC101245REMMET10401/07/10 12:56:02 METAR KEED 072056Z 02018G24KT 10SM CLR 21/00 A3000 RMK AO2 SLP143 T02110000 58026 TSNOEQDQ01    099SCCGD1P01    003SCCGA1
0205723805231792010010721567+34766-114620FM-15+0279KEED V0300305N008252200059N0160935N5+02175+00005101405ADDAA101000095GF100991999999999999999999MA1101565098245OC101135REMMET09801/07/10 13:56:02 METAR KEED 072156Z 03016G22KT 10SM CLR 22/00 A2999 RMK AO2 SLP140 T02170000 TSNOEQDQ01    099SCCGD1P01    003SCCGA1
0194723805231792010010722567+34766-114620FM-15+0279KEED V0300305N008852200059N0160935N5+02175+00005101385ADDAA101000095GF100991999999999999999999MA1101525098215REMMET09501/07/10 14:56:02 METAR KEED 072256Z 03017KT 10SM CLR 22/00 A2998 RMK AO2 SLP138 T02170000 TSNOEQDQ01    099SCCGD1P01    003SCCGA1
0279723805231792010010723567+34766-114620FM-15+0279KEED V0300305N007752200059N0160935N5+02065+00065101445ADDAA101000095GF100991999999999999999999KA1999M+02221KA2999N+01611MA1101595098285MD1390009+9999OC101035REMMET11601/07/10 15:56:02 METAR KEED 072356Z 03015G20KT 10SM CLR 21/01 A3000 RMK AO2 SLP144 T02060006 10222 20161 53000 TSNOEQDQ01+000002APC3  Q02    099SCCGD1P01    003SCCGA1
0194723805231792010010800567+34766-114620FM-15+0279KEED V0300105N006252200059N0160935N5+01895+00065101505ADDAA101000095GF100991999999999999999999MA1101635098315REMMET09501/07/10 16:56:02 METAR KEED 080056Z 01012KT 10SM CLR 19/01 A3001 RMK AO2 SLP150 T01890006 TSNOEQDQ01    099SCCGD1P01    003SCCGA1
0194723805231792010010801567+34766-114620FM-15+0279KEED V0303505N004652200059N0160935N5+01785+00065101565ADDAA101000095GF100991999999999999999999MA1101695098375REMMET09501/07/10 17:56:02 METAR KEED 080156Z 35009KT 10SM CLR 18/01 A3003 RMK AO2 SLP156 T01780006 TSNOEQDQ01    099SCCGD1P01    003SCCGA1
0214723805231792010010802567+34766-114620FM-15+0279KEED V0303605N005152200059N0160935N5+01675+00065101625ADDAA101000095GF100991999999999999999999MA1101735098415MD1390159+9999REMMET10101/07/10 18:56:01 METAR KEED 080256Z 36010KT 10SM CLR 17/01 A3004 RMK AO2 SLP162 T01670006 53015 TSNOEQDQ01    099SCCGD1P01    003SCCGA1
0194723805231792010010803567+34766-114620FM-15+0279KEED V0300105N005752200059N0160935N5+01675+00005101615ADDAA101000095GF100991999999999999999999MA1101765098445REMMET09501/07/10 19:56:01 METAR KEED 080356Z 01011KT 10SM CLR 17/00 A3005 RMK AO2 SLP161 T01670000 TSNOEQDQ01    099SCCGD1P01    003SCCGA1
0194723805231792010010804567+34766-114620FM-15+0279KEED V0303605N002652200059N0160935N5+01615+00005101635ADDAA101000095GF100991999999999999999999MA1101795098475REMMET09501/07/10 20:56:02 METAR KEED 080456Z 36005KT 10SM CLR 16/00 A3006 RMK AO2 SLP163 T01610000 TSNOEQDQ01    099SCCGD1P01    003SCCGA1
0253723805231792010010805567+34766-114620FM-15+0279KEED V0303605N006252200059N0160935N5+01675-00065101675ADDAA101000095GF100991999999999999999999KA1999M+02061KA2999N+01611MA1101835098515MD1390109+9999REMMET11401/07/10 21:56:02 METAR KEED 080556Z 36012KT 10SM CLR 17/M01 A3007 RMK AO2 SLP167 T01671006 10206 20161 53010 TSNOEQDQ01    099SCCGD1P01    003SCCGA1
0195723805231792010010806567+34766-114620FM-15+0279KEED V0303605N006752200059N0160935N5+01615-00115101715ADDAA101000095GF100991999999999999999999MA1101865098545REMMET09601/07/10 22:56:02 METAR KEED 080656Z 36013KT 10SM CLR 16/M01 A3008 RMK AO2 SLP171 T01611011 TSNOEQDQ01    099SCCGD1P01    003SCCGA1
0216723805231792010010807567+34766-114620FM-15+0279KEED V0303605N006752200059N0160935N5+01505-00225101715ADDAA101000095GF100991999999999999999999MA1101865098545OC101035REMMET10901/07/10 23:56:02 METAR KEED 080756Z 36013G20KT 10SM CLR 15/M02 A3008 RMK AO2 SLP171 T01501022 402220072 TSNOEQDQ01    099SCCGD1P01    003SCCGA1
0989723805231792010010807596+34766-114620SOD  +0279KEED V030999999999999999999999999999+99999+99999999999ADDAA124000095KA1240M+02225KA2240N+00725KG1024W+0072D4KG2024D-0017D4MF1098414101564MG1098414101394OE11240125203014425OE22240102802012555OE33240045699999995RH1024X048D4RH2024N024D4RH3024M034D4REMSOD75424 HR PRECIPITATION (IN):0.00  24 HR MAX TEMP (F):72 24 HR MAX TEMP TIME (LST):1316 24 HR MIN TEMP (F):45 24 HR MIN TEMP TIME (LST):0428 AVERAGE STATION PRESSURE:29.060 MINIMUM SEA LEVEL PRESSURE:29.94 TIME OF OCCURRENCE:1527 PEAK WIND SPEED (MPH):28  PEAK WIND DIR (DEG):30  PEAK WIND TIME (LST):1442  FASTEST 2MIN SPEED (MPH):23 FASTEST 2MIN DIR (DEG):20  FASTEST 2MIN TIME (LST):1255 AVERAGE WIND SPEED (MPH):10.2 24 HR AVG TEMP (F):59 DEPART FROM NORMAL: +6  HEATING DEGREE DAYS:6   COOLING DEGREE DAYS:0   LATEST DAY MAX TEMP (0700-1900 LST):72  LATEST NIGHT MIN TEMP(1900-0800 LST):45 HOURLY INCREMENTAL PRECIPITATION VALUES (IN):.00 0.00 0.00 0.00 0.00 0.00 0.00 0.00 0.00 0.00 0.00 0.00 0.00 0.00 0.00 0.00 0.00 0.00 0.00 0.00 0.00 0.00 0.00 0.00EQDR01     N7GJS072R02     N7GKS075
0215723805231792010010808567+34766-114620FM-15+0279KEED V0303505N005752200059N0160935N5+01335-00285101825ADDAA101000095GF100991999999999999999999MA1102005098675MD1390159+9999REMMET10201/08/10 00:56:02 METAR KEED 080856Z 35011KT 10SM CLR 13/M03 A3012 RMK AO2 SLP182 T01331028 53015 TSNOEQDQ01    099SCCGD1P01    003SCCGA1
0195723805231792010010809567+34766-114620FM-15+0279KEED V0303605N005752200059N0160935N5+01225-00335101885ADDAA101000095GF100991999999999999999999MA1102035098705REMMET09601/08/10 01:56:02 METAR KEED 080956Z 36011KT 10SM CLR 12/M03 A3013 RMK AO2 SLP188 T01221033 TSNOEQDQ01    099SCCGD1P01    003SCCGA1
0195723805231792010010810567+34766-114620FM-15+0279KEED V0303505N005752200059N0160935N5+01115-00335101875ADDAA101000095GF100991999999999999999999MA1102035098705REMMET09601/08/10 02:56:02 METAR KEED 081056Z 35011KT 10SM CLR 11/M03 A3013 RMK AO2 SLP187 T01111033 TSNOEQDQ01    099SCCGD1P01    003SCCGA1
0253723805231792010010811567+34766-114620FM-15+0279KEED V0303605N008252200059N0160935N5+01175-00395101895ADDAA101000095GF100991999999999999999999KA1999M+01671KA2999N+01111MA1102035098705MD1190069+9999REMMET11401/08/10 03:56:02 METAR KEED 081156Z 36016KT 10SM CLR 12/M04 A3013 RMK AO2 SLP189 T01171039 10167 20111 51006 TSNOEQDQ01    099SCCGD1P01    003SCCGA1
0195723805231792010010812567+34766-114620FM-15+0279KEED V0303505N007752200059N0160935N5+01175-00445101955ADDAA101000095GF100991999999999999999999MA1102105098775REMMET09601/08/10 04:56:02 METAR KEED 081256Z 35015KT 10SM CLR 12/M04 A3015 RMK AO2 SLP195 T01171044 TSNOEQDQ01    099SCCGD1P01    003SCCGA1
0195723805231792010010813567+34766-114620FM-15+0279KEED V0300105N005752200059N0160935N5+01115-00445102055ADDAA101000095GF100991999999999999999999MA1102175098845REMMET09601/08/10 05:56:02 METAR KEED 081356Z 01011KT 10SM CLR 11/M04 A3017 RMK AO2 SLP205 T01111044 TSNOEQDQ01    099SCCGD1P01    003SCCGA1
0215723805231792010010814567+34766-114620FM-15+0279KEED V0303605N006752200059N0160935N5+01065-00445102175ADDAA101000095GF100991999999999999999999MA1102305098975MD1390259+9999REMMET10201/08/10 06:56:02 METAR KEED 081456Z 36013KT 10SM CLR 11/M04 A3021 RMK AO2 SLP217 T01061044 53025 TSNOEQDQ01    099SCCGD1P01    003SCCGA1
0195723805231792010010815567+34766-114620FM-15+0279KEED V0303605N005752200059N0160935N5+01115-00445102235ADDAA101000095GF100991999999999999999999MA1102375099035REMMET09601/08/10 07:56:02 METAR KEED 081556Z 36011KT 10SM CLR 11/M04 A3023 RMK AO2 SLP223 T01111044 TSNOEQDQ01    099SCCGD1P01    003SCCGA1
0195723805231792010010816567+34766-114620FM-15+0279KEED V0300105N007252200059N0160935N5+01285-00395102315ADDAA101000095GF100991999999999999999999MA1102445099105REMMET09601/08/10 08:56:02 METAR KEED 081656Z 01014KT 10SM CLR 13/M04 A3025 RMK AO2 SLP231 T01281039 TSNOEQDQ01    099SCCGD1P01    003SCCGA1
0282723805231792010010817567+34766-114620FM-15+0279KEED V0300105N010352200059N0160935N5+01445-00445102335ADDAA101000095GF100991999999999999999999KA1999M+01441KA2999N+01061MA1102475099135MD1190179+9999OC101345REMMET13501/08/10 09:56:02 METAR KEED 081756Z 01020G26KT 10SM CLR 14/M04 A3026 RMK AO2 PK WND 01026/1755 SLP233 T01441044 10144 20106 51017 TSNOEQDQ01    099SCCGD1P01    003SCCGA1
0224723805231792010010818567+34766-114620FM-15+0279KEED V0300205N008852200059N0160935N5+01565-00505102275ADDAA101000095GF100991999999999999999999MA1102445099105OC101245REMMET11701/08/10 10:56:02 METAR KEED 081856Z 02017G24KT 10SM CLR 16/M05 A3025 RMK AO2 PK WND 01027/1804 SLP227 T01561050 TSNOEQDQ01    099SCCGD1P01    003SCCGA1
0195723805231792010010819567+34766-114620FM-15+0279KEED V0300105N008852200059N0160935N5+01615-00505102175ADDAA101000095GF100991999999999999999999MA1102305098975REMMET09601/08/10 11:56:02 METAR KEED 081956Z 01017KT 10SM CLR 16/M05 A3021 RMK AO2 SLP217 T01611050 TSNOEQDQ01    099SCCGD1P01    003SCCGA1
0215723805231792010010820567+34766-114620FM-15+0279KEED V0300205N008252200059N0160935N5+01675-00505102115ADDAA101000095GF100991999999999999999999MA1102245098905MD1890229+9999REMMET10201/08/10 12:56:02 METAR KEED 082056Z 02016KT 10SM CLR 17/M05 A3019 RMK AO2 SLP211 T01671050 58022 TSNOEQDQ01    099SCCGD1P01    003SCCGA1
0195723805231792010010821567+34766-114620FM-15+0279KEED V0300105N006752200059N0160935N5+01675-00505102115ADDAA101000095GF100991999999999999999999MA1102245098905REMMET09601/08/10 13:56:02 METAR KEED 082156Z 01013KT 10SM CLR 17/M05 A3019 RMK AO2 SLP211 T01671050 TSNOEQDQ01    099SCCGD1P01    003SCCGA1
0195723805231792010010822567+34766-114620FM-15+0279KEED V0300205N006752200059N0160935N5+01675-00505102125ADDAA101000095GF100991999999999999999999MA1102275098935REMMET09601/08/10 14:56:02 METAR KEED 082256Z 02013KT 10SM CLR 17/M05 A3020 RMK AO2 SLP212 T01671050 TSNOEQDQ01    099SCCGD1P01    003SCCGA1
0253723805231792010010823567+34766-114620FM-15+0279KEED V0303605N004152200059N0160935N5+01565-00445102145ADDAA101000095GF100991999999999999999999KA1999M+01721KA2999N+01441MA1102275098935MD1390029+9999REMMET11401/08/10 15:56:02 METAR KEED 082356Z 36008KT 10SM CLR 16/M04 A3020 RMK AO2 SLP214 T01561044 10172 20144 53002 TSNOEQDQ01    099SCCGD1P01    003SCCGA1
0195723805231792010010900567+34766-114620FM-15+0279KEED V0303505N004152200059N0160935N5+01505-00565102175ADDAA101000095GF100991999999999999999999MA1102305098975REMMET09601/08/10 16:56:01 METAR KEED 090056Z 35008KT 10SM CLR 15/M06 A3021 RMK AO2 SLP217 T01501056 TSNOEQDQ01    099SCCGD1P01    003SCCGA1
0195723805231792010010901567+34766-114620FM-15+0279KEED V0303405N004152200059N0160935N5+01445-00565102195ADDAA101000095GF100991999999999999999999MA1102305098975REMMET09601/08/10 17:56:01 METAR KEED 090156Z 34008KT 10SM CLR 14/M06 A3021 RMK AO2 SLP219 T01441056 TSNOEQDQ01    099SCCGD1P01    003SCCGA1
0215723805231792010010902567+34766-114620FM-15+0279KEED V0303505N004152200059N0160935N5+01395-00565102235ADDAA101000095GF100991999999999999999999MA1102345099005MD1390079+9999REMMET10201/08/10 18:56:01 METAR KEED 090256Z 35008KT 10SM CLR 14/M06 A3022 RMK AO2 SLP223 T01391056 53007 TSNOEQDQ01    099SCCGD1P01    003SCCGA1
0195723805231792010010903567+34766-114620FM-15+0279KEED V0303305N002152200059N0160935N5+01285-00615102285ADDAA101000095GF100991999999999999999999MA1102375099035REMMET09601/08/10 19:56:01 METAR KEED 090356Z 33004KT 10SM CLR 13/M06 A3023 RMK AO2 SLP228 T01281061 TSNOEQDQ01    099SCCGD1P01    003SCCGA1
0195723805231792010010904567+34766-114620FM-15+0279KEED V0303205N003152200059N0160935N5+01225-00615102335ADDAA101000095GF100991999999999999999999MA1102445099105REMMET09601/08/10 20:56:02 METAR KEED 090456Z 32006KT 10SM CLR 12/M06 A3025 RMK AO2 SLP233 T01221061 TSNOEQDQ01    099SCCGD1P01    003SCCGA1
0253723805231792010010905567+34766-114620FM-15+0279KEED V0303305N003152200059N0160935N5+01175-00615102375ADDAA101000095GF100991999999999999999999KA1999M+01561KA2999N+01111MA1102475099135MD1390159+9999REMMET11401/08/10 21:56:02 METAR KEED 090556Z 33006KT 10SM CLR 12/M06 A3026 RMK AO2 SLP237 T01171061 10156 20111 53015 TSNOEQDQ01    099SCCGD1P01    003SCCGA1
0195723805231792010010906567+34766-114620FM-15+0279KEED V0303305N003652200059N0160935N5+01175-00675102375ADDAA101000095GF100991999999999999999999MA1102515099175REMMET09601/08/10 22:56:02 METAR KEED 090656Z 33007KT 10SM CLR 12/M07 A3027 RMK AO2 SLP237 T01171067 TSNOEQDQ01    099SCCGD1P01    003SCCGA1
0205723805231792010010907567+34766-114620FM-15+0279KEED V0303105N002652200059N0160935N5+01005-00615102345ADDAA101000095GF100991999999999999999999MA1102475099135REMMET10601/08/10 23:56:02 METAR KEED 090756Z 31005KT 10SM CLR 10/M06 A3026 RMK AO2 SLP234 T01001061 401720100 TSNOEQDQ01    099SCCGD1P01    003SCCGA1
0989723805231792010010907596+34766-114620SOD  +0279KEED V030999999999999999999999999999+99999+99999999999ADDAA124000095KA1240M+01725KA2240N+01005KG1024W+0056D4KG2024D-0050D4MF1098984102174MG1098974101734OE11240138601010045OE22240116201010045OE33240057799999995RH1024X037D4RH2024N022D4RH3024M028D4REMSOD75424 HR PRECIPITATION (IN):0.00  24 HR MAX TEMP (F):63 24 HR MAX TEMP TIME (LST):1342 24 HR MIN TEMP (F):50 24 HR MIN TEMP TIME (LST):2359 AVERAGE STATION PRESSURE:29.225 MINIMUM SEA LEVEL PRESSURE:30.04 TIME OF OCCURRENCE:0009 PEAK WIND SPEED (MPH):31  PEAK WIND DIR (DEG):10  PEAK WIND TIME (LST):1004  FASTEST 2MIN SPEED (MPH):26 FASTEST 2MIN DIR (DEG):10  FASTEST 2MIN TIME (LST):1004 AVERAGE WIND SPEED (MPH):12.9 24 HR AVG TEMP (F):57 DEPART FROM NORMAL: +4  HEATING DEGREE DAYS:8   COOLING DEGREE DAYS:0   LATEST DAY MAX TEMP (0700-1900 LST):63  LATEST NIGHT MIN TEMP(1900-0800 LST):51 HOURLY INCREMENTAL PRECIPITATION VALUES (IN):.00 0.00 0.00 0.00 0.00 0.00 0.00 0.00 0.00 0.00 0.00 0.00 0.00 0.00 0.00 0.00 0.00 0.00 0.00 0.00 0.00 0.00 0.00 0.00EQDR01     N7GJS072R02     N7GKS075
0215723805231792010010908567+34766-114620FM-15+0279KEED V0303305N001552200059N0160935N5+00945-00675102335ADDAA101000095GF100991999999999999999999MA1102445099105MD1890049+9999REMMET10201/09/10 00:56:02 METAR KEED 090856Z 33003KT 10SM CLR 09/M07 A3025 RMK AO2 SLP233 T00941067 58004 TSNOEQDQ01    099SCCGD1P01    003SCCGA1
0195723805231792010010909567+34766-114620FM-15+0279KEED V0302605N003652200059N0160935N5+00725-00615102365ADDAA101000095GF100991999999999999999999MA1102475099135REMMET09601/09/10 01:56:02 METAR KEED 090956Z 26007KT 10SM CLR 07/M06 A3026 RMK AO2 SLP236 T00721061 TSNOEQDQ01    099SCCGD1P01    003SCCGA1
0195723805231792010010910567+34766-114620FM-15+0279KEED V0302605N003152200059N0160935N5+00725-00615102345ADDAA101000095GF100991999999999999999999MA1102445099105REMMET09601/09/10 02:56:02 METAR KEED 091056Z 26006KT 10SM CLR 07/M06 A3025 RMK AO2 SLP234 T00721061 TSNOEQDQ01    099SCCGD1P01    003SCCGA1
0253723805231792010010911567+34766-114620FM-15+0279KEED V0303005N003152200059N0160935N5+00785-00675102335ADDAA101000095GF100991999999999999999999KA1999M+01281KA2999N+00671MA1102445099105MD1890029+9999REMMET11401/09/10 03:56:02 METAR KEED 091156Z 30006KT 10SM CLR 08/M07 A3025 RMK AO2 SLP233 T00781067 10128 20067 58002 TSNOEQDQ01    099SCCGD1P01    003SCCGA1
0195723805231792010010912567+34766-114620FM-15+0279KEED V0303205N001552200059N0160935N5+00725-00675102375ADDAA101000095GF100991999999999999999999MA1102445099105REMMET09601/09/10 04:56:02 METAR KEED 091256Z 32003KT 10SM CLR 07/M07 A3025 RMK AO2 SLP237 T00721067 TSNOEQDQ01    099SCCGD1P01    003SCCGA1
0195723805231792010010913567+34766-114620FM-15+0279KEED V0309999C000052200059N0160935N5+00725-00675102395ADDAA101000095GF100991999999999999999999MA1102475099135REMMET09601/09/10 05:56:02 METAR KEED 091356Z 00000KT 10SM CLR 07/M07 A3026 RMK AO2 SLP239 T00721067 TSNOEQDQ01    099SCCGD1P01    003SCCGA1
0215723805231792010010914567+34766-114620FM-15+0279KEED V0302505N003152200059N0160935N5+00505-00675102445ADDAA101000095GF100991999999999999999999MA1102515099175MD1390089+9999REMMET10201/09/10 06:56:02 METAR KEED 091456Z 25006KT 10SM CLR 05/M07 A3027 RMK AO2 SLP244 T00501067 53008 TSNOEQDQ01    099SCCGD1P01    003SCCGA1
0195723805231792010010915567+34766-114620FM-15+0279KEED V0309999C000052200059N0160935N5+01065-00675102475ADDAA101000095GF100991999999999999999999MA1102575099235REMMET09601/09/10 07:56:02 METAR KEED 091556Z 00000KT 10SM CLR 11/M07 A3029 RMK AO2 SLP247 T01061067 TSNOEQDQ01    099SCCGD1P01    003SCCGA1
0195723805231792010010916567+34766-114620FM-15+0279KEED V0300105N003652200059N0160935N5+01225-00675102505ADDAA101000095GF100991999999999999999999MA1102615099265REMMET09601/09/10 08:56:02 METAR KEED 091656Z 01007KT 10SM CLR 12/M07 A3030 RMK AO2 SLP250 T01221067 TSNOEQDQ01    099SCCGD1P01    003SCCGA1
0253723805231792010010917567+34766-114620FM-15+0279KEED V0300205N005152200059N0160935N5+01335-00675102495ADDAA101000095GF100991999999999999999999KA1999M+01331KA2999N+00501MA1102615099265MD1090089+9999REMMET11401/09/10 09:56:02 METAR KEED 091756Z 02010KT 10SM CLR 13/M07 A3030 RMK AO2 SLP249 T01331067 10133 20050 50008 TSNOEQDQ01    099SCCGD1P01    003SCCGA1
0195723805231792010010918567+34766-114620FM-15+0279KEED V0309999C000052200059N0160935N5+01445-00675102425ADDAA101000095GF100991999999999999999999MA1102545099205REMMET09601/09/10 10:56:02 METAR KEED 091856Z 00000KT 10SM CLR 14/M07 A3028 RMK AO2 SLP242 T01441067 TSNOEQDQ01    099SCCGD1P01    003SCCGA1
0195723805231792010010919567+34766-114620FM-15+0279KEED V0309999V001552200059N0160935N5+01565-00725102315ADDAA101000095GF100991999999999999999999MA1102445099105REMMET09601/09/10 11:56:02 METAR KEED 091956Z VRB03KT 10SM CLR 16/M07 A3025 RMK AO2 SLP231 T01561072 TSNOEQDQ01    099SCCGD1P01    003SCCGA1
0215723805231792010010920567+34766-114620FM-15+0279KEED V0303405N004152200059N0160935N5+01725-00675102185ADDAA101000095GF100991999999999999999999MA1102305098975MD1890299+9999REMMET10201/09/10 12:56:02 METAR KEED 092056Z 34008KT 10SM CLR 17/M07 A3021 RMK AO2 SLP218 T01721067 58029 TSNOEQDQ01    099SCCGD1P01    003SCCGA1
0195723805231792010010921567+34766-114620FM-15+0279KEED V0300105N003652200059N0160935N5+01835-00895102105ADDAA101000095GF100991999999999999999999MA1102205098875REMMET09601/09/10 13:56:02 METAR KEED 092156Z 01007KT 10SM CLR 18/M09 A3018 RMK AO2 SLP210 T01831089 TSNOEQDQ01    099SCCGD1P01    003SCCGA1
0195723805231792010010922567+34766-114620FM-15+0279KEED V0300305N004152200059N0160935N5+01835-00835102075ADDAA101000095GF100991999999999999999999MA1102175098845REMMET09601/09/10 14:56:02 METAR KEED 092256Z 03008KT 10SM CLR 18/M08 A3017 RMK AO2 SLP207 T01831083 TSNOEQDQ01    099SCCGD1P01    003SCCGA1
0253723805231792010010923567+34766-114620FM-15+0279KEED V0300205N004152200059N0160935N5+01785-00895102035ADDAA101000095GF100991999999999999999999KA1999M+01831KA2999N+01331MA1102135098805MD1690159+9999REMMET11401/09/10 15:56:02 METAR KEED 092356Z 02008KT 10SM CLR 18/M09 A3016 RMK AO2 SLP203 T01781089 10183 20133 56015 TSNOEQDQ01    099SCCGD1P01    003SCCGA1
0195723805231792010011000567+34766-114620FM-15+0279KEED V0303305N003152200059N0160935N5+01565-00895102045ADDAA101000095GF100991999999999999999999MA1102135098805REMMET09601/09/10 16:56:01 METAR KEED 100056Z 33006KT 10SM CLR 16/M09 A3016 RMK AO2 SLP204 T01561089 TSNOEQDQ01    099SCCGD1P01    003SCCGA1
0195723805231792010011001567+34766-114620FM-15+0279KEED V0303405N003652200059N0160935N5+01505-00895102085ADDAA101000095GF100991999999999999999999MA1102175098845REMMET09601/09/10 17:56:01 METAR KEED 100156Z 34007KT 10SM CLR 15/M09 A3017 RMK AO2 SLP208 T01501089 TSNOEQDQ01    099SCCGD1P01    003SCCGA1
0215723805231792010011002567+34766-114620FM-15+0279KEED V0303105N003652200059N0160935N5+01395-00895102145ADDAA101000095GF100991999999999999999999MA1102205098875MD1390069+9999REMMET10201/09/10 18:56:01 METAR KEED 100256Z 31007KT 10SM CLR 14/M09 A3018 RMK AO2 SLP214 T01391089 53006 TSNOEQDQ01    099SCCGD1P01    003SCCGA1
0195723805231792010011003567+34766-114620FM-15+0279KEED V0303605N005152200059N0160935N5+01445-00895102085ADDAA101000095GF100991999999999999999999MA1102205098875REMMET09601/09/10 19:56:02 METAR KEED 100356Z 36010KT 10SM CLR 14/M09 A3018 RMK AO2 SLP208 T01441089 TSNOEQDQ01    099SCCGD1P01    003SCCGA1
0195723805231792010011004567+34766-114620FM-15+0279KEED V0303205N003152200059N0160935N5+01285-00945102135ADDAA101000095GF100991999999999999999999MA1102245098905REMMET09601/09/10 20:56:02 METAR KEED 100456Z 32006KT 10SM CLR 13/M09 A3019 RMK AO2 SLP213 T01281094 TSNOEQDQ01    099SCCGD1P01    003SCCGA1
0253723805231792010011005567+34766-114620FM-15+0279KEED V0303305N002152200059N0160935N5+01065-00895102145ADDAA101000095GF100991999999999999999999KA1999M+01781KA2999N+01061MA1102245098905MD1390049+9999REMMET11401/09/10 21:56:02 METAR KEED 100556Z 33004KT 10SM CLR 11/M09 A3019 RMK AO2 SLP214 T01061089 10178 20106 53004 TSNOEQDQ01    099SCCGD1P01    003SCCGA1
0195723805231792010011006567+34766-114620FM-15+0279KEED V0302905N002152200059N0160935N5+01065-00835102115ADDAA101000095GF100991999999999999999999MA1102205098875REMMET09601/09/10 22:56:02 METAR KEED 100656Z 29004KT 10SM CLR 11/M08 A3018 RMK AO2 SLP211 T01061083 TSNOEQDQ01    099SCCGD1P01    003SCCGA1
0205723805231792010011007567+34766-114620FM-15+0279KEED V0302905N002652200059N0160935N5+01005-00785102085ADDAA101000095GF100991999999999999999999MA1102205098875REMMET10601/09/10 23:56:02 METAR KEED 100756Z 29005KT 10SM CLR 10/M08 A3018 RMK AO2 SLP208 T01001078 401830050 TSNOEQDQ01    099SCCGD1P01    003SCCGA1
0989723805231792010011007596+34766-114620SOD  +0279KEED V030999999999999999999999999999+99999+99999999999ADDAA124000095KA1240M+01835KA2240N+00505KG1024W+0044D4KG2024D-0078D4MF1099024102244MG1099024102034OE11240076002009525OE22240062601020045OE33240028299999995RH1024X043D4RH2024N015D4RH3024M026D4REMSOD75424 HR PRECIPITATION (IN):0.00  24 HR MAX TEMP (F):65 24 HR MAX TEMP TIME (LST):1522 24 HR MIN TEMP (F):41 24 HR MIN TEMP TIME (LST):0656 AVERAGE STATION PRESSURE:29.240 MINIMUM SEA LEVEL PRESSURE:30.13 TIME OF OCCURRENCE:1716 PEAK WIND SPEED (MPH):17  PEAK WIND DIR (DEG):20  PEAK WIND TIME (LST):0952  FASTEST 2MIN SPEED (MPH):14 FASTEST 2MIN DIR (DEG):10  FASTEST 2MIN TIME (LST):2004 AVERAGE WIND SPEED (MPH):6.3  24 HR AVG TEMP (F):53 DEPART FROM NORMAL: 0   HEATING DEGREE DAYS:12  COOLING DEGREE DAYS:0   LATEST DAY MAX TEMP (0700-1900 LST):65  LATEST NIGHT MIN TEMP(1900-0800 LST):41 HOURLY INCREMENTAL PRECIPITATION VALUES (IN):.00 0.00 0.00 0.00 0.00 0.00 0.00 0.00 0.00 0.00 0.00 0.00 0.00 0.00 0.00 0.00 0.00 0.00 0.00 0.00 0.00 0.00 0.00 0.00EQDR01     N7GJS072R02     N7GKS075
0215723805231792010011008567+34766-114620FM-15+0279KEED V0302405N002652200059N0160935N5+00945-00785102075ADDAA101000095GF100991999999999999999999MA1102205098875MD1690069+9999REMMET10201/10/10 00:56:02 METAR KEED 100856Z 24005KT 10SM CLR 09/M08 A3018 RMK AO2 SLP207 T00941078 56006 TSNOEQDQ01    099SCCGD1P01    003SCCGA1
0195723805231792010011009567+34766-114620FM-15+0279KEED V0303105N001552200059N0160935N5+01005-00835102055ADDAA101000095GF100991999999999999999999MA1102175098845REMMET09601/10/10 01:56:02 METAR KEED 100956Z 31003KT 10SM CLR 10/M08 A3017 RMK AO2 SLP205 T01001083 TSNOEQDQ01    099SCCGD1P01    003SCCGA1
0195723805231792010011010567+34766-114620FM-15+0279KEED V0302505N002652200059N0160935N5+00895-00785102065ADDAA101000095GF100991999999999999999999MA1102205098875REMMET09601/10/10 02:56:02 METAR KEED 101056Z 25005KT 10SM CLR 09/M08 A3018 RMK AO2 SLP206 T00891078 TSNOEQDQ01    099SCCGD1P01    003SCCGA1
0253723805231792010011011567+34766-114620FM-15+0279KEED V0309999V001552200059N0160935N5+01115-00785102045ADDAA101000095GF100991999999999999999999KA1999M+01171KA2999N+00831MA1102175098845MD1890019+9999REMMET11401/10/10 03:56:02 METAR KEED 101156Z VRB03KT 10SM CLR 11/M08 A3017 RMK AO2 SLP204 T01111078 10117 20083 58001 TSNOEQDQ01    099SCCGD1P01    003SCCGA1
0195723805231792010011012567+34766-114620FM-15+0279KEED V0309999C000052200059N0160935N5+01065-00785102065ADDAA101000095GF100991999999999999999999MA1102175098845REMMET09601/10/10 04:56:02 METAR KEED 101256Z 00000KT 10SM CLR 11/M08 A3017 RMK AO2 SLP206 T01061078 TSNOEQDQ01    099SCCGD1P01    003SCCGA1
0194723805231792010011013567+34766-114620FM-15+0279KEED V0309999C000052200059N0160935N5+01065-00725102095ADDAA101000095GA1025+036585999GD11991+0365859GF102991999999999999999999MA1102205098875REMMET09901/10/10 05:56:02 METAR KEED 101356Z 00000KT 10SM FEW120 11/M07 A3018 RMK AO2 SLP209 T01061072 TSNO
0215723805231792010011014567+34766-114620FM-15+0279KEED V0303005N003652200059N0160935N5+01065-00725102155ADDAA101000095GF100991999999999999999999MA1102275098935MD1390089+9999REMMET10201/10/10 06:56:02 METAR KEED 101456Z 30007KT 10SM CLR 11/M07 A3020 RMK AO2 SLP215 T01061072 53008 TSNOEQDQ01    099SCCGD1P01    003SCCGA1
0195723805231792010011015567+34766-114620FM-15+0279KEED V0302805N002652200059N0160935N5+01065-00675102175ADDAA101000095GF100991999999999999999999MA1102275098935REMMET09601/10/10 07:56:02 METAR KEED 101556Z 28005KT 10SM CLR 11/M07 A3020 RMK AO2 SLP217 T01061067 TSNOEQDQ01    099SCCGD1P01    003SCCGA1
0195723805231792010011016567+34766-114620FM-15+0279KEED V0303105N002152200059N0160935N5+01395-00725102215ADDAA101000095GF100991999999999999999999MA1102345099005REMMET09601/10/10 08:56:02 METAR KEED 101656Z 31004KT 10SM CLR 14/M07 A3022 RMK AO2 SLP221 T01391072 TSNOEQDQ01    099SCCGD1P01    003SCCGA1
0253723805231792010011017567+34766-114620FM-15+0279KEED V0300105N005152200059N0160935N5+01565-00785102245ADDAA101000095GF100991999999999999999999KA1999M+01561KA2999N+00941MA1102375099035MD1390109+9999REMMET11401/10/10 09:56:02 METAR KEED 101756Z 01010KT 10SM CLR 16/M08 A3023 RMK AO2 SLP224 T01561078 10156 20094 53010 TSNOEQDQ01    099SCCGD1P01    003SCCGA1
0195723805231792010011018567+34766-114620FM-15+0279KEED V0300205N004652200059N0160935N5+01675-00725102155ADDAA101000095GF100991999999999999999999MA1102275098935REMMET09601/10/10 10:56:02 METAR KEED 101856Z 02009KT 10SM CLR 17/M07 A3020 RMK AO2 SLP215 T01671072 TSNOEQDQ01    099SCCGD1P01    003SCCGA1
0195723805231792010011019567+34766-114620FM-15+0279KEED V0303505N003652200059N0160935N5+01785-00725102015ADDAA101000095GF100991999999999999999999MA1102135098805REMMET09601/10/10 11:56:02 METAR KEED 101956Z 35007KT 10SM CLR 18/M07 A3016 RMK AO2 SLP201 T01781072 TSNOEQDQ01    099SCCGD1P01    003SCCGA1
0215723805231792010011020567+34766-114620FM-15+0279KEED V0300105N004152200059N0160935N5+02005-00835101905ADDAA101000095GF100991999999999999999999MA1102035098705MD1890319+9999REMMET10201/10/10 12:56:02 METAR KEED 102056Z 01008KT 10SM CLR 20/M08 A3013 RMK AO2 SLP190 T02001083 58031 TSNOEQDQ01    099SCCGD1P01    003SCCGA1
0195723805231792010011021567+34766-114620FM-15+0279KEED V0300205N006252200059N0160935N5+02065-00945101865ADDAA101000095GF100991999999999999999999MA1102005098675REMMET09601/10/10 13:56:02 METAR KEED 102156Z 02012KT 10SM CLR 21/M09 A3012 RMK AO2 SLP186 T02061094 TSNOEQDQ01    099SCCGD1P01    003SCCGA1
0195723805231792010011022567+34766-114620FM-15+0279KEED V0300105N008252200059N0160935N5+02065-01065101855ADDAA101000095GF100991999999999999999999MA1102005098675REMMET09601/10/10 14:56:02 METAR KEED 102256Z 01016KT 10SM CLR 21/M11 A3012 RMK AO2 SLP185 T02061106 TSNOEQDQ01    099SCCGD1P01    003SCCGA1
0253723805231792010011023567+34766-114620FM-15+0279KEED V0300205N005152200059N0160935N5+02005-00895101845ADDAA101000095GF100991999999999999999999KA1999M+02111KA2999N+01561MA1102005098675MD1590059+9999REMMET11401/10/10 15:56:02 METAR KEED 102356Z 02010KT 10SM CLR 20/M09 A3012 RMK AO2 SLP184 T02001089 10211 20156 55005 TSNOEQDQ01    099SCCGD1P01    003SCCGA1
0195723805231792010011100567+34766-114620FM-15+0279KEED V0303405N003152200059N0160935N5+01785-00895101905ADDAA101000095GF100991999999999999999999MA1102035098705REMMET09601/10/10 16:56:01 METAR KEED 110056Z 34006KT 10SM CLR 18/M09 A3013 RMK AO2 SLP190 T01781089 TSNOEQDQ01    099SCCGD1P01    003SCCGA1
0195723805231792010011101567+34766-114620FM-15+0279KEED V0303305N003652200059N0160935N5+01675-00895101945ADDAA101000095GF100991999999999999999999MA1102075098745REMMET09601/10/10 17:56:02 METAR KEED 110156Z 33007KT 10SM CLR 17/M09 A3014 RMK AO2 SLP194 T01671089 TSNOEQDQ01    099SCCGD1P01    003SCCGA1
0215723805231792010011102567+34766-114620FM-15+0279KEED V0303305N003652200059N0160935N5+01565-00835102015ADDAA101000095GF100991999999999999999999MA1102135098805MD1390149+9999REMMET10201/10/10 18:56:01 METAR KEED 110256Z 33007KT 10SM CLR 16/M08 A3016 RMK AO2 SLP201 T01561083 53014 TSNOEQDQ01    099SCCGD1P01    003SCCGA1
0195723805231792010011103567+34766-114620FM-15+0279KEED V0303005N002152200059N0160935N5+01335-00785102065ADDAA101000095GF100991999999999999999999MA1102175098845REMMET09601/10/10 19:56:01 METAR KEED 110356Z 30004KT 10SM CLR 13/M08 A3017 RMK AO2 SLP206 T01331078 TSNOEQDQ01    099SCCGD1P01    003SCCGA1
0195723805231792010011104567+34766-114620FM-15+0279KEED V0302705N002652200059N0160935N5+01175-00785102105ADDAA101000095GF100991999999999999999999MA1102205098875REMMET09601/10/10 20:56:02 METAR KEED 110456Z 27005KT 10SM CLR 12/M08 A3018 RMK AO2 SLP210 T01171078 TSNOEQDQ01    099SCCGD1P01    003SCCGA1
0253723805231792010011105567+34766-114620FM-15+0279KEED V0302705N002652200059N0160935N5+01285-00835102145ADDAA101000095GF100991999999999999999999KA1999M+02001KA2999N+01111MA1102275098935MD1390139+9999REMMET11401/10/10 21:56:02 METAR KEED 110556Z 27005KT 10SM CLR 13/M08 A3020 RMK AO2 SLP214 T01281083 10200 20111 53013 TSNOEQDQ01    099SCCGD1P01    003SCCGA1
0195723805231792010011106567+34766-114620FM-15+0279KEED V0302505N004152200059N0160935N5+01065-00785102125ADDAA101000095GF100991999999999999999999MA1102275098935REMMET09601/10/10 22:56:02 METAR KEED 110656Z 25008KT 10SM CLR 11/M08 A3020 RMK AO2 SLP212 T01061078 TSNOEQDQ01    099SCCGD1P01    003SCCGA1
0205723805231792010011107567+34766-114620FM-15+0279KEED V0303405N003152200059N0160935N5+01335-00895102105ADDAA101000095GF100991999999999999999999MA1102245098905REMMET10601/10/10 23:56:01 METAR KEED 110756Z 34006KT 10SM CLR 13/M09 A3019 RMK AO2 SLP210 T01331089 402110083 TSNOEQDQ01    099SCCGD1P01    003SCCGA1
0989723805231792010011107596+34766-114620SOD  +0279KEED V030999999999999999999999999999+99999+99999999999ADDAA124000095KA1240M+02115KA2240N+00835KG1024W+0056D4KG2024D-0083D4MF1098884102034MG1098874101834OE11240102801015015OE22240089401015025OE33240032699999995RH1024X030D4RH2024N011D4RH3024M021D4REMSOD75424 HR PRECIPITATION (IN):0.00  24 HR MAX TEMP (F):70 24 HR MAX TEMP TIME (LST):1446 24 HR MIN TEMP (F):47 24 HR MIN TEMP TIME (LST):0245 AVERAGE STATION PRESSURE:29.195 MINIMUM SEA LEVEL PRESSURE:30.07 TIME OF OCCURRENCE:1606 PEAK WIND SPEED (MPH):23  PEAK WIND DIR (DEG):10  PEAK WIND TIME (LST):1501  FASTEST 2MIN SPEED (MPH):20 FASTEST 2MIN DIR (DEG):10  FASTEST 2MIN TIME (LST):1502 AVERAGE WIND SPEED (MPH):7.3  24 HR AVG TEMP (F):59 DEPART FROM NORMAL: +6  HEATING DEGREE DAYS:6   COOLING DEGREE DAYS:0   LATEST DAY MAX TEMP (0700-1900 LST):70  LATEST NIGHT MIN TEMP(1900-0800 LST):47 HOURLY INCREMENTAL PRECIPITATION VALUES (IN):.00 0.00 0.00 0.00 0.00 0.00 0.00 0.00 0.00 0.00 0.00 0.00 0.00 0.00 0.00 0.00 0.00 0.00 0.00 0.00 0.00 0.00 0.00 0.00EQDR01     N7GJS072R02     N7GKS075
0215723805231792010011108567+34766-114620FM-15+0279KEED V0303205N003652200059N0160935N5+01225-00835102115ADDAA101000095GF100991999999999999999999MA1102275098935MD1590019+9999REMMET10201/11/10 00:56:02 METAR KEED 110856Z 32007KT 10SM CLR 12/M08 A3020 RMK AO2 SLP211 T01221083 55001 TSNOEQDQ01    099SCCGD1P01    003SCCGA1
0195723805231792010011109567+34766-114620FM-15+0279KEED V0303305N004152200059N0160935N5+01225-00785102145ADDAA101000095GF100991999999999999999999MA1102305098975REMMET09601/11/10 01:56:02 METAR KEED 110956Z 33008KT 10SM CLR 12/M08 A3021 RMK AO2 SLP214 T01221078 TSNOEQDQ01    099SCCGD1P01    003SCCGA1
0195723805231792010011110567+34766-114620FM-15+0279KEED V0302805N002152200059N0160935N5+01175-00725102155ADDAA101000095GF100991999999999999999999MA1102305098975REMMET09601/11/10 02:56:02 METAR KEED 111056Z 28004KT 10SM CLR 12/M07 A3021 RMK AO2 SLP215 T01171072 TSNOEQDQ01    099SCCGD1P01    003SCCGA1
0253723805231792010011111567+34766-114620FM-15+0279KEED V0302905N003152200059N0160935N5+00835-00725102155ADDAA101000095GF100991999999999999999999KA1999M+01441KA2999N+00831MA1102275098935MD1090039+9999REMMET11401/11/10 03:56:02 METAR KEED 111156Z 29006KT 10SM CLR 08/M07 A3020 RMK AO2 SLP215 T00831072 10144 20083 50003 TSNOEQDQ01    099SCCGD1P01    003SCCGA1
0195723805231792010011112567+34766-114620FM-15+0279KEED V0303405N003152200059N0160935N5+01115-00565102175ADDAA101000095GF100991999999999999999999MA1102305098975REMMET09601/11/10 04:56:02 METAR KEED 111256Z 34006KT 10SM CLR 11/M06 A3021 RMK AO2 SLP217 T01111056 TSNOEQDQ01    099SCCGD1P01    003SCCGA1
0195723805231792010011113567+34766-114620FM-15+0279KEED V0303605N004652200059N0160935N5+01175-00505102225ADDAA101000095GF100991999999999999999999MA1102345099005REMMET09601/11/10 05:56:02 METAR KEED 111356Z 36009KT 10SM CLR 12/M05 A3022 RMK AO2 SLP222 T01171050 TSNOEQDQ01    099SCCGD1P01    003SCCGA1
0215723805231792010011114567+34766-114620FM-15+0279KEED V0303005N003152200059N0160935N5+01065-00505102265ADDAA101000095GF100991999999999999999999MA1102375099035MD1390099+9999REMMET10201/11/10 06:56:02 METAR KEED 111456Z 30006KT 10SM CLR 11/M05 A3023 RMK AO2 SLP226 T01061050 53009 TSNOEQDQ01    099SCCGD1P01    003SCCGA1
0195723805231792010011115567+34766-114620FM-15+0279KEED V0300105N006752200059N0160935N5+01285-00445102305ADDAA101000095GF100991999999999999999999MA1102405099075REMMET09601/11/10 07:56:02 METAR KEED 111556Z 01013KT 10SM CLR 13/M04 A3024 RMK AO2 SLP230 T01281044 TSNOEQDQ01    099SCCGD1P01    003SCCGA1
0195723805231792010011116567+34766-114620FM-15+0279KEED V0303505N004652200059N0160935N5+01445-00395102335ADDAA101000095GF100991999999999999999999MA1102445099105REMMET09601/11/10 08:56:02 METAR KEED 111656Z 35009KT 10SM CLR 14/M04 A3025 RMK AO2 SLP233 T01441039 TSNOEQDQ01    099SCCGD1P01    003SCCGA1
0264723805231792010011117567+34766-114620FM-15+0279KEED V0300205N005752200059N0160935N5+01675-00395102375ADDAA101000095GF100991999999999999999999KA1999M+01671KA2999N+00831MA1102515099175MD1390139+9999OC100825REMMET11701/11/10 09:56:02 METAR KEED 111756Z 02011G16KT 10SM CLR 17/M04 A3027 RMK AO2 SLP237 T01671039 10167 20083 53013 TSNOEQDQ01    099SCCGD1P01    003SCCGA1
0206723805231792010011118567+34766-114620FM-15+0279KEED V0300305N008852200059N0160935N5+01835-00505102295ADDAA101000095GF100991999999999999999999MA1102445099105OC101245REMMET09901/11/10 10:56:02 METAR KEED 111856Z 03017G24KT 10SM CLR 18/M05 A3025 RMK AO2 SLP229 T01831050 TSNOEQDQ01    099SCCGD1P01    003SCCGA1
0195723805231792010011119567+34766-114620FM-15+0279KEED V0300205N006752200059N0160935N5+01945-00505102145ADDAA101000095GF100991999999999999999999MA1102305098975REMMET09601/11/10 11:56:02 METAR KEED 111956Z 02013KT 10SM CLR 19/M05 A3021 RMK AO2 SLP214 T01941050 TSNOEQDQ01    099SCCGD1P01    003SCCGA1
0215723805231792010011120567+34766-114620FM-15+0279KEED V0300205N005152200059N0160935N5+02065-00565102005ADDAA101000095GF100991999999999999999999MA1102175098845MD1890349+9999REMMET10201/11/10 12:56:02 METAR KEED 112056Z 02010KT 10SM CLR 21/M06 A3017 RMK AO2 SLP200 T02061056 58034 TSNOEQDQ01    099SCCGD1P01    003SCCGA1
0195723805231792010011121567+34766-114620FM-15+0279KEED V0300105N004652200059N0160935N5+02115-00565101965ADDAA101000095GF100991999999999999999999MA1102135098805REMMET09601/11/10 13:56:02 METAR KEED 112156Z 01009KT 10SM CLR 21/M06 A3016 RMK AO2 SLP196 T02111056 TSNOEQDQ01    099SCCGD1P01    003SCCGA1
0195723805231792010011122567+34766-114620FM-15+0279KEED V0300305N006252200059N0160935N5+02115-00615101945ADDAA101000095GF100991999999999999999999MA1102105098775REMMET09601/11/10 14:56:02 METAR KEED 112256Z 03012KT 10SM CLR 21/M06 A3015 RMK AO2 SLP194 T02111061 TSNOEQDQ01    099SCCGD1P01    003SCCGA1
0253723805231792010011123567+34766-114620FM-15+0279KEED V0300305N004152200059N0160935N5+02005-00565101965ADDAA101000095GF100991999999999999999999KA1999M+02171KA2999N+01671MA1102105098775MD1690069+9999REMMET11401/11/10 15:56:02 METAR KEED 112356Z 03008KT 10SM CLR 20/M06 A3015 RMK AO2 SLP196 T02001056 10217 20167 56006 TSNOEQDQ01    099SCCGD1P01    003SCCGA1
0195723805231792010011200567+34766-114620FM-15+0279KEED V0303205N004152200059N0160935N5+01785-00505101985ADDAA101000095GF100991999999999999999999MA1102105098775REMMET09601/11/10 16:56:02 METAR KEED 120056Z 32008KT 10SM CLR 18/M05 A3015 RMK AO2 SLP198 T01781050 TSNOEQDQ01    099SCCGD1P01    003SCCGA1
0195723805231792010011201567+34766-114620FM-15+0279KEED V0303405N002152200059N0160935N5+01565-00445102035ADDAA101000095GF100991999999999999999999MA1102175098845REMMET09601/11/10 17:56:01 METAR KEED 120156Z 34004KT 10SM CLR 16/M04 A3017 RMK AO2 SLP203 T01561044 TSNOEQDQ01    099SCCGD1P01    003SCCGA1
0215723805231792010011202567+34766-114620FM-15+0279KEED V0303005N003152200059N0160935N5+01335-00445102075ADDAA101000095GF100991999999999999999999MA1102175098845MD1390089+9999REMMET10201/11/10 18:56:02 METAR KEED 120256Z 30006KT 10SM CLR 13/M04 A3017 RMK AO2 SLP207 T01331044 53008 TSNOEQDQ01    099SCCGD1P01    003SCCGA1
0195723805231792010011203567+34766-114620FM-15+0279KEED V0303005N003652200059N0160935N5+01395-00445102105ADDAA101000095GF100991999999999999999999MA1102245098905REMMET09601/11/10 19:56:02 METAR KEED 120356Z 30007KT 10SM CLR 14/M04 A3019 RMK AO2 SLP210 T01391044 TSNOEQDQ01    099SCCGD1P01    003SCCGA1
0195723805231792010011204567+34766-114620FM-15+0279KEED V0302905N003652200059N0160935N5+01225-00445102175ADDAA101000095GF100991999999999999999999MA1102275098935REMMET09601/11/10 20:56:02 METAR KEED 120456Z 29007KT 10SM CLR 12/M04 A3020 RMK AO2 SLP217 T01221044 TSNOEQDQ01    099SCCGD1P01    003SCCGA1
0253723805231792010011205567+34766-114620FM-15+0279KEED V0302805N003152200059N0160935N5+01115-00445102205ADDAA101000095GF100991999999999999999999KA1999M+02001KA2999N+01111MA1102345099005MD1390159+9999REMMET11401/11/10 21:56:02 METAR KEED 120556Z 28006KT 10SM CLR 11/M04 A3022 RMK AO2 SLP220 T01111044 10200 20111 53015 TSNOEQDQ01    099SCCGD1P01    003SCCGA1
0195723805231792010011206567+34766-114620FM-15+0279KEED V0302705N002152200059N0160935N5+00945-00445102225ADDAA101000095GF100991999999999999999999MA1102345099005REMMET09601/11/10 22:56:02 METAR KEED 120656Z 27004KT 10SM CLR 09/M04 A3022 RMK AO2 SLP222 T00941044 TSNOEQDQ01    099SCCGD1P01    003SCCGA1
0205723805231792010011207567+34766-114620FM-15+0279KEED V0302905N002152200059N0160935N5+00895-00445102205ADDAA101000095GF100991999999999999999999MA1102345099005REMMET10601/11/10 23:56:01 METAR KEED 120756Z 29004KT 10SM CLR 09/M04 A3022 RMK AO2 SLP220 T00891044 402170083 TSNOEQDQ01    099SCCGD1P01    003SCCGA1
