0222723825231312010010100487+34598-117380FM-15+0879KVCV V0203505N002652200079N0160935N5+00907-00607999999ADDGF100991999999999999999999MA1102745092505REMMET07012/31/09 16:48:01 METAR KVCV 010048Z 35005KT 10SM SKC 09/M06 A3034 RMKEQDQ01    099SCCGD1P01    003SCCGA1R01   SKC7SKY009R02    097TMP046R03   M067DPT046R04   SKC7GAS009
0222723825231312010010101507+34598-117380FM-15+0879KVCV V0203505N002152200079N0160935N5+00607-00807999999ADDGF100991999999999999999999MA1102815092565REMMET07012/31/09 17:50:01 METAR KVCV 010150Z 35004KT 10SM SKC 06/M08 A3036 RMKEQDQ01    099SCCGD1P01    003SCCGA1R01   SKC7SKY009R02    067TMP046R03   M087DPT046R04   SKC7GAS009
0222723825231312010010102487+34598-117380FM-15+0879KVCV V0209999C000052200079N0160935N5+00307-00807999999ADDGF100991999999999999999999MA1102745092505REMMET07012/31/09 18:48:01 METAR KVCV 010248Z 00000KT 10SM SKC 03/M08 A3034 RMKEQDQ01    099SCCGD1P01    003SCCGA1R01   SKC7SKY009R02    037TMP046R03   M087DPT046R04   SKC7GAS009
0223723825231312010010103487+34598-117380FM-15+0879KVCV V0209999C000052200079N9999999N5+00307-00807999999ADDGF100991999999999999999999MA1102815092565REMMET07112/31/09 19:48:02 METAR KVCV 010348Z 00000KT 100SM SKC 03/M08 A3036 RMKEQDQ01    099SCCGD1P01    003SCCGA1R01   SKC7SKY009R02    037TMP046R03   M087DPT046R04   SKC7GAS009
0192723825231312010010115527+34598-117380FM-15+0879KVCV V0209999C000052200059N0160935N5+00107-00407999999ADDGA1045+033535999GD12991+0335359GF104991999999999999999999MA1102785092535REMMET07301/01/10 07:52:01 METAR KVCV 011552Z 00000KT 10SM SCT110 01/M04 A3035 RMKEQDR01    017TMP046R02   M047DPT046
0222723825231312010010119467+34598-117380FM-15+0879KVCV V0209999C000052200079N0160935N5+01107-00307999999ADDGF100991999999999999999999MA1102645092405REMMET07001/01/10 11:46:02 METAR KVCV 011946Z 00000KT 10SM SKC 11/M03 A3031 RMKEQDQ01    099SCCGD1P01    003SCCGA1R01   SKC7SKY009R02    117TMP046R03   M037DPT046R04   SKC7GAS009
0222723825231312010010120487+34598-117380FM-15+0879KVCV V0209999C000052200079N0160935N5+01207-00707999999ADDGF100991999999999999999999MA1102515092285REMMET07001/01/10 12:48:01 METAR KVCV 012048Z 00000KT 10SM SKC 12/M07 A3027 RMKEQDQ01    099SCCGD1P01    003SCCGA1R01   SKC7SKY009R02    127TMP046R03   M077DPT046R04   SKC7GAS009
0192723825231312010010121487+34598-117380FM-15+0879KVCV V0209999C000052200059N0160935N5+01307-00807999999ADDGA1045+030485999GD12991+0304859GF104991999999999999999999MA1102405092195REMMET07301/01/10 13:48:01 METAR KVCV 012148Z 00000KT 10SM SCT100 13/M08 A3024 RMKEQDR01    137TMP046R02   M087DPT046
0192723825231312010010123487+34598-117380FM-15+0879KVCV V0209999C000052200059N0160935N5+01307-00807999999ADDGA1045+033535999GD12991+0335359GF104991999999999999999999MA1102375092165REMMET07301/01/10 15:48:02 METAR KVCV 012348Z 00000KT 10SM SCT110 13/M08 A3023 RMKEQDR01    137TMP046R02   M087DPT046
0222723825231312010010214497+34598-117380FM-15+0879KVCV V0201505N004652200079N0160935N5+00207-00707999999ADDGF100991999999999999999999MA1102345092125REMMET07001/02/10 06:49:02 METAR KVCV 021449Z 15009KT 10SM SKC 02/M07 A3022 RMKEQDQ01    099SCCGD1P01    003SCCGA1R01   SKC7SKY009R02    027TMP046R03   M077DPT046R04   SKC7GAS009
0222723825231312010010217497+34598-117380FM-15+0879KVCV V0200305N002152200079N0160935N5+00807-00707999999ADDGF100991999999999999999999MA1102445092225REMMET07001/02/10 09:49:02 METAR KVCV 021749Z 03004KT 10SM SKC 08/M07 A3025 RMKEQDQ01    099SCCGD1P01    003SCCGA1R01   SKC7SKY009R02    087TMP046R03   M077DPT046R04   SKC7GAS009
0222723825231312010010219477+34598-117380FM-15+0879KVCV V0209999C000052200079N0160935N5+01307-00407999999ADDGF100991999999999999999999MA1102275092065REMMET07001/02/10 11:47:02 METAR KVCV 021947Z 00000KT 10SM SKC 13/M04 A3020 RMKEQDQ01    099SCCGD1P01    003SCCGA1R01   SKC7SKY009R02    137TMP046R03   M047DPT046R04   SKC7GAS009
0222723825231312010010220487+34598-117380FM-15+0879KVCV V0203305N002652200079N0160935N5+01507-00507999999ADDGF100991999999999999999999MA1102175091975REMMET07001/02/10 12:48:02 METAR KVCV 022048Z 33005KT 10SM SKC 15/M05 A3017 RMKEQDQ01    099SCCGD1P01    003SCCGA1R01   SKC7SKY009R02    157TMP046R03   M057DPT046R04   SKC7GAS009
0222723825231312010010221487+34598-117380FM-15+0879KVCV V0203605N003652200079N0160935N5+01607-00507999999ADDGF100991999999999999999999MA1102135091945REMMET07001/02/10 13:48:02 METAR KVCV 022148Z 36007KT 10SM SKC 16/M05 A3016 RMKEQDQ01    099SCCGD1P01    003SCCGA1R01   SKC7SKY009R02    167TMP046R03   M057DPT046R04   SKC7GAS009
0222723825231312010010222487+34598-117380FM-15+0879KVCV V0203605N004152200079N0160935N5+01607-00607999999ADDGF100991999999999999999999MA1102175091975REMMET07001/02/10 14:48:02 METAR KVCV 022248Z 36008KT 10SM SKC 16/M06 A3017 RMKEQDQ01    099SCCGD1P01    003SCCGA1R01   SKC7SKY009R02    167TMP046R03   M067DPT046R04   SKC7GAS009
0223723825231312010010313507+34598-117380FM-15+0879KVCV V0201605N002652200079N0160935N5-00307-00707999999ADDGF100991999999999999999999MA1102345092125REMMET07101/03/10 05:50:02 METAR KVCV 031350Z 16005KT 10SM SKC M03/M07 A3022 RMKEQDQ01    099SCCGD1P01    003SCCGA1R01   SKC7SKY009R02   M037TMP046R03   M077DPT046R04   SKC7GAS009
0223723825231312010010314487+34598-117380FM-15+0879KVCV V0201605N003152200079N0160935N5-00207-00707999999ADDGF100991999999999999999999MA1102375092165REMMET07101/03/10 06:48:02 METAR KVCV 031448Z 16006KT 10SM SKC M02/M07 A3023 RMKEQDQ01    099SCCGD1P01    003SCCGA1R01   SKC7SKY009R02   M027TMP046R03   M077DPT046R04   SKC7GAS009
0222723825231312010010315487+34598-117380FM-15+0879KVCV V0201605N002652200079N0160935N5+00207-00707999999ADDGF100991999999999999999999MA1102375092165REMMET07001/03/10 07:48:02 METAR KVCV 031548Z 16005KT 10SM SKC 02/M07 A3023 RMKEQDQ01    099SCCGD1P01    003SCCGA1R01   SKC7SKY009R02    027TMP046R03   M077DPT046R04   SKC7GAS009
0222723825231312010010316487+34598-117380FM-15+0879KVCV V0201405N002652200079N0160935N5+00607-00607999999ADDGF100991999999999999999999MA1102445092225REMMET07001/03/10 08:48:01 METAR KVCV 031648Z 14005KT 10SM SKC 06/M06 A3025 RMKEQDQ01    099SCCGD1P01    003SCCGA1R01   SKC7SKY009R02    067TMP046R03   M067DPT046R04   SKC7GAS009
0222723825231312010010317507+34598-117380FM-15+0879KVCV V0201405N002652200079N0160935N5+00907-00707999999ADDGF100991999999999999999999MA1102445092225REMMET07001/03/10 09:50:02 METAR KVCV 031750Z 14005KT 10SM SKC 09/M07 A3025 RMKEQDQ01    099SCCGD1P01    003SCCGA1R01   SKC7SKY009R02    097TMP046R03   M077DPT046R04   SKC7GAS009
0222723825231312010010319487+34598-117380FM-15+0879KVCV V0200105N002652200079N0160935N5+01207-00607999999ADDGF100991999999999999999999MA1102275092065REMMET07001/03/10 11:48:02 METAR KVCV 031948Z 01005KT 10SM SKC 12/M06 A3020 RMKEQDQ01    099SCCGD1P01    003SCCGA1R01   SKC7SKY009R02    127TMP046R03   M067DPT046R04   SKC7GAS009
0222723825231312010010322467+34598-117380FM-15+0879KVCV V0200105N003152200079N0160935N5+01607-01007999999ADDGF100991999999999999999999MA1102175091975REMMET07001/03/10 14:46:02 METAR KVCV 032246Z 01006KT 10SM SKC 16/M10 A3017 RMKEQDQ01    099SCCGD1P01    003SCCGA1R01   SKC7SKY009R02    167TMP046R03   M107DPT046R04   SKC7GAS009
0222723825231312010010323487+34598-117380FM-15+0879KVCV V0203605N003652200079N0160935N5+01507-01007999999ADDGF100991999999999999999999MA1102175091975REMMET07001/03/10 15:48:02 METAR KVCV 032348Z 36007KT 10SM SKC 15/M10 A3017 RMKEQDQ01    099SCCGD1P01    003SCCGA1R01   SKC7SKY009R02    157TMP046R03   M107DPT046R04   SKC7GAS009
0222723825231312010010400597+34598-117380FM-15+0879KVCV V0203405N003152200079N0160935N5+01107-00907999999ADDGF100991999999999999999999MA1102175091975REMMET07001/03/10 16:59:02 METAR KVCV 040059Z 34006KT 10SM SKC 11/M09 A3017 RMKEQDQ01    099SCCGD1P01    003SCCGA1R01   SKC7SKY009R02    117TMP046R03   M097DPT046R04   SKC7GAS009
0222723825231312010010401477+34598-117380FM-15+0879KVCV V0203105N003652200079N0160935N5+00807-00907999999ADDGF100991999999999999999999MA1102205092005REMMET07001/03/10 17:47:02 METAR KVCV 040147Z 31007KT 10SM SKC 08/M09 A3018 RMKEQDQ01    099SCCGD1P01    003SCCGA1R01   SKC7SKY009R02    087TMP046R03   M097DPT046R04   SKC7GAS009
0222723825231312010010402497+34598-117380FM-15+0879KVCV V0209999C000052200079N0160935N5+00607-01107999999ADDGF100991999999999999999999MA1102245092035REMMET07001/03/10 18:49:02 METAR KVCV 040249Z 00000KT 10SM SKC 06/M11 A3019 RMKEQDQ01    099SCCGD1P01    003SCCGA1R01   SKC7SKY009R02    067TMP046R03   M117DPT046R04   SKC7GAS009
0227723825231312010010403557+34598-117380FM-15+0879KVCV V0202205N002152200079N0160935N5+00207-01207999999ADDGF100991999999999999999999MA1102275092065REMMET07501/03/10 19:55:02 METAR KVCV 040355Z 22004KT 10SM SKC 02/M12 A3020 RMK LASTEQDQ01    099SCCGD1P01    003SCCGA1R01   SKC7SKY009R02    027TMP046R03   M127DPT046R04   SKC7GAS009
0222723825231312010010413507+34598-117380FM-15+0879KVCV V0201505N002152200079N0160935N5+00007-00907999999ADDGF100991999999999999999999MA1102305092095REMMET07001/04/10 05:50:02 METAR KVCV 041350Z 15004KT 10SM SKC 00/M09 A3021 RMKEQDQ01    099SCCGD1P01    003SCCGA1R01   SKC7SKY009R02    007TMP046R03   M097DPT046R04   SKC7GAS009
0223723825231312010010414487+34598-117380FM-15+0879KVCV V0201505N002152200079N0160935N5-00107-00807999999ADDGF100991999999999999999999MA1102345092125REMMET07101/04/10 06:48:01 METAR KVCV 041448Z 15004KT 10SM SKC M01/M08 A3022 RMKEQDQ01    099SCCGD1P01    003SCCGA1R01   SKC7SKY009R02   M017TMP046R03   M087DPT046R04   SKC7GAS009
0222723825231312010010415487+34598-117380FM-15+0879KVCV V0201505N002652200079N0160935N5+00107-00807999999ADDGF100991999999999999999999MA1102375092165REMMET07001/04/10 07:48:02 METAR KVCV 041548Z 15005KT 10SM SKC 01/M08 A3023 RMKEQDQ01    099SCCGD1P01    003SCCGA1R01   SKC7SKY009R02    017TMP046R03   M087DPT046R04   SKC7GAS009
0192723825231312010010416487+34598-117380FM-15+0879KVCV V0201405N002152200059N0160935N5+00407-00807999999ADDGA1045+033535999GD12991+0335359GF104991999999999999999999MA1102375092165REMMET07301/04/10 08:48:02 METAR KVCV 041648Z 14004KT 10SM SCT110 04/M08 A3023 RMKEQDR01    047TMP046R02   M087DPT046
0192723825231312010010417487+34598-117380FM-15+0879KVCV V0201205N002652200059N0160935N5+00707-00807999999ADDGA1045+033535999GD12991+0335359GF104991999999999999999999MA1102345092125REMMET07301/04/10 09:48:02 METAR KVCV 041748Z 12005KT 10SM SCT110 07/M08 A3022 RMKEQDR01    077TMP046R02   M087DPT046
0192723825231312010010418497+34598-117380FM-15+0879KVCV V0209999C000052200059N0160935N5+00907-00807999999ADDGA1045+033535999GD12991+0335359GF104991999999999999999999MA1102305092095REMMET07301/04/10 10:49:02 METAR KVCV 041849Z 00000KT 10SM SCT110 09/M08 A3021 RMKEQDR01    097TMP046R02   M087DPT046
0222723825231312010010419517+34598-117380FM-15+0879KVCV V0209999C000052200079N0160935N5+01107-00907999999ADDGF100991999999999999999999MA1102205092005REMMET07001/04/10 11:51:02 METAR KVCV 041951Z 00000KT 10SM SKC 11/M09 A3018 RMKEQDQ01    099SCCGD1P01    003SCCGA1R01   SKC7SKY009R02    117TMP046R03   M097DPT046R04   SKC7GAS009
0222723825231312010010420507+34598-117380FM-15+0879KVCV V0203305N002652200079N0160935N5+01307-00907999999ADDGF100991999999999999999999MA1102175091975REMMET07001/04/10 12:50:02 METAR KVCV 042050Z 33005KT 10SM SKC 13/M09 A3017 RMKEQDQ01    099SCCGD1P01    003SCCGA1R01   SKC7SKY009R02    137TMP046R03   M097DPT046R04   SKC7GAS009
0192723825231312010010421537+34598-117380FM-15+0879KVCV V0203605N003652200059N0160935N5+01307-00907999999ADDGA1045+027435999GD12991+0274359GF104991999999999999999999MA1102135091945REMMET07301/04/10 13:53:01 METAR KVCV 042153Z 36007KT 10SM SCT090 13/M09 A3016 RMKEQDR01    137TMP046R02   M097DPT046
0222723825231312010010423527+34598-117380FM-15+0879KVCV V0203305N002152200079N0160935N5+01207-00907999999ADDGF100991999999999999999999MA1102135091945REMMET07001/04/10 15:52:02 METAR KVCV 042352Z 33004KT 10SM SKC 12/M09 A3016 RMKEQDQ01    099SCCGD1P01    003SCCGA1R01   SKC7SKY009R02    127TMP046R03   M097DPT046R04   SKC7GAS009
0223723825231312010010514537+34598-117380FM-15+0879KVCV V0201505N003652200079N0160935N5-00107-00807999999ADDGF100991999999999999999999MA1102245092035REMMET07101/05/10 06:53:02 METAR KVCV 051453Z 15007KT 10SM SKC M01/M08 A3019 RMKEQDQ01    099SCCGD1P01    003SCCGA1R01   SKC7SKY009R02   M017TMP046R03   M087DPT046R04   SKC7GAS009
0222723825231312010010516507+34598-117380FM-15+0879KVCV V0201205N002652200079N0160935N5+00507-00907999999ADDGF100991999999999999999999MA1102305092095REMMET07001/05/10 08:50:02 METAR KVCV 051650Z 12005KT 10SM SKC 05/M09 A3021 RMKEQDQ01    099SCCGD1P01    003SCCGA1R01   SKC7SKY009R02    057TMP046R03   M097DPT046R04   SKC7GAS009
0222723825231312010010518467+34598-117380FM-15+0879KVCV V0209999C000052200079N0160935N5+01107-00807999999ADDGF100991999999999999999999MA1102275092065REMMET07001/05/10 10:46:02 METAR KVCV 051846Z 00000KT 10SM SKC 11/M08 A3020 RMKEQDQ01    099SCCGD1P01    003SCCGA1R01   SKC7SKY009R02    117TMP046R03   M087DPT046R04   SKC7GAS009
0190723825231312010010519497+34598-117380FM-15+0879KVCV V0209999C000052200079N0160935N5+01305-00905999999ADDGF100991999999999999999999MA1102205092005REMMET07001/05/10 11:49:02 METAR KVCV 051949Z 00000KT 10SM SKC 13/M09 A3018 RMKEQDQ01    099SCCGD1P01    003SCCGA1R01   SKC7SKY009R02   SKC7GAS009
0222723825231312010010522487+34598-117380FM-15+0879KVCV V0209999C000052200079N0160935N5+01607-01107999999ADDGF100991999999999999999999MA1101965091785REMMET07001/05/10 14:48:02 METAR KVCV 052248Z 00000KT 10SM SKC 16/M11 A3011 RMKEQDQ01    099SCCGD1P01    003SCCGA1R01   SKC7SKY009R02    167TMP046R03   M117DPT046R04   SKC7GAS009
0222723825231312010010523477+34598-117380FM-15+0879KVCV V0203405N002152200079N0160935N5+01607-01107999999ADDGF100991999999999999999999MA1101965091785REMMET07001/05/10 15:47:02 METAR KVCV 052347Z 34004KT 10SM SKC 16/M11 A3011 RMKEQDQ01    099SCCGD1P01    003SCCGA1R01   SKC7SKY009R02    167TMP046R03   M117DPT046R04   SKC7GAS009
0222723825231312010010614547+34598-117380FM-15+0879KVCV V0201505N003152200079N0160935N5+00307-00807999999ADDGF100991999999999999999999MA1102135091945REMMET07001/06/10 06:54:02 METAR KVCV 061454Z 15006KT 10SM SKC 03/M08 A3016 RMKEQDQ01    099SCCGD1P01    003SCCGA1R01   SKC7SKY009R02    037TMP046R03   M087DPT046R04   SKC7GAS009
0222723825231312010010617587+34598-117380FM-15+0879KVCV V0209999C000052200079N0160935N5+01007-00807999999ADDGF100991999999999999999999MA1102205092005REMMET07001/06/10 09:58:02 METAR KVCV 061758Z 00000KT 10SM SKC 10/M08 A3018 RMKEQDQ01    099SCCGD1P01    003SCCGA1R01   SKC7SKY009R02    107TMP046R03   M087DPT046R04   SKC7GAS009
0222723825231312010010618487+34598-117380FM-15+0879KVCV V0209999C000052200079N0160935N5+01307-00807999999ADDGF100991999999999999999999MA1102135091945REMMET07001/06/10 10:48:02 METAR KVCV 061848Z 00000KT 10SM SKC 13/M08 A3016 RMKEQDQ01    099SCCGD1P01    003SCCGA1R01   SKC7SKY009R02    137TMP046R03   M087DPT046R04   SKC7GAS009
0222723825231312010010619507+34598-117380FM-15+0879KVCV V0200205N002152200079N0160935N5+01607-00907999999ADDGF100991999999999999999999MA1102075091885REMMET07001/06/10 11:50:02 METAR KVCV 061950Z 02004KT 10SM SKC 16/M09 A3014 RMKEQDQ01    099SCCGD1P01    003SCCGA1R01   SKC7SKY009R02    167TMP046R03   M097DPT046R04   SKC7GAS009
0222723825231312010010621557+34598-117380FM-15+0879KVCV V0200205N003152200079N0160935N5+01807-00807999999ADDGF100991999999999999999999MA1101865091695REMMET07001/06/10 13:55:02 METAR KVCV 062155Z 02006KT 10SM SKC 18/M08 A3008 RMKEQDQ01    099SCCGD1P01    003SCCGA1R01   SKC7SKY009R02    187TMP046R03   M087DPT046R04   SKC7GAS009
0222723825231312010010622487+34598-117380FM-15+0879KVCV V0203505N002152200079N0160935N5+01807-00907999999ADDGF100991999999999999999999MA1101865091695REMMET07001/06/10 14:48:02 METAR KVCV 062248Z 35004KT 10SM SKC 18/M09 A3008 RMKEQDQ01    099SCCGD1P01    003SCCGA1R01   SKC7SKY009R02    187TMP046R03   M097DPT046R04   SKC7GAS009
0222723825231312010010700467+34598-117380FM-15+0879KVCV V0209999C000052200079N0160935N5+01607-00907999999ADDGF100991999999999999999999MA1101835091665REMMET07001/06/10 16:46:02 METAR KVCV 070046Z 00000KT 10SM SKC 16/M09 A3007 RMKEQDQ01    099SCCGD1P01    003SCCGA1R01   SKC7SKY009R02    167TMP046R03   M097DPT046R04   SKC7GAS009
0222723825231312010010714497+34598-117380FM-15+0879KVCV V0201605N003152200079N0160935N5+00207-00707999999ADDGF100991999999999999999999MA1101905091725REMMET07001/07/10 06:49:02 METAR KVCV 071449Z 16006KT 10SM SKC 02/M07 A3009 RMKEQDQ01    099SCCGD1P01    003SCCGA1R01   SKC7SKY009R02    027TMP046R03   M077DPT046R04   SKC7GAS009
0222723825231312010010717487+34598-117380FM-15+0879KVCV V0209999C000052200079N0160935N5+01107-00607999999ADDGF100991999999999999999999MA1101965091785REMMET07001/07/10 09:48:02 METAR KVCV 071748Z 00000KT 10SM SKC 11/M06 A3011 RMKEQDQ01    099SCCGD1P01    003SCCGA1R01   SKC7SKY009R02    117TMP046R03   M067DPT046R04   SKC7GAS009
0222723825231312010010718477+34598-117380FM-15+0879KVCV V0209999C000052200079N0160935N5+01407-00607999999ADDGF100991999999999999999999MA1101965091785REMMET07001/07/10 10:47:02 METAR KVCV 071847Z 00000KT 10SM SKC 14/M06 A3011 RMKEQDQ01    099SCCGD1P01    003SCCGA1R01   SKC7SKY009R02    147TMP046R03   M067DPT046R04   SKC7GAS009
0222723825231312010010720487+34598-117380FM-15+0879KVCV V0203605N003652200079N0160935N5+01707-00607999999ADDGF100991999999999999999999MA1101835091665REMMET07001/07/10 12:48:02 METAR KVCV 072048Z 36007KT 10SM SKC 17/M06 A3007 RMKEQDQ01    099SCCGD1P01    003SCCGA1R01   SKC7SKY009R02    177TMP046R03   M067DPT046R04   SKC7GAS009
0222723825231312010010721487+34598-117380FM-15+0879KVCV V0203605N002652200079N0160935N5+01807-00607999999ADDGF100991999999999999999999MA1101795091635REMMET07001/07/10 13:48:01 METAR KVCV 072148Z 36005KT 10SM SKC 18/M06 A3006 RMKEQDQ01    099SCCGD1P01    003SCCGA1R01   SKC7SKY009R02    187TMP046R03   M067DPT046R04   SKC7GAS009
0222723825231312010010722517+34598-117380FM-15+0879KVCV V0200205N004152200079N0160935N5+01807-00507999999ADDGF100991999999999999999999MA1101795091635REMMET07001/07/10 14:51:02 METAR KVCV 072251Z 02008KT 10SM SKC 18/M05 A3006 RMKEQDQ01    099SCCGD1P01    003SCCGA1R01   SKC7SKY009R02    187TMP046R03   M057DPT046R04   SKC7GAS009
0222723825231312010010723487+34598-117380FM-15+0879KVCV V0203605N003152200079N0160935N5+01807-00307999999ADDGF100991999999999999999999MA1101765091605REMMET07001/07/10 15:48:02 METAR KVCV 072348Z 36006KT 10SM SKC 18/M03 A3005 RMKEQDQ01    099SCCGD1P01    003SCCGA1R01   SKC7SKY009R02    187TMP046R03   M037DPT046R04   SKC7GAS009
0222723825231312010010800507+34598-117380FM-15+0879KVCV V0203505N002152200079N0160935N5+01607-00307999999ADDGF100991999999999999999999MA1101835091665REMMET07001/07/10 16:50:02 METAR KVCV 080050Z 35004KT 10SM SKC 16/M03 A3007 RMKEQDQ01    099SCCGD1P01    003SCCGA1R01   SKC7SKY009R02    167TMP046R03   M037DPT046R04   SKC7GAS009
0222723825231312010010801557+34598-117380FM-15+0879KVCV V0209999C000052200079N0160935N5+01207-00407999999ADDGF100991999999999999999999MA1101905091725REMMET07001/07/10 17:55:02 METAR KVCV 080155Z 00000KT 10SM SKC 12/M04 A3009 RMKEQDQ01    099SCCGD1P01    003SCCGA1R01   SKC7SKY009R02    127TMP046R03   M047DPT046R04   SKC7GAS009
0222723825231312010010802507+34598-117380FM-15+0879KVCV V0209999C000052200079N0160935N5+01207-00407999999ADDGF100991999999999999999999MA1101935091755REMMET07001/07/10 18:50:01 METAR KVCV 080250Z 00000KT 10SM SKC 12/M04 A3010 RMKEQDQ01    099SCCGD1P01    003SCCGA1R01   SKC7SKY009R02    127TMP046R03   M047DPT046R04   SKC7GAS009
0222723825231312010010803487+34598-117380FM-15+0879KVCV V0209999C000052200079N0160935N5+00907-00507999999ADDGF100991999999999999999999MA1101935091755REMMET07001/07/10 19:48:01 METAR KVCV 080348Z 00000KT 10SM SKC 09/M05 A3010 RMKEQDQ01    099SCCGD1P01    003SCCGA1R01   SKC7SKY009R02    097TMP046R03   M057DPT046R04   SKC7GAS009
0190723825231312010010814557+34598-117380FM-15+0879KVCV V0201505N002652200059N0160935N5+00207-00307999999ADDGF100991999999999999999999MA1102245092035REMMET07001/08/10 06:55:02 METAR KVCV 081455Z 15005KT 10SM CLR 02/M03 A3019 RMKEQDQ01    099SCCGD1P01    003SCCGA1R01    027TMP046R02   M037DPT046
0222723825231312010010818557+34598-117380FM-15+0879KVCV V0209999C000052200079N0160935N5+01307-00207999999ADDGF100991999999999999999999MA1102375092165REMMET07001/08/10 10:55:01 METAR KVCV 081855Z 00000KT 10SM SKC 13/M02 A3023 RMKEQDQ01    099SCCGD1P01    003SCCGA1R01   SKC7SKY009R02    137TMP046R03   M027DPT046R04   SKC7GAS009
0192723825231312010010819467+34598-117380FM-15+0879KVCV V0203405N002152200059N0160935N5+01407-00207999999ADDGA1045+033535999GD12991+0335359GF104991999999999999999999MA1102375092165REMMET07301/08/10 11:46:02 METAR KVCV 081946Z 34004KT 10SM SCT110 14/M02 A3023 RMKEQDR01    147TMP046R02   M027DPT046
0192723825231312010010820507+34598-117380FM-15+0879KVCV V0203605N004152200059N0160935N5+01607-00207999999ADDGA1045+030485999GD12991+0304859GF104991999999999999999999MA1102245092035REMMET07301/08/10 12:50:01 METAR KVCV 082050Z 36008KT 10SM SCT100 16/M02 A3019 RMKEQDR01    167TMP046R02   M027DPT046
0192723825231312010010821467+34598-117380FM-15+0879KVCV V0203605N006252200059N0160935N5+01507-00307999999ADDGA1045+030485999GD12991+0304859GF104991999999999999999999MA1102245092035REMMET07301/08/10 13:46:02 METAR KVCV 082146Z 36012KT 10SM SCT100 15/M03 A3019 RMKEQDR01    157TMP046R02   M037DPT046
0223723825231312010010914527+34598-117380FM-15+0879KVCV V0201905N002152200079N0160935N5-00207-00607999999ADDGF100991999999999999999999MA1102515092285REMMET07101/09/10 06:52:01 METAR KVCV 091452Z 19004KT 10SM SKC M02/M06 A3027 RMKEQDQ01    099SCCGD1P01    003SCCGA1R01   SKC7SKY009R02   M027TMP046R03   M067DPT046R04   SKC7GAS009
0222723825231312010010916557+34598-117380FM-15+0879KVCV V0209999C000052200079N0160935N5+00607-00307999999ADDGF100991999999999999999999MA1102615092375REMMET07001/09/10 08:55:02 METAR KVCV 091655Z 00000KT 10SM SKC 06/M03 A3030 RMKEQDQ01    099SCCGD1P01    003SCCGA1R01   SKC7SKY009R02    067TMP046R03   M037DPT046R04   SKC7GAS009
0222723825231312010010917537+34598-117380FM-15+0879KVCV V0209999C000052200079N0160935N5+00907-00307999999ADDGF100991999999999999999999MA1102645092405REMMET07001/09/10 09:53:01 METAR KVCV 091753Z 00000KT 10SM SKC 09/M03 A3031 RMKEQDQ01    099SCCGD1P01    003SCCGA1R01   SKC7SKY009R02    097TMP046R03   M037DPT046R04   SKC7GAS009
0192723825231312010010919487+34598-117380FM-15+0879KVCV V0209999C000052200059N0160935N5+01307-00407999999ADDGA1045+033535999GD12991+0335359GF104991999999999999999999MA1102475092255REMMET07301/09/10 11:48:01 METAR KVCV 091948Z 00000KT 10SM SCT110 13/M04 A3026 RMKEQDR01    137TMP046R02   M047DPT046
0192723825231312010010920507+34598-117380FM-15+0879KVCV V0203605N002652200059N0160935N5+01407-00607999999ADDGA1045+033535999GD12991+0335359GF104991999999999999999999MA1102405092195REMMET07301/09/10 12:50:01 METAR KVCV 092050Z 36005KT 10SM SCT110 14/M06 A3024 RMKEQDR01    147TMP046R02   M067DPT046
0192723825231312010010921507+34598-117380FM-15+0879KVCV V0203605N002652200059N0160935N5+01407-00607999999ADDGA1045+033535999GD12991+0335359GF104991999999999999999999MA1102345092125REMMET07301/09/10 13:50:02 METAR KVCV 092150Z 36005KT 10SM SCT110 14/M06 A3022 RMKEQDR01    147TMP046R02   M067DPT046
0192723825231312010010922487+34598-117380FM-15+0879KVCV V0200105N002152200059N0160935N5+01407-00707999999ADDGA1045+030485999GD12991+0304859GF104991999999999999999999MA1102305092095REMMET07301/09/10 14:48:02 METAR KVCV 092248Z 01004KT 10SM SCT100 14/M07 A3021 RMKEQDR01    147TMP046R02   M077DPT046
0222723825231312010011013487+34598-117380FM-15+0879KVCV V0201605N002152200079N0160935N5+00207-00707999999ADDGF100991999999999999999999MA1102275092065REMMET07001/10/10 05:48:01 METAR KVCV 101348Z 16004KT 10SM SKC 02/M07 A3020 RMKEQDQ01    099SCCGD1P01    003SCCGA1R01   SKC7SKY009R02    027TMP046R03   M077DPT046R04   SKC7GAS009
0222723825231312010011014487+34598-117380FM-15+0879KVCV V0209999C000052200079N0160935N5+00107-00607999999ADDGF100991999999999999999999MA1102345092125REMMET07001/10/10 06:48:02 METAR KVCV 101448Z 00000KT 10SM SKC 01/M06 A3022 RMKEQDQ01    099SCCGD1P01    003SCCGA1R01   SKC7SKY009R02    017TMP046R03   M067DPT046R04   SKC7GAS009
0222723825231312010011015487+34598-117380FM-15+0879KVCV V0201605N002652200079N0160935N5+00407-00407999999ADDGF100991999999999999999999MA1102375092165REMMET07001/10/10 07:48:02 METAR KVCV 101548Z 16005KT 10SM SKC 04/M04 A3023 RMKEQDQ01    099SCCGD1P01    003SCCGA1R01   SKC7SKY009R02    047TMP046R03   M047DPT046R04   SKC7GAS009
0222723825231312010011016487+34598-117380FM-15+0879KVCV V0201505N002152200079N0160935N5+00807-00407999999ADDGF100991999999999999999999MA1102375092165REMMET07001/10/10 08:48:02 METAR KVCV 101648Z 15004KT 10SM SKC 08/M04 A3023 RMKEQDQ01    099SCCGD1P01    003SCCGA1R01   SKC7SKY009R02    087TMP046R03   M047DPT046R04   SKC7GAS009
0222723825231312010011017487+34598-117380FM-15+0879KVCV V0209999C000052200079N0160935N5+01107-00507999999ADDGF100991999999999999999999MA1102445092225REMMET07001/10/10 09:48:01 METAR KVCV 101748Z 00000KT 10SM SKC 11/M05 A3025 RMKEQDQ01    099SCCGD1P01    003SCCGA1R01   SKC7SKY009R02    117TMP046R03   M057DPT046R04   SKC7GAS009
0222723825231312010011018507+34598-117380FM-15+0879KVCV V0209999C000052200079N0160935N5+01407-00607999999ADDGF100991999999999999999999MA1102445092225REMMET07001/10/10 10:50:01 METAR KVCV 101850Z 00000KT 10SM SKC 14/M06 A3025 RMKEQDQ01    099SCCGD1P01    003SCCGA1R01   SKC7SKY009R02    147TMP046R03   M067DPT046R04   SKC7GAS009
0222723825231312010011022527+34598-117380FM-15+0879KVCV V0200105N003152200079N0160935N5+01807-01107999999ADDGF100991999999999999999999MA1102175091975REMMET07001/10/10 14:52:02 METAR KVCV 102252Z 01006KT 10SM SKC 18/M11 A3017 RMKEQDQ01    099SCCGD1P01    003SCCGA1R01   SKC7SKY009R02    187TMP046R03   M117DPT046R04   SKC7GAS009
0222723825231312010011023527+34598-117380FM-15+0879KVCV V0203505N002652200079N0160935N5+01707-00907999999ADDGF100991999999999999999999MA1102205092005REMMET07001/10/10 15:52:02 METAR KVCV 102352Z 35005KT 10SM SKC 17/M09 A3018 RMKEQDQ01    099SCCGD1P01    003SCCGA1R01   SKC7SKY009R02    177TMP046R03   M097DPT046R04   SKC7GAS009
0222723825231312010011101577+34598-117380FM-15+0879KVCV V0203605N002652200079N0160935N5+01307-00707999999ADDGF100991999999999999999999MA1102275092065REMMET07001/10/10 17:57:02 METAR KVCV 110157Z 36005KT 10SM SKC 13/M07 A3020 RMKEQDQ01    099SCCGD1P01    003SCCGA1R01   SKC7SKY009R02    137TMP046R03   M077DPT046R04   SKC7GAS009
0222723825231312010011103467+34598-117380FM-15+0879KVCV V0209999C000052200079N0160935N5+00807-00907999999ADDGF100991999999999999999999MA1102375092165REMMET07001/10/10 19:46:02 METAR KVCV 110346Z 00000KT 10SM SKC 08/M09 A3023 RMKEQDQ01    099SCCGD1P01    003SCCGA1R01   SKC7SKY009R02    087TMP046R03   M097DPT046R04   SKC7GAS009
0222723825231312010011113487+34598-117380FM-15+0879KVCV V0201405N002652200079N0160935N5+00307-00407999999ADDGF100991999999999999999999MA1102475092255REMMET07001/11/10 05:48:02 METAR KVCV 111348Z 14005KT 10SM SKC 03/M04 A3026 RMKEQDQ01    099SCCGD1P01    003SCCGA1R01   SKC7SKY009R02    037TMP046R03   M047DPT046R04   SKC7GAS009
0222723825231312010011114487+34598-117380FM-15+0879KVCV V0201605N003652200079N0160935N5+00307-00607999999ADDGF100991999999999999999999MA1102475092255REMMET07001/11/10 06:48:02 METAR KVCV 111448Z 16007KT 10SM SKC 03/M06 A3026 RMKEQDQ01    099SCCGD1P01    003SCCGA1R01   SKC7SKY009R02    037TMP046R03   M067DPT046R04   SKC7GAS009
0222723825231312010011115487+34598-117380FM-15+0879KVCV V0201505N003652200079N0160935N5+00407-00507999999ADDGF100991999999999999999999MA1102515092285REMMET07001/11/10 07:48:02 METAR KVCV 111548Z 15007KT 10SM SKC 04/M05 A3027 RMKEQDQ01    099SCCGD1P01    003SCCGA1R01   SKC7SKY009R02    047TMP046R03   M057DPT046R04   SKC7GAS009
0222723825231312010011116487+34598-117380FM-15+0879KVCV V0201405N002152200079N0160935N5+00807-00507999999ADDGF100991999999999999999999MA1102545092315REMMET07001/11/10 08:48:02 METAR KVCV 111648Z 14004KT 10SM SKC 08/M05 A3028 RMKEQDQ01    099SCCGD1P01    003SCCGA1R01   SKC7SKY009R02    087TMP046R03   M057DPT046R04   SKC7GAS009
0222723825231312010011117487+34598-117380FM-15+0879KVCV V0209999C000052200079N0160935N5+01207-00607999999ADDGF100991999999999999999999MA1102575092345REMMET07001/11/10 09:48:02 METAR KVCV 111748Z 00000KT 10SM SKC 12/M06 A3029 RMKEQDQ01    099SCCGD1P01    003SCCGA1R01   SKC7SKY009R02    127TMP046R03   M067DPT046R04   SKC7GAS009
0222723825231312010011118477+34598-117380FM-15+0879KVCV V0209999C000052200079N0160935N5+01407-00607999999ADDGF100991999999999999999999MA1102545092315REMMET07001/11/10 10:47:02 METAR KVCV 111847Z 00000KT 10SM SKC 14/M06 A3028 RMKEQDQ01    099SCCGD1P01    003SCCGA1R01   SKC7SKY009R02    147TMP046R03   M067DPT046R04   SKC7GAS009
0222723825231312010011119487+34598-117380FM-15+0879KVCV V0203605N003152200079N0160935N5+01707-00607999999ADDGF100991999999999999999999MA1102405092195REMMET07001/11/10 11:48:02 METAR KVCV 111948Z 36006KT 10SM SKC 17/M06 A3024 RMKEQDQ01    099SCCGD1P01    003SCCGA1R01   SKC7SKY009R02    177TMP046R03   M067DPT046R04   SKC7GAS009
0222723825231312010011120487+34598-117380FM-15+0879KVCV V0203605N002652200079N0160935N5+01807-00507999999ADDGF100991999999999999999999MA1102305092095REMMET07001/11/10 12:48:02 METAR KVCV 112048Z 36005KT 10SM SKC 18/M05 A3021 RMKEQDQ01    099SCCGD1P01    003SCCGA1R01   SKC7SKY009R02    187TMP046R03   M057DPT046R04   SKC7GAS009
0192723825231312010011122507+34598-117380FM-15+0879KVCV V0203305N004152200059N0160935N5+01807-00607999999ADDGA1045+033535999GD12991+0335359GF104991999999999999999999MA1102205092005REMMET07301/11/10 14:50:02 METAR KVCV 112250Z 33008KT 10SM SCT110 18/M06 A3018 RMKEQDR01    187TMP046R02   M067DPT046
0203723825231312010011123587+34598-117380FM-15+0879KVCV V0200105N004152200059N0160935N5+01707-00707999999ADDGA1045+033535999GD12991+0335359GF104991999999999999999999MA1102205092005OC100725REMMET07601/11/10 15:58:02 METAR KVCV 112358Z 01008G14KT 10SM SCT110 17/M07 A3018 RMKEQDR01    177TMP046R02   M077DPT046
0222723825231312010011214547+34598-117380FM-15+0879KVCV V0209999C000052200079N0160935N5+00407-00607999999ADDGF100991999999999999999999MA1102305092095REMMET07001/12/10 06:54:02 METAR KVCV 121454Z 00000KT 10SM SKC 04/M06 A3021 RMKEQDQ01    099SCCGD1P01    003SCCGA1R01   SKC7SKY009R02    047TMP046R03   M067DPT046R04   SKC7GAS009
0192723825231312010011216487+34598-117380FM-15+0879KVCV V0201705N002652200059N0160935N5+00907-00607999999ADDGA1045+033535999GD12991+0335359GF104991999999999999999999MA1102305092095REMMET07301/12/10 08:48:02 METAR KVCV 121648Z 17005KT 10SM SCT110 09/M06 A3021 RMKEQDR01    097TMP046R02   M067DPT046
0222723825231312010011217497+34598-117380FM-15+0879KVCV V0209999C000052200079N0160935N5+01207-00607999999ADDGF100991999999999999999999MA1102345092125REMMET07001/12/10 09:49:02 METAR KVCV 121749Z 00000KT 10SM SKC 12/M06 A3022 RMKEQDQ01    099SCCGD1P01    003SCCGA1R01   SKC7SKY009R02    127TMP046R03   M067DPT046R04   SKC7GAS009
0222723825231312010011219507+34598-117380FM-15+0879KVCV V0209999C000052200079N0160935N5+01607-00607999999ADDGF100991999999999999999999MA1102205092005REMMET07001/12/10 11:50:02 METAR KVCV 121950Z 00000KT 10SM SKC 16/M06 A3018 RMKEQDQ01    099SCCGD1P01    003SCCGA1R01   SKC7SKY009R02    167TMP046R03   M067DPT046R04   SKC7GAS009
0221723825231312010011222547+34598-117380FM-15+0879KVCV V0209999C000052200079N0160935N5+01907+00407999999ADDGF100991999999999999999999MA1102005091815REMMET06901/12/10 14:54:01 METAR KVCV 122254Z 00000KT 10SM SKC 19/04 A3012 RMKEQDQ01    099SCCGD1P01    003SCCGA1R01   SKC7SKY009R02    197TMP046R03    047DPT046R04   SKC7GAS009
0222723825231312010011300537+34598-117380FM-15+0879KVCV V0201905N004152200079N0160935N5+01707-00307999999ADDGF100991999999999999999999MA1102005091815REMMET07001/12/10 16:53:02 METAR KVCV 130053Z 19008KT 10SM SKC 17/M03 A3012 RMKEQDQ01    099SCCGD1P01    003SCCGA1R01   SKC7SKY009R02    177TMP046R03   M037DPT046R04   SKC7GAS009
0229723825231312010011314567+34598-117380FM-15+0879KVCV V0201805N002152200059N0160935N5+00607+00407999999ADDGA1045+009455999GA2045+018295999GD12991+0094559GD22991+0182959GF104991999999999999999999MA1101865091695REMMET07901/13/10 06:56:02 METAR KVCV 131456Z 18004KT 10SM SCT031 SCT060 06/04 A3008 RMKEQDR01    067TMP046R02    047DPT046
0229723825231312010011316487+34598-117380FM-15+0879KVCV V0201505N003152200059N0160935N5+01107+00607999999ADDGA1045+022865999GA2045+030485999GD12991+0228659GD22991+0304859GF104991999999999999999999MA1101935091755REMMET07901/13/10 08:48:02 METAR KVCV 131648Z 15006KT 10SM SCT075 SCT100 11/06 A3010 RMKEQDR01    117TMP046R02    067DPT046
0202723825231312010011317497+34598-117380FM-15+0879KVCV V0202505N010852200059N0160935N5+01307+00407999999ADDGA1045+022865999GD12991+0228659GF104991999999999999999999MA1101905091725OC101345REMMET07501/13/10 09:49:02 METAR KVCV 131749Z 25021G26KT 10SM SCT075 13/04 A3009 RMKEQDR01    137TMP046R02    047DPT046
0232723825231312010011318487+34598-117380FM-15+0879KVCV V0202605N012452200079N0160935N5+01407+00107999999ADDGF100991999999999999999999MA1101935091755OC101655REMMET07201/13/10 10:48:02 METAR KVCV 131848Z 26024G32KT 10SM SKC 14/01 A3010 RMKEQDQ01    099SCCGD1P01    003SCCGA1R01   SKC7SKY009R02    147TMP046R03    017DPT046R04   SKC7GAS009
0202723825231312010011321547+34598-117380FM-15+0879KVCV V0202805N008852200059N0160935N5+01407+00207999999ADDGA1045+014335999GD12991+0143359GF104991999999999999999999MA1101835091665OC101345REMMET07501/13/10 13:54:02 METAR KVCV 132154Z 28017G26KT 10SM SCT047 14/02 A3007 RMKEQDR01    147TMP046R02    027DPT046
0221723825231312010011322527+34598-117380FM-15+0879KVCV V0202805N011352200079N0160935N5+01307+00007999999ADDGF100991999999999999999999MA1101835091665REMMET06901/13/10 14:52:02 METAR KVCV 132252Z 28022KT 10SM SKC 13/00 A3007 RMKEQDQ01    099SCCGD1P01    003SCCGA1R01   SKC7SKY009R02    137TMP046R03    007DPT046R04   SKC7GAS009
0233723825231312010011400487+34598-117380FM-15+0879KVCV V0202605N011352200079N0160935N5+01107-00107999999ADDGF100991999999999999999999MA1101765091605OC101395REMMET07301/13/10 16:48:02 METAR KVCV 140048Z 26022G27KT 10SM SKC 11/M01 A3005 RMKEQDQ01    099SCCGD1P01    003SCCGA1R01   SKC7SKY009R02    117TMP046R03   M017DPT046R04   SKC7GAS009
0221723825231312010011401517+34598-117380FM-15+0879KVCV V0202605N007752200079N0160935N5+01007+00107999999ADDGF100991999999999999999999MA1101935091755REMMET06901/13/10 17:51:02 METAR KVCV 140151Z 26015KT 10SM SKC 10/01 A3010 RMKEQDQ01    099SCCGD1P01    003SCCGA1R01   SKC7SKY009R02    107TMP046R03    017DPT046R04   SKC7GAS009
0222723825231312010011414507+34598-117380FM-15+0879KVCV V0202105N002152200079N0160935N5+00307-00107999999ADDGF100991999999999999999999MA1102375092165REMMET07001/14/10 06:50:01 METAR KVCV 141450Z 21004KT 10SM SKC 03/M01 A3023 RMKEQDQ01    099SCCGD1P01    003SCCGA1R01   SKC7SKY009R02    037TMP046R03   M017DPT046R04   SKC7GAS009
0222723825231312010011417557+34598-117380FM-15+0879KVCV V0209999C000052200079N0160935N5+01007-00307999999ADDGF100991999999999999999999MA1102615092375REMMET07001/14/10 09:55:01 METAR KVCV 141755Z 00000KT 10SM SKC 10/M03 A3030 RMKEQDQ01    099SCCGD1P01    003SCCGA1R01   SKC7SKY009R02    107TMP046R03   M037DPT046R04   SKC7GAS009
0222723825231312010011418537+34598-117380FM-15+0879KVCV V0209999C000052200079N0160935N5+01107-00407999999ADDGF100991999999999999999999MA1102615092375REMMET07001/14/10 10:53:02 METAR KVCV 141853Z 00000KT 10SM SKC 11/M04 A3030 RMKEQDQ01    099SCCGD1P01    003SCCGA1R01   SKC7SKY009R02    117TMP046R03   M047DPT046R04   SKC7GAS009
0222723825231312010011420487+34598-117380FM-15+0879KVCV V0203505N003152200079N0160935N5+01407-00607999999ADDGF100991999999999999999999MA1102475092255REMMET07001/14/10 12:48:02 METAR KVCV 142048Z 35006KT 10SM SKC 14/M06 A3026 RMKEQDQ01    099SCCGD1P01    003SCCGA1R01   SKC7SKY009R02    147TMP046R03   M067DPT046R04   SKC7GAS009
0233723825231312010011421587+34598-117380FM-15+0879KVCV V0200105N005152200079N0160935N5+01507-00707999999ADDGF100991999999999999999999MA1102405092195OC100775REMMET07301/14/10 13:58:02 METAR KVCV 142158Z 01010G15KT 10SM SKC 15/M07 A3024 RMKEQDQ01    099SCCGD1P01    003SCCGA1R01   SKC7SKY009R02    157TMP046R03   M077DPT046R04   SKC7GAS009
0222723825231312010011422597+34598-117380FM-15+0879KVCV V0203605N004152200079N0160935N5+01507-00707999999ADDGF100991999999999999999999MA1102445092225REMMET07001/14/10 14:59:02 METAR KVCV 142259Z 36008KT 10SM SKC 15/M07 A3025 RMKEQDQ01    099SCCGD1P01    003SCCGA1R01   SKC7SKY009R02    157TMP046R03   M077DPT046R04   SKC7GAS009
0222723825231312010011500487+34598-117380FM-15+0879KVCV V0203505N002652200079N0160935N5+01307-00807999999ADDGF100991999999999999999999MA1102375092165REMMET07001/14/10 16:48:02 METAR KVCV 150048Z 35005KT 10SM SKC 13/M08 A3023 RMKEQDQ01    099SCCGD1P01    003SCCGA1R01   SKC7SKY009R02    137TMP046R03   M087DPT046R04   SKC7GAS009
0222723825231312010011501487+34598-117380FM-15+0879KVCV V0201705N002652200079N0160935N5+00807-00807999999ADDGF100991999999999999999999MA1102515092285REMMET07001/14/10 17:48:02 METAR KVCV 150148Z 17005KT 10SM SKC 08/M08 A3027 RMKEQDQ01    099SCCGD1P01    003SCCGA1R01   SKC7SKY009R02    087TMP046R03   M087DPT046R04   SKC7GAS009
0222723825231312010011502487+34598-117380FM-15+0879KVCV V0209999C000052200079N0160935N5+00807-00907999999ADDGF100991999999999999999999MA1102545092315REMMET07001/14/10 18:48:02 METAR KVCV 150248Z 00000KT 10SM SKC 08/M09 A3028 RMKEQDQ01    099SCCGD1P01    003SCCGA1R01   SKC7SKY009R02    087TMP046R03   M097DPT046R04   SKC7GAS009
0222723825231312010011503487+34598-117380FM-15+0879KVCV V0209999C000052200079N0160935N5+00807-00907999999ADDGF100991999999999999999999MA1102545092315REMMET07001/14/10 19:48:02 METAR KVCV 150348Z 00000KT 10SM SKC 08/M09 A3028 RMKEQDQ01    099SCCGD1P01    003SCCGA1R01   SKC7SKY009R02    087TMP046R03   M097DPT046R04   SKC7GAS009
0223723825231312010011514567+34598-117380FM-15+0879KVCV V0202105N002152200079N0160935N5-00207-00907999999ADDGF100991999999999999999999MA1102575092345REMMET07101/15/10 06:56:02 METAR KVCV 151456Z 21004KT 10SM SKC M02/M09 A3029 RMKEQDQ01    099SCCGD1P01    003SCCGA1R01   SKC7SKY009R02   M027TMP046R03   M097DPT046R04   SKC7GAS009
0222723825231312010011516537+34598-117380FM-15+0879KVCV V0209999C000052200079N0160935N5+00607-00807999999ADDGF100991999999999999999999MA1102645092405REMMET07001/15/10 08:53:02 METAR KVCV 151653Z 00000KT 10SM SKC 06/M08 A3031 RMKEQDQ01    099SCCGD1P01    003SCCGA1R01   SKC7SKY009R02    067TMP046R03   M087DPT046R04   SKC7GAS009
0192723825231312010011517487+34598-117380FM-15+0879KVCV V0209999C000052200059N0160935N5+00807-00807999999ADDGA1045+030485999GD12991+0304859GF104991999999999999999999MA1102715092475REMMET07301/15/10 09:48:02 METAR KVCV 151748Z 00000KT 10SM SCT100 08/M08 A3033 RMKEQDR01    087TMP046R02   M087DPT046
0192723825231312010011518557+34598-117380FM-15+0879KVCV V0209999C000052200059N0160935N5+01107-00707999999ADDGA1045+033535999GD12991+0335359GF104991999999999999999999MA1102615092375REMMET07301/15/10 10:55:02 METAR KVCV 151855Z 00000KT 10SM SCT110 11/M07 A3030 RMKEQDR01    117TMP046R02   M077DPT046
0230723825231312010011519487+34598-117380FM-15+0879KVCV V0203305N002152200059N0160935N5+01207-00707999999ADDGA1045+027435999GA2045+033535999GD12991+0274359GD22991+0335359GF104991999999999999999999MA1102545092315REMMET08001/15/10 11:48:01 METAR KVCV 151948Z 33004KT 10SM SCT090 SCT110 12/M07 A3028 RMKEQDR01    127TMP046R02   M077DPT046
0192723825231312010011521487+34598-117380FM-15+0879KVCV V0209999C000052200059N0160935N5+01307-00707999999ADDGA1045+027435999GD12991+0274359GF104991999999999999999999MA1102305092095REMMET07301/15/10 13:48:02 METAR KVCV 152148Z 00000KT 10SM SCT090 13/M07 A3021 RMKEQDR01    137TMP046R02   M077DPT046
0192723825231312010011523487+34598-117380FM-15+0879KVCV V0209999C000052200059N0160935N5+01307-00807999999ADDGA1045+033535999GD12991+0335359GF104991999999999999999999MA1102205092005REMMET07301/15/10 15:48:02 METAR KVCV 152348Z 00000KT 10SM SCT110 13/M08 A3018 RMKEQDR01    137TMP046R02   M087DPT046
0222723825231312010011614477+34598-117380FM-15+0879KVCV V0201505N005152200079N0160935N5+00407-00607999999ADDGF100991999999999999999999MA1101695091535REMMET07001/16/10 06:47:02 METAR KVCV 161447Z 15010KT 10SM SKC 04/M06 A3003 RMKEQDQ01    099SCCGD1P01    003SCCGA1R01   SKC7SKY009R02    047TMP046R03   M067DPT046R04   SKC7GAS009
0222723825231312010011615467+34598-117380FM-15+0879KVCV V0201105N004652200079N0160935N5+00507-00607999999ADDGF100991999999999999999999MA1101665091505REMMET07001/16/10 07:46:02 METAR KVCV 161546Z 11009KT 10SM SKC 05/M06 A3002 RMKEQDQ01    099SCCGD1P01    003SCCGA1R01   SKC7SKY009R02    057TMP046R03   M067DPT046R04   SKC7GAS009
0192723825231312010011616507+34598-117380FM-15+0879KVCV V0200905N002652200059N0160935N5+00507-00507999999ADDGA1045+033535999GD12991+0335359GF104991999999999999999999MA1101635091475REMMET07301/16/10 08:50:02 METAR KVCV 161650Z 09005KT 10SM SCT110 05/M05 A3001 RMKEQDR01    057TMP046R02   M057DPT046
0222723825231312010011619497+34598-117380FM-15+0879KVCV V0209999C000052200079N0160935N5+01307-00607999999ADDGF100991999999999999999999MA1101595091445REMMET07001/16/10 11:49:02 METAR KVCV 161949Z 00000KT 10SM SKC 13/M06 A3000 RMKEQDQ01    099SCCGD1P01    003SCCGA1R01   SKC7SKY009R02    137TMP046R03   M067DPT046R04   SKC7GAS009
0222723825231312010011620487+34598-117380FM-15+0879KVCV V0203305N002652200079N0160935N5+01407-00607999999ADDGF100991999999999999999999MA1101495091355REMMET07001/16/10 12:48:02 METAR KVCV 162048Z 33005KT 10SM SKC 14/M06 A2997 RMKEQDQ01    099SCCGD1P01    003SCCGA1R01   SKC7SKY009R02    147TMP046R03   M067DPT046R04   SKC7GAS009
0233723825231312010011622487+34598-117380FM-15+0879KVCV V0201605N007752200079N0160935N5+01607-00507999999ADDGF100991999999999999999999MA1101355091225OC101035REMMET07301/16/10 14:48:01 METAR KVCV 162248Z 16015G20KT 10SM SKC 16/M05 A2993 RMKEQDQ01    099SCCGD1P01    003SCCGA1R01   SKC7SKY009R02    167TMP046R03   M057DPT046R04   SKC7GAS009
0203723825231312010011623487+34598-117380FM-15+0879KVCV V0201605N007752200059N0160935N5+01507-00407999999ADDGA1045+033535999GD12991+0335359GF104991999999999999999999MA1101395091255OC101035REMMET07601/16/10 15:48:02 METAR KVCV 162348Z 16015G20KT 10SM SCT110 15/M04 A2994 RMKEQDR01    157TMP046R02   M047DPT046
0222723825231312010011713557+34598-117380FM-15+0879KVCV V0209999C000052200079N0160935N5+00207-00307999999ADDGF100991999999999999999999MA1101395091255REMMET07001/17/10 05:55:02 METAR KVCV 171355Z 00000KT 10SM SKC 02/M03 A2994 RMKEQDQ01    099SCCGD1P01    003SCCGA1R01   SKC7SKY009R02    027TMP046R03   M037DPT046R04   SKC7GAS009
0222723825231312010011714507+34598-117380FM-15+0879KVCV V0209999C000052200079N0160935N5+00207-00307999999ADDGF100991999999999999999999MA1101465091325REMMET07001/17/10 06:50:02 METAR KVCV 171450Z 00000KT 10SM SKC 02/M03 A2996 RMKEQDQ01    099SCCGD1P01    003SCCGA1R01   SKC7SKY009R02    027TMP046R03   M037DPT046R04   SKC7GAS009
0222723825231312010011715507+34598-117380FM-15+0879KVCV V0209999C000052200079N0160935N5+00407-00207999999ADDGF100991999999999999999999MA1101425091285REMMET07001/17/10 07:50:02 METAR KVCV 171550Z 00000KT 10SM SKC 04/M02 A2995 RMKEQDQ01    099SCCGD1P01    003SCCGA1R01   SKC7SKY009R02    047TMP046R03   M027DPT046R04   SKC7GAS009
0222723825231312010011716487+34598-117380FM-15+0879KVCV V0201505N002152200079N0160935N5+00807-00207999999ADDGF100991999999999999999999MA1101465091325REMMET07001/17/10 08:48:02 METAR KVCV 171648Z 15004KT 10SM SKC 08/M02 A2996 RMKEQDQ01    099SCCGD1P01    003SCCGA1R01   SKC7SKY009R02    087TMP046R03   M027DPT046R04   SKC7GAS009
0222723825231312010011717487+34598-117380FM-15+0879KVCV V0201405N002652200079N0160935N5+01207-00307999999ADDGF100991999999999999999999MA1101465091325REMMET07001/17/10 09:48:02 METAR KVCV 171748Z 14005KT 10SM SKC 12/M03 A2996 RMKEQDQ01    099SCCGD1P01    003SCCGA1R01   SKC7SKY009R02    127TMP046R03   M037DPT046R04   SKC7GAS009
0222723825231312010011719487+34598-117380FM-15+0879KVCV V0201805N003652200079N0160935N5+01507-00407999999ADDGF100991999999999999999999MA1101355091225REMMET07001/17/10 11:48:01 METAR KVCV 171948Z 18007KT 10SM SKC 15/M04 A2993 RMKEQDQ01    099SCCGD1P01    003SCCGA1R01   SKC7SKY009R02    157TMP046R03   M047DPT046R04   SKC7GAS009
0240723825231312010011722497+34598-117380FM-15+0879KVCV V0201805N007752200059N0160935N5+01207+00007999999ADDGA1045+027435999GA2045+033535999GD12991+0274359GD22991+0335359GF104991999999999999999999MA1101225091105OC100985REMMET08201/17/10 14:49:02 METAR KVCV 172249Z 18015G19KT 10SM SCT090 SCT110 12/00 A2989 RMKEQDR01    127TMP046R02    007DPT046
0202723825231312010011723517+34598-117380FM-15+0879KVCV V0201905N00465021345MN0160935N5+01207+00007999999ADDGA1085+021345999GD14991+0213459GF108991999999999999999999MA1101255091135OC100885REMMET07501/17/10 15:51:02 METAR KVCV 172351Z 19009G17KT 10SM OVC070 12/00 A2990 RMKEQDR01    127TMP046R02    007DPT046
0229723825231312010011800507+34598-117380FM-15+0879KVCV V0201705N00415021345MN0160935N5+01107+00207999999ADDGA1075+021345999GA2085+033535999GD13991+0213459GD24991+0335359GF108991999999999999999999MA1101225091105REMMET07901/17/10 16:50:02 METAR KVCV 180050Z 17008KT 10SM BKN070 OVC110 11/02 A2989 RMKEQDR01    117TMP046R02    027DPT046
0260723825231312010011801527+34598-117380FM-15+0879KVCV V0201905N00575021345MN0160935N5+00907+00507999999ADDAU120020015AW1625GA1075+021345999GA2085+030485999GD13991+0213459GD24991+0304859GF108991999999999999999999MA1101295091165MW1631REMMET08701/17/10 17:52:02 METAR KVCV 180152Z 19011KT 10SM RA BKN070 OVC100 09/05 A2991 RMK RB15EQDR01    097TMP046R02    057DPT046
0256723825231312010011802547+34598-117380FM-15+0879KVCV V0201905N00365018295MN0160935N5+00807+00707999999ADDAU110020015AW1615GA1075+018295999GA2085+022865999GD13991+0182959GD24991+0228659GF108991999999999999999999MA1101295091165MW1611REMMET08301/17/10 18:54:01 METAR KVCV 180254Z 19007KT 10SM -RA BKN060 OVC075 08/07 A2991 RMKEQDR01    087TMP046R02    077DPT046
0223723825231312010011803487+34598-117380FM-15+0879KVCV V0209999C00005019815MN0160935N5+00807+00707999999ADDAU110020015AW1615GA1085+019815999GD14991+0198159GF108991999999999999999999MA1101295091165MW1611REMMET08101/17/10 19:48:02 METAR KVCV 180348Z 00000KT 10SM -RA OVC065 08/07 A2991 RMK LASTEQDR01    087TMP046R02    077DPT046
0240723825231312010011813557+34598-117380FM-15+0879KVCV V0201405N00825027435MN0160935N5+00907+00707999999ADDGA1045+018295999GA2075+027435999GD12991+0182959GD23991+0274359GF107991999999999999999999MA1100985090885OC101135REMMET08201/18/10 05:55:02 METAR KVCV 181355Z 14016G22KT 10SM SCT060 BKN090 09/07 A2982 RMKEQDR01    097TMP046R02    077DPT046
0202723825231312010011814557+34598-117380FM-15+0879KVCV V0201405N012452200059N0160935N5+00907+00707999999ADDGA1045+030485999GD12991+0304859GF104991999999999999999999MA1100915090825OC101545REMMET07501/18/10 06:55:02 METAR KVCV 181455Z 14024G30KT 10SM SCT100 09/07 A2980 RMKEQDR01    097TMP046R02    077DPT046
0240723825231312010011816487+34598-117380FM-15+0879KVCV V0201505N01135018295MN0160935N5+01107+00707999999ADDGA1075+018295999GA2075+022865999GD13991+0182959GD23991+0228659GF107991999999999999999999MA1100885090795OC101545REMMET08201/18/10 08:48:02 METAR KVCV 181648Z 15022G30KT 10SM BKN060 BKN075 11/07 A2979 RMKEQDR01    117TMP046R02    077DPT046
0240723825231312010011817487+34598-117380FM-15+0879KVCV V0201505N012952200059N0160935N5+01107+00707999999ADDGA1045+018295999GA2045+024385999GD12991+0182959GD22991+0243859GF104991999999999999999999MA1100815090725OC101805REMMET08201/18/10 09:48:02 METAR KVCV 181748Z 15025G35KT 10SM SCT060 SCT080 11/07 A2977 RMKEQDR01    117TMP046R02    077DPT046
0278723825231312010011818507+34598-117380FM-15+0879KVCV V0201505N01395033535MN0160935N5+01107+00807999999ADDGA1045+006715999GA2045+011585999GA3075+033535999GD12991+0067159GD22991+0115859GD33991+0335359GF107991999999999999999999MA1100615090545OC101655REMMET08901/18/10 10:50:01 METAR KVCV 181850Z 15027G32KT 10SM SCT022 SCT038 BKN110 11/08 A2971 RMKEQDR01    117TMP046R02    087DPT046
0240723825231312010011819487+34598-117380FM-15+0879KVCV V0201505N01445018295MN0160935N5+01107+00807999999ADDGA1045+006715999GA2075+018295999GD12991+0067159GD23991+0182959GF107991999999999999999999MA1100415090355OC102065REMMET08201/18/10 11:48:01 METAR KVCV 181948Z 15028G40KT 10SM SCT022 BKN060 11/08 A2965 RMKEQDR01    117TMP046R02    087DPT046
0266723825231312010011821467+34598-117380FM-15+0879KVCV V0201505N01295011585MN0032195N5+00907+00807999999ADDAU110020015AW1615GA1045+010675999GA2085+011585999GD12991+0106759GD24991+0115859GF108991999999999999999999MA1100415090355MW1611OC102165REMMET08501/18/10 13:46:02 METAR KVCV 182146Z 15025G42KT 2SM -RA SCT035 OVC038 09/08 A2965 RMKEQDR01    097TMP046R02    087DPT046
0292723825231312010011822587+34598-117380FM-15+0879KVCV V0201605N00985015245MN0064375N5+00907+00807999999ADDAU120020015AW1625GA1045+010675999GA2075+015245999GA3085+016765999GD12991+0106759GD23991+0152459GD34991+0167659GF108991999999999999999999MA1100415090355MW1631REMMET08801/18/10 14:58:02 METAR KVCV 182258Z 16019KT 4SM RA SCT035 BKN050 OVC055 09/08 A2965 RMKEQDR01    097TMP046R02    087DPT046
0229723825231312010011823477+34598-117380FM-15+0879KVCV V0201805N00515030485MN0160935N5+01107+00707999999ADDGA1045+019815999GA2075+030485999GD12991+0198159GD23991+0304859GF107991999999999999999999MA1100445090385REMMET07901/18/10 15:47:02 METAR KVCV 182347Z 18010KT 10SM SCT065 BKN100 11/07 A2966 RMKEQDR01    117TMP046R02    077DPT046
0221723825231312010011914557+34598-117380FM-15+0879KVCV V0201605N009352200079N0160935N5+00707+00207999999ADDGF100991999999999999999999MA1100685090605REMMET06901/19/10 06:55:02 METAR KVCV 191455Z 16018KT 10SM SKC 07/02 A2973 RMKEQDQ01    099SCCGD1P01    003SCCGA1R01   SKC7SKY009R02    077TMP046R03    027DPT046R04   SKC7GAS009
0191723825231312010011916507+34598-117380FM-15+0879KVCV V0201505N011352200059N0160935N5+00707+00307999999ADDGA1045+033535999GD12991+0335359GF104991999999999999999999MA1100645090575REMMET07201/19/10 08:50:01 METAR KVCV 191650Z 15022KT 10SM SCT110 07/03 A2972 RMKEQDR01    077TMP046R02    037DPT046
0202723825231312010011917487+34598-117380FM-15+0879KVCV V0201405N011352200059N0160935N5+00707+00307999999ADDGA1045+033535999GD12991+0335359GF104991999999999999999999MA1100615090545OC101545REMMET07501/19/10 09:48:02 METAR KVCV 191748Z 14022G30KT 10SM SCT110 07/03 A2971 RMKEQDR01    077TMP046R02    037DPT046
0278723825231312010011919497+34598-117380FM-15+0879KVCV V0201705N00575018295MN0160935N5+00907+00307999999ADDGA1045+011585999GA2045+014335999GA3075+018295999GD12991+0115859GD22991+0143359GD33991+0182959GF107991999999999999999999MA1100305090265OC101605REMMET08901/19/10 11:49:02 METAR KVCV 191949Z 17011G31KT 10SM SCT038 SCT047 BKN060 09/03 A2962 RMKEQDR01    097TMP046R02    037DPT046
0308723825231312010011920497+34598-117380FM-15+0879KVCV V0201505N01605011585MN0080475N5+00707+00207999999ADDAU120020015AW1625GA1045+006405999GA2045+008535999GA3085+011585999GD12991+0064059GD22991+0085359GD34991+0115859GF108991999999999999999999MA1100105090075MW1631OC102015REMMET09601/19/10 12:49:02 METAR KVCV 192049Z 15031G39KT 5SM RA SCT021 SCT028 OVC038 07/02 A2956 RMK RB26EQDR01    077TMP046R02    027DPT046
0254723825231312010011921577+34598-117380FM-15+0879KVCV V0201405N01035007325MN0064375N5+00507+00307999999ADDAU120020015AW1625GA1075+007325999GA2085+009455999GD13991+0073259GD24991+0094559GF108991999999999999999999MA1100105090075MW1631REMMET08101/19/10 13:57:02 METAR KVCV 192157Z 14020KT 4SM RA BKN024 OVC031 05/03 A2956 RMKEQDR01    057TMP046R02    037DPT046
0292723825231312010011923467+34598-117380FM-15+0879KVCV V0201805N00315007925MN0048285N5+00307+00207999999ADDAU120020015AW1625GA1045+006715999GA2075+007925999GA3085+009755999GD12991+0067159GD23991+0079259GD34991+0097559GF108991999999999999999999MA1100075090045MW1631REMMET08801/19/10 15:46:02 METAR KVCV 192346Z 18006KT 3SM RA SCT022 BKN026 OVC032 03/02 A2955 RMKEQDR01    037TMP046R02    027DPT046
0217723825231312010012001467+34598-117380FM-15+0879KVCV V0202405N00415002135MN0080475N5+00207+00207999999ADDAU110020015AW1615GA1085+002135999GD14991+0021359GF108991999999999999999999MA1100275090235MW1611REMMET07501/19/10 17:46:02 METAR KVCV 200146Z 24008KT 5SM -RA OVC007 02/02 A2961 RMKEQDR01    027TMP046R02    027DPT046
0232723825231312010012014537+34598-117380FM-15+0879KVCV V0201705N010852200079N0160935N5+00507+00207999999ADDGF100991999999999999999999MA1100345090295OC101545REMMET07201/20/10 06:53:01 METAR KVCV 201453Z 17021G30KT 10SM SKC 05/02 A2963 RMKEQDQ01    099SCCGD1P01    003SCCGA1R01   SKC7SKY009R02    057TMP046R03    027DPT046R04   SKC7GAS009
0202723825231312010012016537+34598-117380FM-15+0879KVCV V0201505N011852200059N0160935N5+00707+00407999999ADDGA1045+033535999GD12991+0335359GF104991999999999999999999MA1100275090235OC101605REMMET07501/20/10 08:53:02 METAR KVCV 201653Z 15023G31KT 10SM SCT110 07/04 A2961 RMKEQDR01    077TMP046R02    047DPT046
0240723825231312010012019527+34598-117380FM-15+0879KVCV V0201805N01705030485MN0160935N5+00807+00207999999ADDGA1045+024385999GA2075+030485999GD12991+0243859GD23991+0304859GF107991999999999999999999MA1100075090045OC102785REMMET08201/20/10 11:52:02 METAR KVCV 201952Z 18033G54KT 10SM SCT080 BKN100 08/02 A2955 RMKEQDR01    087TMP046R02    027DPT046
0309723825231312010012020517+34598-117380FM-15+0879KVCV V0201805N01135010675MN0112655N5+00707+00307999999ADDAU110020015AW1615GA1045+008535999GA2075+010675999GA3075+025915999GD12991+0085359GD23991+0106759GD33991+0259159GF107991999999999999999999MA1100035090015MW1611OC102425REMMET09701/20/10 12:51:01 METAR KVCV 202051Z 18022G47KT 7SM -RA SCT028 BKN035 BKN085 07/03 A2954 RMK RB31EQDR01    077TMP046R02    037DPT046
0283723825231312010012022467+34598-117380FM-15+0879KVCV V0201605N01035013415MN0080477N5+00607+00307999999ADDAU110020015AW1615GA1045+008845999GA2075+013415999GD12991+0088459GD23991+0134159GF107991999999999999999999MA1099865089855MW1611OC101545REMMET08601/20/10 14:46:02 METAR KVCV 202246Z 16020G30KT 05SM -RA SCT029 BKN044 06/03 A2949 RMKEQDR01  05SM7VIS011R02    067TMP046R03    037DPT046
0266723825231312010012023487+34598-117380FM-15+0879KVCV V0201505N01245006405MN0064375N5+00407+00207999999ADDAU110020015AW1615GA1075+006405999GA2085+009145999GD13991+0064059GD24991+0091459GF108991999999999999999999MA1099835089825MW1611OC101395REMMET08501/20/10 15:48:02 METAR KVCV 202348Z 15024G27KT 4SM -RA BKN021 OVC030 04/02 A2948 RMKEQDR01    047TMP046R02    027DPT046
0318723825231312010012100467+34598-117380FM-15+0879KVCV V0201505N00825006105MN0048287N5+00207+00107999999ADDAU120030017AW1727GA1075+006105999GA2085+007625999GD13991+0061059GD24991+0076259GF108991999999999999999999MA1099865089855MW1731REMMET08101/20/10 16:46:02 METAR KVCV 210046Z 15016KT 3SM SN BKN020 OVC025 02/01 A2949 RMKEQDR01   3SM7VIS012R02    027TMP046R03    017DPT046R04    SN7AWW012R05SEERMK7MVW012R06    SN7MWW012
0280723825231312010012101477+34598-117380FM-15+0879KVCV V0201505N00515006105MN0032197N5+00107+00107999999ADDAU120030017AW1727GA1085+006105999GD14991+0061059GF108991999999999999999999MA1099975089955MW1731REMMET07401/20/10 17:47:02 METAR KVCV 210147Z 15010KT 2SM SN OVC020 01/01 A2952 RMKEQDR01   2SM7VIS012R02    017TMP046R03    017DPT046R04    SN7AWW012R05SEERMK7MVW012R06    SN7MWW012
0294723825231312010012102487+34598-117380FM-15+0879KVCV V0201305N00775014945MN0160935N5+00207+00107999999ADDAU110020015AW1615GA1045+009145999GA2075+014945999GA3085+025915999GD12991+0091459GD23991+0149459GD34991+0259159GF108991999999999999999999MA1099805089795MW1611REMMET09001/20/10 18:48:02 METAR KVCV 210248Z 13015KT 10SM -RA SCT030 BKN049 OVC085 02/01 A2947 RMKEQDR01    027TMP046R02    017DPT046
0256723825231312010012114517+34598-117380FM-15+0879KVCV V0201205N00775010675MN0160935N5+00407+00307999999ADDAU110020015AW1615GA1075+010675999GA2085+014025999GD13991+0106759GD24991+0140259GF108991999999999999999999MA1099295089335MW1611REMMET08301/21/10 06:51:02 METAR KVCV 211451Z 12015KT 10SM -RA BKN035 OVC046 04/03 A2932 RMKEQDR01    047TMP046R02    037DPT046
0293723825231312010012116537+34598-117380FM-15+0879KVCV V0201205N00775011895MN0080475N5+00407+00207999999ADDAU110020015AW1615GA1075+011895999GA2075+016765999GA3085+030485999GD13991+0118959GD23991+0167659GD34991+0304859GF108991999999999999999999MA1099095089145MW1611REMMET08901/21/10 08:53:02 METAR KVCV 211653Z 12015KT 5SM -RA BKN039 BKN055 OVC100 04/02 A2926 RMKEQDR01    047TMP046R02    027DPT046
0304723825231312010012119497+34598-117380FM-15+0879KVCV V0201205N00985018295MN0080475N5+00607+00307999999ADDAU110020015AW1615GA1045+011895999GA2075+018295999GA3085+025915999GD12991+0118959GD23991+0182959GD34991+0259159GF108991999999999999999999MA1098515088615MW1611OC101185REMMET09201/21/10 11:49:02 METAR KVCV 211949Z 12019G23KT 5SM -RA SCT039 BKN060 OVC085 06/03 A2909 RMKEQDR01    067TMP046R02    037DPT046
0193723825231312010012120157+34598-117380FM-15+0879KVCV V0201205N00825010975MN0064375N5+00505+00305999999ADDAU110020015AW1615GA1085+010975999GD14991+0109759GF108991999999999999999999MA1098445088555MW1611OC101185REMMET07801/21/10 12:15:02 METAR KVCV 212015Z 12016G23KT 4SM -RA OVC036 05/03 A2907 RMK
0216723825231312010012120467+34598-117380FM-15+0879KVCV V0201205N00775008845MN0048285N5+00507+00307999999ADDAU120020015AW1625GA1085+008845999GD14991+0088459GF108991999999999999999999MA1098445088555MW1631REMMET07401/21/10 12:46:02 METAR KVCV 212046Z 12015KT 3SM RA OVC029 05/03 A2907 RMKEQDR01    057TMP046R02    037DPT046
0128723825231312010012120597+34598-117380FM-15+0879KVCV V0201105N007752200019N0028165N5+00505+00405999999ADDAU120020015AW1625MA1098415088525MW1631REMMET07801/21/10 12:59:02 METAR KVCV 212059Z 11015KT 1 3/4SM RA OVC-25 05/04 A2906 RMK
0219723825231312010012121157+34598-117380FM-15+0879KVCV V0201105N00675007325MN0048285N5+00505+00305999999ADDAU120020015AW1625GA1075+007325999GA2085+009755999GD13991+0073259GD24991+0097559GF108991999999999999999999MA1098375088495MW1631REMMET08101/21/10 13:15:02 METAR KVCV 212115Z 11013KT 3SM RA BKN024 OVC032 05/03 A2905 RMK
0293723825231312010012122467+34598-117380FM-15+0879KVCV V0201205N00465012195MN0080475N5+00507+00307999999ADDAU110020015AW1615GA1075+012195999GA2075+015245999GA3085+019815999GD13991+0121959GD23991+0152459GD34991+0198159GF108991999999999999999999MA1098275088395MW1611REMMET08901/21/10 14:46:02 METAR KVCV 212246Z 12009KT 5SM -RA BKN040 BKN050 OVC065 05/03 A2902 RMKEQDR01    057TMP046R02    037DPT046
0310723825231312010012123467+34598-117380FM-15+0879KVCV V0202505N00415010065MN0112657N5+00507+00407999999ADDAU110020015AW1615GA1045+007325999GA2075+010065999GA3085+015245999GD12991+0073259GD23991+0100659GD34991+0152459GF108991999999999999999999MA1098485088585MW1611REMMET09001/21/10 15:46:02 METAR KVCV 212346Z 25008KT 07SM -RA SCT024 BKN033 OVC050 05/04 A2908 RMKEQDR01  07SM7VIS011R02    057TMP046R03    047DPT046
0293723825231312010012200507+34598-117380FM-15+0879KVCV V0202405N00215010675MN0112655N5+00507+00307999999ADDAU110020015AW1615GA1045+007015999GA2075+010675999GA3085+024385999GD12991+0070159GD23991+0106759GD34991+0243859GF108991999999999999999999MA1098585088675MW1611REMMET08901/21/10 16:50:02 METAR KVCV 220050Z 24004KT 7SM -RA SCT023 BKN035 OVC080 05/03 A2911 RMKEQDR01    057TMP046R02    037DPT046
0293723825231312010012201507+34598-117380FM-15+0879KVCV V0201805N00515008845MN0160935N5+00407+00307999999ADDAU120020015AW1625GA1075+008845999GA2075+012805999GA3085+022865999GD13991+0088459GD23991+0128059GD34991+0228659GF108991999999999999999999MA1098615088705MW1631REMMET08901/21/10 17:50:02 METAR KVCV 220150Z 18010KT 10SM RA BKN029 BKN042 OVC075 04/03 A2912 RMKEQDR01    047TMP046R02    037DPT046
0266723825231312010012202507+34598-117380FM-15+0879KVCV V0201805N00575008535MN0160935N5+00507+00207999999ADDAU120020015AW1625GA1075+008535999GA2085+011895999GD13991+0085359GD24991+0118959GF108991999999999999999999MA1098685088775MW1631OC100935REMMET08501/21/10 18:50:02 METAR KVCV 220250Z 18011G18KT 10SM RA BKN028 OVC039 05/02 A2914 RMKEQDR01    057TMP046R02    027DPT046
0255723825231312010012203477+34598-117380FM-15+0879KVCV V0202105N00365013415MN0160935N5+00507+00207999999ADDAU120020015AW1625GA1075+013415999GA2085+030485999GD13991+0134159GD24991+0304859GF108991999999999999999999MA1098755088835MW1631REMMET08201/21/10 19:47:02 METAR KVCV 220347Z 21007KT 10SM RA BKN044 OVC100 05/02 A2916 RMKEQDR01    057TMP046R02    027DPT046
0256723825231312010012214517+34598-117380FM-15+0879KVCV V0202705N00265006715MN0160935N5+00307+00207999999ADDAU110020015AW1615GA1075+006715999GA2085+008235999GD13991+0067159GD24991+0082359GF108991999999999999999999MA1099535089545MW1611REMMET08301/22/10 06:51:01 METAR KVCV 221451Z 27005KT 10SM -RA BKN022 OVC027 03/02 A2939 RMKEQDR01    037TMP046R02    027DPT046
0191723825231312010012217487+34598-117380FM-15+0879KVCV V0201805N00315010675MN0160935N5+00507+00207999999ADDGA1075+010675999GD13991+0106759GF107991999999999999999999MA1099765089765REMMET07201/22/10 09:48:02 METAR KVCV 221748Z 18006KT 10SM BKN035 05/02 A2946 RMKEQDR01    057TMP046R02    027DPT046
0229723825231312010012219487+34598-117380FM-15+0879KVCV V0201805N007752200059N0160935N5+00607+00207999999ADDGA1045+010675999GA2045+033535999GD12991+0106759GD22991+0335359GF104991999999999999999999MA1099735089735REMMET07901/22/10 11:48:01 METAR KVCV 221948Z 18015KT 10SM SCT035 SCT110 06/02 A2945 RMKEQDR01    067TMP046R02    027DPT046
0267723825231312010012220467+34598-117380FM-15+0879KVCV V0201805N00675018295MN0160935N5+00607+00207999999ADDGA1045+012505999GA2075+018295999GA3075+021345999GD12991+0125059GD23991+0182959GD33991+0213459GF107991999999999999999999MA1099735089735REMMET08601/22/10 12:46:01 METAR KVCV 222046Z 18013KT 10SM SCT041 BKN060 BKN070 06/02 A2945 RMKEQDR01    067TMP046R02    027DPT046
0229723825231312010012221467+34598-117380FM-15+0879KVCV V0201705N00825022865MN0160935N5+00607+00207999999ADDGA1075+022865999GA2075+033535999GD13991+0228659GD23991+0335359GF107991999999999999999999MA1099735089735REMMET07901/22/10 13:46:02 METAR KVCV 222146Z 17016KT 10SM BKN075 BKN110 06/02 A2945 RMKEQDR01    067TMP046R02    027DPT046
0191723825231312010012222487+34598-117380FM-15+0879KVCV V0201605N005152200059N0160935N5+00507+00107999999ADDGA1045+033535999GD12991+0335359GF104991999999999999999999MA1099735089735REMMET07201/22/10 14:48:02 METAR KVCV 222248Z 16010KT 10SM SCT110 05/01 A2945 RMKEQDR01    057TMP046R02    017DPT046
0267723825231312010012223497+34598-117380FM-15+0879KVCV V0201805N00625015245MN0160935N5+00507+00107999999ADDGA1045+006715999GA2075+015245999GA3085+024385999GD12991+0067159GD23991+0152459GD34991+0243859GF108991999999999999999999MA1099865089855REMMET08601/22/10 15:49:02 METAR KVCV 222349Z 18012KT 10SM SCT022 BKN050 OVC080 05/01 A2949 RMKEQDR01    057TMP046R02    017DPT046
0222723825231312010012314487+34598-117380FM-15+0879KVCV V0202005N004152200079N0160935N5+00107-00207999999ADDGF100991999999999999999999MA1101155091045REMMET07001/23/10 06:48:02 METAR KVCV 231448Z 20008KT 10SM SKC 01/M02 A2987 RMKEQDQ01    099SCCGD1P01    003SCCGA1R01   SKC7SKY009R02    017TMP046R03   M027DPT046R04   SKC7GAS009
0222723825231312010012316507+34598-117380FM-15+0879KVCV V0202105N002652200079N0160935N5+00307-00207999999ADDGF100991999999999999999999MA1101355091225REMMET07001/23/10 08:50:01 METAR KVCV 231650Z 21005KT 10SM SKC 03/M02 A2993 RMKEQDQ01    099SCCGD1P01    003SCCGA1R01   SKC7SKY009R02    037TMP046R03   M027DPT046R04   SKC7GAS009
0222723825231312010012317487+34598-117380FM-15+0879KVCV V0202405N004152200079N0160935N5+00507-00107999999ADDGF100991999999999999999999MA1101425091285REMMET07001/23/10 09:48:01 METAR KVCV 231748Z 24008KT 10SM SKC 05/M01 A2995 RMKEQDQ01    099SCCGD1P01    003SCCGA1R01   SKC7SKY009R02    057TMP046R03   M017DPT046R04   SKC7GAS009
0222723825231312010012319507+34598-117380FM-15+0879KVCV V0202705N003652200079N0160935N5+00807-00207999999ADDGF100991999999999999999999MA1101465091325REMMET07001/23/10 11:50:02 METAR KVCV 231950Z 27007KT 10SM SKC 08/M02 A2996 RMKEQDQ01    099SCCGD1P01    003SCCGA1R01   SKC7SKY009R02    087TMP046R03   M027DPT046R04   SKC7GAS009
0222723825231312010012320487+34598-117380FM-15+0879KVCV V0202605N003652200079N0160935N5+00807-00207999999ADDGF100991999999999999999999MA1101425091285REMMET07001/23/10 12:48:02 METAR KVCV 232048Z 26007KT 10SM SKC 08/M02 A2995 RMKEQDQ01    099SCCGD1P01    003SCCGA1R01   SKC7SKY009R02    087TMP046R03   M027DPT046R04   SKC7GAS009
0223723825231312010012413487+34598-117380FM-15+0879KVCV V0201505N002152200079N0160935N5-00107-00207999999ADDGF100991999999999999999999MA1102175091975REMMET07101/24/10 05:48:02 METAR KVCV 241348Z 15004KT 10SM SKC M01/M02 A3017 RMKEQDQ01    099SCCGD1P01    003SCCGA1R01   SKC7SKY009R02   M017TMP046R03   M027DPT046R04   SKC7GAS009
0223723825231312010012414487+34598-117380FM-15+0879KVCV V0201505N002152200079N0160935N5-00107-00207999999ADDGF100991999999999999999999MA1102205092005REMMET07101/24/10 06:48:01 METAR KVCV 241448Z 15004KT 10SM SKC M01/M02 A3018 RMKEQDQ01    099SCCGD1P01    003SCCGA1R01   SKC7SKY009R02   M017TMP046R03   M027DPT046R04   SKC7GAS009
0222723825231312010012415487+34598-117380FM-15+0879KVCV V0201505N002152200079N0160935N5+00107-00207999999ADDGF100991999999999999999999MA1102275092065REMMET07001/24/10 07:48:01 METAR KVCV 241548Z 15004KT 10SM SKC 01/M02 A3020 RMKEQDQ01    099SCCGD1P01    003SCCGA1R01   SKC7SKY009R02    017TMP046R03   M027DPT046R04   SKC7GAS009
0222723825231312010012416487+34598-117380FM-15+0879KVCV V0201605N002152200079N0160935N5+00207-00207999999ADDGF100991999999999999999999MA1102305092095REMMET07001/24/10 08:48:02 METAR KVCV 241648Z 16004KT 10SM SKC 02/M02 A3021 RMKEQDQ01    099SCCGD1P01    003SCCGA1R01   SKC7SKY009R02    027TMP046R03   M027DPT046R04   SKC7GAS009
0222723825231312010012417487+34598-117380FM-15+0879KVCV V0209999C000052200079N0160935N5+00407-00107999999ADDGF100991999999999999999999MA1102345092125REMMET07001/24/10 09:48:02 METAR KVCV 241748Z 00000KT 10SM SKC 04/M01 A3022 RMKEQDQ01    099SCCGD1P01    003SCCGA1R01   SKC7SKY009R02    047TMP046R03   M017DPT046R04   SKC7GAS009
0222723825231312010012422517+34598-117380FM-15+0879KVCV V0209999C000052200079N0160935N5+01007-00107999999ADDGF100991999999999999999999MA1102075091885REMMET07001/24/10 14:51:02 METAR KVCV 242251Z 00000KT 10SM SKC 10/M01 A3014 RMKEQDQ01    099SCCGD1P01    003SCCGA1R01   SKC7SKY009R02    107TMP046R03   M017DPT046R04   SKC7GAS009
0222723825231312010012423587+34598-117380FM-15+0879KVCV V0209999C000052200079N0160935N5+01007-00107999999ADDGF100991999999999999999999MA1102075091885REMMET07001/24/10 15:58:02 METAR KVCV 242358Z 00000KT 10SM SKC 10/M01 A3014 RMKEQDQ01    099SCCGD1P01    003SCCGA1R01   SKC7SKY009R02    107TMP046R03   M017DPT046R04   SKC7GAS009
0221723825231312010012500567+34598-117380FM-15+0879KVCV V0209999C000052200079N0160935N5+00907+00107999999ADDGF100991999999999999999999MA1102035091845REMMET06901/24/10 16:56:02 METAR KVCV 250056Z 00000KT 10SM SKC 09/01 A3013 RMKEQDQ01    099SCCGD1P01    003SCCGA1R01   SKC7SKY009R02    097TMP046R03    017DPT046R04   SKC7GAS009
0222723825231312010012501487+34598-117380FM-15+0879KVCV V0209999C000052200079N0160935N5+00807-00107999999ADDGF100991999999999999999999MA1102035091845REMMET07001/24/10 17:48:02 METAR KVCV 250148Z 00000KT 10SM SKC 08/M01 A3013 RMKEQDQ01    099SCCGD1P01    003SCCGA1R01   SKC7SKY009R02    087TMP046R03   M017DPT046R04   SKC7GAS009
0221723825231312010012502517+34598-117380FM-15+0879KVCV V0209999C000052200079N0160935N5+00707+00107999999ADDGF100991999999999999999999MA1102035091845REMMET06901/24/10 18:51:02 METAR KVCV 250251Z 00000KT 10SM SKC 07/01 A3013 RMKEQDQ01    099SCCGD1P01    003SCCGA1R01   SKC7SKY009R02    077TMP046R03    017DPT046R04   SKC7GAS009
0226723825231312010012503477+34598-117380FM-15+0879KVCV V0202305N002152200079N0160935N5+00607+00207999999ADDGF100991999999999999999999MA1102075091885REMMET07401/24/10 19:47:02 METAR KVCV 250347Z 23004KT 10SM SKC 06/02 A3014 RMK LASTEQDQ01    099SCCGD1P01    003SCCGA1R01   SKC7SKY009R02    067TMP046R03    027DPT046R04   SKC7GAS009
0223723825231312010012513507+34598-117380FM-15+0879KVCV V0209999C000052200079N0160935N5-00107-00107999999ADDGF100991999999999999999999MA1101935091755REMMET07101/25/10 05:50:01 METAR KVCV 251350Z 00000KT 10SM SKC M01/M01 A3010 RMKEQDQ01    099SCCGD1P01    003SCCGA1R01   SKC7SKY009R02   M017TMP046R03   M017DPT046R04   SKC7GAS009
0222723825231312010012514507+34598-117380FM-15+0879KVCV V0209999C000052200079N0160935N5+00007-00107999999ADDGF100991999999999999999999MA1101935091755REMMET07001/25/10 06:50:02 METAR KVCV 251450Z 00000KT 10SM SKC 00/M01 A3010 RMKEQDQ01    099SCCGD1P01    003SCCGA1R01   SKC7SKY009R02    007TMP046R03   M017DPT046R04   SKC7GAS009
0221723825231312010012515507+34598-117380FM-15+0879KVCV V0209999C000052200079N0160935N5+00207+00007999999ADDGF100991999999999999999999MA1102005091815REMMET06901/25/10 07:50:02 METAR KVCV 251550Z 00000KT 10SM SKC 02/00 A3012 RMKEQDQ01    099SCCGD1P01    003SCCGA1R01   SKC7SKY009R02    027TMP046R03    007DPT046R04   SKC7GAS009
0221723825231312010012516507+34598-117380FM-15+0879KVCV V0209999C000052200079N0160935N5+00407+00107999999ADDGF100991999999999999999999MA1102005091815REMMET06901/25/10 08:50:02 METAR KVCV 251650Z 00000KT 10SM SKC 04/01 A3012 RMKEQDQ01    099SCCGD1P01    003SCCGA1R01   SKC7SKY009R02    047TMP046R03    017DPT046R04   SKC7GAS009
0221723825231312010012517487+34598-117380FM-15+0879KVCV V0209999C000052200079N0160935N5+00707+00107999999ADDGF100991999999999999999999MA1102035091845REMMET06901/25/10 09:48:01 METAR KVCV 251748Z 00000KT 10SM SKC 07/01 A3013 RMKEQDQ01    099SCCGD1P01    003SCCGA1R01   SKC7SKY009R02    077TMP046R03    017DPT046R04   SKC7GAS009
0221723825231312010012518577+34598-117380FM-15+0879KVCV V0209999C000052200079N0160935N5+00807+00207999999ADDGF100991999999999999999999MA1101935091755REMMET06901/25/10 10:57:02 METAR KVCV 251857Z 00000KT 10SM SKC 08/02 A3010 RMKEQDQ01    099SCCGD1P01    003SCCGA1R01   SKC7SKY009R02    087TMP046R03    027DPT046R04   SKC7GAS009
0221723825231312010012519507+34598-117380FM-15+0879KVCV V0203205N002152200079N0160935N5+00907+00207999999ADDGF100991999999999999999999MA1101905091725REMMET06901/25/10 11:50:01 METAR KVCV 251950Z 32004KT 10SM SKC 09/02 A3009 RMKEQDQ01    099SCCGD1P01    003SCCGA1R01   SKC7SKY009R02    097TMP046R03    027DPT046R04   SKC7GAS009
0191723825231312010012520487+34598-117380FM-15+0879KVCV V0209999C000052200059N0160935N5+01007+00107999999ADDGA1045+033535999GD12991+0335359GF104991999999999999999999MA1101765091605REMMET07201/25/10 12:48:02 METAR KVCV 252048Z 00000KT 10SM SCT110 10/01 A3005 RMKEQDR01    107TMP046R02    017DPT046
0221723825231312010012522557+34598-117380FM-15+0879KVCV V0209999C000052200079N0160935N5+01107+00107999999ADDGF100991999999999999999999MA1101665091505REMMET06901/25/10 14:55:02 METAR KVCV 252255Z 00000KT 10SM SKC 11/01 A3002 RMKEQDQ01    099SCCGD1P01    003SCCGA1R01   SKC7SKY009R02    117TMP046R03    017DPT046R04   SKC7GAS009
0221723825231312010012523497+34598-117380FM-15+0879KVCV V0200305N002152200079N0160935N5+01107+00107999999ADDGF100991999999999999999999MA1101635091475REMMET06901/25/10 15:49:02 METAR KVCV 252349Z 03004KT 10SM SKC 11/01 A3001 RMKEQDQ01    099SCCGD1P01    003SCCGA1R01   SKC7SKY009R02    117TMP046R03    017DPT046R04   SKC7GAS009
0221723825231312010012614537+34598-117380FM-15+0879KVCV V0209999C000052200079N0160935N5+00107+00007999999ADDGF100991999999999999999999MA1101425091285REMMET06901/26/10 06:53:02 METAR KVCV 261453Z 00000KT 10SM SKC 01/00 A2995 RMKEQDQ01    099SCCGD1P01    003SCCGA1R01   SKC7SKY009R02    017TMP046R03    007DPT046R04   SKC7GAS009
0221723825231312010012615467+34598-117380FM-15+0879KVCV V0209999C000052200079N0160935N5+00307+00107999999ADDGF100991999999999999999999MA1101465091325REMMET06901/26/10 07:46:02 METAR KVCV 261546Z 00000KT 10SM SKC 03/01 A2996 RMKEQDQ01    099SCCGD1P01    003SCCGA1R01   SKC7SKY009R02    037TMP046R03    017DPT046R04   SKC7GAS009
0221723825231312010012616497+34598-117380FM-15+0879KVCV V0209999C000052200079N0160935N5+00407+00207999999ADDGF100991999999999999999999MA1101495091355REMMET06901/26/10 08:49:02 METAR KVCV 261649Z 00000KT 10SM SKC 04/02 A2997 RMKEQDQ01    099SCCGD1P01    003SCCGA1R01   SKC7SKY009R02    047TMP046R03    027DPT046R04   SKC7GAS009
0191723825231312010012619557+34598-117380FM-15+0879KVCV V0209999C000052200059N0160935N5+01107+00307999999ADDGA1045+033535999GD12991+0335359GF104991999999999999999999MA1101325091195REMMET07201/26/10 11:55:02 METAR KVCV 261955Z 00000KT 10SM SCT110 11/03 A2992 RMKEQDR01    117TMP046R02    037DPT046
0191723825231312010012621487+34598-117380FM-15+0879KVCV V0202705N00265030485MN0160935N5+01207+00307999999ADDGA1075+030485999GD13991+0304859GF107991999999999999999999MA1101255091135REMMET07201/26/10 13:48:01 METAR KVCV 262148Z 27005KT 10SM BKN100 12/03 A2990 RMKEQDR01    127TMP046R02    037DPT046
0191723825231312010012622477+34598-117380FM-15+0879KVCV V0200105N00415033535MN0160935N5+01107+00307999999ADDGA1075+033535999GD13991+0335359GF107991999999999999999999MA1101225091105REMMET07201/26/10 14:47:02 METAR KVCV 262247Z 01008KT 10SM BKN110 11/03 A2989 RMKEQDR01    117TMP046R02    037DPT046
0293723825231312010012623467+34598-117380FM-15+0879KVCV V0209999C00005015245MN0080475N5+01107+00407999999ADDAU110020015AW1615GA1045+011285999GA2075+015245999GA3085+021345999GD12991+0112859GD23991+0152459GD34991+0213459GF108991999999999999999999MA1101295091165MW1611REMMET08901/26/10 15:46:02 METAR KVCV 262346Z 00000KT 5SM -RA SCT037 BKN050 OVC070 11/04 A2991 RMKEQDR01    117TMP046R02    047DPT046
0272723825231312010012700467+34598-117380FM-15+0879KVCV V0209999C00005013115MN0080477N5+00907+00507999999ADDAU110020015AW1615GA1045+009755999GA2085+013115999GD12991+0097559GD24991+0131159GF108991999999999999999999MA1101295091165MW1611REMMET08301/26/10 16:46:02 METAR KVCV 270046Z 00000KT 05SM -RA SCT032 OVC043 09/05 A2991 RMKEQDR01  05SM7VIS011R02    097TMP046R03    057DPT046
0293723825231312010012701467+34598-117380FM-15+0879KVCV V0209999C00005012505MN0080475N5+00707+00507999999ADDAU110020015AW1615GA1075+012505999GA2075+019815999GA3085+021345999GD13991+0125059GD23991+0198159GD34991+0213459GF108991999999999999999999MA1101255091135MW1611REMMET08901/26/10 17:46:02 METAR KVCV 270146Z 00000KT 5SM -RA BKN041 BKN065 OVC070 07/05 A2990 RMKEQDR01    077TMP046R02    057DPT046
0228723825231312010012714557+34598-117380FM-15+0879KVCV V0209999C00005012195MN0112655N5+00507+00407999999ADDGA1045+009455999GA2085+012195999GD12991+0094559GD24991+0121959GF108991999999999999999999MA1101395091255REMMET07801/27/10 06:55:01 METAR KVCV 271455Z 00000KT 7SM SCT031 OVC040 05/04 A2994 RMKEQDR01    057TMP046R02    047DPT046
0191723825231312010012717537+34598-117380FM-15+0879KVCV V0202705N00315010065MN0160935N5+00707+00507999999ADDGA1085+010065999GD14991+0100659GF108991999999999999999999MA1101565091415REMMET07201/27/10 09:53:02 METAR KVCV 271753Z 27006KT 10SM OVC033 07/05 A2999 RMKEQDR01    077TMP046R02    057DPT046
0191723825231312010012718517+34598-117380FM-15+0879KVCV V0203505N00215008235MN0160935N5+00707+00507999999ADDGA1085+008235999GD14991+0082359GF108991999999999999999999MA1101565091415REMMET07201/27/10 10:51:01 METAR KVCV 271851Z 35004KT 10SM OVC027 07/05 A2999 RMKEQDR01    077TMP046R02    057DPT046
0267723825231312010012719467+34598-117380FM-15+0879KVCV V0203005N00215015245MN0160935N5+00807+00507999999ADDGA1045+004885999GA2045+008845999GA3075+015245999GD12991+0048859GD22991+0088459GD33991+0152459GF107991999999999999999999MA1101495091355REMMET08601/27/10 11:46:01 METAR KVCV 271946Z 30004KT 10SM SCT016 SCT029 BKN050 08/05 A2997 RMKEQDR01    087TMP046R02    057DPT046
0267723825231312010012721567+34598-117380FM-15+0879KVCV V0209999C00005033535MN0160935N5+01007+00407999999ADDGA1045+008845999GA2045+010675999GA3075+033535999GD12991+0088459GD22991+0106759GD33991+0335359GF107991999999999999999999MA1101325091195REMMET08601/27/10 13:56:02 METAR KVCV 272156Z 00000KT 10SM SCT029 SCT035 BKN110 10/04 A2992 RMKEQDR01    107TMP046R02    047DPT046
0267723825231312010012722487+34598-117380FM-15+0879KVCV V0209999C00005014335MN0160935N5+01007+00407999999ADDGA1045+008235999GA2075+014335999GA3085+033535999GD12991+0082359GD23991+0143359GD34991+0335359GF108991999999999999999999MA1101325091195REMMET08601/27/10 14:48:02 METAR KVCV 272248Z 00000KT 10SM SCT027 BKN047 OVC110 10/04 A2992 RMKEQDR01    107TMP046R02    047DPT046
0191723825231312010012801487+34598-117380FM-15+0879KVCV V0209999C000052200059N0160935N5+00907+00507999999ADDGA1045+015245999GD12991+0152459GF104991999999999999999999MA1101395091255REMMET07201/27/10 17:48:02 METAR KVCV 280148Z 00000KT 10SM SCT050 09/05 A2994 RMKEQDR01    097TMP046R02    057DPT046
0221723825231312010012815487+34598-117380FM-15+0879KVCV V0209999C000052200079N0160935N5+00307+00007999999ADDGF100991999999999999999999MA1101835091665REMMET06901/28/10 07:48:02 METAR KVCV 281548Z 00000KT 10SM SKC 03/00 A3007 RMKEQDQ01    099SCCGD1P01    003SCCGA1R01   SKC7SKY009R02    037TMP046R03    007DPT046R04   SKC7GAS009
0221723825231312010012817557+34598-117380FM-15+0879KVCV V0209999C000052200079N0160935N5+00807+00007999999ADDGF100991999999999999999999MA1101935091755REMMET06901/28/10 09:55:02 METAR KVCV 281755Z 00000KT 10SM SKC 08/00 A3010 RMKEQDQ01    099SCCGD1P01    003SCCGA1R01   SKC7SKY009R02    087TMP046R03    007DPT046R04   SKC7GAS009
0222723825231312010012818507+34598-117380FM-15+0879KVCV V0209999C000052200079N0160935N5+01007-00107999999ADDGF100991999999999999999999MA1101935091755REMMET07001/28/10 10:50:02 METAR KVCV 281850Z 00000KT 10SM SKC 10/M01 A3010 RMKEQDQ01    099SCCGD1P01    003SCCGA1R01   SKC7SKY009R02    107TMP046R03   M017DPT046R04   SKC7GAS009
0222723825231312010012819507+34598-117380FM-15+0879KVCV V0209999C000052200079N0160935N5+01107-00207999999ADDGF100991999999999999999999MA1101865091695REMMET07001/28/10 11:50:02 METAR KVCV 281950Z 00000KT 10SM SKC 11/M02 A3008 RMKEQDQ01    099SCCGD1P01    003SCCGA1R01   SKC7SKY009R02    117TMP046R03   M027DPT046R04   SKC7GAS009
0137723825231312010012820484+34583-117383FM-15+0876KVCV V0209999C000012200019N0160931N1+01201-00201999999ADDGF100991999999999999999999MA1101761999999REMMET049METAR KVCV 282048Z 00000KT 10SM SKC 12/M02 A3005;EQDQ01    993SCCGA1Q02    099SCCGD1
0222723825231312010012820547+34598-117380FM-15+0879KVCV V0200105N002152200079N0160935N5+01207-00207999999ADDGF100991999999999999999999MA1101765091605REMMET07001/28/10 12:54:02 METAR KVCV 282054Z 01004KT 10SM SKC 12/M02 A3005 RMKEQDQ01    099SCCGD1P01    003SCCGA1R01   SKC7SKY009R02    127TMP046R03   M027DPT046R04   SKC7GAS009
0222723825231312010012822467+34598-117380FM-15+0879KVCV V0209999C000052200079N0160935N5+01307-00207999999ADDGF100991999999999999999999MA1101665091505REMMET07001/28/10 14:46:02 METAR KVCV 282246Z 00000KT 10SM SKC 13/M02 A3002 RMKEQDQ01    099SCCGD1P01    003SCCGA1R01   SKC7SKY009R02    137TMP046R03   M027DPT046R04   SKC7GAS009
0222723825231312010012823497+34598-117380FM-15+0879KVCV V0209999C000052200079N0160935N5+01307-00107999999ADDGF100991999999999999999999MA1101695091535REMMET07001/28/10 15:49:02 METAR KVCV 282349Z 00000KT 10SM SKC 13/M01 A3003 RMKEQDQ01    099SCCGD1P01    003SCCGA1R01   SKC7SKY009R02    137TMP046R03   M017DPT046R04   SKC7GAS009
0222723825231312010012900507+34598-117380FM-15+0879KVCV V0209999C000052200079N0160935N5+01207-00107999999ADDGF100991999999999999999999MA1101735091565REMMET07001/28/10 16:50:02 METAR KVCV 290050Z 00000KT 10SM SKC 12/M01 A3004 RMKEQDQ01    099SCCGD1P01    003SCCGA1R01   SKC7SKY009R02    127TMP046R03   M017DPT046R04   SKC7GAS009
0221723825231312010012901487+34598-117380FM-15+0879KVCV V0209999C000052200079N0160935N5+00907+00107999999ADDGF100991999999999999999999MA1101735091565REMMET06901/28/10 17:48:02 METAR KVCV 290148Z 00000KT 10SM SKC 09/01 A3004 RMKEQDQ01    099SCCGD1P01    003SCCGA1R01   SKC7SKY009R02    097TMP046R03    017DPT046R04   SKC7GAS009
0221723825231312010012902487+34598-117380FM-15+0879KVCV V0209999C000052200079N0160935N5+00807+00207999999ADDGF100991999999999999999999MA1101795091635REMMET06901/28/10 18:48:01 METAR KVCV 290248Z 00000KT 10SM SKC 08/02 A3006 RMKEQDQ01    099SCCGD1P01    003SCCGA1R01   SKC7SKY009R02    087TMP046R03    027DPT046R04   SKC7GAS009
0221723825231312010012903487+34598-117380FM-15+0879KVCV V0209999C000052200079N0160935N5+00607+00207999999ADDGF100991999999999999999999MA1101865091695REMMET06901/28/10 19:48:02 METAR KVCV 290348Z 00000KT 10SM SKC 06/02 A3008 RMKEQDQ01    099SCCGD1P01    003SCCGA1R01   SKC7SKY009R02    067TMP046R03    027DPT046R04   SKC7GAS009
0221723825231312010012914577+34598-117380FM-15+0879KVCV V0201205N003152200079N0160935N5+00307+00007999999ADDGF100991999999999999999999MA1101865091695REMMET06901/29/10 06:57:02 METAR KVCV 291457Z 12006KT 10SM SKC 03/00 A3008 RMKEQDQ01    099SCCGD1P01    003SCCGA1R01   SKC7SKY009R02    037TMP046R03    007DPT046R04   SKC7GAS009
0191723825231312010012917467+34598-117380FM-15+0879KVCV V0201205N001552200059N0160935N5+00707+00107999999ADDGA1045+033535999GD12991+0335359GF104991999999999999999999MA1101935091755REMMET07201/29/10 09:46:01 METAR KVCV 291746Z 12003KT 10SM SCT110 07/01 A3010 RMKEQDR01    077TMP046R02    017DPT046
0191723825231312010012918517+34598-117380FM-15+0879KVCV V0209999C000052200059N0160935N5+00907+00107999999ADDGA1045+033535999GD12991+0335359GF104991999999999999999999MA1101935091755REMMET07201/29/10 10:51:02 METAR KVCV 291851Z 00000KT 10SM SCT110 09/01 A3010 RMKEQDR01    097TMP046R02    017DPT046
0191723825231312010012919527+34598-117380FM-15+0879KVCV V0200605N002652200059N0160935N5+01107+00107999999ADDGA1045+030485999GD12991+0304859GF104991999999999999999999MA1101835091665REMMET07201/29/10 11:52:02 METAR KVCV 291952Z 06005KT 10SM SCT100 11/01 A3007 RMKEQDR01    117TMP046R02    017DPT046
0192723825231312010012920467+34598-117380FM-15+0879KVCV V0203605N002152200059N0160935N5+01107-00107999999ADDGA1045+030485999GD12991+0304859GF104991999999999999999999MA1101735091565REMMET07301/29/10 12:46:02 METAR KVCV 292046Z 36004KT 10SM SCT100 11/M01 A3004 RMKEQDR01    117TMP046R02   M017DPT046
0222723825231312010012921487+34598-117380FM-15+0879KVCV V0203605N002152200079N0160935N5+01207-00107999999ADDGF100991999999999999999999MA1101695091535REMMET07001/29/10 13:48:02 METAR KVCV 292148Z 36004KT 10SM SKC 12/M01 A3003 RMKEQDQ01    099SCCGD1P01    003SCCGA1R01   SKC7SKY009R02    127TMP046R03   M017DPT046R04   SKC7GAS009
0221723825231312010013014517+34598-117380FM-15+0879KVCV V0201305N003152200079N0160935N5+00307+00107999999ADDGF100991999999999999999999MA1101525091385REMMET06901/30/10 06:51:02 METAR KVCV 301451Z 13006KT 10SM SKC 03/01 A2998 RMKEQDQ01    099SCCGD1P01    003SCCGA1R01   SKC7SKY009R02    037TMP046R03    017DPT046R04   SKC7GAS009
0221723825231312010013016487+34598-117380FM-15+0879KVCV V0201305N003152200079N0160935N5+00607+00207999999ADDGF100991999999999999999999MA1101565091415REMMET06901/30/10 08:48:01 METAR KVCV 301648Z 13006KT 10SM SKC 06/02 A2999 RMKEQDQ01    099SCCGD1P01    003SCCGA1R01   SKC7SKY009R02    067TMP046R03    027DPT046R04   SKC7GAS009
0221723825231312010013017487+34598-117380FM-15+0879KVCV V0201405N002152200079N0160935N5+00907+00307999999ADDGF100991999999999999999999MA1101565091415REMMET06901/30/10 09:48:02 METAR KVCV 301748Z 14004KT 10SM SKC 09/03 A2999 RMKEQDQ01    099SCCGD1P01    003SCCGA1R01   SKC7SKY009R02    097TMP046R03    037DPT046R04   SKC7GAS009
0221723825231312010013019487+34598-117380FM-15+0879KVCV V0209999C000052200079N0160935N5+01307+00207999999ADDGF100991999999999999999999MA1101425091285REMMET06901/30/10 11:48:02 METAR KVCV 301948Z 00000KT 10SM SKC 13/02 A2995 RMKEQDQ01    099SCCGD1P01    003SCCGA1R01   SKC7SKY009R02    137TMP046R03    027DPT046R04   SKC7GAS009
0191723825231312010013020487+34598-117380FM-15+0879KVCV V0202705N003152200059N0160935N5+01307+00107999999ADDGA1045+033535999GD12991+0335359GF104991999999999999999999MA1101355091225REMMET07201/30/10 12:48:02 METAR KVCV 302048Z 27006KT 10SM SCT110 13/01 A2993 RMKEQDR01    137TMP046R02    017DPT046
0191723825231312010013021487+34598-117380FM-15+0879KVCV V0202805N003152200059N0160935N5+01407+00207999999ADDGA1045+033535999GD12991+0335359GF104991999999999999999999MA1101355091225REMMET07201/30/10 13:48:02 METAR KVCV 302148Z 28006KT 10SM SCT110 14/02 A2993 RMKEQDR01    147TMP046R02    027DPT046
0137723825231312010013023474+34583-117383FM-15+0876KVCV V0202601N002612200019N0160931N1+01401-00101999999ADDGF100991999999999999999999MA1101351999999REMMET049METAR KVCV 302347Z 26005KT 10SM SKC 14/M01 A2993;EQDQ01    993SCCGA1Q02    099SCCGD1
0222723825231312010013113507+34598-117380FM-15+0879KVCV V0201605N002652200079N0160935N5+00107-00107999999ADDGF100991999999999999999999MA1101495091355REMMET07001/31/10 05:50:02 METAR KVCV 311350Z 16005KT 10SM SKC 01/M01 A2997 RMKEQDQ01    099SCCGD1P01    003SCCGA1R01   SKC7SKY009R02    017TMP046R03   M017DPT046R04   SKC7GAS009
0222723825231312010013114487+34598-117380FM-15+0879KVCV V0201605N002152200079N0160935N5+00107-00107999999ADDGF100991999999999999999999MA1101565091415REMMET07001/31/10 06:48:01 METAR KVCV 311448Z 16004KT 10SM SKC 01/M01 A2999 RMKEQDQ01    099SCCGD1P01    003SCCGA1R01   SKC7SKY009R02    017TMP046R03   M017DPT046R04   SKC7GAS009
0221723825231312010013115557+34598-117380FM-15+0879KVCV V0201505N002652200079N0160935N5+00307+00007999999ADDGF100991999999999999999999MA1101565091415REMMET06901/31/10 07:55:02 METAR KVCV 311555Z 15005KT 10SM SKC 03/00 A2999 RMKEQDQ01    099SCCGD1P01    003SCCGA1R01   SKC7SKY009R02    037TMP046R03    007DPT046R04   SKC7GAS009
0221723825231312010013116487+34598-117380FM-15+0879KVCV V0201505N002152200079N0160935N5+00507+00107999999ADDGF100991999999999999999999MA1101595091445REMMET06901/31/10 08:48:02 METAR KVCV 311648Z 15004KT 10SM SKC 05/01 A3000 RMKEQDQ01    099SCCGD1P01    003SCCGA1R01   SKC7SKY009R02    057TMP046R03    017DPT046R04   SKC7GAS009
0221723825231312010013117487+34598-117380FM-15+0879KVCV V0201605N002152200079N0160935N5+00707+00107999999ADDGF100991999999999999999999MA1101735091565REMMET06901/31/10 09:48:02 METAR KVCV 311748Z 16004KT 10SM SKC 07/01 A3004 RMKEQDQ01    099SCCGD1P01    003SCCGA1R01   SKC7SKY009R02    077TMP046R03    017DPT046R04   SKC7GAS009
0221723825231312010013118487+34598-117380FM-15+0879KVCV V0209999C000052200079N0160935N5+00907+00107999999ADDGF100991999999999999999999MA1101635091475REMMET06901/31/10 10:48:02 METAR KVCV 311848Z 00000KT 10SM SKC 09/01 A3001 RMKEQDQ01    099SCCGD1P01    003SCCGA1R01   SKC7SKY009R02    097TMP046R03    017DPT046R04   SKC7GAS009
0221723825231312010013119487+34598-117380FM-15+0879KVCV V0209999C000052200079N0160935N5+01107+00107999999ADDGF100991999999999999999999MA1101565091415REMMET06901/31/10 11:48:02 METAR KVCV 311948Z 00000KT 10SM SKC 11/01 A2999 RMKEQDQ01    099SCCGD1P01    003SCCGA1R01   SKC7SKY009R02    117TMP046R03    017DPT046R04   SKC7GAS009
0221723825231312010013120577+34598-117380FM-15+0879KVCV V0200405N003652200079N0160935N5+01207+00107999999ADDGF100991999999999999999999MA1101425091285REMMET06901/31/10 12:57:02 METAR KVCV 312057Z 04007KT 10SM SKC 12/01 A2995 RMKEQDQ01    099SCCGD1P01    003SCCGA1R01   SKC7SKY009R02    127TMP046R03    017DPT046R04   SKC7GAS009
0221723825231312010013121507+34598-117380FM-15+0879KVCV V0200205N003652200079N0160935N5+01207+00107999999ADDGF100991999999999999999999MA1101395091255REMMET06901/31/10 13:50:01 METAR KVCV 312150Z 02007KT 10SM SKC 12/01 A2994 RMKEQDQ01    099SCCGD1P01    003SCCGA1R01   SKC7SKY009R02    127TMP046R03    017DPT046R04   SKC7GAS009
0221723825231312010013122497+34598-117380FM-15+0879KVCV V0209999C000052200079N0160935N5+01307+00107999999ADDGF100991999999999999999999MA1101395091255REMMET06901/31/10 14:49:02 METAR KVCV 312249Z 00000KT 10SM SKC 13/01 A2994 RMKEQDQ01    099SCCGD1P01    003SCCGA1R01   SKC7SKY009R02    137TMP046R03    017DPT046R04   SKC7GAS009
0222723825231312010020113507+34598-117380FM-15+0879KVCV V0201605N002652200079N0160935N5+00207-00107999999ADDGF100991999999999999999999MA1101495091355REMMET07002/01/10 05:50:02 METAR KVCV 011350Z 16005KT 10SM SKC 02/M01 A2997 RMKEQDQ01    099SCCGD1P01    003SCCGA1R01   SKC7SKY009R02    027TMP046R03   M017DPT046R04   SKC7GAS009
0222723825231312010020114557+34598-117380FM-15+0879KVCV V0201605N002652200079N0160935N5+00107-00107999999ADDGF100991999999999999999999MA1101525091385REMMET07002/01/10 06:55:02 METAR KVCV 011455Z 16005KT 10SM SKC 01/M01 A2998 RMKEQDQ01    099SCCGD1P01    003SCCGA1R01   SKC7SKY009R02    017TMP046R03   M017DPT046R04   SKC7GAS009
0222723825231312010020115487+34598-117380FM-15+0879KVCV V0201805N002152200079N0160935N5+00107-00107999999ADDGF100991999999999999999999MA1101565091415REMMET07002/01/10 07:48:02 METAR KVCV 011548Z 18004KT 10SM SKC 01/M01 A2999 RMKEQDQ01    099SCCGD1P01    003SCCGA1R01   SKC7SKY009R02    017TMP046R03   M017DPT046R04   SKC7GAS009
0221723825231312010020116487+34598-117380FM-15+0879KVCV V0209999C000052200079N0160935N5+00407+00107999999ADDGF100991999999999999999999MA1101635091475REMMET06902/01/10 08:48:02 METAR KVCV 011648Z 00000KT 10SM SKC 04/01 A3001 RMKEQDQ01    099SCCGD1P01    003SCCGA1R01   SKC7SKY009R02    047TMP046R03    017DPT046R04   SKC7GAS009
0191723825231312010020117487+34598-117380FM-15+0879KVCV V0209999C000052200059N0160935N5+00707+00107999999ADDGA1045+033535999GD12991+0335359GF104991999999999999999999MA1101635091475REMMET07202/01/10 09:48:02 METAR KVCV 011748Z 00000KT 10SM SCT110 07/01 A3001 RMKEQDR01    077TMP046R02    017DPT046
0191723825231312010020118487+34598-117380FM-15+0879KVCV V0209999C000052200059N0160935N5+00807+00107999999ADDGA1045+030485999GD12991+0304859GF104991999999999999999999MA1101595091445REMMET07202/01/10 10:48:01 METAR KVCV 011848Z 00000KT 10SM SCT100 08/01 A3000 RMKEQDR01    087TMP046R02    017DPT046
0191723825231312010020119557+34598-117380FM-15+0879KVCV V0209999C000052200059N0160935N5+01007+00207999999ADDGA1045+033535999GD12991+0335359GF104991999999999999999999MA1101495091355REMMET07202/01/10 11:55:02 METAR KVCV 011955Z 00000KT 10SM SCT110 10/02 A2997 RMKEQDR01    107TMP046R02    027DPT046
0191723825231312010020120487+34598-117380FM-15+0879KVCV V0200105N002152200059N0160935N5+01107+00107999999ADDGA1045+030485999GD12991+0304859GF104991999999999999999999MA1101395091255REMMET07202/01/10 12:48:02 METAR KVCV 012048Z 01004KT 10SM SCT100 11/01 A2994 RMKEQDR01    117TMP046R02    017DPT046
0191723825231312010020121467+34598-117380FM-15+0879KVCV V0209999C000052200059N0160935N5+01107+00207999999ADDGA1045+033535999GD12991+0335359GF104991999999999999999999MA1101325091195REMMET07202/01/10 13:46:02 METAR KVCV 012146Z 00000KT 10SM SCT110 11/02 A2992 RMKEQDR01    117TMP046R02    027DPT046
0221723825231312010020201567+34598-117380FM-15+0879KVCV V0203005N002152200079N0160935N5+00907+00307999999ADDGF100991999999999999999999MA1101325091195REMMET06902/01/10 17:56:02 METAR KVCV 020156Z 30004KT 10SM SKC 09/03 A2992 RMKEQDQ01    099SCCGD1P01    003SCCGA1R01   SKC7SKY009R02    097TMP046R03    037DPT046R04   SKC7GAS009
0220723825231312010020213577+34598-117380FM-15+0879KVCV V0201605N002152200079N0112655N5+00107+00007999999ADDGF100991999999999999999999MA1101225091105REMMET06802/02/10 05:57:01 METAR KVCV 021357Z 16004KT 7SM SKC 01/00 A2989 RMKEQDQ01    099SCCGD1P01    003SCCGA1R01   SKC7SKY009R02    017TMP046R03    007DPT046R04   SKC7GAS009
0221723825231312010020214567+34598-117380FM-15+0879KVCV V0201805N001552200079N0160935N5+00107+00007999999ADDGF100991999999999999999999MA1101225091105REMMET06902/02/10 06:56:02 METAR KVCV 021456Z 18003KT 10SM SKC 01/00 A2989 RMKEQDQ01    099SCCGD1P01    003SCCGA1R01   SKC7SKY009R02    017TMP046R03    007DPT046R04   SKC7GAS009
0191723825231312010020215467+34598-117380FM-15+0879KVCV V0209999C000052200059N0160935N5+00307+00107999999ADDGA1045+030485999GD12991+0304859GF104991999999999999999999MA1101225091105REMMET07202/02/10 07:46:02 METAR KVCV 021546Z 00000KT 10SM SCT100 03/01 A2989 RMKEQDR01    037TMP046R02    017DPT046
0191723825231312010020218557+34598-117380FM-15+0879KVCV V0209999C000052200059N0160935N5+00907+00207999999ADDGA1045+030485999GD12991+0304859GF104991999999999999999999MA1101195091075REMMET07202/02/10 10:55:01 METAR KVCV 021855Z 00000KT 10SM SCT100 09/02 A2988 RMKEQDR01    097TMP046R02    027DPT046
0191723825231312010020220567+34598-117380FM-15+0879KVCV V0209999C000052200059N0160935N5+01107+00207999999ADDGA1045+033535999GD12991+0335359GF104991999999999999999999MA1101025090915REMMET07202/02/10 12:56:02 METAR KVCV 022056Z 00000KT 10SM SCT110 11/02 A2983 RMKEQDR01    117TMP046R02    027DPT046
0191723825231312010020223467+34598-117380FM-15+0879KVCV V0209999C000052200059N0160935N5+01307+00107999999ADDGA1045+030485999GD12991+0304859GF104991999999999999999999MA1100915090825REMMET07202/02/10 15:46:02 METAR KVCV 022346Z 00000KT 10SM SCT100 13/01 A2980 RMKEQDR01    137TMP046R02    017DPT046
0191723825231312010020301467+34598-117380FM-15+0879KVCV V0209999C00005018295MN0160935N5+01107+00207999999ADDGA1075+018295999GD13991+0182959GF107991999999999999999999MA1100955090855REMMET07202/02/10 17:46:02 METAR KVCV 030146Z 00000KT 10SM BKN060 11/02 A2981 RMKEQDR01    117TMP046R02    027DPT046
0221723825231312010020314567+34598-117380FM-15+0879KVCV V0201305N003652200079N0160935N5+00207+00107999999ADDGF100991999999999999999999MA1100885090795REMMET06902/03/10 06:56:02 METAR KVCV 031456Z 13007KT 10SM SKC 02/01 A2979 RMKEQDQ01    099SCCGD1P01    003SCCGA1R01   SKC7SKY009R02    027TMP046R03    017DPT046R04   SKC7GAS009
0221723825231312010020317487+34598-117380FM-15+0879KVCV V0209999C000052200079N0160935N5+00907+00307999999ADDGF100991999999999999999999MA1101025090915REMMET06902/03/10 09:48:02 METAR KVCV 031748Z 00000KT 10SM SKC 09/03 A2983 RMKEQDQ01    099SCCGD1P01    003SCCGA1R01   SKC7SKY009R02    097TMP046R03    037DPT046R04   SKC7GAS009
0221723825231312010020318507+34598-117380FM-15+0879KVCV V0209999C000052200079N0160935N5+01207+00207999999ADDGF100991999999999999999999MA1101025090915REMMET06902/03/10 10:50:02 METAR KVCV 031850Z 00000KT 10SM SKC 12/02 A2983 RMKEQDQ01    099SCCGD1P01    003SCCGA1R01   SKC7SKY009R02    127TMP046R03    027DPT046R04   SKC7GAS009
0221723825231312010020319497+34598-117380FM-15+0879KVCV V0202005N002152200079N0160935N5+01307+00107999999ADDGF100991999999999999999999MA1100915090825REMMET06902/03/10 11:49:02 METAR KVCV 031949Z 20004KT 10SM SKC 13/01 A2980 RMKEQDQ01    099SCCGD1P01    003SCCGA1R01   SKC7SKY009R02    137TMP046R03    017DPT046R04   SKC7GAS009
0221723825231312010020321497+34598-117380FM-15+0879KVCV V0202305N003152200079N0160935N5+01407+00507999999ADDGF100991999999999999999999MA1100815090725REMMET06902/03/10 13:49:02 METAR KVCV 032149Z 23006KT 10SM SKC 14/05 A2977 RMKEQDQ01    099SCCGD1P01    003SCCGA1R01   SKC7SKY009R02    147TMP046R03    057DPT046R04   SKC7GAS009
0222723825231312010020322467+34598-117380FM-15+0879KVCV V0202705N004152200079N0160935N5+01407-00107999999ADDGF100991999999999999999999MA1100785090695REMMET07002/03/10 14:46:02 METAR KVCV 032246Z 27008KT 10SM SKC 14/M01 A2976 RMKEQDQ01    099SCCGD1P01    003SCCGA1R01   SKC7SKY009R02    147TMP046R03   M017DPT046R04   SKC7GAS009
0222723825231312010020323507+34598-117380FM-15+0879KVCV V0202705N002152200079N0160935N5+01407-00207999999ADDGF100991999999999999999999MA1100755090665REMMET07002/03/10 15:50:02 METAR KVCV 032350Z 27004KT 10SM SKC 14/M02 A2975 RMKEQDQ01    099SCCGD1P01    003SCCGA1R01   SKC7SKY009R02    147TMP046R03   M027DPT046R04   SKC7GAS009
0221723825231312010020414507+34598-117380FM-15+0879KVCV V0201205N003152200079N0160935N5+00307+00207999999ADDGF100991999999999999999999MA1101155091045REMMET06902/04/10 06:50:02 METAR KVCV 041450Z 12006KT 10SM SKC 03/02 A2987 RMKEQDQ01    099SCCGD1P01    003SCCGA1R01   SKC7SKY009R02    037TMP046R03    027DPT046R04   SKC7GAS009
0191723825231312010020416587+34598-117380FM-15+0879KVCV V0201505N003652200059N0160935N5+00807+00507999999ADDGA1045+033535999GD12991+0335359GF104991999999999999999999MA1101255091135REMMET07202/04/10 08:58:02 METAR KVCV 041658Z 15007KT 10SM SCT110 08/05 A2990 RMKEQDR01    087TMP046R02    057DPT046
0191723825231312010020417437+34598-117380FM-15+0879KVCV V0201205N005152200059N0160935N5+01007+00407999999ADDGA1045+033535999GD12991+0335359GF104991999999999999999999MA1101255091135REMMET07202/04/10 09:43:02 METAR KVCV 041743Z 12010KT 10SM SCT110 10/04 A2990 RMKEQDR01    107TMP046R02    047DPT046
0191723825231312010020418587+34598-117380FM-15+0879KVCV V0201705N005152200059N0160935N5+01307+00307999999ADDGA1045+033535999GD12991+0335359GF104991999999999999999999MA1101295091165REMMET07202/04/10 10:58:02 METAR KVCV 041858Z 17010KT 10SM SCT110 13/03 A2991 RMKEQDR01    137TMP046R02    037DPT046
0191723825231312010020420507+34598-117380FM-15+0879KVCV V0201805N007252200059N0160935N5+01407+00207999999ADDGA1045+030485999GD12991+0304859GF104991999999999999999999MA1101195091075REMMET07202/04/10 12:50:02 METAR KVCV 042050Z 18014KT 10SM SCT100 14/02 A2988 RMKEQDR01    147TMP046R02    027DPT046
0191723825231312010020423467+34598-117380FM-15+0879KVCV V0201805N007252200059N0160935N5+01307+00307999999ADDGA1045+033535999GD12991+0335359GF104991999999999999999999MA1101195091075REMMET07202/04/10 15:46:02 METAR KVCV 042346Z 18014KT 10SM SCT110 13/03 A2988 RMKEQDR01    137TMP046R02    037DPT046
0191723825231312010020500507+34598-117380FM-15+0879KVCV V0201905N006252200059N0160935N5+01107+00307999999ADDGA1045+033535999GD12991+0335359GF104991999999999999999999MA1101255091135REMMET07202/04/10 16:50:02 METAR KVCV 050050Z 19012KT 10SM SCT110 11/03 A2990 RMKEQDR01    117TMP046R02    037DPT046
0221723825231312010020501507+34598-117380FM-15+0879KVCV V0201705N007752200079N0160935N5+00907+00407999999ADDGF100991999999999999999999MA1101325091195REMMET06902/04/10 17:50:02 METAR KVCV 050150Z 17015KT 10SM SKC 09/04 A2992 RMKEQDQ01    099SCCGD1P01    003SCCGA1R01   SKC7SKY009R02    097TMP046R03    047DPT046R04   SKC7GAS009
0221723825231312010020502487+34598-117380FM-15+0879KVCV V0201705N004652200079N0160935N5+00907+00307999999ADDGF100991999999999999999999MA1101355091225REMMET06902/04/10 18:48:01 METAR KVCV 050248Z 17009KT 10SM SKC 09/03 A2993 RMKEQDQ01    099SCCGD1P01    003SCCGA1R01   SKC7SKY009R02    097TMP046R03    037DPT046R04   SKC7GAS009
0221723825231312010020503487+34598-117380FM-15+0879KVCV V0201805N003652200079N0160935N5+00807+00407999999ADDGF100991999999999999999999MA1101395091255REMMET06902/04/10 19:48:02 METAR KVCV 050348Z 18007KT 10SM SKC 08/04 A2994 RMKEQDQ01    099SCCGD1P01    003SCCGA1R01   SKC7SKY009R02    087TMP046R03    047DPT046R04   SKC7GAS009
0191723825231312010020514507+34598-117380FM-15+0879KVCV V0201805N00775033535MN0160935N5+00707+00307999999ADDGA1075+033535999GD13991+0335359GF107991999999999999999999MA1101565091415REMMET07202/05/10 06:50:01 METAR KVCV 051450Z 18015KT 10SM BKN110 07/03 A2999 RMKEQDR01    077TMP046R02    037DPT046
0191723825231312010020516477+34598-117380FM-15+0879KVCV V0201805N00465033535MN0160935N5+00907+00307999999ADDGA1075+033535999GD13991+0335359GF107991999999999999999999MA1101665091505REMMET07202/05/10 08:47:02 METAR KVCV 051647Z 18009KT 10SM BKN110 09/03 A3002 RMKEQDR01    097TMP046R02    037DPT046
0229723825231312010020518487+34598-117380FM-15+0879KVCV V0201705N00575028965MN0160935N5+01007+00307999999ADDGA1045+025915999GA2085+028965999GD12991+0259159GD24991+0289659GF108991999999999999999999MA1101695091535REMMET07902/05/10 10:48:02 METAR KVCV 051848Z 17011KT 10SM SCT085 OVC095 10/03 A3003 RMKEQDR01    107TMP046R02    037DPT046
0267723825231312010020519487+34598-117380FM-15+0879KVCV V0201505N00775025915MN0160935N5+01007+00407999999ADDGA1045+021345999GA2075+025915999GA3075+033535999GD12991+0213459GD23991+0259159GD33991+0335359GF107991999999999999999999MA1101635091475REMMET08602/05/10 11:48:02 METAR KVCV 051948Z 15015KT 10SM SCT070 BKN085 BKN110 10/04 A3001 RMKEQDR01    107TMP046R02    047DPT046
