0207724927232852010010100537+37694-121810FM-15+0121KLVK V0300805N00215018295MN0096565N5+01285+00945102625ADDAA101000095AU100007015GA1085+018295999GD14991+0182959GF108991999999999999999999MA1102615101155MW1055REMMET09512/31/09 16:53:01 METAR KLVK 010053Z 08004KT 6SM HZ OVC060 13/09 A3030 RMK AO2 SLP262 T01280094
0207724927232852010010101537+37694-121810FM-15+0121KLVK V0300505N00155018295MN0096565N5+01285+00895102685ADDAA101000095AU100007015GA1085+018295999GD14991+0182959GF108991999999999999999999MA1102685101215MW1055REMMET09512/31/09 17:53:01 METAR KLVK 010153Z 05003KT 6SM HZ OVC060 13/09 A3032 RMK AO2 SLP268 T01280089
0207724927232852010010102537+37694-121810FM-15+0121KLVK V0300205N001552200059N0112655N5+01225+00895102715ADDAA101000095GA1045+018295999GD12991+0182959GF104991999999999999999999MA1102715101255MD1390129+9999REMMET09812/31/09 18:53:01 METAR KLVK 010253Z 02003KT 7SM SCT060 12/09 A3033 RMK AO2 SLP271 T01220089 53012
0188724927232852010010103537+37694-121810FM-15+0121KLVK V0309999C00005018295MN0160935N5+01065+00785102775ADDAA101000095GA1075+018295999GD13991+0182959GF107991999999999999999999MA1102785101315REMMET09312/31/09 19:53:02 METAR KLVK 010353Z 00000KT 10SM BKN060 11/08 A3035 RMK AO2 SLP277 T01060078
0214724927232852010010104537+37694-121810FM-15+0121KLVK V0309999C000052200059N0096565N5+01005+00785102755ADDAA101000095AU100001015AW1105GF100991999999999999999999MA1102745101285MW1101REMMET09212/31/09 20:53:01 METAR KLVK 010453Z 00000KT 6SM BR CLR 10/08 A3034 RMK AO2 SLP275 T01000078EQDQ01    099SCCGD1P01    003SCCGA1
0266724927232852010010105537+37694-121810FM-15+0121KLVK V0309999C000052200059N0096565N5+00945+00725102795ADDAA101000095AU100001015AW1105GF100991999999999999999999KA1999M+01501KA2999N+00831MA1102785101315MD1190089+9999REMMET11012/31/09 21:53:02 METAR KLVK 010553Z 00000KT 6SM BR CLR 09/07 A3035 RMK AO2 SLP279 T00940072 10150 20083 51008EQDQ01    099SCCGD1P01    003SCCGA1
0208724927232852010010106537+37694-121810FM-15+0121KLVK V0300905N001552200059N0096565N5+00785+00675102815ADDAA101000095AU100001015AW1105GF100991999999999999999999MA1102815101355REMMET09212/31/09 22:53:02 METAR KLVK 010653Z 09003KT 6SM BR CLR 08/07 A3036 RMK AO2 SLP281 T00780067EQDQ01    099SCCGD1P01    003SCCGA1
0218724927232852010010107537+37694-121810FM-15+0121KLVK V0309999C000052200059N0096565N5+00785+00675102775ADDAA101000095AU100001015AW1105GF100991999999999999999999MA1102785101315REMMET10212/31/09 23:53:02 METAR KLVK 010753Z 00000KT 6SM BR CLR 08/07 A3035 RMK AO2 SLP277 T00780067 401500072EQDQ01    099SCCGD1P01    003SCCGA1
1002724927232852010010107596+37694-121810SOD  +0121KLVK V030999999999999999999999999999+99999+99999999999ADDAA124000095AX1015245AX2085245KA1240M+01505KA2240N+00725KG1024W+0089D4KG2024D+0072D4MF1101254102714MG1101254102574OE11240044706013215OE22240040208010335OE33240008599999995RH1024X093D4RH2024N056D4RH3024M081D4REMSOD74924 HR PRECIPITATION (IN):0.00  WEATHER(CODE):1,8  24 HR MAX TEMP (F):59 24 HR MAX TEMP TIME (LST):1616 24 HR MIN TEMP (F):45 24 HR MIN TEMP TIME (LST):2359 AVERAGE STATION PRESSURE:29.900 MINIMUM SEA LEVEL PRESSURE:30.29 TIME OF OCCURRENCE:1620 PEAK WIND SPEED (MPH):10  PEAK WIND DIR (DEG):60  PEAK WIND TIME (LST):1321  FASTEST 2MIN SPEED (MPH):9  FASTEST 2MIN DIR (DEG):80  FASTEST 2MIN TIME (LST):1033 AVERAGE WIND SPEED (MPH):1.9  24 HR AVG TEMP (F):52 HEATING DEGREE DAYS:13  COOLING DEGREE DAYS:0   LATEST DAY MAX TEMP (0700-1900 LST):59  LATEST NIGHT MIN TEMP(1900-0800 LST):45 HOURLY INCREMENTAL PRECIPITATION VALUES (IN):.00 0.00 0.00 0.00 0.00 0.00 0.00 0.00 0.00 0.00 0.00 0.00 0.00 0.00 0.00 0.00 0.00 0.00 0.00 0.00 0.00 0.00 0.00 0.00EQDR01     N7GJS072R02     N7GKS075
1246724927232852010010107596+37694-121810SOM  +0121KLVK V030999999999999999999999999999+99999+99999999999ADDAB1004959UAD1001479121399999999UAE113U06U00U00UAH1005001091215465AH2010001592700135AH3015002092700165AH4020002592700165AH5030003092700165AH6045003392700165AI1060003891302285AI2080004191302285AI3100005190705085AI4120005690705285AI5150006190705555AI6180007490704395KB1744N+02615KB2744M+12945KB3744A+07785KC1N9-00440806995KC2M9+01830199995KD1744H05825KD2744C00005KE1005005095005MH110034U10179UMK110284312240U10037122053UREMSOM798PCP MTOT:1.98 PCP GT 24HRS:0.58 DATE(S):12-13 DAYS W/PCP >=.01:16 DAYS W/PCP >=.10:6  DAYS W/ PCP >=.50:0 DAYS W/PCP >=1.00:0 MSDP AMTS W/DATE-TIME TAGS:MIN:5 0.04  12/1546 MIN:10 0.06  27/0013 MIN:15 0.08  27/0016 MIN:20 0.10  27/0016 MIN:30 0.12  27/0016 MIN:45 0.13  27/0016 MIN:60 0.15  13/0228 MIN:80 0.16  13/0228 MIN:100 0.20  07/0508 MIN:120 0.22  07/0528 MIN:150 0.24  07/0555 MIN:180 0.29  07/0439 AVG DLY MIN:36.7  AVG DLY MAX:55.3  AVG MLY TMP:46.0  MIN TMP:24 DATE(S):08 06 MAX TMP:65  DATE(S):01 DAYS MAX <=32:0 DAYS MAX >=90:0  DAYS MIN <=32:9  DAYS MIN  <=0:0  AVG STP:29.635 LWST SLP:29.62 DATE/TIME:121416 HGST SLP:30.37 DATE/TIME:312240 HDD MTH TOT:582 DEP NORM:-2553 SEASON(JUL 1-JUN 30):1083 DEP NORM:+23227 CDD MTH TOT:0 DEP NORM:-2553 SEASON(JAN 1-DEC 31):925 DEP NORM:-20323EQDR01  0.587ADP081
0208724927232852010010108537+37694-121810FM-15+0121KLVK V0300805N001552200059N0112655N5+00785+00675102705ADDAA101000095GF100991999999999999999999MA1102715101255MD1890099+9999REMMET09501/01/10 00:53:02 METAR KLVK 010853Z 08003KT 7SM CLR 08/07 A3033 RMK AO2 SLP270 T00780067 58009EQDQ01    099SCCGD1P01    003SCCGA1
0208724927232852010010109537+37694-121810FM-15+0121KLVK V0302505N001552200059N0096565N5+00725+00675102665ADDAA101000095AU100001015AW1105GF100991999999999999999999MA1102685101215REMMET09201/01/10 01:53:02 METAR KLVK 010953Z 25003KT 6SM BR CLR 07/07 A3032 RMK AO2 SLP266 T00720067EQDQ01    099SCCGD1P01    003SCCGA1
0208724927232852010010110537+37694-121810FM-15+0121KLVK V0309999C000052200059N0096565N5+00835+00675102645ADDAA101000095AU100001015AW1105GF100991999999999999999999MA1102645101185REMMET09201/01/10 02:53:02 METAR KLVK 011053Z 00000KT 6SM BR CLR 08/07 A3031 RMK AO2 SLP264 T00830067EQDQ01    099SCCGD1P01    003SCCGA1
0246724927232852010010111537+37694-121810FM-15+0121KLVK V0302705N001552200059N0112655N5+00785+00675102655ADDAA101000095GF100991999999999999999999KA1999M+00941KA2999N+00671MA1102645101185MD1590059+9999REMMET10701/01/10 03:53:02 METAR KLVK 011153Z 27003KT 7SM CLR 08/07 A3031 RMK AO2 SLP265 T00780067 10094 20067 55005EQDQ01    099SCCGD1P01    003SCCGA1
0207724927232852010010112537+37694-121810FM-15+0121KLVK V0309999C00005028965MN0096565N5+00785+00675102655ADDAA101000095AU100001015AW1105GA1075+028965999GD13991+0289659GF107991999999999999999999MA1102645101185REMMET09501/01/10 04:53:02 METAR KLVK 011253Z 00000KT 6SM BR BKN095 08/07 A3031 RMK AO2 SLP265 T00780067
0187724927232852010010113537+37694-121810FM-15+0121KLVK V0309999C00005030485MN0112655N5+00785+00675102695ADDAA101000095GA1085+030485999GD14991+0304859GF108991999999999999999999MA1102715101255REMMET09201/01/10 05:53:02 METAR KLVK 011353Z 00000KT 7SM OVC100 08/07 A3033 RMK AO2 SLP269 T00780067
0214724927232852010010114537+37694-121810FM-15+0121KLVK V0309999C000052200059N0160935N5+00835+00675102685ADDAA101000095GF100991999999999999999999MA1102685101215MD1090039+9999REMMET10101/01/10 06:53:02 METAR KLVK 011453Z 00000KT 10SM CLR 08/07 A3032 RMK AO2 SLP268 T00830067 50003 (RB)EQDQ01    099SCCGD1P01    003SCCGA1
0232724927232852010010115537+37694-121810FM-15+0121KLVK V0309999C00005025915MN0160935N5+00835+00725102695ADDAA101000025AU110020015AW1615GA1075+025915999GD13991+0259159GF107991999999999999999999MA1102685101215MW1611REMMET11401/01/10 07:53:02 METAR KLVK 011553Z 00000KT 10SM -RA BKN085 08/07 A3032 RMK AO2 RAB48 SLP269 P0000 T00830072 (RB)
0273724927232852010010116537+37694-121810FM-15+0121KLVK V0309999C00005027435MN0160935N5+00895+00725102735ADDAA101000025AU110020015AW1615GA1045+022865999GA2075+027435999GD12991+0228659GD23991+0274359GF107991999999999999999999MA1102745101285MW1611REMMET12401/01/10 08:53:02 METAR KLVK 011653Z 00000KT 10SM -RA SCT075 BKN090 09/07 A3034 RMK AO2 RAE01B51 SLP273 P0000 T00890072 (RB)
0336724927232852010010117537+37694-121810FM-15+0121KLVK V0309999C00005028965MN0144845N5+01065+00835102705ADDAA101000395AA206000391GA1045+024385999GA2085+028965999GD12991+0243859GD24991+0289659GF108991999999999999999999KA1999M+01061KA2999N+00721MA1102715101255MD1090029+9999REMMET14001/01/10 09:53:02 METAR KLVK 011753Z 00000KT 9SM SCT080 OVC095 11/08 A3033 RMK AO2 RAE27 SLP270 P0001 60001 T01060083 10106 20072 50002 (RB)EQDQ01  00038PRCP06
0192724927232852010010118537+37694-121810FM-15+0121KLVK V0309999C000052200059N0144845N5+01175+00895102685ADDAA101000095GA1025+030485999GD11991+0304859GF102991999999999999999999MA1102685101215REMMET09701/01/10 10:53:02 METAR KLVK 011853Z 00000KT 9SM FEW100 12/09 A3032 RMK AO2 SLP268 T01170089 (RB)
0192724927232852010010119537+37694-121810FM-15+0121KLVK V0309999C00005025915MN0144845N5+01225+00945102645ADDAA101000095GA1075+025915999GD13991+0259159GF107991999999999999999999MA1102645101185REMMET09701/01/10 11:53:02 METAR KLVK 011953Z 00000KT 9SM BKN085 12/09 A3031 RMK AO2 SLP264 T01220094 (RB)
0214724927232852010010120537+37694-121810FM-15+0121KLVK V0309999C000052200059N0160935N5+01335+01005102595ADDAA101000095GF100991999999999999999999MA1102615101155MD1890109+9999REMMET10101/01/10 12:53:02 METAR KLVK 012053Z 00000KT 10SM CLR 13/10 A3030 RMK AO2 SLP259 T01330100 58010 (RB)EQDQ01    099SCCGD1P01    003SCCGA1
0193724927232852010010121537+37694-121810FM-15+0121KLVK V0309999C000052200059N0160935N5+01505+01005102485ADDAA101000095GA1045+015245999GD12991+0152459GF104991999999999999999999MA1102475101015REMMET09801/01/10 13:53:02 METAR KLVK 012153Z 00000KT 10SM SCT050 15/10 A3026 RMK AO2 SLP248 T01500100 (RB)
0193724927232852010010122537+37694-121810FM-15+0121KLVK V0309999C000052200059N0160935N5+01615+01005102475ADDAA101000095GA1025+013725999GD11991+0137259GF102991999999999999999999MA1102475101015REMMET09801/01/10 14:53:02 METAR KLVK 012253Z 00000KT 10SM FEW045 16/10 A3026 RMK AO2 SLP247 T01610100 (RB)
0251724927232852010010123537+37694-121810FM-15+0121KLVK V0309999C00005013115MN0160935N5+01675+00945102505ADDAA101000095GA1085+013115999GD14991+0131159GF108991999999999999999999KA1999M+01671KA2999N+01061MA1102515101055MD1590089+9999REMMET11601/01/10 15:53:02 METAR KLVK 012353Z 00000KT 10SM OVC043 17/09 A3027 RMK AO2 SLP250 T01670094 10167 20106 55008 (JH)
0226724927232852010010200537+37694-121810FM-15+0121KLVK V0309999C00005027435MN0160935N5+01505+00945102465ADDAA101000095GA1025+012505999GA2075+027435999GD11991+0125059GD23991+0274359GF107991999999999999999999MA1102475101015REMMET10001/01/10 16:53:02 METAR KLVK 020053Z 00000KT 10SM FEW041 BKN090 15/09 A3026 RMK AO2 SLP246 T01500094
0189724927232852010010201537+37694-121810FM-15+0121KLVK V0309999C000052200059N0160935N5+01225+00945102475ADDAA101000095GF100991999999999999999999MA1102475101015REMMET09001/01/10 17:53:02 METAR KLVK 020153Z 00000KT 10SM CLR 12/09 A3026 RMK AO2 SLP247 T01220094EQDQ01    099SCCGD1P01    003SCCGA1
0209724927232852010010202537+37694-121810FM-15+0121KLVK V0309999C000052200059N0160935N5+01175+00945102505ADDAA101000095GF100991999999999999999999MA1102515101055MD1590019+9999REMMET09601/01/10 18:53:02 METAR KLVK 020253Z 00000KT 10SM CLR 12/09 A3027 RMK AO2 SLP250 T01170094 55001EQDQ01    099SCCGD1P01    003SCCGA1
0188724927232852010010203537+37694-121810FM-15+0121KLVK V0309999C00005022865MN0160935N5+01175+00945102565ADDAA101000095GA1085+022865999GD14991+0228659GF108991999999999999999999MA1102575101115REMMET09301/01/10 19:53:01 METAR KLVK 020353Z 00000KT 10SM OVC075 12/09 A3029 RMK AO2 SLP256 T01170094
0226724927232852010010204537+37694-121810FM-15+0121KLVK V0309999C00005022865MN0160935N5+01065+00895102585ADDAA101000095GA1045+014025999GA2075+022865999GD12991+0140259GD23991+0228659GF107991999999999999999999MA1102575101115REMMET10001/01/10 20:53:01 METAR KLVK 020453Z 00000KT 10SM SCT046 BKN075 11/09 A3029 RMK AO2 SLP258 T01060089
0284724927232852010010205537+37694-121810FM-15+0121KLVK V0309999C00005009455MN0160935N5+01115+01005102565ADDAA101000095GA1075+009455999GA2085+011585999GD13991+0094559GD24991+0115859GF108991999999999999999999KA1999M+01671KA2999N+00941MA1102575101115MD1090069+9999REMMET11801/01/10 21:53:02 METAR KLVK 020553Z 00000KT 10SM BKN031 OVC038 11/10 A3029 RMK AO2 SLP256 T01110100 10167 20094 50006
0160724927232852010010206037+37694-121810FM-16+0121KLVK V0309999C00005008845MN0160935N5+01105+01005999999ADDGA1085+008845999GD14991+0088459GF108991999999999999999999MA1102545101085REMMET07601/01/10 22:03:02 SPECI KLVK 020603Z 00000KT 10SM OVC029 11/10 A3028 RMK AO2
0261724927232852010010206327+37694-121810FM-16+0121KLVK V0309999C00005015245MN0144845N5+01105+01005999999ADDAA101000021GA1045+008535999GA2045+010065999GA3085+015245999GD12991+0085359GD22991+0100659GD34991+0152459GF108991999999999999999999MA1102515101055REMMET10401/01/10 22:32:02 SPECI KLVK 020632Z 00000KT 9SM SCT028 SCT033 OVC050 11/10 A3027 RMK AO2 RAB04E18 P0000
0203724927232852010010206537+37694-121810FM-15+0121KLVK V0309999C00005015245MN0160935N5+01065+00945102505ADDAA101000025GA1075+015245999GD13991+0152459GF107991999999999999999999MA1102515101055REMMET10801/01/10 22:53:02 METAR KLVK 020653Z 00000KT 10SM BKN050 11/09 A3027 RMK AO2 RAB04E18 SLP250 P0000 T01060094
0199724927232852010010207537+37694-121810FM-15+0121KLVK V0309999C000052200059N0160935N5+00945+00835102495ADDAA101000095GF100991999999999999999999MA1102515101055REMMET10001/01/10 23:53:02 METAR KLVK 020753Z 00000KT 10SM CLR 09/08 A3027 RMK AO2 SLP249 T00940083 401670067EQDQ01    099SCCGD1P01    003SCCGA1
0991724927232852010010207596+37694-121810SOD  +0121KLVK V030999999999999999999999999999+99999+99999999999ADDAA124000395AX1015245KA1240M+01675KA2240N+00675KG1024W+0094D4KG2024D+0083D4MF1101124102614MG1101134102444OE11240058127015465OE22240035805001095OE33240001899999995RH1024X097D4RH2024N062D4RH3024M086D4REMSOD74724 HR PRECIPITATION (IN):0.01  WEATHER(CODE):1  24 HR MAX TEMP (F):62 24 HR MAX TEMP TIME (LST):1556 24 HR MIN TEMP (F):44 24 HR MIN TEMP TIME (LST):0201 AVERAGE STATION PRESSURE:29.865 MINIMUM SEA LEVEL PRESSURE:30.25 TIME OF OCCURRENCE:1736 PEAK WIND SPEED (MPH):13  PEAK WIND DIR (DEG):270 PEAK WIND TIME (LST):1546  FASTEST 2MIN SPEED (MPH):8  FASTEST 2MIN DIR (DEG):50  FASTEST 2MIN TIME (LST):0109 AVERAGE WIND SPEED (MPH):0.4  24 HR AVG TEMP (F):53 HEATING DEGREE DAYS:12  COOLING DEGREE DAYS:0   LATEST DAY MAX TEMP (0700-1900 LST):62  LATEST NIGHT MIN TEMP(1900-0800 LST):44 HOURLY INCREMENTAL PRECIPITATION VALUES (IN):.00 0.00 0.00 0.00 0.00 0.00 0.00 T    T    0.01 0.00 0.00 0.00 0.00 0.00 0.00 0.00 0.00 0.00 0.00 0.00 0.00 T    0.00EQDR01     N7GJS072R02     N7GKS075
0245724927232852010010208537+37694-121810FM-15+0121KLVK V0309999C000052200059N0096565N5+00895+00835102465ADDAA101000095AA203000021AU100001015AW1105GF100991999999999999999999MA1102475101015MD1690109+9999REMMET10401/02/10 00:53:02 METAR KLVK 020853Z 00000KT 6SM BR CLR 09/08 A3026 RMK AO2 SLP246 60000 T00890083 56010EQDQ01    099SCCGD1P01    003SCCGA1
0188724927232852010010209537+37694-121810FM-15+0121KLVK V0309999C000052200059N0128755N5+00785+00725102485ADDAA101000095GF100991999999999999999999MA1102475101015REMMET08901/02/10 01:53:02 METAR KLVK 020953Z 00000KT 8SM CLR 08/07 A3026 RMK AO2 SLP248 T00780072EQDQ01    099SCCGD1P01    003SCCGA1
0188724927232852010010210537+37694-121810FM-15+0121KLVK V0309999C000052200059N0112655N5+00725+00675102505ADDAA101000095GF100991999999999999999999MA1102515101055REMMET08901/02/10 02:53:02 METAR KLVK 021053Z 00000KT 7SM CLR 07/07 A3027 RMK AO2 SLP250 T00720067EQDQ01    099SCCGD1P01    003SCCGA1
0179724927232852010010211327+37694-121810FM-16+0121KLVK V0309999C00005004575MN0096565N5+00705+00705999999ADDAU100001015AW1105GA1075+004575999GD13991+0045759GF107991999999999999999999MA1102545101085REMMET07801/02/10 03:32:02 SPECI KLVK 021132Z 00000KT 6SM BR BKN015 07/07 A3028 RMK AO2
0298724927232852010010211537+37694-121810FM-15+0121KLVK V0309999C00005003965MN0128755N5+00835+00785102495ADDAA101000095AA206000021AA324000391GA1085+003965999GD14991+0039659GF108991999999999999999999KA1999M+01061KA2999N+00611MA1102515101055MD1090049+9999REMMET12201/02/10 03:53:02 METAR KLVK 021153Z 00000KT 8SM OVC013 08/08 A3027 RMK AO2 SLP249 60000 70001 T00830078 10106 20061 50004EQDQ01  00038PRCP24
0160724927232852010010212437+37694-121810FM-16+0121KLVK V0300605N00155004575MN0160935N5+00905+00805999999ADDGA1085+004575999GD14991+0045759GF108991999999999999999999MA1102515101055REMMET07601/02/10 04:43:02 SPECI KLVK 021243Z 06003KT 10SM OVC015 09/08 A3027 RMK AO2
0188724927232852010010212537+37694-121810FM-15+0121KLVK V0300805N00155004575MN0160935N5+00945+00835102505ADDAA101000095GA1085+004575999GD14991+0045759GF108991999999999999999999MA1102515101055REMMET09301/02/10 04:53:02 METAR KLVK 021253Z 08003KT 10SM OVC015 09/08 A3027 RMK AO2 SLP250 T00940083
0198724927232852010010213257+37694-121810FM-16+0121KLVK V0309999C00005009145MN0160935N5+00905+00805999999ADDGA1045+006715999GA2075+009145999GD12991+0067159GD23991+0091459GF107991999999999999999999MA1102515101055REMMET08301/02/10 05:25:02 SPECI KLVK 021325Z 00000KT 10SM SCT022 BKN030 09/08 A3027 RMK AO2
0225724927232852010010213537+37694-121810FM-15+0121KLVK V0309999C00005003355MN0144845N5+00835+00785102515ADDAA101000095GA1075+003355999GA2075+009145999GD13991+0033559GD23991+0091459GF107991999999999999999999MA1102515101055REMMET09901/02/10 05:53:02 METAR KLVK 021353Z 00000KT 9SM BKN011 BKN030 08/08 A3027 RMK AO2 SLP251 T00830078
0213724927232852010010214537+37694-121810FM-15+0121KLVK V0309999C00005003355MN0160935N5+00945+00835102515ADDAA101000095GA1085+003355999GD14991+0033559GF108991999999999999999999MA1102515101055MD1190019+9999REMMET10401/02/10 06:53:02 METAR KLVK 021453Z 00000KT 10SM OVC011 09/08 A3027 RMK AO2 SLP251 T00940083 51001 (DL)
0165724927232852010010215457+37694-121810FM-16+0121KLVK V0309999C00005002745MN0160935N5+00905+00805999999ADDGA1085+002745999GD14991+0027459GF108991999999999999999999MA1102515101055REMMET08101/02/10 07:45:02 SPECI KLVK 021545Z 00000KT 10SM OVC009 09/08 A3027 RMK AO2 (DL)
0144724927232852010010215516+37694-121810FM-16+0121KLVK V0309999C00005003055MN0160935N5+00905+00805999999ADDGA1085+003055999GD14991+0030559MA1102515101055REMMET08601/02/10 07:51:02 SPECI KLVK 021551Z 00000KT 10SM OVC010 09/08 A3027 RMK AO2 FIBI (DL)
0193724927232852010010215537+37694-121810FM-15+0121KLVK V0309999C00005003055MN0160935N5+01005+00835102515ADDAA101000095GA1085+003055999GD14991+0030559GF108991999999999999999999MA1102515101055REMMET09801/02/10 07:53:02 METAR KLVK 021553Z 00000KT 10SM OVC010 10/08 A3027 RMK AO2 SLP251 T01000083 (DL)
0193724927232852010010216537+37694-121810FM-15+0121KLVK V0302805N00155003055MN0160935N5+01005+00895102565ADDAA101000095GA1085+003055999GD14991+0030559GF108991999999999999999999MA1102575101115REMMET09801/02/10 08:53:02 METAR KLVK 021653Z 28003KT 10SM OVC010 10/09 A3029 RMK AO2 SLP256 T01000089 (DL)
0177724927232852010010217217+37694-121810FM-16+0121KLVK V0309999C00005002445MN0160935N5+01105+00905999999ADDGA1085+002445999GD14991+0024459GF108991999999999999999999MA1102575101115REMMET09301/02/10 09:21:02 SPECI KLVK 021721Z 00000KT 10SM OVC008 11/09 A3029 RMK AO2 CIG 006V011 (DL)
0251724927232852010010217537+37694-121810FM-15+0121KLVK V0309999C00005001835MN0160935N5+01065+00895102565ADDAA101000095GA1085+001835999GD14991+0018359GF108991999999999999999999KA1999M+01061KA2999N+00831MA1102575101115MD1390059+9999REMMET11601/02/10 09:53:02 METAR KLVK 021753Z 00000KT 10SM OVC006 11/09 A3029 RMK AO2 SLP256 T01060089 10106 20083 53005 (DL)
0165724927232852010010218487+37694-121810FM-16+0121KLVK V0300605N00415003055MN0160935N5+01205+01105999999ADDGA1085+003055999GD14991+0030559GF108991999999999999999999MA1102545101085REMMET08101/02/10 10:48:02 SPECI KLVK 021848Z 06008KT 10SM OVC010 12/11 A3028 RMK AO2 (DL)
0205724927232852010010218537+37694-121810FM-15+0121KLVK V0300605N00265003055MN0160935N5+01225+01065102545ADDAA101000095GA1085+003055999GD14991+0030559GF108991999999999999999999MA1102545101085REMMET11001/02/10 10:53:02 METAR KLVK 021853Z 06005KT 10SM OVC010 12/11 A3028 RMK AO2 CIG 009V013 SLP254 T01220106 (DL)
0193724927232852010010219537+37694-121810FM-15+0121KLVK V0302605N00215003055MN0160935N5+01285+01065102455ADDAA101000095GA1085+003055999GD14991+0030559GF108991999999999999999999MA1102445100985REMMET09801/02/10 11:53:02 METAR KLVK 021953Z 26004KT 10SM OVC010 13/11 A3025 RMK AO2 SLP245 T01280106 (DL)
0176724927232852010010220127+37694-121810FM-16+0121KLVK V0303005N00155002445MN0144845N5+01205+01105999999ADDGA1085+002445999GD14991+0024459GF108991999999999999999999MA1102405100955REMMET09201/02/10 12:12:02 SPECI KLVK 022012Z 30003KT 9SM OVC008 12/11 A3024 RMK AO2 CIG 006V010 (DL)
0177724927232852010010220357+37694-121810FM-16+0121KLVK V0300505N00415002445MN0160935N5+01205+01005999999ADDGA1085+002445999GD14991+0024459GF108991999999999999999999MA1102405100955REMMET09301/02/10 12:35:02 SPECI KLVK 022035Z 05008KT 10SM OVC008 12/10 A3024 RMK AO2 CIG 006V010 (DL)
0225724927232852010010220537+37694-121810FM-15+0121KLVK V0300605N00315002445MN0160935N5+01115+01005102395ADDAA101000095GA1085+002445999GD14991+0024459GF108991999999999999999999MA1102405100955MD1890149+9999REMMET11601/02/10 12:53:02 METAR KLVK 022053Z 06006KT 10SM OVC008 11/10 A3024 RMK AO2 CIG 006V011 SLP239 T01110100 58014 (DL)
0218724927232852010010221537+37694-121810FM-15+0121KLVK V0300705N00265002445MN0096565N5+01175+01005102335ADDAA101000095AU100001015AW1105GA1085+002445999GD14991+0024459GF108991999999999999999999MA1102345100885MW1101REMMET10001/02/10 13:53:02 METAR KLVK 022153Z 07005KT 6SM BR OVC008 12/10 A3022 RMK AO2 SLP233 T01170100 (DL)
0219724927232852010010222537+37694-121810FM-15+0121KLVK V0300605N00365002445MN0160935N5+01225+00945102315ADDAA101000095AU100001015AW1105GA1085+002445999GD14991+0024459GF108991999999999999999999MA1102305100855MW1101REMMET10101/02/10 14:53:02 METAR KLVK 022253Z 06007KT 10SM BR OVC008 12/09 A3021 RMK AO2 SLP231 T01220094 (JH)
0165724927232852010010223007+37694-121810FM-16+0121KLVK V0300605N00315003665MN0160935N5+01205+00905999999ADDGA1085+003665999GD14991+0036659GF108991999999999999999999MA1102305100855REMMET08101/02/10 15:00:02 SPECI KLVK 022300Z 06006KT 10SM OVC012 12/09 A3021 RMK AO2 (JH)
0251724927232852010010223537+37694-121810FM-15+0121KLVK V0300805N00215004275MN0160935N5+01225+00895102315ADDAA101000095GA1085+004275999GD14991+0042759GF108991999999999999999999KA1999M+01281KA2999N+01061MA1102305100855MD1690089+9999REMMET11601/02/10 15:53:02 METAR KLVK 022353Z 08004KT 10SM OVC014 12/09 A3021 RMK AO2 SLP231 T01220089 10128 20106 56008 (JH)
0188724927232852010010300537+37694-121810FM-15+0121KLVK V0309999C00005004275MN0160935N5+01225+00835102325ADDAA101000095GA1085+004275999GD14991+0042759GF108991999999999999999999MA1102345100885REMMET09301/02/10 16:53:01 METAR KLVK 030053Z 00000KT 10SM OVC014 12/08 A3022 RMK AO2 SLP232 T01220083
0188724927232852010010301537+37694-121810FM-15+0121KLVK V0301505N00155004275MN0160935N5+01065+00785102315ADDAA101000095GA1085+004275999GD14991+0042759GF108991999999999999999999MA1102305100855REMMET09301/02/10 17:53:02 METAR KLVK 030153Z 15003KT 10SM OVC014 11/08 A3021 RMK AO2 SLP231 T01060078
0161724927232852010010302007+37694-121810FM-16+0121KLVK V0301205N001552200059N0160935N5+01105+00805999999ADDGF100991999999999999999999MA1102345100885REMMET07301/02/10 18:00:02 SPECI KLVK 030200Z 12003KT 10SM CLR 11/08 A3022 RMK AO2EQDQ01    099SCCGD1P01    003SCCGA1
0209724927232852010010302537+37694-121810FM-15+0121KLVK V0300605N001552200059N0160935N5+00785+00675102345ADDAA101000095GF100991999999999999999999MA1102345100885MD1390049+9999REMMET09601/02/10 18:53:02 METAR KLVK 030253Z 06003KT 10SM CLR 08/07 A3022 RMK AO2 SLP234 T00780067 53004EQDQ01    099SCCGD1P01    003SCCGA1
0160724927232852010010303497+37694-121810FM-16+0121KLVK V0309999C00005004575MN0160935N5+00905+00705999999ADDGA1075+004575999GD13991+0045759GF107991999999999999999999MA1102345100885REMMET07601/02/10 19:49:02 SPECI KLVK 030349Z 00000KT 10SM BKN015 09/07 A3022 RMK AO2
0188724927232852010010303537+37694-121810FM-15+0121KLVK V0300505N00155004575MN0160935N5+00895+00725102345ADDAA101000095GA1075+004575999GD13991+0045759GF107991999999999999999999MA1102345100885REMMET09301/02/10 19:53:02 METAR KLVK 030353Z 05003KT 10SM BKN015 09/07 A3022 RMK AO2 SLP234 T00890072
0160724927232852010010304187+37694-121810FM-16+0121KLVK V0300405N002152200059N0160935N5+00905+00705999999ADDGA1045+004575999GD12991+0045759GF104991999999999999999999MA1102345100885REMMET07601/02/10 20:18:02 SPECI KLVK 030418Z 04004KT 10SM SCT015 09/07 A3022 RMK AO2
0189724927232852010010304537+37694-121810FM-15+0121KLVK V0300505N002652200059N0160935N5+00945+00785102345ADDAA101000095GF100991999999999999999999MA1102345100885REMMET09001/02/10 20:53:02 METAR KLVK 030453Z 05005KT 10SM CLR 09/08 A3022 RMK AO2 SLP234 T00940078EQDQ01    099SCCGD1P01    003SCCGA1
0245724927232852010010305537+37694-121810FM-15+0121KLVK V0300505N002152200059N0144845N5+00895+00785102355ADDAA101000095GA1025+007325999GD11991+0073259GF102991999999999999999999KA1999M+01221KA2999N+00721MA1102375100915MD1390019+9999REMMET11001/02/10 21:53:01 METAR KLVK 030553Z 05004KT 9SM FEW024 09/08 A3023 RMK AO2 SLP235 T00890078 10122 20072 53001
0160724927232852010010306357+37694-121810FM-16+0121KLVK V0300405N00315007625MN0160935N5+00905+00805999999ADDGA1075+007625999GD13991+0076259GF107991999999999999999999MA1102345100885REMMET07601/02/10 22:35:02 SPECI KLVK 030635Z 04006KT 10SM BKN025 09/08 A3022 RMK AO2
0188724927232852010010306537+37694-121810FM-15+0121KLVK V0300405N00265007625MN0160935N5+00895+00785102345ADDAA101000095GA1075+007625999GD13991+0076259GF107991999999999999999999MA1102345100885REMMET09301/02/10 22:53:02 METAR KLVK 030653Z 04005KT 10SM BKN025 09/08 A3022 RMK AO2 SLP234 T00890078
0160724927232852010010307037+37694-121810FM-16+0121KLVK V0300505N002652200059N0160935N5+00905+00805999999ADDGA1045+007625999GD12991+0076259GF104991999999999999999999MA1102345100885REMMET07601/02/10 23:03:02 SPECI KLVK 030703Z 05005KT 10SM SCT025 09/08 A3022 RMK AO2
0198724927232852010010307537+37694-121810FM-15+0121KLVK V0300605N002152200059N0144845N5+00725+00675102285ADDAA101000095GF100991999999999999999999MA1102275100815REMMET09901/02/10 23:53:01 METAR KLVK 030753Z 06004KT 9SM CLR 07/07 A3020 RMK AO2 SLP228 T00720067 401280061EQDQ01    099SCCGD1P01    003SCCGA1
0991724927232852010010307596+37694-121810SOD  +0121KLVK V030999999999999999999999999999+99999+99999999999ADDAA124000095AX1015245KA1240M+01285KA2240N+00615KG1024W+0089D4KG2024D+0083D4MF1100984102404MG1100974102274OE11240058124008205OE22240044706012415OE33240014399999995RH1024X097D4RH2024N077D4RH3024M090D4REMSOD74724 HR PRECIPITATION (IN):0.00  WEATHER(CODE):1  24 HR MAX TEMP (F):55 24 HR MAX TEMP TIME (LST):1153 24 HR MIN TEMP (F):43 24 HR MIN TEMP TIME (LST):0226 AVERAGE STATION PRESSURE:29.815 MINIMUM SEA LEVEL PRESSURE:30.20 TIME OF OCCURRENCE:2359 PEAK WIND SPEED (MPH):13  PEAK WIND DIR (DEG):240 PEAK WIND TIME (LST):0820  FASTEST 2MIN SPEED (MPH):10 FASTEST 2MIN DIR (DEG):60  FASTEST 2MIN TIME (LST):1241 AVERAGE WIND SPEED (MPH):3.2  24 HR AVG TEMP (F):49 HEATING DEGREE DAYS:16  COOLING DEGREE DAYS:0   LATEST DAY MAX TEMP (0700-1900 LST):55  LATEST NIGHT MIN TEMP(1900-0800 LST):43 HOURLY INCREMENTAL PRECIPITATION VALUES (IN):.00 0.00 0.00 0.00 0.00 0.00 0.00 0.00 0.00 0.00 0.00 0.00 0.00 0.00 0.00 0.00 0.00 0.00 0.00 0.00 0.00 0.00 0.00 0.00EQDR01     N7GJS072R02     N7GKS075
0160724927232852010010308437+37694-121810FM-16+0121KLVK V0309999C00005005795MN0160935N5+00705+00705999999ADDGA1075+005795999GD13991+0057959GF107991999999999999999999MA1102245100785REMMET07601/03/10 00:43:02 SPECI KLVK 030843Z 00000KT 10SM BKN019 07/07 A3019 RMK AO2
0138724927232852010010308516+37694-121810FM-16+0121KLVK V0309999C000052200059N0144845N5+00805+00705999999ADDGA1045+005795999GD12991+0057959MA1102245100785REMMET08001/03/10 00:51:02 SPECI KLVK 030851Z 00000KT 9SM SCT019 08/07 A3019 RMK AO2 FIBI
0207724927232852010010308537+37694-121810FM-15+0121KLVK V0300205N001552200059N0144845N5+00785+00675102235ADDAA101000095GA1045+005795999GD12991+0057959GF104991999999999999999999MA1102245100785MD1890129+9999REMMET09801/03/10 00:53:02 METAR KLVK 030853Z 02003KT 9SM SCT019 08/07 A3019 RMK AO2 SLP223 T00780067 58012
0160724927232852010010309067+37694-121810FM-16+0121KLVK V0300405N00215007325MN0160935N5+00805+00705999999ADDGA1075+007325999GD13991+0073259GF107991999999999999999999MA1102245100785REMMET07601/03/10 01:06:02 SPECI KLVK 030906Z 04004KT 10SM BKN024 08/07 A3019 RMK AO2
0177724927232852010010309377+37694-121810FM-16+0121KLVK V0300405N002652200059N0160935N5+00805+00705999999ADDAA101000391GA1045+007325999GD12991+0073259GF104991999999999999999999MA1102205100745REMMET08201/03/10 01:37:02 SPECI KLVK 030937Z 04005KT 10SM SCT024 08/07 A3018 RMK AO2 P0001
0195724927232852010010309537+37694-121810FM-15+0121KLVK V0300505N002652200059N0160935N5+00835+00675102215ADDAA10100009PGF100991999999999999999999MA1102205100745REMMET09601/03/10 01:53:02 METAR KLVK 030953Z 05005KT 10SM CLR 08/07 A3018 RMK AO2 SLP221 P0001 T00830067EQDQ01    099SCCGD1P01    003SCCGA1
0189724927232852010010310537+37694-121810FM-15+0121KLVK V0300505N003152200059N0160935N5+00785+00615102215ADDAA101000095GF100991999999999999999999MA1102205100745REMMET09001/03/10 02:53:02 METAR KLVK 031053Z 05006KT 10SM CLR 08/06 A3018 RMK AO2 SLP221 T00780061EQDQ01    099SCCGD1P01    003SCCGA1
0297724927232852010010311537+37694-121810FM-15+0121KLVK V0300605N002652200059N0160935N5+00785+00615102155ADDAA101000095AA206000391AA324000391GF100991999999999999999999KA1999M+00941KA2999N+00671MA1102175100715MD1890089+9999REMMET12001/03/10 03:53:02 METAR KLVK 031153Z 06005KT 10SM CLR 08/06 A3017 RMK AO2 SLP215 60001 70001 T00780061 10094 20067 58008EQDQ01  00038PRCP24Q02    099SCCGD1P01    003SCCGA1
0189724927232852010010312537+37694-121810FM-15+0121KLVK V0309999C000052200059N0160935N5+00505+00395102155ADDAA101000095GF100991999999999999999999MA1102175100715REMMET09001/03/10 04:53:02 METAR KLVK 031253Z 00000KT 10SM CLR 05/04 A3017 RMK AO2 SLP215 T00500039EQDQ01    099SCCGD1P01    003SCCGA1
0189724927232852010010313537+37694-121810FM-15+0121KLVK V0309999C000052200059N0160935N5+00445+00335102165ADDAA101000095GF100991999999999999999999MA1102175100715REMMET09001/03/10 05:53:02 METAR KLVK 031353Z 00000KT 10SM CLR 04/03 A3017 RMK AO2 SLP216 T00440033EQDQ01    099SCCGD1P01    003SCCGA1
0214724927232852010010314537+37694-121810FM-15+0121KLVK V0309999C000052200059N0160935N5+00395+00285102175ADDAA101000095GF100991999999999999999999MA1102175100715MD1390019+9999REMMET10101/03/10 06:53:02 METAR KLVK 031453Z 00000KT 10SM CLR 04/03 A3017 RMK AO2 SLP217 T00390028 53001 (JH)EQDQ01    099SCCGD1P01    003SCCGA1
0194724927232852010010315537+37694-121810FM-15+0121KLVK V0309999C000052200059N0160935N5+00335+00225102185ADDAA101000095GF100991999999999999999999MA1102175100715REMMET09501/03/10 07:53:02 METAR KLVK 031553Z 00000KT 10SM CLR 03/02 A3017 RMK AO2 SLP218 T00330022 (JH)EQDQ01    099SCCGD1P01    003SCCGA1
0230724927232852010010316537+37694-121810FM-15+0121KLVK V0300605N004652200059N0128755N5+00785+00725102185ADDAA101000095AU100001015AW1105GA1045+003055999GD12991+0030559GF104991999999999999999999MA1102175100715MW1101REMMET11201/03/10 08:53:02 METAR KLVK 031653Z 06009KT 8SM BR SCT010 08/07 A3017 RMK AO2 SLP218 VIS NE SE 5 T00780072 (JH)
0301724927232852010010317537+37694-121810FM-15+0121KLVK V0300505N005752200059N0160935N5+00895+00785102205ADDAA101000095GA1045+001525999GA2045+004575999GD12991+0015259GD22991+0045759GF104991999999999999999999KA1999M+00941KA2999N+00331MA1102205100745MD1390039+9999REMMET13501/03/10 09:53:02 METAR KLVK 031753Z 05011KT 10SM SCT005 SCT015 09/08 A3018 RMK AO2 SLP220 VIS NE-SE 5 T00890078 10094 20033 53003 (JH)
0218724927232852010010318537+37694-121810FM-15+0121KLVK V0300405N007252200059N0096565N5+01005+00835102165ADDAA101000095AU100001015AW1105GA1045+002445999GD12991+0024459GF104991999999999999999999MA1102175100715MW1101REMMET10001/03/10 10:53:02 METAR KLVK 031853Z 04014KT 6SM BR SCT008 10/08 A3017 RMK AO2 SLP216 T01000083 (JH)
0175724927232852010010319107+37694-121810FM-16+0121KLVK V0300405N006752200059N0112655N5+01105+00805999999ADDGA1045+001835999GD12991+0018359GF104991999999999999999999MA1102135100685OC100985REMMET08301/03/10 11:10:02 SPECI KLVK 031910Z 04013G19KT 7SM SCT006 11/08 A3016 RMK AO2 (JH)
0164724927232852010010319327+37694-121810FM-16+0121KLVK V0300405N00675001835MN0112655N5+01105+00805999999ADDGA1075+001835999GD13991+0018359GF107991999999999999999999MA1102105100645REMMET08001/03/10 11:32:02 SPECI KLVK 031932Z 04013KT 7SM BKN006 11/08 A3015 RMK AO2 (JH)
0229724927232852010010319537+37694-121810FM-15+0121KLVK V0300505N00725001835MN0096565N5+01065+00835102065ADDAA101000095AU100001015AW1105GA1075+001835999GD13991+0018359GF107991999999999999999999MA1102075100615MW1101OC101185REMMET10301/03/10 11:53:02 METAR KLVK 031953Z 05014G23KT 6SM BR BKN006 11/08 A3014 RMK AO2 SLP206 T01060083 (JH)
0195724927232852010010320267+37694-121810FM-16+0121KLVK V0300605N00825003055MN0096565N5+01105+00805999999ADDAU100007015GA1075+003055999GD13991+0030559GF107991999999999999999999MA1102035100585MW1055OC101135REMMET08601/03/10 12:26:02 SPECI KLVK 032026Z 06016G22KT 6SM HZ BKN010 11/08 A3013 RMK AO2 (JH)
0223724927232852010010320537+37694-121810FM-15+0121KLVK V0300505N009352200059N0112655N5+01175+00835101995ADDAA101000095GA1045+003055999GD12991+0030559GF104991999999999999999999MA1102005100545MD1890219+9999OC101135REMMET10601/03/10 12:53:02 METAR KLVK 032053Z 05018G22KT 7SM SCT010 12/08 A3012 RMK AO2 SLP199 T01170083 58021 (JH)
0192724927232852010010321537+37694-121810FM-15+0121KLVK V0300605N007252200059N0128755N5+01175+00835101955ADDAA101000095GA1025+003665999GD11991+0036659GF102991999999999999999999MA1101965100515REMMET09701/03/10 13:53:02 METAR KLVK 032153Z 06014KT 8SM FEW012 12/08 A3011 RMK AO2 SLP195 T01170083 (JH)
0193724927232852010010322537+37694-121810FM-15+0121KLVK V0300505N007752200059N0112655N5+01115+00785101985ADDAA101000095GF100991999999999999999999MA1102005100545REMMET09401/03/10 14:53:02 METAR KLVK 032253Z 05015KT 7SM CLR 11/08 A3012 RMK AO2 SLP198 T01110078 (JH)EQDQ01    099SCCGD1P01    003SCCGA1
0271724927232852010010323537+37694-121810FM-15+0121KLVK V0300505N006252200059N0096565N5+01065+00725102005ADDAA101000095AU100007015GF100991999999999999999999KA1999M+01221KA2999N+00891MA1102005100545MD1390029+9999MW1055REMMET11501/03/10 15:53:02 METAR KLVK 032353Z 05012KT 6SM HZ CLR 11/07 A3012 RMK AO2 SLP200 T01060072 10122 20089 53002 (AK)EQDQ01    099SCCGD1P01    003SCCGA1
0185724927232852010010400447+37694-121810FM-16+0121KLVK V0300505N00625003055MN0096565N5+00905+00705999999ADDAU100001015AW1105GA1075+003055999GD13991+0030559GF107991999999999999999999MA1102005100545MW1101REMMET07801/03/10 16:44:02 SPECI KLVK 040044Z 05012KT 6SM BR BKN010 09/07 A3012 RMK AO2
0213724927232852010010400537+37694-121810FM-15+0121KLVK V0300505N00515003055MN0096565N5+00945+00725102005ADDAA101000095AU100001015AW1105GA1075+003055999GD13991+0030559GF107991999999999999999999MA1102005100545MW1101REMMET09501/03/10 16:53:02 METAR KLVK 040053Z 05010KT 6SM BR BKN010 09/07 A3012 RMK AO2 SLP200 T00940072
0185724927232852010010401357+37694-121810FM-16+0121KLVK V0300505N005152200059N0096565N5+00905+00705999999ADDAU100001015AW1105GA1045+003055999GD12991+0030559GF104991999999999999999999MA1102035100585MW1101REMMET07801/03/10 17:35:02 SPECI KLVK 040135Z 05010KT 6SM BR SCT010 09/07 A3013 RMK AO2
0213724927232852010010401537+37694-121810FM-15+0121KLVK V0300505N005152200059N0096565N5+00895+00675102045ADDAA101000095AU100001015AW1105GA1045+003055999GD12991+0030559GF104991999999999999999999MA1102035100585MW1101REMMET09501/03/10 17:53:02 METAR KLVK 040153Z 05010KT 6SM BR SCT010 09/07 A3013 RMK AO2 SLP204 T00890067
0234724927232852010010402537+37694-121810FM-15+0121KLVK V0300605N005152200059N0096565N5+00835+00675102055ADDAA101000095AU100001015AW1105GF100991999999999999999999MA1102035100585MD1390039+9999MW1101REMMET09801/03/10 18:53:02 METAR KLVK 040253Z 06010KT 6SM BR CLR 08/07 A3013 RMK AO2 SLP205 T00830067 53003EQDQ01    099SCCGD1P01    003SCCGA1
0214724927232852010010403537+37694-121810FM-15+0121KLVK V0300505N005752200059N0080475N5+00835+00675102065ADDAA101000095AU100001015AW1105GF100991999999999999999999MA1102075100615MW1101REMMET09201/03/10 19:53:01 METAR KLVK 040353Z 05011KT 5SM BR CLR 08/07 A3014 RMK AO2 SLP206 T00830067EQDQ01    099SCCGD1P01    003SCCGA1
0185724927232852010010404447+37694-121810FM-16+0121KLVK V0300505N004652200059N0080475N5+00805+00705999999ADDAU100001015AW1105GA1025+002745999GD11991+0027459GF102991999999999999999999MA1102105100645MW1101REMMET07801/03/10 20:44:02 SPECI KLVK 040444Z 05009KT 5SM BR FEW009 08/07 A3015 RMK AO2
0213724927232852010010404537+37694-121810FM-15+0121KLVK V0300505N004652200059N0080475N5+00835+00675102095ADDAA101000095AU100001015AW1105GA1025+002745999GD11991+0027459GF102991999999999999999999MA1102105100645MW1101REMMET09501/03/10 20:53:02 METAR KLVK 040453Z 05009KT 5SM BR FEW009 08/07 A3015 RMK AO2 SLP209 T00830067
0265724927232852010010405537+37694-121810FM-15+0121KLVK V0300605N004152200059N0080475N5+00785+00675102115ADDAA101000095AU100001015AW1105GA1045+002745999GD12991+0027459GF104991999999999999999999KA1999M+01061KA2999N+00781MA1102105100645MD1390079+9999REMMET11301/03/10 21:53:02 METAR KLVK 040553Z 06008KT 5SM BR SCT009 08/07 A3015 RMK AO2 SLP211 T00780067 10106 20078 53007
0179724927232852010010406017+37694-121810FM-16+0121KLVK V0300605N00515002745MN0080475N5+00805+00705999999ADDAU100001015AW1105GA1075+002745999GD13991+0027459GF107991999999999999999999MA1102135100685REMMET07801/03/10 22:01:02 SPECI KLVK 040601Z 06010KT 5SM BR BKN009 08/07 A3016 RMK AO2
0207724927232852010010406537+37694-121810FM-15+0121KLVK V0300705N00265002745MN0080475N5+00835+00675102125ADDAA101000095AU100001015AW1105GA1085+002745999GD14991+0027459GF108991999999999999999999MA1102135100685REMMET09501/03/10 22:53:02 METAR KLVK 040653Z 07005KT 5SM BR OVC009 08/07 A3016 RMK AO2 SLP212 T00830067
0179724927232852010010407067+37694-121810FM-16+0121KLVK V0300705N00215003355MN0080475N5+00805+00705999999ADDAU100001015AW1105GA1085+003355999GD14991+0033559GF108991999999999999999999MA1102135100685REMMET07801/03/10 23:06:02 SPECI KLVK 040706Z 07004KT 5SM BR OVC011 08/07 A3016 RMK AO2
0217724927232852010010407537+37694-121810FM-15+0121KLVK V0300505N00365003355MN0080475N5+00785+00615102105ADDAA101000095AU100001015AW1105GA1075+003355999GD13991+0033559GF107991999999999999999999MA1102105100645REMMET10501/03/10 23:53:02 METAR KLVK 040753Z 05007KT 5SM BR BKN011 08/06 A3015 RMK AO2 SLP210 T00780061 401220033
1050724927232852010010407596+37694-121810SOD  +0121KLVK V030999999999999999999999999999+99999+99999999999ADDAA12400009UAX1016246AX2086246KA1240M+01225KA2240N+00335KG1024W+0072D4KG2024D+0067D4MF1100644102104MG1100644101964OE11240116205011455OE22240093906012505OE33240042099999995RH1024X096D4RH2024N080D4RH3024M089D4REMSOD74924 HR PRECIPITATION (IN):0.01  WEATHER(CODE):1,8  24 HR MAX TEMP (F):54 24 HR MAX TEMP TIME (LST):1323 24 HR MIN TEMP (F):38 24 HR MIN TEMP TIME (LST):0809 AVERAGE STATION PRESSURE:29.720 MINIMUM SEA LEVEL PRESSURE:30.11 TIME OF OCCURRENCE:1452 PEAK WIND SPEED (MPH):26  PEAK WIND DIR (DEG):50  PEAK WIND TIME (LST):1145  FASTEST 2MIN SPEED (MPH):21 FASTEST 2MIN DIR (DEG):60  FASTEST 2MIN TIME (LST):1250 AVERAGE WIND SPEED (MPH):9.4  24 HR AVG TEMP (F):46 HEATING DEGREE DAYS:19  COOLING DEGREE DAYS:0   LATEST DAY MAX TEMP (0700-1900 LST):54  LATEST NIGHT MIN TEMP(1900-0800 LST):38 HOURLY INCREMENTAL PRECIPITATION VALUES (IN):.00 0.01 0.00 0.00 0.00 0.00 0.00 0.00 0.00 0.00 0.00 0.00 0.00 0.00 0.00 0.00 0.00 0.00 0.00 0.00 0.00 0.00 0.00 0.00EQDR01  0.017AAP092R02   1,87AXW092R03   1,87AXW092R04     N7GJS072R05     N7GKS075
0179724927232852010010408007+37694-121810FM-16+0121KLVK V0300505N00365002745MN0080475N5+00805+00605999999ADDAU100001015AW1105GA1085+002745999GD14991+0027459GF108991999999999999999999MA1102105100645REMMET07801/04/10 00:00:02 SPECI KLVK 040800Z 05007KT 5SM BR OVC009 08/06 A3015 RMK AO2
0239724927232852010010408537+37694-121810FM-15+0121KLVK V0300605N00415002745MN0080475N5+00785+00675102095ADDAA101000095AU100001015AW1105GA1085+002745999GD14991+0027459GF108991999999999999999999MA1102105100645MD1890029+9999REMMET11301/04/10 00:53:02 METAR KLVK 040853Z 06008KT 5SM BR OVC009 08/07 A3015 RMK AO2 CIG 008V011 SLP209 T00780067 58002
0179724927232852010010409457+37694-121810FM-16+0121KLVK V0300605N003652200059N0080475N5+00805+00605999999ADDAU100001015AW1105GA1045+002745999GD12991+0027459GF104991999999999999999999MA1102105100645REMMET07801/04/10 01:45:02 SPECI KLVK 040945Z 06007KT 5SM BR SCT009 08/06 A3015 RMK AO2
0207724927232852010010409537+37694-121810FM-15+0121KLVK V0300605N003152200059N0080475N5+00785+00615102085ADDAA101000095AU100001015AW1105GA1025+002745999GD11991+0027459GF102991999999999999999999MA1102105100645REMMET09501/04/10 01:53:02 METAR KLVK 040953Z 06006KT 5SM BR FEW009 08/06 A3015 RMK AO2 SLP208 T00780061
0179724927232852010010410197+37694-121810FM-16+0121KLVK V0300605N00415002745MN0080475N5+00805+00605999999ADDAU100001015AW1105GA1075+002745999GD13991+0027459GF107991999999999999999999MA1102105100645REMMET07801/04/10 02:19:02 SPECI KLVK 041019Z 06008KT 5SM BR BKN009 08/06 A3015 RMK AO2
0207724927232852010010410537+37694-121810FM-15+0121KLVK V0300605N00465002745MN0080475N5+00785+00615102105ADDAA101000095AU100001015AW1105GA1075+002745999GD13991+0027459GF107991999999999999999999MA1102105100645REMMET09501/04/10 02:53:02 METAR KLVK 041053Z 06009KT 5SM BR BKN009 08/06 A3015 RMK AO2 SLP210 T00780061
0265724927232852010010411537+37694-121810FM-15+0121KLVK V0300605N00465002135MN0080475N5+00725+00615102095ADDAA101000095AU100001015AW1105GA1085+002135999GD14991+0021359GF108991999999999999999999KA1999M+00831KA2999N+00721MA1102105100645MD1490009+9999REMMET11301/04/10 03:53:02 METAR KLVK 041153Z 06009KT 5SM BR OVC007 07/06 A3015 RMK AO2 SLP209 T00720061 10083 20072 54000
0245724927232852010010412537+37694-121810FM-15+0121KLVK V0300605N00515002135MN0064375N5+00725+00615102105ADDAA101000095AU100001015AW1105GA1075+002135999GA2085+003055999GD13991+0021359GD24991+0030559GF108991999999999999999999MA1102105100645REMMET10201/04/10 04:53:02 METAR KLVK 041253Z 06010KT 4SM BR BKN007 OVC010 07/06 A3015 RMK AO2 SLP210 T00720061
0207724927232852010010413537+37694-121810FM-15+0121KLVK V0300605N00365002135MN0080475N5+00725+00615102125ADDAA101000095AU100001015AW1105GA1085+002135999GD14991+0021359GF108991999999999999999999MA1102135100685REMMET09501/04/10 05:53:02 METAR KLVK 041353Z 06007KT 5SM BR OVC007 07/06 A3016 RMK AO2 SLP212 T00720061
0238724927232852010010414537+37694-121810FM-15+0121KLVK V0300605N00365002135MN0080475N5+00725+00565102145ADDAA101000095AU100001015AW1105GA1085+002135999GD14991+0021359GF108991999999999999999999MA1102135100685MD1190049+9999MW1101REMMET10601/04/10 06:53:02 METAR KLVK 041453Z 06007KT 5SM BR OVC007 07/06 A3016 RMK AO2 SLP214 T00720056 51004 (JH)
0218724927232852010010415537+37694-121810FM-15+0121KLVK V0300405N00415001525MN0080475N5+00725+00565102175ADDAA101000095AU100001015AW1105GA1085+001525999GD14991+0015259GF108991999999999999999999MA1102175100715MW1101REMMET10001/04/10 07:53:02 METAR KLVK 041553Z 04008KT 5SM BR OVC005 07/06 A3017 RMK AO2 SLP217 T00720056 (JH)
0218724927232852010010416537+37694-121810FM-15+0121KLVK V0300705N00365001525MN0064375N5+00725+00565102195ADDAA101000095AU100001015AW1105GA1085+001525999GD14991+0015259GF108991999999999999999999MA1102205100745MW1101REMMET10001/04/10 08:53:02 METAR KLVK 041653Z 07007KT 4SM BR OVC005 07/06 A3018 RMK AO2 SLP219 T00720056 (JH)
0276724927232852010010417537+37694-121810FM-15+0121KLVK V0300705N00365002135MN0064375N5+00785+00615102245ADDAA101000095AU100001015AW1105GA1085+002135999GD14991+0021359GF108991999999999999999999KA1999M+00781KA2999N+00611MA1102245100785MD1390099+9999MW1101REMMET11801/04/10 09:53:02 METAR KLVK 041753Z 07007KT 4SM BR OVC007 08/06 A3019 RMK AO2 SLP224 T00780061 10078 20061 53009 (JH)
0218724927232852010010418537+37694-121810FM-15+0121KLVK V0300605N00315002745MN0064375N5+00835+00615102255ADDAA101000095AU100001015AW1105GA1085+002745999GD14991+0027459GF108991999999999999999999MA1102275100815MW1101REMMET10001/04/10 10:53:02 METAR KLVK 041853Z 06006KT 4SM BR OVC009 08/06 A3020 RMK AO2 SLP225 T00830061 (JH)
0212724927232852010010419537+37694-121810FM-15+0121KLVK V0300605N00465002745MN0080475N5+00895+00615102175ADDAA101000095AU100007015GA1075+002745999GD13991+0027459GF107991999999999999999999MA1102175100715MW1055REMMET10001/04/10 11:53:02 METAR KLVK 041953Z 06009KT 5SM HZ BKN009 09/06 A3017 RMK AO2 SLP217 T00890061 (JH)
0184724927232852010010420057+37694-121810FM-16+0121KLVK V0300705N003152200059N0080475N5+00905+00705999999ADDAU100007015GA1045+002745999GD12991+0027459GF104991999999999999999999MA1102175100715MW1055REMMET08301/04/10 12:05:02 SPECI KLVK 042005Z 07006KT 5SM HZ SCT009 09/07 A3017 RMK AO2 (JH)
0232724927232852010010420537+37694-121810FM-15+0121KLVK V0300605N005152200059N0096565N5+01005+00675102145ADDAA101000095AU100007015GA1045+003965999GD12991+0039659GF104991999999999999999999MA1102135100685MD1890089+9999MW1055REMMET10601/04/10 12:53:02 METAR KLVK 042053Z 06010KT 6SM HZ SCT013 10/07 A3016 RMK AO2 SLP214 T01000067 58008 (JH)
0184724927232852010010421027+37694-121810FM-16+0121KLVK V0300605N00415003965MN0080475N5+01005+00705999999ADDAU100007015GA1075+003965999GD13991+0039659GF107991999999999999999999MA1102135100685MW1055REMMET08301/04/10 13:02:02 SPECI KLVK 042102Z 06008KT 5SM HZ BKN013 10/07 A3016 RMK AO2 (JH)
0184724927232852010010421327+37694-121810FM-16+0121KLVK V0300505N004652200059N0096565N5+01005+00605999999ADDAU100007015GA1045+003965999GD12991+0039659GF104991999999999999999999MA1102075100615MW1055REMMET08301/04/10 13:32:02 SPECI KLVK 042132Z 05009KT 6SM HZ SCT013 10/06 A3014 RMK AO2 (JH)
0212724927232852010010421537+37694-121810FM-15+0121KLVK V0300505N004652200059N0096565N5+01005+00615102075ADDAA101000095AU100007015GA1025+003965999GD11991+0039659GF102991999999999999999999MA1102075100615MW1055REMMET10001/04/10 13:53:02 METAR KLVK 042153Z 05009KT 6SM HZ FEW013 10/06 A3014 RMK AO2 SLP207 T01000061 (TK)
0213724927232852010010422537+37694-121810FM-15+0121KLVK V0300805N004652200059N0096565N5+01005+00615102065ADDAA101000095AU100007015GF100991999999999999999999MA1102075100615MW1055REMMET09701/04/10 14:53:02 METAR KLVK 042253Z 08009KT 6SM HZ CLR 10/06 A3014 RMK AO2 SLP206 T01000061 (TK)EQDQ01    099SCCGD1P01    003SCCGA1
0271724927232852010010423537+37694-121810FM-15+0121KLVK V0300505N004652200059N0080475N5+00945+00615102055ADDAA101000095AU100007015GF100991999999999999999999KA1999M+01001KA2999N+00781MA1102075100615MD1690099+9999MW1055REMMET11501/04/10 15:53:02 METAR KLVK 042353Z 05009KT 5SM HZ CLR 09/06 A3014 RMK AO2 SLP205 T00940061 10100 20078 56009 (TK)EQDQ01    099SCCGD1P01    003SCCGA1
0214724927232852010010500537+37694-121810FM-15+0121KLVK V0300605N003652200059N0064375N5+00785+00565102045ADDAA101000095AU100001015AW1105GF100991999999999999999999MA1102035100585MW1101REMMET09201/04/10 16:53:02 METAR KLVK 050053Z 06007KT 4SM BR CLR 08/06 A3013 RMK AO2 SLP204 T00780056EQDQ01    099SCCGD1P01    003SCCGA1
0214724927232852010010501537+37694-121810FM-15+0121KLVK V0300705N002152200059N0080475N5+00675+00505102055ADDAA101000095AU100001015AW1105GF100991999999999999999999MA1102035100585MW1101REMMET09201/04/10 17:53:02 METAR KLVK 050153Z 07004KT 5SM BR CLR 07/05 A3013 RMK AO2 SLP205 T00670050EQDQ01    099SCCGD1P01    003SCCGA1
0234724927232852010010502537+37694-121810FM-15+0121KLVK V0309999C000052200059N0080475N5+00615+00445102125ADDAA101000095AU100001015AW1105GF100991999999999999999999MA1102105100645MD1390059+9999MW1101REMMET09801/04/10 18:53:01 METAR KLVK 050253Z 00000KT 5SM BR CLR 06/04 A3015 RMK AO2 SLP212 T00610044 53005EQDQ01    099SCCGD1P01    003SCCGA1
0214724927232852010010503537+37694-121810FM-15+0121KLVK V0309999C000052200059N0080475N5+00445+00335102125ADDAA101000095AU100001015AW1105GF100991999999999999999999MA1102105100645MW1101REMMET09201/04/10 19:53:01 METAR KLVK 050353Z 00000KT 5SM BR CLR 04/03 A3015 RMK AO2 SLP212 T00440033EQDQ01    099SCCGD1P01    003SCCGA1
0214724927232852010010504537+37694-121810FM-15+0121KLVK V0309999C000052200059N0080475N5+00565+00395102135ADDAA101000095AU100001015AW1105GF100991999999999999999999MA1102135100685MW1101REMMET09201/04/10 20:53:01 METAR KLVK 050453Z 00000KT 5SM BR CLR 06/04 A3016 RMK AO2 SLP213 T00560039EQDQ01    099SCCGD1P01    003SCCGA1
0266724927232852010010505537+37694-121810FM-15+0121KLVK V0309999C000052200059N0064375N5+00445+00395102195ADDAA101000095AU100001015AW1105GF100991999999999999999999KA1999M+00941KA2999N+00331MA1102175100715MD1390079+9999REMMET11001/04/10 21:53:02 METAR KLVK 050553Z 00000KT 4SM BR CLR 04/04 A3017 RMK AO2 SLP219 T00440039 10094 20033 53007EQDQ01    099SCCGD1P01    003SCCGA1
0208724927232852010010506537+37694-121810FM-15+0121KLVK V0309999C000052200059N0064375N5+00445+00335102185ADDAA101000095AU100001015AW1105GF100991999999999999999999MA1102175100715REMMET09201/04/10 22:53:02 METAR KLVK 050653Z 00000KT 4SM BR CLR 04/03 A3017 RMK AO2 SLP218 T00440033EQDQ01    099SCCGD1P01    003SCCGA1
0218724927232852010010507537+37694-121810FM-15+0121KLVK V0309999C000052200059N0064375N5+00395+00285102185ADDAA101000095AU100001015AW1105GF100991999999999999999999MA1102175100715REMMET10201/04/10 23:53:02 METAR KLVK 050753Z 00000KT 4SM BR CLR 04/03 A3017 RMK AO2 SLP218 T00390028 401000028EQDQ01    099SCCGD1P01    003SCCGA1
1002724927232852010010507596+37694-121810SOD  +0121KLVK V030999999999999999999999999999+99999+99999999999ADDAA124000095AX1015245AX2085245KA1240M+01005KA2240N+00285KG1024W+0067D4KG2024D+0056D4MF1100684102134MG1100684102004OE11240071506004455OE22240058106013095OE33240030499999995RH1024X097D4RH2024N077D4RH3024M088D4REMSOD74924 HR PRECIPITATION (IN):0.00  WEATHER(CODE):1,8  24 HR MAX TEMP (F):50 24 HR MAX TEMP TIME (LST):1521 24 HR MIN TEMP (F):37 24 HR MIN TEMP TIME (LST):2327 AVERAGE STATION PRESSURE:29.730 MINIMUM SEA LEVEL PRESSURE:30.12 TIME OF OCCURRENCE:1725 PEAK WIND SPEED (MPH):16  PEAK WIND DIR (DEG):60  PEAK WIND TIME (LST):0445  FASTEST 2MIN SPEED (MPH):13 FASTEST 2MIN DIR (DEG):60  FASTEST 2MIN TIME (LST):1309 AVERAGE WIND SPEED (MPH):6.8  24 HR AVG TEMP (F):44 HEATING DEGREE DAYS:21  COOLING DEGREE DAYS:0   LATEST DAY MAX TEMP (0700-1900 LST):50  LATEST NIGHT MIN TEMP(1900-0800 LST):44 HOURLY INCREMENTAL PRECIPITATION VALUES (IN):.00 0.00 0.00 0.00 0.00 0.00 0.00 0.00 0.00 0.00 0.00 0.00 0.00 0.00 0.00 0.00 0.00 0.00 0.00 0.00 0.00 0.00 0.00 0.00EQDR01     N7GJS072R02     N7GKS075
0184724927232852010010508257+37694-121810FM-16+0121KLVK V0309999C000052200059N0040235N5+00405+00305999999ADDAU100001015AW1105GF100991999999999999999999MA1102175100715REMMET07901/05/10 00:25:02 SPECI KLVK 050825Z 00000KT 2 1/2SM BR CLR 04/03 A3017 RMK AO2EQDQ01    099SCCGD1P01    003SCCGA1
0180724927232852010010508407+37694-121810FM-16+0121KLVK V0309999C000052200059N0048285N5+00305+00305999999ADDAU100001015AW1105GF100991999999999999999999MA1102175100715REMMET07501/05/10 00:40:02 SPECI KLVK 050840Z 00000KT 3SM BR CLR 03/03 A3017 RMK AO2EQDQ01    099SCCGD1P01    003SCCGA1
0228724927232852010010508537+37694-121810FM-15+0121KLVK V0309999C000052200059N0048285N5+00335+00285102185ADDAA101000095AU100001015AW1105GF100991999999999999999999MA1102175100715MD1590019+9999REMMET09801/05/10 00:53:02 METAR KLVK 050853Z 00000KT 3SM BR CLR 03/03 A3017 RMK AO2 SLP218 T00330028 55001EQDQ01    099SCCGD1P01    003SCCGA1
0158724927232852010010509516+37694-121810FM-16+0121KLVK V0309999C000052200059N0048285N5+00305+00205999999ADDAU100001015AW1105GA1025+000305999GD11991+0003059MA1102175100715REMMET08301/05/10 01:51:02 SPECI KLVK 050951Z 00000KT 3SM BR FEW001 03/02 A3017 RMK AO2 FIBI
0207724927232852010010509537+37694-121810FM-15+0121KLVK V0309999C000052200059N0048285N5+00335+00225102185ADDAA101000095AU100001015AW1105GA1025+000305999GD11991+0003059GF102991999999999999999999MA1102175100715REMMET09501/05/10 01:53:02 METAR KLVK 050953Z 00000KT 3SM BR FEW001 03/02 A3017 RMK AO2 SLP218 T00330022
0179724927232852010010510157+37694-121810FM-16+0121KLVK V0309999C00005000305MN0032195N5+00305+00205999999ADDAU100001015AW1105GA1075+000305999GD13991+0003059GF107991999999999999999999MA1102175100715REMMET07801/05/10 02:15:02 SPECI KLVK 051015Z 00000KT 2SM BR BKN001 03/02 A3017 RMK AO2
0219724927232852010010510217+37694-121810FM-16+0121KLVK V0309999C00005000305MN0012075N5+00305+00205999999ADDAU100001015AW1105GA1075+000305999GA2075+002745999GD13991+0003059GD23991+0027459GF107991999999999999999999MA1102175100715REMMET08701/05/10 02:21:02 SPECI KLVK 051021Z 00000KT 3/4SM BR BKN001 BKN009 03/02 A3017 RMK AO2
0219724927232852010010510457+37694-121810FM-16+0121KLVK V0309999C00005000305MN0004025N5+00305+00305999999ADDAU100002015AW1305GA1075+000305999GA2085+002135999GD13991+0003059GD24991+0021359GF108991999999999999999999MA1102175100715REMMET08701/05/10 02:45:02 SPECI KLVK 051045Z 00000KT 1/4SM FG BKN001 OVC007 03/03 A3017 RMK AO2
0199724927232852010010510516+37694-121810FM-16+0121KLVK V0309999C00005002135MN0000005N5+00305+00305999999ADDAU100002015AW1305GA1045+000305999GA2085+002135999GD12991+0003059GD24991+0021359MA1102135100685REMMET09301/05/10 02:51:02 SPECI KLVK 051051Z 00000KT M1/4SM FG SCT001 OVC007 03/03 A3016 RMK AO2 FIBI
0248724927232852010010510537+37694-121810FM-15+0121KLVK V0309999C00005002135MN0000005N5+00285+00285102145ADDAA101000095AU100002015AW1305GA1045+000305999GA2085+002135999GD12991+0003059GD24991+0021359GF108991999999999999999999MA1102135100685REMMET10501/05/10 02:53:02 METAR KLVK 051053Z 00000KT M1/4SM FG SCT001 OVC007 03/03 A3016 RMK AO2 SLP214 T00280028
0226724927232852010010511447+37694-121810FM-16+0121KLVK V0309999C00005000915MN0004025N5+00205+00205999999ADDAU100002015AW1305GA1075+000915999GA2085+002135999GD13991+0009159GD24991+0021359GF108991999999999999999999MA1102075100615REMMET09401/05/10 03:44:02 SPECI KLVK 051144Z 00000KT 1/4SM FG BKN003 OVC007 02/02 A3014 RMK AO2 FZRANO
0312724927232852010010511537+37694-121810FM-15+0121KLVK V0309999C00005000915MN0004025N5+00225+00225102065ADDAA101000095AU100002015AW1305GA1075+000915999GA2085+002135999GD13991+0009159GD24991+0021359GF108991999999999999999999KA1999M+00501KA2999N+00171MA1102075100615MD1890129+9999REMMET12901/05/10 03:53:02 METAR KLVK 051153Z 00000KT 1/4SM FG BKN003 OVC007 02/02 A3014 RMK AO2 SLP206 T00220022 10050 20017 58012 FZRANO
0226724927232852010010512437+37694-121810FM-16+0121KLVK V0309999C00005000915MN0012075N5+00205+00205999999ADDAU100001015AW1105GA1075+000915999GA2075+002445999GD13991+0009159GD23991+0024459GF107991999999999999999999MA1102105100645REMMET09401/05/10 04:43:02 SPECI KLVK 051243Z 00000KT 3/4SM BR BKN003 BKN008 02/02 A3015 RMK AO2 FZRANO
0254724927232852010010512537+37694-121810FM-15+0121KLVK V0301705N00155000915MN0004025N5+00225+00225102125ADDAA101000095AU100002015AW1305GA1075+000915999GA2075+002445999GD13991+0009159GD23991+0024459GF107991999999999999999999MA1102135100685REMMET11101/05/10 04:53:02 METAR KLVK 051253Z 17003KT 1/4SM FG BKN003 BKN008 02/02 A3016 RMK AO2 SLP212 T00220022 FZRANO
0181724927232852010010513117+37694-121810FM-16+0121KLVK V0309999C00005000915MN0012075N5+00305+00305999999ADDAU100001015AW1105GA1085+000915999GD14991+0009159GF108991999999999999999999MA1102135100685REMMET08001/05/10 05:11:02 SPECI KLVK 051311Z 00000KT 3/4SM BR OVC003 03/03 A3016 RMK AO2
0191724927232852010010513177+37694-121810FM-16+0121KLVK V0300605N00155000915MN0032195N5+00305+00305999999ADDAU100001015AW1105GA1085+000915999GD14991+0009159GF108991999999999999999999MA1102135100685REMMET09001/05/10 05:17:02 SPECI KLVK 051317Z 06003KT 2SM BR OVC003 03/03 A3016 RMK AO2 CIG 002V005
0191724927232852010010513287+37694-121810FM-16+0121KLVK V0309999C00005000915MN0048285N5+00305+00305999999ADDAU100001015AW1105GA1085+000915999GD14991+0009159GF108991999999999999999999MA1102135100685REMMET09001/05/10 05:28:02 SPECI KLVK 051328Z 00000KT 3SM BR OVC003 03/03 A3016 RMK AO2 CIG 001V005
0158724927232852010010513516+37694-121810FM-16+0121KLVK V0300405N00215000915MN0032195N5+00305+00305999999ADDAU100001015AW1105GA1075+000915999GD13991+0009159MA1102135100685REMMET08301/05/10 05:51:02 SPECI KLVK 051351Z 04004KT 2SM BR BKN003 03/03 A3016 RMK AO2 FIBI
0207724927232852010010513537+37694-121810FM-15+0121KLVK V0300505N00215000915MN0032195N5+00335+00335102155ADDAA101000095AU100001015AW1105GA1075+000915999GD13991+0009159GF107991999999999999999999MA1102135100685REMMET09501/05/10 05:53:02 METAR KLVK 051353Z 05004KT 2SM BR BKN003 03/03 A3016 RMK AO2 SLP215 T00330033
0183724927232852010010514027+37694-121810FM-16+0121KLVK V0309999C00005000305MN0028165N5+00405+00405999999ADDAU100001015AW1105GA1075+000305999GD13991+0003059GF107991999999999999999999MA1102175100715REMMET08201/05/10 06:02:02 SPECI KLVK 051402Z 00000KT 1 3/4SM BR BKN001 04/04 A3017 RMK AO2
0181724927232852010010514117+37694-121810FM-16+0121KLVK V0303505N00155000305MN0004025N5+00405+00405999999ADDAU100002015AW1305GA1085+000305999GD14991+0003059GF108991999999999999999999MA1102205100745REMMET08001/05/10 06:11:02 SPECI KLVK 051411Z 35003KT 1/4SM FG OVC001 04/04 A3018 RMK AO2
0181724927232852010010514487+37694-121810FM-16+0121KLVK V0309999C00005000915MN0004025N5+00305+00305999999ADDAU100002015AW1305GA1085+000915999GD14991+0009159GF108991999999999999999999MA1102245100785REMMET08001/05/10 06:48:02 SPECI KLVK 051448Z 00000KT 1/4SM FG OVC003 03/03 A3019 RMK AO2
0229724927232852010010514537+37694-121810FM-15+0121KLVK V0309999C00005000915MN0004025N5+00335+00335102235ADDAA101000095AU100002015AW1305GA1085+000915999GD14991+0009159GF108991999999999999999999MA1102245100785MD1190119+9999REMMET10301/05/10 06:53:02 METAR KLVK 051453Z 00000KT 1/4SM FG OVC003 03/03 A3019 RMK AO2 SLP223 T00330033 51011
0190724927232852010010515057+37694-121810FM-16+0121KLVK V0309999C00005000915MN0016095N5+00305+00305999999ADDAU100001015AW1105GA1085+000915999GD14991+0009159GF108991999999999999999999MA1102275100815MW1101REMMET08301/05/10 07:05:02 SPECI KLVK 051505Z 00000KT 1SM BR OVC003 03/03 A3020 RMK AO2 (KJ)
0192724927232852010010515137+37694-121810FM-16+0121KLVK V0309999C00005000305MN0004025N5+00305+00305999999ADDAU100002015AW1305GA1085+000305999GD14991+0003059GF108991999999999999999999MA1102305100855MW1441REMMET08501/05/10 07:13:02 SPECI KLVK 051513Z 00000KT 1/4SM FG OVC001 03/03 A3021 RMK AO2 (KJ)
0259724927232852010010515197+37694-121810FM-16+0121KLVK V0309999C00005000305WN000000ANA+00405+00405999999ADDAU10000201AAW1306GA1095+000305999GD15991+0003059GF109991999999000251999999MA1102345100885MW1451REMMET08501/05/10 07:19:02 SPECI KLVK 051519Z 00000KT 1/16SM FG VV001 04/04 A3022 RMK AO2 (KJ)EQDR011/16SM7VIS018R02    FG7AWW018R03SEERMK7MVW018R04    FG7MWW018
0220724927232852010010515537+37694-121810FM-15+0121KLVK V0301605N00155000305WN0000005N5+00445+00445102345ADDAA101000095AU100002015AW1305GA1095+000305999GD15991+0003059GF109991999999000251999999MA1102345100885MW1451REMMET10201/05/10 07:53:02 METAR KLVK 051553Z 16003KT M1/4SM FG VV001 04/04 A3022 RMK AO2 SLP234 T00440044 (KJ)
0164724927232852010010516516+37694-121810FM-16+0121KLVK V0309999C00005000305WN0008055N5+00505+00505999999ADDAU100002015AW1305GA1095+000305999GD15991+0003059MA1102345100885REMMET08901/05/10 08:51:02 SPECI KLVK 051651Z 00000KT 1/2SM FG VV001 05/05 A3022 RMK AO2 FIBI (KJ)
0219724927232852010010516537+37694-121810FM-15+0121KLVK V0309999C00005000305WN0008055N5+00565+00505102335ADDAA101000095AU100002015AW1305GA1095+000305999GD15991+0003059GF109991999999000251999999MA1102345100885MW1451REMMET10101/05/10 08:53:02 METAR KLVK 051653Z 00000KT 1/2SM FG VV001 06/05 A3022 RMK AO2 SLP233 T00560050 (KJ)
0194724927232852010010517047+37694-121810FM-16+0121KLVK V0300605N00155000305MN0020125N5+00605+00605999999ADDAU100001015AW1105GA1085+000305999GD14991+0003059GF108991999999999999999999MA1102345100885MW1101REMMET08701/05/10 09:04:02 SPECI KLVK 051704Z 06003KT 1 1/4SM BR OVC001 06/06 A3022 RMK AO2 (KJ)
0206724927232852010010517197+37694-121810FM-16+0121KLVK V0300505N00365000915MN0040235N5+00705+00605999999ADDAU100001015AW1105GA1085+000915999GD14991+0009159GF108991999999999999999999MA1102345100885MW1101REMMET09901/05/10 09:19:02 SPECI KLVK 051719Z 05007KT 2 1/2SM BR OVC003 07/06 A3022 RMK AO2 CIG 001V006 (KJ)
0163724927232852010010517516+37694-121810FM-16+0121KLVK V0300605N00515000915MN0048285N5+00705+00605999999ADDAU100001015AW1105GA1075+000915999GD13991+0009159MA1102345100885REMMET08801/05/10 09:51:02 SPECI KLVK 051751Z 06010KT 3SM BR BKN003 07/06 A3022 RMK AO2 FIBI (KJ)
0276724927232852010010517537+37694-121810FM-15+0121KLVK V0300605N00465000915MN0048285N5+00675+00615102345ADDAA101000095AU100001015AW1105GA1075+000915999GD13991+0009159GF107991999999999999999999KA1999M+00671KA2999N+00111MA1102345100885MD1190109+9999MW1101REMMET11801/05/10 09:53:02 METAR KLVK 051753Z 06009KT 3SM BR BKN003 07/06 A3022 RMK AO2 SLP234 T00670061 10067 20011 51010 (KJ)
0190724927232852010010518107+37694-121810FM-16+0121KLVK V0300505N00465000915MN0032195N5+00705+00605999999ADDAU100001015AW1105GA1075+000915999GD13991+0009159GF107991999999999999999999MA1102375100915MW1101REMMET08301/05/10 10:10:02 SPECI KLVK 051810Z 05009KT 2SM BR BKN003 07/06 A3023 RMK AO2 (AK)
0190724927232852010010518317+37694-121810FM-16+0121KLVK V0300605N00515000915MN0048285N5+00705+00705999999ADDAU100001015AW1105GA1075+000915999GD13991+0009159GF107991999999999999999999MA1102345100885MW1101REMMET08301/05/10 10:31:02 SPECI KLVK 051831Z 06010KT 3SM BR BKN003 07/07 A3022 RMK AO2 (AK)
0218724927232852010010518537+37694-121810FM-15+0121KLVK V0300705N00415000915MN0048285N5+00785+00675102325ADDAA101000095AU100001015AW1105GA1075+000915999GD13991+0009159GF107991999999999999999999MA1102305100855MW1101REMMET10001/05/10 10:53:02 METAR KLVK 051853Z 07008KT 3SM BR BKN003 08/07 A3021 RMK AO2 SLP232 T00780067 (TK)
0190724927232852010010519017+37694-121810FM-16+0121KLVK V0300805N004152200059N0048285N5+00805+00705999999ADDAU100001015AW1105GA1045+000915999GD12991+0009159GF104991999999999999999999MA1102305100855MW1101REMMET08301/05/10 11:01:02 SPECI KLVK 051901Z 08008KT 3SM BR SCT003 08/07 A3021 RMK AO2 (TK)
0213724927232852010010519537+37694-121810FM-15+0121KLVK V0309999C000052200059N0064375N5+01005+00725102245ADDAA101000095AU100007015GF100991999999999999999999MA1102245100785MW1055REMMET09701/05/10 11:53:02 METAR KLVK 051953Z 00000KT 4SM HZ CLR 10/07 A3019 RMK AO2 SLP224 T01000072 (TK)EQDQ01    099SCCGD1P01    003SCCGA1
0233724927232852010010520537+37694-121810FM-15+0121KLVK V0302805N001552200059N0096565N5+01175+00785102135ADDAA101000095AU100007015GF100991999999999999999999MA1102135100685MD1890209+9999MW1055REMMET10301/05/10 12:53:02 METAR KLVK 052053Z 28003KT 6SM HZ CLR 12/08 A3016 RMK AO2 SLP213 T01170078 58020 (AK)EQDQ01    099SCCGD1P01    003SCCGA1
0193724927232852010010521537+37694-121810FM-15+0121KLVK V0300505N005752200059N0128755N5+01225+00675102095ADDAA101000095GF100991999999999999999999MA1102075100615REMMET09401/05/10 13:53:02 METAR KLVK 052153Z 05011KT 8SM CLR 12/07 A3014 RMK AO2 SLP209 T01220067 (AK)EQDQ01    099SCCGD1P01    003SCCGA1
0193724927232852010010522537+37694-121810FM-15+0121KLVK V0300705N003652200059N0112655N5+01115+00675102065ADDAA101000095GF100991999999999999999999MA1102075100615REMMET09401/05/10 14:53:02 METAR KLVK 052253Z 07007KT 7SM CLR 11/07 A3014 RMK AO2 SLP206 T01110067 (AK)EQDQ01    099SCCGD1P01    003SCCGA1
0277724927232852010010523537+37694-121810FM-15+0121KLVK V0300805N003652200059N0080475N5+00895+00675102085ADDAA101000095AU100001015AW1105GF100991999999999999999999KA1999M+01331KA2999N+00671MA1102075100615MD1590059+9999MW1101REMMET11501/05/10 15:53:02 METAR KLVK 052353Z 08007KT 5SM BR CLR 09/07 A3014 RMK AO2 SLP208 T00890067 10133 20067 55005 (AK)EQDQ01    099SCCGD1P01    003SCCGA1
0208724927232852010010600537+37694-121810FM-15+0121KLVK V0300705N001552200059N0080475N5+00835+00565102095ADDAA101000095AU100007015GF100991999999999999999999MA1102105100645MW1055REMMET09201/05/10 16:53:02 METAR KLVK 060053Z 07003KT 5SM HZ CLR 08/06 A3015 RMK AO2 SLP209 T00830056EQDQ01    099SCCGD1P01    003SCCGA1
0188724927232852010010601537+37694-121810FM-15+0121KLVK V0300805N001552200059N0112655N5+00675+00445102115ADDAA101000095GF100991999999999999999999MA1102105100645REMMET08901/05/10 17:53:02 METAR KLVK 060153Z 08003KT 7SM CLR 07/04 A3015 RMK AO2 SLP211 T00670044EQDQ01    099SCCGD1P01    003SCCGA1
0208724927232852010010602537+37694-121810FM-15+0121KLVK V0300705N003152200059N0128755N5+00725+00445102195ADDAA101000095GF100991999999999999999999MA1102175100715MD1390109+9999REMMET09501/05/10 18:53:02 METAR KLVK 060253Z 07006KT 8SM CLR 07/04 A3017 RMK AO2 SLP219 T00720044 53010EQDQ01    099SCCGD1P01    003SCCGA1
0208724927232852010010603537+37694-121810FM-15+0121KLVK V0300505N001552200059N0096565N5+00725+00445102195ADDAA101000095AU100007015GF100991999999999999999999MA1102175100715MW1055REMMET09201/05/10 19:53:01 METAR KLVK 060353Z 05003KT 6SM HZ CLR 07/04 A3017 RMK AO2 SLP219 T00720044EQDQ01    099SCCGD1P01    003SCCGA1
0214724927232852010010604537+37694-121810FM-15+0121KLVK V0309999C000052200059N0096565N5+00615+00395102195ADDAA101000095AU100001015AW1105GF100991999999999999999999MA1102205100745MW1101REMMET09201/05/10 20:53:02 METAR KLVK 060453Z 00000KT 6SM BR CLR 06/04 A3018 RMK AO2 SLP219 T00610039EQDQ01    099SCCGD1P01    003SCCGA1
0266724927232852010010605537+37694-121810FM-15+0121KLVK V0309999C000052200059N0064375N5+00565+00445102175ADDAA101000095AU100001015AW1105GF100991999999999999999999KA1999M+00891KA2999N+00501MA1102175100715MD1890019+9999REMMET11001/05/10 21:53:02 METAR KLVK 060553Z 00000KT 4SM BR CLR 06/04 A3017 RMK AO2 SLP217 T00560044 10089 20050 58001EQDQ01    099SCCGD1P01    003SCCGA1
0208724927232852010010606537+37694-121810FM-15+0121KLVK V0309999C000052200059N0064375N5+00505+00395102195ADDAA101000095AU100001015AW1105GF100991999999999999999999MA1102205100745REMMET09201/05/10 22:53:02 METAR KLVK 060653Z 00000KT 4SM BR CLR 05/04 A3018 RMK AO2 SLP219 T00500039EQDQ01    099SCCGD1P01    003SCCGA1
0184724927232852010010607077+37694-121810FM-16+0121KLVK V0309999C000052200059N0040235N5+00405+00405999999ADDAU100001015AW1105GF100991999999999999999999MA1102175100715REMMET07901/05/10 23:07:02 SPECI KLVK 060707Z 00000KT 2 1/2SM BR CLR 04/04 A3017 RMK AO2EQDQ01    099SCCGD1P01    003SCCGA1
0180724927232852010010607147+37694-121810FM-16+0121KLVK V0309999C000052200059N0064375N5+00405+00305999999ADDAU100001015AW1105GF100991999999999999999999MA1102175100715REMMET07501/05/10 23:14:02 SPECI KLVK 060714Z 00000KT 4SM BR CLR 04/03 A3017 RMK AO2EQDQ01    099SCCGD1P01    003SCCGA1
0218724927232852010010607537+37694-121810FM-15+0121KLVK V0309999C000052200059N0064375N5+00445+00335102185ADDAA101000095AU100001015AW1105GF100991999999999999999999MA1102175100715REMMET10201/05/10 23:53:02 METAR KLVK 060753Z 00000KT 4SM BR CLR 04/03 A3017 RMK AO2 SLP218 T00440033 401330011EQDQ01    099SCCGD1P01    003SCCGA1
1061724927232852010010607596+37694-121810SOD  +0121KLVK V030999999999999999999999999999+99999+99999999999ADDAA124000095AX1016246AX2026246AX3086246KA1240M+01335KA2240N+00115KG1024W+0056D4KG2024D+0044D4MF1100684102174MG1100684102074OE11240071508014025OE22240062605013545OE33240015299999995RH1024X100D4RH2024N069D4RH3024M090D4REMSOD75124 HR PRECIPITATION (IN):0.00  WEATHER(CODE):1,2,8  24 HR MAX TEMP (F):56 24 HR MAX TEMP TIME (LST):1338 24 HR MIN TEMP (F):34 24 HR MIN TEMP TIME (LST):0407 AVERAGE STATION PRESSURE:29.730 MINIMUM SEA LEVEL PRESSURE:30.14 TIME OF OCCURRENCE:1700 PEAK WIND SPEED (MPH):16  PEAK WIND DIR (DEG):80  PEAK WIND TIME (LST):1402  FASTEST 2MIN SPEED (MPH):14 FASTEST 2MIN DIR (DEG):50  FASTEST 2MIN TIME (LST):1354 AVERAGE WIND SPEED (MPH):3.4  24 HR AVG TEMP (F):45 HEATING DEGREE DAYS:20  COOLING DEGREE DAYS:0   LATEST DAY MAX TEMP (0700-1900 LST):56  LATEST NIGHT MIN TEMP(1900-0800 LST):34 HOURLY INCREMENTAL PRECIPITATION VALUES (IN):.00 0.00 0.00 0.00 0.00 0.00 0.00 0.00 0.00 0.00 0.00 0.00 0.00 0.00 0.00 0.00 0.00 0.00 0.00 0.00 0.00 0.00 0.00 0.00EQDR01 1,2,87AXW090R02 1,2,87AXW090R03 1,2,87AXW090R04     N7GJS072R05     N7GKS075
0201724927232852010010608247+37694-121810FM-16+0121KLVK V0309999C000052200059N0040235N5+00405+00305999999ADDAA101000391AU100001015AW1105GF100991999999999999999999MA1102205100745REMMET08501/06/10 00:24:02 SPECI KLVK 060824Z 00000KT 2 1/2SM BR CLR 04/03 A3018 RMK AO2 P0001EQDQ01    099SCCGD1P01    003SCCGA1
0196724927232852010010608417+37694-121810FM-16+0121KLVK V0309999C000052200059N0048285N5+00405+00305999999ADDAA101000391AU100001015AW1105GA1025+000305999GD11991+0003059GF102991999999999999999999MA1102205100745REMMET08401/06/10 00:41:02 SPECI KLVK 060841Z 00000KT 3SM BR FEW001 04/03 A3018 RMK AO2 P0001
0269724927232852010010608537+37694-121810FM-15+0121KLVK V0309999C000052200059N0064375N5+00335+00285102205ADDAA10100009PAA203000391AU100001015AW1105GA1025+000305999GD11991+0003059GF102991999999999999999999MA1102205100745MD1190039+9999REMMET11301/06/10 00:53:02 METAR KLVK 060853Z 00000KT 4SM BR FEW001 03/03 A3018 RMK AO2 SLP220 P0001 60001 T00330028 51003EQDQ01  00038PRCP03
0182724927232852010010609237+37694-121810FM-16+0121KLVK V0309999C000052200059N0012075N5+00305+00205999999ADDAU100001015AW1105GF100991999999999999999999MA1102205100745REMMET07701/06/10 01:23:02 SPECI KLVK 060923Z 00000KT 3/4SM BR CLR 03/02 A3018 RMK AO2EQDQ01    099SCCGD1P01    003SCCGA1
0189724927232852010010609327+37694-121810FM-16+0121KLVK V0309999C000052200059N0004025N5+00205+00205999999ADDAU100002015AW1305GF100991999999999999999999MA1102175100715REMMET08401/06/10 01:32:02 SPECI KLVK 060932Z 00000KT 1/4SM FG CLR 02/02 A3017 RMK AO2 FZRANOEQDQ01    099SCCGD1P01    003SCCGA1
0180724927232852010010609407+37694-121810FM-16+0121KLVK V0309999C000052200059N0016095N5+00305+00205999999ADDAU100001015AW1105GF100991999999999999999999MA1102175100715REMMET07501/06/10 01:40:02 SPECI KLVK 060940Z 00000KT 1SM BR CLR 03/02 A3017 RMK AO2EQDQ01    099SCCGD1P01    003SCCGA1
0187724927232852010010609457+37694-121810FM-16+0121KLVK V0300505N001552200059N0048285N5+00205+00205999999ADDAU100001015AW1105GF100991999999999999999999MA1102175100715REMMET08201/06/10 01:45:02 SPECI KLVK 060945Z 05003KT 3SM BR CLR 02/02 A3017 RMK AO2 FZRANOEQDQ01    099SCCGD1P01    003SCCGA1
0215724927232852010010609537+37694-121810FM-15+0121KLVK V0309999C000052200059N0064375N5+00175+00115102165ADDAA101000095AU100001015AW1105GF100991999999999999999999MA1102175100715REMMET09901/06/10 01:53:02 METAR KLVK 060953Z 00000KT 4SM BR CLR 02/01 A3017 RMK AO2 SLP216 T00170011 FZRANOEQDQ01    099SCCGD1P01    003SCCGA1
0191724927232852010010610167+37694-121810FM-16+0121KLVK V0302705N001552200059N0028165N5+00205+00205999999ADDAU100001015AW1105GF100991999999999999999999MA1102175100715REMMET08601/06/10 02:16:02 SPECI KLVK 061016Z 27003KT 1 3/4SM BR CLR 02/02 A3017 RMK AO2 FZRANOEQDQ01    099SCCGD1P01    003SCCGA1
0187724927232852010010610247+37694-121810FM-16+0121KLVK V0302805N00215002745WN0012075N5+00205+00205999999ADDAU100001015AW1105GA1095+002745999GD15991+0027459GF109991999999000251999999MA1102175100715REMMET08601/06/10 02:24:02 SPECI KLVK 061024Z 28004KT 3/4SM BR VV009 02/02 A3017 RMK AO2 FZRANO
0214724927232852010010610537+37694-121810FM-15+0121KLVK V0302605N002152200059N0016095N5+00175+00175102165ADDAA101000095AU100001015AW1105GA1025+000305999GD11991+0003059GF102991999999999999999999MA1102175100715REMMET10201/06/10 02:53:02 METAR KLVK 061053Z 26004KT 1SM BR FEW001 02/02 A3017 RMK AO2 SLP216 T00170017 FZRANO
0226724927232852010010611047+37694-121810FM-16+0121KLVK V0302505N00155002135MN0012075N5+00205+00205999999ADDAU100001015AW1105GA1025+000305999GA2075+002135999GD11991+0003059GD23991+0021359GF107991999999999999999999MA1102175100715REMMET09401/06/10 03:04:02 SPECI KLVK 061104Z 25003KT 3/4SM BR FEW001 BKN007 02/02 A3017 RMK AO2 FZRANO
0226724927232852010010611227+37694-121810FM-16+0121KLVK V0309999C00005000305MN0004025N5+00205+00205999999ADDAU100002015AW1305GA1075+000305999GA2085+002135999GD13991+0003059GD24991+0021359GF108991999999999999999999MA1102175100715REMMET09401/06/10 03:22:02 SPECI KLVK 061122Z 00000KT 1/4SM FG BKN001 OVC007 02/02 A3017 RMK AO2 FZRANO
0319724927232852010010611537+37694-121810FM-15+0121KLVK V0309999C00005000305WN0004025N5+00285+00225102175ADDAA101000095AA206000391AA324000391AU100002015AW1305GA1095+000305999GD15991+0003059GF109991999999000251999999KA1999M+00561KA2999N+00171MA1102175100715MD1590039+9999REMMET12601/06/10 03:53:02 METAR KLVK 061153Z 00000KT 1/4SM FG VV001 03/02 A3017 RMK AO2 SLP217 60001 70001 T00280022 10056 20017 55003EQDQ01  00038PRCP24
0188724927232852010010612327+37694-121810FM-16+0121KLVK V0309999C00005000615MN0004025N5+00205+00205999999ADDAU100002015AW1305GA1085+000615999GD14991+0006159GF108991999999999999999999MA1102175100715REMMET08701/06/10 04:32:02 SPECI KLVK 061232Z 00000KT 1/4SM FG OVC002 02/02 A3017 RMK AO2 FZRANO
0205724927232852010010612516+37694-121810FM-16+0121KLVK V0309999C00005001225MN0008055N5+00205+00205999999ADDAU100002015AW1305GA1075+001225999GA2075+002445999GD13991+0012259GD23991+0024459MA1102175100715REMMET09901/06/10 04:51:02 SPECI KLVK 061251Z 00000KT 1/2SM FG BKN004 BKN008 02/02 A3017 RMK AO2 FZRANO FIBI
0247724927232852010010612537+37694-121810FM-15+0121KLVK V0309999C00005001225MN0008055N5+00285+00225102175ADDAA101000095AU100002015AW1305GA1075+001225999GA2075+002445999GD13991+0012259GD23991+0024459GF107991999999999999999999MA1102175100715REMMET10401/06/10 04:53:02 METAR KLVK 061253Z 00000KT 1/2SM FG BKN004 BKN008 03/02 A3017 RMK AO2 SLP217 T00280022
0217724927232852010010612597+37694-121810FM-16+0121KLVK V0300905N00155000615MN0032195N5+00305+00305999999ADDAU100001015AW1105GA1075+000615999GA2075+002445999GD13991+0006159GD23991+0024459GF107991999999999999999999MA1102175100715REMMET08501/06/10 04:59:02 SPECI KLVK 061259Z 09003KT 2SM BR BKN002 BKN008 03/03 A3017 RMK AO2
0179724927232852010010613167+37694-121810FM-16+0121KLVK V0309999C00005000615MN0016095N5+00305+00305999999ADDAU100001015AW1105GA1085+000615999GD14991+0006159GF108991999999999999999999MA1102175100715REMMET07801/06/10 05:16:02 SPECI KLVK 061316Z 00000KT 1SM BR OVC002 03/03 A3017 RMK AO2
0218724927232852010010613537+37694-121810FM-15+0121KLVK V0309999C00005000615MN0020125N5+00225+00225102185ADDAA101000095AU100001015AW1105GA1075+000615999GD13991+0006159GF107991999999999999999999MA1102175100715REMMET10601/06/10 05:53:02 METAR KLVK 061353Z 00000KT 1 1/4SM BR BKN002 02/02 A3017 RMK AO2 SLP218 T00220022 FZRANO
0190724927232852010010614037+37694-121810FM-16+0121KLVK V0302805N002152200059N0028165N5+00205+00205999999ADDAU100001015AW1105GA1045+001225999GD12991+0012259GF104991999999999999999999MA1102175100715REMMET08901/06/10 06:03:02 SPECI KLVK 061403Z 28004KT 1 3/4SM BR SCT004 02/02 A3017 RMK AO2 FZRANO
0183724927232852010010614117+37694-121810FM-16+0121KLVK V0303105N001552200059N0040235N5+00305+00205999999ADDAU100001015AW1105GA1025+001225999GD11991+0012259GF102991999999999999999999MA1102175100715REMMET08201/06/10 06:11:02 SPECI KLVK 061411Z 31003KT 2 1/2SM BR FEW004 03/02 A3017 RMK AO2
0179724927232852010010614197+37694-121810FM-16+0121KLVK V0303105N001552200059N0064375N5+00305+00305999999ADDAU100001015AW1105GA1045+000615999GD12991+0006159GF104991999999999999999999MA1102175100715REMMET07801/06/10 06:19:02 SPECI KLVK 061419Z 31003KT 4SM BR SCT002 03/03 A3017 RMK AO2
0179724927232852010010614317+37694-121810FM-16+0121KLVK V0303005N00215000615MN0064375N5+00305+00305999999ADDAU100001015AW1105GA1075+000615999GD13991+0006159GF107991999999999999999999MA1102205100745REMMET07801/06/10 06:31:02 SPECI KLVK 061431Z 30004KT 4SM BR BKN002 03/03 A3018 RMK AO2
0183724927232852010010614427+37694-121810FM-16+0121KLVK V0303005N00265000615MN0028165N5+00305+00305999999ADDAU100001015AW1105GA1085+000615999GD14991+0006159GF108991999999999999999999MA1102205100745REMMET08201/06/10 06:42:02 SPECI KLVK 061442Z 30005KT 1 3/4SM BR OVC002 03/03 A3018 RMK AO2
0181724927232852010010614497+37694-121810FM-16+0121KLVK V0302905N00215000615MN0004025N5+00305+00305999999ADDAU100002015AW1305GA1085+000615999GD14991+0006159GF108991999999999999999999MA1102205100745REMMET08001/06/10 06:49:02 SPECI KLVK 061449Z 29004KT 1/4SM FG OVC002 03/03 A3018 RMK AO2
0240724927232852010010614537+37694-121810FM-15+0121KLVK V0302905N00215000615MN0004025N5+00285+00285102205ADDAA101000095AU100002015AW1305GA1085+000615999GD14991+0006159GF108991999999999999999999MA1102205100745MD1390039+9999MW1441REMMET10801/06/10 06:53:02 METAR KLVK 061453Z 29004KT 1/4SM FG OVC002 03/03 A3018 RMK AO2 SLP220 T00280028 53003 (JN)
0191724927232852010010615057+37694-121810FM-16+0121KLVK V0303005N00215000305WN0004025N5+00305+00305999999ADDAU100002015AW1305GA1095+000305999GD15991+0003059GF109991999999000251999999MA1102205100745MW1451REMMET08401/06/10 07:05:02 SPECI KLVK 061505Z 30004KT 1/4SM FG VV001 03/03 A3018 RMK AO2 (JN)
0191724927232852010010615257+37694-121810FM-16+0121KLVK V0309999C00005000305WN0008055N5+00305+00305999999ADDAU100002015AW1305GA1095+000305999GD15991+0003059GF109991999999000251999999MA1102205100745MW1451REMMET08401/06/10 07:25:02 SPECI KLVK 061525Z 00000KT 1/2SM FG VV001 03/03 A3018 RMK AO2 (JN)
0163724927232852010010615516+37694-121810FM-16+0121KLVK V0309999C00005000305MN0048285N5+00305+00305999999ADDAU100001015AW1105GA1075+000305999GD13991+0003059MA1102205100745REMMET08801/06/10 07:51:02 SPECI KLVK 061551Z 00000KT 3SM BR BKN001 03/03 A3018 RMK AO2 FIBI (JN)
0226724927232852010010615537+37694-121810FM-15+0121KLVK V0309999C000052200059N0096565N5+00285+00285102235ADDAA101000095AU100001015AW1105GA1045+000305999GD12991+0003059GF104991999999999999999999MA1102245100785MW1101REMMET10801/06/10 07:53:02 METAR KLVK 061553Z 00000KT 6SM BR SCT001 03/03 A3019 RMK AO2 SLP223 FG E-NE T00280028 (JN)
0204724927232852010010616327+37694-121810FM-16+0121KLVK V0309999C000052200059N0080475N5+00305+00305999999ADDAU100001015AW1105GA1045+000305999GD12991+0003059GF104991999999999999999999MA1102275100815MW1101REMMET09701/06/10 08:32:02 SPECI KLVK 061632Z 00000KT 5SM BR SCT001 03/03 A3020 RMK AO2 VIS SW-SW 2SM (JN)
0204724927232852010010616347+37694-121810FM-16+0121KLVK V0309999C000052200059N0080475N5+00305+00305999999ADDAU100001015AW1105GA1045+000305999GD12991+0003059GF104991999999999999999999MA1102275100815MW1101REMMET09701/06/10 08:34:02 SPECI KLVK 061634Z 00000KT 5SM BR SCT001 03/03 A3020 RMK AO2 VIS SE-SW 2SM (JN)
0190724927232852010010616417+37694-121810FM-16+0121KLVK V0309999C00005000305MN0032195N5+00305+00305999999ADDAU100001015AW1105GA1075+000305999GD13991+0003059GF107991999999999999999999MA1102275100815MW1101REMMET08301/06/10 08:41:02 SPECI KLVK 061641Z 00000KT 2SM BR BKN001 03/03 A3020 RMK AO2 (JN)
0220724927232852010010616537+37694-121810FM-15+0121KLVK V0309999C00005000305MN0008055N5+00395+00395102295ADDAA101000095AU100002015AW1305GA1075+000305999GD13991+0003059GF107991999999999999999999MA1102305100855MW1441REMMET10201/06/10 08:53:02 METAR KLVK 061653Z 00000KT 1/2SM FG BKN001 04/04 A3021 RMK AO2 SLP229 T00390039 (JN)
0192724927232852010010617177+37694-121810FM-16+0121KLVK V0309999C00005000305MN0004025N5+00405+00405999999ADDAU100002015AW1305GA1085+000305999GD14991+0003059GF108991999999999999999999MA1102305100855MW1441REMMET08501/06/10 09:17:02 SPECI KLVK 061717Z 00000KT 1/4SM FG OVC001 04/04 A3021 RMK AO2 (JN)
0192724927232852010010617317+37694-121810FM-16+0121KLVK V0309999C00005000305MN0008055N5+00405+00405999999ADDAU100002015AW1305GA1085+000305999GD14991+0003059GF108991999999999999999999MA1102305100855MW1441REMMET08501/06/10 09:31:02 SPECI KLVK 061731Z 00000KT 1/2SM FG OVC001 04/04 A3021 RMK AO2 (AK)
0190724927232852010010617457+37694-121810FM-16+0121KLVK V0309999C00005000305MN0016095N5+00505+00405999999ADDAU100001015AW1105GA1085+000305999GD14991+0003059GF108991999999999999999999MA1102305100855MW1101REMMET08301/06/10 09:45:02 SPECI KLVK 061745Z 00000KT 1SM BR OVC001 05/04 A3021 RMK AO2 (AK)
0280724927232852010010617537+37694-121810FM-15+0121KLVK V0303005N00155000305MN0024145N5+00505+00445102295ADDAA101000095AU100001015AW1105GA1075+000305999GD13991+0003059GF107991999999999999999999KA1999M+00501KA2999N+00221MA1102305100855MD1190099+9999MW1101REMMET12201/06/10 09:53:02 METAR KLVK 061753Z 30003KT 1 1/2SM BR BKN001 05/04 A3021 RMK AO2 SLP229 T00500044 10050 20022 51009 (AK)
0190724927232852010010617597+37694-121810FM-16+0121KLVK V0303105N00155000305MN0048285N5+00505+00405999999ADDAU100001015AW1105GA1075+000305999GD13991+0003059GF107991999999999999999999MA1102275100815MW1101REMMET08301/06/10 09:59:02 SPECI KLVK 061759Z 31003KT 3SM BR BKN001 05/04 A3020 RMK AO2 (AK)
0190724927232852010010618077+37694-121810FM-16+0121KLVK V0302905N001552200059N0048285N5+00605+00505999999ADDAU100001015AW1105GA1045+000305999GD12991+0003059GF104991999999999999999999MA1102275100815MW1101REMMET08301/06/10 10:07:02 SPECI KLVK 061807Z 29003KT 3SM BR SCT001 06/05 A3020 RMK AO2 (AK)
0193724927232852010010618537+37694-121810FM-15+0121KLVK V0309999V001552200059N0128755N5+00835+00565102265ADDAA101000095GF100991999999999999999999MA1102275100815REMMET09401/06/10 10:53:02 METAR KLVK 061853Z VRB03KT 8SM CLR 08/06 A3020 RMK AO2 SLP226 T00830056 (AK)EQDQ01    099SCCGD1P01    003SCCGA1
0213724927232852010010619537+37694-121810FM-15+0121KLVK V0300605N005752200059N0096565N5+00945+00615102165ADDAA101000095AU100007015GF100991999999999999999999MA1102175100715MW1055REMMET09701/06/10 11:53:02 METAR KLVK 061953Z 06011KT 6SM HZ CLR 09/06 A3017 RMK AO2 SLP216 T00940061 (AK)EQDQ01    099SCCGD1P01    003SCCGA1
0233724927232852010010620537+37694-121810FM-15+0121KLVK V0300605N005752200059N0080475N5+00945+00615102075ADDAA101000095AU100007015GF100991999999999999999999MA1102075100615MD1890229+9999MW1055REMMET10301/06/10 12:53:02 METAR KLVK 062053Z 06011KT 5SM HZ CLR 09/06 A3014 RMK AO2 SLP207 T00940061 58022 (AK)EQDQ01    099SCCGD1P01    003SCCGA1
0213724927232852010010621537+37694-121810FM-15+0121KLVK V0300405N003152200059N0096565N5+01115+00675102005ADDAA101000095AU100007015GF100991999999999999999999MA1102005100545MW1055REMMET09701/06/10 13:53:02 METAR KLVK 062153Z 04006KT 6SM HZ CLR 11/07 A3012 RMK AO2 SLP200 T01110067 (AK)EQDQ01    099SCCGD1P01    003SCCGA1
0192724927232852010010622537+37694-121810FM-15+0121KLVK V0300605N003652200059N0112655N5+01115+00675101965ADDAA101000095GA1045+018295999GD12991+0182959GF104991999999999999999999MA1101965100515REMMET09701/06/10 14:53:02 METAR KLVK 062253Z 06007KT 7SM SCT060 11/07 A3011 RMK AO2 SLP196 T01110067 (RB)
0270724927232852010010623537+37694-121810FM-15+0121KLVK V0300605N004152200059N0080475N5+00945+00675102015ADDAA101000095AU100007015GA1045+018295999GD12991+0182959GF104991999999999999999999KA1999M+01171KA2999N+00501MA1102005100545MD1590069+9999MW1055REMMET11801/06/10 15:53:02 METAR KLVK 062353Z 06008KT 5SM HZ SCT060 09/07 A3012 RMK AO2 SLP201 T00940067 10117 20050 55006 (RB)
0214724927232852010010700537+37694-121810FM-15+0121KLVK V0300705N003652200059N0064375N5+00835+00615101985ADDAA101000095AU100001015AW1105GF100991999999999999999999MA1101965100515MW1101REMMET09201/06/10 16:53:02 METAR KLVK 070053Z 07007KT 4SM BR CLR 08/06 A3011 RMK AO2 SLP198 T00830061EQDQ01    099SCCGD1P01    003SCCGA1
0214724927232852010010701537+37694-121810FM-15+0121KLVK V0300605N002652200059N0080475N5+00785+00565101995ADDAA101000095AU100001015AW1105GF100991999999999999999999MA1102005100545MW1101REMMET09201/06/10 17:53:02 METAR KLVK 070153Z 06005KT 5SM BR CLR 08/06 A3012 RMK AO2 SLP199 T00780056EQDQ01    099SCCGD1P01    003SCCGA1
0234724927232852010010702537+37694-121810FM-15+0121KLVK V0300505N002152200059N0064375N5+00725+00565101995ADDAA101000095AU100001015AW1105GF100991999999999999999999MA1102005100545MD1690029+9999MW1101REMMET09801/06/10 18:53:02 METAR KLVK 070253Z 05004KT 4SM BR CLR 07/06 A3012 RMK AO2 SLP199 T00720056 56002EQDQ01    099SCCGD1P01    003SCCGA1
0214724927232852010010703537+37694-121810FM-15+0121KLVK V0302905N001552200059N0080475N5+00785+00615102025ADDAA101000095AU100001015AW1105GF100991999999999999999999MA1102035100585MW1101REMMET09201/06/10 19:53:02 METAR KLVK 070353Z 29003KT 5SM BR CLR 08/06 A3013 RMK AO2 SLP202 T00780061EQDQ01    099SCCGD1P01    003SCCGA1
0208724927232852010010704537+37694-121810FM-15+0121KLVK V0309999C000052200059N0064375N5+00725+00565102095ADDAA101000095AU100001015AW1105GF100991999999999999999999MA1102075100615REMMET09201/06/10 20:53:01 METAR KLVK 070453Z 00000KT 4SM BR CLR 07/06 A3014 RMK AO2 SLP209 T00720056EQDQ01    099SCCGD1P01    003SCCGA1
0266724927232852010010705537+37694-121810FM-15+0121KLVK V0309999C000052200059N0064375N5+00675+00565102125ADDAA101000095AU100001015AW1105GF100991999999999999999999KA1999M+00941KA2999N+00611MA1102135100685MD1290149+9999REMMET11001/06/10 21:53:02 METAR KLVK 070553Z 00000KT 4SM BR CLR 07/06 A3016 RMK AO2 SLP212 T00670056 10094 20061 52014EQDQ01    099SCCGD1P01    003SCCGA1
0208724927232852010010706537+37694-121810FM-15+0121KLVK V0300205N001552200059N0064375N5+00615+00505102055ADDAA101000095AU100001015AW1105GF100991999999999999999999MA1102035100585REMMET09201/06/10 22:53:01 METAR KLVK 070653Z 02003KT 4SM BR CLR 06/05 A3013 RMK AO2 SLP205 T00610050EQDQ01    099SCCGD1P01    003SCCGA1
0218724927232852010010707537+37694-121810FM-15+0121KLVK V0309999C000052200059N0064375N5+00565+00445102015ADDAA101000095AU100001015AW1105GF100991999999999999999999MA1102005100545REMMET10201/06/10 23:53:01 METAR KLVK 070753Z 00000KT 4SM BR CLR 06/04 A3012 RMK AO2 SLP201 T00560044 401170017EQDQ01    099SCCGD1P01    003SCCGA1
1077724927232852010010707596+37694-121810SOD  +0121KLVK V030999999999999999999999999999+99999+99999999999ADDAA12400009UAX1016246AX2026246AX3086246KA1240M+01175KA2240N+00175KG1024W+0056D4KG2024D+0044D4MF1100684102134MG1100684101934OE11240080506012405OE22240067104012315OE33240017099999995RH1024X100D4RH2024N075D4RH3024M090D4REMSOD75124 HR PRECIPITATION (IN):0.01  WEATHER(CODE):1,2,8  24 HR MAX TEMP (F):53 24 HR MAX TEMP TIME (LST):1450 24 HR MIN TEMP (F):35 24 HR MIN TEMP TIME (LST):0304 AVERAGE STATION PRESSURE:29.730 MINIMUM SEA LEVEL PRESSURE:30.10 TIME OF OCCURRENCE:1428 PEAK WIND SPEED (MPH):18  PEAK WIND DIR (DEG):60  PEAK WIND TIME (LST):1240  FASTEST 2MIN SPEED (MPH):15 FASTEST 2MIN DIR (DEG):40  FASTEST 2MIN TIME (LST):1231 AVERAGE WIND SPEED (MPH):3.8  24 HR AVG TEMP (F):44 HEATING DEGREE DAYS:21  COOLING DEGREE DAYS:0   LATEST DAY MAX TEMP (0700-1900 LST):53  LATEST NIGHT MIN TEMP(1900-0800 LST):35 HOURLY INCREMENTAL PRECIPITATION VALUES (IN):.01 0.00 0.00 0.00 0.00 0.00 0.00 0.00 0.00 0.00 0.00 0.00 0.00 0.00 0.00 0.00 0.00 0.00 0.00 0.00 0.00 0.00 0.00 0.00EQDR01  0.017AAP092R02 1,2,87AXW090R03 1,2,87AXW090R04 1,2,87AXW090R05     N7GJS072R06     N7GKS075
0228724927232852010010708537+37694-121810FM-15+0121KLVK V0309999C000052200059N0048285N5+00445+00395101965ADDAA101000095AU100001015AW1105GF100991999999999999999999MA1101965100515MD1690169+9999REMMET09801/07/10 00:53:02 METAR KLVK 070853Z 00000KT 3SM BR CLR 04/04 A3011 RMK AO2 SLP196 T00440039 56016EQDQ01    099SCCGD1P01    003SCCGA1
0180724927232852010010709217+37694-121810FM-16+0121KLVK V0309999C000052200059N0032195N5+00405+00405999999ADDAU100001015AW1105GF100991999999999999999999MA1101935100485REMMET07501/07/10 01:21:02 SPECI KLVK 070921Z 00000KT 2SM BR CLR 04/04 A3010 RMK AO2EQDQ01    099SCCGD1P01    003SCCGA1
0180724927232852010010709427+37694-121810FM-16+0121KLVK V0309999C000052200059N0064375N5+00405+00305999999ADDAU100001015AW1105GF100991999999999999999999MA1101965100515REMMET07501/07/10 01:42:02 SPECI KLVK 070942Z 00000KT 4SM BR CLR 04/03 A3011 RMK AO2EQDQ01    099SCCGD1P01    003SCCGA1
0208724927232852010010709537+37694-121810FM-15+0121KLVK V0309999C000052200059N0048285N5+00445+00335101965ADDAA101000095AU100001015AW1105GF100991999999999999999999MA1101965100515REMMET09201/07/10 01:53:02 METAR KLVK 070953Z 00000KT 3SM BR CLR 04/03 A3011 RMK AO2 SLP196 T00440033EQDQ01    099SCCGD1P01    003SCCGA1
0184724927232852010010710457+37694-121810FM-16+0121KLVK V0309999C000052200059N0040235N5+00405+00305999999ADDAU100001015AW1105GF100991999999999999999999MA1101965100515REMMET07901/07/10 02:45:02 SPECI KLVK 071045Z 00000KT 2 1/2SM BR CLR 04/03 A3011 RMK AO2EQDQ01    099SCCGD1P01    003SCCGA1
0208724927232852010010710537+37694-121810FM-15+0121KLVK V0309999C000052200059N0032195N5+00395+00395101975ADDAA101000095AU100001015AW1105GF100991999999999999999999MA1101965100515REMMET09201/07/10 02:53:02 METAR KLVK 071053Z 00000KT 2SM BR CLR 04/04 A3011 RMK AO2 SLP197 T00390039EQDQ01    099SCCGD1P01    003SCCGA1
0184724927232852010010711007+37694-121810FM-16+0121KLVK V0309999C000052200059N0028165N5+00405+00305999999ADDAU100001015AW1105GF100991999999999999999999MA1101965100515REMMET07901/07/10 03:00:02 SPECI KLVK 071100Z 00000KT 1 3/4SM BR CLR 04/03 A3011 RMK AO2EQDQ01    099SCCGD1P01    003SCCGA1
0184724927232852010010711097+37694-121810FM-16+0121KLVK V0309999C000052200059N0040235N5+00405+00305999999ADDAU100001015AW1105GF100991999999999999999999MA1101965100515REMMET07901/07/10 03:09:02 SPECI KLVK 071109Z 00000KT 2 1/2SM BR CLR 04/03 A3011 RMK AO2EQDQ01    099SCCGD1P01    003SCCGA1
0180724927232852010010711257+37694-121810FM-16+0121KLVK V0309999C000052200059N0048285N5+00405+00305999999ADDAU100001015AW1105GF100991999999999999999999MA1102005100545REMMET07501/07/10 03:25:02 SPECI KLVK 071125Z 00000KT 3SM BR CLR 04/03 A3012 RMK AO2EQDQ01    099SCCGD1P01    003SCCGA1
0273724927232852010010711537+37694-121810FM-15+0121KLVK V0300605N001552200059N0048285N5+00225+00225101955ADDAA101000095AU100001015AW1105GF100991999999999999999999KA1999M+00671KA2999N+00221MA1101935100485MD1890019+9999REMMET11701/07/10 03:53:02 METAR KLVK 071153Z 06003KT 3SM BR CLR 02/02 A3010 RMK AO2 SLP195 T00220022 10067 20022 58001 FZRANOEQDQ01    099SCCGD1P01    003SCCGA1
0184724927232852010010712207+37694-121810FM-16+0121KLVK V0309999C000052200059N0040235N5+00305+00305999999ADDAU100001015AW1105GF100991999999999999999999MA1101965100515REMMET07901/07/10 04:20:02 SPECI KLVK 071220Z 00000KT 2 1/2SM BR CLR 03/03 A3011 RMK AO2EQDQ01    099SCCGD1P01    003SCCGA1
0180724927232852010010712317+37694-121810FM-16+0121KLVK V0309999C000052200059N0048285N5+00305+00305999999ADDAU100001015AW1105GF100991999999999999999999MA1101935100485REMMET07501/07/10 04:31:02 SPECI KLVK 071231Z 00000KT 3SM BR CLR 03/03 A3010 RMK AO2EQDQ01    099SCCGD1P01    003SCCGA1
0208724927232852010010712537+37694-121810FM-15+0121KLVK V0309999C000052200059N0048285N5+00285+00225101925ADDAA101000095AU100001015AW1105GF100991999999999999999999MA1101935100485REMMET09201/07/10 04:53:02 METAR KLVK 071253Z 00000KT 3SM BR CLR 03/02 A3010 RMK AO2 SLP192 T00280022EQDQ01    099SCCGD1P01    003SCCGA1
0208724927232852010010713537+37694-121810FM-15+0121KLVK V0309999C000052200059N0064375N5+00335+00285101925ADDAA101000095AU100001015AW1105GF100991999999999999999999MA1101935100485REMMET09201/07/10 05:53:02 METAR KLVK 071353Z 00000KT 4SM BR CLR 03/03 A3010 RMK AO2 SLP192 T00330028EQDQ01    099SCCGD1P01    003SCCGA1
0239724927232852010010714537+37694-121810FM-15+0121KLVK V0309999C000052200059N0048285N5+00335+00285101965ADDAA101000095AU100001015AW1105GF100991999999999999999999MA1101965100515MD1390019+9999MW1101REMMET10301/07/10 06:53:02 METAR KLVK 071453Z 00000KT 3SM BR CLR 03/03 A3011 RMK AO2 SLP196 T00330028 53001 (JW)EQDQ01    099SCCGD1P01    003SCCGA1
0190724927232852010010715207+37694-121810FM-16+0121KLVK V0309999C000052200059N0016095N5+00205+00205999999ADDAU100001015AW1105GA1045+000305999GD12991+0003059GF104991999999999999999999MA1102005100545MW1101REMMET08301/07/10 07:20:02 SPECI KLVK 071520Z 00000KT 1SM BR SCT001 02/02 A3012 RMK AO2 (JW)
0193724927232852010010715387+37694-121810FM-16+0121KLVK V0302705N00265000915MN0000005N5+00205+00205999999ADDAU100002015AW1305GA1075+000915999GD13991+0009159GF107991999999999999999999MA1102075100615MW1441REMMET08601/07/10 07:38:02 SPECI KLVK 071538Z 27005KT M1/4SM FG BKN003 02/02 A3014 RMK AO2 (JW)
0220724927232852010010715537+37694-121810FM-15+0121KLVK V0309999C00005000615WN0000005N5+00335+00335102075ADDAA101000095AU100002015AW1305GA1095+000615999GD15991+0006159GF109991999999000251999999MA1102075100615MW1451REMMET10201/07/10 07:53:02 METAR KLVK 071553Z 00000KT M1/4SM FG VV002 03/03 A3014 RMK AO2 SLP207 T00330033 (JW)
0192724927232852010010716157+37694-121810FM-16+0121KLVK V0301805N001552200059N0004025N5+00305+00305999999ADDAU100002015AW1305GA1045+000615999GD12991+0006159GF104991999999999999999999MA1102075100615MW1441REMMET08501/07/10 08:15:02 SPECI KLVK 071615Z 18003KT 1/4SM FG SCT002 03/03 A3014 RMK AO2 (JW)
0230724927232852010010716327+37694-121810FM-16+0121KLVK V0302405N00315000615MN0008055N5+00405+00405999999ADDAU100002015AW1305GA1075+000615999GA2085+001835999GD13991+0006159GD24991+0018359GF108991999999999999999999MA1102135100685MW1441REMMET09201/07/10 08:32:02 SPECI KLVK 071632Z 24006KT 1/2SM FG BKN002 OVC006 04/04 A3016 RMK AO2 (JW)
0190724927232852010010716417+37694-121810FM-16+0121KLVK V0309999C00005000615MN0032195N5+00405+00405999999ADDAU100001015AW1105GA1075+000615999GD13991+0006159GF107991999999999999999999MA1102135100685MW1101REMMET08301/07/10 08:41:02 SPECI KLVK 071641Z 00000KT 2SM BR BKN002 04/04 A3016 RMK AO2 (JW)
0190724927232852010010716507+37694-121810FM-16+0121KLVK V0309999C00005000615MN0048285N5+00405+00405999999ADDAU100001015AW1105GA1075+000615999GD13991+0006159GF107991999999999999999999MA1102135100685MW1101REMMET08301/07/10 08:50:02 SPECI KLVK 071650Z 00000KT 3SM BR BKN002 04/04 A3016 RMK AO2 (JW)
0163724927232852010010716516+37694-121810FM-16+0121KLVK V0309999C00005000615MN0032195N5+00405+00405999999ADDAU100001015AW1105GA1075+000615999GD13991+0006159MA1102135100685REMMET08801/07/10 08:51:02 SPECI KLVK 071651Z 00000KT 2SM BR BKN002 04/04 A3016 RMK AO2 FIBI (JW)
0218724927232852010010716537+37694-121810FM-15+0121KLVK V0309999C00005000615MN0032195N5+00395+00395102155ADDAA101000095AU100001015AW1105GA1075+000615999GD13991+0006159GF107991999999999999999999MA1102135100685MW1101REMMET10001/07/10 08:53:02 METAR KLVK 071653Z 00000KT 2SM BR BKN002 04/04 A3016 RMK AO2 SLP215 T00390039 (JW)
0192724927232852010010717197+37694-121810FM-16+0121KLVK V0309999C00005000615MN0004025N5+00405+00405999999ADDAU100002015AW1305GA1085+000615999GD14991+0006159GF108991999999999999999999MA1102135100685MW1441REMMET08501/07/10 09:19:02 SPECI KLVK 071719Z 00000KT 1/4SM FG OVC002 04/04 A3016 RMK AO2 (JW)
0192724927232852010010717357+37694-121810FM-16+0121KLVK V0309999C00005000305MN0008055N5+00405+00405999999ADDAU100002015AW1305GA1085+000305999GD14991+0003059GF108991999999999999999999MA1102135100685MW1441REMMET08501/07/10 09:35:02 SPECI KLVK 071735Z 00000KT 1/2SM FG OVC001 04/04 A3016 RMK AO2 (AK)
0280724927232852010010717537+37694-121810FM-15+0121KLVK V0309999C00005000305MN0028165N5+00505+00505102155ADDAA101000095AU100001015AW1105GA1085+000305999GD14991+0003059GF108991999999999999999999KA1999M+00501KA2999N+00221MA1102135100685MD1190089+9999MW1101REMMET12201/07/10 09:53:02 METAR KLVK 071753Z 00000KT 1 3/4SM BR OVC001 05/05 A3016 RMK AO2 SLP215 T00500050 10050 20022 51008 (AK)
0190724927232852010010718007+37694-121810FM-16+0121KLVK V0309999C00005000305MN0032195N5+00505+00505999999ADDAU100001015AW1105GA1085+000305999GD14991+0003059GF108991999999999999999999MA1102135100685MW1101REMMET08301/07/10 10:00:02 SPECI KLVK 071800Z 00000KT 2SM BR OVC001 05/05 A3016 RMK AO2 (AK)
0194724927232852010010718287+37694-121810FM-16+0121KLVK V0309999C00005000915MN0040235N5+00705+00605999999ADDAU100001015AW1105GA1075+000915999GD13991+0009159GF107991999999999999999999MA1102135100685MW1101REMMET08701/07/10 10:28:02 SPECI KLVK 071828Z 00000KT 2 1/2SM BR BKN003 07/06 A3016 RMK AO2 (AK)
0190724927232852010010718457+37694-121810FM-16+0121KLVK V0302405N002152200059N0048285N5+00705+00705999999ADDAU100001015AW1105GA1045+000915999GD12991+0009159GF104991999999999999999999MA1102135100685MW1101REMMET08301/07/10 10:45:02 SPECI KLVK 071845Z 24004KT 3SM BR SCT003 07/07 A3016 RMK AO2 (AK)
0218724927232852010010718537+37694-121810FM-15+0121KLVK V0302305N001552200059N0048285N5+00725+00675102135ADDAA101000095AU100001015AW1105GA1045+000915999GD12991+0009159GF104991999999999999999999MA1102135100685MW1101REMMET10001/07/10 10:53:02 METAR KLVK 071853Z 23003KT 3SM BR SCT003 07/07 A3016 RMK AO2 SLP213 T00720067 (AK)
0192724927232852010010719537+37694-121810FM-15+0121KLVK V0300605N004152200059N0112655N5+01005+00785102025ADDAA101000095GA1045+008535999GD12991+0085359GF104991999999999999999999MA1102005100545REMMET09701/07/10 11:53:02 METAR KLVK 071953Z 06008KT 7SM SCT028 10/08 A3012 RMK AO2 SLP202 T01000078 (AK)
0213724927232852010010720537+37694-121810FM-15+0121KLVK V0300605N004652200059N0144845N5+01065+00785101885ADDAA101000095GF100991999999999999999999MA1101865100415MD1890279+9999REMMET10001/07/10 12:53:02 METAR KLVK 072053Z 06009KT 9SM CLR 11/08 A3008 RMK AO2 SLP188 T01060078 58027 (AK)EQDQ01    099SCCGD1P01    003SCCGA1
0194724927232852010010721537+37694-121810FM-15+0121KLVK V0300605N003652200059N0160935N5+01285+00835101785ADDAA101000095GF100991999999999999999999MA1101795100345REMMET09501/07/10 13:53:02 METAR KLVK 072153Z 06007KT 10SM CLR 13/08 A3006 RMK AO2 SLP178 T01280083 (JW)EQDQ01    099SCCGD1P01    003SCCGA1
0213724927232852010010722537+37694-121810FM-15+0121KLVK V0300805N004152200059N0096565N5+01065+00785101845ADDAA101000095AU100007015GF100991999999999999999999MA1101835100385MW1055REMMET09701/07/10 14:53:02 METAR KLVK 072253Z 08008KT 6SM HZ CLR 11/08 A3007 RMK AO2 SLP184 T01060078 (JW)EQDQ01    099SCCGD1P01    003SCCGA1
0277724927232852010010723537+37694-121810FM-15+0121KLVK V0300905N004652200059N0064375N5+00835+00675101915ADDAA101000095AU100001015AW1105GF100991999999999999999999KA1999M+01281KA2999N+00501MA1101905100445MD1390039+9999MW1101REMMET11501/07/10 15:53:02 METAR KLVK 072353Z 09009KT 4SM BR CLR 08/07 A3009 RMK AO2 SLP191 T00830067 10128 20050 53003 (JW)EQDQ01    099SCCGD1P01    003SCCGA1
0185724927232852010010800507+37694-121810FM-16+0121KLVK V0300705N003152200059N0048285N5+00705+00705999999ADDAU100001015AW1105GA1045+000915999GD12991+0009159GF104991999999999999999999MA1101935100485MW1101REMMET07801/07/10 16:50:02 SPECI KLVK 080050Z 07006KT 3SM BR SCT003 07/07 A3010 RMK AO2
0213724927232852010010800537+37694-121810FM-15+0121KLVK V0300605N003652200059N0048285N5+00725+00615101945ADDAA101000095AU100001015AW1105GA1045+000915999GD12991+0009159GF104991999999999999999999MA1101935100485MW1101REMMET09501/07/10 16:53:02 METAR KLVK 080053Z 06007KT 3SM BR SCT003 07/06 A3010 RMK AO2 SLP194 T00720061
0189724927232852010010801027+37694-121810FM-16+0121KLVK V0300705N003152200059N0040235N5+00705+00605999999ADDAU100001015AW1105GA1025+000915999GD11991+0009159GF102991999999999999999999MA1101965100515MW1101REMMET08201/07/10 17:02:02 SPECI KLVK 080102Z 07006KT 2 1/2SM BR FEW003 07/06 A3011 RMK AO2
0160724927232852010010801516+37694-121810FM-16+0121KLVK V0300705N001552200059N0064375N5+00705+00605999999ADDAU100001015AW1105GA1005+999999999GD10991+9999999MA1102005100545REMMET08501/07/10 17:51:03 SPECI KLVK 080151Z 07003KT 4SM BR CLR 07/06 A3012 RMK AO2 FIBI (JH)
0214724927232852010010801537+37694-121810FM-15+0121KLVK V0300605N001552200059N0080475N5+00675+00615102015ADDAA101000095AU100001015AW1105GF100991999999999999999999MA1102005100545MW1101REMMET09201/07/10 17:53:02 METAR KLVK 080153Z 06003KT 5SM BR CLR 07/06 A3012 RMK AO2 SLP201 T00670061EQDQ01    099SCCGD1P01    003SCCGA1
0185724927232852010010802447+37694-121810FM-16+0121KLVK V0300905N001552200059N0080475N5+00605+00605999999ADDAU100001015AW1105GA1045+001525999GD12991+0015259GF104991999999999999999999MA1102035100585MW1101REMMET07801/07/10 18:44:02 SPECI KLVK 080244Z 09003KT 5SM BR SCT005 06/06 A3013 RMK AO2
0233724927232852010010802537+37694-121810FM-15+0121KLVK V0300905N001552200059N0064375N5+00615+00565102055ADDAA101000095AU100001015AW1105GA1045+001525999GD12991+0015259GF104991999999999999999999MA1102035100585MD1390109+9999MW1101REMMET10101/07/10 18:53:01 METAR KLVK 080253Z 09003KT 4SM BR SCT005 06/06 A3013 RMK AO2 SLP205 T00610056 53010
